:0400000500000000F7
:020000040000FA
:1000000018F09FE518F09FE518F09FE518F09FE5C0
:1000100018F09FE50000A0E120F11FE518F09FE532
:100020005400000040000000ACDB00004400000071
:1000300048000000000000004C00000050000000DC
:10004000FEFFFFEAFEFFFFEAFEFFFFEAFEFFFFEA18
:10005000FEFFFFEAFC009FE5AA10A0E35520A0E305
:100060002030A0E3A03180E5A03190E5403013E2DC
:10007000FCFFFF0A0130A0E30C3180E50730A0E36C
:10008000843080E58C1080E58C2080E50130A0E391
:10009000803080E58C1080E58C2080E5883090E50C
:1000A000013313E2FCFFFF0A883090E5A8409FE58A
:1000B000043003E00740A0E3043033E0F9FFFF1A07
:1000C0000330A0E3043180E50330A0E3083180E58C
:1000D00088309FE5A83180E50A38A0E3AC3180E59F
:1000E0000330A0E3803080E58C1080E58C2080E533
:1000F00060009FE50410A0E3041080E50210A0E377
:10010000001080E558009FE5DBF021E300D0A0E17E
:10011000000040E2D7F021E300D0A0E1000040E27F
:10012000D1F021E300D0A0E1000040E2D2F021E3D1
:1001300000D0A0E1800040E2D3F021E300D0A0E1B4
:10014000200040E210F021E300D0A0E150A04DE2F9
:1001500010009FE510FF2FE100C01FE0FF7FFF00B0
:10016000800200A8002D00406C010000000000EAA1
:10017000E13500EA28008FE2000C90E800A08AE058
:1001800000B08BE001704AE20B005AE1DA35000A58
:100190000F00BAE814E04FE2010013E303F0471048
:1001A00013FF2FE130ED000050ED000001C08FE2A1
:1001B0001CFF2FE18A18037801305C07640F01D11E
:1001C000047801301D1101D105780130013C05D0C2
:1001D000067801300E700131013CF9D11E0706D4BA
:1001E0002E1C0ED0013E8C55FCD1491909E0047833
:1001F00001300C1B0135267801340E700131013DB0
:10020000F9D59142D7D370470030A0E30040A0E376
:100210000050A0E30060A0E3102052E27800A12883
:10022000FCFFFF8A822EB0E13000A128003081451A
:100230001EFF2FE17847C04604309FE503308FE072
:1002400013FF2FE1C9D800000C009FE50C109FE5BB
:1002500004209FE508309FE51EFF2FE1102C004091
:10026000602C0040102C0040C046FEE7C04670479E
:10027000102088494861704710B504000120864964
:10028000086010204914C861002009110860FFF7B8
:10029000EFFF8248006844620121804800682030F6
:1002A000417001207D49096848707C4800680EF063
:1002B000DFFB7B487949086002207949487077481C
:1002C0000068406A10BC08BC1847764840680221A4
:1002D00008437449486074486F4988610320486145
:1002E0000120486071487249086105207149088001
:1002F00070477047674880691021084365498861E5
:10030000704765488068704763480068C007C00F41
:10031000704760480069102108435E4908617047D2
:1003200010B5002404E00020A100634A5050641C72
:100330000F2CF8D33022B721890060480DF0CEFF92
:100340005F4A604960480DF0C9FF10BC08BC1847FF
:1003500010B55A4801DF10BC08BC184710B504009E
:100360005948A16A02DF2100544802DF10BC08BCD2
:10037000184700207047C0467047FFB581B00400A1
:1003800015001E0000202070012060700298A070EF
:1003900000206060A060E0602061A082E082208395
:1003A000608321200655608C002805D0618C89105F
:1003B0008900A06A471805E0434801DFA062A06AEF
:1003C0000700C837381F0700056040480090E8075D
:1003D000C00F03D02021009808430090391F0F0060
:1003E00000980860002E01D00D2000E00820009049
:1003F00006E00020391F0F0008600098401E0090A2
:1004000000980028F5D1002E03D0391F0F00E069B5
:1004100008606762E56205B0F0BC08BC18470022BE
:100420001E49096820314A701C4908600221417048
:100430002121095C012902D11E49091D08601549C5
:10044000096910221143134A1161704710B5204801
:1004500040681849091D0968884207D01D4800886E
:10046000401D1449088010BC08BC1847114800887A
:100470001849098888420CD10E480088401D0D4952
:10048000088013480EF048F90400210010480EF0CF
:10049000CFFAE8E700F0FFFF004000E04807004027
:1004A0009C2A0040C0C01FE05FEA000044DB00005F
:1004B00000F1FFFF00000040981700406007004077
:1004C000C8000080580D0000400A004010000040A5
:1004D000FC2A00404C07004003C08FE21CFF2FE1C4
:1004E0007047C046FEE70000F8B505000E006F1E1D
:1004F000F9007A4A881801210EF0F4FA7848007859
:1005000000280DD1012076490870102275497648DF
:100510000DF0E4FE012803D10220F8BC08BC184706
:1005200060217943714A881860210EF013F9602127
:1005300079436F4A881860210EF00CF9280001F009
:1005400003FC0400002C01D02000E6E73100280065
:1005500001F041FCE1E710B50400200001F054FC7B
:1005600010BC08BC1847F7B505000E006F1E280028
:1005700001F054FC002804D13100280001F099FB5F
:100580001FE0594801DF0400002C18D00FCE0FC423
:10059000103E103C60217943544A88182100029A89
:1005A0000EF02EF901280CD121004F4802DF01285E
:1005B00003D10720FEBC08BC18470820FAE7062034
:1005C000F8E70020F6E770B504000D0016000020E3
:1005D000E873320029002000FFF7C5FF70BC08BC9B
:1005E000184770B504000D0016000120E8733200B2
:1005F00029002000FFF7B7FF70BC08BC1847F8B50A
:1006000004000D001600370000200090C0462000B6
:1006100001F004FC00280ED12900200001F01DFC8F
:100620000090611EC9002D4A88180EF087FA00203C
:10063000F8BC08BC18472F48864200D17F1C7F1E9B
:1006400001200DF09FFF002FE1DA0820F0E7F8B558
:1006500004000D001600671E60217943244A8818A3
:10066000320069460EF024F9012803D10820F8BCB5
:1006700008BC184700980FC80FC5103D1A480099CC
:1006800002DF012801D10720F1E70020EFE770B574
:1006900004000D001600320029002000FFF7D7FFEC
:1006A00070BC08BC1847F8B505000E0017001C0008
:1006B00023003A003100280001F0D2FBF8BC08BC4E
:1006C000184770B504000D00160032002900200004
:1006D00001F023FD70BC08BC18470000601E0040FC
:1006E000080000400C050000D4170040E01C00404A
:1006F000A01D0040FFFF0000002033490860334880
:100700004068FF21491C08433049486000203049B7
:100710000860304800680321890708432D490860B4
:10072000080040683C2108432A4948602A488068FC
:100730000121090408432849886008004068012114
:10074000090408432449486008008068012189059C
:100750000843214988600800406801218905084351
:100760001D49486008201A49C860382008600120E7
:1007700070470100164A916092681006000EC0464C
:10078000134A526880231A42FAD07047FF21104A58
:100790009160C0460E49496880221142FAD00C4946
:1007A00089680806000E704730B503000C0000256C
:1007B00004E0FFF7EBFF18705B1C6D1CA542F8D33B
:1007C00030BC08BC1847000010000040C0C01FE04B
:1007D000000002E000C002E0008002E070B504000A
:1007E0000D001600012000044A49C8604020FFF7B0
:1007F000C0FF2000FFF7BDFF2800FFF7BAFF012070
:1008000000044449486070BC08BC184770B5040037
:100810000E00012000043F49C8604120FFF7A9FFF6
:100820002000FFF7A6FFFFF7B1FF0500012000043D
:1008300038494860280070BC08BC184710B5002033
:10084000354908705EE03448027800210520FFF742
:10085000C5FF314801781320FFF7D8FF2E480278F2
:10086000FF210020FFF7BAFF2B480278FF2101206B
:10087000FFF7B4FF28480278FF210C20FFF7AEFFF6
:1008800025480278FF210D20FFF7A8FF22480278B3
:1008900000210800FFF7A2FF1F480278FF21012076
:1008A000FFF79CFF1D480078802108431B49087012
:1008B0000800007840218843184908700800007833
:1008C00001210843154908700800007802210843F7
:1008D0001249087008000078FB2108400F49087091
:1008E00008000078082108430C4908700A4802787B
:1008F000080001781220FFF771FF07480078401CBC
:10090000054908700448007801289CDB10BC08BC2D
:1009100018470000008002E0140000402207004059
:1009200070B505000E0090480068C02108438E494C
:1009300008604020C8618020C861002D26D18B4806
:100940000068502108438949086083208849C860AD
:10095000310088480DF0E6F80400200A8449486018
:100960002006000E08600320C860072088600F2260
:100970008149062001F0B5FC002802D170BC08BCFA
:10098000184707207A4948600120F7E7012D23D155
:10099000764800690A210843744908618320774931
:1009A000C860310073480DF0BDF80400200A734997
:1009B00048602006000E08600320C8600720886099
:1009C00001226F4901F08DFC002800D1D6E70720F5
:1009D0006A4948600120D1E7022D2BD1694840685F
:1009E000E905084367494860604800680521090532
:1009F00008435E49086083206349C86031005D4850
:100A00000DF090F80400200A5F4948602006000EAF
:100A100008600320C8600720886001225B491C2011
:100A200001F05FFC002800D1A8E707205649486084
:100A30000120A3E7032D2CD152484068012149062B
:100A40000843504948604948406A0F210906084355
:100A50004649486283204E49C860310045480DF040
:100A600061F80400200A4A4948602006000E086028
:100A70000320C86007208860012246491D2001F03C
:100A800030FC002800D179E7072041494860012067
:100A900074E7002072E7002817D113E0C0463E4AF1
:100AA0001278002AFBD03D4A3D4B1B78D25C304B7C
:100AB0001A600022384B1A70394A1278521C384B8F
:100AC0001A70491E0029E9D14CE0012817D113E022
:100AD000C046344A1278002AFBD0334A334B1B7885
:100AE000D25C264B1A6000222E4B1A702F4A1278C5
:100AF000521C2E4B1A70491E0029E9D132E00228FF
:100B000017D113E0C0462A4A1278002AFBD0294A9E
:100B1000294B1B78D25C1C4B1A600022244B1A70A4
:100B2000254A1278521C244B1A70491E0029E9D11B
:100B300018E0032816D113E0C046204A1278002A94
:100B4000FBD01F4A1F4B1B78D25C114B1A6000224E
:100B50001A4B1A701B4A1278521C1A4B1A70491EF3
:100B60000029E9D17047000040C0FF3F00C002E00B
:100B700000C000E060E31600C80B0000000001E0C8
:100B800020160000C0C01FE0008007E038190000F8
:100B900000C007E0AC17000018000040902700409C
:100BA0003401004019000040902600403701004009
:100BB0001A000040902800403C0100401B0000400B
:100BC000902900403F0100400F502DE90000A0E1B6
:100BD0000030A0E3003103E5B03E9FE5083093E527
:100BE000FF0003E2C000A0E1070000E2030050E3C1
:100BF0003F01001A943E9FE5143093E5FF1003E295
:100C00009E0011E30400000A843E9FE5001083E586
:100C1000783E9FE5003093E5FF2003E2010011E3F9
:100C20007C02000A643E9FE5003093E564CE9FE5B8
:100C300064EE9FE500E0DEE50E30CCE75C3E9FE52C
:100C40000030D3E5FF0053E30500001A483E9FE55E
:100C50000030D3E5013083E23CCE9FE50030CCE5A7
:100C6000F70000EA343E9FE50030D3E5FF0053E390
:100C7000F300000A243E9FE50030D3E5000053E373
:100C80000B00001A0C3E9FE50CCE9FE500C0DCE592
:100C90000C30D3E7070053E30500000A0030A0E35F
:100CA000F4CD9FE50030CCE5F0CD9FE50030CCE5FC
:100CB000E30000EAE43D9FE50030D3E5000053E3A4
:100CC0000E00001ACC3D9FE5CCCD9FE500C0DCE5D1
:100CD0000C30D3E7070053E30800001AB83D9FE546
:100CE0000030D3E5013083E2ACCD9FE50030CCE5A8
:100CF0000130A0E3A4CD9FE50030CCE5D00000EAB0
:100D0000983D9FE50030D3E5010053E30B00001A46
:100D1000803D9FE580CD9FE500C0DCE50C30D3E74A
:100D2000010053E30500000A0030A0E368CD9FE511
:100D30000030CCE564CD9FE50030CCE5C00000EA92
:100D4000583D9FE50030D3E5010053E30E00001A43
:100D5000403D9FE540CD9FE500C0DCE50C30D3E78A
:100D6000010053E30800001A2C3D9FE50030D3E555
:100D7000013083E220CD9FE50030CCE50230A0E3D6
:100D800018CD9FE50030CCE5AD0000EA0C3D9FE5B5
:100D90000030D3E5020053E30B00001AF43C9FE55A
:100DA000F4CC9FE500C0DCE50C30D3E7000053E352
:100DB0000500000A0030A0E3DCCC9FE50030CCE564
:100DC000D8CC9FE50030CCE59D0000EACC3C9FE507
:100DD0000030D3E5020053E30E00001AB43C9FE557
:100DE000B4CC9FE500C0DCE50C30D3E7000053E352
:100DF0000800001AA03C9FE50030D3E5013083E2F3
:100E000094CC9FE50030CCE50330A0E38CCC9FE58B
:100E10000030CCE58A0000EA803C9FE50030D3E555
:100E2000030053E30B00001A683C9FE568CC9FE584
:100E300000C0DCE50C30D3E7110053E30500000AE5
:100E40000030A0E350CC9FE50030CCE54CCC9FE5D2
:100E50000030CCE57A0000EA403C9FE50030D3E565
:100E6000030053E30E00001A283C9FE528CC9FE5C1
:100E700000C0DCE50C30D3E7110053E30800001A92
:100E8000143C9FE50030D3E5013083E208CC9FE5B8
:100E90000030CCE50430A0E300CC9FE50030CCE589
:100EA000670000EAF43B9FE50030D3E5040053E31C
:100EB0000B00001ADC3B9FE5DCCB9FE500C0DCE5C6
:100EC0000C30D3E7020053E30500000A0030A0E332
:100ED000C4CB9FE50030CCE5C0CB9FE50030CCE52E
:100EE000570000EAB43B9FE50030D3E5040053E32C
:100EF0000E00001A9C3B9FE59CCB9FE500C0DCE503
:100F00000C30D3E7020053E30800001A883B9FE54A
:100F10000030D3E5013083E27CCB9FE50030CCE5A7
:100F20000530A0E374CB9FE50030CCE5440000EA37
:100F3000683B9FE50030D3E5050053E30B00001A42
:100F4000503B9FE550CB9FE500C0DCE50C30D3E77C
:100F5000000053E30500000A0030A0E338CB9FE512
:100F60000030CCE534CB9FE50030CCE5340000EA1E
:100F7000283B9FE50030D3E5050053E30E00001A3F
:100F8000103B9FE510CB9FE500C0DCE50C30D3E7BC
:100F9000000053E30800001AFC3A9FE50030D3E557
:100FA000013083E2F0CA9FE50030CCE50630A0E3D3
:100FB000E8CA9FE50030CCE5210000EADC3A9FE575
:100FC0000030D3E5060053E30B00001AC43A9FE556
:100FD000C4CA9FE500C0DCE50C30D3E7E50053E36D
:100FE0000500000A0030A0E3ACCA9FE50030CCE564
:100FF000A8CA9FE50030CCE5110000EA9C3A9FE5C5
:101000000030D3E5060053E30D00001A843A9FE553
:1010100084CA9FE500C0DCE50C30D3E7E50053E36C
:101020000700001A703A9FE50030D3E5013083E2F3
:1010300064CA9FE50030CCE5FF30A0E35CCA9FE5C1
:101040000030CCE54C3A9FE50030D3E548CA9FE537
:1010500000C0DCE50C0053E11D00001A403A9FE59A
:101060000030D3E5000053E31900001A243A9FE54D
:101070000430D3E5020053E30300000A143A9FE56D
:101080000430D3E5030053E30E00001A043A9FE551
:101090000130D3E5010053E30300000AF4399FE572
:1010A0000130D3E5050053E30600001AE4399FE55B
:1010B0000230D3E5000053E30200001A0130A0E340
:1010C000E0C99FE50030CCE50030A0E3C8C99FE54A
:1010D0000030CCE5C0399FE50030D3E5010C53E387
:1010E0004C01001A0030A0E3ACC99FE50030CCE50C
:1010F000480100EA020050E33001001A8C399FE5F4
:10110000003093E58CC99FE58CE99FE500E0DEE5C2
:101110000E30CCE784399FE50030D3E5FF0053E380
:101120000500001A70399FE50030D3E5013083E2F5
:1011300064C99FE50030CCE5F70000EA5C399FE523
:101140000030D3E5FF0053E3F300000A4C399FE57C
:101150000030D3E5000053E30B00001A34399FE55B
:1011600034C99FE500C0DCE50C30D3E7070053E34A
:101170000500000A0030A0E31CC99FE50030CCE563
:1011800018C99FE50030CCE5E30000EA0C399FE583
:101190000030D3E5000053E30E00001AF4389FE559
:1011A000F4C89FE500C0DCE50C30D3E7070053E34B
:1011B0000800001AE0389FE50030D3E5013083E2F3
:1011C000D4C89FE50030CCE50130A0E3CCC89FE552
:1011D0000030CCE5D00000EAC0389FE50030D3E510
:1011E000010053E30B00001AA8389FE5A8C89FE54B
:1011F00000C0DCE50C30D3E7010053E30500000A32
:101200000030A0E390C89FE50030CCE58CC89FE596
:101210000030CCE5C00000EA80389FE50030D3E51F
:10122000010053E30E00001A68389FE568C89FE587
:1012300000C0DCE50C30D3E7010053E30800001ADE
:1012400054389FE50030D3E5013083E248C89FE57C
:101250000030CCE50230A0E340C89FE50030CCE58B
:10126000AD0000EA34389FE50030D3E5020053E3D7
:101270000B00001A1C389FE51CC89FE500C0DCE588
:101280000C30D3E7000053E30500000A0030A0E370
:1012900004C89FE50030CCE500C89FE50030CCE5F0
:1012A0009D0000EAF4379FE50030D3E5020053E3E8
:1012B0000E00001ADC379FE5DCC79FE500C0DCE5C7
:1012C0000C30D3E7000053E30800001AC8379FE54D
:1012D0000030D3E5013083E2BCC79FE50030CCE5A8
:1012E0000330A0E3B4C79FE50030CCE58A0000EAF4
:1012F000A8379FE50030D3E5030053E30B00001A45
:1013000090379FE590C79FE500C0DCE50C30D3E740
:10131000110053E30500000A0030A0E378C79FE501
:101320000030CCE574C79FE50030CCE57A0000EAD8
:1013300068379FE50030D3E5030053E30E00001A41
:1013400050379FE550C79FE500C0DCE50C30D3E780
:10135000110053E30800001A3C379FE50030D3E545
:10136000013083E230C79FE50030CCE50430A0E3D4
:1013700028C79FE50030CCE5670000EA1C379FE5F1
:101380000030D3E5040053E30B00001A04379FE557
:1013900004C79FE500C0DCE50C30D3E7020053E34F
:1013A0000500000A0030A0E3ECC69FE50030CCE564
:1013B000E8C69FE50030CCE5570000EADC369FE543
:1013C0000030D3E5040053E30E00001AC4369FE555
:1013D000C4C69FE500C0DCE50C30D3E7020053E350
:1013E0000800001AB0369FE50030D3E5013083E2F3
:1013F000A4C69FE50030CCE50530A0E39CC69FE580
:101400000030CCE5440000EA90369FE50030D3E59B
:10141000050053E30B00001A78369FE578C69FE578
:1014200000C0DCE50C30D3E7000053E30500000A00
:101430000030A0E360C69FE50030CCE55CC69FE5C8
:101440000030CCE5340000EA50369FE50030D3E5AB
:10145000050053E30E00001A38369FE538C69FE5B5
:1014600000C0DCE50C30D3E7000053E30800001AAD
:1014700024369FE50030D3E5013083E218C69FE5AE
:101480000030CCE50630A0E310C69FE50030CCE587
:10149000210000EA04369FE50030D3E5060053E35F
:1014A0000B00001AEC359FE5ECC59FE500C0DCE5BC
:1014B0000C30D3E7E50053E30500000A0030A0E359
:1014C000D4C59FE50030CCE5D0C59FE50030CCE524
:1014D000110000EAC4359FE50030D3E5060053E370
:1014E0000D00001AAC359FE5ACC59FE500C0DCE5FA
:1014F0000C30D3E7E50053E30700001A98359FE569
:101500000030D3E5013083E28CC59FE50030CCE5A7
:10151000FF30A0E384C59FE50030CCE574359FE53E
:101520000030D3E570C59FE500C0DCE50C0053E159
:101530001A00001A68359FE50030D3E5000053E338
:101540001600001A4C359FE50430D3E5020053E342
:101550000300000A3C359FE50430D3E5030053E364
:101560000E00001A2C359FE50130D3E5010053E34E
:101570000300000A1C359FE50130D3E5050053E365
:101580000600001A0C359FE50230D3E5000053E356
:101590000200001A0130A0E308C59FE50030CCE549
:1015A000F4349FE50030D3E5010C53E31900001A31
:1015B0000030A0E3E0C49FE50030CCE5150000EA70
:1015C000060050E30500001AC4349FE5003093E59F
:1015D000013C83E3B8C49FE500308CE50D0000EAD0
:1015E000010050E30B00001AA0349FE5143093E58E
:1015F000FF1003E2200011E30300000A0130A0E322
:10160000A4C49FE50030CCE5020000EA0030A0E36E
:1016100094C49FE50030CCE50F50BDE804F05EE2D5
:101620001F502DE90000A0E10020A0E3002102E509
:1016300078249FE5082092E5FF0002E2C000A0E1C7
:10164000070000E2030050E32400001A5C249FE539
:10165000142092E5FF1002E29E0011E30400000A4C
:101660004C249FE5001082E540249FE5002092E590
:10167000FF3002E2010011E34900000A2CC49FE59B
:1016800000C09CE52CE49FE50020DEE501E082E25D
:1016900020449FE500E0C4E51CE49FE502C0CEE7DE
:1016A00018249FE50020D2E5012082E20CC49FE5CA
:1016B0000020CCE50020A0E304C49FE50020CCE599
:1016C000F8239FE50020D2E5010C52E33400001A14
:1016D0000020A0E3E4C39FE50020CCE5300000EA51
:1016E000020050E31800001AC0C39FE500C09CE54B
:1016F000C0E39FE50020DEE501E082E2B4439FE520
:1017000000E0C4E5B0E39FE502C0CEE7AC239FE56F
:101710000020D2E5012082E2A0C39FE50020CCE5B5
:101720000020A0E398C39FE50020CCE58C239FE533
:101730000020D2E5010C52E31900001A0020A0E3BA
:1017400078C39FE50020CCE5150000EA060050E3D1
:101750000500001A58239FE5002092E5012C82E342
:101760004CC39FE500208CE50D0000EA010050E32A
:101770000B00001A34239FE5142092E5FF1002E2CB
:10178000200011E30300000A0120A0E334C39FE519
:101790000020CCE5020000EA0020A0E324C39FE57E
:1017A0000020CCE51F50BDE804F05EE21F502DE99B
:1017B0000000A0E10020A0E3002102E508239FE54E
:1017C000082092E5FF0002E2C000A0E1070000E26D
:1017D000030050E32400001AEC229FE5142092E558
:1017E000FF1002E29E0011E30400000ADC229FE5E4
:1017F000001082E5D0229FE5002092E5FF3002E252
:10180000010011E34900000ABCC29FE500C09CE54D
:10181000BCE29FE50020DEE501E082E2B0429FE508
:1018200000E0C4E5ACE29FE502C0CEE7A8229FE558
:101830000020D2E5012082E29CC29FE50020CCE599
:101840000020A0E394C29FE50020CCE588229FE51C
:101850000020D2E5010C52E33400001A0020A0E37E
:1018600074C29FE50020CCE5300000EA020050E39E
:101870001800001A50C29FE500C09CE550E29FE5A9
:101880000020DEE501E082E244429FE500E0C4E59D
:1018900040E29FE502C0CEE73C229FE50020D2E572
:1018A000012082E230C29FE50020CCE50020A0E3C9
:1018B00028C29FE50020CCE51C229FE50020D2E550
:1018C000010C52E31900001A0020A0E308C29FE5B2
:1018D0000020CCE5150000EA060050E30500001AE0
:1018E000E8219FE5002092E5012C82E3DCC19FE521
:1018F00000208CE50D0000EA010050E30B00001A07
:10190000C4219FE5142092E5FF1002E2200011E3BC
:101910000300000A0120A0E3C4C19FE50020CCE53C
:10192000020000EA0020A0E3B4C19FE50020CCE55E
:101930001F50BDE804F05EE20F502DE90000A0E169
:101940000030A0E3003103E598319FE5083093E5CE
:10195000FF0003E2C000A0E1070000E2030050E343
:101960001D00001A7C319FE5143093E5FF1003E25F
:101970009E0011E30400000A6C319FE5001083E52E
:1019800060319FE5003093E5FF2003E2010011E3A1
:101990003C00000A4C319FE5003093E54CC19FE5C7
:1019A0004CE19FE500E0DEE50E30CCE740319FE5FD
:1019B0000030D3E5013083E234C19FE50030CCE54F
:1019C00000308CE20030D3E5010C53E32D00001A07
:1019D0000030A0E30030CCE52A0000EA020050E32A
:1019E0001200001AFC309FE5003093E5FFC003E2CF
:1019F000F8309FE5F8E09FE500E0DEE50EC0C3E7C4
:101A0000EC309FE50030D3E5013083E2E0C09FE594
:101A10000030CCE500308CE20030D3E5010C53E31C
:101A20001800001A0030A0E30030CCE5150000EAF1
:101A3000060050E30500001AAC309FE5003093E546
:101A4000013C83E3A0C09FE500308CE50D0000EA77
:101A5000010050E30B00001A88309FE5143093E535
:101A6000FF1003E2200011E30300000A0130A0E3AD
:101A700080C09FE50030CCE5020000EA0030A0E322
:101A800070C09FE50030CCE50F50BDE804F05EE289
:101A900000C000E028000040701E00401C00004014
:101AA000230000403807004022000040180000409A
:101AB000000001E03000004038010040701F00408D
:101AC0001D000040200000401900004000C007E059
:101AD0002C00004040010040702100401F000040E9
:101AE000210000401B000040008007E0340000405F
:101AF000702000401E0000401A00004010B5012078
:101B00000F49087000200F49086001220E4900F0BB
:101B1000E8FB002802D110BC08BC18470B4841075D
:101B2000486003200860AA20886055208860012052
:101B3000F1E7AA200721490788605520886070478F
:101B40006C00004068000040501B0000FFFF3F0099
:101B500003002DE90E02A0E3000090E50400C0E3BD
:101B60000E12A0E3000081E51C009FE5000090E557
:101B7000010080E210109FE5000081E50000A0E375
:101B8000000100E50300BDE804F05EE268000040EB
:101B900010B504002B484068012109030843294976
:101BA0004860294840680F218903884326494860D6
:101BB00008004068012109040843234948600800DF
:101BC00040680121890308431F49486021001F48DC
:101BD0000BF0A8FF401E00021D4908431D49086084
:101BE000012010BC08BC184730B401001948006837
:101BF000000A0002174B1860180003680120884093
:101C000001252D06284303431248036007E088009E
:101C1000104BC0180269D00FC00700D000E0F6E7F3
:101C2000C0460C48006807231B069843094B186000
:101C30001804024202D0002030BC70471004840D0A
:101C40002000F9E7C0C01FE000C002E000366E01CE
:101C500001002000004003E0B1C08FE21CFF2FE133
:101C6000FEB504000D00661EB000FF490858029042
:101C70000027FE48854202D80C20019003E0C046B0
:101C8000C0460A200190FA4801990BF04BFF290049
:101C900000900BF047FF471EBF05BF0D0198800065
:101CA000F44908580743029847610020FEBC08BC6D
:101CB0001847F0B40200541EA000EB4B1E58087BDE
:101CC00000040F231B0418408B7B012B01D101273B
:101CD00000E00027FB071843CB7B012B01D1012734
:101CE00000E00027BB0718430500F06904231842F1
:101CF00009D03563086870634868B0638868F0632A
:101D00002120706002E00420F0BC70470020FBE757
:101D1000F0B4421E9600D44FBD592B6ADE0F8E736D
:101D20000126B6071E40B60FCE731E03360F0E7384
:101D30006E6A0E60CE7B002E04D10C1DAE6A40C4CC
:101D4000EE6A2660F0BC70470100012902D002292A
:101D50003CD11CE0C8484068012252031043C64AE7
:101D60005060C648006800090001C44A10601000B5
:101D7000006805221043C14A1060C148C14AD061C1
:101D80000120C14AD061C005C04A106120E0BA48B4
:101D90004068012292031043B74A5060B748006878
:101DA0000F2212029043B54A10601000006805220D
:101DB00052021043B14A1060B148B24AD0610120CA
:101DC000B14AD061C005B14A106101E009207047F5
:101DD000C0460020FBE7F3B581B00400651EAC4EA1
:101DE000A800A1490F58022030600120386000206F
:101DF0003861B86020000299FFF732FF0320386194
:101E00000020FEBC08BC184710B401004A1E900018
:101E1000954C23580020186010BC704770B5040022
:101E2000651EA80090490E58611EC900994A88187D
:101E300000210CF0A1FE01280DD0F0690421084218
:101E400003D0002070BC08BC1847611EC900914A2D
:101E500088180CF073FE0420F4E70200012070479C
:101E6000FFB484B00498401E0390894802908A49C8
:101E70008A4B0020185E401C40109B1C0027DF5F2F
:101E8000C01901235B02984203DB052008B0F0BCB7
:101E900070470120029B1860079800287AD10398A8
:101EA000400302437E4802407C480088C007C00FC0
:101EB0001ED17A48801C0088002819D0774800235A
:101EC000C35E5C10801C0023C35E0093A0000D580D
:101ED00007E0601C00040414A0000E58A0000D5080
:101EE00035000098431E1B041B1400930028F0D1FA
:101EF0006A480088002804D110046A4B184308601F
:101F000083E06648008801280FD10868000C9042E1
:101F100005D90868000C13041843086075E00868C8
:101F2000000C0004104308606FE000245B4B185F56
:101F300001901800035F581EC0030014009017E0C2
:101F4000A0000858000C904203D9600400140190CE
:101F500011E0A00008580004000C904205D9600070
:101F6000401C00040014019005E0601C00040414EF
:101F700000988442E4DDC0460098844213DD47485F
:101F80000088C007C00F06D11004464B1843A300B9
:101F9000C8503AE041E0A0000858000C000410438B
:101FA000A300C85031E0A0000D580198C007C00F31
:101FB00004D110042B0C1843060003E0280C000485
:101FC00010430600A0000E5034480023C35E581092
:101FD00000900AE0601C00040414A0000E58300CAD
:101FE0002B041843A300C850350000988442F1DB4D
:101FF0002A480088C007C00F07D1A0000858000C6D
:102000000004284BC018A300C85024480088401C76
:1020100000040014214B188064E003984007024339
:102020001E4B0020185E401C4410002001900CE064
:10203000A0000858904200D90EE0601C000404146F
:102040000198401C000400140190144B9B1C0027B5
:10205000DF5F0198B842EBDBC046A0000D58A0003E
:102060000A500E48801C1FE07000004020A10700AD
:1020700000366E017CEE0000C0C01FE000C002E030
:102080002421000040F1FFFF40F2FFFF00F0FFFFBE
:1020900000C003E0601E0040008003E078000040C4
:1020A000FFF70000FFFF00000088401C0004001440
:1020B0001B4B188018000088401E0004001400907C
:1020C0000CE0601C000404140198401C000400147F
:1020D0000190A0000E58A0000D503500009B019803
:1020E0009842EEDB0E4B9B1E0020185E401C4010F9
:1020F0008500981C0023C35E9800461900230298AF
:102100004360029885600298C56002980661029853
:102110004661029803600020B8E603000020704783
:102120007A0000401F502DE904D04DE250019FE598
:10213000080090E5010010E30F00000A44019FE54C
:102140007F3100EB000050E30B00000A38019FE5EF
:10215000010000EF00008DE50100A0E300109DE507
:10216000BCFEFFEB0400A0E314119FE5040081E531
:1021700010019FE500109DE58D3000EB0C019FE5FF
:10218000080090E5010010E30F00000A00019FE540
:102190006B3100EB000050E30B00000AE8009FE504
:1021A000010000EF00008DE50200A0E300109DE5B6
:1021B000A8FEFFEB0400A0E3D0109FE5040081E53A
:1021C000CC009FE500109DE5793000EBB0009FE565
:1021D000080090E5080010E30D00000A0D10A0E1D2
:1021E000B0009FE55D3000EB000050E30600000A00
:1021F0000100A0E300109DE5AE2E00EB88009FE5F6
:1022000000109DE5020000EF010000EA88009FE554
:102210006D3000EB74009FE5080090E5080010E3C6
:102220000D00000A0D10A0E170009FE54B3000EB9F
:10223000000050E30600000A0200A0E300109DE544
:102240009C2E00EB40009FE500109DE5020000EF92
:10225000010000EA48009FE55B3000EB20009FE5AD
:102260000C4090E5010980E20C4090E50000E0E3BD
:102270000010A0E3000101E504D08DE21F50BDE88D
:1022800004F05EE2004004E0A01D0040D4170040CE
:10229000008004E0001E0040E01C0040601E004082
:1022A000401D0040681E004010B40020431E1C0367
:1022B00063610023241123602401E360C0460CE025
:1022C00083000F242402191B8300072464021A1BB5
:1022D00000230B600F231360401C2028F0D310BC98
:1022E000704770B404000120A0401D4B5861202CA1
:1022F00002D3002070BC7047A0000F231B02C51A38
:10230000A00007235B02C61A296032600120A040AA
:10231000134B18610120EDE700B5FF20401C114967
:102320000863C000486101220F491120FFF7D9FF5F
:10233000002801D108BC18470120FBE700B5FFF7D2
:10234000EBFF012802D0002008BC1847074840686E
:10235000FF2181310843054948600120F4E700006E
:1023600000F0FFFF808002E07023000040C11FE00A
:1023700003002DE90800A0E36C109FE5400181E512
:1023800068009FE5000090E5010080E25C109FE599
:10239000000081E558009FE5880090E5020B10E3FE
:1023A0000400000A48009FE58C0090E5020B80E3E2
:1023B0003C109FE58C0081E534009FE5A40090E58A
:1023C000010C10E30400000A24009FE5AC0090E536
:1023D000010C80E318109FE5AC0081E50000A0E34C
:1023E000000100E50300BDE804F05EE200C01FE06C
:1023F00080000040008002E001001948C06801220E
:1024000052021043164AD0600220164A5060032040
:10241000D060100081610801000950620420114A57
:1024200040321061012070470E4A9061020112098A
:102430000C4B5A6204220B4B40331A617047012047
:10244000C00208494031C860092006494860704709
:10245000002004494031C8600249486070470000CC
:1024600000C002E0008001E070B54B24240100258B
:102470000020FFF7C1FF012803D000200F4908709A
:1024800008E001200D49087029002000FFF7CCFF6B
:10249000FFF7D5FF70BC08BC184710B502200849EB
:1024A00048604B20000188610420054940310861E3
:1024B000FFF7C5FF10BC08BC184700001C01004016
:1024C000008001E010B527484078012804D0022898
:1024D0000ED0032812D10FE001F01EF8002404E012
:1024E0002148005D21490855641C402CF8DB05E0BB
:1024F000002010BC08BC18470020FAE7C0460120A5
:10250000F7E718484078012804D0022804D00328AF
:1025100006D103E0002070470020FCE70020FAE726
:102520000120F8E70F48801E80781149085C0F49A8
:102530000870012070470B4840780A49891E897845
:102540000B4A5054012070470A4800780749087028
:10255000012070470348801E8078064908700120DA
:1025600070470000A6000040102300407022004089
:1025700085000040840000400020EA490880EA49C4
:102580000870EA490870EA48EA4908600020EA4908
:102590000860704710B5E949002000F03EFB10BC10
:1025A00008BC184710B5E6488088402801DD402463
:1025B00001E0E3488488E24822000168802000F0BE
:1025C00061FB0400DE4800680019DD49086008006E
:1025D0008088001B888010BC08BC184710B5D848FC
:1025E0000168002000F019FB0400D54800680019BC
:1025F000D349086008008088001B888010BC08BC94
:10260000184710B500221100802000F03BFB10BCE1
:1026100008BC184710B5CB49002000F0FEFA10BCEA
:1026200008BC184710B5C0460022C149891E0800E1
:102630000CF024F80BF0B4FF040020000221084243
:1026400076D0FFF7A7FFBD4909780906C80F00F04B
:102650009DFABA48C088BA498880B84800784006D0
:10266000800F04D001287ED002287DD1E7E0B34856
:1026700043780BF02DF90C070D9316931F30363D60
:102680004B6182930BF0BEFB002800D1D9E086E0BD
:1026900000200BF025FC002800D1D2E0FFF7B1FFAD
:1026A0007DE001200BF01CFC002800D1C9E0FFF701
:1026B000A8FF74E0A1480078C006C00E08D19F486A
:1026C00080788021084398490870FFF79AFF00E05E
:1026D000B7E0C04663E00BF00FFB002800D1B0E08C
:1026E0005DE0002000F07DFA00209549888056E0EA
:1026F00092480078C006C00E05D18C489049086009
:10270000FFF750FF00E09CE0C04648E08B480078AF
:10271000C006C00E0DD10BF055FC002800D190E092
:10272000FFF76FFF8848016801200BF06BFF01E0A5
:102730008FE086E0C04632E080480078C006C00ED8
:10274000012817D179480078002811D07B480079FA
:102750007E49097888420BDA784800797C4940182C
:102760007749086001E01CE06AE0FFF71BFF00E02A
:1027700067E000E065E0C04611E070480078C00600
:10278000C00E012807D10BF0EDFC002800D158E065
:10279000FFF737FF00E054E0C04600E051E0C046DC
:1027A00056E066480078C006C00E012845D163484F
:1027B0000079002840D1614843780BF089F80C3C3F
:1027C0000716293C3C3C3C3C1221343CFFF77AFE86
:1027D000002805D05B485A490860FFF7E3FE2DE06A
:1027E00029E058485649086028E0FFF79BFE00287A
:1027F00005D0544852490860FFF7D4FE1EE01AE0A5
:10280000FFF799FE002802D0FFF7FBFE16E012E06A
:10281000FFF79AFE002805D04A4849490860FFF7AB
:10282000C1FE0BE007E0FFF795FE002802D0FFF79E
:10283000E8FE03E0C046C04603E002E008E000E036
:10284000C046802000F0CDF900203D498880C04678
:10285000C046042004423DD0384800780006C00F2E
:1028600036D137488088002834D0FFF7B7FE344887
:10287000808800282ED1314800784006800F02D091
:10288000012819D100E018E02C480078C006C00EDD
:10289000012802D002280CD10AE02848007900283B
:1028A00005D1FFF72EFE002800D106E002E004E08B
:1028B00003E002E0C04607E0C046802000F091F946
:1028C00000201F498880C046C046FFF79AFE01E0FD
:1028D000FFF7A0FE0820044217D018480078000631
:1028E000C00F012802D1FFF75DFE0EE00E48007810
:1028F0008021084209D00C4800784006400E0A4961
:1029000008700800007800F063F84020044202D00C
:10291000002000F074F98020044200D184E600F029
:102920006EF981E6880000408A0000408B0000407C
:10293000010001008C00004090000040A400004015
:102940009C00004070220040B40000409400004011
:1029500095000040A3C08FE21CFF2FE101000A0791
:10296000D00E8022114200D0401C70471021E34A53
:10297000916011000861C046E049096810221142C7
:10298000FAD070471022DD4B9A601A001061C046E1
:10299000DA4A126810231A42FAD01022D74B9A60F2
:1029A0001A001161C046D54A126810231A42FAD0A3
:1029B000704701003020D14A906010000161C0468C
:1029C000CE48006820221042FAD0CC4840697047B7
:1029D00010B50400802020430004FF22521C104345
:1029E0000100C74809DF802020430004FF22521C59
:1029F00010430100C24809DF10BC08BC1847002082
:102A0000BE49403188604020C86001208860402075
:102A1000C860C046B9480068FF21491C0842F9D087
:102A20000020C043B5498863486388600C20486033
:102A300070477047704710B5B24840680F2189064B
:102A40008843B0494860080040680521890608436A
:102A5000AC4948600800C068AB490840A949C86053
:102A60000800C068A9490843A649C8600800006971
:102A7000032189048843A3490861080000690121F2
:102A8000890408439F490861A148406849040843F4
:102A90009F49486012209F494863C0469D48806B0B
:102AA000122108401228F9D19B489C4988610120D5
:102AB0009B49886180059B490861FFF7A0FF0020C2
:102AC000FFF786FF00F04BFA10BC08BC184710B5A2
:102AD0000400002C01D0012000E000200104FF22AE
:102AE000521C1143904809DF10BC08BC184710B5B0
:102AF0008E4800880221084202D08D498A4809DFA9
:102B000010BC08BC1847704710B50400002C01D059
:102B1000012000E000200104FF22521C11438548DF
:102B200009DF0320754940314860C046734800689A
:102B3000FF21491C0842F9D008007049886010BC88
:102B400008BC184710B50400A078FFF707FF030082
:102B50006A4840304168012098400143674840304E
:102B60004160836060792179000208436349403104
:102B7000C860C04661480068FF21491C0842F9D07E
:102B800008005E49886010BC08BC1847704770B5E3
:102B900004002000FFF7E2FE000467490843050037
:102BA000891309DF70BC08BC184770B50400200009
:102BB000FFF7D4FE00046049084305005F4909DFC0
:102BC00070BC08BC184770B504002000FFF7C6FEB3
:102BD0000004594908430500891309DF70BC08BC8B
:102BE000184770B504002000FFF7B8FE00045249F2
:102BF000084305004E4909DF70BC08BC184770B592
:102C000004002000FFF7AAFE00044B49084305001A
:102C1000891309DF70BC08BC1847F8B504000D0023
:102C20002007800E401C35498862C0463348066A3A
:102C30000120C0020642F9D0B605B60D002706E015
:102C40002E49886929000AF04FFD2D1D7F1CF01CBC
:102C50008008B842F4D800202849886238482041CA
:102C6000C007C00F0AD12000FFF778FE000405213D
:102C700009020843009008DF324808DF3000F8BC42
:102C800008BC1847F8B504000D0016002007800E98
:102C9000801C1A49886208004662002706E0280066
:102CA0000AF010FD1549C8612D1D7F1CF01C80081D
:102CB000B842F4D80020114988622000FFF74EFE88
:102CC0000004052109020843009008DF1E4808DFC0
:102CD0003000F8BC08BC184710B51C4808DF1C4879
:102CE0000ADF04001A480ADF00020443200010BC77
:102CF00008BC1847174800687047000000C2E0FF92
:102D00000005D00000C002E0CFFFFFCF1000002080
:102D1000C0C01FE0C0CFE0FF582D000040F1FFFF12
:102D200040F2FFFF00F0FFFF0005FE0088000040BA
:102D3000000101000005D80000054000000120004E
:102D4000481200000005F2000005FA000005F50039
:102D50000002F500AC000040FF502DE948019FE55E
:102D6000005290E5085280E5080015E31700000ABC
:102D700038019FE5080000EF34019FE50A0000EFED
:102D80000040A0E1100014E30500000AF0FEFFEB94
:102D900020019FE5001090E50400A0E3612D00EB09
:102DA0003D0000EA020014E30000000A3A0000EAD5
:102DB000080014E30500000A040014E30100000AFF
:102DC000BF2B00EB000000EAC02B00EB320000EA52
:102DD000040015E32F00000A2A0000EA0060A0E3C7
:102DE000260000EAC0009FE5300290E50110A0E354
:102DF000110610E11F00000AA670A0E10100A0E387
:102E00001006A0E1A0109FE5380281E50000A0E1D6
:102E100094009FE5000290E5200010E3FBFFFF0A0D
:102E200084009FE5144290E5010016E30D00001AAE
:102E3000000056E30600001A040014E30400000A30
:102E400074009FE5001090E50200A0E3352D00EB33
:102E5000090000EA60009FE5071190E70400A0E385
:102E6000302D00EB030000EA4C009FE5071190E7CE
:102E70000800A0E32B2D00EB0000A0E1016086E23A
:102E8000200056E3D6FFFF3A1C009FE5300290E594
:102E9000000050E3D0FFFF1A0000A0E10000A0E313
:102EA000000100E5FF50BDE804F05EE200C0E0FF75
:102EB0000005FE000002FE00B0000040B02200400D
:102EC00010B5C0460022384908000BF0D7FB0BF0C4
:102ED00067FB0400200004210842F3D0FFF74CFBFD
:102EE000F0E710B5C04600222F4908000BF0C6FBE2
:102EF0000BF056FB040020000821084209D000F026
:102F00000BFB402229498120FFF7BCFE0020274906
:102F1000087004200442E6D025490120FFF77DFE19
:102F200000F0E9FBDFE710B5C04600221E490800AB
:102F30000BF0A4FB0BF034FB0400E007C00FF4D04F
:102F40001C4800780028F0D000F0E6FA402217492B
:102F50008120FFF797FE002014490870E5E710B5BF
:102F600000220321144813000BF0A6FE1349086049
:102F700000220221124813000BF09EFE1149086046
:102F800000220221104813000BF096FE0D49486004
:102F9000002202210D4813000BF08EFE0C49086040
:102FA00010BC08BC18470000FFFF000010230040C1
:102FB000502300408B000040C12E0000B0000040B4
:102FC00025260000B0220040E32E0000272F00003D
:102FD000B400004010B5012000F09EF8002801D197
:102FE000C046FEE7002403E0002036490855641C73
:102FF000102CF9D3022034490860002033490860BE
:103000009820304908700120487000208870012005
:103010002F49086000F0B0F8002403E0002029499F
:103020000855641C102CF9D30120274908600220A0
:10303000264908609820234908700020487099208C
:10304000887000202249086000F096F8002403E010
:1030500000201C490855641C102CF9D302201A4981
:103060000860002019490860922016490870012064
:1030700048700020887001201549086000F07CF835
:10308000002403E000200F490855641C102CF9D3DC
:1030900001200D49086002200C490860922009496E
:1030A000087000204870932088700020084908604C
:1030B00000F062F89820034908709920887010BCCD
:1030C00008BC1847F0220040DC000040D800004057
:1030D000D00000400021002020223A4B1A600BE073
:1030E000394A1268012A01D1012006E0374A91428B
:1030F00001D3002001E0491CF2E7C04670471020D0
:103100003049086008208861C0462E4800681021B8
:103110000842FAD10120704710B504002C484068DD
:103120000121C90408432A4948602A4840680F2100
:1031300089058843274948600800406805218905BA
:103140000843244948606C201E49886180204861FA
:103150000861022C01D19820C8600F221E49092065
:10316000FFF7BFF8002802D110BC08BC1847402068
:10317000144908600120F7E710B5184C00201249E7
:1031800008601749086017490860FFF7A3FF012886
:1031900005D0FFF7B4FF002010BC08BC184707E0BB
:1031A00009480068052802D1FFF7A9FF02E0641E64
:1031B000002CF5D1C046002C01D10020ECE7012005
:1031C000EAE7000000C001E0B8000040FFFFFF0098
:1031D000C0C01FE000C002E0E8310000FFFF0000B7
:1031E000C4000040C80000400F002DE904139FE513
:1031F000041091E5FF0001E20010A0E3001101E5D9
:10320000070010E3B400001AC011A0E10C0051E364
:1032100001F18F30B00000EAAF0000EA090000EAD7
:10322000130000EA220000EAA00000EA380000EAE9
:10323000390000EAA60000EA730000EA9D0000EAF7
:10324000760000EA770000EA0000A0E1A8129FE5FE
:103250000010D1E59C229FE5081082E52810A0E32C
:10326000181082E50110A0E390229FE5001082E58E
:103270009D0000EA0000A0E184129FE5001091E5A6
:10328000000051E30300001A6C129FE50210D1E523
:1032900060229FE5081082E52810A0E354229FE5F4
:1032A000181082E50210A0E350229FE5001082E58D
:1032B0008D0000EA0000A0E140129FE5001091E5BA
:1032C000010051E30E00001A38129FE5001091E54D
:1032D000011081E220229FE50110D2E714229FE530
:1032E000081082E51C129FE5001091E5011081E2B3
:1032F00010229FE5001082E50410A0E3FC219FE569
:10330000001082E50810A0E3E8219FE5181082E58F
:10331000750000EA0000A0E10000A0E1E4119FE5D3
:10332000001091E5E0219FE5002092E5020051E1C7
:103330002300000ACC119FE5001091E5011081E205
:10334000B4219FE50110D2E7A8219FE5081082E58E
:10335000B0119FE5001091E5011081E2A4219FE5E5
:10336000001082E5001082E2001091E598219FE5AF
:10337000002092E5020051E10300000A0410A0E3DE
:1033800078219FE5001082E51B0000EA0510A0E30C
:1033900068219FE5001082E570119FE5001091E51E
:1033A000000051E31400000A2010A0E344219FE52F
:1033B000001082E50310A0E340219FE5001082E5A4
:1033C0000D0000EA44119FE5001091E5000051E373
:1033D0000600000A2010A0E318219FE5001082E5F6
:1033E0000310A0E314219FE5001082E5020000EA2B
:1033F0000510A0E304219FE5001082E50810A0E37A
:10340000F0209FE5181082E5370000EA0000A0E1F7
:103410000810A0E3DC209FE5181082E5320000EAE6
:103420000000A0E10000A0E1C8109FE5081091E5B0
:10343000DC209FE5002092E5032082E2B8309FE582
:103440000210C3E7C8109FE5001091E5011081E26A
:10345000BC209FE5001082E5001082E2001091E59B
:10346000A8209FE5002092E5020051E10300000A38
:103470000410A0E384209FE5001082E5050000EA27
:103480000010A0E388209FE5001082E50510A0E36E
:1034900068209FE5001082E50410A0E354209FE51A
:1034A000001082E50810A0E3181082E50E0000EA83
:1034B0000000A0E10000A0E10810A0E334209FE597
:1034C000181082E50510A0E330209FE5001082E58A
:1034D000050000EA0000A0E10000A0E10810A0E360
:1034E00010209FE5181082E50000A0E10000A0E197
:1034F0000F00BDE804F05EE200C001E0F0220040F1
:10350000B8000040D0000040C8000040DC0000408F
:10351000D8000040C400004070B4FF4A1278002A6E
:103520007ED10020E2E0FD4A1278002A06D0012A6E
:1035300045D0022A75D0032A74D1ABE0F84A12783C
:10354000002A36D0F74A1278002A32D0F44A13788B
:103550000022F34C2270F44C2270F44C2270EE4A9C
:1035600013700022EC4C627000210CE0EE4C2278CB
:10357000541CED4D2C70EE4CA55CE74E8C1C355563
:103580004A1C1106090E9942F0DB0420E44A127825
:10359000002A0ED1E44A1278E44C2478A24208D1E1
:1035A000E24A1278002A04D00022DF4C2270DF4C5D
:1035B0002270DA4A1278521CD84C227092E0DD4A0E
:1035C0001278002A3AD0DC4A1278002A36D0D94A3A
:1035D00013780022D74C2270D34C2270D34C227027
:1035E000CD4A13700122CC4C627000210CE0D34C08
:1035F0002278541CD14D2C70D14CA55CC64E8C1C2D
:1036000035554A1C1106090E9942F0DB0420C94ABF
:103610001278002A12D1C94A1278CA4C247802E0E2
:1036200067E011E05AE0A24208D1C64A1278002AA7
:1036300004D00022C14C2270C24C2270B74A1278CA
:10364000521CB64C22704DE0BF4A1278002A1BD0A3
:10365000BE4A1278022A17D1BB4A13781278AE4CB0
:10366000227002226270002108E0B74C4A1CA45C60
:10367000A94D8A1CAC544A1C1106090E9942F4DB70
:1036800004200022B04C2270A44A1278521CA34C91
:10369000227027E0AE4A1278002A1BD0AD4A127879
:1036A000022A17D1AA4A137812789B4C227003225F
:1036B0006270002108E0A64C4A1CA45C964D8A1C4E
:1036C000AC544A1C1106090E9942F4DB0420002276
:1036D0009F4C22700022914C227003E000228F4CFC
:1036E0002270C046C046421C1006000E042800DAB4
:1036F00019E770BC70479849097800297ED096492F
:103700004978002906D001292BD0022950D003295D
:1037100026D181E090490978002921D08F49097884
:1037200000291DD18E4A117000200EE08A4A811CAA
:10373000515C8C4A8A4B1B78D15489490978491CC1
:10374000874A1170411C0806000E8349097881429E
:10375000ECDC81490978814A117000217E4A1170A0
:103760008CE07D490978002921D07F49097800291A
:103770001DD17E4A117000200EE0774A811C515CF9
:103780007B4A7A4B1B78D15478490978491C774A8F
:103790001170411C0806000E6F4909788142ECDC6B
:1037A0006D490978704A117000216B4A117065E00B
:1037B0006649097802292ED1674989780906664A3F
:1037C000D27812041143644A127912021143624AF8
:1037D00052791143674A1160002008E05E4A811D5A
:1037E000525C6449091D0A54411C0806000E082851
:1037F000F4DB5949897B5F4A117300E03FE0564989
:10380000C97B51735449097C91735349497CD173E5
:103810000021514A117031E04E49097802292CD11A
:103820004D49897809064C4AD278120411434A4A14
:10383000127912021143484A527911434E4A1160DB
:10384000002008E0444A811D525C4B49091D0A547E
:10385000411C0806000E0828F4DB3F49897B464AD4
:1038600011733D49C97B51733B49097C91733A49B6
:10387000497CD1730021384A1170C046C046704758
:1038800000200DE03D49095C3D4A3E4B1B78D15478
:103890003C490978491C3B4A1170411C0806000E3E
:1038A000364909788142EDDC34490978364A127884
:1038B0008918354A1170704700200DE03349095CC2
:1038C000334A344B1B78D15432490978491C314A68
:1038D0001170411C0806000E2C4909788142EDDC6C
:1038E0002A4909782C4A127889182B4A1170704796
:1038F00070B52A4EE12149020020FDF711F8E121BF
:1039000049020220FDF70CF800201F4908701649F3
:1039100008700024224945E010230040E0000040E8
:103920001D000040200000403901004038010040E7
:10393000701F00401F000040210000404101004076
:10394000702100404001004090230040E100004011
:1039500090240040E2000040502300403501004028
:1039600036010040902600403D0100403E010040ED
:10397000902900408801004098010040701E0040DE
:10398000902800403B0100403A0100407020004078
:10399000902700403301004032010040FCFFFF004F
:1039A000380700400870FF490870C04604200AF03C
:1039B000E9FDFD48007800282BDDFA480078002852
:1039C00027D1FA480078F8490978884205D1FFF7ED
:1039D00073FF0020F4490870D6E2F34800781228FB
:1039E000FADBF24800784528F6D1F04840786E2896
:1039F000F2D1EE4880787428EED1EC48007C3E2865
:103A0000EAD1EA48407C2028E6D10020E649087047
:103A1000BAE2E44800780028DED0E4480078E249C1
:103A2000097888427ED1E24800780128FAD1002046
:103A3000DD490870DD480078052874D1DB484078FE
:103A400000287ED1D948807801287AD1D748C0781B
:103A5000012876D1D5480079032872D10220D449B3
:103A600008700020D3490870CF490870D249087007
:103A7000D2490870D24908704522D2490878411CC1
:103A8000D04B1970D0490A54722219000878411C91
:103A90001970CD490A54612219000878411C197027
:103AA000C9490A54732219000878411C1970C64983
:103AB0000A54652219000878411C1970C2490A5439
:103AC000202219000878411C1970BF490A54442269
:103AD00019000878411C1970BB490A546F2219005B
:103AE0000878411C1970B8490A546E2219000878E8
:103AF000411C1970B4490A54652219000878411C08
:103B00001970B1490A54212219000878411C197012
:103B1000AD490A540D2219000878411C1970AA49B0
:103B20000A5401E08EE00CE00A2219000878411CDA
:103B30001970A5490A54A54800780D30A3490870AA
:103B4000A34E9A48007806287BD1984840780028F0
:103B5000FAD1964880780128F6D19448C078012897
:103B6000F2D1924800790328EED1002090490870E4
:103B7000904908708C4908708F4908708F49087007
:103B80008F49087045228F490878411C8D4B197068
:103B90008D490A54722219000878411C19708A490B
:103BA0000A54612219000878411C197086490A5488
:103BB000732219000878411C197083490A54652240
:103BC00019000878411C19707F490A5420221900F5
:103BD0000878411C19707C490A544522190008785C
:103BE000411C197078490A54722219000878411C46
:103BF000197075490A5419000878411C19707249E6
:103C00000A54212219000878411C19706E490A547F
:103C100019000878411C19706B490A540D221900CB
:103C20000878411C197068490A540A22190008785A
:103C3000411C197064490A54644800780D30634986
:103C4000087086E0584800781228FADB5748007858
:103C500045287ED1554840786E287AD153488078DF
:103C6000742876D15148007C3E2872D14F48407C60
:103C700020286ED14E48007801286AD100204A4998
:103C800008704D4908704D4908704D490870494900
:103C9000087049224B490878411C4A4B19704A491F
:103CA0000A546E2219000878411C197046490A54BA
:103CB000202219000878411C197043490A544222F5
:103CC00019000878411C19703F490A546F221900E5
:103CD0000878411C19703C490A5419000878411CA5
:103CE000197039490A54742219000878411C197056
:103CF00035490A54202219000878411C19703249AC
:103D00000A544E2219000878411C19702E490A5491
:103D10006F2219000878411C19702B490A54772228
:103D200019000878411C197027490A540D221900FE
:103D30000878411C197024490A540A22190008788D
:103D4000411C197020490A54204800780D301F4941
:103D500008701748007802287ED11348007805289B
:103D6000FAD1124800780528F6D11048407800288A
:103D7000F2D10E4880780128EED10C48C078032893
:103D8000EAD10A48007902287FD10020084908704A
:103D900055220C490878411C0A4B19700A490A54EB
:103DA000702217E0390700401E00004070200040DC
:103DB000380700401C0000403B0100403C0100402F
:103DC0003A0100403301004090270040320100409A
:103DD000FCFFFF0F19000878411C1970FF490A54B5
:103DE000642219000878411C1970FC490A546122A8
:103DF00019000878411C1970F8490A5474221900F6
:103E00000878411C1970F5490A5465221900087890
:103E1000411C1970F1490A54202219000878411CEC
:103E20001970EE490A54442219000878411C19708F
:103E3000EA490A546F2219000878411C1970E749B1
:103E40000A546E2219000878411C1970E3490A547B
:103E500065221900087800E017E0411C1970DF495D
:103E60000A540D2219000878411C1970DB490A54C4
:103E70000A2219000878411C1970D8490A54D848F8
:103E800000780D30D64908707EE0D64800780228C8
:103E90007AD1D5480078062876D1D448007806280B
:103EA00072D1D248407800286ED1D048807801285D
:103EB0006AD1CE48C078012866D1CC480079032861
:103EC00062D10020C74908705522C9490878411CB1
:103ED000C74B1970C1490A54702219000878411C57
:103EE0001970BE490A54642219000878411C1970DF
:103EF000BA490A54612219000878411C1970B7495F
:103F00000A54742219000878411C1970B3490A54E4
:103F1000652219000878411C1970B0490A54202202
:103F200019000878411C1970AC490A54452219003F
:103F30000878411C1970A9490A547222190008789E
:103F4000411C1970A5490A5419000878411C1970C0
:103F5000A2490A54212219000878411C19709F496E
:103F60000A540D2219000878411C19709B490A5403
:103F70000A2219000878411C197098490A54984877
:103F800000780D30964908709548007800281CD0BC
:103F9000062098494860924801780020FCF77BFD94
:103FA00000208F4908709248007893490978884228
:103FB00008D18F480078002804D000208C49087070
:103FC0008D49087007208B4948608C48007800288C
:103FD0001CD006208A494860884801780220FCF7F6
:103FE0005AFD00208549087086480078864909787E
:103FF000884208D184480078002804D000208149F4
:1040000008708149087007207D4948607F48007822
:10401000002832D07E48007800282ED17B490870D5
:10402000002507E07B48405D00190406240E681C4B
:1040300005062D0E77480078A842F3DC002C13D13A
:1040400074484078012804D17249C87806F0A9FA6A
:104050000EE070484078022803D06E48407805286A
:1040600006D1FFF70DFC03E06A49C87806F03DFA77
:10407000002069490870002405E16748007800289D
:1040800021D05848007801281DD1614800780128C6
:1040900019D1614800785949087000250BE05D4945
:1040A0004A5D58490878411C564B19705B490A54BF
:1040B000681C05062D0E514800788542EFDB002074
:1040C00055490870DFE04748007802281ED1524861
:1040D000007810281AD100204F490870FF26F536C5
:1040E0004648007810304549087000250BE04949E2
:1040F0004A5D44490878411C424B197047490A54AB
:10410000681C05062D0E102DF1DBBCE0354800784B
:104110000228B1D1404800781028ADDA761E002E72
:10412000AAD1FF26F5363C4800780028A4D03348B1
:10413000007839490978401830490870002036491C
:10414000087000250BE033494A5D2E490878411C70
:104150002C4B197031490A54681C05062D0E2E4847
:1041600000788542EFDB552221490878411C204B1D
:1041700019701A490A54702219000878411C1970E4
:1041800016490A54642219000878411C1970134911
:104190000A54612219000878411C19700F490A5409
:1041A000742219000878411C19700C490A546522C0
:1041B00019000878411C197008490A542022190076
:1041C0000878411C197005490A54442219000878DE
:1041D000411C197001490A546F2221E090270040C8
:1041E00032010040380700401E00004070200040AF
:1041F0003301004000C000E0340100403A010040BB
:10420000008007E03B0100403C01004022000040EC
:1042100039070040701E00401C00004090280040FC
:1042200019000878411C1970C9490A546E221900F6
:104230000878411C1970C6490A546522190008788B
:10424000411C1970C2490A54212219000878411CE6
:104250001970BF490A540D2219000878411C1970C1
:10426000BB490A540A2219000878411C1970B84940
:104270000A54B84800780E30B64908700020B64994
:104280000870B6490870B6480078012806D1B148D0
:104290000078002802D109F07DF912E0B1480078D9
:1042A000802803D1B0480078002803D1AF480078B7
:1042B000002806D00020AB490870AB49087005F013
:1042C00082FFAB480078002801D1FFF76FFBFDF7B4
:1042D00030FCFAE710B50020A6498862FEF77AFEA6
:1042E0000020A5490870FEF7BFF8A448FDF750FC70
:1042F00000220821A24813000AF0DEFCA149086050
:10430000FDF7FCFB0020A0490870A0490870A049F7
:104310000870A0490870002209219F4813000AF084
:10432000CBFC9E49086000209D4908709D4908709B
:104330000AF0F4FC10BC08BC184710B505F055FB9A
:1043400000221100984813000AF046FC002010BC1F
:1043500008BC184710B5C0469448007B00280CD014
:1043600093480078022808D10F2212028F490120B9
:10437000FCF729F900208D4908738E48007B00283E
:104380000BD08D480078022807D10F2212028949EC
:10439000FCF719F900208749087364200AF0F2F845
:1043A000DAE710B588B0C046FF2204A90120FCF767
:1043B0006EF900282AD17E480078022826D11020E4
:1043C0007E4908700498000E487004980002000EA0
:1043D000887004980004000EC870049808710024C6
:1043E00007E005A8015D754A601D1154601C0406B4
:1043F000240E6B46187FA042F3DC187F6F49487388
:10440000587F8873987FC873D87F0874FF226946E5
:104410000220FCF73CF90028C6D167480078022842
:10442000C2D11020664908700098000E48700098AC
:104430000002000E887000980004000EC8700098FA
:104440000871002407E001A8015D5D4A601D115458
:10445000601C0406240E6B46187BA042F3DC187B1C
:1044600057494873587B8873987BC873D87B087406
:104470009AE710B5E12149020120FCF751FA012029
:104480005049087000205049087050490870504940
:1044900008705049087050490870C04602200AF060
:1044A00071F8494800780028F8D04648007800287C
:1044B000F4D0FDF73EFB06204849486042480178A9
:1044C0000120FCF7E8FAFDF734FB00203E490870B4
:1044D0003E4908703E490870072040494860DDE7C2
:1044E00010B5E12149020320FCF71AFA01203C49EA
:1044F000087000203B4908703B4908703B49087030
:104500003B4908703B490870C04602200AF03AF85F
:10451000344800780028F8D0314800780028F4D0DA
:10452000FDF707FB0620344948602E480178032038
:10453000FCF7B1FAFDF7FDFA00202A4908702A4974
:1045400008702A49087007202B494860DDE7000001
:1045500090270040320100403907004038070040F2
:104560008101004009070040080700407F0100402A
:104570006C00004000C002E01C01004040420F00FF
:10458000F13800000C0100401C0000401E000040FB
:1045900033010040340100402B9A00001801004014
:1045A0002007004021070040D5420000880100405C
:1045B000E100004098010040E200004090230040EC
:1045C00090240040000100403501004036010040C9
:1045D000370100403801004039010040000001E08F
:1045E000010100403D0100403E0100403F0100400C
:1045F000400100404101004000C007E070B50E25B9
:104600000921FF4802780078401CFD4B1870FD48D6
:1046100081540021180002780078401C1870F94875
:1046200081540121180002780078401C1870F54868
:1046300081540222180001780078401C1870F1485B
:104640004254180001780078401C1870ED4842541C
:10465000ED480078C0210840802808D100211800CA
:1046600002780078401C1870E648815420E0E64843
:1046700000783021084020280AD10121E048027842
:104680000078401CDE4B1870DE4881546D1C0FE032
:10469000DD4800780C210840082809D10221D848BB
:1046A00002780078401CD64B1870D6488154AD1C57
:1046B000D6490968D64A8818C82109F033FA040097
:1046C0002004020ECE4801780078401CCC4B1870B4
:1046D000CC484254200A4519180002780078401C42
:1046E0001870C84884542D19FF20401B401C010637
:1046F000090E180002780078401C1870C1488154D7
:10470000C44800780930C349087070BC08BC184719
:1047100010B40D200722BA490B780978491CB84C0F
:104720002170B849CA54002221000B780978491C2D
:104730002170B449CA54012221000B780978491C20
:104740002170B049CA54032221000B780978491C12
:104750002170AC49CA54022321000A780978491C07
:104760002170A8498B54A8490978C02211404029DA
:1047700008D1002321000A780978491C2170A14939
:104780008B5420E0A04909783022114010290AD129
:1047900001239B490A780978491C994C2170994951
:1047A0008B54401C0FE0984909780C2211400429D1
:1047B00009D1022392490A780978491C904C21704A
:1047C00090498B54801CFF21091A491C0A06120EBD
:1047D0008B490B780978491C894C21708949CA5446
:1047E0008C490978C91D8B4A117010BC704770B58F
:1047F0000026894800788021084387490870874847
:104800000079032810D1854840790002FF21090270
:1048100008400500814880794519C8235D437B48DD
:1048200000684019794908607C48007902286AD1FB
:1048300014260821724802780078401C704B1870CA
:10484000704881540021180002780078401C1870CC
:104850006C4881540121180002780078401C1870BF
:10486000684881540821180002780078401C1870AC
:10487000644881540321180002780078401C1870A5
:1048800060488154654840790002FF2109020840D0
:104890000500624880794519C8235D435B4800687C
:1048A00040195A4908600968594A8818C82109F00E
:1048B00039F904002004010E514802780078401CA8
:1048C0004F4B18704F488154200A80190606360E47
:1048D000180002780078401C18704A488454301937
:1048E0000606360EFF20801B401C0106090E18002C
:1048F00002780078401C187042488154454800787E
:1049000008304449087070BC08BC184744488069A6
:1049100001218906084342498861012080064861D7
:1049200070473F4880690121890608433C498861F6
:1049300001208006C861704710B5FFF7F2FF002024
:10494000FBF717FFFBF722FF36490870FBF71EFF46
:1049500035490870FBF71AFF34490870FBF716FF5A
:1049600033490870FBF712FF32490870FBF70EFF5E
:1049700031490870FBF70AFF30490870FFF7C6FF9E
:104980002E4800782E4908702B4800782D49087071
:10499000264800782C490870234800782B49087075
:1049A000234800782A49087022480078294908706D
:1049B00010BC08BC184710B5FFF7BEFFFFF7B1FFEA
:1049C0009820FBF7D6FEFBF7E1FE0020FBF7D1FEB7
:1049D000FBF7DCFE20480078FBF7CBFEFBF7D6FEAA
:1049E00010480078FBF7C5FEFBF7D0FE0E480078B4
:1049F000FBF7BFFEFBF7CAFE0C4800782EE0000074
:104A00003301004090270040F2060040680100405A
:104A1000C05D000032010040F0060040701E004002
:104A2000008002E05601004055010040570100405F
:104A300058010040590100405A0100405B0100400C
:104A400024070040250700402607004027070040B4
:104A500028070040290700407F010040FBF789FE3E
:104A6000FBF794FEF8480078FBF783FEFBF78EFE19
:104A7000F6480078FBF77DFEFBF788FEF4480078E7
:104A8000FBF777FEFBF782FEF2480078FBF771FE3A
:104A9000FBF77CFEFFF73AFF10BC08BC184710B5C7
:104AA00000240020EC4908701CE0642009F06AFD35
:104AB000641CEA480068844214D30024E648007865
:104AC000012803D10020E44908700BE0E448007895
:104AD000002807D10120E2490870FFF76CFF802011
:104AE000DD490870E1E710B50020DE490870DE48B6
:104AF000407900280FD0DD48007800280BD1002233
:104B00000A21DB4813000AF0D7F8DA4908600120CF
:104B1000D64908700EE0D448407900280AD1D3481D
:104B20000078002806D0D34800680AF0F7F8002083
:104B3000CE49087010BC08BC184710B50400A1008D
:104B4000CD4A505808F0D2FE10BC08BC18470020CF
:104B5000CA490870CA480069012109048843C84944
:104B600008610020BF490870BF490870C549087036
:104B7000C5490870C5490870C5490870C54908701D
:104B8000C5490860C5490860C5490860C54908604D
:104B9000C5490860C549087070470020C3490870BE
:104BA00070470020C149087070470020BF49087055
:104BB00070470020B1490870BA490860BB480078C6
:104BC000401CBA4908707047AD48006901210904CA
:104BD000084208D0AA4880690843A9498861012091
:104BE0000004C86106E0A6488069012109048843E1
:104BF000A3498861704700B5AA480068401CA949CC
:104C0000086008000068C007C00F08D1FFF7DCFF8C
:104C100000209F4908709449087098490870A1487D
:104C200000684B21C900884207D100209D490860D7
:104C30009E480078401C9D49087008BC184700B584
:104C400098480068401C9749086008000068C00741
:104C5000C00F0FD10860FFF7B7FF94480078401CE1
:104C60009249087000208A4908707F490870012025
:104C70008249087008BC184700B58A480068401C83
:104C80008849086008000068C007C00F02D10860AA
:104C9000FFF79AFF734800780821084204D080206B
:104CA00070490870FFF734FD08BC184710B57D48FF
:104CB0000068401C7B49086008000068C007C00FFE
:104CC00011D10860FFF780FF0020794908700820A3
:104CD00064490870FFF792FC74480078FC21084092
:104CE000801C7249087010BC08BC184700B56D489C
:104CF0000068401C6B49086008000068C007C00FCE
:104D00000CD10860FFF760FF002066490860674823
:104D10000078FC210840401C6449087008BC184712
:104D200010B5604800686349884212D15B4800684A
:104D3000002807D059480068401E58490860FFF70E
:104D400043FF28E059480078FC2108405749087083
:104D500021E054480068401C52490860080000687F
:104D6000C007C00F01D1FFF72FFF4E480068800633
:104D7000800E10D14E48007805280CDC39480078A8
:104D800080210840802806D0FFF738FC484800788A
:104D9000401C4749087010BC08BC184710B5304883
:104DA0000078002804D10E202D490870FFF703FE7B
:104DB00010BC08BC18473248806901214902884369
:104DC0002F498861704710B5002036490860374880
:104DD00000780421084335490870002027490870ED
:104DE0002748006901210904884325490861FFF724
:104DF000E2FF00201B4908701B4908702149087018
:104E0000214908702149087021490870214908701A
:104E10002149086021490860FFF7C0FF10BC08BCA9
:104E2000184700201F490860704720480078FC217F
:104E300008401E49087070471C480078FC21084053
:104E40001A4908707047000058010040590100409D
:104E50005A0100405B010040090700406C0100401E
:104E60007F010040F0060040701E00402007004017
:104E70009F4A00001C070040A80100405D0100405F
:104E8000008002E0902700403301004034010040E0
:104E90001C000040080700400C070040680100406B
:104EA000E0060040E4060040E8060040F20600404C
:104EB0005E010040C05D0000F9480078FC21084018
:104EC000F749087070470020F6490870F4480078E8
:104ED000401CF34908700020F3490860704700B592
:104EE000F1480068401CF049086008000068C007ED
:104EF000C00F08D1FFF768FE0020EC490870EC49AC
:104F00000870E8490870E84800684B21C9008842E9
:104F100007D10020E4490860E1480078401CE049DE
:104F2000087008BC184700B5DF480068401CDE491F
:104F3000086008000068C007C00F0FD10860FFF7C5
:104F400043FED7480078401CD54908700020D74957
:104F50000870D74908700120D249087008BC18476A
:104F600000B5D1480068401CCF49086008000068BF
:104F7000C007C00F02D10860FFF726FECD480078B9
:104F80000821084204D08020CA490870FFF7C0FBFE
:104F900008BC18470020C3490870C1480078401C6D
:104FA000BF4908700020C0490860704700B5BE487E
:104FB0000068401CBC49086008000068C007C00FBA
:104FC00008D1FFF701FE0020B8490870B849087001
:104FD000B4490870B44800684B21C900884207D121
:104FE0000020B1490860AE480078401CAC49087008
:104FF00008BC184700B5AC480068401CAA490860C6
:1050000008000068C007C00F0FD10860FFF7DCFD83
:10501000A3480078401CA24908700020A3490870EA
:10502000A349087001209F49087008BC184700B5C3
:105030009D480068401C9C49086008000068C00743
:10504000C00F02D10860FFF7BFFD9A480078082121
:10505000084204D0802097490870FFF759FB08BC2C
:10506000184700208F4908708D48007804210843B4
:105070008B49087008000078401C087000208A499D
:1050800008608D490860704700B587480068401C7B
:105090008549086008000068C007C00F08D1FFF705
:1050A00093FD002081490870814908707D4908708E
:1050B0007D4800684B21C90088420CD100207A4904
:1050C0000860774800780421084375490870080093
:1050D0000078401C087008BC184700B5724800688A
:1050E000401C7149086008000068022815D10020A2
:1050F0000860FFF769FD6A480078042108436849A1
:10510000087008000078401C08700020674908708B
:105110006749087001206349087008BC184700B54A
:105120005F480078042108435D4908705E480068C4
:10513000401C5D49086008000068022803D1002077
:105140000860FFF741FD5B4800780821084204D061
:10515000802058490870FFF7DBFA08BC1847002088
:10516000504908704E480078401C4D490870002096
:105170004D490860704700B54B480068401C4A49DB
:10518000086008000068C007C00F08D1FFF71CFDC9
:105190000020464908704649087042490870424854
:1051A00000684B21C900884207D100203E490860B1
:1051B0003B480078401C3A49087008BC184700B5C5
:1051C00039480068401C3849086008000068022817
:1051D00010D100200860FFF7F7FC31480078401C30
:1051E0002F490870002031490870314908700120AA
:1051F0002C49087008BC184700B52B480068401CB3
:105200002949086008000068022803D100200860CE
:10521000FFF7DAFC274800780821084204D08020F4
:1052200024490870FFF774FA08BC184710B51E48E7
:105230000068401C1C49086008000068C007C00FD7
:1052400011D10860FFF7C0FC00201C49087008203D
:1052500018490870FFF7D2F911480078FC2108407E
:10526000801C0F49087010BC08BC184700B50E48D8
:105270000068401C0C49086008000068C007C00FA7
:105280000CD10860FFF7A0FC05480078FC2108401D
:10529000401C0349087000200349086008BC1847F7
:1052A000F20600405D010040E80600401C0000409E
:1052B000701E0040F0060040E40600405E01004021
:1052C00010B5FF480068FF49884212D1FE480068C7
:1052D000002807D0FC480068401EFB490860FFF723
:1052E00073FC28E0F9480078FC210840F749087071
:1052F00021E0F3480068401CF1490860080000689C
:10530000C007C00F01D1FFF75FFCED4800688006C1
:10531000800E10D1EE48007805280CDCED480078AE
:1053200080210840802806D0FFF768F9E848007817
:10533000401CE749087010BC08BC184710B5002095
:10534000DF490860E148007810210843DF49087010
:105350000020E1490870E1480069012109048843FF
:10536000DE4908610020DB490870DD490870DD492D
:105370000870DD490870DD490870DD490870DD49B5
:105380000870DD490860D0490860FFF707FD10BCD0
:1053900008BC184710B5CA480068401CC8490860D6
:1053A00008000068C007C00F11D10860FFF70CFCAF
:1053B0000020C74908700820C6490870FFF71EF989
:1053C000C2480078FC210840801CC049087010BC0D
:1053D00008BC184700B5BA480068401CB8490860C6
:1053E00008000068C007C00F0CD10860FFF7ECFB95
:1053F000B6480078FC210840401CB44908700020E1
:10540000AF49086008BC184710B5AD480068AD4901
:10541000884212D1AC480068002807D0AA4800682A
:10542000401EA9490860FFF7CFFB28E0A748007895
:10543000FC210840A549087021E0A1480068401CF3
:105440009F49086008000068C007C00F01D1FFF73E
:10545000BBFB9B4800688006800E10D19C480078FA
:1054600005280CDC9B48007880210840802806D065
:10547000FFF7C4F896480078401C9549087010BCA6
:1054800008BC184710B500208D4908608F48007887
:10549000102108438D49087008000078F021084069
:1054A0008A49087000208C4908708C4800690121E5
:1054B00009048843894908610020864908708849A1
:1054C00008708849087088490870884908708849B8
:1054D000087088490870884908607B490860FFF7B0
:1054E0005DFC10BC08BC184710B575480068401C2E
:1054F0007349086008000068C007C00F11D1086038
:10550000FFF762FB0020724908700820714908709B
:10551000FFF774F86D480078FC210840801C6B4947
:10552000087010BC08BC184700B565480068401CEE
:105530006349086008000068C007C00F0BD1FFF77F
:1055400043FB62480078FC210840401C5F4908701A
:1055500000205B49086008BC184710B5584800682F
:105560005849884212D158480068002807D0564848
:105570000068401E54490860FFF726FB28E05348A6
:105580000078FC2108405149087021E04C4800682F
:10559000401C4B49086008000068C007C00F01D1DB
:1055A000FFF712FB464800688006800E10D148487D
:1055B000007805280CDC47480078802108408028C6
:1055C00006D0FFF71BF842480078401C404908709D
:1055D00010BC08BC184710B50020394908603B488A
:1055E0000078142108433949087000203A490870AE
:1055F0003A480069012109048843384908610020BC
:1056000034490870364908703649087036490870C0
:1056100036490870364908703649087036490860BE
:1056200029490860FFF7BAFB10BC08BC184710B541
:1056300023480068401C2249086008000068C00731
:10564000C00F11D10860FFF7BFFA08202049087089
:10565000002020490870FEF7D1FF1C480078FC218B
:105660000840801C1949087010BC08BC184700B5D8
:1056700013480068401C1249086008000068C00711
:10568000C00F0BD1FFF7A0FA10480078FC210840AA
:10569000401C0E49087000200949086008BC1847E2
:1056A00010B5074800680749884231D106480068AC
:1056B000002826D004480068401E034908601DE009
:1056C000E8060040C05D000068010040F2060040AE
:1056D0005E010040F00600405D010040008002E0F5
:1056E000701E00409027004033010040340100400C
:1056F0001C000040080700400C070040FFF764FA58
:1057000028E0FE480078FC210840FC49087021E0B0
:10571000FB480068401CFA49086008000068C007A0
:10572000C00F01D1FFF750FAF54800688006800EDF
:1057300010D1F448007805280CDCF348007880216B
:105740000840802806D0FEF759FFEE480078401C3C
:10575000EC49087010BC08BC184710B50020E84997
:105760000860E648007810210843E44908700020EA
:10577000E6490870E6480069012109048843E449C4
:1057800008610020E0490870E2490870E2490870A9
:10579000E2490870E2490870E2490870E24908707D
:1057A000E2490860E2490860FFF7F8FA10BC08BC5B
:1057B00018470020D24908607047D0480078FC2183
:1057C0000840CE4908707047CC480078FC2108405A
:1057D000CA4908707047C9480078FC210840C74989
:1057E000087070470020C9490870C4480078401C00
:1057F000C24908700020CF490860704700B5CD4805
:105800000068401CCB49086008000068C007C00F52
:1058100008D1FFF7D9F90020C2490870BD490870C6
:10582000BA490870C34800684B21C900884207D1B3
:105830000020C0490860B1480078401CAF4908709A
:1058400008BC184700B5BB480068401CB94908604F
:1058500008000068C007C00F0FD10860FFF7B4F957
:10586000A6480078401CA54908700020AD49087082
:10587000A84908700120A549087008BC184700B560
:10588000AC480068401CAB49086008000068C007CD
:10589000C00F02D10860FFF797F99B4800780821F4
:1058A000084204D0802098490870FEF731FF08BCF8
:1058B000184710B59F480068401C9E4908600800C2
:1058C0000068C007C00F11D10860FFF77DF9002004
:1058D0008C49087008208C490870FEF78FFE8748B5
:1058E0000078FC210840801C8449087010BC08BC6A
:1058F000184700B58F480068401C8E4908600800B2
:105900000068C007C00F0CD10860FFF75DF90020E8
:105910008849086079480078FC210840401C774994
:10592000087008BC184710B5824800688249884250
:1059300012D17F480068002807D07D480068401ECB
:105940007B490860FFF740F928E06C480078FC21AB
:1059500008406A49087021E076480068401C754993
:10596000086008000068C007C00F01D1FFF72CF9DC
:10597000704800688006800E10D1624800780528C3
:105980000CDC6148007880210840802806D0FEF7B2
:1059900035FE5C480078401C5A49087010BC08BCB1
:1059A000184710B500206349086054480078042166
:1059B000084352490870002054490870544800694F
:1059C0000121090488435249086100204E490870AA
:1059D0005049087050490870504908705049087083
:1059E0005049087050490870504908605049086093
:1059F000FFF7D4F910BC08BC184700204D490860D7
:105A00003F49086070473D480078FC2108403B4909
:105A10000870704739480078FC2108403749087001
:105A2000704736480078FC210840344908707047B8
:105A300037488069012149020843354988610120BE
:105A40004002C861704700B53C480068401C3B49B3
:105A5000086000202D490870FFF7EAFF374800680A
:105A60007D210901884207D124480078401C234940
:105A7000087000203149086008BC184700B52F485D
:105A80000068401C2D49086008000068C007C00F6E
:105A900008D1FFF799F80020224908701D490870C5
:105AA0001A49087025480068302807D1002023498A
:105AB000086012480078401C1049087008BC18475C
:105AC00000B51E480068401C1C49086008000068BA
