:0400000500000000F7
:020000040000FA
:1000000018F09FE518F09FE518F09FE518F09FE5C0
:1000100018F09FE50000A0E120F11FE518F09FE532
:10002000540000004000000090DA0000440000008E
:1000300048000000000000004C00000050000000DC
:10004000FEFFFFEAFEFFFFEAFEFFFFEAFEFFFFEA18
:10005000FEFFFFEAFC009FE5AA10A0E35520A0E305
:100060002030A0E3A03180E5A03190E5403013E2DC
:10007000FCFFFF0A0130A0E30C3180E50730A0E36C
:10008000843080E58C1080E58C2080E50130A0E391
:10009000803080E58C1080E58C2080E5883090E50C
:1000A000013313E2FCFFFF0A883090E5A8409FE58A
:1000B000043003E00740A0E3043033E0F9FFFF1A07
:1000C0000330A0E3043180E50330A0E3083180E58C
:1000D00088309FE5A83180E50A38A0E3AC3180E59F
:1000E0000330A0E3803080E58C1080E58C2080E533
:1000F00060009FE50410A0E3041080E50210A0E377
:10010000001080E558009FE5DBF021E300D0A0E17E
:10011000000040E2D7F021E300D0A0E1000040E27F
:10012000D1F021E300D0A0E1000040E2D2F021E3D1
:1001300000D0A0E1800040E2D3F021E300D0A0E1B4
:10014000200040E210F021E300D0A0E150A04DE2F9
:1001500010009FE510FF2FE100C01FE0FF7FFF00B0
:10016000800200A8182D00406C010000000000EA89
:100170009A3500EA28008FE2000C90E800A08AE09F
:1001800000B08BE001704AE20B005AE19335000A9F
:100190000F00BAE814E04FE2010013E303F0471048
:1001A00013FF2FE114EC000034EC000001C08FE2DB
:1001B0001CFF2FE18A18037801305C07640F01D11E
:1001C000047801301D1101D105780130013C05D0C2
:1001D000067801300E700131013CF9D11E0706D4BA
:1001E0002E1C0ED0013E8C55FCD1491909E0047833
:1001F00001300C1B0135267801340E700131013DB0
:10020000F9D59142D7D370470030A0E30040A0E376
:100210000050A0E30060A0E3102052E27800A12883
:10022000FCFFFF8A822EB0E13000A128003081451A
:100230001EFF2FE17847C04604309FE503308FE072
:1002400013FF2FE1ADD700000C009FE50C109FE5D8
:1002500004209FE508309FE51EFF2FE1282C004079
:10026000782C0040282C0040C046FEE7C04670476E
:10027000102088494861704710B504000120864964
:10028000086010204914C861002009110860FFF7B8
:10029000EFFF8248006844620121804800682030F6
:1002A000417001207D49096848707C4800680EF063
:1002B00051FB7B48794908600220794948707748AA
:1002C0000068406A10BC08BC1847764840680221A4
:1002D00008437449486074486F4988610320486145
:1002E0000120486071487249086105207149088001
:1002F00070477047674880691021084365498861E5
:10030000704765488068704763480068C007C00F41
:10031000704760480069102108435E4908617047D2
:1003200010B5002404E00020A100634A5050641C72
:100330000F2CF8D33022B721890060480DF040FF20
:100340005F4A604960480DF03BFF10BC08BC18478D
:1003500010B55A4801DF10BC08BC184710B504009E
:100360005948A16A02DF2100544802DF10BC08BCD2
:10037000184700207047C0467047FFB581B00400A1
:1003800015001E0000202070012060700298A070EF
:1003900000206060A060E0602061A082E082208395
:1003A000608321200655608C002805D0618C89105F
:1003B0008900A06A471805E0434801DFA062A06AEF
:1003C0000700C837381F0700056040480090E8075D
:1003D000C00F03D02021009808430090391F0F0060
:1003E00000980860002E01D00D2000E00820009049
:1003F00006E00020391F0F0008600098401E0090A2
:1004000000980028F5D1002E03D0391F0F00E069B5
:1004100008606762E56205B0F0BC08BC18470022BE
:100420001E49096820314A701C4908600221417048
:100430002121095C012902D11E49091D08601549C5
:10044000096910221143134A1161704710B5204801
:1004500040681849091D0968884207D01D4800886E
:10046000401D1449088010BC08BC1847114800887A
:100470001849098888420CD10E480088401D0D4952
:10048000088013480EF0BAF80400210010480EF05E
:1004900041FAE8E700F0FFFF004000E0800700407D
:1004A000B42A0040C0C01FE05FEA000028DA000064
:1004B00000F1FFFF00000040D01700409807004007
:1004C000C8000080580D0000780A0040100000406D
:1004D000142B00408407004003C08FE21CFF2FE173
:1004E0007047C046FEE7000010B527484078012855
:1004F00004D002280ED0032812D10FE002F0F4FF3E
:10050000002404E02148005D21490855641C402C6A
:10051000F8DB05E0002010BC08BC18470020FAE713
:10052000C0460120F7E718484078012804D0022887
:1005300004D0032806D103E0002070470020FCE728
:100540000020FAE70120F8E70F48801E8078114963
:10055000085C0F490870012070470B4840780A4931
:10056000891E89780B4A5054012070470A48007848
:1005700007490870012070470348801E80780649AB
:1005800008700120704700002A0000402823004026
:100590000C18004009000040080000400020EA4913
:1005A0000880EA490870EA490870EA48EA490860A0
:1005B0000020EA490860704710B5E949002000F0C2
:1005C0003EFB10BC08BC184710B5E64880884028A0
:1005D00001DD402401E0E3488488E248220001680C
:1005E000802000F061FB0400DE4800680019DD494E
:1005F000086008008088001B888010BC08BC184771
:1006000010B5D8480168002000F019FB0400D54857
:1006100000680019D349086008008088001B8880A2
:1006200010BC08BC184710B500221100802000F053
:100630003BFB10BC08BC184710B5CB49002000F0AC
:10064000FEFA10BC08BC184710B5C0460022C149CC
:10065000891E08000DF084FF0DF014FF0400200037
:100660000221084276D0FFF7A7FFBD4909780906A5
:10067000C80F00F09DFABA48C088BA498880B848C7
:1006800000784006800F04D001287ED002287DD15A
:10069000E7E0B34843780DF08DF80C070D931693FF
:1006A0001F30363D4B6182930DF01EFB002800D1B8
:1006B000D9E086E000200DF085FB002800D1D2E0D3
:1006C000FFF7B1FF7DE001200DF07CFB002800D199
:1006D000C9E0FFF7A8FF74E0A1480078C006C00E8B
:1006E00008D19F4880788021084398490870FFF717
:1006F0009AFF00E0B7E0C04663E00DF06FFA002813
:1007000000D1B0E05DE0002000F07DFA00209549C6
:10071000888056E092480078C006C00E05D18C480B
:1007200090490860FFF750FF00E09CE0C04648E0B9
:100730008B480078C006C00E0DD10DF0B5FB002827
:1007400000D190E0FFF76FFF8848016801200DF0AD
:10075000CBFE01E08FE086E0C04632E080480078C2
:10076000C006C00E012817D179480078002811D0A2
:100770007B4800797E49097888420BDA784800790D
:100780007C4940187749086001E01CE06AE0FFF707
:100790001BFF00E067E000E065E0C04611E0704844
:1007A0000078C006C00E012807D10DF04DFC0028CE
:1007B00000D158E0FFF737FF00E054E0C04600E00A
:1007C00051E0C04656E066480078C006C00E0128D9
:1007D00045D163480079002840D1614843780CF046
:1007E000E9FF0C3C0716293C3C3C3C3C1221343CC4
:1007F000FFF77AFE002805D05B485A490860FFF7EA
:10080000E3FE2DE029E058485649086028E0FFF74C
:100810009BFE002805D0544852490860FFF7D4FEDB
:100820001EE01AE0FFF799FE002802D0FFF7FBFE5A
:1008300016E012E0FFF79AFE002805D04A48494921
:100840000860FFF7C1FE0BE007E0FFF795FE002808
:1008500002D0FFF7E8FE03E0C046C04603E002E036
:1008600008E000E0C046802000F0CDF900203D49BE
:100870008880C046C046042004423DD038480078F5
:100880000006C00F36D137488088002834D0FFF7E3
:10089000B7FE3448808800282ED1314800784006C1
:1008A000800F02D0012819D100E018E02C48007810
:1008B000C006C00E012802D002280CD10AE0284848
:1008C0000079002805D1FFF72EFE002800D106E0B0
:1008D00002E004E003E002E0C04607E0C0468020FA
:1008E00000F091F900201F498880C046C046FFF7FC
:1008F0009AFE01E0FFF7A0FE0820044217D0184836
:1009000000780006C00F012802D1FFF75DFE0EE05F
:100910000E4800788021084209D00C480078400633
:10092000400E0A4908700800007800F063F8402083
:10093000044202D0002000F074F98020044200D16B
:1009400084E600F06EF981E60C0000400E000040E5
:100950000F000040010001001000004014000040A2
:1009600028000040200000400C18004064000040B7
:100970001800004019000040A3C08FE21CFF2FE1C7
:1009800001000A07D00E8022114200D0401C70479F
:100990001021E34A916011000861C046E0490968EE
:1009A00010221142FAD070471022DD4B9A601A00D3
:1009B0001061C046DA4A126810231A42FAD0102297
:1009C000D74B9A601A001161C046D54A12681023AD
:1009D0001A42FAD0704701003020D14A90601000CE
:1009E0000161C046CE48006820221042FAD0CC48AF
:1009F0004069704710B50400802020430004FF22A6
:100A0000521C10430100C74809DF80202043000426
:100A1000FF22521C10430100C24809DF10BC08BC71
:100A200018470020BE49403188604020C86001203E
:100A300088604020C860C046B9480068FF21491C52
:100A40000842F9D00020C043B549886348638860F4
:100A50000C20486070477047704710B5B248406836
:100A60000F2189068843B049486008004068052185
:100A700089060843AC4948600800C068AB49084093
:100A8000A949C8600800C068A9490843A649C860C8
:100A900008000069032189048843A349086108000C
:100AA00000690121890408439F490861A148406801
:100AB000490408439F49486012209F494863C04643
:100AC0009D48806B122108401228F9D19B489C490F
:100AD000886101209B49886180059B490861FFF777
:100AE000A0FF0020FFF786FF00F04BFA10BC08BC07
:100AF000184710B50400002C01D0012000E00020B0
:100B00000104FF22521C1143904809DF10BC08BCAD
:100B1000184710B58E4800880221084202D08D493E
:100B20008A4809DF10BC08BC1847704710B504009C
:100B3000002C01D0012000E000200104FF22521C03
:100B40001143854809DF0320754940314860C0469C
:100B500073480068FF21491C0842F9D00800704919
:100B6000886010BC08BC184710B50400A078FFF7D7
:100B700007FF03006A484030416801209840014364
:100B80006748403041608360607921790002084302
:100B900063494031C860C04661480068FF21491C74
:100BA0000842F9D008005E49886010BC08BC1847AC
:100BB000704770B504002000FFF7E2FE00046749AB
:100BC00008430500891309DF70BC08BC184770B5DD
:100BD00004002000FFF7D4FE00046049084305002C
:100BE0005F4909DF70BC08BC184770B504002000DD
:100BF000FFF7C6FE0004594908430500891309DFC1
:100C000070BC08BC184770B504002000FFF7B8FEA0
:100C100000045249084305004E4909DF70BC08BC76
:100C2000184770B504002000FFF7AAFE00044B49E6
:100C300008430500891309DF70BC08BC1847F8B5E4
:100C400004000D002007800E401C35498862C04614
:100C50003348066A0120C0020642F9D0B605B60D37
:100C6000002706E02E49886929000CF0ADFC2D1DF7
:100C70007F1CF01C8008B842F4D800202849886204
:100C800038482041C007C00F0AD12000FFF778FE86
:100C90000004052109020843009008DF324808DFFC
:100CA0003000F8BC08BC1847F8B504000D00160069
:100CB0002007800E801C1A498862080046620027BF
:100CC00006E028000CF06EFC1549C8612D1D7F1C44
:100CD000F01C8008B842F4D8002011498862200036
:100CE000FFF74EFE0004052109020843009008DFCB
:100CF0001E4808DF3000F8BC08BC184710B51C4877
:100D000008DF1C480ADF04001A480ADF0002044317
:100D1000200010BC08BC1847174800687047000046
:100D200000C2E0FF0005D00000C002E0CFFFFFCF0F
:100D300010000020C0C01FE0C0CFE0FF7C0D00000D
:100D400040F1FFFF40F2FFFF00F0FFFF0005FE0053
:100D50000C000040000101000005D8000005400023
:100D600000012000481200000005F2000005FA0012
:100D70000005F5000002F5005C000040FF502DE981
:100D800048019FE5005290E5085280E5080015E310
:100D90001700000A38019FE5080000EF34019FE5C5
:100DA0000A0000EF0040A0E1100014E30500000A73
:100DB000F0FEFFEB20019FE5001090E50400A0E3AA
:100DC000113500EB3D0000EA020014E30000000AC8
:100DD0003A0000EA080014E30500000A040014E3E6
:100DE0000100000A6C3300EB000000EA6D3300EBF9
:100DF000320000EA040015E32F00000A2A0000EA8E
:100E00000060A0E3260000EAC0009FE5300290E504
:100E10000110A0E3110610E11F00000AA670A0E176
:100E20000100A0E31006A0E1A0109FE5380281E5D3
:100E30000000A0E194009FE5000290E5200010E38F
:100E4000FBFFFF0A84009FE5144290E5010016E3D2
:100E50000D00001A000056E30600001A040014E317
:100E60000400000A74009FE5001090E50200A0E372
:100E7000E53400EB090000EA60009FE5071190E708
:100E80000400A0E3E03400EB030000EA4C009FE51F
:100E9000071190E70800A0E3DB3400EB0000A0E1BD
:100EA000016086E2200056E3D6FFFF3A1C009FE572
:100EB000300290E5000050E3D0FFFF1A0000A0E1EF
:100EC0000000A0E3000100E5FF50BDE804F05EE291
:100ED00000C0E0FF0005FE000002FE0060000040D0
:100EE0004C18004010B5C0460022384908000DF0EB
:100EF00037FB0DF0C7FA0400200004210842F3D0AC
:100F0000FFF74CFBF0E710B5C04600222F49080060
:100F10000DF026FB0DF0B6FA04002000082108426F
:100F200009D002F0E1FA402229498120FFF7BCFEF6
:100F300000202749087004200442E6D025490120FA
:100F4000FFF77DFE02F0BFFBDFE710B5C0460022D1
:100F50001E4908000DF004FB0DF094FA0400E007B0
:100F6000C00FF4D01C4800780028F0D002F0BCFA82
:100F7000402217498120FFF797FE0020144908708E
:100F8000E5E710B500220321144813000DF006FE1A
:100F90001349086000220221124813000DF0FEFDE3
:100FA0001149086000220221104813000DF0F6FDDF
:100FB0000D494860002202210D4813000DF0EEFD9E
:100FC0000C49086010BC08BC18470000FFFF000077
:100FD00028230040682300400F000040E50E000079
:100FE00060000040490600004C180040070F000058
:100FF0004B0F000064000040F8B505000E006F1EA6
:10100000F9007A4A881801210DF0DEFC7848007852
:1010100000280DD1012076490870102275497648C4
:101020000DF0CEF8012803D10220F8BC08BC184707
:1010300060217943714A881860210DF0FDFA602122
:1010400079436F4A881860210DF0F6FA280000F005
:1010500053F90400002C01D02000E6E731002800FD
:1010600000F091F9E1E710B50400200000F0A4F9C8
:1010700010BC08BC1847F7B505000E006F1E28000D
:1010800000F0A4F9002804D13100280000F0E9F8AC
:101090001FE0594801DF0400002C18D00FCE0FC408
:1010A000103E103C60217943544A88182100029A6E
:1010B0000DF018FB01280CD121004F4802DF012858
:1010C00003D10720FEBC08BC18470820FAE7062019
:1010D000F8E70020F6E770B504000D0016000020C8
:1010E000E873320029002000FFF7C5FF70BC08BC80
:1010F000184770B504000D0016000120E873320097
:1011000029002000FFF7B7FF70BC08BC1847F8B5EE
:1011100004000D001600370000200090C04620009B
:1011200000F054F900280ED12900200000F06DF9DC
:101130000090611EC9002D4A88180DF071FC002036
:10114000F8BC08BC18472F48864200D17F1C7F1E80
:1011500001200DF089F9002FE1DA0820F0E7F8B559
:1011600004000D001600671E60217943244A881888
:10117000320069460DF00EFB012803D10820F8BCAF
:1011800008BC184700980FC80FC5103D1A480099B1
:1011900002DF012801D10720F1E70020EFE770B559
:1011A00004000D001600320029002000FFF7D7FFD1
:1011B00070BC08BC1847F8B505000E0017001C00ED
:1011C00023003A003100280000F022F9F8BC08BCE6
:1011D000184770B504000D001600320029002000E9
:1011E00000F073FA70BC08BC18470000181F0040DC
:1011F000680000400C0500008C180040981D00405D
:10120000581E0040FFFF0000B1C08FE21CFF2FE11D
:10121000FEB504000D00661EB000FF49085802909C
:101220000027FE48854202D80C20019003E0C0460A
:10123000C0460A200190FA4801990CF0E5FB29000C
:1012400000900CF0E1FB471EBF05BF0D0198800028
:10125000F44908580743029847610020FEBC08BCC7
:101260001847F0B40200541EA000EB4B1E58087B38
:1012700000040F231B0418408B7B012B01D1012795
:1012800000E00027FB071843CB7B012B01D101278E
:1012900000E00027BB0718430500F069042318424B
:1012A00009D03563086870634868B0638868F06384
:1012B0002120706002E00420F0BC70470020FBE7B2
:1012C000F0B4421E9600D44FBD592B6ADE0F8E73C8
:1012D0000126B6071E40B60FCE731E03360F0E73DF
:1012E0006E6A0E60CE7B002E04D10C1DAE6A40C427
:1012F000EE6A2660F0BC70470100012902D0022985
:101300003CD11CE0C8484068012252031043C64A41
:101310005060C648006800090001C44A106010000F
:10132000006805221043C14A1060C148C14AD0611B
:101330000120C14AD061C005C04A106120E0BA480E
:101340004068012292031043B74A5060B7480068D2
:101350000F2212029043B54A106010000068052267
:1013600052021043B14A1060B148B24AD061012024
:10137000B14AD061C005B14A106101E0092070474F
:10138000C0460020FBE7F3B581B00400651EAC4EFB
:10139000A800A1490F5802203060012038600020C9
:1013A0003861B86020000299FFF732FF03203861EE
:1013B0000020FEBC08BC184710B401004A1E900073
:1013C000954C23580020186010BC704770B504007D
:1013D000651EA80090490E58611EC900994A8818D8
:1013E00000210DF03BFB01280DD0F06904210842DB
:1013F00003D0002070BC08BC1847611EC900914A88
:1014000088180DF00DFB0420F4E70200012070475E
:10141000FFB484B00498401E0390894802908A4922
:101420008A4B0020185E401C40109B1C0027DF5F89
:10143000C01901235B02984203DB052008B0F0BC11
:1014400070470120029B1860079800287AD1039802
:10145000400302437E4802407C480088C007C00F1A
:101460001ED17A48801C0088002819D077480023B4
:10147000C35E5C10801C0023C35E0093A0000D5867
:1014800007E0601C00040414A0000E58A0000D50DA
:1014900035000098431E1B041B1400930028F0D154
:1014A0006A480088002804D110046A4B1843086079
:1014B00083E06648008801280FD10868000C90423C
:1014C00005D90868000C13041843086075E0086823
:1014D000000C0004104308606FE000245B4B185FB1
:1014E00001901800035F581EC0030014009017E01D
:1014F000A0000858000C904203D960040014019029
:1015000011E0A00008580004000C904205D96000CA
:10151000401C00040014019005E0601C0004041449
:1015200000988442E4DDC0460098844213DD4748B9
:101530000088C007C00F06D11004464B1843A30013
:10154000C8503AE041E0A0000858000C00041043E5
:10155000A300C85031E0A0000D580198C007C00F8B
:1015600004D110042B0C1843060003E0280C0004DF
:1015700010430600A0000E5034480023C35E5810EC
:1015800000900AE0601C00040414A0000E58300C07
:101590002B041843A300C850350000988442F1DBA7
:1015A0002A480088C007C00F07D1A0000858000CC7
:1015B0000004284BC018A300C85024480088401CD1
:1015C00000040014214B188064E003984007024394
:1015D0001E4B0020185E401C4410002001900CE0BF
:1015E000A0000858904200D90EE0601C00040414CA
:1015F0000198401C000400140190144B9B1C002710
:10160000DF5F0198B842EBDBC046A0000D58A00098
:101610000A500E48801C1FE06C00004020A107000B
:1016200000366E0160ED0000C0C01FE000C002E0A7
:10163000D416000040F1FFFF40F2FFFF00F0FFFF73
:1016400000C003E0181F0040008003E07400004069
:10165000FFF70000FFFF00000088401C000400149A
:101660001B4B188018000088401E000400140090D6
:101670000CE0601C000404140198401C00040014D9
:101680000190A0000E58A0000D503500009B01985D
:101690009842EEDB0E4B9B1E0020185E401C401053
:1016A0008500981C0023C35E980046190023029809
:1016B0004360029885600298C560029806610298AE
:1016C0004661029803600020B8E6030000207047DE
:1016D000760000401F502DE904D04DE250019FE5F7
:1016E000080090E5010010E30F00000A44019FE5A7
:1016F000CC3300EB000050E30B00000A38019FE5FB
:10170000010000EF00008DE50100A0E300109DE561
:10171000BCFEFFEB0400A0E314119FE5040081E58B
:1017200010019FE500109DE5DA3200EB0C019FE50A
:10173000080090E5010010E30F00000A00019FE59A
:10174000B83300EB000050E30B00000AE8009FE50F
:10175000010000EF00008DE50200A0E300109DE510
:10176000A8FEFFEB0400A0E3D0109FE5040081E594
:10177000CC009FE500109DE5C63200EBB0009FE570
:10178000080090E5080010E30D00000A0D10A0E12C
:10179000B0009FE5AA3200EB000050E30600000A0B
:1017A0000100A0E300109DE5013100EB88009FE5FA
:1017B00000109DE5020000EF010000EA88009FE5AF
:1017C000BA3200EB74009FE5080090E5080010E3D2
:1017D0000D00000A0D10A0E170009FE5983200EBAB
:1017E000000050E30600000A0200A0E300109DE59F
:1017F000EF3000EB40009FE500109DE5020000EF98
:10180000010000EA48009FE5A83200EB20009FE5B8
:101810000C4090E5010980E20C4090E50000E0E317
:101820000010A0E3000101E504D08DE21F50BDE8E7
:1018300004F05EE2004004E0581E00408C180040B6
:10184000008004E0B81E0040981D0040181F0040B2
:10185000F81D0040201F004070B505000E009048A4
:101860000068C02108438E4908604020C86180207C
:10187000C861002D26D18B48006850210843894952
:10188000086083208849C860310088480CF0BCF8A3
:101890000400200A844948602006000E08600320E6
:1018A000C860072088600F228149062001F0DFF818
:1018B000002802D170BC08BC184707207A4948604C
:1018C0000120F7E7012D23D1764800690A2108435A
:1018D0007449086183207749C860310073480CF06F
:1018E00093F80400200A734948602006000E08603F
:1018F0000320C8600720886001226F4901F0B7F813
:10190000002800D1D6E707206A4948600120D1E7C6
:10191000022D2BD169484068E905084367494860B2
:10192000604800680521090508435E490860832076
:101930006349C86031005D480CF066F80400200A75
:101940005F4948602006000E08600320C860072039
:10195000886001225B491C2001F089F8002800D131
:10196000A8E70720564948600120A3E7032D2CD1A2
:101970005248406801214906084350494860494897
:10198000406A0F21090608434649486283204E49B0
:10199000C860310045480CF037F80400200A4A4975
:1019A00048602006000E08600320C8600720886099
:1019B000012246491D2001F05AF8002800D179E79C
:1019C000072041494860012074E7002072E70028A1
:1019D00017D113E0C0463E4A1278002AFBD03D4A98
:1019E0003D4B1B78D25C304B1A600022384B1A708A
:1019F000394A1278521C384B1A70491E0029E9D115
:101A00004CE0012817D113E0C046344A1278002A6E
:101A1000FBD0334A334B1B78D25C264B1A60002232
:101A20002E4B1A702F4A1278521C2E4B1A70491ED8
:101A30000029E9D132E0022817D113E0C0462A4A32
:101A40001278002AFBD0294A294B1B78D25C1C4B08
:101A50001A600022244B1A70254A1278521C244B1B
:101A60001A70491E0029E9D118E0032816D113E0A5
:101A7000C046204A1278002AFBD01F4A1F4B1B7811
:101A8000D25C114B1A6000221A4B1A701B4A127852
:101A9000521C1A4B1A70491E0029E9D170470000E8
:101AA00040C0FF3F00C002E000C000E060E316005D
:101AB000001B0000000001E058250000C0C01FE02E
:101AC000008007E07028000000C007E0E426000066
:101AD00078000040A8270040440100407900004001
:101AE000A8260040470100407A000040A828004096
:101AF0004C0100407B000040A82900404F010040FD
:101B00000F502DE90000A0E10030A0E3003103E513
:101B1000B03E9FE5083093E5FF0003E2C000A0E17E
:101B2000070000E2030050E33F01001A943E9FE5E6
:101B3000143093E5FF1003E29E0011E30400000A55
:101B4000843E9FE5001083E5783E9FE5003093E5F5
:101B5000FF2003E2010011E37C02000A643E9FE5DE
:101B6000003093E564CE9FE564EE9FE500E0DEE59E
:101B70000E30CCE75C3E9FE50030D3E5FF0053E339
:101B80000500001A483E9FE50030D3E5013083E2AE
:101B90003CCE9FE50030CCE5F70000EA343E9FE5FF
:101BA0000030D3E5FF0053E3F300000A243E9FE535
:101BB0000030D3E5000053E30B00001A0C3E9FE514
:101BC0000CCE9FE500C0DCE50C30D3E7070053E303
:101BD0000500000A0030A0E3F4CD9FE50030CCE51D
:101BE000F0CD9FE50030CCE5E30000EAE43D9FE561
:101BF0000030D3E5000053E30E00001ACC3D9FE512
:101C0000CCCD9FE500C0DCE50C30D3E7070053E303
:101C10000800001AB83D9FE50030D3E5013083E2AB
:101C2000ACCD9FE50030CCE50130A0E3A4CD9FE52D
:101C30000030CCE5D00000EA983D9FE50030D3E5C8
:101C4000010053E30B00001A803D9FE580CD9FE526
:101C500000C0DCE50C30D3E7010053E30500000AC7
:101C60000030A0E368CD9FE50030CCE564CD9FE572
:101C70000030CCE5C00000EA583D9FE50030D3E5D8
:101C8000010053E30E00001A403D9FE540CD9FE563
:101C900000C0DCE50C30D3E7010053E30800001A74
:101CA0002C3D9FE50030D3E5013083E220CD9FE558
:101CB0000030CCE50230A0E318CD9FE50030CCE544
:101CC000AD0000EA0C3D9FE50030D3E5020053E390
:101CD0000B00001AF43C9FE5F4CC9FE500C0DCE566
:101CE0000C30D3E7000053E30500000A0030A0E306
:101CF000DCCC9FE50030CCE5D8CC9FE50030CCE5CE
:101D00009D0000EACC3C9FE50030D3E5020053E3A0
:101D10000E00001AB43C9FE5B4CC9FE500C0DCE5A2
:101D20000C30D3E7000053E30800001AA03C9FE505
:101D30000030D3E5013083E294CC9FE50030CCE560
:101D40000330A0E38CCC9FE50030CCE58A0000EAAC
:101D5000803C9FE50030D3E5030053E30B00001AFD
:101D6000683C9FE568CC9FE500C0DCE50C30D3E71C
:101D7000110053E30500000A0030A0E350CC9FE5BA
:101D80000030CCE54CCC9FE50030CCE57A0000EA91
:101D9000403C9FE50030D3E5030053E30E00001AFA
:101DA000283C9FE528CC9FE500C0DCE50C30D3E75C
:101DB000110053E30800001A143C9FE50030D3E5FE
:101DC000013083E208CC9FE50030CCE50430A0E38D
:101DD00000CC9FE50030CCE5670000EAF43B9FE5CE
:101DE0000030D3E5040053E30B00001ADC3B9FE511
:101DF000DCCB9FE500C0DCE50C30D3E7020053E309
:101E00000500000A0030A0E3C4CB9FE50030CCE51C
:101E1000C0CB9FE50030CCE5570000EAB43B9FE51E
:101E20000030D3E5040053E30E00001A9C3B9FE50D
:101E30009CCB9FE500C0DCE50C30D3E7020053E308
:101E40000800001A883B9FE50030D3E5013083E2AB
:101E50007CCB9FE50030CCE50530A0E374CB9FE55B
:101E60000030CCE5440000EA683B9FE50030D3E554
:101E7000050053E30B00001A503B9FE550CB9FE554
:101E800000C0DCE50C30D3E7000053E30500000A96
:101E90000030A0E338CB9FE50030CCE534CB9FE5A4
:101EA0000030CCE5340000EA283B9FE50030D3E564
:101EB000050053E30E00001A103B9FE510CB9FE591
:101EC00000C0DCE50C30D3E7000053E30800001A43
:101ED000FC3A9FE50030D3E5013083E2F0CA9FE58C
:101EE0000030CCE50630A0E3E8CA9FE50030CCE541
:101EF000210000EADC3A9FE50030D3E5060053E319
:101F00000B00001AC43A9FE5C4CA9FE500C0DCE597
:101F10000C30D3E7E50053E30500000A0030A0E3EE
:101F2000ACCA9FE50030CCE5A8CA9FE50030CCE5FF
:101F3000110000EA9C3A9FE50030D3E5060053E328
:101F40000D00001A843A9FE584CA9FE500C0DCE5D5
:101F50000C30D3E7E50053E30700001A703A9FE521
:101F60000030D3E5013083E264CA9FE50030CCE560
:101F7000FF30A0E35CCA9FE50030CCE54C3A9FE51A
:101F80000030D3E548CA9FE500C0DCE50C0053E112
:101F90001D00001A403A9FE50030D3E5000053E3EE
:101FA0001900001A243A9FE50430D3E5020053E3F8
:101FB0000300000A143A9FE50430D3E5030053E31D
:101FC0000E00001A043A9FE50130D3E5010053E307
:101FD0000300000AF4399FE50130D3E5050053E31F
:101FE0000600001AE4399FE50230D3E5000053E310
:101FF0000200001A0130A0E3E0C99FE50030CCE503
:102000000030A0E3C8C99FE50030CCE5C0399FE5AA
:102010000030D3E5010C53E34C01001A0030A0E37B
:10202000ACC99FE50030CCE5480100EA020050E36E
:102030003001001A8C399FE5003093E58CC99FE58B
:102040008CE99FE500E0DEE50E30CCE784399FE5C2
:102050000030D3E5FF0053E30500001A70399FE517
:102060000030D3E5013083E264C99FE50030CCE560
:10207000F70000EA5C399FE50030D3E5FF0053E349
:10208000F300000A4C399FE50030D3E5000053E32C
:102090000B00001A34399FE534C99FE500C0DCE528
:1020A0000C30D3E7070053E30500000A0030A0E33B
:1020B0001CC99FE50030CCE518C99FE50030CCE590
:1020C000E30000EA0C399FE50030D3E5000053E35C
:1020D0000E00001AF4389FE5F4C89FE500C0DCE567
:1020E0000C30D3E7070053E30800001AE0389FE5FF
:1020F0000030D3E5013083E2D4C89FE50030CCE561
:102100000130A0E3CCC89FE50030CCE5D00000EA68
:10211000C0389FE50030D3E5010053E30B00001AFF
:10212000A8389FE5A8C89FE500C0DCE50C30D3E7E0
:10213000010053E30500000A0030A0E390C89FE5CA
:102140000030CCE58CC89FE50030CCE5C00000EA4B
:1021500080389FE50030D3E5010053E30E00001AFC
:1021600068389FE568C89FE500C0DCE50C30D3E720
:10217000010053E30800001A54389FE50030D3E50E
:10218000013083E248C89FE50030CCE50230A0E38F
:1021900040C89FE50030CCE5AD0000EA34389FE54B
:1021A0000030D3E5020053E30B00001A1C389FE512
:1021B0001CC89FE500C0DCE50C30D3E7000053E30A
:1021C0000500000A0030A0E304C89FE50030CCE51C
:1021D00000C89FE50030CCE59D0000EAF4379FE59C
:1021E0000030D3E5020053E30E00001ADC379FE510
:1021F000DCC79FE500C0DCE50C30D3E7000053E30B
:102200000800001AC8379FE50030D3E5013083E2AB
:10221000BCC79FE50030CCE50330A0E3B4C79FE521
:102220000030CCE58A0000EAA8379FE50030D3E50E
:10223000030053E30B00001A90379FE590C79FE51A
:1022400000C0DCE50C30D3E7110053E30500000AC1
:102250000030A0E378C79FE50030CCE574C79FE568
:102260000030CCE57A0000EA68379FE50030D3E51E
:10227000030053E30E00001A50379FE550C79FE557
:1022800000C0DCE50C30D3E7110053E30800001A6E
:102290003C379FE50030D3E5013083E230C79FE54E
:1022A0000030CCE50430A0E328C79FE50030CCE542
:1022B000670000EA1C379FE50030D3E5040053E3D4
:1022C0000B00001A04379FE504C79FE500C0DCE55A
:1022D0000C30D3E7020053E30500000A0030A0E30E
:1022E000ECC69FE50030CCE5E8C69FE50030CCE5C4
:1022F000570000EADC369FE50030D3E5040053E3E5
:102300000E00001AC4369FE5C4C69FE500C0DCE598
:102310000C30D3E7020053E30800001AB0369FE503
:102320000030D3E5013083E2A4C69FE50030CCE560
:102330000530A0E39CC69FE50030CCE5440000EAF0
:1023400090369FE50030D3E5050053E30B00001AFB
:1023500078369FE578C69FE500C0DCE50C30D3E712
:10236000000053E30500000A0030A0E360C69FE5CB
:102370000030CCE55CC69FE50030CCE5340000EAD7
:1023800050369FE50030D3E5050053E30E00001AF8
:1023900038369FE538C69FE500C0DCE50C30D3E752
:1023A000000053E30800001A24369FE50030D3E50F
:1023B000013083E218C69FE50030CCE50630A0E38B
:1023C00010C69FE50030CCE5210000EA04369FE509
:1023D0000030D3E5060053E30B00001AEC359FE50F
:1023E000ECC59FE500C0DCE50C30D3E7E50053E326
:1023F0000500000A0030A0E3D4C59FE50030CCE51D
:10240000D0C59FE50030CCE5110000EAC4359FE55A
:102410000030D3E5060053E30D00001AAC359FE50C
:10242000ACC59FE500C0DCE50C30D3E7E50053E325
:102430000700001A98359FE50030D3E5013083E2AC
:102440008CC59FE50030CCE5FF30A0E384C59FE557
:102450000030CCE574359FE50030D3E570C59FE5CD
:1024600000C0DCE50C0053E11A00001A68359FE556
:102470000030D3E5000053E31600001A4C359FE509
:102480000430D3E5020053E30300000A3C359FE526
:102490000430D3E5030053E30E00001A2C359FE50A
:1024A0000130D3E5010053E30300000A1C359FE52A
:1024B0000130D3E5050053E30600001A0C359FE513
:1024C0000230D3E5000053E30200001A0130A0E31C
:1024D00008C59FE50030CCE5F4349FE50030D3E536
:1024E000010C53E31900001A0030A0E3E0C49FE59B
:1024F0000030CCE5150000EA060050E30500001AA4
:10250000C4349FE5003093E5013C83E3B8C49FE504
:1025100000308CE50D0000EA010050E30B00001ACA
:10252000A0349FE5143093E5FF1003E2200011E38F
:102530000300000A0130A0E3A4C49FE50030CCE50D
:10254000020000EA0030A0E394C49FE50030CCE52F
:102550000F50BDE804F05EE21F502DE90000A0E13D
:102560000020A0E3002102E578249FE5082092E501
:10257000FF0002E2C000A0E1070000E2030050E318
:102580002400001A5C249FE5142092E5FF1002E26B
:102590009E0011E30400000A4C249FE5001082E530
:1025A00040249FE5002092E5FF3002E2010011E3A4
:1025B0004900000A2CC49FE500C09CE52CE49FE57F
:1025C0000020DEE501E082E220449FE500E0C4E572
:1025D0001CE49FE502C0CEE718249FE50020D2E569
:1025E000012082E20CC49FE50020CCE50020A0E39E
:1025F00004C49FE50020CCE5F8239FE50020D2E548
:10260000010C52E33400001A0020A0E3E4C39FE56C
:102610000020CCE5300000EA020050E31800001A68
:10262000C0C39FE500C09CE5C0E39FE50020DEE558
:1026300001E082E2B4439FE500E0C4E5B0E39FE53A
:1026400002C0CEE7AC239FE50020D2E5012082E264
:10265000A0C39FE50020CCE50020A0E398C39FE540
:102660000020CCE58C239FE50020D2E5010C52E34D
:102670001900001A0020A0E378C39FE50020CCE5F4
:10268000150000EA060050E30500001A58239FE5F4
:10269000002092E5012C82E34CC39FE500208CE5ED
:1026A0000D0000EA010050E30B00001A34239FE5FF
:1026B000142092E5FF1002E2200011E30300000A5B
:1026C0000120A0E334C39FE50020CCE5020000EA2E
:1026D0000020A0E324C39FE50020CCE51F50BDE807
:1026E00004F05EE21F502DE90000A0E10020A0E30D
:1026F000002102E508239FE5082092E5FF0002E2A1
:10270000C000A0E1070000E2030050E32400001A2B
:10271000EC229FE5142092E5FF1002E29E0011E3F7
:102720000400000ADC229FE5001082E5D0229FE52C
:10273000002092E5FF3002E2010011E34900000AA7
:10274000BCC29FE500C09CE5BCE29FE50020DEE541
:1027500001E082E2B0429FE500E0C4E5ACE29FE523
:1027600002C0CEE7A8229FE50020D2E5012082E248
:102770009CC29FE50020CCE50020A0E394C29FE529
:102780000020CCE588229FE50020D2E5010C52E331
:102790003400001A0020A0E374C29FE50020CCE5BD
:1027A000300000EA020050E31800001A50C29FE512
:1027B00000C09CE550E29FE50020DEE501E082E2FA
:1027C00044429FE500E0C4E540E29FE502C0CEE759
:1027D0003C229FE50020D2E5012082E230C29FE545
:1027E0000020CCE50020A0E328C29FE50020CCE536
:1027F0001C229FE50020D2E5010C52E31900001ACB
:102800000020A0E308C29FE50020CCE5150000EA07
:10281000060050E30500001AE8219FE5002092E53C
:10282000012C82E3DCC19FE500208CE50D0000EA6D
:10283000010050E30B00001AC4219FE5142092E52B
:10284000FF1002E2200011E30300000A0120A0E3D0
:10285000C4C19FE50020CCE5020000EA0020A0E30F
:10286000B4C19FE50020CCE51F50BDE804F05EE256
:102870000F502DE90000A0E10030A0E3003103E596
:1028800098319FE5083093E5FF0003E2C000A0E126
:10289000070000E2030050E31D00001A7C319FE5B1
:1028A000143093E5FF1003E29E0011E30400000AD8
:1028B0006C319FE5001083E560319FE5003093E5C2
:1028C000FF2003E2010011E33C00000A4C319FE5C8
:1028D000003093E54CC19FE54CE19FE500E0DEE56B
:1028E0000E30CCE740319FE50030D3E5013083E284
:1028F00034C19FE50030CCE500308CE20030D3E5F8
:10290000010C53E32D00001A0030A0E30030CCE5A9
:102910002A0000EA020050E31200001AFC309FE592
:10292000003093E5FFC003E2F8309FE5F8E09FE553
:1029300000E0DEE50EC0C3E7EC309FE50030D3E5F4
:10294000013083E2E0C09FE50030CCE500308CE24E
:102950000030D3E5010C53E31800001A0030A0E367
:102960000030CCE5150000EA060050E30500001A2F
:10297000AC309FE5003093E5013C83E3A0C09FE5C8
:1029800000308CE50D0000EA010050E30B00001A56
:1029900088309FE5143093E5FF1003E2200011E337
:1029A0000300000A0130A0E380C09FE50030CCE5C1
:1029B000020000EA0030A0E370C09FE50030CCE5E3
:1029C0000F50BDE804F05EE200C000E08800004067
:1029D000281F00407C00004083000040700700403A
:1029E0008200004078000040000001E090000040BC
:1029F00048010040282000407D0000408000004049
:102A00007900004000C007E08C0000405001004009
:102A1000282200407F000040810000407B000040F1
:102A2000008007E094000040282100407E00004024
:102A30007A00004010B40020431E1C036361002391
:102A4000241123602401E360C0460CE083000F24BE
:102A50002402191B8300072464021A1B00230B6045
:102A60000F231360401C2028F0D310BC704770B4B3
:102A700004000120A0401D4B5861202C02D30020EF
:102A800070BC7047A0000F231B02C51AA0000723CB
:102A90005B02C61A296032600120A040134B186106
:102AA0000120EDE700B5FF20401C11490863C0007C
:102AB000486101220F491120FFF7D9FF002801D1F9
:102AC00008BC18470120FBE700B5FFF7EBFF012822
:102AD00002D0002008BC184707484068FF21813118
:102AE0000843054948600120F4E7000000F0FFFFBB
:102AF000808002E0FC2A000040C11FE003002DE9B5
:102B00000800A0E36C109FE5400181E568009FE5A7
:102B1000000090E5010080E25C109FE5000081E587
:102B200058009FE5880090E5020B10E30400000ABE
:102B300048009FE58C0090E5020B80E33C109FE588
:102B40008C0081E534009FE5A40090E5010C10E3C2
:102B50000400000A24009FE5AC0090E5010C80E32E
:102B600018109FE5AC0081E50000A0E3000100E53E
:102B70000300BDE804F05EE200C01FE09C000040DE
:102B8000008002E000203349086033484068FF219C
:102B9000491C0843304948600020304908603048EB
:102BA00000680321890708432D4908600800406830
:102BB0003C2108432A4948602A48806801210904C9
:102BC0000843284988600800406801210904084337
:102BD000244948600800806801218905084321498B
:102BE0008860080040680121890508431D49486044
:102BF00008201A49C8603820086001207047010089
:102C0000164A916092681006000EC046134A526838
:102C100080231A42FAD07047FF21104A9160C046C3
:102C20000E49496880221142FAD00C498968080689
:102C3000000E704730B503000C00002504E0FFF7DC
:102C4000EBFF18705B1C6D1CA542F8D330BC08BCB0
:102C500018470000A4000040C0C01FE0000002E0D0
:102C600000C002E0008002E070B504000D00160014
:102C7000012000043E49C8604020FFF7C0FF20004B
:102C8000FFF7BDFF2800FFF7BAFF01200004384915
:102C9000486070BC08BC184770B504000E000120E5
:102CA00000043349C8604120FFF7A9FF2000FFF767
:102CB000A6FFFFF7B1FF0500012000042C49486082
:102CC000280070BC08BC184710B5002029490870BE
:102CD00046E02848027800210520FFF7C5FF254877
:102CE00001781320FFF7D8FF22480278FF21002047
:102CF000FFF7BAFF1F480278FF210120FFF7B4FF5A
:102D00001C480278FF210C20FFF7AEFF194802781B
:102D1000FF210D20FFF7A8FF1648027800210800C8
:102D2000FFF7A2FF13480278FF210120FFF79CFF65
:102D300011480078802108430F4908700800007886
:102D4000402188430C4908700A480278080001783D
:102D50001220FFF789FF07480078401C05490870DA
:102D6000044800780128B4DB10BC08BC18470000F8
:102D7000008002E0A80000405A0700400021002027
:102D800020223A4B1A600BE0394A1268012A01D11D
:102D9000012006E0374A914201D3002001E0491C9E
:102DA000F2E7C0467047102030490860082088616B
:102DB000C0462E48006810210842FAD10120704711
:102DC00010B504002C4840680121C90408432A4971
:102DD00048602A4840680F21890588432749486090
:102DE00008004068052189050843244948606C2093
:102DF0001E498861802048610861022C01D1982019
:102E0000C8600F221E490920FFF731FE002802D1B9
:102E100010BC08BC18474020144908600120F7E79F
:102E200010B5184C0020124908601749086017496E
:102E30000860FFF7A3FF012805D0FFF7B4FF0020CB
:102E400010BC08BC184707E009480068052802D1F3
:102E5000FFF7A9FF02E0641E002CF5D1C046002C4C
:102E600001D10020ECE70120EAE7000000C001E00A
:102E7000AC000040FFFFFF00C0C01FE000C002E048
:102E8000902E0000FFFF0000B8000040BC00004092
:102E90000F002DE904139FE5041091E5FF0001E206
:102EA0000010A0E3001101E5070010E3B400001AD0
:102EB000C011A0E10C0051E301F18F30B00000EA35
:102EC000AF0000EA090000EA130000EA220000EA6D
:102ED000A00000EA380000EA390000EAA60000EA93
:102EE000730000EA9D0000EA760000EA770000EA3D
:102EF0000000A0E1A8129FE50010D1E59C229FE50B
:102F0000081082E52810A0E3181082E50110A0E364
:102F100090229FE5001082E59D0000EA0000A0E1FC
:102F200084129FE5001091E5000051E30300001AB0
:102F30006C129FE50210D1E560229FE5081082E542
:102F40002810A0E354229FE5181082E50210A0E3A8
:102F500050229FE5001082E58D0000EA0000A0E10C
:102F600040129FE5001091E5010051E30E00001AA8
:102F700038129FE5001091E5011081E220229FE5C3
:102F80000110D2E714229FE5081082E51C129FE58C
:102F9000001091E5011081E210229FE5001082E50A
:102FA0000410A0E3FC219FE5001082E50810A0E3D7
:102FB000E8219FE5181082E5750000EA0000A0E115
:102FC0000000A0E1E4119FE5001091E5E0219FE5FC
:102FD000002092E5020051E12300000ACC119FE598
:102FE000001091E5011081E2B4219FE50110D2E7C4
:102FF000A8219FE5081082E5B0119FE5001091E53A
:10300000011081E2A4219FE5001082E5001082E218
:10301000001091E598219FE5002092E5020051E122
:103020000300000A0410A0E378219FE5001082E568
:103030001B0000EA0510A0E368219FE5001082E56F
:1030400070119FE5001091E5000051E31400000AA3
:103050002010A0E344219FE5001082E50310A0E3C7
:1030600040219FE5001082E50D0000EA44119FE534
:10307000001091E5000051E30600000A2010A0E3D3
:1030800018219FE5001082E50310A0E314219FE5BD
:10309000001082E5020000EA0510A0E304219FE58C
:1030A000001082E50810A0E3F0209FE5181082E5EB
:1030B000370000EA0000A0E10810A0E3DC209FE553
:1030C000181082E5320000EA0000A0E10000A0E153
:1030D000C8109FE5081091E5DC209FE5002092E5EF
:1030E000032082E2B8309FE50210C3E7C8109FE5D5
:1030F000001091E5011081E2BC209FE5001082E5FF
:10310000001082E2001091E5A8209FE5002092E5E2
:10311000020051E10300000A0410A0E384209FE5AF
:10312000001082E5050000EA0010A0E388209FE57A
:10313000001082E50510A0E368209FE5001082E5FD
:103140000410A0E354209FE5001082E50810A0E3DE
:10315000181082E50E0000EA0000A0E10000A0E1E6
:103160000810A0E334209FE5181082E50510A0E3C5
:1031700030209FE5001082E5050000EA0000A0E194
:103180000000A0E10810A0E310209FE5181082E5E0
:103190000000A0E10000A0E10F00BDE804F05EE245
:1031A00000C001E0CC000040AC000040C400004082
:1031B000BC000040E0000040DC000040B8000040DF
:1031C00010B50120FFF7FCFD002801D1C046FEE745
:1031D000002403E0002036490855641C082CF9D36C
:1031E00002203449086000203349086098203049A3
:1031F0000870012048700020887001202F49086065
:10320000FFF70EFE002403E0002029490855641C46
:10321000082CF9D3012027490860022026490860BC
:103220009820234908700020487099208870002059
:1032300022490860FFF7F4FD002403E000201C4948
:103240000855641C082CF9D302201A490860002094
:103250001949086092201649087001204870002022
:103260008870012015490860FFF7DAFD002403E0AB
:1032700000200F490855641C082CF9D301200D4982
:10328000086002200C49086092200949087000205B
:10329000487093208870002008490860FFF7C0FD3F
:1032A0009820034908709920887010BC08BC184702
:1032B000CC000040E0000040DC000040C4000040C2
:1032C00001001948C068012252021043164AD0601A
:1032D0000220164A50600320D0601000816108016E
:1032E000000950620420114A4032106101207047E9
:1032F0000E4A9061020112090C4B5A6204220B4BD8
:1033000040331A6170470120C00208494031C8604B
:103310000920064948607047002004494031C860D0
:10332000024948607047000000C002E0008001E0F0
:1033300070B54B24240100250020FFF7C1FF0128B0
:1033400003D000200F49087008E001200D490870E3
:1033500029002000FFF7CCFFFFF7D5FF70BC08BCA9
:10336000184710B50220084948604B2000018861C9
:103370000420054940310861FFF7C5FF10BC08BCB7
:10338000184700002C010040008001E010B5040047
:103390002B4840680121090308432949486029480E
:1033A00040680F2189038843264948600800406827
:1033B00001210904084323494860080040680121AD
:1033C000890308431F49486021001F480AF01CFB7D
:1033D000401E00021D4908431D490860012010BC21
:1033E00008BC184730B4010019480068000A000200
:1033F000174B1860180003680120884001252D062E
:10340000284303431248036007E08800104BC018AC
:103410000269D00FC00700D000E0F6E7C0460C48B4
:10342000006807231B069843094B186018040242E2
:1034300002D0002030BC70471004840D2000F9E752
:10344000C0C01FE000C002E000366E010100200095
:10345000004003E010B501200F49087000200F491B
:10346000086001220E49FFF702FB002802D110BCC0
:1034700008BC18470B484107486003200860AA2091
:103480008860552088600120F1E7AA2007214907BC
:103490008860552088607047EC000040E8000040DC
:1034A000A8340000FFFF3F0003002DE90E02A0E357
:1034B000000090E50400C0E30E12A0E3000081E5E7
:1034C0001C009FE5000090E5010080E210109FE5E0
:1034D000000081E50000A0E3000100E50300BDE875
:1034E00004F05EE2E800004070B4FF4A1278002A5F
:1034F0007ED10020E2E0FD4A1278002A06D0012A9F
:1035000045D0022A75D0032A74D1ABE0F84A12786C
:10351000002A36D0F74A1278002A32D0F44A1378BB
:103520000022F34C2270F44C2270F44C2270EE4ACC
:1035300013700022EC4C627000210CE0EE4C2278FB
:10354000541CED4D2C70EE4CA55CE74E8C1C355593
:103550004A1C1106090E9942F0DB0420E44A127855
:10356000002A0ED1E44A1278E44C2478A24208D111
:10357000E24A1278002A04D00022DF4C2270DF4C8D
:103580002270DA4A1278521CD84C227092E0DD4A3E
:103590001278002A3AD0DC4A1278002A36D0D94A6A
:1035A00013780022D74C2270D34C2270D34C227057
:1035B000CD4A13700122CC4C627000210CE0D34C38
:1035C0002278541CD14D2C70D14CA55CC64E8C1C5D
:1035D00035554A1C1106090E9942F0DB0420C94AF0
:1035E0001278002A12D1C94A1278CA4C247802E013
:1035F00067E011E05AE0A24208D1C64A1278002AD8
:1036000004D00022C14C2270C24C2270B74A1278FA
:10361000521CB64C22704DE0BF4A1278002A1BD0D3
:10362000BE4A1278022A17D1BB4A13781278AE4CE0
:10363000227002226270002108E0B74C4A1CA45C90
:10364000A94D8A1CAC544A1C1106090E9942F4DBA0
:1036500004200022B04C2270A44A1278521CA34CC1
:10366000227027E0AE4A1278002A1BD0AD4A1278A9
:10367000022A17D1AA4A137812789B4C227003228F
:103680006270002108E0A64C4A1CA45C964D8A1C7E
:10369000AC544A1C1106090E9942F4DB04200022A6
:1036A0009F4C22700022914C227003E000228F4C2C
:1036B0002270C046C046421C1006000E042800DAE4
:1036C00019E770BC70479849097800297ED096495F
:1036D0004978002906D001292BD0022950D003298E
:1036E00026D181E090490978002921D08F490978B5
:1036F00000291DD18E4A117000200EE08A4A811CDB
:10370000515C8C4A8A4B1B78D15489490978491CF1
:10371000874A1170411C0806000E834909788142CE
:10372000ECDC81490978814A117000217E4A1170D0
:103730008CE07D490978002921D07F49097800294A
:103740001DD17E4A117000200EE0774A811C515C29
:103750007B4A7A4B1B78D15478490978491C774ABF
:103760001170411C0806000E6F4909788142ECDC9B
:103770006D490978704A117000216B4A117065E03B
:103780006649097802292ED1674989780906664A6F
:10379000D27812041143644A127912021143624A28
:1037A00052791143674A1160002008E05E4A811D8A
:1037B000525C6449091D0A54411C0806000E082881
:1037C000F4DB5949897B5F4A117300E03FE05649B9
:1037D000C97B51735449097C91735349497CD17316
:1037E0000021514A117031E04E49097802292CD14B
:1037F0004D49897809064C4AD278120411434A4A45
:10380000127912021143484A527911434E4A11600B
:10381000002008E0444A811D525C4B49091D0A54AE
:10382000411C0806000E0828F4DB3F49897B464A04
:1038300011733D49C97B51733B49097C91733A49E6
:10384000497CD1730021384A1170C046C046704788
:1038500000200DE03D49095C3D4A3E4B1B78D154A8
:103860003C490978491C3B4A1170411C0806000E6E
:10387000364909788142EDDC34490978364A1278B4
:103880008918354A1170704700200DE03349095CF2
:10389000334A344B1B78D15432490978491C314A98
:1038A0001170411C0806000E2C4909788142EDDC9C
:1038B0002A4909782C4A127889182B4A11707047C6
:1038C00070B52A4EE12149020020FDF7C5FFE12134
:1038D00049020220FDF7C0FF00201F490870164969
:1038E00008700024224945E028230040F0000040F1
:1038F0007D00004080000040490100404801004038
:10390000282000407F00004081000040510100401D
:103910002822004050010040A8230040F100004050
:10392000A8240040F2000040682300404501004008
:1039300046010040A82600404D0100404E010040D5
:10394000A829004098010040A8010040281F00401D
:10395000A82800404B0100404A01004028210040B7
:10396000A82700404301004042010040FCFFFF0047
:10397000700700400870FF490870C04604200AF034
:1039800073FDFD48007800282BDDFA4800780028F8
:1039900027D1FA480078F8490978884205D1FFF71D
:1039A00073FF0020F4490870D6E2F348007812282B
:1039B000FADBF24800784528F6D1F04840786E28C6
:1039C000F2D1EE4880787428EED1EC48007C3E2895
:1039D000EAD1EA48407C2028E6D10020E649087078
:1039E000BAE2E44800780028DED0E4480078E249F2
:1039F000097888427ED1E24800780128FAD1002077
:103A0000DD490870DD480078052874D1DB4840782E
:103A100000287ED1D948807801287AD1D748C0784B
:103A2000012876D1D5480079032872D10220D449E3
:103A300008700020D3490870CF490870D249087037
:103A4000D2490870D24908704522D2490878411CF1
:103A5000D04B1970D0490A54722219000878411CC1
:103A60001970CD490A54612219000878411C197057
:103A7000C9490A54732219000878411C1970C649B3
:103A80000A54652219000878411C1970C2490A5469
:103A9000202219000878411C1970BF490A54442299
:103AA00019000878411C1970BB490A546F2219008B
:103AB0000878411C1970B8490A546E221900087818
:103AC000411C1970B4490A54652219000878411C38
:103AD0001970B1490A54212219000878411C197043
:103AE000AD490A540D2219000878411C1970AA49E1
:103AF0000A5401E08EE00CE00A2219000878411C0B
:103B00001970A5490A54A54800780D30A3490870DA
:103B1000A34E9A48007806287BD198484078002820
:103B2000FAD1964880780128F6D19448C0780128C7
:103B3000F2D1924800790328EED100209049087014
:103B4000904908708C4908708F4908708F49087037
:103B50008F49087045228F490878411C8D4B197098
:103B60008D490A54722219000878411C19708A493B
:103B70000A54612219000878411C197086490A54B8
:103B8000732219000878411C197083490A54652270
:103B900019000878411C19707F490A542022190025
:103BA0000878411C19707C490A544522190008788C
:103BB000411C197078490A54722219000878411C76
:103BC000197075490A5419000878411C1970724916
:103BD0000A54212219000878411C19706E490A54B0
:103BE00019000878411C19706B490A540D221900FC
:103BF0000878411C197068490A540A22190008788B
:103C0000411C197064490A54644800780D306349B6
:103C1000087086E0584800781228FADB5748007888
:103C200045287ED1554840786E287AD1534880780F
:103C3000742876D15148007C3E2872D14F48407C90
:103C400020286ED14E48007801286AD100204A49C8
:103C500008704D4908704D4908704D490870494930
:103C6000087049224B490878411C4A4B19704A494F
:103C70000A546E2219000878411C197046490A54EA
:103C8000202219000878411C197043490A54422225
:103C900019000878411C19703F490A546F22190015
:103CA0000878411C19703C490A5419000878411CD5
:103CB000197039490A54742219000878411C197086
:103CC00035490A54202219000878411C19703249DC
:103CD0000A544E2219000878411C19702E490A54C2
:103CE0006F2219000878411C19702B490A54772259
:103CF00019000878411C197027490A540D2219002F
:103D00000878411C197024490A540A2219000878BD
:103D1000411C197020490A54204800780D301F4971
:103D200008701748007802287ED1134800780528CB
:103D3000FAD1124800780528F6D1104840780028BA
:103D4000F2D10E4880780128EED10C48C0780328C3
:103D5000EAD10A48007902287FD10020084908707A
:103D600055220C490878411C0A4B19700A490A541B
:103D7000702217E0710700407E00004028210040BB
:103D8000700700407C0000404B0100404C010040A7
:103D90004A01004043010040A82700404201004082
:103DA000FCFFFF0F19000878411C1970FF490A54E5
:103DB000642219000878411C1970FC490A546122D8
:103DC00019000878411C1970F8490A547422190026
:103DD0000878411C1970F5490A54652219000878C1
:103DE000411C1970F1490A54202219000878411C1D
:103DF0001970EE490A54442219000878411C1970C0
:103E0000EA490A546F2219000878411C1970E749E1
:103E10000A546E2219000878411C1970E3490A54AB
:103E200065221900087800E017E0411C1970DF498D
:103E30000A540D2219000878411C1970DB490A54F4
:103E40000A2219000878411C1970D8490A54D84828
:103E500000780D30D64908707EE0D64800780228F8
:103E60007AD1D5480078062876D1D448007806283B
:103E700072D1D248407800286ED1D048807801288D
:103E80006AD1CE48C078012866D1CC480079032891
:103E900062D10020C74908705522C9490878411CE1
:103EA000C74B1970C1490A54702219000878411C87
:103EB0001970BE490A54642219000878411C19700F
:103EC000BA490A54612219000878411C1970B7498F
:103ED0000A54742219000878411C1970B3490A5415
:103EE000652219000878411C1970B0490A54202233
:103EF00019000878411C1970AC490A544522190070
:103F00000878411C1970A9490A54722219000878CE
:103F1000411C1970A5490A5419000878411C1970F0
:103F2000A2490A54212219000878411C19709F499E
:103F30000A540D2219000878411C19709B490A5433
:103F40000A2219000878411C197098490A549848A7
:103F500000780D30964908709548007800281CD0EC
:103F6000062098494860924801780020FDF72FFD0F
:103F700000208F4908709248007893490978884258
:103F800008D18F480078002804D000208C490870A0
:103F90008D49087007208B4948608C4800780028BC
:103FA0001CD006208A494860884801780220FDF725
:103FB0000EFD0020854908708648007886490978FA
:103FC000884208D184480078002804D00020814924
:103FD00008708149087007207D4948607F48007853
:103FE000002832D07E48007800282ED17B49087006
:103FF000002507E07B48405D00190406240E681C7C
:1040000005062D0E77480078A842F3DC002C13D16A
:1040100074484078012804D17249C87806F088FABB
:104020000EE070484078022803D06E48407805289A
:1040300006D1FFF70DFC03E06A49C87806F01CFAC8
:10404000002069490870002405E1674800780028CD
:1040500021D05848007801281DD1614800780128F6
:1040600019D1614800785949087000250BE05D4975
:104070004A5D58490878411C564B19705B490A54EF
:10408000681C05062D0E514800788542EFDB0020A4
:1040900055490870DFE04748007802281ED1524891
:1040A000007810281AD100204F490870FF26F536F5
:1040B0004648007810304549087000250BE0494912
:1040C0004A5D44490878411C424B197047490A54DB
:1040D000681C05062D0E102DF1DBBCE0354800787C
:1040E0000228B1D1404800781028ADDA761E002EA3
:1040F000AAD1FF26F5363C4800780028A4D03348E2
:10410000007839490978401830490870002036494C
:10411000087000250BE033494A5D2E490878411CA0
:104120002C4B197031490A54681C05062D0E2E4877
:1041300000788542EFDB552221490878411C204B4D
:1041400019701A490A54702219000878411C197014
:1041500016490A54642219000878411C1970134941
:104160000A54612219000878411C19700F490A5439
:10417000742219000878411C19700C490A546522F0
:1041800019000878411C197008490A5420221900A6
:104190000878411C197005490A544422190008780E
:1041A000411C197001490A546F2221E0A8270040E0
:1041B00042010040700700407E000040282100407E
:1041C0004301004000C000E0440100404A010040BB
:1041D000008007E04B0100404C010040820000409D
:1041E00071070040281F00407C000040A8280040C4
:1041F00019000878411C1970C3490A546E2219002D
:104200000878411C1970C0490A54652219000878C1
:10421000411C1970BC490A54212219000878411C1C
:104220001970B9490A540D2219000878411C1970F7
:10423000B5490A540A2219000878411C1970B2497C
:104240000A54B24800780E30B04908700020B049D6
:104250000870B0490870B0480078802803D1AF4892
:104260000078002803D1AE480078002806D000204E
:10427000A9490870A949087005F06CFFA9480078A1
:10428000002801D1FFF77AFBFFF7FFF8FAE710B536
:104290000020A5498862FEF793FF0020A34908701B
:1042A000FFF746F8A248FFF771F800220821A1485D
:1042B00013000AF073FCA0490860FFF7CBF8002058
:1042C0009E4908709E4908709E4908709E49087072
:1042D000002209219D4813000AF060FC9C490860F7
:1042E00000209C4908709C4908700AF089FC10BCA9
:1042F00008BC184710B505F02AFB002211009748AA
:1043000013000AF0DBFB002010BC08BC184710B5F6
:10431000C0469348007B00280CD0924800780228C1
:1043200008D10F2212028E490120FCF7D4FE002092
:104330008B4908738C48007B00280BD08B48007891
:10434000022807D10F2212028749FCF7C4FE002081
:104350008549087364200AF087F8DAE710B588B059
:10436000C046FF2204A90120FCF719FF00282AD12A
:104370007C480078022826D110207D4908700498D6
:10438000000E487004980002000E88700498000423
:10439000000EC87004980871002407E005A8015DAC
:1043A000734A601D1154601C0406240E6B46187F6E
:1043B000A042F3DC187F6E494873587F8873987F5A
:1043C000C873D87F0874FF2269460220FCF7E7FE15
:1043D0000028C6D1654800780228C2D1102065495E
:1043E00008700098000E487000980002000E887057
:1043F00000980004000EC87000980871002407E0BF
:1044000001A8015D5B4A601D1154601C0406240E66
:104410006B46187BA042F3DC187B56494873587BE7
:104420008873987BC873D87B08749AE710B5E1212C
:1044300049020120FDF710FA01204F4908700020C1
:104440004E4908704E4908704E4908704E49087030
:104450004E490870C04602200AF006F84748007826
:104460000028F8D0444800780028F4D0FFF70DF871
:10447000062047494860414801780120FDF7A7FA26
:10448000FFF703F800203D4908703D4908703D4999
:10449000087007203E494860DDE710B5E121490278
:1044A0000320FDF7D9F901203A49087000203A4964
:1044B00008703A4908703A4908703A4908703A4910
:1044C0000870C046022009F0CFFF3348007800286A
:1044D000F8D0304800780028F4D0FEF7D6FF062048
:1044E000324948602C4801780320FDF770FAFEF746
:1044F000CCFF002028490870284908702849087016
:1045000007202A494860DDE7A82700404201004013
:10451000710700407007004041070040400700401D
:104520008F010040EC00004000C002E02C01004080
:1045300040420F00C13800001C0100407C000040D8
:104540007E0000404301004044010040BB99000050
:104550002801004058070040590700408F420000E2
:1045600098010040F1000040A8010040F200004026
:10457000A8230040A824004010010040450100404D
:104580004601004047010040480100404901004009
:10459000000001E0110100404D0100404E010040CB
:1045A0004F010040500100405101004000C007E0B1
:1045B00070B50E250921FF4802780078401CFD4B9C
:1045C0001870FD4881540021180002780078401CC2
:1045D0001870F94881540121180002780078401CB5
:1045E0001870F54881540222180001780078401CA8
:1045F0001870F1484254180001780078401C187077
:10460000ED484254ED480078C0210840802808D188
:104610000021180002780078401C1870E648815488
:1046200020E0E64800783021084020280AD1012106
:10463000E04802780078401CDE4B1870DE48815458
:104640006D1C0FE0DD4800780C210840082809D1D6
:104650000221D84802780078401CD64B1870D64802
:104660008154AD1CD6490968D64A8818C82109F07A
:10467000CBF904002004020ECE4801780078401CDB
:10468000CC4B1870CC484254200A451918000278C7
:104690000078401C1870C84884542D19FF20401B16
:1046A000401C0106090E180002780078401C1870A2
:1046B000C1488154C44800780930C349087070BCAF
:1046C00008BC184710B40D200722BA490B780978A6
:1046D000491CB84C2170B849CA54002221000B78FB
:1046E0000978491C2170B449CA54012221000B7871
:1046F0000978491C2170B049CA54032221000B7863
:104700000978491C2170AC49CA54022321000A7857
:104710000978491C2170A8498B54A8490978C022FE
:104720001140402908D1002321000A780978491C4A
:104730002170A1498B5420E0A04909783022114012
:1047400010290AD101239B490A780978491C994C00
:10475000217099498B54401C0FE0984909780C222C
:104760001140042909D1022392490A780978491C89
:10477000904C217090498B54801CFF21091A491CD0
:104780000A06120E8B490B780978491C894C217056
:104790008949CA548C490978C91D8B4A117010BCCB
:1047A000704770B500268948007880210843874902
:1047B000087087480079032810D1854840790002A5
:1047C000FF21090208400500814880794519C82366
:1047D0005D437B4800684019794908607C4800794E
:1047E00002286AD114260821724802780078401CF9
:1047F000704B1870704881540021180002780078BE
:10480000401C18706C48815401211800027800780F
:10481000401C1870684881540821180002780078FC
:10482000401C1870644881540321180002780078F5
:10483000401C187060488154654840790002FF218F
:10484000090208400500624880794519C8235D4384
:104850005B48006840195A4908600968594A881835
:10486000C82109F0D1F804002004010E5148027853
:104870000078401C4F4B18704F488154200A801913
:104880000606360E180002780078401C18704A4858
:10489000845430190606360EFF20801B401C01068A
:1048A000090E180002780078401C187042488154A4
:1048B0004548007808304449087070BC08BC184767
:1048C00044488069012189060843424988610120E2
:1048D0008006486170473F48806901218906084386
:1048E0003C49886101208006C861704710B5FFF718
:1048F000F2FF0020FEF783F9FEF78EF936490870C3
:10490000FEF78AF935490870FEF786F934490870D0
:10491000FEF782F933490870FEF77EF932490870D4
:10492000FEF77AF931490870FEF776F930490870D8
:10493000FFF7C6FF2E4800782E4908702B480078F4
:104940002D490870264800782C49087023480078C3
:104950002B490870234800782A49087022480078BB
:104960002949087010BC08BC184710B5FFF7BEFFF6
:10497000FFF7B1FF9820FEF742F9FEF74DF900204E
:10498000FEF73DF9FEF748F920480078FEF737F9C1
:10499000FEF742F910480078FEF731F9FEF73CF9CE
:1049A0000E480078FEF72BF9FEF736F90C48007830
:1049B0002EE0000043010040A8270040020700400D
:1049C00078010040C05D0000420100400007004047
:1049D000281F0040008002E06601004065010040A1
:1049E0006701004068010040690100406A01004021
:1049F0006B0100405C0700405D0700405E0700401F
:104A00005F07004060070040610700408F010040E1
:104A1000FEF7F5F8FEF700F9FA480078FEF7EFF830
:104A2000FEF7FAF8F8480078FEF7E9F8FEF7F4F830
:104A3000F6480078FEF7E3F8FEF7EEF8F448007861
:104A4000FEF7DDF8FEF7E8F8FFF73AFF10BC08BC08
:104A5000184710B500240020EE4908701CE06420BF
:104A600009F002FD641CEC480068844214D3002461
:104A7000E8480078012803D10020E64908700BE0DF
:104A8000E6480078002807D10120E4490870FFF7C4
:104A90006CFF8020DF490870E1E710B50020E04995
:104AA0000870E048407900280FD0DF4800780028DF
:104AB0000BD100220A21DD4813000AF06FF8DC490F
:104AC00008600120D84908700EE0D64840790028D7
:104AD0000AD1D5480078002806D0D54800680AF0E9
:104AE0008FF80020D049087010BC08BC184710B5DA
:104AF0000400A100CF4A505808F06AFE10BC08BC60
:104B000018470020CC490870CC48006901210904ED
:104B10008843CA4908610020C1490870C14908702A
:104B2000C7490870C7490870C7490870C749087065
:104B3000C7490870C7490860C7490860C749086085
:104B4000C7490860C7490860C74908707047002016
:104B5000C549087070470020C3490870704700209D
:104B6000C149087070470020B3490870BC4908600B
:104B7000BD480078401CBC4908707047AF480069C8
:104B800001210904084208D0AC4880690843AB49B8
:104B9000886101200004C86106E0A84880690121FD
:104BA00009048843A5498861704700B5AC4800688E
:104BB000401CAB49086008000068C007C00F08D15E
:104BC000FFF7DCFF0020A1490870964908709A4958
:104BD0000870A3480068062807D10020A049086093
:104BE000A1480078401CA049087008BC184700B5CF
:104BF0009B480068401C9A49086008000068C0078C
:104C0000C00F0FD10860FFF7B9FF97480078401C2C
:104C10009549087000208D4908708249087001206C
:104C20008549087008BC184700B58D480068401CCD
:104C30008B49086008000068C007C00F02D10860F7
:104C4000FFF79CFF764800780821084204D08020B6
:104C500073490870FFF736FD08BC184710B5804847
:104C60000068401C7E49086008000068C007C00F4B
:104C700011D10860FFF782FF00207C4908700820EE
:104C800067490870FFF794FC77480078FC210840DA
:104C9000801C7549087010BC08BC184700B57048E6
:104CA0000068401C6E49086008000068C007C00F1B
:104CB0000CD10860FFF762FF0020694908606A486C
:104CC0000078FC210840401C6749087008BC184760
:104CD00010B5634800686649884212D15E48006892
:104CE000002807D05C480068401E5B490860FFF759
:104CF00045FF28E05C480078FC2108405A490870CC
:104D000021E057480068401C5549086008000068C9
:104D1000C007C00F01D1FFF731FF5148006880067E
:104D2000800E10D15148007805280CDC3C480078F2
:104D300080210840802806D0FFF73AFC4B480078D5
:104D4000401C4A49087010BC08BC184710B53348CD
:104D50000078002804D10E2030490870FFF705FEC6
:104D600010BC08BC184735488069012149028843B6
:104D700032498861704710B50020394908603A48C7
:104D80000078042108433849087000202A49087037
:104D90002A48006901210904884328490861FFF76E
:104DA000E2FF00201E4908701E490870244908705F
:104DB000244908702449087024490870244908705F
:104DC0002449086024490860FFF7C0FF10BC08BCF4
:104DD0001847002022490860704723480078FC21CA
:104DE00008402149087070471F480078FC2108409E
:104DF0001D49087070471C480078FC2108401A497A
:104E00000870704768010040690100406A01004075
:104E10006B010040410700407C0100408F010040D1
:104E200000070040281F004058070040534A000078
:104E300054070040B80100406D010040008002E0CE
:104E4000A827004043010040440100407C0000408E
:104E5000400700404407004078010040F006004051
:104E6000F4060040F8060040020700406E010040D2
:104E7000C05D00000020FB490870FB480078401C22
:104E8000F94908700020F9490860704700B5F748F3
:104E90000068401CF549086008000068C007C00FA2
:104EA00008D1FFF76BFE0020F1490870F149087046
:104EB000EC490870ED480068062807D10020EB494E
:104EC0000860E9480078401CE749087008BC1847AA
:104ED00000B5E6480068401CE44908600800006826
:104EE000C007C00F0FD10860FFF748FEDE4800780A
:104EF000401CDD4908700020DD490870DD4908705C
:104F00000120D849087008BC184700B5D748006888
:104F1000401CD649086008000068C007C00F02D1D5
:104F20000860FFF72BFED44800780821084204D01F
:104F30008020D1490870FFF7C5FB08BC1847002046
:104F4000C8490870C8480078401CC749087000204C
:104F5000C6490860704700B5C4480068401CC34992
:104F6000086008000068C007C00F08D1FFF706FE00
:104F70000020BF490870BF490870BA490870BB4893
:104F80000068062807D10020B8490860B6480078B4
:104F9000401CB549087008BC184700B5B348006804
:104FA000401CB249086008000068C007C00F0FD15C
:104FB0000860FFF7E3FDAC480078401CAA49087080
:104FC0000020AB490870AB4908700120A549087062
:104FD00008BC184700B5A5480068401CA3490860F4
:104FE00008000068C007C00F02D10860FFF7C6FDC7
:104FF000A14800780821084204D080209E4908700A
:10500000FFF760FB08BC18470020964908709648D7
:105010000078042108439449087008000078401C77
:10502000087000209149086094490860704700B5F5
:105030008E480068401C8D49086008000068C00761
:10504000C00F08D1FFF79AFD0020894908708949EF
:105050000870844908708548006806280CD1002033
:105060008249086080480078042108437E4908701E
:1050700008000078401C087008BC184700B57B4841
:105080000068401C7949086008000068022815D1B2
:1050900000200860FFF772FD734800780421084380
:1050A0007149087008000078401C087000207049A1
:1050B00008707049087001206A49087008BC1847D8
:1050C00000B56948007804210843674908706748BB
:1050D0000068401C6549086008000068022803D188
:1050E00000200860FFF74AFD634800780821084265
:1050F00004D0802060490870FFF7E4FA08BC184724
:1051000000205849087058480078401C56490870DB
:10511000002056490860704700B554480068401C9C
:105120005249086008000068C007C00F08D1FFF7A7
:1051300025FD00204E4908704E4908704949087005
:105140004A480068062807D10020484908604648B8
:105150000078401C4449087008BC184700B5434813
:105160000068401C4149086008000068022810D10E
:1051700000200860FFF702FD3B480078401C3A49D8
:10518000087000203A4908703A49087001203549F2
:10519000087008BC184700B534480068401C334903
:1051A000086008000068022803D100200860FFF7AB
:1051B000E5FC314800780821084204D080202E49BF
:1051C0000870FFF77FFA08BC184710B52748006839
:1051D000401C2649086008000068C007C00F11D1B4
:1051E0000860FFF7CBFC0020254908700820224901
:1051F0000870FFF7DDF91C480078FC210840801C8E
:105200001949087010BC08BC184700B51748006859
:10521000401C1649086008000068C007C00F0CD188
:105220000860FFF7ABFC10480078FC210840401CE8
:105230000D49087000200D49086008BC184710B5DA
:105240000A4800680F49884227D10F4800680028A3
:105250001CD00D480068401E0B490860FFF78EFC0B
:105260003DE000006D01004002070040F8060040EC
:105270007C000040281F004000070040F40600406A
:105280006E010040C05D000078010040FB480078DE
:10529000FC210840F949087021E0F9480068401CE9
:1052A000F749086008000068C007C00F01D1FFF788
:1052B00065FCF34800688006800E10D1F148007844
:1052C00005280CDCF048007880210840802806D0B2
:1052D000FFF76EF9EB480078401CEA49087010BCF3
:1052E00008BC184710B50020E5490860E34800787D
:1052F00010210843E14908700020E4490870E4489F
:105300000069012109048843E14908610020DE4960
:105310000870E0490870E0490870E0490870E04909
:105320000870E0490870E0490870E0490860E04909
:105330000860FFF70BFD10BC08BC184710B5D0483B
:105340000068401CCE49086008000068C007C00F14
:1053500011D10860FFF712FC0020CA49087008202C
:10536000C9490870FFF724F9C4480078FC210840B7
:10537000801CC249087010BC08BC184700B5C04862
:105380000068401CBE49086008000068C007C00FE4
:105390000CD10860FFF7F2FBB8480078FC21084008
:1053A000401CB64908700020B549086008BC184781
:1053B00010B5B3480068BF49884212D1BC480068A4
:1053C000002807D0BA480068401EB9490860FFF7B6
:1053D000D5FB28E0A9480078FC210840A7490870BF
:1053E00021E0A7480068401CA54908600800006843
:1053F000C007C00F01D1FFF7C1FBA14800688006BC
:10540000800E10D19F48007805280CDC9E4800785B
:1054100080210840802806D0FFF7CAF89948007814
:10542000401C9849087010BC08BC184710B50020F3
:105430009349086091480078102108438F4908700B
:1054400008000078F02108408C49087000208F493E
:1054500008708F4800690121090488438C4908615C
:105460000020894908708B4908708B4908708B4966
:1054700008708B4908708B4908708B4908708B49FC
:1054800008608B490860FFF761FC10BC08BC184736
:1054900010B57B480068401C794908600800006826
:1054A000C007C00F11D10860FFF768FB00207549E5
:1054B0000870082074490870FFF77AF86F48007880
:1054C000FC210840801C6D49087010BC08BC1847BE
:1054D00000B56B480068401C694908600800006816
:1054E000C007C00F0BD1FFF749FB64480078FC21CF
:1054F0000840401C6149087000206149086008BCF0
:10550000184710B55E4800686A49884212D1684859
:105510000068002807D066480068401E644908609B
:10552000FFF72CFB28E055480078FC210840534940
:10553000087021E052480068401C5149086008008A
:105540000068C007C00F01D1FFF718FB4C48006886
:105550008006800E10D14B48007805280CDC4A48A4
:10556000007880210840802806D0FFF721F84548C0
:105570000078401C4349087010BC08BC184710B59F
:1055800000203F4908603D480078142108433B490A
:10559000087000203D4908703D4800690121090458
:1055A00088433B4908610020374908703949087031
:1055B0003949087039490870394908703949087003
:1055C000394908703949086039490860FFF7BEFB5E
:1055D00010BC08BC184710B529480068401C284971
:1055E000086008000068C007C00F11D10860FFF70D
:1055F000C5FA082023490870002023490870FEF7E7
:10560000D7FF1E480078FC210840801C1B49087009
:1056100010BC08BC184700B519480068401C184960
:10562000086008000068C007C00F0BD1FFF7A6FA9A
:1056300012480078FC210840401C104908700020E6
:105640000F49086008BC184710B50D480068194993
:10565000884231D116480068002807D014480068F5
:10566000401E13490860FFF789FA47E003480078B5
:10567000FC2108400149087040E00000020700409A
:10568000F80600406E010040000700406D01004038
:10569000008002E0281F0040A8270040430100408E
:1056A000440100407C0000404007004044070040A7
:1056B00078010040C05D0000F9480068401CF849CE
:1056C000086008000068C007C00F01D1FFF756FA54
:1056D000F34800688006800E10D1F2480078052853
:1056E0000CDCF148007880210840802806D0FEF7C5
:1056F0005FFFEC480078401CEA49087010BC08BC09
:10570000184710B50020E6490860E84800781021E5
:105710000843E64908700020E5490870E54800693B
:10572000012109048843E34908610020DE4908702B
:10573000E1490870E1490870E1490870E1490870E1
:10574000E1490870E1490870E1490860E1490860F1
:10575000FFF7FCFA10BC08BC18470020D0490860CD
:105760007047D2480078FC210840D0490870704743
:10577000CE480078FC210840CC4908707047CB48DF
:105780000078FC210840C949087070470020C849CA
:105790000870C6480078401CC44908700020CE49F3
:1057A0000860704700B5CC480068401CCA490860D2
:1057B00008000068C007C00F08D1FFF7DFF900201C
:1057C000C1490870BC490870B9490870C2480068EE
:1057D000062807D10020C0490860B4480078401C62
:1057E000B249087008BC184700B5BB480068401CA7
:1057F000B949086008000068C007C00F0FD10860F1
:10580000FFF7BCF9A9480078401CA849087000209F
:10581000AD490870A84908700120A549087008BC66
:10582000184700B5AC480068401CAB490860080048
:105830000068C007C00F02D10860FFF79FF99A48BF
:1058400000780821084204D0802097490870FEF7AC
:1058500039FF08BC184710B59F480068401C9E4996
:10586000086008000068C007C00F11D10860FFF78A
:1058700085F900208B49087008208B490870FEF7D5
:1058800097FE8A480078FC210840801C87490870F0
:1058900010BC08BC184700B58F480068401C8E49F2
:1058A000086008000068C007C00F0CD10860FFF74F
:1058B00065F90020884908607C480078FC21084090
:1058C000401C7A49087008BC184710B58248006827
:1058D0008249884212D17F480068002807D07D485D
:1058E0000068401E7B490860FFF748F928E06F48D0
:1058F0000078FC2108406D49087021E07648006876
:10590000401C7549086008000068C007C00F01D13D
:10591000FFF734F9704800688006800E10D16148A6
:10592000007805280CDC6048007880210840802839
:1059300006D0FEF73DFE5B480078401C59490870D0
:1059400010BC08BC184710B50020634908605748D0
:105950000078042108435549087000205449087014
:105960005448006901210904884352490861002014
:105970004D490870504908705049087050490870E6
:1059800050490870504908705049087050490860E3
:1059900050490860FFF7DAF910BC08BC184700202E
:1059A0004D4908603E490860704740480078FC2136
:1059B00008403E49087070473C480078FC21084088
:1059C0003A490870704739480078FC210840374947
:1059D00008707047374880690121490208433549FA
:1059E000886101204002C861704700B53C480068EA
:1059F000401C3B49086000202D490870FFF7EAFF72
:105A0000374800687D210901884207D1274800787E
:105A1000401C2649087000203149086008BC18471E
:105A200000B52F480068401C2D4908600800006838
:105A3000C007C00F08D1FFF7A1F800202249087065
:105A40001D4908701A49087025480068302807D198
:105A500000202349086015480078401C134908704D
:105A600008BC184700B51E480068401C1C49086067
:105A700008000068C007C00F0FD10860FFF77EF86C
:105A80000A480078401C0949087000200E49087037
:105A90000949087001200649087008BC1847000031
:105AA000F80600406E010040000700400207004079
:105AB0006D010040008002E0281F0040A827004040
:105AC00043010040440100407C000040400700408A
