:02EEFE00382AB0
:02EF0000207679
:02EF0200421DAE
:02EF0600A290D7
:02EF0800D72808
:02EF0E00A478E5
:02EF1000A30B51
:02EF1200A5DA7E
:02EF1400A385D3
:02EF1600A18DCB
:02EF1800C486AD
:02EF1A00C4E150
:02EF1C00C53CF2
:0320000002A10733
:06A1070075815102A14820
:10F2BC00545653323141312D4D43552D302E30346F
:102668004907B45500000000000000004107D700EA
:102678004107D800410771004503E940A0E6CCB204
:102688004407C7000000004103DB0041073A00424D
:1026980007C100004207D200004103D6004107D11C
:1026A800004107BF004104FE0042074B00004105FE
:1026B8002B0041074D41410745004107B211410731
:1026C800640141050B24410763094107CC07410711
:1026D800BE0041074E00410747004107DFFF4107A1
:1026E800E23F4107D4004104F60041076C0042076D
:1026F800E00000C10160C90000FFA213FF9D60FF58
:102708009D60FF9D60FF6421FF5CBEFF4451FF4E4A
:102718005BFF3ACFFFD4F0FF9D60FF48A3FF68310D
:10272800FF9D60FF9D60FF9D60FF59AFFF2EEAFF90
:102738008FD8FF7C90FF9D60FF9D60FF9D60FFEC40
:10274800BDFF722CFF6988FF6581FF66D9FFA64E21
:10275800FF6AD3FF9273FF9D60FF9D60FF7484FF43
:1027680075ABFF76D2FF77F8FF568DFF5821FF3FF4
:10277800DFFF791EFF7358FF7A44FF7B6AFF6FC93A
:10278800FF54F8FF5B3BFF500AFF9D60FF5E40FF70
:102798006D57FF70FDFF4682FF2AD7FF6135FF9D09
:1027A80060FF9D60FF9D60FF9D60FF9D60FF9D60D5
:1027B800FF3D72FF9D60FF9D60FFA6BFFF5355FF61
:1027C8009D60C100630000CAFFEF3DFFF3FFFFF407
:1027D80005FFF40BFFF19AFFE49CFFC6A6FFD7792B
:1027E800FFD3F7FF9348FFD046FFD7C7FFF397FF04
:1027F8002003FFF3B8FFF3C0FFF07AFFA730FFC64E
:10280800FEFFD815FFF095FFA7A0FFC756FFD542DA
:10281800FFED69FFA566FFB33AFFC5F2FFF0B0FF11
:10282800A810FFC64CFFD44AFFD0F4FF9410FFD085
:102838009DFFD863FFD8FFFF94D8FFD14BFFD8B1D5
:10284800FFDE73FF95A0FFDC0BFFD94DFFDEBEFF57
:102858009668FFDC58FFC09DFFF3A2FFF3C8FFF3A3
:10286800D0FFF3D8FFF1B2FFDCA5FFC7AEFFD593C9
:10287800FFDF09FF9730FFD1A2FFD99BFF200EFF92
:10288800F3E0FFF3E8FFF3F0FFE856FFA880FFC886
:1028980006FFD2A7FFE892FFA8F0FFC85EFFC0F8C6
:1028A800FFE8CEFFA960FFC8B6FFC153FFE90AFFE2
:1028B800A9D0FFC90EFFD2FBFFE946FFAA40FFC916
:1028C80066FFC1AEFFE982FFAAB0FFC9BEFFC20919
:1028D800FFE9BEFFAB20FFCA16FFB398FFE9FAFF76
:1028E800AB90FFCA6EFFC264FFEA36FFAC00FFCAB6
:1028F800C6FFC2BFFFEA72FFAC70FFCB1EFFB3F684
:10290800FFEAAEFFACE0FFCB76FFC31AFFEAEAFFAF
:10291800AD50FFCBCEFFC375FFEB26FFADC0FFCC9C
:1029280026FFD34FFFEB62FFAE30FFCC7EFFC3D054
:10293800FFEB9EFFAEA0FFCCD6FFC42BFFEBDAFF68
:10294800AF10FFCD2EFFD3A3FFDCF2FF7FC8FFBA85
:1029580082FFB4B2FFE2E1FF80C9FFBADEFFB50F24
:10296800FFE4E3FF81CAFFBB3AFFB56CFFE757FFFF
:1029780082CBFFBB96FFB5C9FFE32BFF83CCFFBB20
:10298800F2FFB626FFE375FF84CDFFBC4EFFB6838A
:10299800FFB454FF85CEFFBCAAFFB6E0FFE3BFFF3C
:1029A80086CFFFBD06FFB73DFFE646FF87D0FFBDD8
:1029B80062FFB79AFFE453FF88D1FFBDBEFFB7F7A8
:1029C800FFE52AFF89D2FFBE1AFFB854FFE68CFF45
:1029D8008AD3FFBE76FFB8B1FFE798FF8BD4FFBE5E
:1029E800D2FFB90EFFE409FF8CD5FFBF2EFFB96BEC
:1029F800FFE571FF8DD6FFBF8AFFB9C8FFE7D9FF92
:102A08008ED7FFBFE6FFBA25FFF3ADFFF252FFF204
:102A180064FFF276FFF1CAFFE5B8FFCD86FFD5E483
:102A2800FFDF54FF97F8FFD1F9FFD9E9FF2026FF10
:102A3800EFB6FFEFD2FFEFEEFFF0CBFFAF80FFCD99
:102A4800DEFFD635FFF0E6FFAFF0FFCE36FFCE8EC5
:102A5800FFF101FFB060FFCEE6FFCF3EFFF11CFFA4
:102A6800B0D0FFCF96FFD686FFDF9FFF98C0FFDD6F
:102A78003FFFDA37FFDAD3FF9988FFDD8CFFDA856D
:102A8800FFE200FF9A50FFDDD9FFDB21FFE24BFF99
:102A98009B18FFDE26FFDB6FFFF228FFF00AFFF02E
:102AA80026FFF042FFF1E2FFE5FFFFCFEEFFD6D7AA
:102AB800FFE296FF9BE0FFD250FFDBBDFFEF5CFF1C
:0E2AC800EDE4FFEE0AFFEE304303CA0000000B
:10382A0053D9BFE49007D5F0A3F09007C31237C16C
:10383A0000000000C298C299C2ACC28E12ECEA1211
:10384A00EEBE12EF1E75C7FFD294D296D293D297CC
:10385A00D2A7E49007BEF0C2B29004F6F090074AED
:10386A00F09007571237C100000000E49004F7F007
:10387A00900736F0A3F0900506F090073FF0900409
:10388A00FFF09007D1F09003D6F090074BF0A3F029
:10389A00900769F0900732F09005151237C10000C1
:1038AA000000E4900746F09007BDF0E5A0543F9071
:1038BA0007D0F0900752E4F0A3741FF0A3E4F0A33A
:1038CA00741FF090075BE4F0A3741FF090075EE4A6
:1038DA00F0A3741FF0900761E4F0A3741FF0900541
:1038EA0019E4F0A3741FF090051CE4F0A3741FF010
:1038FA00A3E4F0A3741FF0900527E4F0A3741FF06B
:10390A00A3E4F0A3741FF0E4900767F0900510F0A9
:10391A0090052C1237C1000000009004F81237C13C
:10392A00000000009007E81237C10000000090056F
:10393A00071237C10000074490050C1237C1000076
:10394A00026C90073B1237C1000091509005231278
:10395A0037C100000000900501E4F0A374BAF0E456
:10396A00900766F09003E0F0A3F0900733F0900719
:10397A00687480F090051BF09007407408F090037B
:10398A00F3F0E49003D2F090076DF012ED929004F8
:10399A00FEE0B4550A9007BFE0900505F080069056
:1039AA0005057480F0E4900760F09005111237C1A4
:1039BA00000367E0C298D2AC43A812C298D29943D6
:1039CA00E601D2AFE49003DCF09004FDF09007E743
:1039DA00F09007DE7455F09007D974FBF012E81ADC
:1039EA009007CF74FFF012F2DB43C18012EC505300
:1039FA00C17FE49007C0F09007E7E060229007DEFD
:103A0A00E0FF9007B4E0FEC3EF6480F8EE648098AC
:103A1A004007E49007C0F080069007C07401F07F69
:103A2A000212328A7F0412328A7F0112328A900786
:103A3A00DA1237C1000000009004FC741EF0E49012
:103A4A0003F2F09007E2E054DF12EE5C12F4231264
:103A5A00F35312F29A53D9F043D90A75FDFF43D9A9
:103A6A0040E4900765F0900747F075FEFFE4FBFA23
:103A7A007DFF7F8012339C900733E060319004F61B
:103A8A00E0602B1251B2129F569007E0E07002A339
:103A9A00E0601BE49007E0F0A3F0124CA490076CDE
:103AAA00E06008129197E490076CF012EE9C75FEA4
:103ABA00FF90074BE07004A3E0641070AD124AC097
:053ACA0075FEFF80A560
:10EEBE00E4FFFE75B12075B9810FBF00010EEF643E
:0FEECE00284E70F543B9C0E5B930E5FB75A903CF
:01EEDD002212
:10ECEA0075F1FF75A45D75A5F375A68075F3BF75FB
:10ECFA00A77C75AE8575F4FF75F5BF75D48075D59B
:0BED0A000175E10775E24075E301228E
:10EF1E0012F37FE4FF12A07B12F41712F2CC12F15F
:0FEF2E006A12F3F812F41B7F0512F38B022072A4
:0FF2CC00438920438E08758D40E4F58BD28E2246
:04F4170075981022B2
:01207200224B
:0CF37F0075A20575A170C2FF75F801228F
:0CF38B008FBB75BA1F75BCB875E88022F6
:04F41B0075D10C2279
:0320230002A3FF16
:10A3FF00C0E0C083C082C0D075D000C00730985372
:10A40F00C2989007BEE06056900506E0FF04F07416
:10A41F00712FF582E43407F583E599F09007D4E4C2
:10A42F00F0900771E0FF900506E06F7031900775AF
:10A43F00E0FF64026004EFB40312900772E0B4010E
:10A44F000BA3E070079004FF04F08000900506E472
:10A45F00F0800B3099089007D77401F0C299D0079C
:09A46F00D0D0D082D083D0E032BD
:10ED4000D3EF9442EE940040047E007F4290000096
:10ED500075F003EF1237F2EE75F003A42583F58307
:09ED6000A3E0FAA3E0F902382453
:10A21300E490085EF09007C31237C100000000907D
:10A223000771E0FFE4FCFDFE9007C3E0F8A3E0F94B
:10A23300A3E0FAA3E0FBC312377E50399007C3A310
:10A24300A3A3E02471F582E43407F583E0FF9008CB
:10A253005EE02FF09007C3E0FCA3E0FDA3E0FEA3C4
:10A26300E02401FFE43EFEE43DFDE43CFC9007C333
:10A273001237B580AA90085EE0700C9003D2F07498
:0CA283000212C59702F05EE4FF129EB6C6
:01A28F0022AC
:1054F800E490085FF09007C31237C10000000090E5
:105508000771E0FFE4FCFDFE9007C3E0F8A3E0F9B3
:10551800A3E0FAA3E0FBC312377E50399007C3A378
:10552800A3A3E02471F582E43407F583E0FF900833
:105538005FE02FF09007C3E0FCA3E0FDA3E0FEA32B
:10554800E02401FFE43EFEE43DFDE43CFC9007C39B
:105558001237B580AA90085FE06003025687741975
:10556800F09003D6E0FF04F074302FF582E43405A0
:10557800F5837416F0900773E0FF9003D6E0FE04FD
:10558800F074302EF582E43405F583EFF090085F6F
:10559800E02FF0900772E0FF9003D6E0FE04F0746D
:1055A800302EF582E43405F583EFF090085FE02FA4
:1055B800F0900774E0FF9003D6E0FE04F074302EFC
:1055C800F582E43405F583EFF090085FE02FF09062
:1055D80003D6E0FF04F074302FF582E43405F58338
:1055E8007403F09007C31237C100000000E47F1075
:1055F800FEFDFC9007C3E0F8A3E0F9A3E0FAA3E0FE
:10560800FBC312377E504D9007C3A3A3A3E0FF90BE
:10561800F2BC93FE9003D6E0FD04F074302DF582C1
:10562800E43405F583EEF0EF90F2BC93FF90085F49
:10563800E02FF09007C3E0FCA3E0FDA3E0FEA3E0A9
:105648002401FFE43EFEE43DFDE43CFC9007C31268
:1056580037B5809990085FE0FFC3E49FFF9003D6B9
:10566800E0FE04F074302EF582E43405F583EFF0A3
:105678009007D3E02416F09007D2E03400F0227FA0
:045688002D129EB68B
:01568C0022FB
:109EB6007E2A9003D6E0FD04F074302DF582E4345A
:109EC60005F5837407F09003D6E0FD04F074302D99
:109ED600F582E43405F583E4F09003D6E0FD04F062
:109EE60074302DF582E43405F5837401F09003D6C1
:109EF600E0FD04F074302DF582E43405F583741F1B
:109F0600F09003D6E0FD04F074302DF582E43405BC
:109F1600F5837403F09003D6E0FD04F074302DF55C
:109F260082E43405F583EFF02EFFC3E49FFF900330
:109F3600D6E0FE04F074302EF582E43405F583EFA6
:0F9F4600F09007D3E02407F09007D2E03400F04A
:019F550022E9
:109D60007F0A9003D6E0FE04F074302EF582E434CE
:109D700005F5837407F0900773E0FE9003D6E0FDCD
:109D800004F074302DF582E43405F583EEF0EE2F07
:109D9000FF900772E0FE9003D6E0FD04F074302DD2
:109DA000F582E43405F583EEF0EE2FFF900774E0C2
:109DB000FE9003D6E0FD04F074302DF582E4340506
:109DC000F583EEF0EE2FFF9003D6E0FE04F0743042
:109DD0002EF582E43405F5837403F09003D6E0FE9B
:109DE00004F074302EF582E43405F583E4F0C39F6B
:109DF000FF9003D6E0FE04F074302EF582E43405C3
:109E0000F583EFF09007D3E02407F09007D2E03419
:029E100000F060
:019E1200222D
:10ECBD00900776E09004FCF09005307453F0A37447
:10ECCD0041F0A37452F0A3743DF0A3740AF09007C1
:0DECDD00D2E4F0A37405F0E49007D1F0221A
:10EF9900E4FE9007D7E06007E4F08F997F01220E25
:0CEFA900EEC394FF40ECEEB4FF027F00CA
:01EFB5002239
:10F15100900515E0FCA3E0FDA3E0FEA3E0FF12375C
:01F161008F1E
:08F16200C2FF8FA330FFFD2264
:10B140009004F6E0FEE4F0C296FF12F16212B1A2A2
:10B15000FF12F16212B1A2900745EFF0E4FF12F185
:10B160006212B1A290074DEFF0E4FF12F16212B14A
:10B17000A29007B2EFF0E4FF12F16212B1A29007C1
:10B1800064EFF0E4FF12F16212B1A290050BEFF050
:10B19000E4FF12F16212B1A2900763EFF0E4FF1234
:02B1A000F1625A
:08B1A20030FFFDC2FFAFA32244
:10E81A0012B1409007CCEFF0D2969003F4F0900733
:10E82A0063E09003DDF09007B2E0900503F09007F3
:10E83A004DE09007B3F0900764E09003E6F090058E
:0BE84A000BE09007ECF09004F6EEF0FD
:01E8550022A0
:03C0420012E81AE7
:10C0450012B1409007CCEFF0D2969004F6EEF09046
:10C0550003F4E06F703F900763E0FF9003DDE06F4E
:10C0650070339007B2E0FF900503E06F70279007EB
:10C075004DE0FF9007B3E0B5071B900764E0FF9024
:10C0850003E6E0B5070F90050BE0FF9007ECE0B580
:07C0950007037F01227F0079
:01C09C002281
:029FEC00AB07C1
:109FEE00EB6004C297800353C7FBC2FF75A3033017
:109FFE00FFFDC2FF90080DE0FCA3E0FDA3E0FEA371
:10A00E00E0FF781012378F8FA330FFFDC2FF90084C
:10A01E000DE0FCA3E0FDA3E0FEA3E0FF78081237FD
:10A02E008F8FA330FFFDC2FF90080DA3A3A3E0F511
:10A03E00A330FFFDE4FFFED3900812E09F900811BD
:10A04E00E09E401CC2FFE4F5A330FFFD74F62FF531
:10A05E008274033EF583E5A3F00FBF00010E80D797
:0CA06E00EB6004D297800343C7047FF628
:01A07A0022C3
:059CA800900802EFF03E
:109CAD006004C297800353C7FBC2FF75A30630FF44
:109CBD00FD900802E0FF6004D297800343C704EFD4
:109CCD006004C297800353C7FBC2FF75A30230FF28
:109CDD00FDC2FF900803E0FCA3E0FDA3E0FEA3E0BE
:109CED00FF781012378F8FA330FFFDC2FF9008034E
:109CFD00E0FCA3E0FDA3E0FEA3E0FF780812378FA0
:109D0D008FA330FFFDC2FF900803A3A3A3E0F5A32B
:109D1D0030FFFDE4FFFED390080BE09F90080AE0B2
:109D2D009E4021C2FF900807E0FBA3E475F00112ED
:109D3D00364BA9F0FA12356DF5A330FFFD0FBF00BC
:109D4D00010E80D2C2FF900802E06003D297224339
:029D5D00C70439
:019D5F0022E1
:109E13009007C7E0FCA3E0FDA3E0FEA3E0FF9008EA
:0C9E2300221237B57420900826F07F0151
:109E2F00AB07EB6004C297800353C7FBC2FF75A358
:109E3F000630FFFDEB6004D297800343C704EB604D
:109E4F0004C297800353C7FBC2FF900826E0F5A317
:109E5F0030FFFD900826E064C76042C2FF900822E1
:109E6F00E0FCA3E0FDA3E0FEA3E0FF781012378F24
:109E7F008FA330FFFDC2FF900822E0FCA3E0FDA3FB
:109E8F00E0FEA3E0FF780812378F8FA330FFFDC2EB
:109E9F00FF900822A3A3A3E0F5A330FFFDEB60031F
:079EAF00D2972243C70422F1
:104E5B00E4900860F09007C31237C1000000009087
:104E6B000771E0FFE4FCFDFE9007C3E0F8A3E0F957
:104E7B00A3E0FAA3E0FBC312377E50399007C3A31C
:104E8B00A3A3E02471F582E43407F583E0FF9008D7
:104E9B0060E02FF09007C3E0FCA3E0FDA3E0FEA3CE
:104EAB00E02401FFE43EFEE43DFDE43CFC9007C33F
:104EBB001237B580AA900860E06003025004C293D9
:104ECB00900776E0900745F0900777E090074DF05C
:104EDB00900778E09007B2F0900779E0900764F0C4
:104EEB0090077AE090050BF090077BE0900763F05A
:104EFB0090077CE09007CCF0E4900860F09008609D
:104F0B00E004F0E0B4FFF6D293C2967F8012F16218
:104F1B0012B1A2900745E012B19E90074DE012B17D
:104F2B009E9007B2E012B19E900764E012B19E9082
:104F3B00050BE012B19E900763E012B19E9007CC77
:104F4B00E012B19ED2969008607409F09003D6E0FF
:104F5B00FF04F074302FF582E43405F5837406F00A
:104F6B00900773E0FF9003D6E0FE04F074302EF54B
:104F7B0082E43405F583EFF0900860E02FF09007A2
:104F8B0072E0FF9003D6E0FE04F074302EF582E45D
:104F9B003405F583EFF0900860E02FF0900774E094
:104FAB00FF9003D6E0FE04F074302EF582E4340556
:104FBB00F583EFF0900860E02FF09003D6E0FF044C
:104FCB00F074302FF582E43405F5837403F0900808
:104FDB0060E0FFC3E49FFF9003D6E0FE04F0743063
:104FEB002EF582E43405F583EFF09007D3E0240629
:0E4FFB00F09007D2E03400F0227F07129EB63D
:015009002284
:07F3F80075C15D43C18022D5
:10F16A00E4F591538E3F759398F592859395859220
:08F17A009443E6804391042256
:03203B00026C171D
:106C1700C0E0C0F0C083C082C0D075D000C000C043
:0B6C270001C002C003C004C005C0078C
:106C3200C206E5C054F024807003026CD924C060FF
:106C42002024E06003026D27900756E0F5C253C28C
:106C5200FEA205E43342C2C2C59000C9E4F0026D4F
:106C62002930C168300007D2C5C200026D29300345
:106C720015C203900742E0F5C2200203026D29D239
:106C820000D205026D29300503026D29900504E04A
:106C9200FF9000C9E0FD3395E0FCC3ED9F7480F8DE
:106CA2006C985022900520E0FBA3E0FAA3E0F912D1
:106CB200356DF5C2900521E475F00112363590006C
:106CC200C9E004F08061D2C4C201805B300404D206
:106CD200C58054D2068050900504E0FF9000C9E0C0
:106CE200FD3395E0FCC3ED9F7480F86C98502290C0
:106CF200074FE0FBA3E0FAA3E0F9E5C21235869064
:106D02000750E475F0011236359000C9E004F0D264
:106D1200C19000C9E0FF900504E0B5070AC201C2B4
:106D2200C1D2C48002D20630061053C17F43C18053
:0C6D3200C2C5C2C4C2C1C201C206C2C0B8
:106D3E00D007D005D004D003D002D001D000D0D0DF
:096D4E00D082D083D0F0D0E032F5
:0320730002F37104
:0EF3710053C17F43C18053917FC2C5C2013298
:10E71600E4FE3001080EEEB4FFF8E4802FD201903B
:10E726000756EDF0C205D203C202D204900742EFAB
:10E73600F0900500EBF09005207401F0A37405F04D
:10E74600A37400F09005047401F0D2C59003DCF0C8
:01E7560022A0
:10B2DC00E4FFFE30010D0FBF00010EBEFFF5BFFFF6
:10B2EC00F2803ED201900817A3E0900756F0C205F9
:10B2FC00D203D202D204900742EDF090074FEBF04C
:10B30C00A3EAF0A3E9F0900819E0900504F0D2C587
:10B31C00E4FEFF3001110FBF00010EBEFFF5BFFFB1
:0DB32C00F2E49003DCF0229003DC7401F0E9
:01B3390022F1
:0D62AD00B2B0E490074EF09007677408F05F
:1062BA009008617414F09003D6E0FF04F074302F54
:1062CA00F582E43405F5837409F09003D6E0FF04FF
:1062DA00F074302FF582E43405F583E4F09003D6A8
:1062EA00E0FF04F074302FF582E43405F58374017D
:1062FA00F09003D6E0FF04F074302FF582E4340501
:10630A00F5837408F09003D6E0FF04F074302FF59B
:10631A0082E43405F5837402F09003D2E0FF54C09E
:10632A00FEBE80159003D6E0FE04F074302EF5828E
:10633A00E43405F583E4F08048EF5430FFBF201CB5
:10634A009003D6E0FF04F074302FF582E43405F5AB
:10635A00837401F0900861E004F080259003D2E094
:10636A00540CFFBF081B9003D6E0FF04F074302FD3
:10637A00F582E43405F5837402F0900861E02402A2
:10638A00F0900523E0FCA3E0FDA3E0FEA3E0FF906C
:10639A000507E0F8A3E0F9A3E0FAA3E02FFFEA3E3D
:1063AA00FEE93DFDE83CFCE47B3EFAF9F81236ECE6
:1063BA00AD07AC06ECFF9003D6E0FE04F074302E75
:1063CA00F582E43405F583EFF0900861E02FF0AF31
:1063DA00059003D6E0FE04F074302EF582E434050D
:1063EA00F583EFF0900861E02FF0E0FFC3E49FFF30
:1063FA009003D6E0FE04F074302EF582E43405F5FD
:10640A0083EFF09007D3E02409F09007D2E034003C
:06641A00F0E4900746F0DB
:016420002259
:037EC3007480F0D8
:107EC60090074AE0FF6003027FBE7E139005100410
:107ED600F09003D6E0FD04F074302DF582E434050D
:107EE600F5837407F09003D6E0FD04F074302DF5A9
:107EF60082E43405F583E4F09003D6E0FD04F074E3
:107F0600302DF582E43405F5837401F09003D6E054
:107F1600FD04F074302DF582E43405F5837409F020
:107F26009003D6E0FD04F074302DF582E43405F5B7
:107F3600837402F09003D2E0FD54C0FCBC4015905F
:107F460003D6E0FC04F074302CF582E43405F583A6
:107F5600E4F0803EED5430FDBD10179003D6E0FDF1
:107F660004F074302DF582E43405F5837401F00EC7
:107F760080209003D2E0540CFDBD04169003D6E099
:107F8600FD04F074302DF582E43405F5837402F0B7
:107F96000E0EC3E49EFE9003D6E0FD04F074302D71
:107FA600F582E43405F583EEF09007D3E02407F07C
:107FB6009007D2E03400F022EF6006900746740185
:017FC600F0CA
:017FC7002297
:103ACF00E490082BF09007C31237C100000000905C
:103ADF000771E0FFE4FCFDFE9007C3E0F8A3E0F9F7
:103AEF00A3E0FAA3E0FBC312377E50399007C3A3BC
:103AFF00A3A3E02471F582E43407F583E0FF900877
:103B0F002BE02FF09007C3E0FCA3E0FDA3E0FEA3A2
:103B1F00E02401FFE43EFEE43DFDE43CFC9007C3DE
:103B2F001237B580AA90082BE06003023D6C900716
:103B3F0067E04480F0900775E064036003023BDAAE
:103B4F00A3E0FFE4FCFDFE78081237A2E4FFE4FDDA
:103B5F00FC9008271237B5900827E0F8A3E0F9A3E7
:103B6F00E0FAA3E0FB900777E0FFE4FCFDFEEB2F0C
:103B7F00FFEE3AFEED39FDEC38FC9008271237B511
:103B8F00900827E0FCA3E0FDA3E0FEA3E0FFE47BA9
:103B9F003EFAF9F81236619008271237B5900523CF
:103BAF00E0FCA3E0FDA3E0FEA3E0FF900827E0F810
:103BBF00A3E0F9A3E0FAA3E0FBEF2BFFEE3AFEED53
:103BCF0039FDEC38FC9005231237B5900775E0648A
:103BDF00026003023D7190082B7414F09003D6E03D
:103BEF00FF04F074302FF582E43405F5837408F088
:103BFF009003D6E0FF04F074302FF582E43405F51E
:103C0F0083E4F09003D6E0FF04F074302FF582E4E4
:103C1F003405F5837401F09003D6E0FF04F074309F
:103C2F002FF582E43405F5837408F09003D6E0FF96
:103C3F0004F074302FF582E43405F5837403F090AB
:103C4F000776E0FFE4FCFDFE78081237A2E4FFE4FC
:103C5F00FDFC9008271237B5900827E0F8A3E0F98C
:103C6F00A3E0FAA3E0FB900777E0FFE4FCFDFEEB97
:103C7F002FFFEE3AFEED39FDEC38FC900827123796
:103C8F00B5900827E0FCA3E0FDA3E0FEA3E0FFE46E
:103C9F007B3EFAF9F81236619008271237B5900576
:103CAF0023E0FCA3E0FDA3E0FEA3E0FF900827E0E4
:103CBF00F8A3E0F9A3E0FAA3E0FBEF2BFFEE3AFE47
:103CCF00ED39FDEC38FC9005231237B5900523E054
:103CDF00FCA3E0FDA3E0FEA3E0FF900507E0F8A33F
:103CEF00E0F9A3E0FAA3E02FFFEA3EFEE93DFDE88D
:103CFF003CFCE47B3EFAF9F81236ECAD07AC06EC6F
:103D0F00FF9003D6E0FE04F074302EF582E4340504
:103D1F00F583EFF090082BE02FF0AF059003D6E07E
:103D2F00FE04F074302EF582E43405F583EFF09045
:103D3F00082BE02FF0E0FFC3E49FFF9003D6E0FED7
:103D4F0004F074302EF582E43405F583EFF090071C
:103D5F00D3E02408F09007D2E03400F0227F08125D
:023D6F009EB6FE
:013D7100222F
:10D4F000E4FFFE900771E0FDEEC39D501074712EA5
:10D50000F582E43407F583E02FFF0E80E6EF702C00
:10D51000900767F09005231237C1000000009007C4
:10D5200076E07F05600512328A8003123313E4909F
:10D530000510F0900767F0900746F0227F09129ED1
:01D54000B634
:01D5410022C7
:10F1820075F003EFA424CAF582E5F03400F583A3F9
:08F19200E0FAA3E0F9023824C1
:10EF3D0090052C1237C1000000009004F81237C163
:0FEF4D00000000009007E81237C100000000220A
:06F3FF00E49003D2F022AD
:06F40500E49003D2F022A6
:06F40B00E49003D2F022A0
:10F19A00E49007BEF09004F81237C1000000009016
:08F1AA0003D2E004F002F2AC14
:10E49C009004F8E0FCA3E0FDA3E0FEA3E02401FF60
:10E4AC00E43EFEE43DFDE43CFC9004F81237B5E498
:10E4BC007F3EFEFDFC9004F8E0F8A3E0F9A3E0FA3F
:10E4CC00A3E0FBC312377E700D9004F81237C10025
:07E4DC0000000012DFEA223C
:10C6A6009004F8E0FCA3E0FDA3E0FEA3E02401FF74
:10C6B600E43EFEE43DFDE43CFC9004F81237B59000
:10C6C60004F8A3A3A3E05401FFE4FEFDFCFBFAF982
:10C6D600F8C312377E70209004F81237C1000000AC
:10C6E60000B2B09003D2E004F0E4900506F09007A3
:08C6F60071F09007BE04F02270
:10D779009004F8E0FCA3E0FDA3E0FEA3E02401FF90
:10D78900E43EFEE43DFDE43CFC9004F81237B5901C
:10D7990004F8A3A3A3E05401FFE4FEFDFCFBFAF99E
:10D7A900F8C312377E700C9004F81237C1000000DC
:0ED7B90000B2B0900767E030E303127EC32297
:10D7C7009004F8E0FCA3E0FDA3E0FEA3E02401FF42
:10D7D700E43EFEE43DFDE43CFC9004F81237B590CE
:10D7E70004F8A3A3A3E05401FFE4FEFDFCFBFAF950
:10D7F700F8C312377E70169004F81237C100000084
:0ED80700001262AD9003D2E054FC4402F02205
:10D046009004F8E0FCA3E0FDA3E0FEA3E02401FFCA
:10D05600E43EFEE43DFDE43CFC9004F81237B59056
:10D0660004F8A3A3A3E05401FFE4FEFDFCFBFAF9D8
:10D07600F8C312377E701F9004F81237C100000003
:10D0860000B2B09004F81237C1000000009003D23D
:07D09600E054FC4401F0220C
:1093480090073BE0FCA3E0FDA3E0FEA3E0FF900450
:10935800F8E0F8A3E0F9A3E0FAA3E0FBC312377E34
:10936800703B900523E0FCA3E0FDA3E0FEA3E0FF33
:10937800EC4D4E4F601F900523A3A3A3E024FFFFED
:10938800EE34FFFEED34FFFDEC34FFFC90052312B4
:1093980037B5B2B0229003D2E054FCF0229004F822
:1093A800E0FCA3E0FDA3E0FEA3E02401FFE43EFE11
:1093B800E43DFDE43CFC9004F81237B59004F8A3B2
:1093C800A3A3E05401FFE4FEFDFCFBFAF9F8C31285
:1093D800377E7002B2B09004F8A3A3A3E0543FFF15
:1093E800E4FEFDFCFBFAF9F8C312377E701990070A
:1093F8004EE0D394055010900767E020E709126209
:08940800BA90074EE004F022C7
:10D3F7009004F81237C1000000009003D2E0440403
:10D4070012EF81E4900767F0900771F0900530F014
:10D417009003D6F09007D1F0900506F09003EEF058
:10D42700900733F09003E0F0A3F09005231237C183
:10D437000000000012EC16900760E06005E4F012AF
:03D44700EEDE22F4
:0BF397009004F81237C10000000022B3
:082003009003D2E054FCF0222E
:08F3B8009003D2E054FCF022A6
:08F3C0009003D2E054FCF0229E
:10F07A00E49007BEF09003D2E004F09007E812375C
:0BF08A00C10000000012F2AC02DFFF2A
:10A730009007E8E0FCA3E0FDA3E0FEA3E02401FF16
:10A74000E43EFEE43DFDE43CFC9007E81237B590A2
:10A7500007E8A3A3A3E05401FFE4FEFDFCFBFAF924
:10A76000F8C312377E700EB2B0900506F0900771F4
:10A77000F09007BEF0E47F06FEFDFC9007E8E0F8ED
:10A78000A3E0F9A3E0FAA3E0FBC312377E701090B8
:10A7900007E81237C1000000009003D2E004F02265
:10C6FE009007E8E0FCA3E0FDA3E0FEA3E02401FF29
:10C70E00E43EFEE43DFDE43CFC9007E81237B590B4
:10C71E0007E8A3A3A3E05401FFE4FEFDFCFBFAF936
:10C72E00F8C312377E70209007E81237C100000060
:10C73E0000B2B09003D2E004F0E4900506F090074A
:08C74E0071F09007BE04F02217
:10D815009007E8E0FCA3E0FDA3E0FEA3E02401FF00
:10D82500E43EFEE43DFDE43CFC9007E81237B5908C
:10D8350007E8A3A3A3E05401FFE4FEFDFCFBFAF90E
:10D84500F8C312377E700C9007E81237C10000004C
:0ED8550000B2B0900767E030E303127EC322FA
:10F09500E49007BEF09003D2E004F09007E8123741
:0BF0A500C10000000012F2AC02DFFF0F
:10A7A0009007E8E0FCA3E0FDA3E0FEA3E02401FFA6
:10A7B000E43EFEE43DFDE43CFC9007E81237B59032
:10A7C00007E8A3A3A3E05401FFE4FEFDFCFBFAF9B4
:10A7D000F8C312377E700EB2B0900506F090077184
:10A7E000F09007BEF0E47F06FEFDFC9007E8E0F87D
:10A7F000A3E0F9A3E0FAA3E0FBC312377E70109048
:10A8000007E81237C1000000009003D2E004F022F4
:10C756009007E8E0FCA3E0FDA3E0FEA3E02401FFD0
:10C76600E43EFEE43DFDE43CFC9007E81237B5905C
:10C7760007E8A3A3A3E05401FFE4FEFDFCFBFAF9DE
:10C78600F8C312377E70209007E81237C100000008
:10C7960000B2B09003D2E004F0E4900506F09007F2
:08C7A60071F09007BE04F022BF
:10D542009007E8E0FCA3E0FDA3E0FEA3E02401FFD6
:10D55200E43EFEE43DFDE43CFC9007E81237B59062
:10D5620007E8A3A3A3E05401FFE4FEFDFCFBFAF9E4
:10D57200F8C312377E700C9007E81237C100000022
:10D5820000B2B0900767E030E3067480F0127EC606
:01D592002276
:10ED6900E49007BEF09003D2E04404F0E004F09090
:10ED790007E81237C1000000009004F81237C100FB
:09ED890000000012F2AC02DFFFF1
:10A566009007E8E0FCA3E0FDA3E0FEA3E02401FFE2
:10A57600E43EFEE43DFDE43CFC9007E81237B5906E
:10A5860007E8A3A3A3E05401FFE4FEFDFCFBFAF9F0
:10A59600F8C312377E700EB2B0900506F0900771C0
:10A5A600F09007BEF0E47F06FEFDFC9007E8E0F8B9
:10A5B600A3E0F9A3E0FAA3E0FBC312377E70149080
:10A5C60007E81237C1000000009003D2E04404F00F
:04A5D600E004F0228B
:10B33A009007E8E0FCA3E0FDA3E0FEA3E02401FF00
:10B34A00E43EFEE43DFDE43CFC9007E81237B5E438
:10B35A007F02FEFDFC9007E8E0F8A3E0F9A3E0FA1B
:10B36A00A3E0FBC312377E70249007E81237C100AE
:10B37A00000000B2B09003D2E04404F0E004F0E42C
:0EB38A00900506F0900771F09007BE04F022C7
:10C5F2009003D2E04404F09007E8E0FCA3E0FDA33E
:10C60200E0FEA3E02401FFE43EFEE43DFDE43CFC49
:10C612009007E81237B5E47F02FEFDFC9007E8E0E0
:10C62200F8A3E0F9A3E0FAA3E0FBC312377E700C93
:10C632009007E81237C100000000B2B0900767E02F
:0AC6420030E3067480F0127EC62279
:10F0B000E49007BEF09003D2E004F09007E8123726
:0BF0C000C10000000012F2AC02DFFFF4
:10A810009007E8E0FCA3E0FDA3E0FEA3E02401FF35
:10A82000E43EFEE43DFDE43CFC9007E81237B590C1
:10A8300007E8A3A3A3E05401FFE4FEFDFCFBFAF943
:10A84000F8C312377E700EB2B0900506F090077113
:10A85000F09007BEF0E47F06FEFDFC9007E8E0F80C
:10A86000A3E0F9A3E0FAA3E0FBC312377E701090D7
:10A8700007E81237C1000000009003D2E004F02284
:10C64C009007E8E0FCA3E0FDA3E0FEA3E02401FFDB
:10C65C00E43EFEE43DFDE43CFC9007E81237B5E413
:10C66C007F02FEFDFC9007E8E0F8A3E0F9A3E0FAF6
:10C67C00A3E0FBC312377E70209007E81237C1008D
:10C68C00000000B2B09003D2E004F0E4900506F094
:0AC69C00900771F09007BE04F02231
:10D44A009007E8E0FCA3E0FDA3E0FEA3E02401FFCF
:10D45A00E43EFEE43DFDE43CFC9007E81237B5E407
:10D46A007F02FEFDFC9007E8E0F8A3E0F9A3E0FAEA
:10D47A00A3E0FBC312377E700C9007E81237C10095
:10D48A00000000B2B0900767E030E3067480F01243
:03D49A007EC62229
:10D863009007E8E0FCA3E0FDA3E0FEA3E02401FFB2
:10D87300E43EFEE43DFDE43CFC9007E81237B5903E
:10D8830007E8A3A3A3E05401FFE4FEFDFCFBFAF9C0
:10D89300F8C312377E70169007E81237C1000000F4
:0ED8A300001262AD9003D2E054FC4402F02269
:10D09D009007E8E0FCA3E0FDA3E0FEA3E02401FF80
:10D0AD00E43EFEE43DFDE43CFC9007E81237B5900C
:10D0BD0007E8A3A3A3E05401FFE4FEFDFCFBFAF98E
:10D0CD00F8C312377E701F9007E81237C1000000B9
:10D0DD0000B2B09003D2E054FC4401F09007E81286
:07D0ED0037C1000000002222
:10941000900507E0FCA3E0FDA3E0FEA3E0FF9007BA
:10942000E8E0F8A3E0F9A3E0FAA3E0FBC312377E7B
:10943000703B900523E0FCA3E0FDA3E0FEA3E0FF6A
:10944000EC4D4E4F601F900523A3A3A3E024FFFF24
:10945000EE34FFFEED34FFFDEC34FFFC90052312EB
:1094600037B5B2B0229003D2E054FCF0229007E866
:10947000E0FCA3E0FDA3E0FEA3E02401FFE43EFE48
:10948000E43DFDE43CFC9007E81237B59007E8A303
:10949000A3A3E05401FFE4FEFDFCFBFAF9F8C312BC
:1094A000377E7002B2B09007E8A3A3A3E0543FFF59
:1094B000E4FEFDFCFBFAF9F8C312377E7019900741
:1094C0004EE0D394055010900767E020E709126240
:0894D000BA90074EE004F022FF
:10D0F4009007E81237C1000000009003D2E044100A
:10D10400F0E49007BEF0C2B0900767F0900771F0AA
:10D11400900530F09003D6F09007D1F0900506F01A
:10D124009003EEF0900733F09003E0F0A3F0900545
:10D13400231237C10000000012EC16900760E06073
:07D1440005E4F012EEDE220B
:10D8B1009007E8E0FCA3E0FDA3E0FEA3E02401FF64
:10D8C100E43EFEE43DFDE43CFC9007E81237B590F0
:10D8D10007E8A3A3A3E05401FFE4FEFDFCFBFAF972
:10D8E100F8C312377E70169007E81237C1000000A6
:0ED8F100001262AD9003D2E054FC4402F0221B
:10D14B009007E8E0FCA3E0FDA3E0FEA3E02401FFD1
:10D15B00E43EFEE43DFDE43CFC9007E81237B5905D
:10D16B0007E8A3A3A3E05401FFE4FEFDFCFBFAF9DF
:10D17B00F8C312377E701F9007E81237C10000000A
:10D18B0000B2B09003D2E054FC4401F09007E812D7
:07D19B0037C1000000002273
:1094D800900507E0FCA3E0FDA3E0FEA3E0FF9007F2
:1094E800E8E0F8A3E0F9A3E0FAA3E0FBC312377EB3
:1094F800703B900523E0FCA3E0FDA3E0FEA3E0FFA2
:10950800EC4D4E4F601F900523A3A3A3E024FFFF5B
:10951800EE34FFFEED34FFFDEC34FFFC9005231222
:1095280037B5B2B0229003D2E054FCF0229007E89D
:10953800E0FCA3E0FDA3E0FEA3E02401FFE43EFE7F
:10954800E43DFDE43CFC9007E81237B59007E8A33A
:10955800A3A3E05401FFE4FEFDFCFBFAF9F8C312F3
:10956800377E7002B2B09007E8A3A3A3E0543FFF90
:10957800E4FEFDFCFBFAF9F8C312377E7019900778
:109588004EE0D394055010900767E020E709126277
:08959800BA90074EE004F02236
:10D8FF009007E81237C1000000009003D2E04410F7
:10D90F00F054F0F0E49007BEF0C2B0900767F090CB
:10D91F000771F0900530F09003D6F09007D1F0909A
:10D92F000506F09003EEF0900733F09003E0F0A3BC
:0ED93F00F09005231237C10000000002EC1624
:10D94D009007E8E0FCA3E0FDA3E0FEA3E02401FFC7
:10D95D00E43EFEE43DFDE43CFC9007E81237B59053
:10D96D0007E8A3A3A3E05401FFE4FEFDFCFBFAF9D5
:10D97D00F8C312377E70169007E81237C100000009
:0ED98D00001262AD9003D2E054FC4402F0227E
:10DC0B009007E8E0FCA3E0FDA3E0FEA3E02401FF06
:10DC1B00E43EFEE43DFDE43CFC9007E81237B59092
:10DC2B0007E8A3A3A3E05401FFE4FEFDFCFBFAF914
:10DC3B00F8C312377E7015B2B09003D2E054FC4497
:0DDC4B0001F09007E81237C1000000002230
:1095A000900507E0FCA3E0FDA3E0FEA3E0FF900729
:1095B000E8E0F8A3E0F9A3E0FAA3E0FBC312377EEA
:1095C000703B900523E0FCA3E0FDA3E0FEA3E0FFD9
:1095D000EC4D4E4F601F900523A3A3A3E024FFFF93
:1095E000EE34FFFEED34FFFDEC34FFFC900523125A
:1095F00037B5B2B0229003D2E054FCF0229007E8D5
:10960000E0FCA3E0FDA3E0FEA3E02401FFE43EFEB6
:10961000E43DFDE43CFC9007E81237B59007E8A371
:10962000A3A3E05401FFE4FEFDFCFBFAF9F8C3122A
:10963000377E7002B2B09007E8A3A3A3E0543FFFC7
:10964000E4FEFDFCFBFAF9F8C312377E70199007AF
:109650004EE0D394055010900767E020E7091262AE
:08966000BA90074EE004F0226D
:10DE73009007E81237C1000000009003D2E0441479
:10DE8300F0E49007BEF0C2B0900767F0900771F01E
:10DE9300900530F09003D6F09007D1F0900506F08E
:10DEA3009003EEF0900733F09003E0F0A3F09005B9
:0BDEB300231237C10000000002EC1633
:10C09D009007E8E0FCA3E0FDA3E0FEA3E02401FF90
:10C0AD00E43EFEE43DFDE43CFC9007E81237B5901C
:10C0BD0007E8A3A3A3E05401FFE4FEFDFCFBFAF99E
:10C0CD00F8C312377E70239007E81237C1000000C5
:10C0DD0000B2B090074E7408F0E4900767F012625A
:0BC0ED00BA9003D2E054FC4402F022A1
:10DC58009007E8E0FCA3E0FDA3E0FEA3E02401FFB9
:10DC6800E43EFEE43DFDE43CFC9007E81237B59045
:10DC780007E8A3A3A3E05401FFE4FEFDFCFBFAF9C7
:10DC8800F8C312377E7015B2B09003D2E054FC444A
:0DDC980001F09007E81237C10000000022E3
:10966800900507E0FCA3E0FDA3E0FEA3E0FF900760
:10967800E8E0F8A3E0F9A3E0FAA3E0FBC312377E21
:10968800703B900523E0FCA3E0FDA3E0FEA3E0FF10
:10969800EC4D4E4F601F900523A3A3A3E024FFFFCA
:1096A800EE34FFFEED34FFFDEC34FFFC9005231291
:1096B80037B5B2B0229003D2E054FCF0229007E80C
:1096C800E0FCA3E0FDA3E0FEA3E02401FFE43EFEEE
:1096D800E43DFDE43CFC9007E81237B59007E8A3A9
:1096E800A3A3E05401FFE4FEFDFCFBFAF9F8C31262
:1096F800377E7002B2B09007E8A3A3A3E0543FFFFF
:10970800E4FEFDFCFBFAF9F8C312377E70199007E6
:109718004EE0D394055010900767E020E7091262E5
:08972800BA90074EE004F022A4
:10DEBE009007E81237C1000000009003D2E0441032
:10DECE00F0E49007BEF0C2B0900767F0900771F0D3
:10DEDE00900530F09003D6F09007D1F0900506F043
:10DEEE009003EEF0900733F09003E0F0A3F090056E
:0BDEFE00231237C10000000002EC16E8
:0BF3A2009007E81237C10000000022B5
:08F3C8009003D2E054FCF02296
:08F3D0009003D2E054FCF0228E
:08F3D8009003D2E054FCF02286
:10F1B200E49007BEF09003D2E004F09004F8123716
:08F1C200C10000000002F2ACE4
:10DCA5009004F8E0FCA3E0FDA3E0FEA3E02401FF5F
:10DCB500E43EFEE43DFDE43CFC9004F81237B5E497
:10DCC5007F3EFEFDFC9004F8E0F8A3E0F9A3E0FA3E
:10DCD500A3E0FBC312377E70139004F81237C1001E
:0DDCE5000000009003D2E004F012DFF222F4
:10C7AE009004F8E0FCA3E0FDA3E0FEA3E02401FF6B
:10C7BE00E43EFEE43DFDE43CFC9004F81237B590F7
:10C7CE0004F8A3A3A3E05401FFE4FEFDFCFBFAF979
:10C7DE00F8C312377E70209004F81237C1000000A3
:10C7EE0000B2B09003D2E004F0E4900506F090079A
:08C7FE0071F09007BE04F02267
:10D593009004F8E0FCA3E0FDA3E0FEA3E02401FF78
:10D5A300E43EFEE43DFDE43CFC9004F81237B59004
:10D5B30004F8A3A3A3E05401FFE4FEFDFCFBFAF986
:10D5C300F8C312377E700C9004F81237C1000000C4
:10D5D30000B2B0900767E030E3067480F0127EC6B5
:01D5E3002225
:10D99B009004F8E0FCA3E0FDA3E0FEA3E02401FF6C
:10D9AB00E43EFEE43DFDE43CFC9004F81237B590F8
:10D9BB0004F8A3A3A3E05401FFE4FEFDFCFBFAF97A
:10D9CB00F8C312377E70169004F81237C1000000AE
:0ED9DB00001262AD9003D2E054FC4402F02230
:10D1A2009004F8E0FCA3E0FDA3E0FEA3E02401FF6D
:10D1B200E43EFEE43DFDE43CFC9004F81237B590F9
:10D1C20004F8A3A3A3E05401FFE4FEFDFCFBFAF97B
:10D1D200F8C312377E701F9004F81237C1000000A6
:10D1E20000B2B09004F81237C1000000009003D2E0
:07D1F200E054FC4401F022AF
:10973000900507E0FCA3E0FDA3E0FEA3E0FF90049A
:10974000F8E0F8A3E0F9A3E0FAA3E0FBC312377E48
:10975000703B900523E0FCA3E0FDA3E0FEA3E0FF47
:10976000EC4D4E4F601F900523A3A3A3E024FFFF01
:10977000EE34FFFEED34FFFDEC34FFFC90052312C8
:1097800037B5B2B0229003D2E054FCF0229004F836
:10979000E0FCA3E0FDA3E0FEA3E02401FFE43EFE25
:1097A000E43DFDE43CFC9004F81237B59004F8A3C6
:1097B000A3A3E05401FFE4FEFDFCFBFAF9F8C31299
:1097C000377E7002B2B09004F8A3A3A3E0543FFF29
:1097D000E4FEFDFCFBFAF9F8C312377E701990071E
:1097E0004EE0D394055010900767E020E70912621D
:0897F000BA90074EE004F022DC
:10DF09009004F81237C1000000009003D2E04404E5
:10DF1900F0E49007BEF0C2B0900767F0900771F087
:10DF2900900530F09003D6F09007D1F0900506F0F7
:10DF39009003EEF0900733F09003E0F0A3F0900522
:0BDF4900231237C10000000002EC169C
:10200E009004F81237C1000000009007E81237C1A3
:05201E0000000000229B
:08F3E0009003D2E054FCF0227E
:08F3E8009003D2E054FCF02276
:08F3F0009003D2E054FCF0226E
:10E8560012203E90050CE0FCA3E0FDA3E0FEA3E041
:10E86600FF90052CE0F8A3E0F9A3E0FAA3E0FBC3D0
:10E8760012377E40169003D2E004F090052C123732
:0CE88600C10000000012F2AC12DFFF2203
:10A8800090052CE0FCA3E0FDA3E0FEA3E02401FF83
:10A89000E43EFEE43DFDE43CFC90052C1237B5900F
:10A8A000052CA3A3A3E05401FFE4FEFDFCFBFAF991
:10A8B000F8C312377E700EB2B0900506F0900771A3
:10A8C000F09007BEF0E47F30FEFDFC90052CE0F830
:10A8D000A3E0F9A3E0FAA3E0FBC312377E70109067
:10A8E000052C1237C1000000009003D2E004F022D2
:10C8060090052CE0FCA3E0FDA3E0FEA3E02401FFDD
:10C81600E43EFEE43DFDE43CFC90052C1237B59069
:10C82600052CA3A3A3E05401FFE4FEFDFCFBFAF9EB
:10C83600F8C312377E702090052C1237C100000015
:10C8460000B2B09003D2E004F0E4900506F0900741
:08C8560071F09007BE04F0220E
:10D2A70090052CE0FCA3E0FDA3E0FEA3E02401FF32
:10D2B700E43EFEE43DFDE43CFC90052C1237B590BE
:10D2C700052CA3A3A3E05401FFE4FEFDFCFBFAF940
:10D2D700F8C312377E700C90052C1237C10000007E
:10D2E70000B2B0900767E030E3097480F0127EC6A1
:04D2F700122062227D
:10E8920012203E90050CE0FCA3E0FDA3E0FEA3E005
:10E8A200FF90052CE0F8A3E0F9A3E0FAA3E0FBC394
:10E8B20012377E40169003D2E004F090052C1237F6
:0CE8C200C10000000012F2AC12DFFF22C7
:10A8F00090052CE0FCA3E0FDA3E0FEA3E02401FF13
:10A90000E43EFEE43DFDE43CFC90052C1237B5909E
:10A91000052CA3A3A3E05401FFE4FEFDFCFBFAF920
:10A92000F8C312377E700EB2B0900506F090077132
:10A93000F09007BEF0E47F30FEFDFC90052CE0F8BF
:10A94000A3E0F9A3E0FAA3E0FBC312377E701090F6
:10A95000052C1237C1000000009003D2E004F02261
:10C85E0090052CE0FCA3E0FDA3E0FEA3E02401FF85
:10C86E00E43EFEE43DFDE43CFC90052C1237B59011
:10C87E00052CA3A3A3E05401FFE4FEFDFCFBFAF993
:10C88E00F8C312377E702090052C1237C1000000BD
:10C89E0000B2B09003D2E004F0E4900506F09007E9
:08C8AE0071F09007BE04F022B6
:10C0F80090052CE0FCA3E0FDA3E0FEA3E02401FFF3
:10C10800E43EFEE43DFDE43CFC90052C1237B5907E
:10C1180003D2E054F3F090052CA3A3A3E05401FF4D
:10C12800E4FEFDFCFBFAF9F8C312377E700C9005AB
:10C138002C1237C100000000B2B0900767E030E36E
:0BC14800097480F0127EC612206222F3
:10E8CE0012203E90050CE0FCA3E0FDA3E0FEA3E0C9
:10E8DE00FF90052CE0F8A3E0F9A3E0FAA3E0FBC358
:10E8EE0012377E40169003D2E004F090052C1237BA
:0CE8FE00C10000000012F2AC12DFFF228B
:10A9600090052CE0FCA3E0FDA3E0FEA3E02401FFA2
:10A97000E43EFEE43DFDE43CFC90052C1237B5902E
:10A98000052CA3A3A3E05401FFE4FEFDFCFBFAF9B0
:10A99000F8C312377E700EB2B0900506F0900771C2
:10A9A000F09007BEF0E47F30FEFDFC90052CE0F84F
:10A9B000A3E0F9A3E0FAA3E0FBC312377E70109086
:10A9C000052C1237C1000000009003D2E004F022F1
:10C8B60090052CE0FCA3E0FDA3E0FEA3E02401FF2D
:10C8C600E43EFEE43DFDE43CFC90052C1237B590B9
:10C8D600052CA3A3A3E05401FFE4FEFDFCFBFAF93B
:10C8E600F8C312377E702090052C1237C100000065
:10C8F60000B2B09003D2E004F0E4900506F0900791
:08C9060071F09007BE04F0225D
:10C1530090052CE0FCA3E0FDA3E0FEA3E02401FF97
:10C16300E43EFEE43DFDE43CFC90052C1237B59023
:10C1730003D2E04404F090052CA3A3A3E05401FFF1
:10C18300E4FEFDFCFBFAF9F8C312377E700C900550
:10C193002C1237C100000000B2B0900767E030E313
:0BC1A300097480F0127EC61220622298
:10E90A0012203E90050CE0FCA3E0FDA3E0FEA3E08C
:10E91A00FF90052CE0F8A3E0F9A3E0FAA3E0FBC31B
:10E92A0012377E40169003D2E004F090052C12377D
:0CE93A00C10000000012F2AC12DFFF224E
:10A9D00090052CE0FCA3E0FDA3E0FEA3E02401FF32
:10A9E000E43EFEE43DFDE43CFC90052C1237B590BE
:10A9F000052CA3A3A3E05401FFE4FEFDFCFBFAF940
:10AA0000F8C312377E700EB2B0900506F090077151
:10AA1000F09007BEF0E47F30FEFDFC90052CE0F8DE
:10AA2000A3E0F9A3E0FAA3E0FBC312377E70109015
:10AA3000052C1237C1000000009003D2E004F02280
:10C90E0090052CE0FCA3E0FDA3E0FEA3E02401FFD4
:10C91E00E43EFEE43DFDE43CFC90052C1237B59060
:10C92E00052CA3A3A3E05401FFE4FEFDFCFBFAF9E2
:10C93E00F8C312377E702090052C1237C10000000C
:10C94E0000B2B09003D2E004F0E4900506F0900738
:08C95E0071F09007BE04F02205
:10D2FB0090052CE0FCA3E0FDA3E0FEA3E02401FFDE
:10D30B00E43EFEE43DFDE43CFC90052C1237B59069
:10D31B00052CA3A3A3E05401FFE4FEFDFCFBFAF9EB
:10D32B00F8C312377E700C90052C1237C100000029
:10D33B0000B2B0900767E030E3097480F0127EC64C
:04D34B001220622228
:10E9460012203E90050CE0FCA3E0FDA3E0FEA3E050
:10E95600FF90052CE0F8A3E0F9A3E0FAA3E0FBC3DF
:10E9660012377E40169003D2E004F090052C123741
:0CE97600C10000000012F2AC12DFFF2212
:10AA400090052CE0FCA3E0FDA3E0FEA3E02401FFC1
:10AA5000E43EFEE43DFDE43CFC90052C1237B5904D
:10AA6000052CA3A3A3E05401FFE4FEFDFCFBFAF9CF
:10AA7000F8C312377E700EB2B0900506F0900771E1
:10AA8000F09007BEF0E47F30FEFDFC90052CE0F86E
:10AA9000A3E0F9A3E0FAA3E0FBC312377E701090A5
:10AAA000052C1237C1000000009003D2E004F02210
:10C9660090052CE0FCA3E0FDA3E0FEA3E02401FF7C
:10C97600E43EFEE43DFDE43CFC90052C1237B59008
:10C98600052CA3A3A3E05401FFE4FEFDFCFBFAF98A
:10C99600F8C312377E702090052C1237C1000000B4
:10C9A60000B2B09003D2E004F0E4900506F09007E0
:08C9B60071F09007BE04F022AD
:10C1AE0090052CE0FCA3E0FDA3E0FEA3E02401FF3C
:10C1BE00E43EFEE43DFDE43CFC90052C1237B590C8
:10C1CE0003D2E054CFF090052CA3A3A3E05401FFBB
:10C1DE00E4FEFDFCFBFAF9F8C312377E700C9005F5
:10C1EE002C1237C100000000B2B0900767E030E3B8
:0BC1FE00097480F0127EC6122062223D
:10E9820012203E90050CE0FCA3E0FDA3E0FEA3E014
:10E99200FF90052CE0F8A3E0F9A3E0FAA3E0FBC3A3
:10E9A20012377E40169003D2E004F090052C123705
:0CE9B200C10000000012F2AC12DFFF22D6
:10AAB00090052CE0FCA3E0FDA3E0FEA3E02401FF51
:10AAC000E43EFEE43DFDE43CFC90052C1237B590DD
:10AAD000052CA3A3A3E05401FFE4FEFDFCFBFAF95F
:10AAE000F8C312377E700EB2B0900506F090077171
:10AAF000F09007BEF0E47F30FEFDFC90052CE0F8FE
:10AB0000A3E0F9A3E0FAA3E0FBC312377E70109034
:10AB1000052C1237C1000000009003D2E004F0229F
:10C9BE0090052CE0FCA3E0FDA3E0FEA3E02401FF24
:10C9CE00E43EFEE43DFDE43CFC90052C1237B590B0
:10C9DE00052CA3A3A3E05401FFE4FEFDFCFBFAF932
:10C9EE00F8C312377E702090052C1237C10000005C
:10C9FE0000B2B09003D2E004F0E4900506F0900788
:08CA0E0071F09007BE04F02254
:10C2090090052CE0FCA3E0FDA3E0FEA3E02401FFE0
:10C21900E43EFEE43DFDE43CFC90052C1237B5906C
:10C2290003D2E054C3F090052CA3A3A3E05401FF6B
:10C23900E4FEFDFCFBFAF9F8C312377E700C900599
:10C249002C1237C100000000B2B0900767E030E35C
:0BC25900097480F0127EC612206222E1
:10E9BE0012203E90050CE0FCA3E0FDA3E0FEA3E0D8
:10E9CE00FF90052CE0F8A3E0F9A3E0FAA3E0FBC367
:10E9DE0012377E40169003D2E004F090052C1237C9
:0CE9EE00C10000000012F2AC12DFFF229A
:10AB200090052CE0FCA3E0FDA3E0FEA3E02401FFE0
:10AB3000E43EFEE43DFDE43CFC90052C1237B5906C
:10AB4000052CA3A3A3E05401FFE4FEFDFCFBFAF9EE
:10AB5000F8C312377E700EB2B0900506F090077100
:10AB6000F09007BEF0E47F30FEFDFC90052CE0F88D
:10AB7000A3E0F9A3E0FAA3E0FBC312377E701090C4
:10AB8000052C1237C1000000009003D2E004F0222F
:10CA160090052CE0FCA3E0FDA3E0FEA3E02401FFCB
:10CA2600E43EFEE43DFDE43CFC90052C1237B59057
:10CA3600052CA3A3A3E05401FFE4FEFDFCFBFAF9D9
:10CA4600F8C312377E702090052C1237C100000003
:10CA560000B2B09003D2E004F0E4900506F090072F
:08CA660071F09007BE04F022FC
:10B3980090052CE0FCA3E0FDA3E0FEA3E02401FF60
:10B3A800E43EFEE43DFDE43CFC90052C1237B590EC
:10B3B80003D2E04404F054CFF090052CA3A3A3E0FB
:10B3C8005401FFE4FEFDFCFBFAF9F8C312377E7066
:10B3D8000C90052C1237C100000000B2B09007672E
:0EB3E800E030E3097480F0127EC6122062226B
:10E9FA0012203E90050CE0FCA3E0FDA3E0FEA3E09C
:10EA0A00FF90052CE0F8A3E0F9A3E0FAA3E0FBC32A
:10EA1A0012377E40169003D2E004F090052C12378C
:0CEA2A00C10000000012F2AC12DFFF225D
:10AB900090052CE0FCA3E0FDA3E0FEA3E02401FF70
:10ABA000E43EFEE43DFDE43CFC90052C1237B590FC
:10ABB000052CA3A3A3E05401FFE4FEFDFCFBFAF97E
:10ABC000F8C312377E700EB2B0900506F090077190
:10ABD000F09007BEF0E47F30FEFDFC90052CE0F81D
:10ABE000A3E0F9A3E0FAA3E0FBC312377E70109054
:10ABF000052C1237C1000000009003D2E004F022BF
:10CA6E0090052CE0FCA3E0FDA3E0FEA3E02401FF73
:10CA7E00E43EFEE43DFDE43CFC90052C1237B590FF
:10CA8E00052CA3A3A3E05401FFE4FEFDFCFBFAF981
:10CA9E00F8C312377E702090052C1237C1000000AB
:10CAAE0000B2B09003D2E004F0E4900506F09007D7
:08CABE0071F09007BE04F022A4
:10C2640090052CE0FCA3E0FDA3E0FEA3E02401FF85
:10C27400E43EFEE43DFDE43CFC90052C1237B59011
:10C2840003D2E054CFF090052CA3A3A3E05401FF04
:10C29400E4FEFDFCFBFAF9F8C312377E700C90053E
:10C2A4002C1237C100000000B2B0900767E030E301
:0BC2B400097480F0127EC61220622286
:10EA360012203E90050CE0FCA3E0FDA3E0FEA3E05F
:10EA4600FF90052CE0F8A3E0F9A3E0FAA3E0FBC3EE
:10EA560012377E40169003D2E004F090052C123750
:0CEA6600C10000000012F2AC12DFFF2221
:10AC000090052CE0FCA3E0FDA3E0FEA3E02401FFFF
:10AC1000E43EFEE43DFDE43CFC90052C1237B5908B
:10AC2000052CA3A3A3E05401FFE4FEFDFCFBFAF90D
:10AC3000F8C312377E700EB2B0900506F09007711F
:10AC4000F09007BEF0E47F30FEFDFC90052CE0F8AC
:10AC5000A3E0F9A3E0FAA3E0FBC312377E701090E3
:10AC6000052C1237C1000000009003D2E004F0224E
:10CAC60090052CE0FCA3E0FDA3E0FEA3E02401FF1B
:10CAD600E43EFEE43DFDE43CFC90052C1237B590A7
:10CAE600052CA3A3A3E05401FFE4FEFDFCFBFAF929
:10CAF600F8C312377E702090052C1237C100000053
:10CB060000B2B09003D2E004F0E4900506F090077E
:08CB160071F09007BE04F0224B
:10C2BF0090052CE0FCA3E0FDA3E0FEA3E02401FF2A
:10C2CF00E43EFEE43DFDE43CFC90052C1237B590B6
:10C2DF0003D2E04410F090052CA3A3A3E05401FF78
:10C2EF00E4FEFDFCFBFAF9F8C312377E700C9005E3
:10C2FF002C1237C100000000B2B0900767E030E3A6
:0BC30F00097480F0127EC6122062222A
:10EA720012203E90050CE0FCA3E0FDA3E0FEA3E023
:10EA8200FF90052CE0F8A3E0F9A3E0FAA3E0FBC3B2
:10EA920012377E40169003D2E004F090052C123714
:0CEAA200C10000000012F2AC12DFFF22E5
:10AC700090052CE0FCA3E0FDA3E0FEA3E02401FF8F
:10AC8000E43EFEE43DFDE43CFC90052C1237B5901B
:10AC9000052CA3A3A3E05401FFE4FEFDFCFBFAF99D
:10ACA000F8C312377E700EB2B0900506F0900771AF
:10ACB000F09007BEF0E47F30FEFDFC90052CE0F83C
:10ACC000A3E0F9A3E0FAA3E0FBC312377E70109073
:10ACD000052C1237C1000000009003D2E004F022DE
:10CB1E0090052CE0FCA3E0FDA3E0FEA3E02401FFC2
:10CB2E00E43EFEE43DFDE43CFC90052C1237B5904E
:10CB3E00052CA3A3A3E05401FFE4FEFDFCFBFAF9D0
:10CB4E00F8C312377E702090052C1237C1000000FA
:10CB5E0000B2B09003D2E004F0E4900506F0900726
:08CB6E0071F09007BE04F022F3
:10B3F60090052CE0FCA3E0FDA3E0FEA3E02401FF02
:10B40600E43EFEE43DFDE43CFC90052C1237B5908D
:10B4160003D2E04410F054F3F090052CA3A3A3E06C
:10B426005401FFE4FEFDFCFBFAF9F8C312377E7007
:10B436000C90052C1237C100000000B2B0900767CF
:0EB44600E030E3097480F0127EC6122062220C
:10EAAE0012203E90050CE0FCA3E0FDA3E0FEA3E0E7
:10EABE00FF90052CE0F8A3E0F9A3E0FAA3E0FBC376
:10EACE0012377E40169003D2E004F090052C1237D8
:0CEADE00C10000000012F2AC12DFFF22A9
:10ACE00090052CE0FCA3E0FDA3E0FEA3E02401FF1F
:10ACF000E43EFEE43DFDE43CFC90052C1237B590AB
:10AD0000052CA3A3A3E05401FFE4FEFDFCFBFAF92C
:10AD1000F8C312377E700EB2B0900506F09007713E
:10AD2000F09007BEF0E47F30FEFDFC90052CE0F8CB
:10AD3000A3E0F9A3E0FAA3E0FBC312377E70109002
:10AD4000052C1237C1000000009003D2E004F0226D
:10CB760090052CE0FCA3E0FDA3E0FEA3E02401FF6A
:10CB8600E43EFEE43DFDE43CFC90052C1237B590F6
:10CB9600052CA3A3A3E05401FFE4FEFDFCFBFAF978
:10CBA600F8C312377E702090052C1237C1000000A2
:10CBB60000B2B09003D2E004F0E4900506F09007CE
:08CBC60071F09007BE04F0229B
:10C31A0090052CE0FCA3E0FDA3E0FEA3E02401FFCE
:10C32A00E43EFEE43DFDE43CFC90052C1237B5905A
:10C33A0003D2E04414F090052CA3A3A3E05401FF18
:10C34A00E4FEFDFCFBFAF9F8C312377E700C900587
:10C35A002C1237C100000000B2B0900767E030E34A
:0BC36A00097480F0127EC612206222CF
:10EAEA0012203E90050CE0FCA3E0FDA3E0FEA3E0AB
:10EAFA00FF90052CE0F8A3E0F9A3E0FAA3E0FBC33A
:10EB0A0012377E40169003D2E004F090052C12379B
:0CEB1A00C10000000012F2AC12DFFF226C
:10AD500090052CE0FCA3E0FDA3E0FEA3E02401FFAE
:10AD6000E43EFEE43DFDE43CFC90052C1237B5903A
:10AD7000052CA3A3A3E05401FFE4FEFDFCFBFAF9BC
:10AD8000F8C312377E700EB2B0900506F0900771CE
:10AD9000F09007BEF0E47F30FEFDFC90052CE0F85B
:10ADA000A3E0F9A3E0FAA3E0FBC312377E70109092
:10ADB000052C1237C1000000009003D2E004F022FD
:10CBCE0090052CE0FCA3E0FDA3E0FEA3E02401FF12
:10CBDE00E43EFEE43DFDE43CFC90052C1237B5909E
:10CBEE00052CA3A3A3E05401FFE4FEFDFCFBFAF920
:10CBFE00F8C312377E702090052C1237C10000004A
:10CC0E0000B2B09003D2E004F0E4900506F0900775
:08CC1E0071F09007BE04F02242
:10C3750090052CE0FCA3E0FDA3E0FEA3E02401FF73
:10C38500E43EFEE43DFDE43CFC90052C1237B590FF
:10C3950003D2E04410F090052CA3A3A3E05401FFC1
:10C3A500E4FEFDFCFBFAF9F8C312377E700C90052C
:10C3B5002C1237C100000000B2B0900767E030E3EF
:0BC3C500097480F0127EC61220622274
:10EB260012203E90050CE0FCA3E0FDA3E0FEA3E06E
:10EB3600FF90052CE0F8A3E0F9A3E0FAA3E0FBC3FD
:10EB460012377E40169003D2E004F090052C12375F
:0CEB5600C10000000012F2AC12DFFF2230
:10ADC00090052CE0FCA3E0FDA3E0FEA3E02401FF3E
:10ADD000E43EFEE43DFDE43CFC90052C1237B590CA
:10ADE000052CA3A3A3E05401FFE4FEFDFCFBFAF94C
:10ADF000F8C312377E700EB2B0900506F09007715E
:10AE0000F09007BEF0E47F30FEFDFC90052CE0F8EA
:10AE1000A3E0F9A3E0FAA3E0FBC312377E70109021
:10AE2000052C1237C1000000009003D2E004F0228C
:10CC260090052CE0FCA3E0FDA3E0FEA3E02401FFB9
:10CC3600E43EFEE43DFDE43CFC90052C1237B59045
:10CC4600052CA3A3A3E05401FFE4FEFDFCFBFAF9C7
:10CC5600F8C312377E702090052C1237C1000000F1
:10CC660000B2B09003D2E004F0E4900506F090071D
:08CC760071F09007BE04F022EA
:10D34F0090052CE0FCA3E0FDA3E0FEA3E02401FF89
:10D35F00E43EFEE43DFDE43CFC90052C1237B59015
:10D36F00052CA3A3A3E05401FFE4FEFDFCFBFAF997
:10D37F00F8C312377E700C90052C1237C1000000D5
:10D38F0000B2B0900767E030E3097480F0127EC6F8
:04D39F0012206222D4
:10EB620012203E90050CE0FCA3E0FDA3E0FEA3E032
:10EB7200FF90052CE0F8A3E0F9A3E0FAA3E0FBC3C1
:10EB820012377E40169003D2E004F090052C123723
:0CEB9200C10000000012F2AC12DFFF22F4
:10AE300090052CE0FCA3E0FDA3E0FEA3E02401FFCD
:10AE4000E43EFEE43DFDE43CFC90052C1237B59059
:10AE5000052CA3A3A3E05401FFE4FEFDFCFBFAF9DB
:10AE6000F8C312377E700EB2B0900506F0900771ED
:10AE7000F09007BEF0E47F30FEFDFC90052CE0F87A
:10AE8000A3E0F9A3E0FAA3E0FBC312377E701090B1
:10AE9000052C1237C1000000009003D2E004F0221C
:10CC7E0090052CE0FCA3E0FDA3E0FEA3E02401FF61
:10CC8E00E43EFEE43DFDE43CFC90052C1237B590ED
:10CC9E00052CA3A3A3E05401FFE4FEFDFCFBFAF96F
:10CCAE00F8C312377E702090052C1237C100000099
:10CCBE0000B2B09003D2E004F0E4900506F09007C5
:08CCCE0071F09007BE04F02292
:10C3D00090052CE0FCA3E0FDA3E0FEA3E02401FF18
:10C3E000E43EFEE43DFDE43CFC90052C1237B590A4
:10C3F00003D2E054F3F090052CA3A3A3E05401FF73
:10C40000E4FEFDFCFBFAF9F8C312377E700C9005D0
:10C410002C1237C100000000B2B0900767E030E393
:0BC42000097480F0127EC61220622218
:10EB9E0012203E90050CE0FCA3E0FDA3E0FEA3E0F6
:10EBAE00FF90052CE0F8A3E0F9A3E0FAA3E0FBC385
:10EBBE0012377E40169003D2E004F090052C1237E7
:0CEBCE00C10000000012F2AC12DFFF22B8
:10AEA00090052CE0FCA3E0FDA3E0FEA3E02401FF5D
:10AEB000E43EFEE43DFDE43CFC90052C1237B590E9
:10AEC000052CA3A3A3E05401FFE4FEFDFCFBFAF96B
:10AED000F8C312377E700EB2B0900506F09007717D
:10AEE000F09007BEF0E47F30FEFDFC90052CE0F80A
:10AEF000A3E0F9A3E0FAA3E0FBC312377E70109041
:10AF0000052C1237C1000000009003D2E004F022AB
:10CCD60090052CE0FCA3E0FDA3E0FEA3E02401FF09
:10CCE600E43EFEE43DFDE43CFC90052C1237B59095
:10CCF600052CA3A3A3E05401FFE4FEFDFCFBFAF917
:10CD0600F8C312377E702090052C1237C100000040
:10CD160000B2B09003D2E004F0E4900506F090076C
:08CD260071F09007BE04F02239
:10C42B0090052CE0FCA3E0FDA3E0FEA3E02401FFBC
:10C43B00E43EFEE43DFDE43CFC90052C1237B59048
:10C44B0003D2E04404F090052CA3A3A3E05401FF16
:10C45B00E4FEFDFCFBFAF9F8C312377E700C900575
:10C46B002C1237C100000000B2B0900767E030E338
:0BC47B00097480F0127EC612206222BD
:10EBDA0012203E90050CE0FCA3E0FDA3E0FEA3E0BA
:10EBEA00FF90052CE0F8A3E0F9A3E0FAA3E0FBC349
:10EBFA0012377E40169003D2E004F090052C1237AB
:0CEC0A00C10000000012F2AC12DFFF227B
:10AF100090052CE0FCA3E0FDA3E0FEA3E02401FFEC
:10AF2000E43EFEE43DFDE43CFC90052C1237B59078
:10AF3000052CA3A3A3E05401FFE4FEFDFCFBFAF9FA
:10AF4000F8C312377E700EB2B0900506F09007710C
:10AF5000F09007BEF0E47F30FEFDFC90052CE0F899
:10AF6000A3E0F9A3E0FAA3E0FBC312377E701090D0
:10AF7000052C1237C1000000009003D2E004F0223B
:10CD2E0090052CE0FCA3E0FDA3E0FEA3E02401FFB0
:10CD3E00E43EFEE43DFDE43CFC90052C1237B5903C
:10CD4E00052CA3A3A3E05401FFE4FEFDFCFBFAF9BE
:10CD5E00F8C312377E702090052C1237C1000000E8
:10CD6E0000B2B09003D2E004F0E4900506F0900714
:08CD7E0071F09007BE04F022E1
:10D3A30090052CE0FCA3E0FDA3E0FEA3E02401FF35
:10D3B300E43EFEE43DFDE43CFC90052C1237B590C1
:10D3C300052CA3A3A3E05401FFE4FEFDFCFBFAF943
:10D3D300F8C312377E700C90052C1237C100000081
:10D3E30000B2B0900767E030E3097480F0127EC6A4
:04D3F3001220622280
:10B4B20090052CE0FCA3E0FDA3E0FEA3E02401FF45
:10B4C200E43EFEE43DFDE43CFC90052C1237B590D1
:10B4D200052CA3A3A3E05401FFE4FEFDFCFBFAF953
:10B4E200F8C312377E702590052C1237C100000078
:10B4F200009007DFE030E705122062800312EF8937
:0DB502001262AD9003D2E054FC4402F0222E
:10BA820090052CE0FCA3E0FDA3E0FEA3E02401FF6F
:10BA9200E43EFEE43DFDE43CFC90052C1237B590FB
:10BAA200052CA3A3A3E05401FFE4FEFDFCFBFAF97D
:10BAB200F8C312377E702490052C1237C1000000A3
:10BAC200009007DFE030E705122062800312EF8961
:0CBAD200B2B09003D2E054FC4401F0221A
:107FC800900507E0FCA3E0FDA3E0FEA3E0FF900519
:107FD8002CE0F8A3E0F9A3E0FAA3E0FBC312377E94
:107FE8007065900523E0FCA3E0FDA3E0FEA3E0FF9D
:107FF800EC4D4E4F6049900523A3A3A3E024FFFF57
:10800800EE34FFFEED34FFFDEC34FFFC9005231247
:1080180037B5900523A3A3A3E05401FFE4FEFDFCBC
:10802800FBFAF9F8C312377E60030280C89007DFB5
:10803800E030E705122062800312EF89B2B0229087
:1080480003D2E054FCF02290052CE0FCA3E0FDA351
:10805800E0FEA3E02401FFE43EFEE43DFDE43CFC39
:1080680090052C1237B590052CA3A3A3E05401FF6B
:10807800E4FEFDFCFBFAF9F8C312377E7011900795
:10808800DFE030E705122062800312EF89B2B0907A
:10809800052CA3A3A3E0543FFFE4FEFDFCFBFAF983
:1080A800F8C312377E701990074EE0D3940550102C
:1080B800900767E020E7091262BA90074EE004F0E3
:0180C8002295
:10DCF20090052C1237C10000000012EF7BE4900760
:10DD020067F0900771F0900530F09003D6F090071D
:10DD1200D1F0900506F09003EEF0900733F09003F7
:10DD2200E0F0A3F09005231237C10000000012ECCE
:0DDD320016900760E06005E4F012EEDE22BE
:10B50F0090052CE0FCA3E0FDA3E0FEA3E02401FFE7
:10B51F00E43EFEE43DFDE43CFC90052C1237B59073
:10B52F00052CA3A3A3E05401FFE4FEFDFCFBFAF9F5
:10B53F00F8C312377E702590052C1237C10000001A
:10B54F00009007DFE030E705122062800312EF89D9
:0DB55F001262AD9003D2E054FC4402F022D1
:10BADE0090052CE0FCA3E0FDA3E0FEA3E02401FF13
:10BAEE00E43EFEE43DFDE43CFC90052C1237B5909F
:10BAFE00052CA3A3A3E05401FFE4FEFDFCFBFAF921
:10BB0E00F8C312377E702490052C1237C100000046
:10BB1E00009007DFE030E705122062800312EF8904
:0CBB2E00B2B09003D2E054FC4401F022BD
:1080C900900507E0FCA3E0FDA3E0FEA3E0FF900517
:1080D9002CE0F8A3E0F9A3E0FAA3E0FBC312377E92
:1080E9007065900523E0FCA3E0FDA3E0FEA3E0FF9B
:1080F900EC4D4E4F6049900523A3A3A3E024FFFF55
:10810900EE34FFFEED34FFFDEC34FFFC9005231245
:1081190037B5900523A3A3A3E05401FFE4FEFDFCBA
:10812900FBFAF9F8C312377E60030281C99007DFB1
:10813900E030E705122062800312EF89B2B0229085
:1081490003D2E054FCF02290052CE0FCA3E0FDA34F
:10815900E0FEA3E02401FFE43EFEE43DFDE43CFC37
:1081690090052C1237B590052CA3A3A3E05401FF69
:10817900E4FEFDFCFBFAF9F8C312377E7011900793
:10818900DFE030E705122062800312EF89B2B09078
:10819900052CA3A3A3E0543FFFE4FEFDFCFBFAF981
:1081A900F8C312377E701990074EE0D3940550102A
:1081B900900767E020E7091262BA90074EE004F0E1
:0181C9002293
:10E2E10090052C1237C1000000009003D2E0444099
:10E2F100F054F012EF81E4900767F0900771F0900D
:10E301000530F09003D6F09007D1F0900506F0901B
:10E3110003EEF0900733F09003E0F0A3F0900523B3
:0AE321001237C10000000002EC16E4
:10B56C0090052CE0FCA3E0FDA3E0FEA3E02401FF8A
:10B57C00E43EFEE43DFDE43CFC90052C1237B59016
:10B58C00052CA3A3A3E05401FFE4FEFDFCFBFAF998
:10B59C00F8C312377E702590052C1237C1000000BD
:10B5AC00009007DFE030E705122062800312EF897C
:0DB5BC001262AD9003D2E054FC4402F02274
:10BB3A0090052CE0FCA3E0FDA3E0FEA3E02401FFB6
:10BB4A00E43EFEE43DFDE43CFC90052C1237B59042
:10BB5A00052CA3A3A3E05401FFE4FEFDFCFBFAF9C4
:10BB6A00F8C312377E702490052C1237C1000000EA
:10BB7A00009007DFE030E705122062800312EF89A8
:0CBB8A00B2B09003D2E054FC4401F02261
:1081CA00900507E0FCA3E0FDA3E0FEA3E0FF900515
:1081DA002CE0F8A3E0F9A3E0FAA3E0FBC312377E90
:1081EA007065900523E0FCA3E0FDA3E0FEA3E0FF99
:1081FA00EC4D4E4F6049900523A3A3A3E024FFFF53
:10820A00EE34FFFEED34FFFDEC34FFFC9005231243
:10821A0037B5900523A3A3A3E05401FFE4FEFDFCB8
:10822A00FBFAF9F8C312377E60030282CA9007DFAD
:10823A00E030E705122062800312EF89B2B0229083
:10824A0003D2E054FCF02290052CE0FCA3E0FDA34D
:10825A00E0FEA3E02401FFE43EFEE43DFDE43CFC35
:10826A0090052C1237B590052CA3A3A3E05401FF67
:10827A00E4FEFDFCFBFAF9F8C312377E7011900791
:10828A00DFE030E705122062800312EF89B2B09076
:10829A00052CA3A3A3E0543FFFE4FEFDFCFBFAF97F
:1082AA00F8C312377E701990074EE0D39405501028
:1082BA00900767E020E7091262BA90074EE004F0DF
:0182CA002291
:10E4E30090052C1237C1000000009003D2E0444491
:10E4F30012EF81E4900767F0900771F0900530F018
:10E503009003D6F09007D1F0900506F09003EEF05B
:10E51300900733F09003E0F0A3F09005231237C186
:07E523000000000002EC16ED
:10B5C90090052CE0FCA3E0FDA3E0FEA3E02401FF2D
:10B5D900E43EFEE43DFDE43CFC90052C1237B590B9
:10B5E900052CA3A3A3E05401FFE4FEFDFCFBFAF93B
:10B5F900F8C312377E702590052C1237C100000060
:10B60900009007DFE030E705122062800312EF891E
:0DB619001262AD9003D2E054FC4402F02216
:10BB960090052CE0FCA3E0FDA3E0FEA3E02401FF5A
:10BBA600E43EFEE43DFDE43CFC90052C1237B590E6
:10BBB600052CA3A3A3E05401FFE4FEFDFCFBFAF968
:10BBC600F8C312377E702490052C1237C10000008E
:10BBD600009007DFE030E705122062800312EF894C
:0CBBE600B2B09003D2E054FC4401F02205
:1082CB00900507E0FCA3E0FDA3E0FEA3E0FF900513
:1082DB002CE0F8A3E0F9A3E0FAA3E0FBC312377E8E
:1082EB007065900523E0FCA3E0FDA3E0FEA3E0FF97
:1082FB00EC4D4E4F6049900523A3A3A3E024FFFF51
:10830B00EE34FFFEED34FFFDEC34FFFC9005231241
:10831B0037B5900523A3A3A3E05401FFE4FEFDFCB6
:10832B00FBFAF9F8C312377E60030283CB9007DFA9
:10833B00E030E705122062800312EF89B2B0229081
:10834B0003D2E054FCF02290052CE0FCA3E0FDA34B
:10835B00E0FEA3E02401FFE43EFEE43DFDE43CFC33
:10836B0090052C1237B590052CA3A3A3E05401FF65
:10837B00E4FEFDFCFBFAF9F8C312377E701190078F
:10838B00DFE030E705122062800312EF89B2B09074
:10839B00052CA3A3A3E0543FFFE4FEFDFCFBFAF97D
:1083AB00F8C312377E701990074EE0D39405501026
:1083BB00900767E020E7091262BA90074EE004F0DD
:0183CB00228F
:10E7570090052C1237C10000000012EF7BE49007F0
:10E7670067F0900771F0900530F09003D6F09007AE
:10E77700D1F0900506F09003EEF0900733F0900388
:10E78700E0F0A3F09005231237C10000000002EC6F
:01E79700166B
:10B6260090052CE0FCA3E0FDA3E0FEA3E02401FFCF
:10B63600E43EFEE43DFDE43CFC90052C1237B5905B
:10B64600052CA3A3A3E05401FFE4FEFDFCFBFAF9DD
:10B65600F8C312377E702590052C1237C100000002
:10B66600009007DFE030E705122062800312EF89C1
:0DB676001262AD9003D2E054FC4402F022B9
:10BBF20090052CE0FCA3E0FDA3E0FEA3E02401FFFE
:10BC0200E43EFEE43DFDE43CFC90052C1237B59089
:10BC1200052CA3A3A3E05401FFE4FEFDFCFBFAF90B
:10BC2200F8C312377E702490052C1237C100000031
:10BC3200009007DFE030E705122062800312EF89EF
:0CBC4200B2B09003D2E054FC4401F022A8
:1083CC00900507E0FCA3E0FDA3E0FEA3E0FF900511
:1083DC002CE0F8A3E0F9A3E0FAA3E0FBC312377E8C
:1083EC007065900523E0FCA3E0FDA3E0FEA3E0FF95
:1083FC00EC4D4E4F6049900523A3A3A3E024FFFF4F
:10840C00EE34FFFEED34FFFDEC34FFFC900523123F
:10841C0037B5900523A3A3A3E05401FFE4FEFDFCB4
:10842C00FBFAF9F8C312377E60030284CC9007DFA5
:10843C00E030E705122062800312EF89B2B022907F
:10844C0003D2E054FCF02290052CE0FCA3E0FDA349
:10845C00E0FEA3E02401FFE43EFEE43DFDE43CFC31
:10846C0090052C1237B590052CA3A3A3E05401FF63
:10847C00E4FEFDFCFBFAF9F8C312377E701190078D
:10848C00DFE030E705122062800312EF89B2B09072
:10849C00052CA3A3A3E0543FFFE4FEFDFCFBFAF97B
:1084AC00F8C312377E701990074EE0D39405501024
:1084BC00900767E020E7091262BA90074EE004F0DB
:0184CC00228D
:10E32B0090052C1237C1000000009003D2E044404E
:10E33B00F054C012EF81E4900767F0900771F090F2
:10E34B000530F09003D6F09007D1F0900506F090D1
:10E35B0003EEF0900733F09003E0F0A3F090052369
:0AE36B001237C10000000002EC169A
:10B6830090052CE0FCA3E0FDA3E0FEA3E02401FF72
:10B69300E43EFEE43DFDE43CFC90052C1237B590FE
:10B6A300052CA3A3A3E05401FFE4FEFDFCFBFAF980
:10B6B300F8C312377E702590052C1237C1000000A5
:10B6C300009007DFE030E705122062800312EF8964
:0DB6D3001262AD9003D2E054FC4402F0225C
:10BC4E0090052CE0FCA3E0FDA3E0FEA3E02401FFA1
:10BC5E00E43EFEE43DFDE43CFC90052C1237B5902D
:10BC6E00052CA3A3A3E05401FFE4FEFDFCFBFAF9AF
:10BC7E00F8C312377E702490052C1237C1000000D5
:10BC8E00009007DFE030E705122062800312EF8993
:0CBC9E00B2B09003D2E054FC4401F0224C
:1084CD00900507E0FCA3E0FDA3E0FEA3E0FF90050F
:1084DD002CE0F8A3E0F9A3E0FAA3E0FBC312377E8A
:1084ED007065900523E0FCA3E0FDA3E0FEA3E0FF93
:1084FD00EC4D4E4F6049900523A3A3A3E024FFFF4D
:10850D00EE34FFFEED34FFFDEC34FFFC900523123D
:10851D0037B5900523A3A3A3E05401FFE4FEFDFCB2
:10852D00FBFAF9F8C312377E60030285CD9007DFA1
:10853D00E030E705122062800312EF89B2B022907D
:10854D0003D2E054FCF02290052CE0FCA3E0FDA347
:10855D00E0FEA3E02401FFE43EFEE43DFDE43CFC2F
:10856D0090052C1237B590052CA3A3A3E05401FF61
:10857D00E4FEFDFCFBFAF9F8C312377E701190078B
:10858D00DFE030E705122062800312EF89B2B09070
:10859D00052CA3A3A3E0543FFFE4FEFDFCFBFAF979
:1085AD00F8C312377E701990074EE0D39405501022
:1085BD00900767E020E7091262BA90074EE004F0D9
:0185CD00228B
:10E3750090052C1237C1000000009003D2E0444004
:10E38500F054C012EF81E4900767F0900771F090A8
:10E395000530F09003D6F09007D1F0900506F09087
:10E3A50003EEF0900733F09003E0F0A3F09005231F
:0AE3B5001237C10000000002EC1650
:10B6E00090052CE0FCA3E0FDA3E0FEA3E02401FF15
:10B6F000E43EFEE43DFDE43CFC90052C1237B590A1
:10B70000052CA3A3A3E05401FFE4FEFDFCFBFAF922
:10B71000F8C312377E702590052C1237C100000047
:10B72000009007DFE030E705122062800312EF8906
:0DB730001262AD9003D2E054FC4402F022FE
:10BCAA0090052CE0FCA3E0FDA3E0FEA3E02401FF45
:10BCBA00E43EFEE43DFDE43CFC90052C1237B590D1
:10BCCA00052CA3A3A3E05401FFE4FEFDFCFBFAF953
:10BCDA00F8C312377E702490052C1237C100000079
:10BCEA00009007DFE030E705122062800312EF8937
:0CBCFA00B2B09003D2E054FC4401F022F0
:1085CE00900507E0FCA3E0FDA3E0FEA3E0FF90050D
:1085DE002CE0F8A3E0F9A3E0FAA3E0FBC312377E88
:1085EE007065900523E0FCA3E0FDA3E0FEA3E0FF91
:1085FE00EC4D4E4F6049900523A3A3A3E024FFFF4B
:10860E00EE34FFFEED34FFFDEC34FFFC900523123B
:10861E0037B5900523A3A3A3E05401FFE4FEFDFCB0
:10862E00FBFAF9F8C312377E60030286CE9007DF9D
:10863E00E030E705122062800312EF89B2B022907B
:10864E0003D2E054FCF02290052CE0FCA3E0FDA345
:10865E00E0FEA3E02401FFE43EFEE43DFDE43CFC2D
:10866E0090052C1237B590052CA3A3A3E05401FF5F
:10867E00E4FEFDFCFBFAF9F8C312377E7011900789
:10868E00DFE030E705122062800312EF89B2B0906E
:10869E00052CA3A3A3E0543FFFE4FEFDFCFBFAF977
:1086AE00F8C312377E701990074EE0D39405501020
:1086BE00900767E020E7091262BA90074EE004F0D7
:0186CE002289
:10B4540090052C1237C1000000009003D2E0444450
:10B46400F054CCF0E49007BEF0C2B09007DFE030B7
:10B47400E705122062800312EF89E4900767F090D9
:10B484000771F0900530F09003D6F09007D1F0905A
:10B494000506F09003EEF0900733F09003E0F0A37C
:0EB4A400F09005231237C10000000002EC16E4
:10B73D0090052CE0FCA3E0FDA3E0FEA3E02401FFB7
:10B74D00E43EFEE43DFDE43CFC90052C1237B59043
:10B75D00052CA3A3A3E05401FFE4FEFDFCFBFAF9C5
:10B76D00F8C312377E702590052C1237C1000000EA
:10B77D00009007DFE030E705122062800312EF89A9
:0DB78D001262AD9003D2E054FC4402F022A1
:10BD060090052CE0FCA3E0FDA3E0FEA3E02401FFE8
:10BD1600E43EFEE43DFDE43CFC90052C1237B59074
:10BD2600052CA3A3A3E05401FFE4FEFDFCFBFAF9F6
:10BD3600F8C312377E702490052C1237C10000001C
:10BD4600009007DFE030E705122062800312EF89DA
:0CBD5600B2B09003D2E054FC4401F02293
:1086CF00900507E0FCA3E0FDA3E0FEA3E0FF90050B
:1086DF002CE0F8A3E0F9A3E0FAA3E0FBC312377E86
:1086EF007065900523E0FCA3E0FDA3E0FEA3E0FF8F
:1086FF00EC4D4E4F6049900523A3A3A3E024FFFF49
:10870F00EE34FFFEED34FFFDEC34FFFC9005231239
:10871F0037B5900523A3A3A3E05401FFE4FEFDFCAE
:10872F00FBFAF9F8C312377E60030287CF9007DF99
:10873F00E030E705122062800312EF89B2B0229079
:10874F0003D2E054FCF02290052CE0FCA3E0FDA343
:10875F00E0FEA3E02401FFE43EFEE43DFDE43CFC2B
:10876F0090052C1237B590052CA3A3A3E05401FF5D
:10877F00E4FEFDFCFBFAF9F8C312377E7011900787
:10878F00DFE030E705122062800312EF89B2B0906C
:10879F00052CA3A3A3E0543FFFE4FEFDFCFBFAF975
:1087AF00F8C312377E701990074EE0D3940550101E
:1087BF00900767E020E7091262BA90074EE004F0D5
:0187CF002287
:10E3BF0090052C1237C1000000009003D2E04440BA
:10E3CF00F054CC12EF81E4900767F0900771F09052
:10E3DF000530F09003D6F09007D1F0900506F0903D
:10E3EF0003EEF0900733F09003E0F0A3F0900523D5
:0AE3FF001237C10000000002EC1606
:10B79A0090052CE0FCA3E0FDA3E0FEA3E02401FF5A
:10B7AA00E43EFEE43DFDE43CFC90052C1237B590E6
:10B7BA00052CA3A3A3E05401FFE4FEFDFCFBFAF968
:10B7CA00F8C312377E702590052C1237C10000008D
:10B7DA00009007DFE030E705122062800312EF894C
:0DB7EA001262AD9003D2E054FC4402F02244
:10BD620090052CE0FCA3E0FDA3E0FEA3E02401FF8C
:10BD7200E43EFEE43DFDE43CFC90052C1237B59018
:10BD8200052CA3A3A3E05401FFE4FEFDFCFBFAF99A
:10BD9200F8C312377E702490052C1237C1000000C0
:10BDA200009007DFE030E705122062800312EF897E
:0CBDB200B2B09003D2E054FC4401F02237
:1087D000900507E0FCA3E0FDA3E0FEA3E0FF900509
:1087E0002CE0F8A3E0F9A3E0FAA3E0FBC312377E84
:1087F0007065900523E0FCA3E0FDA3E0FEA3E0FF8D
:10880000EC4D4E4F6049900523A3A3A3E024FFFF46
:10881000EE34FFFEED34FFFDEC34FFFC9005231237
:1088200037B5900523A3A3A3E05401FFE4FEFDFCAC
:10883000FBFAF9F8C312377E60030288D09007DF95
:10884000E030E705122062800312EF89B2B0229077
:1088500003D2E054FCF02290052CE0FCA3E0FDA341
:10886000E0FEA3E02401FFE43EFEE43DFDE43CFC29
:1088700090052C1237B590052CA3A3A3E05401FF5B
:10888000E4FEFDFCFBFAF9F8C312377E7011900785
:10889000DFE030E705122062800312EF89B2B0906A
:1088A000052CA3A3A3E0543FFFE4FEFDFCFBFAF973
:1088B000F8C312377E701990074EE0D3940550101C
:1088C000900767E020E7091262BA90074EE004F0D3
:0188D0002285
:10E6460090052C1237C1000000009003D2745012BE
:10E65600EF81E4900767F0900771F0900530F09035
:10E6660003D6F09007D1F0900506F09003EEF090F7
:10E676000733F09003E0F0A3F09005231237C100B2
:06E6860000000002EC168A
:10B7F70090052CE0FCA3E0FDA3E0FEA3E02401FFFD
:10B80700E43EFEE43DFDE43CFC90052C1237B59088
:10B81700052CA3A3A3E05401FFE4FEFDFCFBFAF90A
:10B82700F8C312377E702590052C1237C10000002F
:10B83700009007DFE030E705122062800312EF89EE
:0DB847001262AD9003D2E054FC4402F022E6
:10BDBE0090052CE0FCA3E0FDA3E0FEA3E02401FF30
:10BDCE00E43EFEE43DFDE43CFC90052C1237B590BC
:10BDDE00052CA3A3A3E05401FFE4FEFDFCFBFAF93E
:10BDEE00F8C312377E702490052C1237C100000064
:10BDFE00009007DFE030E705122062800312EF8922
:0CBE0E00B2B09003D2E054FC4401F022DA
:1088D100900507E0FCA3E0FDA3E0FEA3E0FF900507
:1088E1002CE0F8A3E0F9A3E0FAA3E0FBC312377E82
:1088F1007065900523E0FCA3E0FDA3E0FEA3E0FF8B
:10890100EC4D4E4F6049900523A3A3A3E024FFFF44
:10891100EE34FFFEED34FFFDEC34FFFC9005231235
:1089210037B5900523A3A3A3E05401FFE4FEFDFCAA
:10893100FBFAF9F8C312377E60030289D19007DF91
:10894100E030E705122062800312EF89B2B0229075
:1089510003D2E054FCF02290052CE0FCA3E0FDA33F
:10896100E0FEA3E02401FFE43EFEE43DFDE43CFC27
:1089710090052C1237B590052CA3A3A3E05401FF59
:10898100E4FEFDFCFBFAF9F8C312377E7011900783
:10899100DFE030E705122062800312EF89B2B09068
:1089A100052CA3A3A3E0543FFFE4FEFDFCFBFAF971
:1089B100F8C312377E701990074EE0D3940550101A
:1089C100900767E020E7091262BA90074EE004F0D1
:0189D1002283
:10E4530090052C1237C1000000009003D27450F0D5
:10E4630054F012EF81E4900767F0900771F0900584
:10E4730030F09003D6F09007D1F0900506F09003AA
:10E48300EEF0900733F09003E0F0A3F09005231231
:09E4930037C10000000002EC1684
:10B8540090052CE0FCA3E0FDA3E0FEA3E02401FF9F
:10B86400E43EFEE43DFDE43CFC90052C1237B5902B
:10B87400052CA3A3A3E05401FFE4FEFDFCFBFAF9AD
:10B88400F8C312377E702590052C1237C1000000D2
:10B89400009007DFE030E705122062800312EF8991
:0DB8A4001262AD9003D2E054FC4402F02289
:10BE1A0090052CE0FCA3E0FDA3E0FEA3E02401FFD3
:10BE2A00E43EFEE43DFDE43CFC90052C1237B5905F
:10BE3A00052CA3A3A3E05401FFE4FEFDFCFBFAF9E1
:10BE4A00F8C312377E702490052C1237C100000007
:10BE5A00009007DFE030E705122062800312EF89C5
:0CBE6A00B2B09003D2E054FC4401F0227E
:1089D200900507E0FCA3E0FDA3E0FEA3E0FF900505
:1089E2002CE0F8A3E0F9A3E0FAA3E0FBC312377E80
:1089F2007065900523E0FCA3E0FDA3E0FEA3E0FF89
:108A0200EC4D4E4F6049900523A3A3A3E024FFFF42
:108A1200EE34FFFEED34FFFDEC34FFFC9005231233
:108A220037B5900523A3A3A3E05401FFE4FEFDFCA8
:108A3200FBFAF9F8C312377E6003028AD29007DF8D
:108A4200E030E705122062800312EF89B2B0229073
:108A520003D2E054FCF02290052CE0FCA3E0FDA33D
:108A6200E0FEA3E02401FFE43EFEE43DFDE43CFC25
:108A720090052C1237B590052CA3A3A3E05401FF57
:108A8200E4FEFDFCFBFAF9F8C312377E7011900781
:108A9200DFE030E705122062800312EF89B2B09066
:108AA200052CA3A3A3E0543FFFE4FEFDFCFBFAF96F
:108AB200F8C312377E701990074EE0D39405501018
:108AC200900767E020E7091262BA90074EE004F0CF
:018AD2002281
:10E52A0090052C1237C1000000009003D2E0445439
:10E53A0012EF81E4900767F0900771F0900530F0D0
:10E54A009003D6F09007D1F0900506F09003EEF014
:10E55A00900733F09003E0F0A3F09005231237C13F
:07E56A000000000002EC16A6
:10B8B10090052CE0FCA3E0FDA3E0FEA3E02401FF42
:10B8C100E43EFEE43DFDE43CFC90052C1237B590CE
:10B8D100052CA3A3A3E05401FFE4FEFDFCFBFAF950
:10B8E100F8C312377E702590052C1237C100000075
:10B8F100009007DFE030E705122062800312EF8934
:0DB901001262AD9003D2E054FC4402F0222B
:10BE760090052CE0FCA3E0FDA3E0FEA3E02401FF77
:10BE8600E43EFEE43DFDE43CFC90052C1237B59003
:10BE9600052CA3A3A3E05401FFE4FEFDFCFBFAF985
:10BEA600F8C312377E702490052C1237C1000000AB
:10BEB600009007DFE030E705122062800312EF8969
:0CBEC600B2B09003D2E054FC4401F02222
:108AD300900507E0FCA3E0FDA3E0FEA3E0FF900503
:108AE3002CE0F8A3E0F9A3E0FAA3E0FBC312377E7E
:108AF3007065900523E0FCA3E0FDA3E0FEA3E0FF87
:108B0300EC4D4E4F6049900523A3A3A3E024FFFF40
:108B1300EE34FFFEED34FFFDEC34FFFC9005231231
:108B230037B5900523A3A3A3E05401FFE4FEFDFCA6
:108B3300FBFAF9F8C312377E6003028BD39007DF89
:108B4300E030E705122062800312EF89B2B0229071
:108B530003D2E054FCF02290052CE0FCA3E0FDA33B
:108B6300E0FEA3E02401FFE43EFEE43DFDE43CFC23
:108B730090052C1237B590052CA3A3A3E05401FF55
:108B8300E4FEFDFCFBFAF9F8C312377E701190077F
:108B9300DFE030E705122062800312EF89B2B09064
:108BA300052CA3A3A3E0543FFFE4FEFDFCFBFAF96D
:108BB300F8C312377E701990074EE0D39405501016
:108BC300900767E020E7091262BA90074EE004F0CD
:018BD300227F
:10E68C0090052C1237C1000000009003D274501278
:10E69C00EF81E4900767F0900771F0900530F090EF
:10E6AC0003D6F09007D1F0900506F09003EEF090B1
:10E6BC000733F09003E0F0A3F09005231237C1006C
:06E6CC0000000002EC1644
:10B90E0090052CE0FCA3E0FDA3E0FEA3E02401FFE4
:10B91E00E43EFEE43DFDE43CFC90052C1237B59070
:10B92E00052CA3A3A3E05401FFE4FEFDFCFBFAF9F2
:10B93E00F8C312377E702590052C1237C100000017
