:02F02E00381A8E
:02F03000207648
:02F03200420D8D
:02F03600A3D65F
:02F03800D86E90
:02F03E00A5BE6D
:02F04000A451D9
:02F04200A72005
:02F04400A4CB5B
:02F04600A2D353
:02F04800C5CC35
:02F04A00C627D7
:02F04C00C6827A
:0320000002A24DEC
:06A24D0075815102A28E92
:10F40200545653323141312D4D43552D302E303427
:102658004907B45500000000000000004107D700FA
:102668004107D800410771004503E940A0E6CCB214
:102678004407C7000000004103DB0041073A00425D
:1026880007C100004207D200004103D6004107D12C
:10269800004107BF004104FE0042074B000041050E
:1026A8002B0041074D41410745004107B211410741
:1026B800640141050B24410763094107CC07410721
:1026C800BE0041074E00410747004107DFFF4107B1
:1026D800E23F4107D4004104F60041076C0042077D
:1026E800E00000C10160C90000FFA359FF9EA6FFDA
:1026F8009EA6FF9EA6FF6411FF5CAEFF4441FF4EFD
:102708004BFF3ABFFFD636FF9EA6FF4893FF6821CE
:10271800FF9EA6FF9EA6FF9EA6FF599FFF2EDAFFEB
:10272800911EFF7DD6FF6978FF9EA6FF9EA6FFED4E
:10273800EDFF7372FF6ACEFF6571FF66C9FFA7944C
:10274800FF6C19FF93B9FF9EA6FF9EA6FF75CAFFEF
:1027580076F1FF7818FF793EFF567DFF5811FF3F4D
:10276800CFFF7A64FF749EFF7B8AFF7CB0FF710FF6
:10277800FF54E8FF5B2BFF4FFAFF9EA6FF5E30FF7A
:102788006E9DFF7243FF4672FF2AC7FF6125FF9EB9
:10279800A6FF9EA6FF9EA6FF9EA6FF9EA6FF9EA63C
:1027A800FF3D62FF9EA6FF9EA6FFA805FF5345FFBB
:1027B8009EA6C100630000CAFFF06DFFF545FFF556
:1027C8004BFFF551FFF2CAFFDFB9FFC7ECFFD8BFD7
:1027D800FFD53DFF948EFFD18CFFD90DFFF4DDFFAF
:1027E8002003FFF4FEFFF506FFF1AAFFA876FFC855
:1027F80044FFD95BFFF1C5FFA8E6FFC89CFFD68858
:10280800FFEE99FFA6ACFFB480FFC738FFF1E0FFE9
:10281800A956FFC792FFD590FFD23AFF9556FFD130
:10282800E3FFD9A9FFDA45FF961EFFD291FFD9F73A
:10283800FFE200FF96E6FFDD51FFDA93FFE24BFF70
:1028480097AEFFDD9EFFC1E3FFF4E8FFF50EFFF54D
:1028580016FFF51EFFF2E2FFDDEBFFC8F4FFD6D945
:10286800FFE296FF9876FFD2E8FFDAE1FF200EFF3D
:10287800F526FFF52EFFF536FFE986FFA9C6FFC945
:102888004CFFD3EDFFE9C2FFAA36FFC9A4FFC23E41
:10289800FFE9FEFFAAA6FFC9FCFFC299FFEA3AFFBB
:1028A800AB16FFCA54FFD441FFEA76FFAB86FFCAD6
:1028B800ACFFC2F4FFEAB2FFABF6FFCB04FFC34F95
:1028C800FFEAEEFFAC66FFCB5CFFB4DEFFEB2AFF4E
:1028D800ACD6FFCBB4FFC3AAFFEB66FFAD46FFCC77
:1028E8000CFFC405FFEBA2FFADB6FFCC64FFB53CFF
:1028F800FFEBDEFFAE26FFCCBCFFC460FFEC1AFF87
:10290800AE96FFCD14FFC4BBFFEC56FFAF06FFCD5C
:102918006CFFD495FFEC92FFAF76FFCDC4FFC516D0
:10292800FFECCEFFAFE6FFCE1CFFC571FFED0AFF3F
:10293800B056FFCE74FFD4E9FFDE38FF810EFFBB2F
:10294800C8FFB5F8FFE458FF820FFFBC24FFB65557
:10295800FFE613FF8310FFBC80FFB6B2FFE887FFD6
:102968008411FFBCDCFFB70FFFE4A2FF8512FFBD97
:1029780038FFB76CFFE4ECFF8613FFBD94FFB7C9BF
:10298800FFB59AFF8714FFBDF0FFB826FFE536FFB5
:102998008815FFBE4CFFB883FFE776FF8916FFBE98
:1029A800A8FFB8E0FFE5CAFF8A17FFBF04FFB93DDB
:1029B800FFE65AFF8B18FFBF60FFB99AFFE7BCFF1D
:1029C8008C19FFBFBCFFB9F7FFE8C8FF8D1AFFC01D
:1029D80018FFBA54FFE580FF8E1BFFC074FFBAB121
:1029E800FFE6A1FF8F1CFFC0D0FFBB0EFFE909FF68
:1029F800901DFFC12CFFBB6BFFF4F3FFF398FFF3AF
:102A0800AAFFF3BCFFF2FAFFE6E8FFCECCFFD72A15
:102A1800FFE2E1FF993EFFD33FFFDB2FFF2026FFB8
:102A2800F0E6FFF102FFF11EFFF1FBFFB0C6FFCF9A
:102A380024FFD77BFFF216FFB136FFCF7CFFCFD440
:102A4800FFF231FFB1A6FFD02CFFD084FFF24CFF7C
:102A5800B216FFD0DCFFD7CCFFE32CFF9A06FFDECF
:102A680085FFDB7DFFDC19FF9ACEFFDED2FFDBCBD3
:102A7800FFE377FF9B96FFDF1FFFDC67FFE3C2FFE3
:102A88009C5EFFDF6CFFDCB5FFF36EFFF13AFFF1F0
:102A980056FFF172FFF312FFE72FFFD134FFD81D65
:102AA800FFE40DFF9D26FFD396FFDD03FFF08CFFAB
:0E2AB800EF14FFEF3AFFEF604303CA00000087
:10381A0053D9BFE49007D5F0A3F09007C31237B18C
:10382A0000000000C298C299C2ACC28E12EE1A12EF
:10383A00EFEE12F04E75C7FFD294D296D293D2977A
:10384A00D2A7E49007BEF0C2B29004F6F090074AFD
:10385A00F09007571237B100000000E49004F7F027
:10386A00900736F0A3F0900506F090073FF0900419
:10387A00FFF09007D1F09003D6F090074BF0A3F039
:10388A00900769F0900732F09005151237B10000E1
:10389A000000E4900746F09007BDF0E5A0543F9081
:1038AA0007D0F0900752E4F0A3741FF0A3E4F0A34A
:1038BA00741FF090075BE4F0A3741FF090075EE4B6
:1038CA00F0A3741FF0900761E4F0A3741FF0900551
:1038DA0019E4F0A3741FF090051CE4F0A3741FF020
:1038EA00A3E4F0A3741FF0900527E4F0A3741FF07B
:1038FA00A3E4F0A3741FF0E4900767F0900510F0BA
:10390A0090052C1237B1000000009004F81237B16C
:10391A00000000009007E81237B10000000090058F
:10392A00071237B10000074490050C1237B10000A6
:10393A00026C90073B1237B1000091509005231298
:10394A0037B100000000900501E4F0A374BAF0E476
:10395A00900766F09003E0F0A3F0900733F0900729
:10396A00687480F090051BF09007407408F090038B
:10397A00F3F0E49003D2F090076DF012EEC29004D7
:10398A00FEE0B4550A9007BFE0900505F080069066
:10399A0005057480F0E4900760F09005111237B1C4
:1039AA00000367E0C298D2AC43A812C298D29943E6
:1039BA00E601D2AFE49003DCF09004FDF09007E753
:1039CA00F09007DE7455F09007D974FBF012E94ABB
:1039DA009007CF74FFF012F42143C18012ED805397
:1039EA00C17FE49007C0F09007E7E060229007DE0D
:1039FA00E0FF9007B4E0FEC3EF6480F8EE648098BD
:103A0A004007E49007C0F080069007C07401F07F79
:103A1A000212327A7F0412327A7F0112327A9007C6
:103A2A00DA1237B1000000009004FC741EF0E49032
:103A3A0003F2F09007E2E054DF12EF8C12F56912FC
:103A4A00F49912F3E053D9F043D90A75FDFF43D92B
:103A5A0040E4900765F0900747F075FEFFE4FBFA33
:103A6A007DFF7F8012338C900733E060319004F63B
:103A7A00E0602B1251A212A09C9007E0E07002A312
:103A8A00E0601BE49007E0F0A3F0124C9490076CFE
:103A9A00E060081292DDE490076CF012EFCC75FE3C
:103AAA00FF90074BE07004A3E0641070AD124AB0B7
:053ABA0075FEFF80A570
:10EFEE00E4FFFE75B12075B9810FBF00010EEF640D
:0FEFFE00284E70F543B9C0E5B930E5FB75A9039E
:01F00D0022E0
:10EE1A0075F1FF75A45D75A5F375A68075F3BF75C9
:10EE2A00A77C75AE8575F4FF75F5BF75D48075D569
:0BEE3A000175E10775E24075E301225D
:10F04E0012F4C5E4FF12A1C112F55D12F41212F210
:0FF05E009A12F53E12F5617F0512F4D10220726D
:0FF41200438920438E08758D40E4F58BD28E22FE
:04F55D00759810226B
:01207200224B
:0CF4C50075A20575A170C2FF75F8012248
:0CF4D1008FBB75BA1F75BCB875E88022AF
:04F5610075D10C2232
:0320230002A545CE
:10A54500C0E0C083C082C0D075D000C0073098532A
:10A55500C2989007BEE06056900506E0FF04F074CF
:10A56500712FF582E43407F583E599F09007D4E47B
:10A57500F0900771E0FF900506E06F703190077568
:10A58500E0FF64026004EFB40312900772E0B401C7
:10A595000BA3E070079004FF04F08000900506E42B
:10A5A500F0800B3099089007D77401F0C299D00755
:09A5B500D0D0D082D083D0E03276
:10EE7000D3EF9442EE940040047E007F4290000065
:10EE800075F003EF1237E2EE75F003A42583F583E6
:09EE9000A3E0FAA3E0F902381432
:10A35900E490085EF09007C31237B1000000009046
:10A369000771E0FFE4FCFDFE9007C3E0F8A3E0F904
:10A37900A3E0FAA3E0FBC312376E50399007C3A3D9
:10A38900A3A3E02471F582E43407F583E0FF900884
:10A399005EE02FF09007C3E0FCA3E0FDA3E0FEA37D
:10A3A900E02401FFE43EFEE43DFDE43CFC9007C3EC
:10A3B9001237A580AA90085EE0700C9003D2F07461
:0CA3C9000212C6DD02F18EE4FF129FFCC0
:01A3D5002265
:1054E800E490085FF09007C31237B1000000009005
:1054F8000771E0FFE4FCFDFE9007C3E0F8A3E0F9C4
:10550800A3E0FAA3E0FBC312376E50399007C3A398
:10551800A3A3E02471F582E43407F583E0FF900843
:105528005FE02FF09007C3E0FCA3E0FDA3E0FEA33B
:10553800E02401FFE43EFEE43DFDE43CFC9007C3AB
:105548001237A580AA90085FE060030256777419A5
:10555800F09003D6E0FF04F074302FF582E43405B0
:10556800F5837416F0900773E0FF9003D6E0FE040D
:10557800F074302EF582E43405F583EFF090085F7F
:10558800E02FF0900772E0FF9003D6E0FE04F0747D
:10559800302EF582E43405F583EFF090085FE02FB4
:1055A800F0900774E0FF9003D6E0FE04F074302E0C
:1055B800F582E43405F583EFF090085FE02FF09072
:1055C80003D6E0FF04F074302FF582E43405F58348
:1055D8007403F09007C31237B100000000E47F1095
:1055E800FEFDFC9007C3E0F8A3E0F9A3E0FAA3E00E
:1055F800FBC312376E504D9007C3A3A3A3E0FF90DF
:10560800F40293FE9003D6E0FD04F074302DF58289
:10561800E43405F583EEF0EF90F40293FF90085F11
:10562800E02FF09007C3E0FCA3E0FDA3E0FEA3E0B9
:105638002401FFE43EFEE43DFDE43CFC9007C31278
:1056480037A5809990085FE0FFC3E49FFF9003D6D9
:10565800E0FE04F074302EF582E43405F583EFF0B3
:105668009007D3E02416F09007D2E03400F0227FB0
:045678002D129FFC54
:01567C00220B
:109FFC007E2A9003D6E0FD04F074302DF582E43413
:10A00C0005F5837407F09003D6E0FD04F074302D51
:10A01C00F582E43405F583E4F09003D6E0FD04F01A
:10A02C0074302DF582E43405F5837401F09003D679
:10A03C00E0FD04F074302DF582E43405F583741FD3
:10A04C00F09003D6E0FD04F074302DF582E4340575
:10A05C00F5837403F09003D6E0FD04F074302DF515
:10A06C0082E43405F583EFF02EFFC3E49FFF9003E9
:10A07C00D6E0FE04F074302EF582E43405F583EF5F
:0FA08C00F09007D3E02407F09007D2E03400F003
:01A09B0022A2
:109EA6007F0A9003D6E0FE04F074302EF582E43487
:109EB60005F5837407F0900773E0FE9003D6E0FD86
:109EC60004F074302DF582E43405F583EEF0EE2FC0
:109ED600FF900772E0FE9003D6E0FD04F074302D8B
:109EE600F582E43405F583EEF0EE2FFF900774E07B
:109EF600FE9003D6E0FD04F074302DF582E43405BF
:109F0600F583EEF0EE2FFF9003D6E0FE04F07430FA
:109F16002EF582E43405F5837403F09003D6E0FE53
:109F260004F074302EF582E43405F583E4F0C39F23
:109F3600FF9003D6E0FE04F074302EF582E434057B
:109F4600F583EFF09007D3E02407F09007D2E034D2
:029F560000F019
:019F580022E6
:10EDED00900776E09004FCF09005307453F0A37416
:10EDFD0041F0A37452F0A3743DF0A3740AF0900790
:0DEE0D00D2E4F0A37405F0E49007D1F022E8
:10F0C900E4FE9007D7E06007E4F08F997F01220EF4
:0CF0D900EEC394FF40ECEEB4FF027F0099
:01F0E5002208
:10F28100900515E0FCA3E0FDA3E0FEA3E0FF12372B
:01F291007FFD
:08F29200C2FF8FA330FFFD2233
:10B286009004F6E0FEE4F0C296FF12F29212B2E8E3
:10B29600FF12F29212B2E8900745EFF0E4FF12F2C5
:10B2A6009212B2E890074DEFF0E4FF12F29212B25A
:10B2B600E89007B2EFF0E4FF12F29212B2E89007BC
:10B2C60064EFF0E4FF12F29212B2E890050BEFF091
:10B2D600E4FF12F29212B2E8900763EFF0E4FF1275
:02B2E600F292E2
:08B2E80030FFFDC2FFAFA322FD
:10E94A0012B2869007CCEFF0D2969003F4F09007BB
:10E95A0063E09003DDF09007B2E0900503F09007C2
:10E96A004DE09007B3F0900764E09003E6F090055D
:0BE97A000BE09007ECF09004F6EEF0CC
:01E98500226F
:03C1880012E94A6F
:10C18B0012B2869007CCEFF0D2969004F6EEF090B8
:10C19B0003F4E06F703F900763E0FF9003DDE06F07
:10C1AB0070339007B2E0FF900503E06F70279007A4
:10C1BB004DE0FF9007B3E0B5071B900764E0FF90DD
:10C1CB0003E6E0B5070F90050BE0FF9007ECE0B539
:07C1DB0007037F01227F0032
:01C1E200223A
:02A13200AB0779
:10A13400EB6004C297800353C7FBC2FF75A30330CF
:10A14400FFFDC2FF90080DE0FCA3E0FDA3E0FEA329
:10A15400E0FF781012377F8FA330FFFDC2FF900815
:10A164000DE0FCA3E0FDA3E0FEA3E0FF78081237B6
:10A174007F8FA330FFFDC2FF90080DA3A3A3E0F5DA
:10A18400A330FFFDE4FFFED3900812E09F90081176
:10A19400E09E401CC2FFE4F5A330FFFD74F62FF5EA
:10A1A4008274033EF583E5A3F00FBF00010E80D750
:0CA1B400EB6004D297800343C7047FF6E1
:01A1C000227C
:059DEE00900802EFF0F7
:109DF3006004C297800353C7FBC2FF75A30630FFFD
:109E0300FD900802E0FF6004D297800343C704EF8C
:109E13006004C297800353C7FBC2FF75A30230FFE0
:109E2300FDC2FF900803E0FCA3E0FDA3E0FEA3E076
:109E3300FF781012377F8FA330FFFDC2FF90080316
:109E4300E0FCA3E0FDA3E0FEA3E0FF780812377F68
:109E53008FA330FFFDC2FF900803A3A3A3E0F5A3E4
:109E630030FFFDE4FFFED390080BE09F90080AE06B
:109E73009E4021C2FF900807E0FBA3E475F00112A6
:109E8300363BA9F0FA12355DF5A330FFFD0FBF0095
:109E9300010E80D2C2FF900802E06003D2972243F2
:029EA300C704F2
:019EA500229A
:109F59009007C7E0FCA3E0FDA3E0FEA3E0FF9008A3
:0C9F6900221237A57420900826F07F011A
:109F7500AB07EB6004C297800353C7FBC2FF75A311
:109F85000630FFFDEB6004D297800343C704EB6006
:109F950004C297800353C7FBC2FF900826E0F5A3D0
:109FA50030FFFD900826E064C76042C2FF9008229A
:109FB500E0FCA3E0FDA3E0FEA3E0FF781012377FED
:109FC5008FA330FFFDC2FF900822E0FCA3E0FDA3B4
:109FD500E0FEA3E0FF780812377F8FA330FFFDC2B4
:109FE500FF900822A3A3A3E0F5A330FFFDEB6003D8
:079FF500D2972243C70422AA
:104E4B00E4900860F09007C31237B10000000090A7
:104E5B000771E0FFE4FCFDFE9007C3E0F8A3E0F967
:104E6B00A3E0FAA3E0FBC312376E50399007C3A33C
:104E7B00A3A3E02471F582E43407F583E0FF9008E7
:104E8B0060E02FF09007C3E0FCA3E0FDA3E0FEA3DE
:104E9B00E02401FFE43EFEE43DFDE43CFC9007C34F
:104EAB001237A580AA900860E06003024FF4C2930A
:104EBB00900776E0900745F0900777E090074DF06C
:104ECB00900778E09007B2F0900779E0900764F0D4
:104EDB0090077AE090050BF090077BE0900763F06A
:104EEB0090077CE09007CCF0E4900860F0900860AD
:104EFB00E004F0E0B4FFF6D293C2967F8012F292F8
:104F0B0012B2E8900745E012B2E490074DE012B2FE
:104F1B00E49007B2E012B2E4900764E012B2E490BE
:104F2B00050BE012B2E4900763E012B2E49007CCF9
:104F3B00E012B2E4D2969008607409F09003D6E0C8
:104F4B00FF04F074302FF582E43405F5837406F01A
:104F5B00900773E0FF9003D6E0FE04F074302EF55B
:104F6B0082E43405F583EFF0900860E02FF09007B2
:104F7B0072E0FF9003D6E0FE04F074302EF582E46D
:104F8B003405F583EFF0900860E02FF0900774E0A4
:104F9B00FF9003D6E0FE04F074302EF582E4340566
:104FAB00F583EFF0900860E02FF09003D6E0FF045C
:104FBB00F074302FF582E43405F5837403F0900818
:104FCB0060E0FFC3E49FFF9003D6E0FE04F0743073
:104FDB002EF582E43405F583EFF09007D3E0240639
:0E4FEB00F09007D2E03400F0227F07129FFC06
:014FF9002295
:07F53E0075C15D43C180228D
:10F29A00E4F591538E3F759398F5928593958592EF
:08F2AA009443E6804391042225
:03203B00026D5DD6
:106D5D00C0E0C0F0C083C082C0D075D000C000C0FC
:0B6D6D0001C002C003C004C005C00745
:106D7800C206E5C054F024807003026E1F24C06070
:106D88002024E06003026E6D900756E0F5C253C2FE
:106D9800FEA205E43342C2C2C59000C9E4F0026E07
:106DA8006F30C168300007D2C5C200026E6F300371
:106DB80015C203900742E0F5C2200203026E6FD2AB
:106DC80000D205026E6F300503026E6F900504E075
:106DD800FF9000C9E0FD3395E0FCC3ED9F7480F897
:106DE8006C985022900520E0FBA3E0FAA3E0F9128A
:106DF800355DF5C2900521E475F001123625900045
:106E0800C9E004F08061D2C4C201805B300404D2BE
:106E1800C58054D2068050900504E0FF9000C9E078
:106E2800FD3395E0FCC3ED9F7480F86C9850229078
:106E3800074FE0FBA3E0FAA3E0F9E5C2123576902C
:106E48000750E475F0011236259000C9E004F0D22D
:106E5800C19000C9E0FF900504E0B5070AC201C26D
:106E6800C1D2C48002D20630061053C17F43C1800C
:0C6E7800C2C5C2C4C2C1C201C206C2C071
:106E8400D007D005D004D003D002D001D000D0D098
:096E9400D082D083D0F0D0E032AE
:0320730002F4B7BD
:0EF4B70053C17F43C18053917FC2C5C2013251
:10E84600E4FE3001080EEEB4FFF8E4802FD201900A
:10E856000756EDF0C205D203C202D204900742EF7A
:10E86600F0900500EBF09005207401F0A37405F01C
:10E87600A37400F09005047401F0D2C59003DCF097
:01E88600226F
:10B42200E4FFFE30010D0FBF00010EBEFFF5BFFFAE
:10B43200F2803ED201900817A3E0900756F0C205B1
:10B44200D203D202D204900742EDF090074FEBF004
:10B45200A3EAF0A3E9F0900819E0900504F0D2C540
:10B46200E4FEFF3001110FBF00010EBEFFF5BFFF6A
:0DB47200F2E49003DCF0229003DC7401F0A2
:01B47F0022AA
:0D629D00B2B0E490074EF09007677408F06F
:1062AA009008617414F09003D6E0FF04F074302F64
:1062BA00F582E43405F5837409F09003D6E0FF040F
:1062CA00F074302FF582E43405F583E4F09003D6B8
:1062DA00E0FF04F074302FF582E43405F58374018D
:1062EA00F09003D6E0FF04F074302FF582E4340511
:1062FA00F5837408F09003D6E0FF04F074302FF5AC
:10630A0082E43405F5837402F09003D2E0FF54C0AE
:10631A00FEBE80159003D6E0FE04F074302EF5829E
:10632A00E43405F583E4F08048EF5430FFBF201CC5
:10633A009003D6E0FF04F074302FF582E43405F5BB
:10634A00837401F0900861E004F080259003D2E0A4
:10635A00540CFFBF081B9003D6E0FF04F074302FE3
:10636A00F582E43405F5837402F0900861E02402B2
:10637A00F0900523E0FCA3E0FDA3E0FEA3E0FF907C
:10638A000507E0F8A3E0F9A3E0FAA3E02FFFEA3E4D
:10639A00FEE93DFDE83CFCE47B3EFAF9F81236DC06
:1063AA00AD07AC06ECFF9003D6E0FE04F074302E85
:1063BA00F582E43405F583EFF0900861E02FF0AF41
:1063CA00059003D6E0FE04F074302EF582E434051D
:1063DA00F583EFF0900861E02FF0E0FFC3E49FFF40
:1063EA009003D6E0FE04F074302EF582E43405F50D
:1063FA0083EFF09007D3E02409F09007D2E034004D
:06640A00F0E4900746F0EB
:016410002269
:038009007480F090
:10800C0090074AE0FF60030281047E139005100480
:10801C00F09003D6E0FD04F074302DF582E43405C5
:10802C00F5837407F09003D6E0FD04F074302DF561
:10803C0082E43405F583E4F09003D6E0FD04F0749B
:10804C00302DF582E43405F5837401F09003D6E00D
:10805C00FD04F074302DF582E43405F5837409F0D9
:10806C009003D6E0FD04F074302DF582E43405F570
:10807C00837402F09003D2E0FD54C0FCBC40159018
:10808C0003D6E0FC04F074302CF582E43405F5835F
:10809C00E4F0803EED5430FDBD10179003D6E0FDAA
:1080AC0004F074302DF582E43405F5837401F00E80
:1080BC0080209003D2E0540CFDBD04169003D6E052
:1080CC00FD04F074302DF582E43405F5837402F070
:1080DC000E0EC3E49EFE9003D6E0FD04F074302D2A
:1080EC00F582E43405F583EEF09007D3E02407F035
:1080FC009007D2E03400F022EF600690074674013E
:01810C00F082
:01810D00224F
:103ABF00E490082BF09007C31237B100000000907C
:103ACF000771E0FFE4FCFDFE9007C3E0F8A3E0F907
:103ADF00A3E0FAA3E0FBC312376E50399007C3A3DC
:103AEF00A3A3E02471F582E43407F583E0FF900887
:103AFF002BE02FF09007C3E0FCA3E0FDA3E0FEA3B3
:103B0F00E02401FFE43EFEE43DFDE43CFC9007C3EE
:103B1F001237A580AA90082BE06003023D5C900746
:103B2F0067E04480F0900775E064036003023BCACE
:103B3F00A3E0FFE4FCFDFE7808123792E4FFE4FDFA
:103B4F00FC9008271237A5900827E0F8A3E0F9A307
:103B5F00E0FAA3E0FB900777E0FFE4FCFDFEEB2F1C
:103B6F00FFEE3AFEED39FDEC38FC9008271237A531
:103B7F00900827E0FCA3E0FDA3E0FEA3E0FFE47BB9
:103B8F003EFAF9F81236519008271237A5900523FF
:103B9F00E0FCA3E0FDA3E0FEA3E0FF900827E0F820
:103BAF00A3E0F9A3E0FAA3E0FBEF2BFFEE3AFEED63
:103BBF0039FDEC38FC9005231237A5900775E064AA
:103BCF00026003023D6190082B7414F09003D6E05D
:103BDF00FF04F074302FF582E43405F5837408F098
:103BEF009003D6E0FF04F074302FF582E43405F52E
:103BFF0083E4F09003D6E0FF04F074302FF582E4F5
:103C0F003405F5837401F09003D6E0FF04F07430AF
:103C1F002FF582E43405F5837408F09003D6E0FFA6
:103C2F0004F074302FF582E43405F5837403F090BB
:103C3F000776E0FFE4FCFDFE7808123792E4FFE41C
:103C4F00FDFC9008271237A5900827E0F8A3E0F9AC
:103C5F00A3E0FAA3E0FB900777E0FFE4FCFDFEEBA7
:103C6F002FFFEE3AFEED39FDEC38FC9008271237A6
:103C7F00A5900827E0FCA3E0FDA3E0FEA3E0FFE48E
:103C8F007B3EFAF9F81236519008271237A59005A6
:103C9F0023E0FCA3E0FDA3E0FEA3E0FF900827E0F4
:103CAF00F8A3E0F9A3E0FAA3E0FBEF2BFFEE3AFE57
:103CBF00ED39FDEC38FC9005231237A5900523E074
:103CCF00FCA3E0FDA3E0FEA3E0FF900507E0F8A34F
:103CDF00E0F9A3E0FAA3E02FFFEA3EFEE93DFDE89D
:103CEF003CFCE47B3EFAF9F81236DCAD07AC06EC8F
:103CFF00FF9003D6E0FE04F074302EF582E4340515
:103D0F00F583EFF090082BE02FF0AF059003D6E08E
:103D1F00FE04F074302EF582E43405F583EFF09055
:103D2F00082BE02FF0E0FFC3E49FFF9003D6E0FEE7
:103D3F0004F074302EF582E43405F583EFF090072C
:103D4F00D3E02408F09007D2E03400F0227F08126D
:023D5F009FFCC7
:013D6100223F
:10D63600E4FFFE900771E0FDEEC39D501074712E5D
:10D64600F582E43407F583E02FFF0E80E6EF702CB9
:10D65600900767F09005231237B10000000090078D
:10D6660076E07F05600512327A8003123303E49078
:10D676000510F0900767F0900746F0227F09129F89
:01D68600FCA7
:01D687002280
:10F2B20075F003EFA424CAF582E5F03400F583A3C8
:08F2C200E0FAA3E0F9023814A0
:10F06D0090052C1237B1000000009004F81237B152
:0FF07D00000000009007E81237B10000000022E9
:06F54500E49003D2F02265
:06F54B00E49003D2F0225F
:06F55100E49003D2F02259
:10F2CA00E49007BEF09004F81237B10000000090F5
:08F2DA0003D2E004F002F3F29C
:10DFB9009004F8E0FCA3E0FDA3E0FEA3E02401FF48
:10DFC900E43EFEE43DFDE43CFC9004F81237A5E490
:10DFD9007F3EFEFDFC9004F8E0F8A3E0F9A3E0FA27
:10DFE900A3E0FBC312376E700D9004F81237B1002D
:07DFF90000000012F34222B8
:10C7EC009004F8E0FCA3E0FDA3E0FEA3E02401FF2D
:10C7FC00E43EFEE43DFDE43CFC9004F81237A590C9
:10C80C0004F8A3A3A3E05401FFE4FEFDFCFBFAF93A
:10C81C00F8C312376E70209004F81237B100000084
:10C82C0000B2B09003D2E004F0E4900506F090075B
:08C83C0071F09007BE04F02228
:10D8BF009004F8E0FCA3E0FDA3E0FEA3E02401FF49
:10D8CF00E43EFEE43DFDE43CFC9004F81237A590E5
:10D8DF0004F8A3A3A3E05401FFE4FEFDFCFBFAF957
:10D8EF00F8C312376E700C9004F81237B1000000B5
:0ED8FF0000B2B0900767E030E3031280092208
:10D90D009004F8E0FCA3E0FDA3E0FEA3E02401FFFA
:10D91D00E43EFEE43DFDE43CFC9004F81237A59096
:10D92D0004F8A3A3A3E05401FFE4FEFDFCFBFAF908
:10D93D00F8C312376E70169004F81237B10000005C
:0ED94D000012629D9003D2E054FC4402F022CE
:10D18C009004F8E0FCA3E0FDA3E0FEA3E02401FF83
:10D19C00E43EFEE43DFDE43CFC9004F81237A5901F
:10D1AC0004F8A3A3A3E05401FFE4FEFDFCFBFAF991
:10D1BC00F8C312376E701F9004F81237B1000000DC
:10D1CC0000B2B09004F81237B1000000009003D206
:07D1DC00E054FC4401F022C5
:10948E0090073BE0FCA3E0FDA3E0FEA3E0FF900409
:10949E00F8E0F8A3E0F9A3E0FAA3E0FBC312376EFD
:1094AE00703B900523E0FCA3E0FDA3E0FEA3E0FFEC
:1094BE00EC4D4E4F601F900523A3A3A3E024FFFFA6
:1094CE00EE34FFFEED34FFFDEC34FFFC900523126D
:1094DE0037A5B2B0229003D2E054FCF0229004F8EB
:1094EE00E0FCA3E0FDA3E0FEA3E02401FFE43EFECA
:1094FE00E43DFDE43CFC9004F81237A59004F8A37B
:10950E00A3A3E05401FFE4FEFDFCFBFAF9F8C3123D
:10951E00376E7002B2B09004F8A3A3A3E0543FFFDD
:10952E00E4FEFDFCFBFAF9F8C312376E70199007D2
:10953E004EE0D394055010900767E020E7091262C1
:08954E00AA90074EE004F02290
:10D53D009004F81237B1000000009003D2E04404CB
:10D54D0012F0B1E4900767F0900771F0900530F09C
:10D55D009003D6F09007D1F0900506F09003EEF011
:10D56D00900733F09003E0F0A3F09005231237B14C
:10D57D000000000012ED46900760E06005E4F01237
:03D58D00F00E227B
:0BF4DD009004F81237B100000000227C
:082003009003D2E054FCF0222E
:08F4FE009003D2E054FCF0225F
:08F506009003D2E054FCF02256
:10F1AA00E49007BEF09003D2E004F09007E812372B
:0BF1BA00B10000000012F3F202F35756
:10A876009007E8E0FCA3E0FDA3E0FEA3E02401FFCF
:10A88600E43EFEE43DFDE43CFC9007E81237A5906B
:10A8960007E8A3A3A3E05401FFE4FEFDFCFBFAF9DD
:10A8A600F8C312376E700EB2B0900506F0900771BD
:10A8B600F09007BEF0E47F06FEFDFC9007E8E0F8A6
:10A8C600A3E0F9A3E0FAA3E0FBC312376E70109081
:10A8D60007E81237B1000000009003D2E004F0222E
:10C844009007E8E0FCA3E0FDA3E0FEA3E02401FFE1
:10C85400E43EFEE43DFDE43CFC9007E81237A5907D
:10C8640007E8A3A3A3E05401FFE4FEFDFCFBFAF9EF
:10C87400F8C312376E70209007E81237B100000039
:10C8840000B2B09003D2E004F0E4900506F0900703
:08C8940071F09007BE04F022D0
:10D95B009007E8E0FCA3E0FDA3E0FEA3E02401FFB9
:10D96B00E43EFEE43DFDE43CFC9007E81237A59055
:10D97B0007E8A3A3A3E05401FFE4FEFDFCFBFAF9C7
:10D98B00F8C312376E700C9007E81237B100000025
:0ED99B0000B2B0900767E030E303128009226B
:10F1C500E49007BEF09003D2E004F09007E8123710
:0BF1D500B10000000012F3F202F3573B
:10A8E6009007E8E0FCA3E0FDA3E0FEA3E02401FF5F
:10A8F600E43EFEE43DFDE43CFC9007E81237A590FB
:10A9060007E8A3A3A3E05401FFE4FEFDFCFBFAF96C
:10A91600F8C312376E700EB2B0900506F09007714C
:10A92600F09007BEF0E47F06FEFDFC9007E8E0F835
:10A93600A3E0F9A3E0FAA3E0FBC312376E70109010
:10A9460007E81237B1000000009003D2E004F022BD
:10C89C009007E8E0FCA3E0FDA3E0FEA3E02401FF89
:10C8AC00E43EFEE43DFDE43CFC9007E81237A59025
:10C8BC0007E8A3A3A3E05401FFE4FEFDFCFBFAF997
:10C8CC00F8C312376E70209007E81237B1000000E1
:10C8DC0000B2B09003D2E004F0E4900506F09007AB
:08C8EC0071F09007BE04F02278
:10D688009007E8E0FCA3E0FDA3E0FEA3E02401FF8F
:10D69800E43EFEE43DFDE43CFC9007E81237A5902B
:10D6A80007E8A3A3A3E05401FFE4FEFDFCFBFAF99D
:10D6B800F8C312376E700C9007E81237B1000000FB
:10D6C80000B2B0900767E030E3067480F012800C77
:01D6D800222F
:10EE9900E49007BEF09003D2E04404F0E004F0905F
:10EEA90007E81237B1000000009004F81237B100EA
:09EEB90000000012F3F202F3570D
:10A6AC009007E8E0FCA3E0FDA3E0FEA3E02401FF9B
:10A6BC00E43EFEE43DFDE43CFC9007E81237A59037
:10A6CC0007E8A3A3A3E05401FFE4FEFDFCFBFAF9A9
:10A6DC00F8C312376E700EB2B0900506F090077189
:10A6EC00F09007BEF0E47F06FEFDFC9007E8E0F872
:10A6FC00A3E0F9A3E0FAA3E0FBC312376E70149049
:10A70C0007E81237B1000000009003D2E04404F0D7
:04A71C00E004F02243
:10B480009007E8E0FCA3E0FDA3E0FEA3E02401FFB9
:10B49000E43EFEE43DFDE43CFC9007E81237A5E401
:10B4A0007F02FEFDFC9007E8E0F8A3E0F9A3E0FAD4
:10B4B000A3E0FBC312376E70249007E81237B10087
:10B4C000000000B2B09003D2E04404F0E004F0E4E5
:0EB4D000900506F0900771F09007BE04F02280
:10C738009003D2E04404F09007E8E0FCA3E0FDA3F6
:10C74800E0FEA3E02401FFE43EFEE43DFDE43CFC02
:10C758009007E81237A5E47F02FEFDFC9007E8E0A9
:10C76800F8A3E0F9A3E0FAA3E0FBC312376E700C5C
:10C778009007E81237B100000000B2B0900767E0F8
:0AC7880030E3067480F012800C22EA
:10F1E000E49007BEF09003D2E004F09007E81237F5
:0BF1F000B10000000012F3F202F35720
:10A956009007E8E0FCA3E0FDA3E0FEA3E02401FFEE
:10A96600E43EFEE43DFDE43CFC9007E81237A5908A
:10A9760007E8A3A3A3E05401FFE4FEFDFCFBFAF9FC
:10A98600F8C312376E700EB2B0900506F0900771DC
:10A99600F09007BEF0E47F06FEFDFC9007E8E0F8C5
:10A9A600A3E0F9A3E0FAA3E0FBC312376E701090A0
:10A9B60007E81237B1000000009003D2E004F0224D
:10C792009007E8E0FCA3E0FDA3E0FEA3E02401FF94
:10C7A200E43EFEE43DFDE43CFC9007E81237A5E4DC
:10C7B2007F02FEFDFC9007E8E0F8A3E0F9A3E0FAAF
:10C7C200A3E0FBC312376E70209007E81237B10066
:10C7D200000000B2B09003D2E004F0E4900506F04D
:0AC7E200900771F09007BE04F022EA
:10D590009007E8E0FCA3E0FDA3E0FEA3E02401FF88
:10D5A000E43EFEE43DFDE43CFC9007E81237A5E4D0
:10D5B0007F02FEFDFC9007E8E0F8A3E0F9A3E0FAA3
:10D5C000A3E0FBC312376E700C9007E81237B1006E
:10D5D000000000B2B0900767E030E3067480F012FC
:03D5E000800C229A
:10D9A9009007E8E0FCA3E0FDA3E0FEA3E02401FF6B
:10D9B900E43EFEE43DFDE43CFC9007E81237A59007
:10D9C90007E8A3A3A3E05401FFE4FEFDFCFBFAF979
:10D9D900F8C312376E70169007E81237B1000000CD
:0ED9E9000012629D9003D2E054FC4402F02232
:10D1E3009007E8E0FCA3E0FDA3E0FEA3E02401FF39
:10D1F300E43EFEE43DFDE43CFC9007E81237A590D5
:10D2030007E8A3A3A3E05401FFE4FEFDFCFBFAF946
:10D21300F8C312376E701F9007E81237B100000091
:10D2230000B2B09003D2E054FC4401F09007E8123E
:07D2330037B10000000022EA
:10955600900507E0FCA3E0FDA3E0FEA3E0FF900773
:10956600E8E0F8A3E0F9A3E0FAA3E0FBC312376E44
:10957600703B900523E0FCA3E0FDA3E0FEA3E0FF23
:10958600EC4D4E4F601F900523A3A3A3E024FFFFDD
:10959600EE34FFFEED34FFFDEC34FFFC90052312A4
:1095A60037A5B2B0229003D2E054FCF0229007E82F
:1095B600E0FCA3E0FDA3E0FEA3E02401FFE43EFE01
:1095C600E43DFDE43CFC9007E81237A59007E8A3CC
:1095D600A3A3E05401FFE4FEFDFCFBFAF9F8C31275
:1095E600376E7002B2B09007E8A3A3A3E0543FFF22
:1095F600E4FEFDFCFBFAF9F8C312376E701990070A
:109606004EE0D394055010900767E020E7091262F8
:08961600AA90074EE004F022C7
:10D23A009007E81237B1000000009003D2E04410D2
:10D24A00F0E49007BEF0C2B0900767F0900771F063
:10D25A00900530F09003D6F09007D1F0900506F0D3
:10D26A009003EEF0900733F09003E0F0A3F09005FE
:10D27A00231237B10000000012ED46900760E0600B
:07D28A0005E4F012F00E2292
:10D9F7009007E8E0FCA3E0FDA3E0FEA3E02401FF1D
:10DA0700E43EFEE43DFDE43CFC9007E81237A590B8
:10DA170007E8A3A3A3E05401FFE4FEFDFCFBFAF92A
:10DA2700F8C312376E70169007E81237B10000007E
:0EDA37000012629D9003D2E054FC4402F022E3
:10D291009007E8E0FCA3E0FDA3E0FEA3E02401FF8A
:10D2A100E43EFEE43DFDE43CFC9007E81237A59026
:10D2B10007E8A3A3A3E05401FFE4FEFDFCFBFAF998
:10D2C100F8C312376E701F9007E81237B1000000E3
:10D2D10000B2B09003D2E054FC4401F09007E81290
:07D2E10037B100000000223C
:10961E00900507E0FCA3E0FDA3E0FEA3E0FF9007AA
:10962E00E8E0F8A3E0F9A3E0FAA3E0FBC312376E7B
:10963E00703B900523E0FCA3E0FDA3E0FEA3E0FF5A
:10964E00EC4D4E4F601F900523A3A3A3E024FFFF14
:10965E00EE34FFFEED34FFFDEC34FFFC90052312DB
:10966E0037A5B2B0229003D2E054FCF0229007E866
:10967E00E0FCA3E0FDA3E0FEA3E02401FFE43EFE38
:10968E00E43DFDE43CFC9007E81237A59007E8A303
:10969E00A3A3E05401FFE4FEFDFCFBFAF9F8C312AC
:1096AE00376E7002B2B09007E8A3A3A3E0543FFF59
:1096BE00E4FEFDFCFBFAF9F8C312376E7019900741
:1096CE004EE0D394055010900767E020E709126230
:0896DE00AA90074EE004F022FF
:10DA45009007E81237B1000000009003D2E04410BF
:10DA5500F054F0F0E49007BEF0C2B0900767F09084
:10DA65000771F0900530F09003D6F09007D1F09053
:10DA75000506F09003EEF0900733F09003E0F0A375
:0EDA8500F09005231237B10000000002ED46BC
:10DA93009007E8E0FCA3E0FDA3E0FEA3E02401FF80
:10DAA300E43EFEE43DFDE43CFC9007E81237A5901C
:10DAB30007E8A3A3A3E05401FFE4FEFDFCFBFAF98E
:10DAC300F8C312376E70169007E81237B1000000E2
:0EDAD3000012629D9003D2E054FC4402F02247
:10DD51009007E8E0FCA3E0FDA3E0FEA3E02401FFBF
:10DD6100E43EFEE43DFDE43CFC9007E81237A5905B
:10DD710007E8A3A3A3E05401FFE4FEFDFCFBFAF9CD
:10DD8100F8C312376E7015B2B09003D2E054FC4460
:0DDD910001F09007E81237B10000000022F9
:1096E600900507E0FCA3E0FDA3E0FEA3E0FF9007E2
:1096F600E8E0F8A3E0F9A3E0FAA3E0FBC312376EB3
:10970600703B900523E0FCA3E0FDA3E0FEA3E0FF91
:10971600EC4D4E4F601F900523A3A3A3E024FFFF4B
:10972600EE34FFFEED34FFFDEC34FFFC9005231212
:1097360037A5B2B0229003D2E054FCF0229007E89D
:10974600E0FCA3E0FDA3E0FEA3E02401FFE43EFE6F
:10975600E43DFDE43CFC9007E81237A59007E8A33A
:10976600A3A3E05401FFE4FEFDFCFBFAF9F8C312E3
:10977600376E7002B2B09007E8A3A3A3E0543FFF90
:10978600E4FEFDFCFBFAF9F8C312376E7019900778
:109796004EE0D394055010900767E020E709126267
:0897A600AA90074EE004F02236
:10E200009007E81237B1000000009003D2E04414F8
:10E21000F0E49007BEF0C2B0900767F0900771F08D
:10E22000900530F09003D6F09007D1F0900506F0FD
:10E230009003EEF0900733F09003E0F0A3F0900528
:0BE24000231237B10000000002ED4681
:10C1E3009007E8E0FCA3E0FDA3E0FEA3E02401FF49
:10C1F300E43EFEE43DFDE43CFC9007E81237A590E5
:10C2030007E8A3A3A3E05401FFE4FEFDFCFBFAF956
:10C21300F8C312376E70239007E81237B10000009D
:10C2230000B2B090074E7408F0E4900767F0126212
:0BC23300AA9003D2E054FC4402F02269
:10DD9E009007E8E0FCA3E0FDA3E0FEA3E02401FF72
:10DDAE00E43EFEE43DFDE43CFC9007E81237A5900E
:10DDBE0007E8A3A3A3E05401FFE4FEFDFCFBFAF980
:10DDCE00F8C312376E7015B2B09003D2E054FC4413
:0DDDDE0001F09007E81237B10000000022AC
:1097AE00900507E0FCA3E0FDA3E0FEA3E0FF900719
:1097BE00E8E0F8A3E0F9A3E0FAA3E0FBC312376EEA
:1097CE00703B900523E0FCA3E0FDA3E0FEA3E0FFC9
:1097DE00EC4D4E4F601F900523A3A3A3E024FFFF83
:1097EE00EE34FFFEED34FFFDEC34FFFC900523124A
:1097FE0037A5B2B0229003D2E054FCF0229007E8D5
:10980E00E0FCA3E0FDA3E0FEA3E02401FFE43EFEA6
:10981E00E43DFDE43CFC9007E81237A59007E8A371
:10982E00A3A3E05401FFE4FEFDFCFBFAF9F8C3121A
:10983E00376E7002B2B09007E8A3A3A3E0543FFFC7
:10984E00E4FEFDFCFBFAF9F8C312376E70199007AF
:10985E004EE0D394055010900767E020E70912629E
:08986E00AA90074EE004F0226D
:10E24B009007E81237B1000000009003D2E04410B1
:10E25B00F0E49007BEF0C2B0900767F0900771F042
:10E26B00900530F09003D6F09007D1F0900506F0B2
:10E27B009003EEF0900733F09003E0F0A3F09005DD
:0BE28B00231237B10000000002ED4636
:0BF4E8009007E81237B100000000227E
:08F50E009003D2E054FCF0224E
:08F516009003D2E054FCF02246
:08F51E009003D2E054FCF0223E
:10F2E200E49007BEF09003D2E004F09004F81237E5
:08F2F200B10000000002F3F27C
:10DDEB009004F8E0FCA3E0FDA3E0FEA3E02401FF18
:10DDFB00E43EFEE43DFDE43CFC9004F81237A5E460
:10DE0B007F3EFEFDFC9004F8E0F8A3E0F9A3E0FAF6
:10DE1B00A3E0FBC312376E70139004F81237B100F6
:0DDE2B000000009003D2E004F012F34A2240
:10C8F4009004F8E0FCA3E0FDA3E0FEA3E02401FF24
:10C90400E43EFEE43DFDE43CFC9004F81237A590BF
:10C9140004F8A3A3A3E05401FFE4FEFDFCFBFAF931
:10C92400F8C312376E70209004F81237B10000007B
:10C9340000B2B09003D2E004F0E4900506F0900752
:08C9440071F09007BE04F0221F
:10D6D9009004F8E0FCA3E0FDA3E0FEA3E02401FF31
:10D6E900E43EFEE43DFDE43CFC9004F81237A590CD
:10D6F90004F8A3A3A3E05401FFE4FEFDFCFBFAF93F
:10D70900F8C312376E700C9004F81237B10000009C
:10D7190000B2B0900767E030E3067480F012800C25
:01D7290022DD
:10DAE1009004F8E0FCA3E0FDA3E0FEA3E02401FF25
:10DAF100E43EFEE43DFDE43CFC9004F81237A590C1
:10DB010004F8A3A3A3E05401FFE4FEFDFCFBFAF932
:10DB1100F8C312376E70169004F81237B100000086
:0EDB21000012629D9003D2E054FC4402F022F8
:10D2E8009004F8E0FCA3E0FDA3E0FEA3E02401FF26
:10D2F800E43EFEE43DFDE43CFC9004F81237A590C2
:10D3080004F8A3A3A3E05401FFE4FEFDFCFBFAF933
:10D31800F8C312376E701F9004F81237B10000007E
:10D3280000B2B09004F81237B1000000009003D2A8
:07D33800E054FC4401F02267
:10987600900507E0FCA3E0FDA3E0FEA3E0FF900453
:10988600F8E0F8A3E0F9A3E0FAA3E0FBC312376E11
:10989600703B900523E0FCA3E0FDA3E0FEA3E0FF00
:1098A600EC4D4E4F601F900523A3A3A3E024FFFFBA
:1098B600EE34FFFEED34FFFDEC34FFFC9005231281
:1098C60037A5B2B0229003D2E054FCF0229004F8FF
:1098D600E0FCA3E0FDA3E0FEA3E02401FFE43EFEDE
:1098E600E43DFDE43CFC9004F81237A59004F8A38F
:1098F600A3A3E05401FFE4FEFDFCFBFAF9F8C31252
:10990600376E7002B2B09004F8A3A3A3E0543FFFF1
:10991600E4FEFDFCFBFAF9F8C312376E70199007E6
:109926004EE0D394055010900767E020E7091262D5
:08993600AA90074EE004F022A4
:10E296009004F81237B1000000009003D2E0440465
:10E2A600F0E49007BEF0C2B0900767F0900771F0F7
:10E2B600900530F09003D6F09007D1F0900506F067
:10E2C6009003EEF0900733F09003E0F0A3F0900592
:0BE2D600231237B10000000002ED46EB
:10200E009004F81237B1000000009007E81237B1C3
:05201E0000000000229B
:08F526009003D2E054FCF02236
:08F52E009003D2E054FCF0222E
:08F536009003D2E054FCF02226
:10E9860012203E90050CE0FCA3E0FDA3E0FEA3E010
:10E99600FF90052CE0F8A3E0F9A3E0FAA3E0FBC39F
:10E9A60012376E40169003D2E004F090052C123711
:0CE9B600B10000000012F3F212F357222F
:10A9C60090052CE0FCA3E0FDA3E0FEA3E02401FF3C
:10A9D600E43EFEE43DFDE43CFC90052C1237A590D8
:10A9E600052CA3A3A3E05401FFE4FEFDFCFBFAF94A
:10A9F600F8C312376E700EB2B0900506F09007716C
:10AA0600F09007BEF0E47F30FEFDFC90052CE0F8E8
:10AA1600A3E0F9A3E0FAA3E0FBC312376E7010902F
:10AA2600052C1237B1000000009003D2E004F0229A
:10C94C0090052CE0FCA3E0FDA3E0FEA3E02401FF96
:10C95C00E43EFEE43DFDE43CFC90052C1237A59032
:10C96C00052CA3A3A3E05401FFE4FEFDFCFBFAF9A4
:10C97C00F8C312376E702090052C1237B1000000EE
:10C98C0000B2B09003D2E004F0E4900506F09007FA
:08C99C0071F09007BE04F022C7
:10D3ED0090052CE0FCA3E0FDA3E0FEA3E02401FFEB
:10D3FD00E43EFEE43DFDE43CFC90052C1237A59087
:10D40D00052CA3A3A3E05401FFE4FEFDFCFBFAF9F8
:10D41D00F8C312376E700C90052C1237B100000056
:10D42D0000B2B0900767E030E3097480F012800C11
:04D43D001220622235
:10E9C20012203E90050CE0FCA3E0FDA3E0FEA3E0D4
:10E9D200FF90052CE0F8A3E0F9A3E0FAA3E0FBC363
:10E9E20012376E40169003D2E004F090052C1237D5
:0CE9F200B10000000012F3F212F35722F3
:10AA360090052CE0FCA3E0FDA3E0FEA3E02401FFCB
:10AA4600E43EFEE43DFDE43CFC90052C1237A59067
:10AA5600052CA3A3A3E05401FFE4FEFDFCFBFAF9D9
:10AA6600F8C312376E700EB2B0900506F0900771FB
:10AA7600F09007BEF0E47F30FEFDFC90052CE0F878
:10AA8600A3E0F9A3E0FAA3E0FBC312376E701090BF
:10AA9600052C1237B1000000009003D2E004F0222A
:10C9A40090052CE0FCA3E0FDA3E0FEA3E02401FF3E
:10C9B400E43EFEE43DFDE43CFC90052C1237A590DA
:10C9C400052CA3A3A3E05401FFE4FEFDFCFBFAF94C
:10C9D400F8C312376E702090052C1237B100000096
:10C9E40000B2B09003D2E004F0E4900506F09007A2
:08C9F40071F09007BE04F0226F
:10C23E0090052CE0FCA3E0FDA3E0FEA3E02401FFAB
:10C24E00E43EFEE43DFDE43CFC90052C1237A59047
:10C25E0003D2E054F3F090052CA3A3A3E05401FF06
:10C26E00E4FEFDFCFBFAF9F8C312376E700C900574
:10C27E002C1237B100000000B2B0900767E030E337
:0BC28E00097480F012800C1220622264
:10E9FE0012203E90050CE0FCA3E0FDA3E0FEA3E098
:10EA0E00FF90052CE0F8A3E0F9A3E0FAA3E0FBC326
:10EA1E0012376E40169003D2E004F090052C123798
:0CEA2E00B10000000012F3F212F35722B6
:10AAA60090052CE0FCA3E0FDA3E0FEA3E02401FF5B
:10AAB600E43EFEE43DFDE43CFC90052C1237A590F7
:10AAC600052CA3A3A3E05401FFE4FEFDFCFBFAF969
:10AAD600F8C312376E700EB2B0900506F09007718B
:10AAE600F09007BEF0E47F30FEFDFC90052CE0F808
:10AAF600A3E0F9A3E0FAA3E0FBC312376E7010904F
:10AB0600052C1237B1000000009003D2E004F022B9
:10C9FC0090052CE0FCA3E0FDA3E0FEA3E02401FFE6
:10CA0C00E43EFEE43DFDE43CFC90052C1237A59081
:10CA1C00052CA3A3A3E05401FFE4FEFDFCFBFAF9F3
:10CA2C00F8C312376E702090052C1237B10000003D
:10CA3C0000B2B09003D2E004F0E4900506F0900749
:08CA4C0071F09007BE04F02216
:10C2990090052CE0FCA3E0FDA3E0FEA3E02401FF50
:10C2A900E43EFEE43DFDE43CFC90052C1237A590EC
:10C2B90003D2E04404F090052CA3A3A3E05401FFAA
:10C2C900E4FEFDFCFBFAF9F8C312376E700C900519
:10C2D9002C1237B100000000B2B0900767E030E3DC
:0BC2E900097480F012800C1220622209
:10EA3A0012203E90050CE0FCA3E0FDA3E0FEA3E05B
:10EA4A00FF90052CE0F8A3E0F9A3E0FAA3E0FBC3EA
:10EA5A0012376E40169003D2E004F090052C12375C
:0CEA6A00B10000000012F3F212F357227A
:10AB160090052CE0FCA3E0FDA3E0FEA3E02401FFEA
:10AB2600E43EFEE43DFDE43CFC90052C1237A59086
:10AB3600052CA3A3A3E05401FFE4FEFDFCFBFAF9F8
:10AB4600F8C312376E700EB2B0900506F09007711A
:10AB5600F09007BEF0E47F30FEFDFC90052CE0F897
:10AB6600A3E0F9A3E0FAA3E0FBC312376E701090DE
:10AB7600052C1237B1000000009003D2E004F02249
:10CA540090052CE0FCA3E0FDA3E0FEA3E02401FF8D
:10CA6400E43EFEE43DFDE43CFC90052C1237A59029
:10CA7400052CA3A3A3E05401FFE4FEFDFCFBFAF99B
:10CA8400F8C312376E702090052C1237B1000000E5
:10CA940000B2B09003D2E004F0E4900506F09007F1
:08CAA40071F09007BE04F022BE
:10D4410090052CE0FCA3E0FDA3E0FEA3E02401FF96
:10D45100E43EFEE43DFDE43CFC90052C1237A59032
:10D46100052CA3A3A3E05401FFE4FEFDFCFBFAF9A4
:10D47100F8C312376E700C90052C1237B100000002
:10D4810000B2B0900767E030E3097480F012800CBD
:04D4910012206222E1
:10EA760012203E90050CE0FCA3E0FDA3E0FEA3E01F
:10EA8600FF90052CE0F8A3E0F9A3E0FAA3E0FBC3AE
:10EA960012376E40169003D2E004F090052C123720
:0CEAA600B10000000012F3F212F357223E
:10AB860090052CE0FCA3E0FDA3E0FEA3E02401FF7A
:10AB9600E43EFEE43DFDE43CFC90052C1237A59016
:10ABA600052CA3A3A3E05401FFE4FEFDFCFBFAF988
:10ABB600F8C312376E700EB2B0900506F0900771AA
:10ABC600F09007BEF0E47F30FEFDFC90052CE0F827
:10ABD600A3E0F9A3E0FAA3E0FBC312376E7010906E
:10ABE600052C1237B1000000009003D2E004F022D9
:10CAAC0090052CE0FCA3E0FDA3E0FEA3E02401FF35
:10CABC00E43EFEE43DFDE43CFC90052C1237A590D1
:10CACC00052CA3A3A3E05401FFE4FEFDFCFBFAF943
:10CADC00F8C312376E702090052C1237B10000008D
:10CAEC0000B2B09003D2E004F0E4900506F0900799
:08CAFC0071F09007BE04F02266
:10C2F40090052CE0FCA3E0FDA3E0FEA3E02401FFF5
:10C30400E43EFEE43DFDE43CFC90052C1237A59090
:10C3140003D2E054CFF090052CA3A3A3E05401FF73
:10C32400E4FEFDFCFBFAF9F8C312376E700C9005BD
:10C334002C1237B100000000B2B0900767E030E380
:0BC34400097480F012800C12206222AD
:10EAB20012203E90050CE0FCA3E0FDA3E0FEA3E0E3
:10EAC200FF90052CE0F8A3E0F9A3E0FAA3E0FBC372
:10EAD20012376E40169003D2E004F090052C1237E4
:0CEAE200B10000000012F3F212F3572202
:10ABF60090052CE0FCA3E0FDA3E0FEA3E02401FF0A
:10AC0600E43EFEE43DFDE43CFC90052C1237A590A5
:10AC1600052CA3A3A3E05401FFE4FEFDFCFBFAF917
:10AC2600F8C312376E700EB2B0900506F090077139
:10AC3600F09007BEF0E47F30FEFDFC90052CE0F8B6
:10AC4600A3E0F9A3E0FAA3E0FBC312376E701090FD
:10AC5600052C1237B1000000009003D2E004F02268
:10CB040090052CE0FCA3E0FDA3E0FEA3E02401FFDC
:10CB1400E43EFEE43DFDE43CFC90052C1237A59078
:10CB2400052CA3A3A3E05401FFE4FEFDFCFBFAF9EA
:10CB3400F8C312376E702090052C1237B100000034
:10CB440000B2B09003D2E004F0E4900506F0900740
:08CB540071F09007BE04F0220D
:10C34F0090052CE0FCA3E0FDA3E0FEA3E02401FF99
:10C35F00E43EFEE43DFDE43CFC90052C1237A59035
:10C36F0003D2E054C3F090052CA3A3A3E05401FF24
:10C37F00E4FEFDFCFBFAF9F8C312376E700C900562
:10C38F002C1237B100000000B2B0900767E030E325
:0BC39F00097480F012800C1220622252
:10EAEE0012203E90050CE0FCA3E0FDA3E0FEA3E0A7
:10EAFE00FF90052CE0F8A3E0F9A3E0FAA3E0FBC336
:10EB0E0012376E40169003D2E004F090052C1237A7
:0CEB1E00B10000000012F3F212F35722C5
:10AC660090052CE0FCA3E0FDA3E0FEA3E02401FF99
:10AC7600E43EFEE43DFDE43CFC90052C1237A59035
:10AC8600052CA3A3A3E05401FFE4FEFDFCFBFAF9A7
:10AC9600F8C312376E700EB2B0900506F0900771C9
:10ACA600F09007BEF0E47F30FEFDFC90052CE0F846
:10ACB600A3E0F9A3E0FAA3E0FBC312376E7010908D
:10ACC600052C1237B1000000009003D2E004F022F8
:10CB5C0090052CE0FCA3E0FDA3E0FEA3E02401FF84
:10CB6C00E43EFEE43DFDE43CFC90052C1237A59020
:10CB7C00052CA3A3A3E05401FFE4FEFDFCFBFAF992
:10CB8C00F8C312376E702090052C1237B1000000DC
:10CB9C0000B2B09003D2E004F0E4900506F09007E8
:08CBAC0071F09007BE04F022B5
:10B4DE0090052CE0FCA3E0FDA3E0FEA3E02401FF19
:10B4EE00E43EFEE43DFDE43CFC90052C1237A590B5
:10B4FE0003D2E04404F054CFF090052CA3A3A3E0B4
:10B50E005401FFE4FEFDFCFBFAF9F8C312376E702E
:10B51E000C90052C1237B100000000B2B0900767F6
:0EB52E00E030E3097480F012800C12206222DB
:10EB2A0012203E90050CE0FCA3E0FDA3E0FEA3E06A
:10EB3A00FF90052CE0F8A3E0F9A3E0FAA3E0FBC3F9
:10EB4A0012376E40169003D2E004F090052C12376B
:0CEB5A00B10000000012F3F212F3572289
:10ACD60090052CE0FCA3E0FDA3E0FEA3E02401FF29
:10ACE600E43EFEE43DFDE43CFC90052C1237A590C5
:10ACF600052CA3A3A3E05401FFE4FEFDFCFBFAF937
:10AD0600F8C312376E700EB2B0900506F090077158
:10AD1600F09007BEF0E47F30FEFDFC90052CE0F8D5
:10AD2600A3E0F9A3E0FAA3E0FBC312376E7010901C
:10AD3600052C1237B1000000009003D2E004F02287
:10CBB40090052CE0FCA3E0FDA3E0FEA3E02401FF2C
:10CBC400E43EFEE43DFDE43CFC90052C1237A590C8
:10CBD400052CA3A3A3E05401FFE4FEFDFCFBFAF93A
:10CBE400F8C312376E702090052C1237B100000084
:10CBF40000B2B09003D2E004F0E4900506F0900790
:08CC040071F09007BE04F0225C
:10C3AA0090052CE0FCA3E0FDA3E0FEA3E02401FF3E
:10C3BA00E43EFEE43DFDE43CFC90052C1237A590DA
:10C3CA0003D2E054CFF090052CA3A3A3E05401FFBD
:10C3DA00E4FEFDFCFBFAF9F8C312376E700C900507
:10C3EA002C1237B100000000B2B0900767E030E3CA
:0BC3FA00097480F012800C12206222F7
:10EB660012203E90050CE0FCA3E0FDA3E0FEA3E02E
:10EB7600FF90052CE0F8A3E0F9A3E0FAA3E0FBC3BD
:10EB860012376E40169003D2E004F090052C12372F
:0CEB9600B10000000012F3F212F357224D
:10AD460090052CE0FCA3E0FDA3E0FEA3E02401FFB8
:10AD5600E43EFEE43DFDE43CFC90052C1237A59054
:10AD6600052CA3A3A3E05401FFE4FEFDFCFBFAF9C6
:10AD7600F8C312376E700EB2B0900506F0900771E8
:10AD8600F09007BEF0E47F30FEFDFC90052CE0F865
:10AD9600A3E0F9A3E0FAA3E0FBC312376E701090AC
:10ADA600052C1237B1000000009003D2E004F02217
:10CC0C0090052CE0FCA3E0FDA3E0FEA3E02401FFD3
:10CC1C00E43EFEE43DFDE43CFC90052C1237A5906F
:10CC2C00052CA3A3A3E05401FFE4FEFDFCFBFAF9E1
:10CC3C00F8C312376E702090052C1237B10000002B
:10CC4C0000B2B09003D2E004F0E4900506F0900737
:08CC5C0071F09007BE04F02204
:10C4050090052CE0FCA3E0FDA3E0FEA3E02401FFE2
:10C41500E43EFEE43DFDE43CFC90052C1237A5907E
:10C4250003D2E04410F090052CA3A3A3E05401FF30
:10C43500E4FEFDFCFBFAF9F8C312376E700C9005AB
:10C445002C1237B100000000B2B0900767E030E36E
:0BC45500097480F012800C122062229B
:10EBA20012203E90050CE0FCA3E0FDA3E0FEA3E0F2
:10EBB200FF90052CE0F8A3E0F9A3E0FAA3E0FBC381
:10EBC20012376E40169003D2E004F090052C1237F3
:0CEBD200B10000000012F3F212F3572211
:10ADB60090052CE0FCA3E0FDA3E0FEA3E02401FF48
:10ADC600E43EFEE43DFDE43CFC90052C1237A590E4
:10ADD600052CA3A3A3E05401FFE4FEFDFCFBFAF956
:10ADE600F8C312376E700EB2B0900506F090077178
:10ADF600F09007BEF0E47F30FEFDFC90052CE0F8F5
:10AE0600A3E0F9A3E0FAA3E0FBC312376E7010903B
:10AE1600052C1237B1000000009003D2E004F022A6
:10CC640090052CE0FCA3E0FDA3E0FEA3E02401FF7B
:10CC7400E43EFEE43DFDE43CFC90052C1237A59017
:10CC8400052CA3A3A3E05401FFE4FEFDFCFBFAF989
:10CC9400F8C312376E702090052C1237B1000000D3
:10CCA40000B2B09003D2E004F0E4900506F09007DF
:08CCB40071F09007BE04F022AC
:10B53C0090052CE0FCA3E0FDA3E0FEA3E02401FFBA
:10B54C00E43EFEE43DFDE43CFC90052C1237A59056
:10B55C0003D2E04410F054F3F090052CA3A3A3E025
:10B56C005401FFE4FEFDFCFBFAF9F8C312376E70D0
:10B57C000C90052C1237B100000000B2B090076798
:0EB58C00E030E3097480F012800C122062227D
:10EBDE0012203E90050CE0FCA3E0FDA3E0FEA3E0B6
:10EBEE00FF90052CE0F8A3E0F9A3E0FAA3E0FBC345
:10EBFE0012376E40169003D2E004F090052C1237B7
:0CEC0E00B10000000012F3F212F35722D4
:10AE260090052CE0FCA3E0FDA3E0FEA3E02401FFD7
:10AE3600E43EFEE43DFDE43CFC90052C1237A59073
:10AE4600052CA3A3A3E05401FFE4FEFDFCFBFAF9E5
:10AE5600F8C312376E700EB2B0900506F090077107
:10AE6600F09007BEF0E47F30FEFDFC90052CE0F884
:10AE7600A3E0F9A3E0FAA3E0FBC312376E701090CB
:10AE8600052C1237B1000000009003D2E004F02236
:10CCBC0090052CE0FCA3E0FDA3E0FEA3E02401FF23
:10CCCC00E43EFEE43DFDE43CFC90052C1237A590BF
:10CCDC00052CA3A3A3E05401FFE4FEFDFCFBFAF931
:10CCEC00F8C312376E702090052C1237B10000007B
:10CCFC0000B2B09003D2E004F0E4900506F0900787
:08CD0C0071F09007BE04F02253
:10C4600090052CE0FCA3E0FDA3E0FEA3E02401FF87
:10C47000E43EFEE43DFDE43CFC90052C1237A59023
:10C4800003D2E04414F090052CA3A3A3E05401FFD1
:10C49000E4FEFDFCFBFAF9F8C312376E700C900550
:10C4A0002C1237B100000000B2B0900767E030E313
:0BC4B000097480F012800C1220622240
:10EC1A0012203E90050CE0FCA3E0FDA3E0FEA3E079
:10EC2A00FF90052CE0F8A3E0F9A3E0FAA3E0FBC308
:10EC3A0012376E40169003D2E004F090052C12377A
:0CEC4A00B10000000012F3F212F3572298
:10AE960090052CE0FCA3E0FDA3E0FEA3E02401FF67
:10AEA600E43EFEE43DFDE43CFC90052C1237A59003
:10AEB600052CA3A3A3E05401FFE4FEFDFCFBFAF975
:10AEC600F8C312376E700EB2B0900506F090077197
:10AED600F09007BEF0E47F30FEFDFC90052CE0F814
:10AEE600A3E0F9A3E0FAA3E0FBC312376E7010905B
:10AEF600052C1237B1000000009003D2E004F022C6
:10CD140090052CE0FCA3E0FDA3E0FEA3E02401FFCA
:10CD2400E43EFEE43DFDE43CFC90052C1237A59066
:10CD3400052CA3A3A3E05401FFE4FEFDFCFBFAF9D8
:10CD4400F8C312376E702090052C1237B100000022
:10CD540000B2B09003D2E004F0E4900506F090072E
:08CD640071F09007BE04F022FB
:10C4BB0090052CE0FCA3E0FDA3E0FEA3E02401FF2C
:10C4CB00E43EFEE43DFDE43CFC90052C1237A590C8
:10C4DB0003D2E04410F090052CA3A3A3E05401FF7A
:10C4EB00E4FEFDFCFBFAF9F8C312376E700C9005F5
:10C4FB002C1237B100000000B2B0900767E030E3B8
:0BC50B00097480F012800C12206222E4
:10EC560012203E90050CE0FCA3E0FDA3E0FEA3E03D
:10EC6600FF90052CE0F8A3E0F9A3E0FAA3E0FBC3CC
:10EC760012376E40169003D2E004F090052C12373E
:0CEC8600B10000000012F3F212F357225C
:10AF060090052CE0FCA3E0FDA3E0FEA3E02401FFF6
:10AF1600E43EFEE43DFDE43CFC90052C1237A59092
:10AF2600052CA3A3A3E05401FFE4FEFDFCFBFAF904
:10AF3600F8C312376E700EB2B0900506F090077126
:10AF4600F09007BEF0E47F30FEFDFC90052CE0F8A3
:10AF5600A3E0F9A3E0FAA3E0FBC312376E701090EA
:10AF6600052C1237B1000000009003D2E004F02255
:10CD6C0090052CE0FCA3E0FDA3E0FEA3E02401FF72
:10CD7C00E43EFEE43DFDE43CFC90052C1237A5900E
:10CD8C00052CA3A3A3E05401FFE4FEFDFCFBFAF980
:10CD9C00F8C312376E702090052C1237B1000000CA
:10CDAC0000B2B09003D2E004F0E4900506F09007D6
:08CDBC0071F09007BE04F022A3
:10D4950090052CE0FCA3E0FDA3E0FEA3E02401FF42
:10D4A500E43EFEE43DFDE43CFC90052C1237A590DE
:10D4B500052CA3A3A3E05401FFE4FEFDFCFBFAF950
:10D4C500F8C312376E700C90052C1237B1000000AE
:10D4D50000B2B0900767E030E3097480F012800C69
:04D4E500122062228D
:10EC920012203E90050CE0FCA3E0FDA3E0FEA3E001
:10ECA200FF90052CE0F8A3E0F9A3E0FAA3E0FBC390
:10ECB20012376E40169003D2E004F090052C123702
:0CECC200B10000000012F3F212F3572220
:10AF760090052CE0FCA3E0FDA3E0FEA3E02401FF86
:10AF8600E43EFEE43DFDE43CFC90052C1237A59022
:10AF9600052CA3A3A3E05401FFE4FEFDFCFBFAF994
:10AFA600F8C312376E700EB2B0900506F0900771B6
:10AFB600F09007BEF0E47F30FEFDFC90052CE0F833
:10AFC600A3E0F9A3E0FAA3E0FBC312376E7010907A
:10AFD600052C1237B1000000009003D2E004F022E5
:10CDC40090052CE0FCA3E0FDA3E0FEA3E02401FF1A
:10CDD400E43EFEE43DFDE43CFC90052C1237A590B6
:10CDE400052CA3A3A3E05401FFE4FEFDFCFBFAF928
:10CDF400F8C312376E702090052C1237B100000072
:10CE040000B2B09003D2E004F0E4900506F090077D
:08CE140071F09007BE04F0224A
:10C5160090052CE0FCA3E0FDA3E0FEA3E02401FFD0
:10C52600E43EFEE43DFDE43CFC90052C1237A5906C
:10C5360003D2E054F3F090052CA3A3A3E05401FF2B
:10C54600E4FEFDFCFBFAF9F8C312376E700C900599
:10C556002C1237B100000000B2B0900767E030E35C
:0BC56600097480F012800C1220622289
:10ECCE0012203E90050CE0FCA3E0FDA3E0FEA3E0C5
:10ECDE00FF90052CE0F8A3E0F9A3E0FAA3E0FBC354
:10ECEE0012376E40169003D2E004F090052C1237C6
:0CECFE00B10000000012F3F212F35722E4
:10AFE60090052CE0FCA3E0FDA3E0FEA3E02401FF16
:10AFF600E43EFEE43DFDE43CFC90052C1237A590B2
:10B00600052CA3A3A3E05401FFE4FEFDFCFBFAF923
:10B01600F8C312376E700EB2B0900506F090077145
:10B02600F09007BEF0E47F30FEFDFC90052CE0F8C2
:10B03600A3E0F9A3E0FAA3E0FBC312376E70109009
:10B04600052C1237B1000000009003D2E004F02274
:10CE1C0090052CE0FCA3E0FDA3E0FEA3E02401FFC1
:10CE2C00E43EFEE43DFDE43CFC90052C1237A5905D
:10CE3C00052CA3A3A3E05401FFE4FEFDFCFBFAF9CF
:10CE4C00F8C312376E702090052C1237B100000019
:10CE5C0000B2B09003D2E004F0E4900506F0900725
:08CE6C0071F09007BE04F022F2
:10C5710090052CE0FCA3E0FDA3E0FEA3E02401FF75
:10C58100E43EFEE43DFDE43CFC90052C1237A59011
:10C5910003D2E04404F090052CA3A3A3E05401FFCF
:10C5A100E4FEFDFCFBFAF9F8C312376E700C90053E
:10C5B1002C1237B100000000B2B0900767E030E301
:0BC5C100097480F012800C122062222E
:10ED0A0012203E90050CE0FCA3E0FDA3E0FEA3E088
:10ED1A00FF90052CE0F8A3E0F9A3E0FAA3E0FBC317
:10ED2A0012376E40169003D2E004F090052C123789
:0CED3A00B10000000012F3F212F35722A7
:10B0560090052CE0FCA3E0FDA3E0FEA3E02401FFA5
:10B06600E43EFEE43DFDE43CFC90052C1237A59041
:10B07600052CA3A3A3E05401FFE4FEFDFCFBFAF9B3
:10B08600F8C312376E700EB2B0900506F0900771D5
:10B09600F09007BEF0E47F30FEFDFC90052CE0F852
:10B0A600A3E0F9A3E0FAA3E0FBC312376E70109099
:10B0B600052C1237B1000000009003D2E004F02204
:10CE740090052CE0FCA3E0FDA3E0FEA3E02401FF69
:10CE8400E43EFEE43DFDE43CFC90052C1237A59005
:10CE9400052CA3A3A3E05401FFE4FEFDFCFBFAF977
:10CEA400F8C312376E702090052C1237B1000000C1
:10CEB40000B2B09003D2E004F0E4900506F09007CD
:08CEC40071F09007BE04F0229A
:10D4E90090052CE0FCA3E0FDA3E0FEA3E02401FFEE
:10D4F900E43EFEE43DFDE43CFC90052C1237A5908A
:10D50900052CA3A3A3E05401FFE4FEFDFCFBFAF9FB
:10D51900F8C312376E700C90052C1237B100000059
:10D5290000B2B0900767E030E3097480F012800C14
:04D539001220622238
:10B5F80090052CE0FCA3E0FDA3E0FEA3E02401FFFE
:10B60800E43EFEE43DFDE43CFC90052C1237A59099
:10B61800052CA3A3A3E05401FFE4FEFDFCFBFAF90B
:10B62800F8C312376E702590052C1237B100000050
:10B63800009007DFE030E705122062800312F0B9BE
:0DB6480012629D9003D2E054FC4402F022F7
:10BBC80090052CE0FCA3E0FDA3E0FEA3E02401FF28
:10BBD800E43EFEE43DFDE43CFC90052C1237A590C4
:10BBE800052CA3A3A3E05401FFE4FEFDFCFBFAF936
:10BBF800F8C312376E702490052C1237B10000007C
:10BC0800009007DFE030E705122062800312F0B9E8
:0CBC1800B2B09003D2E054FC4401F022D2
:10810E00900507E0FCA3E0FDA3E0FEA3E0FF9005D1
:10811E002CE0F8A3E0F9A3E0FAA3E0FBC312376E5C
:10812E007065900523E0FCA3E0FDA3E0FEA3E0FF55
:10813E00EC4D4E4F6049900523A3A3A3E024FFFF0F
:10814E00EE34FFFEED34FFFDEC34FFFC9005231200
:10815E0037A5900523A3A3A3E05401FFE4FEFDFC85
:10816E00FBFAF9F8C312376E600302820E9007DF36
:10817E00E030E705122062800312F0B9B2B022900F
:10818E0003D2E054FCF02290052CE0FCA3E0FDA30A
:10819E00E0FEA3E02401FFE43EFEE43DFDE43CFCF2
:1081AE0090052C1237A590052CA3A3A3E05401FF34
:1081BE00E4FEFDFCFBFAF9F8C312376E701190075E
:1081CE00DFE030E705122062800312F0B9B2B09002
:1081DE00052CA3A3A3E0543FFFE4FEFDFCFBFAF93C
:1081EE00F8C312376E701990074EE0D394055010F5
:1081FE00900767E020E7091262AA90074EE004F0AC
:01820E00224D
:10DE380090052C1237B10000000012F0ABE49007F7
:10DE480067F0900771F0900530F09003D6F09007D6
:10DE5800D1F0900506F09003EEF0900733F09003B0
:10DE6800E0F0A3F09005231237B10000000012ED96
:0DDE780046900760E06005E4F012F00E2215
:10B6550090052CE0FCA3E0FDA3E0FEA3E02401FFA0
:10B66500E43EFEE43DFDE43CFC90052C1237A5903C
:10B67500052CA3A3A3E05401FFE4FEFDFCFBFAF9AE
:10B68500F8C312376E702590052C1237B1000000F3
:10B69500009007DFE030E705122062800312F0B961
:0DB6A50012629D9003D2E054FC4402F0229A
:10BC240090052CE0FCA3E0FDA3E0FEA3E02401FFCB
:10BC3400E43EFEE43DFDE43CFC90052C1237A59067
:10BC4400052CA3A3A3E05401FFE4FEFDFCFBFAF9D9
:10BC5400F8C312376E702490052C1237B10000001F
:10BC6400009007DFE030E705122062800312F0B98C
:0CBC7400B2B09003D2E054FC4401F02276
:10820F00900507E0FCA3E0FDA3E0FEA3E0FF9005CF
:10821F002CE0F8A3E0F9A3E0FAA3E0FBC312376E5A
:10822F007065900523E0FCA3E0FDA3E0FEA3E0FF53
:10823F00EC4D4E4F6049900523A3A3A3E024FFFF0D
:10824F00EE34FFFEED34FFFDEC34FFFC90052312FE
:10825F0037A5900523A3A3A3E05401FFE4FEFDFC83
:10826F00FBFAF9F8C312376E600302830F9007DF32
:10827F00E030E705122062800312F0B9B2B022900D
:10828F0003D2E054FCF02290052CE0FCA3E0FDA308
:10829F00E0FEA3E02401FFE43EFEE43DFDE43CFCF0
:1082AF0090052C1237A590052CA3A3A3E05401FF32
:1082BF00E4FEFDFCFBFAF9F8C312376E701190075C
:1082CF00DFE030E705122062800312F0B9B2B09000
:1082DF00052CA3A3A3E0543FFFE4FEFDFCFBFAF93A
:1082EF00F8C312376E701990074EE0D394055010F3
:1082FF00900767E020E7091262AA90074EE004F0AA
:01830F00224B
:10E4580090052C1237B1000000009003D2E0444030
:10E46800F054F012F0B1E4900767F0900771F09063
:10E478000530F09003D6F09007D1F0900506F090A3
:10E4880003EEF0900733F09003E0F0A3F09005233B
:0AE498001237B10000000002ED464B
:10B6B20090052CE0FCA3E0FDA3E0FEA3E02401FF43
:10B6C200E43EFEE43DFDE43CFC90052C1237A590DF
:10B6D200052CA3A3A3E05401FFE4FEFDFCFBFAF951
:10B6E200F8C312376E702590052C1237B100000096
:10B6F200009007DFE030E705122062800312F0B904
:0DB7020012629D9003D2E054FC4402F0223C
:10BC800090052CE0FCA3E0FDA3E0FEA3E02401FF6F
:10BC9000E43EFEE43DFDE43CFC90052C1237A5900B
:10BCA000052CA3A3A3E05401FFE4FEFDFCFBFAF97D
:10BCB000F8C312376E702490052C1237B1000000C3
:10BCC000009007DFE030E705122062800312F0B930
:0CBCD000B2B09003D2E054FC4401F0221A
:10831000900507E0FCA3E0FDA3E0FEA3E0FF9005CD
:108320002CE0F8A3E0F9A3E0FAA3E0FBC312376E58
:108330007065900523E0FCA3E0FDA3E0FEA3E0FF51
:10834000EC4D4E4F6049900523A3A3A3E024FFFF0B
:10835000EE34FFFEED34FFFDEC34FFFC90052312FC
:1083600037A5900523A3A3A3E05401FFE4FEFDFC81
:10837000FBFAF9F8C312376E60030284109007DF2E
:10838000E030E705122062800312F0B9B2B022900B
:1083900003D2E054FCF02290052CE0FCA3E0FDA306
:1083A000E0FEA3E02401FFE43EFEE43DFDE43CFCEE
:1083B00090052C1237A590052CA3A3A3E05401FF30
:1083C000E4FEFDFCFBFAF9F8C312376E701190075A
:1083D000DFE030E705122062800312F0B9B2B090FE
:1083E000052CA3A3A3E0543FFFE4FEFDFCFBFAF938
:1083F000F8C312376E701990074EE0D394055010F1
:10840000900767E020E7091262AA90074EE004F0A7
:018410002249
:10E6130090052C1237B1000000009003D2E044446F
:10E6230012F0B1E4900767F0900771F0900530F0B5
:10E633009003D6F09007D1F0900506F09003EEF02A
:10E64300900733F09003E0F0A3F09005231237B165
:07E653000000000002ED468B
:10B70F0090052CE0FCA3E0FDA3E0FEA3E02401FFE5
:10B71F00E43EFEE43DFDE43CFC90052C1237A59081
:10B72F00052CA3A3A3E05401FFE4FEFDFCFBFAF9F3
:10B73F00F8C312376E702590052C1237B100000038
:10B74F00009007DFE030E705122062800312F0B9A6
:0DB75F0012629D9003D2E054FC4402F022DF
:10BCDC0090052CE0FCA3E0FDA3E0FEA3E02401FF13
:10BCEC00E43EFEE43DFDE43CFC90052C1237A590AF
:10BCFC00052CA3A3A3E05401FFE4FEFDFCFBFAF921
:10BD0C00F8C312376E702490052C1237B100000066
:10BD1C00009007DFE030E705122062800312F0B9D3
:0CBD2C00B2B09003D2E054FC4401F022BD
:10841100900507E0FCA3E0FDA3E0FEA3E0FF9005CB
:108421002CE0F8A3E0F9A3E0FAA3E0FBC312376E56
:108431007065900523E0FCA3E0FDA3E0FEA3E0FF4F
:10844100EC4D4E4F6049900523A3A3A3E024FFFF09
:10845100EE34FFFEED34FFFDEC34FFFC90052312FA
:1084610037A5900523A3A3A3E05401FFE4FEFDFC7F
:10847100FBFAF9F8C312376E60030285119007DF2A
:10848100E030E705122062800312F0B9B2B0229009
:1084910003D2E054FCF02290052CE0FCA3E0FDA304
:1084A100E0FEA3E02401FFE43EFEE43DFDE43CFCEC
:1084B10090052C1237A590052CA3A3A3E05401FF2E
:1084C100E4FEFDFCFBFAF9F8C312376E7011900758
:1084D100DFE030E705122062800312F0B9B2B090FC
:1084E100052CA3A3A3E0543FFFE4FEFDFCFBFAF936
:1084F100F8C312376E701990074EE0D394055010EF
:10850100900767E020E7091262AA90074EE004F0A5
:018511002247
:10E8870090052C1237B10000000012F0ABE490079E
:10E8970067F0900771F0900530F09003D6F090077D
:10E8A700D1F0900506F09003EEF0900733F0900357
:10E8B700E0F0A3F09005231237B10000000002ED4D
:01E8C700460A
:10B76C0090052CE0FCA3E0FDA3E0FEA3E02401FF88
:10B77C00E43EFEE43DFDE43CFC90052C1237A59024
:10B78C00052CA3A3A3E05401FFE4FEFDFCFBFAF996
:10B79C00F8C312376E702590052C1237B1000000DB
:10B7AC00009007DFE030E705122062800312F0B949
:0DB7BC0012629D9003D2E054FC4402F02282
:10BD380090052CE0FCA3E0FDA3E0FEA3E02401FFB6
:10BD4800E43EFEE43DFDE43CFC90052C1237A59052
:10BD5800052CA3A3A3E05401FFE4FEFDFCFBFAF9C4
:10BD6800F8C312376E702490052C1237B10000000A
:10BD7800009007DFE030E705122062800312F0B977
:0CBD8800B2B09003D2E054FC4401F02261
:10851200900507E0FCA3E0FDA3E0FEA3E0FF9005C9
:108522002CE0F8A3E0F9A3E0FAA3E0FBC312376E54
:108532007065900523E0FCA3E0FDA3E0FEA3E0FF4D
:10854200EC4D4E4F6049900523A3A3A3E024FFFF07
:10855200EE34FFFEED34FFFDEC34FFFC90052312F8
:1085620037A5900523A3A3A3E05401FFE4FEFDFC7D
:10857200FBFAF9F8C312376E60030286129007DF26
:10858200E030E705122062800312F0B9B2B0229007
:1085920003D2E054FCF02290052CE0FCA3E0FDA302
:1085A200E0FEA3E02401FFE43EFEE43DFDE43CFCEA
:1085B20090052C1237A590052CA3A3A3E05401FF2C
:1085C200E4FEFDFCFBFAF9F8C312376E7011900756
:1085D200DFE030E705122062800312F0B9B2B090FA
:1085E200052CA3A3A3E0543FFFE4FEFDFCFBFAF934
:1085F200F8C312376E701990074EE0D394055010ED
:10860200900767E020E7091262AA90074EE004F0A3
:018612002245
:10E4A20090052C1237B1000000009003D2E04440E6
:10E4B200F054C012F0B1E4900767F0900771F09049
:10E4C2000530F09003D6F09007D1F0900506F09059
:10E4D20003EEF0900733F09003E0F0A3F0900523F1
:0AE4E2001237B10000000002ED4601
:10B7C90090052CE0FCA3E0FDA3E0FEA3E02401FF2B
:10B7D900E43EFEE43DFDE43CFC90052C1237A590C7
:10B7E900052CA3A3A3E05401FFE4FEFDFCFBFAF939
:10B7F900F8C312376E702590052C1237B10000007E
:10B80900009007DFE030E705122062800312F0B9EB
:0DB8190012629D9003D2E054FC4402F02224
:10BD940090052CE0FCA3E0FDA3E0FEA3E02401FF5A
:10BDA400E43EFEE43DFDE43CFC90052C1237A590F6
:10BDB400052CA3A3A3E05401FFE4FEFDFCFBFAF968
:10BDC400F8C312376E702490052C1237B1000000AE
:10BDD400009007DFE030E705122062800312F0B91B
:0CBDE400B2B09003D2E054FC4401F02205
:10861300900507E0FCA3E0FDA3E0FEA3E0FF9005C7
:108623002CE0F8A3E0F9A3E0FAA3E0FBC312376E52
:108633007065900523E0FCA3E0FDA3E0FEA3E0FF4B
:10864300EC4D4E4F6049900523A3A3A3E024FFFF05
:10865300EE34FFFEED34FFFDEC34FFFC90052312F6
:1086630037A5900523A3A3A3E05401FFE4FEFDFC7B
:10867300FBFAF9F8C312376E60030287139007DF22
:10868300E030E705122062800312F0B9B2B0229005
:1086930003D2E054FCF02290052CE0FCA3E0FDA300
:1086A300E0FEA3E02401FFE43EFEE43DFDE43CFCE8
:1086B30090052C1237A590052CA3A3A3E05401FF2A
:1086C300E4FEFDFCFBFAF9F8C312376E7011900754
:1086D300DFE030E705122062800312F0B9B2B090F8
:1086E300052CA3A3A3E0543FFFE4FEFDFCFBFAF932
:1086F300F8C312376E701990074EE0D394055010EB
:10870300900767E020E7091262AA90074EE004F0A1
:018713002243
:10E4EC0090052C1237B1000000009003D2E044409C
:10E4FC00F054C012F0B1E4900767F0900771F090FF
:10E50C000530F09003D6F09007D1F0900506F0900E
:10E51C0003EEF0900733F09003E0F0A3F0900523A6
:0AE52C001237B10000000002ED46B6
:10B8260090052CE0FCA3E0FDA3E0FEA3E02401FFCD
:10B83600E43EFEE43DFDE43CFC90052C1237A59069
:10B84600052CA3A3A3E05401FFE4FEFDFCFBFAF9DB
:10B85600F8C312376E702590052C1237B100000020
:10B86600009007DFE030E705122062800312F0B98E
:0DB8760012629D9003D2E054FC4402F022C7
:10BDF00090052CE0FCA3E0FDA3E0FEA3E02401FFFE
:10BE0000E43EFEE43DFDE43CFC90052C1237A59099
:10BE1000052CA3A3A3E05401FFE4FEFDFCFBFAF90B
:10BE2000F8C312376E702490052C1237B100000051
:10BE3000009007DFE030E705122062800312F0B9BE
:0CBE4000B2B09003D2E054FC4401F022A8
:10871400900507E0FCA3E0FDA3E0FEA3E0FF9005C5
:108724002CE0F8A3E0F9A3E0FAA3E0FBC312376E50
:108734007065900523E0FCA3E0FDA3E0FEA3E0FF49
:10874400EC4D4E4F6049900523A3A3A3E024FFFF03
:10875400EE34FFFEED34FFFDEC34FFFC90052312F4
:1087640037A5900523A3A3A3E05401FFE4FEFDFC79
:10877400FBFAF9F8C312376E60030288149007DF1E
:10878400E030E705122062800312F0B9B2B0229003
:1087940003D2E054FCF02290052CE0FCA3E0FDA3FE
:1087A400E0FEA3E02401FFE43EFEE43DFDE43CFCE6
:1087B40090052C1237A590052CA3A3A3E05401FF28
:1087C400E4FEFDFCFBFAF9F8C312376E7011900752
:1087D400DFE030E705122062800312F0B9B2B090F6
:1087E400052CA3A3A3E0543FFFE4FEFDFCFBFAF930
:1087F400F8C312376E701990074EE0D394055010E9
:10880400900767E020E7091262AA90074EE004F09F
:018814002241
:10B59A0090052C1237B1000000009003D2E0444419
:10B5AA00F054CCF0E49007BEF0C2B09007DFE03070
:10B5BA00E705122062800312F0B9E4900767F09061
:10B5CA000771F0900530F09003D6F09007D1F09013
:10B5DA000506F09003EEF0900733F09003E0F0A335
:0EB5EA00F09005231237B10000000002ED467C
:10B8830090052CE0FCA3E0FDA3E0FEA3E02401FF70
:10B89300E43EFEE43DFDE43CFC90052C1237A5900C
:10B8A300052CA3A3A3E05401FFE4FEFDFCFBFAF97E
:10B8B300F8C312376E702590052C1237B1000000C3
:10B8C300009007DFE030E705122062800312F0B931
:0DB8D30012629D9003D2E054FC4402F0226A
:10BE4C0090052CE0FCA3E0FDA3E0FEA3E02401FFA1
:10BE5C00E43EFEE43DFDE43CFC90052C1237A5903D
:10BE6C00052CA3A3A3E05401FFE4FEFDFCFBFAF9AF
:10BE7C00F8C312376E702490052C1237B1000000F5
:10BE8C00009007DFE030E705122062800312F0B962
:0CBE9C00B2B09003D2E054FC4401F0224C
:10881500900507E0FCA3E0FDA3E0FEA3E0FF9005C3
:108825002CE0F8A3E0F9A3E0FAA3E0FBC312376E4E
:108835007065900523E0FCA3E0FDA3E0FEA3E0FF47
:10884500EC4D4E4F6049900523A3A3A3E024FFFF01
:10885500EE34FFFEED34FFFDEC34FFFC90052312F2
:1088650037A5900523A3A3A3E05401FFE4FEFDFC77
:10887500FBFAF9F8C312376E60030289159007DF1A
:10888500E030E705122062800312F0B9B2B0229001
:1088950003D2E054FCF02290052CE0FCA3E0FDA3FC
:1088A500E0FEA3E02401FFE43EFEE43DFDE43CFCE4
:1088B50090052C1237A590052CA3A3A3E05401FF26
:1088C500E4FEFDFCFBFAF9F8C312376E7011900750
:1088D500DFE030E705122062800312F0B9B2B090F4
:1088E500052CA3A3A3E0543FFFE4FEFDFCFBFAF92E
:1088F500F8C312376E701990074EE0D394055010E7
:10890500900767E020E7091262AA90074EE004F09D
:01891500223F
:10E5360090052C1237B1000000009003D2E0444051
:10E54600F054CC12F0B1E4900767F0900771F090A8
:10E556000530F09003D6F09007D1F0900506F090C4
:10E5660003EEF0900733F09003E0F0A3F09005235C
:0AE576001237B10000000002ED466C
:10B8E00090052CE0FCA3E0FDA3E0FEA3E02401FF13
:10B8F000E43EFEE43DFDE43CFC90052C1237A590AF
:10B90000052CA3A3A3E05401FFE4FEFDFCFBFAF920
:10B91000F8C312376E702590052C1237B100000065
:10B92000009007DFE030E705122062800312F0B9D3
:0DB9300012629D9003D2E054FC4402F0220C
:10BEA80090052CE0FCA3E0FDA3E0FEA3E02401FF45
:10BEB800E43EFEE43DFDE43CFC90052C1237A590E1
:10BEC800052CA3A3A3E05401FFE4FEFDFCFBFAF953
:10BED800F8C312376E702490052C1237B100000099
:10BEE800009007DFE030E705122062800312F0B906
:0CBEF800B2B09003D2E054FC4401F022F0
:10891600900507E0FCA3E0FDA3E0FEA3E0FF9005C1
:108926002CE0F8A3E0F9A3E0FAA3E0FBC312376E4C
:108936007065900523E0FCA3E0FDA3E0FEA3E0FF45
:10894600EC4D4E4F6049900523A3A3A3E024FFFFFF
:10895600EE34FFFEED34FFFDEC34FFFC90052312F0
:1089660037A5900523A3A3A3E05401FFE4FEFDFC75
:10897600FBFAF9F8C312376E6003028A169007DF16
:10898600E030E705122062800312F0B9B2B02290FF
:1089960003D2E054FCF02290052CE0FCA3E0FDA3FA
:1089A600E0FEA3E02401FFE43EFEE43DFDE43CFCE2
:1089B60090052C1237A590052CA3A3A3E05401FF24
:1089C600E4FEFDFCFBFAF9F8C312376E701190074E
:1089D600DFE030E705122062800312F0B9B2B090F2
:1089E600052CA3A3A3E0543FFFE4FEFDFCFBFAF92C
:1089F600F8C312376E701990074EE0D394055010E5
:108A0600900767E020E7091262AA90074EE004F09B
:018A1600223D
:10E7760090052C1237B1000000009003D27450129D
:10E78600F0B1E4900767F0900771F0900530F090D3
:10E7960003D6F09007D1F0900506F09003EEF090C6
:10E7A6000733F09003E0F0A3F09005231237B10091
:06E7B60000000002ED4628
:10B93D0090052CE0FCA3E0FDA3E0FEA3E02401FFB5
:10B94D00E43EFEE43DFDE43CFC90052C1237A59051
:10B95D00052CA3A3A3E05401FFE4FEFDFCFBFAF9C3
:10B96D00F8C312376E702590052C1237B100000008
:10B97D00009007DFE030E705122062800312F0B976
:0DB98D0012629D9003D2E054FC4402F022AF
:10BF040090052CE0FCA3E0FDA3E0FEA3E02401FFE8
:10BF1400E43EFEE43DFDE43CFC90052C1237A59084
:10BF2400052CA3A3A3E05401FFE4FEFDFCFBFAF9F6
:10BF3400F8C312376E702490052C1237B10000003C
:10BF4400009007DFE030E705122062800312F0B9A9
:0CBF5400B2B09003D2E054FC4401F02293
:108A1700900507E0FCA3E0FDA3E0FEA3E0FF9005BF
:108A27002CE0F8A3E0F9A3E0FAA3E0FBC312376E4A
:108A37007065900523E0FCA3E0FDA3E0FEA3E0FF43
:108A4700EC4D4E4F6049900523A3A3A3E024FFFFFD
:108A5700EE34FFFEED34FFFDEC34FFFC90052312EE
:108A670037A5900523A3A3A3E05401FFE4FEFDFC73
:108A7700FBFAF9F8C312376E6003028B179007DF12
:108A8700E030E705122062800312F0B9B2B02290FD
:108A970003D2E054FCF02290052CE0FCA3E0FDA3F8
:108AA700E0FEA3E02401FFE43EFEE43DFDE43CFCE0
:108AB70090052C1237A590052CA3A3A3E05401FF22
:108AC700E4FEFDFCFBFAF9F8C312376E701190074C
:108AD700DFE030E705122062800312F0B9B2B090F0
:108AE700052CA3A3A3E0543FFFE4FEFDFCFBFAF92A
:108AF700F8C312376E701990074EE0D394055010E3
:108B0700900767E020E7091262AA90074EE004F099
:018B1700223B
:10E5CA0090052C1237B1000000009003D27450F06D
:10E5DA0054F012F0B1E4900767F0900771F09005DB
:10E5EA0030F09003D6F09007D1F0900506F0900332
:10E5FA00EEF0900733F09003E0F0A3F090052312B9
:09E60A0037B10000000002ED46EA
:10B99A0090052CE0FCA3E0FDA3E0FEA3E02401FF58
:10B9AA00E43EFEE43DFDE43CFC90052C1237A590F4
:10B9BA00052CA3A3A3E05401FFE4FEFDFCFBFAF966
:10B9CA00F8C312376E702590052C1237B1000000AB
:10B9DA00009007DFE030E705122062800312F0B919
:0DB9EA0012629D9003D2E054FC4402F02252
:10BF600090052CE0FCA3E0FDA3E0FEA3E02401FF8C
:10BF7000E43EFEE43DFDE43CFC90052C1237A59028
:10BF8000052CA3A3A3E05401FFE4FEFDFCFBFAF99A
:10BF9000F8C312376E702490052C1237B1000000E0
:10BFA000009007DFE030E705122062800312F0B94D
:0CBFB000B2B09003D2E054FC4401F02237
:108B1800900507E0FCA3E0FDA3E0FEA3E0FF9005BD
:108B28002CE0F8A3E0F9A3E0FAA3E0FBC312376E48
:108B38007065900523E0FCA3E0FDA3E0FEA3E0FF41
:108B4800EC4D4E4F6049900523A3A3A3E024FFFFFB
:108B5800EE34FFFEED34FFFDEC34FFFC90052312EC
:108B680037A5900523A3A3A3E05401FFE4FEFDFC71
:108B7800FBFAF9F8C312376E6003028C189007DF0E
:108B8800E030E705122062800312F0B9B2B02290FB
:108B980003D2E054FCF02290052CE0FCA3E0FDA3F6
:108BA800E0FEA3E02401FFE43EFEE43DFDE43CFCDE
:108BB80090052C1237A590052CA3A3A3E05401FF20
:108BC800E4FEFDFCFBFAF9F8C312376E701190074A
:108BD800DFE030E705122062800312F0B9B2B090EE
:108BE800052CA3A3A3E0543FFFE4FEFDFCFBFAF928
:108BF800F8C312376E701990074EE0D394055010E1
:108C0800900767E020E7091262AA90074EE004F097
:018C18002239
:10E65A0090052C1237B1000000009003D2E0445418
:10E66A0012F0B1E4900767F0900771F0900530F06E
:10E67A009003D6F09007D1F0900506F09003EEF0E3
:10E68A00900733F09003E0F0A3F09005231237B11E
:07E69A000000000002ED4644
:10B9F70090052CE0FCA3E0FDA3E0FEA3E02401FFFB
:10BA0700E43EFEE43DFDE43CFC90052C1237A59096
:10BA1700052CA3A3A3E05401FFE4FEFDFCFBFAF908
:10BA2700F8C312376E702590052C1237B10000004D
:10BA3700009007DFE030E705122062800312F0B9BB
:0DBA470012629D9003D2E054FC4402F022F4
:10BFBC0090052CE0FCA3E0FDA3E0FEA3E02401FF30
:10BFCC00E43EFEE43DFDE43CFC90052C1237A590CC
:10BFDC00052CA3A3A3E05401FFE4FEFDFCFBFAF93E
:10BFEC00F8C312376E702490052C1237B100000084
:10BFFC00009007DFE030E705122062800312F0B9F1
:0CC00C00B2B09003D2E054FC4401F022DA
:108C1900900507E0FCA3E0FDA3E0FEA3E0FF9005BB
:108C29002CE0F8A3E0F9A3E0FAA3E0FBC312376E46
:108C39007065900523E0FCA3E0FDA3E0FEA3E0FF3F
:108C4900EC4D4E4F6049900523A3A3A3E024FFFFF9
:108C5900EE34FFFEED34FFFDEC34FFFC90052312EA
:108C690037A5900523A3A3A3E05401FFE4FEFDFC6F
:108C7900FBFAF9F8C312376E6003028D199007DF0A
:108C8900E030E705122062800312F0B9B2B02290F9
:108C990003D2E054FCF02290052CE0FCA3E0FDA3F4
:108CA900E0FEA3E02401FFE43EFEE43DFDE43CFCDC
:108CB90090052C1237A590052CA3A3A3E05401FF1E
:108CC900E4FEFDFCFBFAF9F8C312376E7011900748
:108CD900DFE030E705122062800312F0B9B2B090EC
:108CE900052CA3A3A3E0543FFFE4FEFDFCFBFAF926
:108CF900F8C312376E701990074EE0D394055010DF
:108D0900900767E020E7091262AA90074EE004F095
:018D19002237
:10E7BC0090052C1237B1000000009003D274501257
:10E7CC00F0B1E4900767F0900771F0900530F0908D
:10E7DC0003D6F09007D1F0900506F09003EEF09080
:10E7EC000733F09003E0F0A3F09005231237B1004B
:06E7FC0000000002ED46E2
:10BA540090052CE0FCA3E0FDA3E0FEA3E02401FF9D
:10BA6400E43EFEE43DFDE43CFC90052C1237A59039
:10BA7400052CA3A3A3E05401FFE4FEFDFCFBFAF9AB
:10BA8400F8C312376E702590052C1237B1000000F0
