:0400000500000000F7
:020000040000FA
:1000000018F09FE518F09FE518F09FE518F09FE5C0
:1000100018F09FE50000A0E120F11FE518F09FE532
:100020005400000040000000B0DE0000440000006A
:1000300048000000000000004C00000050000000DC
:10004000FEFFFFEAFEFFFFEAFEFFFFEAFEFFFFEA18
:10005000FEFFFFEAFC009FE5AA10A0E35520A0E305
:100060002030A0E3A03180E5A03190E5403013E2DC
:10007000FCFFFF0A0130A0E30C3180E50730A0E36C
:10008000843080E58C1080E58C2080E50130A0E391
:10009000803080E58C1080E58C2080E5883090E50C
:1000A000013313E2FCFFFF0A883090E5A8409FE58A
:1000B000043003E00740A0E3043033E0F9FFFF1A07
:1000C0000330A0E3043180E50330A0E3083180E58C
:1000D00088309FE5A83180E50A38A0E3AC3180E59F
:1000E0000330A0E3803080E58C1080E58C2080E533
:1000F00060009FE50410A0E3041080E50210A0E377
:10010000001080E558009FE5DBF021E300D0A0E17E
:10011000000040E2D7F021E300D0A0E1000040E27F
:10012000D1F021E300D0A0E1000040E2D2F021E3D1
:1001300000D0A0E1800040E2D3F021E300D0A0E1B4
:10014000200040E210F021E300D0A0E150A04DE2F9
:1001500010009FE510FF2FE100C01FE0FF7FFF00B0
:10016000800200A8402D00406C010000000000EA61
:10017000A23600EA28008FE2000C90E800A08AE096
:1001800000B08BE001704AE20B005AE19B36000A96
:100190000F00BAE814E04FE2010013E303F0471048
:1001A00013FF2FE134F0000054F0000001C08FE293
:1001B0001CFF2FE18A18037801305C07640F01D11E
:1001C000047801301D1101D105780130013C05D0C2
:1001D000067801300E700131013CF9D11E0706D4BA
:1001E0002E1C0ED0013E8C55FCD1491909E0047833
:1001F00001300C1B0135267801340E700131013DB0
:10020000F9D59142D7D370470030A0E30040A0E376
:100210000050A0E30060A0E3102052E27800A12883
:10022000FCFFFF8A822EB0E13000A128003081451A
:100230001EFF2FE17847C04604309FE503308FE072
:1002400013FF2FE1CDDB00000C009FE50C109FE5B4
:1002500004209FE508309FE51EFF2FE1502C004051
:10026000A02C0040502C0040C046FEE7C04670471E
:10027000102088494861704710B504000120864964
:10028000086010204914C861002009110860FFF7B8
:10029000EFFF8248006844620121804800682030F6
:1002A000417001207D49096848707C4800680EF063
:1002B00061FD7B4879490860022079494870774898
:1002C0000068406A10BC08BC1847764840680221A4
:1002D00008437449486074486F4988610320486145
:1002E0000120486071487249086105207149088001
:1002F00070477047674880691021084365498861E5
:10030000704765488068704763480068C007C00F41
:10031000704760480069102108435E4908617047D2
:1003200010B5002404E00020A100634A5050641C72
:100330000F2CF8D33022B721890060480EF050F915
:100340005F4A604960480EF04BF910BC08BC184782
:1003500010B55A4801DF10BC08BC184710B504009E
:100360005948A16A02DF2100544802DF10BC08BCD2
:10037000184700207047C0467047FFB581B00400A1
:1003800015001E0000202070012060700298A070EF
:1003900000206060A060E0602061A082E082208395
:1003A000608321200655608C002805D0618C89105F
:1003B0008900A06A471805E0434801DFA062A06AEF
:1003C0000700C837381F0700056040480090E8075D
:1003D000C00F03D02021009808430090391F0F0060
:1003E00000980860002E01D00D2000E00820009049
:1003F00006E00020391F0F0008600098401E0090A2
:1004000000980028F5D1002E03D0391F0F00E069B5
:1004100008606762E56205B0F0BC08BC18470022BE
:100420001E49096820314A701C4908600221417048
:100430002121095C012902D11E49091D08601549C5
:10044000096910221143134A1161704710B5204801
:1004500040681849091D0968884207D01D4800886E
:10046000401D1449088010BC08BC1847114800887A
:100470001849098888420CD10E480088401D0D4952
:10048000088013480EF0CAFA0400210010480EF04C
:1004900051FCE8E700F0FFFF004000E044070040A7
:1004A000DC2A0040C0C01FE05FEA000048DE000018
:1004B00000F1FFFF00000040981700406007004077
:1004C000C8000080580D0000400A004010000040A5
:1004D0003C2B00404807004003C08FE21CFF2FE187
:1004E0007047C046FEE70000F8B505000E006F1E1D
:1004F000F9007A4A881801210EF076FC78480078D5
:1005000000280DD1012076490870102275497648DF
:100510000EF066F8012803D10220F8BC08BC184789
:1005200060217943714A881860210EF095FA6021A4
:1005300079436F4A881860210EF08EFA280001F086
:1005400003FC0400002C01D02000E6E73100280065
:1005500001F041FCE1E710B50400200001F054FC7B
:1005600010BC08BC1847F7B505000E006F1E280028
:1005700001F054FC002804D13100280001F099FB5F
:100580001FE0594801DF0400002C18D00FCE0FC423
:10059000103E103C60217943544A88182100029A89
:1005A0000EF0B0FA01280CD121004F4802DF0128DB
:1005B00003D10720FEBC08BC18470820FAE7062034
:1005C000F8E70020F6E770B504000D0016000020E3
:1005D000E873320029002000FFF7C5FF70BC08BC9B
:1005E000184770B504000D0016000120E8733200B2
:1005F00029002000FFF7B7FF70BC08BC1847F8B50A
:1006000004000D001600370000200090C0462000B6
:1006100001F004FC00280ED12900200001F01DFC8F
:100620000090611EC9002D4A88180EF009FC0020B8
:10063000F8BC08BC18472F48864200D17F1C7F1E9B
:1006400001200EF021F9002FE1DA0820F0E7F8B5DB
:1006500004000D001600671E60217943244A8818A3
:10066000320069460EF0A6FA012803D10820F8BC32
:1006700008BC184700980FC80FC5103D1A480099CC
:1006800002DF012801D10720F1E70020EFE770B574
:1006900004000D001600320029002000FFF7D7FFEC
:1006A00070BC08BC1847F8B505000E0017001C0008
:1006B00023003A003100280001F0D2FBF8BC08BC4E
:1006C000184770B504000D00160032002900200004
:1006D00001F023FD70BC08BC18470000601E0040FC
:1006E000080000400C050000D4170040E01C00404A
:1006F000A01D0040FFFF0000002033490860334880
:100700004068FF21491C08433049486000203049B7
:100710000860304800680321890708432D490860B4
:10072000080040683C2108432A4948602A488068FC
:100730000121090408432849886008004068012114
:10074000090408432449486008008068012189059C
:100750000843214988600800406801218905084351
:100760001D49486008201A49C860382008600120E7
:1007700070470100164A916092681006000EC0464C
:10078000134A526880231A42FAD07047FF21104A58
:100790009160C0460E49496880221142FAD00C4946
:1007A00089680806000E704730B503000C0000256C
:1007B00004E0FFF7EBFF18705B1C6D1CA542F8D33B
:1007C00030BC08BC1847000010000040C0C01FE04B
:1007D000000002E000C002E0008002E070B504000A
:1007E0000D001600012000044A49C8604020FFF7B0
:1007F000C0FF2000FFF7BDFF2800FFF7BAFF012070
:1008000000044449486070BC08BC184770B5040037
:100810000E00012000043F49C8604120FFF7A9FFF6
:100820002000FFF7A6FFFFF7B1FF0500012000043D
:1008300038494860280070BC08BC184710B5002033
:10084000354908705EE03448027800210520FFF742
:10085000C5FF314801781320FFF7D8FF2E480278F2
:10086000FF210020FFF7BAFF2B480278FF2101206B
:10087000FFF7B4FF28480278FF210C20FFF7AEFFF6
:1008800025480278FF210D20FFF7A8FF22480278B3
:1008900000210800FFF7A2FF1F480278FF21012076
:1008A000FFF79CFF1D480078802108431B49087012
:1008B0000800007840218843184908700800007833
:1008C00001210843154908700800007802210843F7
:1008D0001249087008000078FB2108400F49087091
:1008E00008000078082108430C4908700A4802787B
:1008F000080001781220FFF771FF07480078401CBC
:10090000054908700448007801289CDB10BC08BC2D
:1009100018470000008002E0140000401F0700405C
:1009200070B505000E0090480068C02108438E494C
:1009300008604020C8618020C861002D26D18B4806
:100940000068502108438949086083208849C860AD
:10095000310088480DF068FA0400200A8449486094
:100960002006000E08600320C860072088600F2260
:100970008149062001F0B5FC002802D170BC08BCFA
:10098000184707207A4948600120F7E7012D23D155
:10099000764800690A210843744908618320774931
:1009A000C860310073480DF03FFA0400200A734913
:1009B00048602006000E08600320C8600720886099
:1009C00001226F4901F08DFC002800D1D6E70720F5
:1009D0006A4948600120D1E7022D2BD1694840685F
:1009E000E905084367494860604800680521090532
:1009F00008435E49086083206349C86031005D4850
:100A00000DF012FA0400200A5F4948602006000E2B
:100A100008600320C8600720886001225B491C2011
:100A200001F05FFC002800D1A8E707205649486084
:100A30000120A3E7032D2CD152484068012149062B
:100A40000843504948604948406A0F210906084355
:100A50004649486283204E49C860310045480DF040
:100A6000E3F90400200A4A4948602006000E0860A5
:100A70000320C86007208860012246491D2001F03C
:100A800030FC002800D179E7072041494860012067
:100A900074E7002072E7002817D113E0C0463E4AF1
:100AA0001278002AFBD03D4A3D4B1B78D25C304B7C
:100AB0001A600022384B1A70394A1278521C384B8F
:100AC0001A70491E0029E9D14CE0012817D113E022
:100AD000C046344A1278002AFBD0334A334B1B7885
:100AE000D25C264B1A6000222E4B1A702F4A1278C5
:100AF000521C2E4B1A70491E0029E9D132E00228FF
:100B000017D113E0C0462A4A1278002AFBD0294A9E
:100B1000294B1B78D25C1C4B1A600022244B1A70A4
:100B2000254A1278521C244B1A70491E0029E9D11B
:100B300018E0032816D113E0C046204A1278002A94
:100B4000FBD01F4A1F4B1B78D25C114B1A6000224E
:100B50001A4B1A701B4A1278521C1A4B1A70491EF3
:100B60000029E9D17047000040C0FF3F00C002E00B
:100B700000C000E060E31600C80B0000000001E0C8
:100B800020160000C0C01FE0008007E038190000F8
:100B900000C007E0AC17000018000040902700409C
:100BA0003801004019000040902600403B01004001
:100BB0001A00004090280040400100401B00004007
:100BC00090290040430100400F502DE90000A0E1B2
:100BD0000030A0E3003103E5B03E9FE5083093E527
:100BE000FF0003E2C000A0E1070000E2030050E3C1
:100BF0003F01001A943E9FE5143093E5FF1003E295
:100C00009E0011E30400000A843E9FE5001083E586
:100C1000783E9FE5003093E5FF2003E2010011E3F9
:100C20007C02000A643E9FE5003093E564CE9FE5B8
:100C300064EE9FE500E0DEE50E30CCE75C3E9FE52C
:100C40000030D3E5FF0053E30500001A483E9FE55E
:100C50000030D3E5013083E23CCE9FE50030CCE5A7
:100C6000F70000EA343E9FE50030D3E5FF0053E390
:100C7000F300000A243E9FE50030D3E5000053E373
:100C80000B00001A0C3E9FE50CCE9FE500C0DCE592
:100C90000C30D3E7070053E30500000A0030A0E35F
:100CA000F4CD9FE50030CCE5F0CD9FE50030CCE5FC
:100CB000E30000EAE43D9FE50030D3E5000053E3A4
:100CC0000E00001ACC3D9FE5CCCD9FE500C0DCE5D1
:100CD0000C30D3E7070053E30800001AB83D9FE546
:100CE0000030D3E5013083E2ACCD9FE50030CCE5A8
:100CF0000130A0E3A4CD9FE50030CCE5D00000EAB0
:100D0000983D9FE50030D3E5010053E30B00001A46
:100D1000803D9FE580CD9FE500C0DCE50C30D3E74A
:100D2000010053E30500000A0030A0E368CD9FE511
:100D30000030CCE564CD9FE50030CCE5C00000EA92
:100D4000583D9FE50030D3E5010053E30E00001A43
:100D5000403D9FE540CD9FE500C0DCE50C30D3E78A
:100D6000010053E30800001A2C3D9FE50030D3E555
:100D7000013083E220CD9FE50030CCE50230A0E3D6
:100D800018CD9FE50030CCE5AD0000EA0C3D9FE5B5
:100D90000030D3E5020053E30B00001AF43C9FE55A
:100DA000F4CC9FE500C0DCE50C30D3E7000053E352
:100DB0000500000A0030A0E3DCCC9FE50030CCE564
:100DC000D8CC9FE50030CCE59D0000EACC3C9FE507
:100DD0000030D3E5020053E30E00001AB43C9FE557
:100DE000B4CC9FE500C0DCE50C30D3E7000053E352
:100DF0000800001AA03C9FE50030D3E5013083E2F3
:100E000094CC9FE50030CCE50330A0E38CCC9FE58B
:100E10000030CCE58A0000EA803C9FE50030D3E555
:100E2000030053E30B00001A683C9FE568CC9FE584
:100E300000C0DCE50C30D3E7110053E30500000AE5
:100E40000030A0E350CC9FE50030CCE54CCC9FE5D2
:100E50000030CCE57A0000EA403C9FE50030D3E565
:100E6000030053E30E00001A283C9FE528CC9FE5C1
:100E700000C0DCE50C30D3E7110053E30800001A92
:100E8000143C9FE50030D3E5013083E208CC9FE5B8
:100E90000030CCE50430A0E300CC9FE50030CCE589
:100EA000670000EAF43B9FE50030D3E5040053E31C
:100EB0000B00001ADC3B9FE5DCCB9FE500C0DCE5C6
:100EC0000C30D3E7020053E30500000A0030A0E332
:100ED000C4CB9FE50030CCE5C0CB9FE50030CCE52E
:100EE000570000EAB43B9FE50030D3E5040053E32C
:100EF0000E00001A9C3B9FE59CCB9FE500C0DCE503
:100F00000C30D3E7020053E30800001A883B9FE54A
:100F10000030D3E5013083E27CCB9FE50030CCE5A7
:100F20000530A0E374CB9FE50030CCE5440000EA37
:100F3000683B9FE50030D3E5050053E30B00001A42
:100F4000503B9FE550CB9FE500C0DCE50C30D3E77C
:100F5000000053E30500000A0030A0E338CB9FE512
:100F60000030CCE534CB9FE50030CCE5340000EA1E
:100F7000283B9FE50030D3E5050053E30E00001A3F
:100F8000103B9FE510CB9FE500C0DCE50C30D3E7BC
:100F9000000053E30800001AFC3A9FE50030D3E557
:100FA000013083E2F0CA9FE50030CCE50630A0E3D3
:100FB000E8CA9FE50030CCE5210000EADC3A9FE575
:100FC0000030D3E5060053E30B00001AC43A9FE556
:100FD000C4CA9FE500C0DCE50C30D3E7E50053E36D
:100FE0000500000A0030A0E3ACCA9FE50030CCE564
:100FF000A8CA9FE50030CCE5110000EA9C3A9FE5C5
:101000000030D3E5060053E30D00001A843A9FE553
:1010100084CA9FE500C0DCE50C30D3E7E50053E36C
:101020000700001A703A9FE50030D3E5013083E2F3
:1010300064CA9FE50030CCE5FF30A0E35CCA9FE5C1
:101040000030CCE54C3A9FE50030D3E548CA9FE537
:1010500000C0DCE50C0053E11D00001A403A9FE59A
:101060000030D3E5000053E31900001A243A9FE54D
:101070000430D3E5020053E30300000A143A9FE56D
:101080000430D3E5030053E30E00001A043A9FE551
:101090000130D3E5010053E30300000AF4399FE572
:1010A0000130D3E5050053E30600001AE4399FE55B
:1010B0000230D3E5000053E30200001A0130A0E340
:1010C000E0C99FE50030CCE50030A0E3C8C99FE54A
:1010D0000030CCE5C0399FE50030D3E5010C53E387
:1010E0004C01001A0030A0E3ACC99FE50030CCE50C
:1010F000480100EA020050E33001001A8C399FE5F4
:10110000003093E58CC99FE58CE99FE500E0DEE5C2
:101110000E30CCE784399FE50030D3E5FF0053E380
:101120000500001A70399FE50030D3E5013083E2F5
:1011300064C99FE50030CCE5F70000EA5C399FE523
:101140000030D3E5FF0053E3F300000A4C399FE57C
:101150000030D3E5000053E30B00001A34399FE55B
:1011600034C99FE500C0DCE50C30D3E7070053E34A
:101170000500000A0030A0E31CC99FE50030CCE563
:1011800018C99FE50030CCE5E30000EA0C399FE583
:101190000030D3E5000053E30E00001AF4389FE559
:1011A000F4C89FE500C0DCE50C30D3E7070053E34B
:1011B0000800001AE0389FE50030D3E5013083E2F3
:1011C000D4C89FE50030CCE50130A0E3CCC89FE552
:1011D0000030CCE5D00000EAC0389FE50030D3E510
:1011E000010053E30B00001AA8389FE5A8C89FE54B
:1011F00000C0DCE50C30D3E7010053E30500000A32
:101200000030A0E390C89FE50030CCE58CC89FE596
:101210000030CCE5C00000EA80389FE50030D3E51F
:10122000010053E30E00001A68389FE568C89FE587
:1012300000C0DCE50C30D3E7010053E30800001ADE
:1012400054389FE50030D3E5013083E248C89FE57C
:101250000030CCE50230A0E340C89FE50030CCE58B
:10126000AD0000EA34389FE50030D3E5020053E3D7
:101270000B00001A1C389FE51CC89FE500C0DCE588
:101280000C30D3E7000053E30500000A0030A0E370
:1012900004C89FE50030CCE500C89FE50030CCE5F0
:1012A0009D0000EAF4379FE50030D3E5020053E3E8
:1012B0000E00001ADC379FE5DCC79FE500C0DCE5C7
:1012C0000C30D3E7000053E30800001AC8379FE54D
:1012D0000030D3E5013083E2BCC79FE50030CCE5A8
:1012E0000330A0E3B4C79FE50030CCE58A0000EAF4
:1012F000A8379FE50030D3E5030053E30B00001A45
:1013000090379FE590C79FE500C0DCE50C30D3E740
:10131000110053E30500000A0030A0E378C79FE501
:101320000030CCE574C79FE50030CCE57A0000EAD8
:1013300068379FE50030D3E5030053E30E00001A41
:1013400050379FE550C79FE500C0DCE50C30D3E780
:10135000110053E30800001A3C379FE50030D3E545
:10136000013083E230C79FE50030CCE50430A0E3D4
:1013700028C79FE50030CCE5670000EA1C379FE5F1
:101380000030D3E5040053E30B00001A04379FE557
:1013900004C79FE500C0DCE50C30D3E7020053E34F
:1013A0000500000A0030A0E3ECC69FE50030CCE564
:1013B000E8C69FE50030CCE5570000EADC369FE543
:1013C0000030D3E5040053E30E00001AC4369FE555
:1013D000C4C69FE500C0DCE50C30D3E7020053E350
:1013E0000800001AB0369FE50030D3E5013083E2F3
:1013F000A4C69FE50030CCE50530A0E39CC69FE580
:101400000030CCE5440000EA90369FE50030D3E59B
:10141000050053E30B00001A78369FE578C69FE578
:1014200000C0DCE50C30D3E7000053E30500000A00
:101430000030A0E360C69FE50030CCE55CC69FE5C8
:101440000030CCE5340000EA50369FE50030D3E5AB
:10145000050053E30E00001A38369FE538C69FE5B5
:1014600000C0DCE50C30D3E7000053E30800001AAD
:1014700024369FE50030D3E5013083E218C69FE5AE
:101480000030CCE50630A0E310C69FE50030CCE587
:10149000210000EA04369FE50030D3E5060053E35F
:1014A0000B00001AEC359FE5ECC59FE500C0DCE5BC
:1014B0000C30D3E7E50053E30500000A0030A0E359
:1014C000D4C59FE50030CCE5D0C59FE50030CCE524
:1014D000110000EAC4359FE50030D3E5060053E370
:1014E0000D00001AAC359FE5ACC59FE500C0DCE5FA
:1014F0000C30D3E7E50053E30700001A98359FE569
:101500000030D3E5013083E28CC59FE50030CCE5A7
:10151000FF30A0E384C59FE50030CCE574359FE53E
:101520000030D3E570C59FE500C0DCE50C0053E159
:101530001A00001A68359FE50030D3E5000053E338
:101540001600001A4C359FE50430D3E5020053E342
:101550000300000A3C359FE50430D3E5030053E364
:101560000E00001A2C359FE50130D3E5010053E34E
:101570000300000A1C359FE50130D3E5050053E365
:101580000600001A0C359FE50230D3E5000053E356
:101590000200001A0130A0E308C59FE50030CCE549
:1015A000F4349FE50030D3E5010C53E31900001A31
:1015B0000030A0E3E0C49FE50030CCE5150000EA70
:1015C000060050E30500001AC4349FE5003093E59F
:1015D000013C83E3B8C49FE500308CE50D0000EAD0
:1015E000010050E30B00001AA0349FE5143093E58E
:1015F000FF1003E2200011E30300000A0130A0E322
:10160000A4C49FE50030CCE5020000EA0030A0E36E
:1016100094C49FE50030CCE50F50BDE804F05EE2D5
:101620001F502DE90000A0E10020A0E3002102E509
:1016300078249FE5082092E5FF0002E2C000A0E1C7
:10164000070000E2030050E32400001A5C249FE539
:10165000142092E5FF1002E29E0011E30400000A4C
:101660004C249FE5001082E540249FE5002092E590
:10167000FF3002E2010011E34900000A2CC49FE59B
:1016800000C09CE52CE49FE50020DEE501E082E25D
:1016900020449FE500E0C4E51CE49FE502C0CEE7DE
:1016A00018249FE50020D2E5012082E20CC49FE5CA
:1016B0000020CCE50020A0E304C49FE50020CCE599
:1016C000F8239FE50020D2E5010C52E33400001A14
:1016D0000020A0E3E4C39FE50020CCE5300000EA51
:1016E000020050E31800001AC0C39FE500C09CE54B
:1016F000C0E39FE50020DEE501E082E2B4439FE520
:1017000000E0C4E5B0E39FE502C0CEE7AC239FE56F
:101710000020D2E5012082E2A0C39FE50020CCE5B5
:101720000020A0E398C39FE50020CCE58C239FE533
:101730000020D2E5010C52E31900001A0020A0E3BA
:1017400078C39FE50020CCE5150000EA060050E3D1
:101750000500001A58239FE5002092E5012C82E342
:101760004CC39FE500208CE50D0000EA010050E32A
:101770000B00001A34239FE5142092E5FF1002E2CB
:10178000200011E30300000A0120A0E334C39FE519
:101790000020CCE5020000EA0020A0E324C39FE57E
:1017A0000020CCE51F50BDE804F05EE21F502DE99B
:1017B0000000A0E10020A0E3002102E508239FE54E
:1017C000082092E5FF0002E2C000A0E1070000E26D
:1017D000030050E32400001AEC229FE5142092E558
:1017E000FF1002E29E0011E30400000ADC229FE5E4
:1017F000001082E5D0229FE5002092E5FF3002E252
:10180000010011E34900000ABCC29FE500C09CE54D
:10181000BCE29FE50020DEE501E082E2B0429FE508
:1018200000E0C4E5ACE29FE502C0CEE7A8229FE558
:101830000020D2E5012082E29CC29FE50020CCE599
:101840000020A0E394C29FE50020CCE588229FE51C
:101850000020D2E5010C52E33400001A0020A0E37E
:1018600074C29FE50020CCE5300000EA020050E39E
:101870001800001A50C29FE500C09CE550E29FE5A9
:101880000020DEE501E082E244429FE500E0C4E59D
:1018900040E29FE502C0CEE73C229FE50020D2E572
:1018A000012082E230C29FE50020CCE50020A0E3C9
:1018B00028C29FE50020CCE51C229FE50020D2E550
:1018C000010C52E31900001A0020A0E308C29FE5B2
:1018D0000020CCE5150000EA060050E30500001AE0
:1018E000E8219FE5002092E5012C82E3DCC19FE521
:1018F00000208CE50D0000EA010050E30B00001A07
:10190000C4219FE5142092E5FF1002E2200011E3BC
:101910000300000A0120A0E3C4C19FE50020CCE53C
:10192000020000EA0020A0E3B4C19FE50020CCE55E
:101930001F50BDE804F05EE20F502DE90000A0E169
:101940000030A0E3003103E598319FE5083093E5CE
:10195000FF0003E2C000A0E1070000E2030050E343
:101960001D00001A7C319FE5143093E5FF1003E25F
:101970009E0011E30400000A6C319FE5001083E52E
:1019800060319FE5003093E5FF2003E2010011E3A1
:101990003C00000A4C319FE5003093E54CC19FE5C7
:1019A0004CE19FE500E0DEE50E30CCE740319FE5FD
:1019B0000030D3E5013083E234C19FE50030CCE54F
:1019C00000308CE20030D3E5010C53E32D00001A07
:1019D0000030A0E30030CCE52A0000EA020050E32A
:1019E0001200001AFC309FE5003093E5FFC003E2CF
:1019F000F8309FE5F8E09FE500E0DEE50EC0C3E7C4
:101A0000EC309FE50030D3E5013083E2E0C09FE594
:101A10000030CCE500308CE20030D3E5010C53E31C
:101A20001800001A0030A0E30030CCE5150000EAF1
:101A3000060050E30500001AAC309FE5003093E546
:101A4000013C83E3A0C09FE500308CE50D0000EA77
:101A5000010050E30B00001A88309FE5143093E535
:101A6000FF1003E2200011E30300000A0130A0E3AD
:101A700080C09FE50030CCE5020000EA0030A0E322
:101A800070C09FE50030CCE50F50BDE804F05EE289
:101A900000C000E028000040701E00401C00004014
:101AA000230000403407004022000040180000409E
:101AB000000001E0300000403C010040701F004089
:101AC0001D000040200000401900004000C007E059
:101AD0002C00004044010040702100401F000040E5
:101AE000210000401B000040008007E0340000405F
:101AF000702000401E0000401A00004010B5012078
:101B00000F49087000200F49086001220E4900F0BB
:101B1000E8FB002802D110BC08BC18470B4841075D
:101B2000486003200860AA20886055208860012052
:101B3000F1E7AA200721490788605520886070478F
:101B40006C00004068000040501B0000FFFF3F0099
:101B500003002DE90E02A0E3000090E50400C0E3BD
:101B60000E12A0E3000081E51C009FE5000090E557
:101B7000010080E210109FE5000081E50000A0E375
:101B8000000100E50300BDE804F05EE268000040EB
:101B900010B504002B484068012109030843294976
:101BA0004860294840680F218903884326494860D6
:101BB00008004068012109040843234948600800DF
:101BC00040680121890308431F49486021001F48DC
:101BD0000CF02AF9401E00021D4908431D49086007
:101BE000012010BC08BC184730B401001948006837
:101BF000000A0002174B1860180003680120884093
:101C000001252D06284303431248036007E088009E
:101C1000104BC0180269D00FC00700D000E0F6E7F3
:101C2000C0460C48006807231B069843094B186000
:101C30001804024202D0002030BC70471004840D0A
:101C40002000F9E7C0C01FE000C002E000366E01CE
:101C500001002000004003E0B1C08FE21CFF2FE133
:101C6000FEB504000D00661EB000FF490858029042
:101C70000027FE48854202D80C20019003E0C046B0
:101C8000C0460A200190FA4801990CF0CDF82900CD
:101C900000900CF0C9F8471EBF05BF0D01988000E9
:101CA000F44908580743029847610020FEBC08BC6D
:101CB0001847F0B40200541EA000EB4B1E58087BDE
:101CC00000040F231B0418408B7B012B01D101273B
:101CD00000E00027FB071843CB7B012B01D1012734
:101CE00000E00027BB0718430500F06904231842F1
:101CF00009D03563086870634868B0638868F0632A
:101D00002120706002E00420F0BC70470020FBE757
:101D1000F0B4421E9600D44FBD592B6ADE0F8E736D
:101D20000126B6071E40B60FCE731E03360F0E7384
:101D30006E6A0E60CE7B002E04D10C1DAE6A40C4CC
:101D4000EE6A2660F0BC70470100012902D002292A
:101D50003CD11CE0C8484068012252031043C64AE7
:101D60005060C648006800090001C44A10601000B5
:101D7000006805221043C14A1060C148C14AD061C1
:101D80000120C14AD061C005C04A106120E0BA48B4
:101D90004068012292031043B74A5060B748006878
:101DA0000F2212029043B54A10601000006805220D
:101DB00052021043B14A1060B148B24AD0610120CA
:101DC000B14AD061C005B14A106101E009207047F5
:101DD000C0460020FBE7F3B581B00400651EAC4EA1
:101DE000A800A1490F58022030600120386000206F
:101DF0003861B86020000299FFF732FF0320386194
:101E00000020FEBC08BC184710B401004A1E900018
:101E1000954C23580020186010BC704770B5040022
:101E2000651EA80090490E58611EC900994A88187D
:101E300000210DF023F801280DD0F069042108429B
:101E400003D0002070BC08BC1847611EC900914A2D
:101E500088180CF0F5FF0420F4E702000120704719
:101E6000FFB484B00498401E0390894802908A49C8
:101E70008A4B0020185E401C40109B1C0027DF5F2F
:101E8000C01901235B02984203DB052008B0F0BCB7
:101E900070470120029B1860079800287AD10398A8
:101EA000400302437E4802407C480088C007C00FC0
:101EB0001ED17A48801C0088002819D0774800235A
:101EC000C35E5C10801C0023C35E0093A0000D580D
:101ED00007E0601C00040414A0000E58A0000D5080
:101EE00035000098431E1B041B1400930028F0D1FA
:101EF0006A480088002804D110046A4B184308601F
:101F000083E06648008801280FD10868000C9042E1
:101F100005D90868000C13041843086075E00868C8
:101F2000000C0004104308606FE000245B4B185F56
:101F300001901800035F581EC0030014009017E0C2
:101F4000A0000858000C904203D9600400140190CE
:101F500011E0A00008580004000C904205D9600070
:101F6000401C00040014019005E0601C00040414EF
:101F700000988442E4DDC0460098844213DD47485F
:101F80000088C007C00F06D11004464B1843A300B9
:101F9000C8503AE041E0A0000858000C000410438B
:101FA000A300C85031E0A0000D580198C007C00F31
:101FB00004D110042B0C1843060003E0280C000485
:101FC00010430600A0000E5034480023C35E581092
:101FD00000900AE0601C00040414A0000E58300CAD
:101FE0002B041843A300C850350000988442F1DB4D
:101FF0002A480088C007C00F07D1A0000858000C6D
:102000000004284BC018A300C85024480088401C76
:1020100000040014214B188064E003984007024339
:102020001E4B0020185E401C4410002001900CE064
:10203000A0000858904200D90EE0601C000404146F
:102040000198401C000400140190144B9B1C0027B5
:10205000DF5F0198B842EBDBC046A0000D58A0003E
:102060000A500E48801C1FE07000004020A10700AD
:1020700000366E0180F10000C0C01FE000C002E029
:102080002421000040F1FFFF40F2FFFF00F0FFFFBE
:1020900000C003E0601E0040008003E078000040C4
:1020A000FFF70000FFFF00000088401C0004001440
:1020B0001B4B188018000088401E0004001400907C
:1020C0000CE0601C000404140198401C000400147F
:1020D0000190A0000E58A0000D503500009B019803
:1020E0009842EEDB0E4B9B1E0020185E401C4010F9
:1020F0008500981C0023C35E9800461900230298AF
:102100004360029885600298C56002980661029853
:102110004661029803600020B8E603000020704783
:102120007A0000401F502DE904D04DE250019FE598
:10213000080090E5010010E30F00000A44019FE54C
:10214000403200EB000050E30B00000A38019FE52D
:10215000010000EF00008DE50100A0E300109DE507
:10216000BCFEFFEB0400A0E314119FE5040081E531
:1021700010019FE500109DE54E3100EB0C019FE53D
:10218000080090E5010010E30F00000A00019FE540
:102190002C3200EB000050E30B00000AE8009FE542
:1021A000010000EF00008DE50200A0E300109DE5B6
:1021B000A8FEFFEB0400A0E3D0109FE5040081E53A
:1021C000CC009FE500109DE53A3100EBB0009FE5A3
:1021D000080090E5080010E30D00000A0D10A0E1D2
:1021E000B0009FE51E3100EB000050E30600000A3E
:1021F0000100A0E300109DE56F2F00EB88009FE534
:1022000000109DE5020000EF010000EA88009FE554
:102210002E3100EB74009FE5080090E5080010E304
:102220000D00000A0D10A0E170009FE50C3100EBDD
:10223000000050E30600000A0200A0E300109DE544
:102240005D2F00EB40009FE500109DE5020000EFD0
:10225000010000EA48009FE51C3100EB20009FE5EB
:102260000C4090E5010980E20C4090E50000E0E3BD
:102270000010A0E3000101E504D08DE21F50BDE88D
:1022800004F05EE2004004E0A01D0040D4170040CE
:10229000008004E0001E0040E01C0040601E004082
:1022A000401D0040681E004010B40020431E1C0367
:1022B00063610023241123602401E360C0460CE025
:1022C00083000F242402191B8300072464021A1BB5
:1022D00000230B600F231360401C2028F0D310BC98
:1022E000704770B404000120A0401D4B5861202CA1
:1022F00002D3002070BC7047A0000F231B02C51A38
:10230000A00007235B02C61A296032600120A040AA
:10231000134B18610120EDE700B5FF20401C114967
:102320000863C000486101220F491120FFF7D9FF5F
:10233000002801D108BC18470120FBE700B5FFF7D2
:10234000EBFF012802D0002008BC1847074840686E
:10235000FF2181310843054948600120F4E700006E
:1023600000F0FFFF808002E07023000040C11FE00A
:1023700003002DE90800A0E36C109FE5400181E512
:1023800068009FE5000090E5010080E25C109FE599
:10239000000081E558009FE5880090E5020B10E3FE
:1023A0000400000A48009FE58C0090E5020B80E3E2
:1023B0003C109FE58C0081E534009FE5A40090E58A
:1023C000010C10E30400000A24009FE5AC0090E536
:1023D000010C80E318109FE5AC0081E50000A0E34C
:1023E000000100E50300BDE804F05EE200C01FE06C
:1023F00080000040008002E001001948C06801220E
:1024000052021043164AD0600220164A5060032040
:10241000D060100081610801000950620420114A57
:1024200040321061012070470E4A9061020112098A
:102430000C4B5A6204220B4B40331A617047012047
:10244000C00208494031C860092006494860704709
:10245000002004494031C8600249486070470000CC
:1024600000C002E0008001E070B54B24240100258B
:102470000020FFF7C1FF012803D000200F4908709A
:1024800008E001200D49087029002000FFF7CCFF6B
:10249000FFF7D5FF70BC08BC184710B502200849EB
:1024A00048604B20000188610420054940310861E3
:1024B000FFF7C5FF10BC08BC184700002001004012
:1024C000008001E010B527484078012804D0022898
:1024D0000ED0032812D10FE001F01EF8002404E012
:1024E0002148005D21490855641C402CF8DB05E0BB
:1024F000002010BC08BC18470020FAE7C0460120A5
:10250000F7E718484078012804D0022804D00328AF
:1025100006D103E0002070470020FCE70020FAE726
:102520000120F8E70F48801E80781149085C0F49A8
:102530000870012070470B4840780A49891E897845
:102540000B4A5054012070470A4800780749087028
:10255000012070470348801E8078064908700120DA
:1025600070470000A6000040102300407022004089
:1025700085000040840000400020EA490880EA49C4
:102580000870EA490870EA48EA4908600020EA4908
:102590000860704710B5E949002000F03EFB10BC10
:1025A00008BC184710B5E6488088402801DD402463
:1025B00001E0E3488488E24822000168802000F0BE
:1025C00061FB0400DE4800680019DD49086008006E
:1025D0008088001B888010BC08BC184710B5D848FC
:1025E0000168002000F019FB0400D54800680019BC
:1025F000D349086008008088001B888010BC08BC94
:10260000184710B500221100802000F03BFB10BCE1
:1026100008BC184710B5CB49002000F0FEFA10BCEA
:1026200008BC184710B5C0460022C149891E0800E1
:102630000CF0A6F90CF036F9040020000221084243
:1026400076D0FFF7A7FFBD4909780906C80F00F04B
:102650009DFABA48C088BA498880B84800784006D0
:10266000800F04D001287ED002287DD1E7E0B34856
:1026700043780BF0AFFA0C070D9316931F30363DDD
:102680004B6182930BF040FD002800D1D9E086E039
:1026900000200BF0A7FD002800D1D2E0FFF7B1FF2A
:1026A0007DE001200BF09EFD002800D1C9E0FFF77E
:1026B000A8FF74E0A1480078C006C00E08D19F486A
:1026C00080788021084398490870FFF79AFF00E05E
:1026D000B7E0C04663E00BF091FC002800D1B0E009
:1026E0005DE0002000F07DFA00209549888056E0EA
:1026F00092480078C006C00E05D18C489049086009
:10270000FFF750FF00E09CE0C04648E08B480078AF
:10271000C006C00E0DD10BF0D7FD002800D190E00F
:10272000FFF76FFF8848016801200CF0EDF801E029
:102730008FE086E0C04632E080480078C006C00ED8
:10274000012817D179480078002811D07B480079FA
:102750007E49097888420BDA784800797C4940182C
:102760007749086001E01CE06AE0FFF71BFF00E02A
:1027700067E000E065E0C04611E070480078C00600
:10278000C00E012807D10BF06FFE002800D158E0E1
:10279000FFF737FF00E054E0C04600E051E0C046DC
:1027A00056E066480078C006C00E012845D163484F
:1027B0000079002840D1614843780BF00BFA0C3CBB
:1027C0000716293C3C3C3C3C1221343CFFF77AFE86
:1027D000002805D05B485A490860FFF7E3FE2DE06A
:1027E00029E058485649086028E0FFF79BFE00287A
:1027F00005D0544852490860FFF7D4FE1EE01AE0A5
:10280000FFF799FE002802D0FFF7FBFE16E012E06A
:10281000FFF79AFE002805D04A4849490860FFF7AB
:10282000C1FE0BE007E0FFF795FE002802D0FFF79E
:10283000E8FE03E0C046C04603E002E008E000E036
:10284000C046802000F0CDF900203D498880C04678
:10285000C046042004423DD0384800780006C00F2E
:1028600036D137488088002834D0FFF7B7FE344887
:10287000808800282ED1314800784006800F02D091
:10288000012819D100E018E02C480078C006C00EDD
:10289000012802D002280CD10AE02848007900283B
:1028A00005D1FFF72EFE002800D106E002E004E08B
:1028B00003E002E0C04607E0C046802000F091F946
:1028C00000201F498880C046C046FFF79AFE01E0FD
:1028D000FFF7A0FE0820044217D018480078000631
:1028E000C00F012802D1FFF75DFE0EE00E48007810
:1028F0008021084209D00C4800784006400E0A4961
:1029000008700800007800F063F84020044202D00C
:10291000002000F074F98020044200D184E600F029
:102920006EF981E6880000408A0000408B0000407C
:10293000010001008C00004090000040A400004015
:102940009C00004070220040B40000409400004011
:1029500095000040A3C08FE21CFF2FE101000A0791
:10296000D00E8022114200D0401C70471021E34A53
:10297000916011000861C046E049096810221142C7
:10298000FAD070471022DD4B9A601A001061C046E1
:10299000DA4A126810231A42FAD01022D74B9A60F2
:1029A0001A001161C046D54A126810231A42FAD0A3
:1029B000704701003020D14A906010000161C0468C
:1029C000CE48006820221042FAD0CC4840697047B7
:1029D00010B50400802020430004FF22521C104345
:1029E0000100C74809DF802020430004FF22521C59
:1029F00010430100C24809DF10BC08BC1847002082
:102A0000BE49403188604020C86001208860402075
:102A1000C860C046B9480068FF21491C0842F9D087
:102A20000020C043B5498863486388600C20486033
:102A300070477047704710B5B24840680F2189064B
:102A40008843B0494860080040680521890608436A
:102A5000AC4948600800C068AB490840A949C86053
:102A60000800C068A9490843A649C8600800006971
:102A7000032189048843A3490861080000690121F2
:102A8000890408439F490861A148406849040843F4
:102A90009F49486012209F494863C0469D48806B0B
:102AA000122108401228F9D19B489C4988610120D5
:102AB0009B49886180059B490861FFF7A0FF0020C2
:102AC000FFF786FF00F04BFA10BC08BC184710B5A2
:102AD0000400002C01D0012000E000200104FF22AE
:102AE000521C1143904809DF10BC08BC184710B5B0
:102AF0008E4800880221084202D08D498A4809DFA9
:102B000010BC08BC1847704710B50400002C01D059
:102B1000012000E000200104FF22521C11438548DF
:102B200009DF0320754940314860C046734800689A
:102B3000FF21491C0842F9D008007049886010BC88
:102B400008BC184710B50400A078FFF707FF030082
:102B50006A4840304168012098400143674840304E
:102B60004160836060792179000208436349403104
:102B7000C860C04661480068FF21491C0842F9D07E
:102B800008005E49886010BC08BC1847704770B5E3
:102B900004002000FFF7E2FE000467490843050037
:102BA000891309DF70BC08BC184770B50400200009
:102BB000FFF7D4FE00046049084305005F4909DFC0
:102BC00070BC08BC184770B504002000FFF7C6FEB3
:102BD0000004594908430500891309DF70BC08BC8B
:102BE000184770B504002000FFF7B8FE00045249F2
:102BF000084305004E4909DF70BC08BC184770B592
:102C000004002000FFF7AAFE00044B49084305001A
:102C1000891309DF70BC08BC1847F8B504000D0023
:102C20002007800E401C35498862C0463348066A3A
:102C30000120C0020642F9D0B605B60D002706E015
:102C40002E49886929000AF0D1FE2D1D7F1CF01C39
:102C50008008B842F4D800202849886238482041CA
:102C6000C007C00F0AD12000FFF778FE000405213D
:102C700009020843009008DF324808DF3000F8BC42
:102C800008BC1847F8B504000D0016002007800E98
:102C9000801C1A49886208004662002706E0280066
:102CA0000AF092FE1549C8612D1D7F1CF01C80089A
:102CB000B842F4D80020114988622000FFF74EFE88
:102CC0000004052109020843009008DF1E4808DFC0
:102CD0003000F8BC08BC184710B51C4808DF1C4879
:102CE0000ADF04001A480ADF00020443200010BC77
:102CF00008BC1847174800687047000000C2E0FF92
:102D00000005D00000C002E0CFFFFFCF1000002080
:102D1000C0C01FE0C0CFE0FF582D000040F1FFFF12
:102D200040F2FFFF00F0FFFF0005FE0088000040BA
:102D3000000101000005D80000054000000120004E
:102D4000481200000005F2000005FA000005F50039
:102D50000002F500AC000040FF502DE948019FE55E
:102D6000005290E5085280E5080015E31700000ABC
:102D700038019FE5080000EF34019FE50A0000EFED
:102D80000040A0E1100014E30500000AF0FEFFEB94
:102D900020019FE5001090E50400A0E3222E00EB47
:102DA0003D0000EA020014E30000000A3A0000EAD5
:102DB000080014E30500000A040014E30100000AFF
:102DC000802C00EB000000EA812C00EB320000EACE
:102DD000040015E32F00000A2A0000EA0060A0E3C7
:102DE000260000EAC0009FE5300290E50110A0E354
:102DF000110610E11F00000AA670A0E10100A0E387
:102E00001006A0E1A0109FE5380281E50000A0E1D6
:102E100094009FE5000290E5200010E3FBFFFF0A0D
:102E200084009FE5144290E5010016E30D00001AAE
:102E3000000056E30600001A040014E30400000A30
:102E400074009FE5001090E50200A0E3F62D00EB72
:102E5000090000EA60009FE5071190E70400A0E385
:102E6000F12D00EB030000EA4C009FE5071190E70D
:102E70000800A0E3EC2D00EB0000A0E1016086E279
:102E8000200056E3D6FFFF3A1C009FE5300290E594
:102E9000000050E3D0FFFF1A0000A0E10000A0E313
:102EA000000100E5FF50BDE804F05EE200C0E0FF75
:102EB0000005FE000002FE00B0000040B02200400D
:102EC00010B5C0460022384908000BF059FD0BF040
:102ED000E9FC0400200004210842F3D0FFF74CFB7A
:102EE000F0E710B5C04600222F4908000BF048FD5E
:102EF0000BF0D8FC040020000821084209D000F0A3
:102F00000BFB402229498120FFF7BCFE0020274906
:102F1000087004200442E6D025490120FFF77DFE19
:102F200000F0E9FBDFE710B5C04600221E490800AB
:102F30000BF026FD0BF0B6FC0400E007C00FF4D048
:102F40001C4800780028F0D000F0E6FA402217492B
:102F50008120FFF797FE002014490870E5E710B5BF
:102F600000220321144813000CF028F813490860CC
:102F700000220221124813000CF020F811490860C9
:102F800000220221104813000CF018F80D49486087
:102F9000002202210D4813000CF010F80C490860C3
:102FA00010BC08BC18470000FFFF000010230040C1
:102FB000502300408B000040C12E0000B0000040B4
:102FC00025260000B0220040E32E0000272F00003D
:102FD000B400004010B5012000F09EF8002801D197
:102FE000C046FEE7002403E0002036490855641C73
:102FF000102CF9D3022034490860002033490860BE
:103000009820304908700120487000208870012005
:103010002F49086000F0B0F8002403E0002029499F
:103020000855641C102CF9D30120274908600220A0
:10303000264908609820234908700020487099208C
:10304000887000202249086000F096F8002403E010
:1030500000201C490855641C102CF9D302201A4981
:103060000860002019490860922016490870012064
:1030700048700020887001201549086000F07CF835
:10308000002403E000200F490855641C102CF9D3DC
:1030900001200D49086002200C490860922009496E
:1030A000087000204870932088700020084908604C
:1030B00000F062F89820034908709920887010BCCD
:1030C00008BC1847F0220040DC000040D800004057
:1030D000D00000400021002020223A4B1A600BE073
:1030E000394A1268012A01D1012006E0374A91428B
:1030F00001D3002001E0491CF2E7C04670471020D0
:103100003049086008208861C0462E4800681021B8
:103110000842FAD10120704710B504002C484068DD
:103120000121C90408432A4948602A4840680F2100
:1031300089058843274948600800406805218905BA
:103140000843244948606C201E49886180204861FA
:103150000861022C01D19820C8600F221E49092065
:10316000FFF7BFF8002802D110BC08BC1847402068
:10317000144908600120F7E710B5184C00201249E7
:1031800008601749086017490860FFF7A3FF012886
:1031900005D0FFF7B4FF002010BC08BC184707E0BB
:1031A00009480068052802D1FFF7A9FF02E0641E64
:1031B000002CF5D1C046002C01D10020ECE7012005
:1031C000EAE7000000C001E0B8000040FFFFFF0098
:1031D000C0C01FE000C002E0E8310000FFFF0000B7
:1031E000C4000040C80000400F002DE904139FE513
:1031F000041091E5FF0001E20010A0E3001101E5D9
:10320000070010E3B400001AC011A0E10C0051E364
:1032100001F18F30B00000EAAF0000EA090000EAD7
:10322000130000EA220000EAA00000EA380000EAE9
:10323000390000EAA60000EA730000EA9D0000EAF7
:10324000760000EA770000EA0000A0E1A8129FE5FE
:103250000010D1E59C229FE5081082E52810A0E32C
:10326000181082E50110A0E390229FE5001082E58E
:103270009D0000EA0000A0E184129FE5001091E5A6
:10328000000051E30300001A6C129FE50210D1E523
:1032900060229FE5081082E52810A0E354229FE5F4
:1032A000181082E50210A0E350229FE5001082E58D
:1032B0008D0000EA0000A0E140129FE5001091E5BA
:1032C000010051E30E00001A38129FE5001091E54D
:1032D000011081E220229FE50110D2E714229FE530
:1032E000081082E51C129FE5001091E5011081E2B3
:1032F00010229FE5001082E50410A0E3FC219FE569
:10330000001082E50810A0E3E8219FE5181082E58F
:10331000750000EA0000A0E10000A0E1E4119FE5D3
:10332000001091E5E0219FE5002092E5020051E1C7
:103330002300000ACC119FE5001091E5011081E205
:10334000B4219FE50110D2E7A8219FE5081082E58E
:10335000B0119FE5001091E5011081E2A4219FE5E5
:10336000001082E5001082E2001091E598219FE5AF
:10337000002092E5020051E10300000A0410A0E3DE
:1033800078219FE5001082E51B0000EA0510A0E30C
:1033900068219FE5001082E570119FE5001091E51E
:1033A000000051E31400000A2010A0E344219FE52F
:1033B000001082E50310A0E340219FE5001082E5A4
:1033C0000D0000EA44119FE5001091E5000051E373
:1033D0000600000A2010A0E318219FE5001082E5F6
:1033E0000310A0E314219FE5001082E5020000EA2B
:1033F0000510A0E304219FE5001082E50810A0E37A
:10340000F0209FE5181082E5370000EA0000A0E1F7
:103410000810A0E3DC209FE5181082E5320000EAE6
:103420000000A0E10000A0E1C8109FE5081091E5B0
:10343000DC209FE5002092E5032082E2B8309FE582
:103440000210C3E7C8109FE5001091E5011081E26A
:10345000BC209FE5001082E5001082E2001091E59B
:10346000A8209FE5002092E5020051E10300000A38
:103470000410A0E384209FE5001082E5050000EA27
:103480000010A0E388209FE5001082E50510A0E36E
:1034900068209FE5001082E50410A0E354209FE51A
:1034A000001082E50810A0E3181082E50E0000EA83
:1034B0000000A0E10000A0E10810A0E334209FE597
:1034C000181082E50510A0E330209FE5001082E58A
:1034D000050000EA0000A0E10000A0E10810A0E360
:1034E00010209FE5181082E50000A0E10000A0E197
:1034F0000F00BDE804F05EE200C001E0F0220040F1
:10350000B8000040D0000040C8000040DC0000408F
:10351000D8000040C400004070B4FF4A1278002A6E
:103520007ED10020E2E0FD4A1278002A06D0012A6E
:1035300045D0022A75D0032A74D1ABE0F84A12783C
:10354000002A36D0F74A1278002A32D0F44A13788B
:103550000022F34C2270F44C2270F44C2270EE4A9C
:1035600013700022EC4C627000210CE0EE4C2278CB
:10357000541CED4D2C70EE4CA55CE74E8C1C355563
:103580004A1C1106090E9942F0DB0420E44A127825
:10359000002A0ED1E44A1278E44C2478A24208D1E1
:1035A000E24A1278002A04D00022DF4C2270DF4C5D
:1035B0002270DA4A1278521CD84C227092E0DD4A0E
:1035C0001278002A3AD0DC4A1278002A36D0D94A3A
:1035D00013780022D74C2270D34C2270D34C227027
:1035E000CD4A13700122CC4C627000210CE0D34C08
:1035F0002278541CD14D2C70D14CA55CC64E8C1C2D
:1036000035554A1C1106090E9942F0DB0420C94ABF
:103610001278002A12D1C94A1278CA4C247802E0E2
:1036200067E011E05AE0A24208D1C64A1278002AA7
:1036300004D00022C14C2270C24C2270B74A1278CA
:10364000521CB64C22704DE0BF4A1278002A1BD0A3
:10365000BE4A1278022A17D1BB4A13781278AE4CB0
:10366000227002226270002108E0B74C4A1CA45C60
:10367000A94D8A1CAC544A1C1106090E9942F4DB70
:1036800004200022B04C2270A44A1278521CA34C91
:10369000227027E0AE4A1278002A1BD0AD4A127879
:1036A000022A17D1AA4A137812789B4C227003225F
:1036B0006270002108E0A64C4A1CA45C964D8A1C4E
:1036C000AC544A1C1106090E9942F4DB0420002276
:1036D0009F4C22700022914C227003E000228F4CFC
:1036E0002270C046C046421C1006000E042800DAB4
:1036F00019E770BC70479849097800297ED096492F
:103700004978002906D001292BD0022950D003295D
:1037100026D181E090490978002921D08F49097884
:1037200000291DD18E4A117000200EE08A4A811CAA
:10373000515C8C4A8A4B1B78D15489490978491CC1
:10374000874A1170411C0806000E8349097881429E
:10375000ECDC81490978814A117000217E4A1170A0
:103760008CE07D490978002921D07F49097800291A
:103770001DD17E4A117000200EE0774A811C515CF9
:103780007B4A7A4B1B78D15478490978491C774A8F
:103790001170411C0806000E6F4909788142ECDC6B
:1037A0006D490978704A117000216B4A117065E00B
:1037B0006649097802292ED1674989780906664A3F
:1037C000D27812041143644A127912021143624AF8
:1037D00052791143674A1160002008E05E4A811D5A
:1037E000525C6449091D0A54411C0806000E082851
:1037F000F4DB5949897B5F4A117300E03FE0564989
:10380000C97B51735449097C91735349497CD173E5
:103810000021514A117031E04E49097802292CD11A
:103820004D49897809064C4AD278120411434A4A14
:10383000127912021143484A527911434E4A1160DB
:10384000002008E0444A811D525C4B49091D0A547E
:10385000411C0806000E0828F4DB3F49897B464AD4
:1038600011733D49C97B51733B49097C91733A49B6
:10387000497CD1730021384A1170C046C046704758
:1038800000200DE03D49095C3D4A3E4B1B78D15478
:103890003C490978491C3B4A1170411C0806000E3E
:1038A000364909788142EDDC34490978364A127884
:1038B0008918354A1170704700200DE03349095CC2
:1038C000334A344B1B78D15432490978491C314A68
:1038D0001170411C0806000E2C4909788142EDDC6C
:1038E0002A4909782C4A127889182B4A1170704796
:1038F000F8B52A4E0027E12149020020FDF710F813
:10390000E12149020220FDF70BF800201E49087052
:1039100015490870002443E010230040E0000040F7
:103920001D000040200000403D0100403C010040DF
:10393000701F00401F000040210000404501004072
:10394000702100404401004090230040E10000400D
:1039500090240040E2000040502300403901004024
:103960003A010040902600404101004042010040E1
:103970009029004094010040A4010040701E0040C6
:10398000902800403F0100403E0100407020004070
:10399000902700403701004036010040FCFFFF0047
:1039A000FF490870FF490870C04604200AF06CFF08
:1039B000FD48007800282BDDFA480078002827D140
:1039C000FA480078F8490978884205D1FFF774FF72
:1039D0000020F5490870D6E2F34800781228FADB97
:1039E000F24800784528F6D1F04840786E28F2D1A8
:1039F000EE4880787428EED1EC48007C3E28EAD16D
:103A0000EA48407C2028E6D10020E7490870BAE265
:103A1000E44800780028DED0E4480078E2490978DC
:103A200088427ED1DE4800780128FAD10020DE49A4
:103A30000870DE480078052874D1DC4840780028FA
:103A40007ED1DA48807801287AD1D848C078012818
:103A500076D1D6480079032872D10220D049087067
:103A60000020D3490870D0490870D2490870D24963
:103A70000870D24908704521D14A1078421CD04BB9
:103A80001A70D04A115472211A001078421C1A7010
:103A9000CC4A115461211A001078421C1A70C94A8C
:103AA000115473211A001078421C1A70C54A11541F
:103AB00065211A001078421C1A70C24A1154202144
:103AC0001A001078421C1A70BE4A115444211A0080
:103AD0001078421C1A70BB4A11546F211A001078DA
:103AE000421C1A70B74A11546E211A001078421CF9
:103AF0001A70B44A115465211A001078421C1A70C9
:103B0000B04A115421211A001078421C1A70AD4A93
:103B100011540D211A001078421C1A70A94A115430
:103B200001E08EE00CE00A211A001078421C1A70A5
:103B3000A44A1154A44800780D30A3490870A34E3C
:103B40009A48007806287BD1984840780028FAD116
:103B5000964880780128F6D19448C0780128F2D19F
:103B6000924800790328EED100208D4908709049D1
:103B700008708D4908708F4908708F4908708F4907
:103B8000087045218E4A1078421C8D4B1A708D4A60
:103B9000115472211A001078421C1A70894A11546B
:103BA00061211A001078421C1A70864A1154732140
:103BB0001A001078421C1A70824A115465211A00AA
:103BC0001078421C1A707F4A115420211A00107874
:103BD000421C1A707B4A115445211A001078421C6D
:103BE0001A70784A115472211A001078421C1A7007
:103BF000744A11541A001078421C1A70714A1154F8
:103C000021211A001078421C1A706E4A11541A00B1
:103C10001078421C1A706B4A11540D211A0010784A
:103C2000421C1A70674A11540A211A001078421C6B
:103C30001A70644A1154644800780D306249087063
:103C400086E0594800781228FADB58480078452861
:103C50007ED1564840786E287AD1544880787428AE
:103C600076D15248007C3E2872D15048407C2028B2
:103C70006ED14B48007801286AD100204A4908706B
:103C80004C4908704C4908704C4908704849087004
:103C900049214B4A1078421C494B1A70494A115429
:103CA0006E211A001078421C1A70464A11542021C5
:103CB0001A001078421C1A70424A115442211A000C
:103CC0001078421C1A703F4A11546F211A00107864
:103CD000421C1A703B4A11541A001078421C1A7088
:103CE000384A115474211A001078421C1A70354A4F
:103CF000115420211A001078421C1A70314A1154B4
:103D00004E211A001078421C1A702E4A11546F214D
:103D10001A001078421C1A702A4A115477211A008E
:103D20001078421C1A70274A11540D211A0010787D
:103D3000421C1A70234A11540A211A001078421C9E
:103D40001A70204A1154204800780D301E4908701E
:103D50001348007802287ED1134800780528FAD14C
:103D6000124800780528F6D1104840780028F2D192
:103D70000E4880780128EED10C48C0780328EAD19B
:103D80000A48007902287FD1002005490870552192
:103D90000B4A1078421C0A4B1A700A4A115417E059
:103DA00034070040350700401E00004070200040EE
:103DB0001C0000403F010040400100403E01004027
:103DC000370100409027004036010040FCFFFF0F04
:103DD00070211A001078421C1A70FF4A1154642195
:103DE0001A001078421C1A70FB4A115461211A0003
:103DF0001078421C1A70F84A115474211A00107875
:103E0000421C1A70F44A115465211A001078421CA1
:103E10001A70F14A115420211A001078421C1A70AD
:103E2000ED4A115444211A001078421C1A70EA4AD3
:103E300011546F211A001078421C1A70E64A11546E
:103E40006E211A001078421C1A70E34A1154652141
:103E50001A00107800E017E0421C1A70DE4A115474
:103E60000D211A001078421C1A70DB4A11540A21E5
:103E70001A001078421C1A70D74A1154D74800789B
:103E80000D30D64908707EE0D548007802287AD1F6
:103E9000D4480078062876D1D3480078062872D115
:103EA000D148407800286ED1CF48807801286AD167
:103EB000CD48C078012866D1CB480079032862D16B
:103EC0000020C74908705521C84A1078421CC74BCA
:103ED0001A70C14A115470211A001078421C1A70CD
:103EE000BD4A115464211A001078421C1A70BA4A53
:103EF000115461211A001078421C1A70B64A1154EC
:103F000074211A001078421C1A70B34A11546521AA
:103F10001A001078421C1A70AF4A115420211A005E
:103F20001078421C1A70AC4A115445211A001078BE
:103F3000421C1A70A84A115472211A001078421CAF
:103F40001A70A54A11541A001078421C1A70A24A1D
:103F5000115421211A001078421C1A709E4A1154E3
:103F60000D211A001078421C1A709B4A11540A2124
:103F70001A001078421C1A70974A1154974800781A
:103F80000D30964908709548007800281CD006200E
:103F900097494860914801780020FCF77CFD00209B
:103FA0008E4908709148007892490978884208D172
:103FB0008E480078002804D000208C4908708D4974
:103FC000087007208A4948608B48007800281CD078
:103FD00006208A494860884801780220FCF75BFD8A
:103FE000002085490870864800788649097888420B
:103FF00008D184480078002804D000208049087047
:104000008049087007207D4948607F480078002873
:1040100032D07E48007800282ED17B4908700025D8
:1040200007E07B48405D00190406240E681C050665
:104030002D0E77480078A842F3DC002C13D1744889
:104040004078012804D17249C87806F0CBFB0EE015
:104050006F484078022803D06D484078052806D183
:10406000FFF70EFC03E06A49C87806F022FB002047
:1040700068490870002405E166480078002821D0CE
:104080005748007801281DD160480078012819D1CF
:10409000604800785849087000250BE05C49495D8C
:1040A000574A1078421C564B1A705B4A1154681CD0
:1040B00005062D0E504800788542EFDB002055495B
:1040C0000870DFE04648007802281ED15148007889
:1040D00010281AD100204F490870FF26F5364648AF
:1040E000007810304449087000250BE04849495DCC
:1040F000434A1078421C424B1A70474A1154681CBC
:1041000005062D0E102DF1DBBCE0354800780228A5
:10411000B1D1404800781028ADDA761E002EAAD121
:10412000FF26F5363B4800780028A4D032480078B6
:10413000384909784018304908700020354908701E
:1041400000250BE03249495D2D4A1078421C2C4B6A
:104150001A70314A1154681C05062D0E2D4800783E
:104160008542EFDB5521214A1078421C1F4B1A7003
:10417000194A115470211A001078421C1A70164AFC
:10418000115464211A001078421C1A70124A1154FA
:1041900061211A001078421C1A700F4A11547421C0
:1041A0001A001078421C1A700B4A115465211A002B
:1041B0001078421C1A70084A115420211A001078F5
:1041C000421C1A70044A115444211A001078421CEF
:1041D0001A70014A115421E0902700403601004036
:1041E000340700401E0000407020004037010040AE
:1041F00000C000E0380100403E010040008007E0C0
:104200003F010040400100402200004035070040CF
:10421000701E00401C000040902800406F211A00D2
:104220001078421C1A70DA4A11546E211A00107864
:10423000421C1A70D64A115465211A001078421C8B
:104240001A70D34A115421211A001078421C1A7096
:10425000CF4A11540D211A001078421C1A70CC4A12
:1042600011540A211A001078421C1A70C84A1154BD
:10427000C84800780E30C74908700020C649087049
:10428000C6490870C6480078012819D1C14800788D
:10429000002815D1C34800680AF0C2FEC248006871
:1042A0000AF0BEFEC14800680AF0BAFEC0480068C5
:1042B0000AF0B6FE09F0F5FA0020B94908701CE0D2
:1042C000BC480078802803D1BB480078002803D17F
:1042D000BA480078002810D00020B6490870B649C6
:1042E000087006F088F87F1C01204002874204D93C
:1042F0000020B349087001277F02B14800780028E8
:1043000003D0FDF716FCFFF750FBAD4800780028FE
:10431000F9D1C046FEE710B50020AA498862FEF731
:1043200059FE0020A8490870FEF79EF8A748FDF73F
:104330002FFC00220821A64813000AF03FFEA549E1
:104340000860FDF7DBFB0020A3490870A349087053
:10435000A3490870A349087000220921A24813004C
:104360000AF02CFE924908600020A0490870A0497C
:1043700008700AF055FE10BC08BC184710B505F0CF
:1043800062FB002211009B4813000AF0A7FD0020E9
:1043900010BC08BC184710B5C0469748007B0028E1
:1043A0000CD096480078022808D10F2212029249B8
:1043B0000120FCF708F900208F4908739048007B22
:1043C00000280BD08F480078022807D10F22120254
:1043D0008B49FCF7F8F800208949087364200AF03B
:1043E00053FADAE710B588B0C046FF2204A90120CD
:1043F000FCF74DF900282AD180480078022826D100
:104400001020814908700498000E4870049800023A
:10441000000E887004980004000EC870049808719B
:10442000002407E005A8015D774A601D1154601C57
:104430000406240E6B46187FA042F3DC187F7249F5
:104440004873587F8873987FC873D87F0874FF2299
:1044500069460220FCF71BF90028C6D1694800789C
:104460000228C2D11020694908700098000E4870D7
:1044700000980002000E887000980004000EC870BA
:1044800000980871002407E001A8015D5F4A601DE3
:104490001154601C0406240E6B46187BA042F3DC0A
:1044A000187B5A494873587B8873987BC873D87BAC
:1044B00008749AE710B5E12149020120FCF730FAAF
:1044C0000120534908700020524908705249087071
:1044D000524908705249087052490870C04602207B
:1044E0000AF0D2F94B4800780028F8D04848007804
:1044F0000028F4D0FDF71DFB06204B4948604548D5
:1045000001780120FCF7C7FAFDF713FB00204149B1
:1045100008704149087041490870072042494860C5
:10452000DDE710B5E12149020320FCF7F9F901208C
:104530003E49087000203E4908703E4908703E49D7
:1045400008703E4908703E490870C04602200AF0D3
:104550009BF9374800780028F8D0344800780028C4
:10456000F4D0FDF7E6FA0620364948603048017875
:104570000320FCF790FAFDF7DCFA00202C490870C4
:104580002C4908702C49087007202E494860DDE747
:1045900090270040360100403507004034070040B6
:1045A0008D01004004010040080100401C01004052
:1045B000180100400D0700400C0700408B0100402F
:1045C0006C00004000C002E02001004040420F00AB
:1045D000F13800000C0100401C0000401E000040AB
:1045E0003701004038010040D99A00001D07004003
:1045F0001E0700401743000094010040E100004006
:10460000A4010040E20000409023004090240040BC
:1046100000010040390100403A0100403B010040E8
:104620003C0100403D010040000001E0010100406C
:10463000410100404201004043010040440100406C
:104640004501004000C007E070B514250921FF486E
:1046500002780078401CFD4B1870FD488154002101
:10466000180002780078401C1870F9488154012124
:10467000180002780078401C1870F5488154082210
:10468000180001780078401C1870F148425402224A
:10469000180001780078401C1870ED484254ED482D
:1046A0000078C0210840802808D100211800027835
:1046B0000078401C1870E648815420E0E5480078F6
:1046C0003021084020280AD10121E04802780078F2
:1046D000401CDE4B1870DE4881546D1C0FE0DD4835
:1046E00000780C210840082809D10221D748027817
:1046F0000078401CD54B1870D5488154AD1CD64964
:104700000968D64A8818C82109F08EFB04002004E5
:10471000020ECE4801780078401CCC4B1870CC4873
:104720004254200A4519180002780078401C18707D
:10473000C74884542D19FF20401B401C0106090E58
:10474000180002780078401C1870C1488154C44891
:1047500000780930C249087070BC08BC184710B412
:1047600013200722B9490B780978491CB74C2170EE
:10477000B749CA54002221000B780978491C2170DE
:10478000B349CA54012221000B780978491C2170D1
:10479000AF49CA54092221000B780978491C2170BD
:1047A000AB49CA54022321000A780978491C2170B8
:1047B000A7498B54A7490978C0221140402908D144
:1047C000002321000A780978491C2170A0498B54E4
:1047D00020E0A04909783022114010290AD1012394
:1047E0009A490A780978491C984C217098498B5449
:1047F000401C0FE0974909780C221140042909D187
:10480000022392490A780978491C904C21709049FA
:104810008B54801CFF21091A491C0A06120E8B4971
:104820000B780978491C894C21708949CA548C49F4
:104830000978C91D8A4A117010BC704770B50026EE
:1048400088480078802108438649087086480079A6
:10485000032810D1844840790002FF210902084052
:104860000500814880794519C8235D437A4800686E
:104870004019794908607C48007902286AD11426D9
:104880000821724802780078401C704B18707048FC
:1048900081540021180002780078401C18706C4880
:1048A00081540121180002780078401C1870684873
:1048B00081540821180002780078401C1870644860
:1048C00081540321180002780078401C1870604859
:1048D0008154654840790002FF2109020840050023
:1048E000614880794519C8235D435B4800684019D9
:1048F000594908600968594A8818C82109F094FA8A
:1049000004002004010E514802780078401C4F4BEF
:1049100018704F488154200A80190606360E180078
:1049200002780078401C18704948845430190606F3
:10493000360EFF20801B401C0106090E180002786D
:104940000078401C1870424881544548007808306F
:104950004349087070BC08BC18474448806901216D
:1049600089060843414988610120800648617047F3
:104970003E4880690121890608433C49886101203D
:104980008006C861704710B5FFF7F2FF9820FBF76B
:10499000F0FEFBF7FBFE0020FBF7EBFEFBF7F6FE5D
:1049A0009920FBF7E6FEFBF7F1FE002408E0304912
:1049B000085DFBF7DEFEFBF7E9FE601C0406240E33
:1049C000402CF4DBFFF7C9FF10BC08BC184710B53A
:1049D000FFF7CEFF0020FBF7CCFEFBF7D7FE254903
:1049E0000870FBF7D3FE24490870FBF7CFFE23497C
:1049F0000870FBF7CBFE22490870FBF7C7FE214980
:104A00000870FBF7C3FE20490870FBF7BFFE1F4983
:104A10000870FFF7A2FF1D4800781D4908701A486A
:104A200000781C490870154800781B490870124826
:104A300000781A490870124800781949087011481E
:104A400000781849087010BC08BC184737010040AE
:104A500090270040F606004074010040C05D000051
:104A600036010040F4060040701E0040008002E065
:104A70009C2A00405601004055010040570100406B
:104A800058010040590100405A0100405B010040BC
:104A90002107004022070040230700402407004070
:104AA000250700402607004010B5FFF790FFF948A2
:104AB0000078F9490870F94800784870F84800789B
:104AC0008870F8480078C870F74800780871F7488F
:104AD00000784871F64800788871F6480078C87107
:104AE000FFF751FF10BC08BC184710B50024002088
:104AF000F14908701CE0642009F0C6FE641CEF4810
:104B00000068844214D30024EB480078012803D1C4
:104B10000020E94908700BE0DE480078002807D142
:104B20000120DC490870FFF7BFFF8020E2490870D0
:104B3000E1E710B50020E2490870E248407900281A
:104B40000FD0E148007800280BD100220A21DF486D
:104B500013000AF033FADE4908600120DA490870D0
:104B60000EE0D848407900280AD1D74800780028BC
:104B700006D0D74800680AF053FA0020D2490870DE
:104B800010BC08BC184710B50400A100D14A505809
:104B900009F02EF810BC08BC18470020CE49087058
:104BA000CE480069012109048843CC4908610020EE
:104BB000C3490870C3490870C9490870C9490870D9
:104BC000C9490870C9490870C9490870C9490860CD
:104BD000C9490860C9490860C9490860C9490860ED
:104BE000C949087070470020C74908707047002005
:104BF000C549087070470020C349087070470020FD
:104C0000B5490870BE490860BF480078401CBE49DD
:104C100008707047B148006901210904084208D0B2
:104C2000AE4880690843AD49886101200004C8612D
:104C300006E0AA488069012109048843A7498861E0
:104C4000704700B5AE480068401CAD4908600800D8
:104C50000068C007C00F08D1FFF7DCFF0020A349A0
:104C60000870984908709C490870A54800684B2155
:104C7000C900884207D10020A1490860A2480078F5
:104C8000401CA149087008BC184700B59C48006842
:104C9000401C9B49086008000068C007C00F0FD186
:104CA0000860FFF7B7FF98480078401C96490870E5
:104CB00000208E49087083490870012086490870D9
:104CC00008BC184700B58E480068401C8C49086035
:104CD00008000068C007C00F02D10860FFF79AFF04
:104CE000774800780821084204D080207449087071
:104CF000FFF735FD08BC184710B581480068401C17
:104D00007F49086008000068C007C00F11D1086023
:104D1000FFF780FF00207D4908700820684908706F
:104D2000FFF792FC78480078FC210840801C764907
:104D3000087010BC08BC184700B571480068401CDA
:104D40006F49086008000068C007C00F0CD10860F8
:104D5000FFF760FF00206A4908606B480078FC217B
:104D60000840401C6849087008BC184710B56448E2
:104D700000686749884212D15F480068002807D060
:104D80005D480068401E5C490860FFF743FF28E06B
:104D90005D480078FC2108405B49087021E05848D4
:104DA0000068401C5649086008000068C007C00F32
:104DB00001D1FFF72FFF524800688006800E10D106
:104DC0005248007805280CDC3D48007880210840D6
:104DD000802806D0FFF738FC4C480078401C4B492F
:104DE000087010BC08BC184710B52A480078002885
:104DF00004D10E2027490870FFF756FE10BC08BCEE
:104E0000184736488069012149028843334988613F
:104E1000704710B500203A4908603B4800780421EB
:104E200008433949087000202B4908702B48006955
:104E300001210904884329490861FFF7E2FF0020A6
:104E40001F4908701F4908702549087025490870D6
:104E500025490870254908702549087025490860CA
:104E600025490860FFF7C0FF10BC08BC18470020A8
:104E700023490860704724480078FC2108402249F3
:104E80000870704720480078FC2108401E490870CF
:104E9000704700008B0100409C2A004056010040F2
:104EA00055010040570100405801004059010040A1
:104EB0005A0100405B0100400D07004078010040AE
:104EC000F4060040701E00401D070040EB4A000041
:104ED0001C010040B401004069010040008002E074
:104EE0009027004037010040380100401C0000407E
:104EF0000C070040100700407401004060010040B2
:104F000064010040EC060040F60600406A010040E3
:104F1000C05D0000F9480078FC210840F74908709E
:104F200070470020F6490870F4480078401CF349A7
:104F300008700020F3490860704700B5F148006828
:104F4000401CF049086008000068C007C00F08D185
:104F5000FFF760FE0020EC490870EC490870E84952
:104F60000870E84800684B21C900884207D100203A
:104F7000E4490860E1480078401CE049087008BC3A
:104F8000184700B5DF480068401CDE49086008008B
:104F90000068C007C00F0FD10860FFF73BFED7487D
:104FA0000078401CD54908700020D7490870D749BF
:104FB00008700120D249087008BC184700B5D148D4
:104FC0000068401CCF49086008000068C007C00F97
:104FD00002D10860FFF71EFECD4800780821084284
:104FE00004D08020CA490870FFF7B9FB08BC1847F5
:104FF0000020C3490870C1480078401CBF490870B0
:105000000020C0490860704700B5BE480068401CD9
:10501000BC49086008000068C007C00F08D1FFF74E
:10502000F9FD0020B8490870B8490870B449087003
:10503000B44800684B21C900884207D10020B1491B
:105040000860AE480078401CAC49087008BC18479E
:1050500000B5AC480068401CAA4908600800006818
:10506000C007C00F0FD10860FFF7D4FDA348007838
:10507000401CA24908700020A3490870A349087089
:1050800001209F49087008BC184700B59D4800687A
:10509000401C9C49086008000068C007C00F02D18E
:1050A0000860FFF7B7FD9A4800780821084204D04D
:1050B000802097490870FFF752FB08BC1847002072
:1050C0008F4908708D480078042108438B49087087
:1050D00008000078401C087000208A4908608D494B
:1050E0000860704700B587480068401C8549086023
:1050F00008000068C007C00F08D1FFF78BFD002033
:1051000081490870814908707D4908707D480068B0
:105110004B21C90088420CD100207A4908607748A9
:105120000078042108437549087008000078401C85
:10513000087008BC184700B572480068401C7149E7
:10514000086008000068022815D100200860FFF7F9
:1051500061FD6A4800780421084368490870080026
:105160000078401C08700020674908706749087083
:1051700001206349087008BC184700B55F480078F3
:10518000042108435D4908705E480068401C5D4981
:10519000086008000068022803D100200860FFF7BB
:1051A00039FD5B4800780821084204D08020584926
:1051B0000870FFF7D4FA08BC18470020504908705F
:1051C0004E480078401C4D49087000204D49086049
:1051D000704700B54B480068401C4A490860080009
:1051E0000068C007C00F08D1FFF714FD0020464932
:1051F00008704649087042490870424800684B21CF
:10520000C900884207D100203E4908603B48007829
:10521000401C3A49087008BC184700B53948006876
:10522000401C3849086008000068022810D100209E
:105230000860FFF7EFFC31480078401C2F490870E8
:105240000020314908703149087001202C4908704C
:1052500008BC184700B52B480068401C2949086065
:1052600008000068022803D100200860FFF7D2FC84
:10527000274800780821084204D08020244908707B
:10528000FFF76DFA08BC184710B51E480068401CAF
:105290001C49086008000068C007C00F11D10860F1
:1052A000FFF7B8FC00201C49087008201849087056
:1052B000FFF7CAF911480078FC210840801C0F490B
:1052C000087010BC08BC184700B50E480068401CA8
:1052D0000C49086008000068C007C00F0CD10860C6
:1052E000FFF798FC05480078FC210840401C034962
:1052F000087000200349086008BC1847F606004003
:1053000069010040EC0600401C000040701E004097
:10531000F4060040640100406A01004010B5FF48F7
:105320000068FF49884212D1FE480068002807D073
:10533000FC480068401EFB490860FFF76BFC28E052
:10534000F9480078FC210840F749087021E0F3484B
:105350000068401CF149086008000068C007C00FE1
:1053600001D1FFF757FCED4800688006800E10D190
:10537000EE48007805280CDCED48007880210840D4
:10538000802806D0FFF760F9E8480078401CE7491C
:10539000087010BC08BC184710B50020DF49086031
:1053A000E148007810210843DF4908700020E149F6
:1053B0000870E1480069012109048843DE49086159
:1053C0000020DB490870DD490870DD490870DD49BF
:1053D0000870DD490870DD490870DD490870DD4955
:1053E0000860D0490860FFF7FFFC10BC08BC1847F4
:1053F00010B5CA480068401CC84908600800006829
:10540000C007C00F11D10860FFF704FC0020C74996
:1054100008700820C6490870FFF716F9C2480078DE
:10542000FC210840801CC049087010BC08BC18470B
:1054300000B5BA480068401CB84908600800006818
:10544000C007C00F0CD10860FFF7E4FBB648007836
:10545000FC210840401CB44908700020AF49086096
:1054600008BC184710B5AD480068AD49884212D154
:10547000AC480068002807D0AA480068401EA94927
:105480000860FFF7C7FB28E0A7480078FC21084028
:10549000A549087021E0A1480068401C9F490860A8
:1054A00008000068C007C00F01D1FFF7B3FB9B489D
:1054B00000688006800E10D19C48007805280CDC1E
:1054C0009B48007880210840802806D0FFF7BCF870
:1054D00096480078401C9549087010BC08BC1847D5
:1054E00010B500208D4908608F48007810210843CE
:1054F0008D49087008000078F02108408A4908703A
:1055000000208C4908708C480069012109048843F7
:1055100089490861002086490870884908708849CF
:105520000870884908708849087088490870884957
:105530000870884908607B490860FFF755FC10BC7B
:1055400008BC184710B575480068401C73490860CE
:1055500008000068C007C00F11D10860FFF75AFBB0
:10556000002072490870082071490870FFF76CF834
:105570006D480078FC210840801C6B49087010BC05
:1055800008BC184700B565480068401C63490860BE
:1055900008000068C007C00F0BD1FFF73BFB624853
:1055A0000078FC210840401C5F49087000205B49DE
:1055B000086008BC184710B5584800685849884228
:1055C00012D158480068002807D056480068401E8D
:1055D00054490860FFF71EFB28E053480078FC217F
:1055E00008405149087021E04C480068401C4B4974
:1055F000086008000068C007C00F01D1FFF70AFB70
:10560000464800688006800E10D14848007805287A
:105610000CDC4748007880210840802806D0FFF73E
:1056200013F842480078401C4049087010BC08BC80
:10563000184710B50020394908603B48007814210C
:1056400008433949087000203A4908703A4800690F
:105650000121090488433849086100203449087051
:10566000364908703649087036490870364908705E
:10567000364908703649087036490860294908607B
:10568000FFF7B2FB10BC08BC184710B523480068F0
:10569000401C2249086008000068C007C00F11D1F3
:1056A0000860FFF7B7FA0820204908700020204959
:1056B0000870FEF7C9FF1C480078FC210840801CD8
:1056C0001949087010BC08BC184700B51348006899
:1056D000401C1249086008000068C007C00F0BD1C9
:1056E000FFF798FA10480078FC210840401C0E494A
:1056F000087000200949086008BC184710B5074821
:1057000000680749884231D106480068002826D041
:1057100004480068401E034908601DE0EC06004094
:10572000C05D000074010040F60600406A010040C0
:10573000F406004069010040008002E0701E004055
:105740009027004037010040380100401C00004015
:105750000C07004010070040FFF75CFA28E0FE4805
:105760000078FC210840FC49087021E0FB480068F3
:10577000401CFA49086008000068C007C00F01D14A
:10578000FFF748FAF54800688006800E10D1F4480B
:10579000007805280CDCF348007880210840802838
:1057A00006D0FEF751FFEE480078401CEC49087027
:1057B00010BC08BC184710B50020E8490860E6484E
:1057C000007810210843E44908700020E649087079
:1057D000E6480069012109048843E4490861002082
:1057E000E0490870E2490870E2490870E24908702F
:1057F000E2490870E2490870E2490870E24908602D
:10580000E2490860FFF7F0FA10BC08BC1847002016
:10581000D24908607047D0480078FC210840CE4942
:1058200008707047CC480078FC210840CA490870CD
:105830007047C9480078FC210840C7490870704784
:105840000020C9490870C4480078401CC24908704B
:105850000020CF490860704700B5CD480068401C63
:10586000CB49086008000068C007C00F08D1FFF7E7
:10587000D1F90020C2490870BD490870BA490870C2
:10588000C34800684B21C900884207D10020C049A5
:105890000860B1480078401CAF49087008BC184740
:1058A00000B5BB480068401CB949086008000068A2
:1058B000C007C00F0FD10860FFF7ACF9A648007809
:1058C000401CA54908700020AD490870A84908701F
:1058D0000120A549087008BC184700B5AC4800680D
:1058E000401CAB49086008000068C007C00F02D127
:1058F0000860FFF78FF99B4800780821084204D020
:10590000802098490870FEF72AFF08BC184710B598
:105910009F480068401C9E49086008000068C00756
:10592000C00F11D10860FFF775F900208C4908708D
:1059300008208C490870FEF787FE87480078FC2114
:105940000840801C8449087010BC08BC184700B58A
:105950008F480068401C8E49086008000068C00736
:10596000C00F0CD10860FFF755F900208849086086
:1059700079480078FC210840401C7749087008BC31
:10598000184710B5824800688249884212D17F4882
:105990000068002807D07D480068401E7B490860E9
:1059A000FFF738F928E06C480078FC2108406A4984
:1059B000087021E076480068401C754908600800BE
:1059C0000068C007C00F01D1FFF724F970480068D4
:1059D0008006800E10D16248007805280CDC6148F2
:1059E000007880210840802806D0FEF72DFE5C4814
:1059F0000078401C5A49087010BC08BC184710B504
:105A00000020634908605448007804210843524943
:105A100008700020544908705448006901210904A5
:105A200088435249086100204E4908705049087067
:105A30005049087050490870504908705049087022
:105A4000504908705049086050490860FFF7CCF988
:105A500010BC08BC184700204D4908603F49086049
:105A600070473D480078FC2108403B49087070476A
:105A700039480078FC21084037490870704736489B
:105A80000078FC2108403449087070473748806925
:105A90000121490208433549886101204002C8615B
:105AA000704700B53C480068401C3B490860002036
:105AB0002D490870FFF7EAFF374800687D2109018A
:105AC000884207D124480078401C234908700020F0
