:0400000500000000F7
:020000040000FA
:1000000018F09FE518F09FE518F09FE518F09FE5C0
:1000100018F09FE50000A0E120F11FE518F09FE532
:100020005400000040000000E4050100440000000E
:1000300048000000000000004C00000050000000DC
:10004000FEFFFFEAFEFFFFEAFEFFFFEAFEFFFFEA18
:10005000FEFFFFEAFC009FE5AA10A0E35520A0E305
:100060002030A0E3A03180E5A03190E5403013E2DC
:10007000FCFFFF0A0130A0E30C3180E50730A0E36C
:10008000843080E58C1080E58C2080E50130A0E391
:10009000803080E58C1080E58C2080E5883090E50C
:1000A000013313E2FCFFFF0A883090E5A8409FE58A
:1000B000043003E00740A0E3043033E0F9FFFF1A07
:1000C0000330A0E3043180E50330A0E3083180E58C
:1000D00088309FE5A83180E50A38A0E3AC3180E59F
:1000E0000330A0E3803080E58C1080E58C2080E533
:1000F00060009FE50410A0E3041080E50210A0E377
:10010000001080E558009FE5DBF021E300D0A0E17E
:10011000000040E2D7F021E300D0A0E1000040E27F
:10012000D1F021E300D0A0E1000040E2D2F021E3D1
:1001300000D0A0E1800040E2D3F021E300D0A0E1B4
:10014000200040E210F021E300D0A0E150A04DE2F9
:1001500010009FE510FF2FE100C01FE0FF7FFF00B0
:10016000800200A8D02700406C010000000000EAD7
:100170006F4000EA28008FE2000C90E800A08AE0BF
:1001800000B08BE001704AE20B005AE16840000ABF
:100190000F00BAE814E04FE2010013E303F0471048
:1001A00013FF2FE1A81C0100C81C010001C08FE251
:1001B0001CFF2FE18A18037801305C07640F01D11E
:1001C000047801301D1101D105780130013C05D0C2
:1001D000067801300E700131013CF9D11E0706D4BA
:1001E0002E1C0ED0013E8C55FCD1491909E0047833
:1001F00001300C1B0135267801340E700131013DB0
:10020000F9D59142D7D370470030A0E30040A0E376
:100210000050A0E30060A0E3102052E27800A12883
:10022000FCFFFF8A822EB0E13000A128003081451A
:100230001EFF2FE17847C04604309FE503308FE072
:1002400013FF2FE1010301000C009FE50C109FE557
:1002500004209FE508309FE51EFF2FE1E0260040C7
:1002600030270040E0260040C046FEE7C046704709
:10027000102089494861704710B504000120874962
:10028000086010204914C861002009110860FFF7B8
:10029000EFFF8348006844620121814800682030F4
:1002A000417001207E49096848707D48006811F05E
:1002B000E7F87C487A49086002207A494870784813
:1002C0000068406A10BC08BC1847774840680221A3
:1002D0000843754948607548704988610320486142
:1002E00001204860724873490861052072490880FE
:1002F00070477047684880691021084366498861E3
:10030000704766488068704764480068C007C00F3F
:10031000704761480069102108435F4908617047D0
:1003200010B5002404E00020A100644A5050641C71
:10033000122CF8D33022DB218900614810F0EAFC4E
:10034000604AFB210901604810F0E4FC10BC08BCC5
:10035000184710B55A4801DF10BC08BC184710B543
:1003600004005948A16A02DF2100554802DF10BC91
:1003700008BC184700207047C0467047FFB581B0E1
:10038000040015001E0000202070012060700298FB
:10039000A07000206060A060E0602061A082E08228
:1003A0002083608321200655608C002805D0618C55
:1003B00089108900A06A471805E0434801DFA06260
:1003C000A06A0700C837381F070005603F48009043
:1003D000E807C00F03D02021009808430090391F80
:1003E0000F0000980860002E01D00D2000E00820CA
:1003F000009006E00020391F0F0008600098401EA2
:10040000009000980028F5D1002E03D0391F0F006E
:10041000E06908606762E56205B0F0BC08BC184797
:1004200000221F49096820314A701D4908600221D5
:1004300041702121095C012902D11F49091D086071
:100440001549096910221143134A1161704710B50B
:100450001F4840681849091D0968884207D01D488F
:100460000088401D1449088010BC08BC1847124879
:1004700000881849098888420CD10F480088401D1F
:100480000D490880124810F057FE04002100104862
:1004900010F0D6FFE8E7000000F0FFFF004000E0AA
:1004A000F407004070250040C0C01FE05FEA000074
:1004B0007C05010000F1FFFF00000040301B004000
:1004C00010080040C8000080800B00401000004071
:1004D000D0250040F807004003C08FE21CFF2FE149
:1004E0007047C046FEE7000010B501200F490870B4
:1004F00000200F49086001220E4900F0FEF8002894
:1005000002D110BC08BC18470B48410748600320C3
:100510000860AA208860552088600120F1E7AA20A1
:100520000721490788605520886070471000004007
:100530000C0000403C050000FFFF3F0003002DE9D8
:100540000E02A0E3000090E50400C0E30E12A0E359
:10055000000081E51C009FE5000090E5010080E2BD
:1005600010109FE5000081E50000A0E3000100E518
:100570000300BDE804F05EE20C00004010B527481F
:100580004078012804D002280ED0032812D10FE0B1
:100590000FF05CFA002404E02148005D2149085571
:1005A000641C402CF8DB05E0002010BC08BC184798
:1005B0000020FAE7C0460120F7E7184840780128F4
:1005C00004D0022804D0032806D103E0002070479D
:1005D0000020FCE70020FAE70120F8E70F48801E22
:1005E00080781149085C0F490870012070470B485A
:1005F00040780A49891E89780B4A50540120704777
:100600000A48007807490870012070470348801E97
:100610008078064908700120704700004A000040B9
:10062000F0220040941C00401200004011000040E5
:1006300010B5012002F0E2F8002801D1C046FEE723
:10064000002403E000201A490855641C202CF9D32B
:1006500002201849086000201749086098201449B2
:10066000087001204870002088700120134908603C
:1006700002F0FEF8002403E000200D490855641C38
:10068000202CF9D301200B49086002200A49086098
:100690009820074908700020487099208870002031
:1006A0000649086002F0E4F810BC08BC18470000D6
:1006B000141E0040C4000040C0000040B8000040CC
:1006C00010B40020431E1C03636100232411236027
:1006D0002401E360C0460CE083000F242402191BB0
:1006E0008300072464021A1B00230B600F2313608E
:1006F000401C2028F0D310BC704770B404000120C7
:10070000A0401C4B5861202C02D3002070BC7047C5
:10071000A0000F231B02C51AA00007235B02C61A04
:10072000296032600120A040124B18610120EDE7E2
:1007300000B5FF20401C1049486301220F491120D9
:10074000FFF7DBFF002801D108BC18470120FBE7B9
:1007500000B5FFF7EDFF012802D0002008BC1847C4
:1007600007484068FF21813108430549486001205E
:10077000F4E7000000F0FFFF808002E08407000043
:1007800040C11FE003002DE90800A0E36C109FE5C5
:10079000400181E568009FE5000090E5010080E2EE
:1007A0005C109FE5000081E558009FE5A80090E5FA
:1007B000010C10E30400000A48009FE5AC0090E53E
:1007C000010C80E33C109FE5AC0081E534009FE51F
:1007D000A80090E5020B10E30400000A24009FE546
:1007E000AC0090E5020B80E318109FE5AC0081E5BA
:1007F0000000A0E3000100E50300BDE804F05EE2B4
:1008000000C01FE018000040008002E0B1C08FE28D
:100810001CFF2FE1FEB504000D00661EB000FF496D
:10082000085802900027FE48854202D80C2001900B
:1008300003E0C046C0460A200190FA4801990FF033
:100840008DFE290000900FF089FE471EBF05BF0DE9
:1008500001988000F4490858074302984761002036
:10086000FEBC08BC1847F0B40200541EA000EB4BBD
:100870001E58087B00040F231B0418408B7B012BA0
:1008800001D1012700E00027FB071843CB7B012B98
:1008900001D1012700E00027BB0718430500F069DC
:1008A0000423184209D03563086870634868B06350
:1008B0008868F0632120706002E00420F0BC70477B
:1008C0000020FBE7F0B4421E9600D44FBD592B6ABE
:1008D000DE0F8E730126B6071E40B60FCE731E03C1
:1008E000360F0E736E6A0E60CE7B002E04D10C1D87
:1008F000AE6A40C4EE6A2660F0BC70470100012970
:1009000002D002293CD11CE0C848406801225203B1
:100910001043C64A5060C648006800090001C44A36
:1009200010601000006805221043C14A1060C148E1
:10093000C14AD0610120C14AD061C005C04A1061DE
:1009400020E0BA484068012292031043B74A506041
:10095000B74800680F2212029043B54A1060100099
:100960000068052252021043B14A1060B148B24AF1
:10097000D0610120B14AD061C005B14A106101E0E7
:1009800009207047C0460020FBE7F3B581B00400A2
:10099000651EAC4EA800A1490F580220306001200E
:1009A000386000203861B86020000299FFF732FFFC
:1009B000032038610020FEBC08BC184710B40100B9
:1009C0004A1E9000954C23580020186010BC7047B8
:1009D00070B50400651EA80090490E58611EC9003C
:1009E000994A8818002110F0CFFD01280DD0F06938
:1009F0000421084203D0002070BC08BC1847611EC7
:100A0000C900914A881810F0A1FD0420F4E7020003
:100A100001207047FFB484B00498401E03908948B9
:100A200002908A498A4B0020185E401C40109B1C93
:100A30000027DF5FC01901235B02984203DB05201A
:100A400008B0F0BC70470120029B1860079800288E
:100A50007AD10398400302437E4802407C480088D4
:100A6000C007C00F1ED17A48801C0088002819D00A
:100A700077480023C35E5C10801C0023C35E009394
:100A8000A0000D5807E0601C00040414A0000E58DC
:100A9000A0000D5035000098431E1B041B1400934A
:100AA0000028F0D16A480088002804D110046A4B5D
:100AB0001843086083E06648008801280FD1086861
:100AC000000C904205D90868000C13041843086014
:100AD00075E00868000C0004104308606FE0002413
:100AE0005B4B185F01901800035F581EC003001491
:100AF000009017E0A0000858000C904203D9600451
:100B00000014019011E0A00008580004000C90426D
:100B100005D96000401C00040014019005E0601C31
:100B20000004041400988442E4DDC0460098844226
:100B300013DD47480088C007C00F06D11004464B9C
:100B40001843A300C8503AE041E0A0000858000C48
:100B500000041043A300C85031E0A0000D580198D4
:100B6000C007C00F04D110042B0C1843060003E08B
:100B7000280C000410430600A0000E503448002347
:100B8000C35E581000900AE0601C00040414A0002A
:100B90000E58300C2B041843A300C85035000098A1
:100BA0008442F1DB2A480088C007C00F07D1A000AB
:100BB0000858000C0004284BC018A300C850244853
:100BC0000088401C00040014214B188064E0039846
:100BD000400702431E4B0020185E401C44100020BA
:100BE00001900CE0A0000858904200D90EE0601C73
:100BF000000404140198401C000400140190144BDC
:100C00009B1C0027DF5F0198B842EBDBC046A000C9
:100C10000D58A0000A500E48801C1FE01C00004028
:100C200020A1070000366E01581D0100C0C01FE062
:100C300000C002E0D80C000040F1FFFF40F2FFFFCF
:100C400000F0FFFF00C003E0841C0040008003E0D0
:100C500024000040FFF70000FFFF00000088401C58
:100C6000000400141B4B188018000088401E00046C
:100C7000001400900CE0601C000404140198401C57
:100C8000000400140190A0000E58A0000D50350083
:100C9000009B01989842EEDB0E4B9B1E0020185ED5
:100CA000401C40108500981C0023C35E9800461924
:100CB000002302984360029885600298C5600298FC
:100CC000066102984661029803600020B8E60300BE
:100CD00000207047260000401F502DE904D04DE24F
:100CE00020019FE5080090E5010010E30900000ADB
:100CF00014019FE50C00D0E5000050E30200001A4B
:100D000004119FE50100A0E3BFFEFFEB0400A0E398
:100D1000F0109FE5040081E5F0009FE5080090E5F4
:100D2000010010E30900000AE4009FE50C00D0E593
:100D3000000050E30200001AD4109FE50200A0E377
:100D4000B1FEFFEB0400A0E3C0109FE5040081E5C5
:100D5000B0009FE5080090E5080010E30D00000AD0
:100D60000D10A0E1AC009FE50A4000EB000050E34D
:100D70000600000A0100A0E300109DE55B3E00EBC9
:100D800094009FE500109DE5020000EF010000EADD
:100D900088009FE5144000EB70009FE5080090E597
:100DA000080010E30D00000A0D10A0E170009FE59F
:100DB000F83F00EB000050E30600000A0200A0E349
:100DC00000109DE5493E00EB4C009FE500109DE5BD
:100DD000020000EF010000EA48009FE5024000EB3E
:100DE00020009FE50C4090E5010980E20C4090E571
:100DF0000000E0E30010A0E3000101E504D08DE273
:100E00001F50BDE804F05EE2004004E0781B0040A3
:100E1000008004E0881B0040241C0040981B004018
:100E2000841C0040441C00408C1C0040F8B50500A8
:100E30000E006F1EF900754A8818012110F05AFB48
:100E40007348007800280DD10120714908701022E4
:100E50008C2170480FF05EFF012803D10220F8BCFE
:100E600008BC184779016C4A8818202110F079F9DC
:100E70002800FFF743FD0400002C01D02000EEE71E
:100E800031002800FFF781FDE9E710B504002000DC
:100E9000FFF794FD10BC08BC1847F7B505000E001D
:100EA0006F1E2800FFF794FD002804D131002800B0
:100EB000FFF7D9FC1EE0574801DF0400002C17D0D3
:100EC0000FCE0FC4103E103C7901534A8818210000
:100ED000029A10F09DF901280CD121004D4802DF43
:100EE000012803D10720FEBC08BC18470820FAE7F8
:100EF0000620F8E70020F6E770B504000D001600A4
:100F00000020E873320029002000FFF7C6FF70BC04
:100F100008BC184770B504000D0016000120E873E6
:100F2000320029002000FFF7B8FF70BC08BC18474A
:100F3000F8B504000D001600370000200090C046F0
:100F40002000FFF745FD00280ED129002000FFF703
:100F50005EFD0090611EC9002C4A881810F0F6FA58
:100F60000020F8BC08BC18472C48864200D17F1CE2
:100F70007F1E012010F016F8002FE1DA0820F0E7BC
:100F8000F8B504000D001600671E3901244A8818C0
:100F90003200694610F094F9012803D10820F8BC0A
:100FA00008BC184700980FC80FC5103D1948009994
:100FB00002DF012801D10720F1E70020EFE770B53B
:100FC00004000D001600320029002000FFF7D8FFB2
:100FD00070BC08BC1847F8B505000E0017001C00CF
:100FE00023003A0031002800FFF714FDF8BC08BCCC
:100FF000184770B504000D001600320029002000CB
:10100000FFF765FE70BC08BC18470000841C004058
:1010100028000040981B0040241C0040FFFF0000F7
:10102000641C004010B504004248406801210903D7
:10103000084340494860404840680F21890388437D
:101040003D494860080040680521C90388433A4982
:1010500048603948403840680F2189038843364941
:1010600040394860080040680121090408433249BA
:1010700040394860080040680121890308432E492F
:10108000403948602C48C068800080082A49C86000
:101090000800C068490608432749C8602648403808
:1010A000C0688000800824494039C8600800C068D2
:1010B0000904084320494039C86021001F480FF047
:1010C0004DFA401E00021E4908431E4908600120D7
:1010D00010BC08BC184730B401001A480068000A68
:1010E0000002184B18601800036801208840012591
:1010F0002D06284303431348036007E08800114B83
:10110000C0180269D00FC00700D000E0F6E7C04663
:101110000C48006807231B0698430A4B1860180404
:10112000024202D0002030BC70471004840D200021
:10113000F9E70000C0C01FE040C002E000366E01C9
:1011400001002000004003E00020EA490880EA494D
:101150000870EA490870EA48EA4908600020EA494C
:101160000860704710B5E949002000F0C9FB10BCC9
:1011700008BC184710B5E6488088402801DD4024A7
:1011800001E0E3488488E24822000168802000F002
:10119000ECFB0400DE4800680019DD490860080027
:1011A0008088001B888010BC08BC184710B5D84840
:1011B0000168002000F0A4FB0400D5480068001975
:1011C000D349086008008088001B888010BC08BCD8
:1011D000184710B500221100802000F0C6FB10BC9B
:1011E00008BC184710B5CB49002000F089FB10BCA3
:1011F00008BC184710B5C0460022C149891E080026
:101200000FF04CFF0FF0DCFE04002000022108422A
:1012100076D0FFF7A7FFBD4909780906C80F00F08F
:1012200028FBBA48C088BA498880B8480078400688
:10123000800F04D001287ED002287DD1E7E0B3489A
:1012400043780FF061F80C070D9316931F30363D6D
:101250004B6182930FF0F2FA002800D1D9E086E0CA
:1012600000200FF059FB002800D1D2E0FFF7B1FFBA
:101270007DE001200FF050FB002800D1C9E0FFF70E
:10128000A8FF74E0A1480078C006C00E08D19F48AE
:1012900080788021084398490870FFF79AFF00E0A2
:1012A000B7E0C04663E00FF043FA002800D1B0E099
:1012B0005DE0002000F008FB00209549888056E0A2
:1012C00092480078C006C00E05D18C48904908604D
:1012D000FFF750FF00E09CE0C04648E08B480078F4
:1012E000C006C00E0DD10FF089FB002800D190E0A0
:1012F000FFF76FFF8848016801200FF093FE01E0BF
:101300008FE086E0C04632E080480078C006C00E1C
:10131000012817D179480078002811D07B4800793E
:101320007E49097888420BDA784800797C49401870
:101330007749086001E01CE06AE0FFF71BFF00E06E
:1013400067E000E065E0C04611E070480078C00644
:10135000C00E012807D10FF021FC002800D158E071
:10136000FFF737FF00E054E0C04600E051E0C04620
:1013700056E066480078C006C00E012845D1634893
:101380000079002840D1614843780EF0BDFF0C3C45
:101390000716293C3C3C3C3C1221343CFFF7EEF85C
:1013A000002805D05B485A490860FFF7E3FE2DE0AE
:1013B00029E058485649086028E0FFF70FF900284F
:1013C00005D0544852490860FFF7D4FE1EE01AE0E9
:1013D000FFF70DF9002802D0FFF7FBFE16E012E040
:1013E000FFF70EF9002805D04A4849490860FFF781
:1013F000C1FE0BE007E0FFF709F9002802D0FFF774
:10140000E8FE03E0C046C04603E002E008E000E07A
:10141000C046802000F058FA00203D498880C04630
:10142000C046042004423DD0384800780006C00F72
:1014300036D137488088002834D0FFF7B7FE3448CB
:10144000808800282ED1314800784006800F02D0D5
:10145000012819D100E018E02C480078C006C00E21
:10146000012802D002280CD10AE02848007900287F
:1014700005D1FFF7A2F8002800D106E002E004E061
:1014800003E002E0C04607E0C046802000F01CFAFE
:1014900000201F498880C046C046FFF79AFE01E041
:1014A000FFF7A0FE0820044217D018480078000675
:1014B000C00F012802D1FFF75DFE0EE00E48007854
:1014C0008021084209D00C4800784006400E0A49A5
:1014D00008700800007800F0EDF84020044202D0C7
:1014E000002000F0FFF98020044200D184E600F0E3
:1014F000F9F981E62C0000402E0000402F0000404A
:10150000010001003000004034000040480000406D
:1015100040000040941C0040800000403800004023
:101520003900004010B5C0460022384908000FF0CD
:10153000B5FD0FF045FD0400200004210842F3D062
:10154000FFF702FEF0E710B5C04600222F49080061
:101550000FF0A4FD0FF034FD040020000821084224
:1015600009D00EF073FA40222949812000F0FDF9DC
:1015700000202749087004200442E6D025490120B4
:1015800000F0BEF90EF0C6FADFE710B5C046002243
:101590001E4908000FF082FD0FF012FD0400E00765
:1015A000C00FF4D01C4800780028F0D00EF04EFA9E
:1015B00040221749812000F0D8F900201449087012
:1015C000E5E710B5002203211448130010F07CF861
:1015D00013490860002202211248130010F074F829
:1015E00011490860002202211048130010F06CF825
:1015F0000D494860002202210D48130010F064F8E4
:101600000C49086010BC08BC18470000FFFF000030
:10161000F0220040302300402F000040251500003C
:101620007C000040F5110000D41C0040471500006C
:101630008B15000080000040A3C08FE21CFF2FE14B
:1016400001000A07D00E8022114200D0401C7047D2
:101650001021E34A916011000861C046E049096821
:1016600010221142FAD070471022DD4B9A601A0006
:101670001061C046DA4A126810231A42FAD01022CA
:10168000D74B9A601A001161C046D54A12681023E0
:101690001A42FAD0704701003020D14A9060100001
:1016A0000161C046CE48006820221042FAD0CC48E2
:1016B0004069704710B50400802020430004FF22D9
:1016C000521C10430100C74809DF8020204300045A
:1016D000FF22521C10430100C24809DF10BC08BCA5
:1016E00018470020BE49403188604020C860012072
:1016F00088604020C860C046B9480068FF21491C86
:101700000842F9D00020C043B54988634863886027
:101710000C20486070477047704710B5B248406869
:101720000F2189068843B0494860080040680521B8
:1017300089060843AC4948600800C068AB490840C6
:10174000A949C8600800C068012149070843A649A3
:10175000C86008000069032189048843A249086120
:10176000080000690121890408439F490861A048D5
:101770004068490408439E49486012209D494863D7
:10178000C0469C48806B122108401228F9D19A4823
:101790009A49886101209A498861800599490861C0
:1017A000FFF79FFF0020FFF785FFFFF70AFF10BC40
:1017B00008BC184710B50400002C01D0012000E03F
:1017C00000200104FF22521C11438F4809DF10BC86
:1017D00008BC184710B58D4800880221084202D085
:1017E0008B49894809DF10BC08BC1847704710B501
:1017F0000400002C01D0012000E000200104FF22A1
:10180000521C1143834809DF032075494031486069
:10181000C04673480068FF21491C0842F9D00800FF
:101820006F49886010BC08BC184710B50400A07848
:10183000FFF706FF03006A484030416801209840E6
:10184000014367484030416083606079217900023C
:10185000084363494031C860C04661480068FF21C1
:10186000491C0842F9D008005D49886010BC08BCDA
:101870001847704770B504002000FFF7E1FE000430
:10188000654908430500891309DF70BC08BC184787
:1018900070B504002000FFF7D3FE00045E49084342
:1018A00005005E4909DF70BC08BC184770B504002C
:1018B0002000FFF7C5FE00045749084305008913BF
:1018C00009DF70BC08BC184770B504002000FFF7A2
:1018D000B7FE00045049084305004D4909DF70BCBC
:1018E00008BC184770B504002000FFF7A9FE0004EB
:1018F000494908430500891309DF70BC08BC184733
:10190000F8B504000D002007800E401C34498862A1
:10191000C0463348066A0120C0020642F9D0B60527
:10192000B60D002706E02E49886929000EF0F6FB67
:101930002D1D7F1CF01C8008B842F4D800202849D7
:10194000886237482041C007C00F0AD12000FFF746
:1019500077FE0004052109020843009008DF3148A2
:1019600008DF3000F8BC08BC1847F8B504000D00CB
:1019700016002007800E801C194988620800466204
:10198000002706E028000EF0B7FB1549C8612D1DA1
:101990007F1CF01C8008B842F4D8002010498862EF
:1019A0002000FFF74DFE00040521090208430090C6
:1019B00008DF1D4808DF3000F8BC08BC184710B528
:1019C0001A4808DF1A480ADF040019480ADF000233
:1019D0000443200010BC08BC184716480068704734
:1019E00000C2E0FF0005D00000C002E0CFFFFFCF43
:1019F000C0C01FE0C0CFE0FF381A000040F1FFFF79
:101A000040F2FFFF00F0FFFF0005FE002C00004049
:101A1000000101000005D800000540000001200081
:101A2000481200000005F2000005FA000005F5006C
:101A30000002F50084000040FF502DE948019FE5B9
:101A4000005290E5085280E5080015E31700000AEF
:101A500038019FE5080000EF34019FE50A0000EF20
:101A60000040A0E1100014E30500000AF1FEFFEBC6
:101A700020019FE5001090E50400A0E3B73C00EBD7
:101A80003D0000EA020014E30000000A3A0000EA08
:101A9000080014E30500000A040014E30100000A32
:101AA000153B00EB000000EA163B00EB320000EAB9
:101AB000040015E32F00000A2A0000EA0060A0E3FA
:101AC000260000EAC0009FE5300290E50110A0E387
:101AD000110610E11F00000AA670A0E10100A0E3BA
:101AE0001006A0E1A0109FE5380281E50000A0E10A
:101AF00094009FE5000290E5200010E3FBFFFF0A41
:101B000084009FE5144290E5010016E30D00001AE1
:101B1000000056E30600001A040014E30400000A63
:101B200074009FE5001090E50200A0E38B3C00EB01
:101B3000090000EA60009FE5071190E70400A0E3B8
:101B4000863C00EB030000EA4C009FE5071190E79C
:101B50000800A0E3813C00EB0000A0E1016086E208
:101B6000200056E3D6FFFF3A1C009FE5300290E5C7
:101B7000000050E3D0FFFF1A0000A0E10000A0E346
:101B8000000100E5FF50BDE804F05EE200C0E0FFA8
:101B90000005FE000002FE007C000040D41C004056
:101BA00010B500203449086034484068FF21491CC2
:101BB00008433249486000203149086031480068D4
:101BC0000321890708432F490860080040683C2129
:101BD00008432C4948602C488068012109040843C7
:101BE0002949886008004068012109040843264902
:101BF00048600800806801218905084322498860FF
:101C0000080040680121890508431F49486006F023
:101C100053FE08201A49C86038200860012010BC13
:101C200008BC18470100164A916092681006000E21
:101C3000C046134A526880231A42FAD07047FF21E7
:101C40000F4A9160C0460E49496880221142FAD07D
:101C50000B4989680806000E704730B503000C0078
:101C6000002504E0FFF7EBFF18705B1C6D1CA5421C
:101C7000F8D330BC08BC18478C000040C0C01FE03F
:101C8000000002E000C002E0008002E070B5050044
:101C90000E0027480068C0210843254908604020FD
:101CA000C8618020C861002D26D1224800685021DB
:101CB00008432049086083201F49C86031001F483D
:101CC0000EF04CFC0400200A1B4948602006000E60
:101CD00008600320C860072088600F22184906208A
:101CE000FEF70BFD002802D170BC08BC1847072086
:101CF000114948600120F7E70020F5E7002816D1D8
:101D000013E0C0460F4A1278002AFBD00E4A0F4B50
:101D10001B78D25C084B1A6000220A4B1A700B4ADF
:101D20001278521C094B1A70491E0029E9D17047DC
:101D300040C0FF3F00C002E000C000E060E31600CA
:101D4000501D000090000040541F0040D300004090
:101D50000F502DE90000A0E10030A0E3003103E5C1
:101D600088399FE5083093E5FF0003E2C000A0E159
:101D7000070000E2030050E34901001A6C399FE5B7
:101D8000143093E5FF1003E29E0011E30400000A03
:101D90005C399FE5001083E550399FE5003093E5FD
:101DA000FF2003E2010011E34E02000A3C399FE5E7
:101DB000003093E53CC99FE53CE99FE5B0E0DEE1FA
:101DC0000E30CCE734399FE50030D3E5FF0053E314
:101DD0000600001A20399FE5B030D3E1013083E2DC
:101DE0000138C3E310C99FE5B030CCE1040100EA3B
:101DF00008399FE50030D3E5FF0053E30001000AF6
:101E0000F8389FE50030D3E5000053E30B00001ADB
:101E1000E0389FE5E0C89FE5B0C0DCE10C30D3E7D7
:101E2000070053E30500000A0030A0E3C8C89FE59F
:101E3000B030CCE1C4C89FE50030CCE5F00000EA4A
:101E4000B8389FE50030D3E5000053E30F00001AD7
:101E5000A0389FE5A0C89FE5B0C0DCE10C30D3E717
:101E6000070053E30900001A8C389FE5B030D3E136
:101E7000013083E20138C3E37CC89FE5B030CCE198
:101E80000130A0E374C89FE50030CCE5DC0000EA37
:101E900068389FE50030D3E5010053E30B00001ADA
:101EA00050389FE550C89FE5B0C0DCE10C30D3E767
:101EB000010053E30500000A0030A0E338C89FE5A5
:101EC000B030CCE134C89FE50030CCE5CC0000EA6E
:101ED00028389FE50030D3E5010053E30F00001AD6
:101EE00010389FE510C89FE5B0C0DCE10C30D3E7A7
:101EF000010053E30900001AFC379FE5B030D3E13D
:101F0000013083E20138C3E3ECC79FE5B030CCE198
:101F10000230A0E3E4C79FE50030CCE5B80000EA5A
:101F2000D8379FE50030D3E5020053E30B00001AD9
:101F3000C0379FE5C0C79FE5B0C0DCE10C30D3E7F8
:101F4000000053E30500000A0030A0E3A8C79FE5A6
:101F5000B030CCE1A4C79FE50030CCE5A80000EA92
:101F600098379FE50030D3E5020053E30F00001AD5
:101F700080379FE580C79FE5B0C0DCE10C30D3E738
:101F8000000053E30900001A6C379FE5B030D3E13D
:101F9000013083E20138C3E35CC79FE5B030CCE198
:101FA0000330A0E354C79FE50030CCE5940000EA7D
:101FB00048379FE50030D3E5030053E30B00001AD8
:101FC00030379FE530C79FE5B0C0DCE10C30D3E788
:101FD000110053E30500000A0030A0E318C79FE595
:101FE000B030CCE114C79FE50030CCE5840000EAB6
:101FF00008379FE50030D3E5030053E30F00001AD4
:10200000F0369FE5F0C69FE5B0C0DCE10C30D3E7C9
:10201000110053E30900001ADC369FE5B030D3E12C
:10202000013083E20138C3E3CCC69FE5B030CCE198
:102030000430A0E3C4C69FE50030CCE5700000EAA0
:10204000B8369FE50030D3E5040053E30B00001AD7
:10205000A0369FE5A0C69FE5B0C0DCE10C30D3E719
:10206000020053E30500000A0030A0E388C69FE5A4
:10207000B030CCE184C69FE50030CCE5600000EADA
:1020800078369FE50030D3E5040053E30F00001AD3
:1020900060369FE560C69FE5B0C0DCE10C30D3E759
:1020A000020053E30900001A4C369FE5B030D3E13B
:1020B000013083E20138C3E33CC69FE5B030CCE198
:1020C0000530A0E334C69FE50030CCE54C0000EAC3
:1020D00028369FE50030D3E5050053E30B00001AD6
:1020E00010369FE510C69FE5B0C0DCE10C30D3E7A9
:1020F000010053E30500000A0030A0E3F8C59FE5A6
:10210000B030CCE1F4C59FE50030CCE53C0000EAFE
:10211000E8359FE50030D3E5050053E30F00001AD2
:10212000D0359FE5D0C59FE5B0C0DCE10C30D3E7EA
:10213000010053E30900001ABC359FE5B030D3E13C
:10214000013083E20138C3E3ACC59FE5B030CCE198
:102150000630A0E3A4C59FE50030CCE5280000EAE6
:1021600098359FE50030D3E5060053E30B00001AD5
:1021700080359FE580C59FE5B0C0DCE10C30D3E73A
:10218000E40053E30500000A0030A0E368C59FE5C2
:10219000B030CCE164C59FE50030CCE5180000EA22
:1021A00058359FE50030D3E5060053E30F00001AD1
:1021B00040359FE540C59FE5B0C0DCE10C30D3E77A
:1021C000E40053E30900001A2C359FE5B030D3E159
:1021D000013083E20138C3E31CC59FE5B030CCE198
:1021E000FF30A0E314C59FE50030CCE5040000EA11
:1021F0000030A0E300C59FE5B030CCE1FCC49FE512
:102200000030CCE5EC349FE50030D3E5E8C49FE531
:10221000B0C0DCE10C0053E11900001AD4349FE592
:102220000030D3E5060053E3150000BAC4349FE53F
:102230000430D3E5020053E30300000AB4349FE501
:102240000430D3E5030053E30A00001AA4349FE5E9
:102250000130D3E5010053E30600001A94349FE5F2
:102260000230D3E5000053E30200001A0130A0E37E
:102270008CC49FE50030CCE50030A0E378C49FE536
:10228000B030CCE170349FE5B030D3E1010C53E3C2
:102290001401001A0030A0E35CC49FE5B030CCE12B
:1022A000100100EA020050E3F800001A3C349FE5F8
:1022B000003093E5FFC003E238349FE538E49FE542
:1022C000B0E0DEE10EC0C3E730349FE50030D3E577
:1022D000FF0053E30600001A1C349FE5B030D3E141
:1022E000013083E20138C3E30CC49FE5B030CCE198
:1022F000B60000EA04349FE50030D3E5FF0053E365
:10230000B200000AF4339FE50030D3E5000053E348
:102310000B00001ADC339FE5DCC39FE5B0C0DCE1B5
:102320000C30D3E7070053E30500000A0030A0E3B8
:10233000C4C39FE5B030CCE1C0C39FE50030CCE51D
:10234000A20000EAB4339FE50030D3E5000053E378
:102350000F00001A9C339FE59CC39FE5B0C0DCE1F1
:102360000C30D3E7070053E30900001A88339FE5D8
:10237000B030D3E1013083E20138C3E378C39FE595
:10238000B030CCE10130A0E370C39FE50030CCE574
:102390008E0000EA64339FE50030D3E5010053E38B
:1023A0000B00001A4C339FE54CC39FE5B0C0DCE145
:1023B0000C30D3E7010053E30500000A0030A0E32E
:1023C00034C39FE5B030CCE130C39FE50030CCE5AD
:1023D0007E0000EA24339FE50030D3E5010053E39B
:1023E0000F00001A0C339FE50CC39FE5B0C0DCE181
:1023F0000C30D3E7010053E30900001AF8329FE5DF
:10240000B030D3E1013083E20138C3E3E8C29FE595
:10241000B030CCE10230A0E3E0C29FE50030CCE573
:102420006A0000EAD4329FE50030D3E5020053E3AE
:102430000B00001ABC329FE5BCC29FE5B0C0DCE1D6
:102440000C30D3E7000053E30500000A0030A0E39E
:10245000A4C29FE5B030CCE1A0C29FE50030CCE53E
:102460005A0000EA94329FE50030D3E5020053E3BE
:102470000F00001A7C329FE57CC29FE5B0C0DCE112
:102480000C30D3E7000053E30900001A68329FE5DF
:10249000B030D3E1013083E20138C3E358C29FE595
:1024A000B030CCE10330A0E350C29FE50030CCE572
:1024B000460000EA44329FE50030D3E5030053E3D1
:1024C0000B00001A2C329FE52CC29FE5B0C0DCE166
:1024D0000C30D3E7110053E30500000A0030A0E3FD
:1024E00014C29FE5B030CCE110C29FE50030CCE5CE
:1024F000360000EA04329FE50030D3E5030053E3E1
:102500000F00001AEC319FE5ECC19FE5B0C0DCE1A3
:102510000C30D3E7110053E30900001AD8319FE5CE
:10252000B030D3E1013083E20138C3E3C8C19FE595
:10253000B030CCE10430A0E3C0C19FE50030CCE571
:10254000220000EAB4319FE50030D3E5040053E3F4
:102550000B00001A9C319FE59CC19FE5B0C0DCE1F7
:102560000C30D3E7020053E30500000A0030A0E37B
:1025700084C19FE5B030CCE180C19FE50030CCE55F
:10258000120000EA74319FE50030D3E5040053E304
:102590000E00001A5C319FE55CC19FE5B0C0DCE134
:1025A0000C30D3E7020053E30800001A48319FE5DE
:1025B000B030D3E1013083E20138C3E338C19FE595
:1025C000B030CCE1FF30A0E330C19FE50030CCE576
:1025D00020319FE50030D3E51CC19FE5B0C0DCE1B0
:1025E0000C0053E12100001A08319FE50030D3E5CB
:1025F000060053E31D0000BAF8309FE50430D3E530
:10260000020053E30300000AE8309FE50430D3E5FD
:10261000030053E31200001AD8309FE50130D3E5E0
:10262000010053E30700000AC8309FE50130D3E5FD
:10263000050053E30300000AB8309FE50130D3E5FD
:10264000040053E30600001AA8309FE50230D3E5EA
:10265000000053E30200001A0130A0E3A0C09FE590
:102660000030CCE50030A0E38CC09FE5B030CCE179
:1026700084309FE5B030D3E1010C53E31900001A18
:102680000030A0E370C09FE5B030CCE1150000EA57
:10269000060050E30500001A54309FE5003093E532
:1026A000013C83E348C09FE500308CE50D0000EA63
:1026B000010050E30B00001A30309FE5143093E521
:1026C000FF1003E2200011E30300000A0130A0E341
:1026D00030C09FE50030CCE5020000EA0030A0E306
:1026E00020C09FE50030CCE50F50BDE804F05EE26D
:1026F00000C000E09C000040141D0040920000401B
:1027000095000040940000409000004001001948EE
:10271000006910221043174A10610220164A5060C7
:102720000320D060100081610809D0610420124AA2
:10273000403210611061012070470F4A90610E22F3
:10274000424312090C4B5A6204220B4B40331A616C
:1027500070470120C00208494031C860092006497D
:1027600048607047002004494031C8600249486011
:102770007047000000C002E0008001E070B5094C25
:1027800000250020FFF7C2FF012803D0002070BC05
:1027900008BC184729002000FFF7CFFFFFF7D9FF3B
:1027A0000120F4E730750000002100202022434B77
:1027B0001A600BE0424A1268012A01D1012006E0AA
:1027C000404A914201D3002001E0491CF2E7C04693
:1027D000704710203949086008208861C046374892
:1027E000006810210842FAD137480078802108405B
:1027F000802801D1002070470120FCE710B50400BB
:102800003248406880210843304948602F48C03032
:10281000806A0321890308432C49C03188626C20F7
:10282000264988618020486108610F2228490920D3
:10283000FDF763FF002802D110BC08BC18474020F8
:102840001E49086021484068802108431F494860AC
:10285000204840680F21890588431E4948600800C8
:1028600040680521890508431A4948600120E3E7CB
:1028700010B5144C00201249086017490860174928
:102880000860FFF791FF012805D0FFF7A2FF0020A5
:1028900010BC08BC184707E009480068052802D1A9
:1028A000FFF797FF02E0641E002CF5D1C046002C14
:1028B00001D10020ECE70120EAE7000000C001E0C0
:1028C000A0000040FFFF0000C8000040C0C01FE0A3
:1028D000E028000000C002E0AC000040B000004072
:1028E0000F002DE9C8139FE5041091E5FF0001E2F8
:1028F0000010A0E3001101E5070010E3E500001A55
:10290000C011A0E10C0051E301F18F30E10000EAB9
:10291000E00000EA090000EA130000EA220000EAF1
:10292000BF0000EA410000EA580000EAD70000EAD0
:10293000920000EACE0000EA950000EA960000EA64
:102940000000A0E16C139FE50010D1E560239FE536
:10295000081082E52810A0E3181082E50110A0E31A
:1029600054239FE5001082E5CE0000EA0000A0E1BC
:1029700048139FE5001091E5000051E30300001AA1
:1029800030139FE50210D1E524239FE5081082E56E
:102990002810A0E318239FE5181082E50210A0E399
:1029A00014239FE5001082E5BE0000EA0000A0E1CC
:1029B00004139FE5001091E5010051E31700001A90
:1029C000F0129FE50010D1E5780051E30400001AF1
:1029D000E0129FE50210D1E5D4229FE5081082E5C0
:1029E0000B0000EAD8129FE5001091E5011081E28A
:1029F000C0229FE50110D2E7B4229FE5081082E5CE
:102A0000BC129FE5001091E5011081E2B0229FE524
:102A1000001082E50410A0E39C229FE5001082E5EF
:102A20000810A0E388229FE5181082E59D0000EAC7
:102A30000000A0E17C129FE50010D1E5780051E391
:102A40001100001A1010A0E364229FE5001082E537
:102A50000810A0E3181082E50510A0E358229FE5B6
:102A6000001082E54C129FE50010D1E5780051E39B
:102A70000400001A4C129FE50010D1E58010C1E35C
:102A800040229FE50010C2E5860000EA0000A0E1B8
:102A90002C129FE5001091E52C229FE5002092E585
:102AA000020051E12300000A14129FE5001091E595
:102AB000011081E2FC219FE50110D2E7F0219FE5A2
:102AC000081082E5F8119FE5001091E5011081E200
:102AD000EC219FE5001082E5001082E2001091E5F4
:102AE000E4219FE5002092E5020051E10300000A85
:102AF0000410A0E3C0219FE5001082E51B0000EA5E
:102B00000510A0E3B0219FE5001082E5BC119FE510
:102B1000001091E5000051E31400000A2010A0E32A
:102B20008C219FE5001082E50310A0E388219FE53A
:102B3000001082E50D0000EA90119FE5001091E57C
:102B4000000051E30600000A2010A0E360219FE589
:102B5000001082E50310A0E35C219FE5001082E5F0
:102B6000020000EA0510A0E34C219FE5001082E579
:102B70000810A0E338219FE5181082E5490000EA1B
:102B80000000A0E10810A0E324219FE5181082E5D1
:102B9000440000EA0000A0E10000A0E110119FE560
:102BA000081091E528219FE5002092E5032082E2AC
:102BB00000319FE50210C3E714119FE5001091E575
:102BC000011081E208219FE5001082E5001082E2F9
:102BD000001091E5F4209FE5002092E5020051E10C
:102BE0000300000A0410A0E3CC209FE5001082E55A
:102BF000050000EA0010A0E3D4209FE5001082E564
:102C00000510A0E3B0209FE5001082E50410A0E3CA
:102C10009C209FE5001082E50810A0E3181082E5D3
:102C2000200000EA0000A0E188109FE50010D1E537
:102C3000780051E30D00001A88109FE50010D1E5DF
:102C4000801081E37C209FE50010C2E50510A0E321
:102C500064209FE5001082E51010A0E350209FE55E
:102C6000001082E50810A0E3181082E50D0000EACC
:102C70000000A0E10810A0E334209FE5181082E5D1
:102C80000510A0E330209FE5001082E5050000EA72
:102C90000000A0E10000A0E10810A0E310209FE5E3
:102CA000181082E50000A0E10000A0E10F00BDE8DF
:102CB00004F05EE200C001E0141E0040A0000040ED
:102CC000B8000040B0000040C8000040C400004010
:102CD000C0000040AC00004070B5F9480078012801
:102CE0007ED1F848006800287AD0F748007800289C
:102CF000F6D114250921F54802780078401CF34BE1
:102D00001870F34881540021180002780078401CA4
:102D10001870EF4881540122180001780078401C97
:102D20001870EB4842540821180002780078401CC3
:102D30001870E74881540222180001780078401C7E
:102D40001870E3484254E3480078C02108408028C6
:102D500008D10022180001780078401C1870DC4867
:102D600042542EE0DB4800783021084020280AD168
:102D70000121D64802780078401CD44B1870D44802
:102D800081546D1C1DE0D34800780C2108400828B0
:102D90000AD10222CD4801780078401CCB4B187034
:102DA000CB484254AD1C0CE0CA480278C7480178B1
:102DB0000078401CC54B1870C5484254C54800787F
:102DC0002D18C5490968C54A8818C8210DF0C6FBE9
:102DD00004002004020EBD4801780078401C00E089
:102DE00022E0BA4B1870BA4842542004000E45192C
:102DF000180002780078401C1870B54884542006EA
:102E0000000E4519FF20401B401C0106090E18004A
:102E100002780078401C1870AD488154B048008892
:102E20000930AF49088008E0AA4800780C21084022
:102E3000082802D18020A349086070BC08BC18474C
:102E400010B49F49097801297ED19E49096800295B
:102E50007AD09D49097800297CD1132007229B490B
:102E60000B780978491C994C21709949CA54002261
:102E700021000B780978491C21709549CA54012218
:102E800021000B780978491C21709149CA54092204
:102E900021000B780978491C21708D49CA540223FE
:102EA00021000A780978491C217089498B54894985
:102EB0000978C0221140402908D1002221000B7856
:102EC0000978491C21708249CA542EE08149097849
:102ED0003022114010290AD101227C490B7809784F
:102EE000491C7A4C21707A49CA54401C1DE079492A
:102EF00009780C22114004290AD1022373490A7867
:102F00000978491C714C217071498B54801C0CE06C
:102F100070490B786D490A780978491C6B4C21700F
:102F20006B498B546B4909784018FF21091A491CD9
:102F30000B061B0E65490A780978491C634C217001
:102F400063498B54664900E004E00988C91D644A5E
:102F5000118008E05F4909780C221140042902D150
:102F6000FF21584A116010BC704770B500265D48BB
:102F70000078802108435B4908705B48007903288A
:102F800013D1594840790002FF2109020840050089
:102F9000554880794519C8235D434F480068281873
:102FA0004D4908600120474908604F4800790228D0
:102FB0006AD114260821454802780078401C434B0A
:102FC0001870434881540021180002780078401C92
:102FD00018703F4881540121180002780078401C85
:102FE00018703B4881540821180002780078401C72
:102FF0001870374881540321180002780078401C6B
:10300000187033488154384840790002FF21090282
:1030100008400500344880794519C8235D432E488F
:10302000006828182C49086009682C4A8818C821AB
:103030000DF094FA04002004010E24480278007870
:10304000401C224B187022488154200A8019060621
:10305000360E180001780078401C18701C48445443
:1030600030190606360EFF20801B401C0106090E93
:10307000180002780078401C1870154881541848D0
:10308000008808301649088070BC08BC18471748EB
:10309000006A01218906084314490862144808633C
:1030A0000805886370471148006A012189060843B2
:1030B0000E4908620E4808630805C863704700009F
:1030C000420700404401004005010040D20000409A
:1030D000541F0040260700401001004070170000F8
:1030E000D000004024070040141D004040C0FF3FB6
:1030F000FFFFFFFB10B5FFF7D6FF9820FEF792FD0C
:10310000FEF79DFD0020FEF78DFDFEF798FD99204E
:10311000FEF788FDFEF793FD002408E0FF49085DF7
:10312000FEF780FDFEF78BFD601C0406240E402C8C
:10313000F4DBFFF7ACFF10BC08BC184710B5FFF775
:10314000B2FF0020FEF76EFDFEF779FDF44908702E
:10315000FEF775FDF3490870FEF771FDF24908703E
:10316000FEF76DFDF1490870FEF769FDF049087042
:10317000FEF765FDEF490870FEF761FDEE49087046
:10318000FFF785FFEC480078EC490870E9480078C3
:10319000EB490870E4480078EA490870E148007893
:1031A000E9490870E1480078E8490870E04800788B
:1031B000E749087010BC08BC184710B5FFF7BEFF00
:1031C000E4480078D5490870D54800784870D5485B
:1031D00000788870D4480078C870D44800780871A6
:1031E000D34800784871D34800788871D248007875
:1031F000C871FFF77FFF10BC08BC184710B500204E
:10320000D5490880D549087025E064200DF0CAFE34
:10321000D1480088401CD049088008000088D04967
:10322000098888420EDB8020CC4908700020CA49FA
:103230000880C8480078002804D10120C5490870DA
:10324000FFF7BBFFC5480078802804D10020C5499E
:1032500008700EF06BFAD8E710B50020C24908706C
:10326000C2484079002812D0BE48007800280ED10C
:1032700000220A21BE4813000EF026FABD4908605C
:103280000120B84908700020B349088010E0B74811
:10329000407900280CD1B3480078002808D0B54800
:1032A00000680EF043FA0020AE490870AA49088071
:1032B0000120B149086010BC08BC184710B50400D3
:1032C000A4480078002804D1A100AC4A50580DF061
:1032D00029F810BC08BC18470020A9490870A94863
:1032E0000069012109048843A649086100209E491C
:1032F00008709E490870A4490870A4490870A44940
:103300000870A4490880A4490870A4490880A44909
:103310000860A4490860A4490860A4490860A44959
:10332000087070470020A249087070470020A0492B
:103330000870704700209E4908707047002090492F
:103340000870994908609A480078401C98490870AC
:1033500070478C48006901210904084208D0894857
:10336000806908438749886101200004C86106E03C
:103370008448806901210904884382498861704733
:1033800000B589480068401C87490860080000684B
:10339000C007C00F09D1FFF7DCFF00207D4908807E
:1033A000724908700120764908707F480068C82873
:1033B00007D100207C4908607D480078401C7C498A
:1033C000087008BC184700B577480068401C76496B
:1033D000086008000068C007C00F0FD10860FFF741
:1033E000B8FF73480078401C714908700020694993
:1033F00008805E49087001206149087008BC1847C0
:1034000000B569480068401C67490860080000680A
:10341000C007C00F02D10860FFF79BFF5248007839
:103420000821084204D080204F490870FFF708FDAA
:1034300008BC184710B55C480068401C5A49086031
:1034400008000068C007C00F11D10860FFF781FFB6
:10345000002058490870082043490870FFF73CFCD9
:1034600053480078FC210840801C5149087010BC6A
:1034700008BC184700B54C480068401C4A49086021
:1034800008000068C007C00F0CD10860FFF761FF9B
:1034900000204549086046480078FC210840401C4F
:1034A0004349087008BC184710B53F4800684249B6
:1034B000884212D13A480068002807D0384800688E
:1034C000401E37490860FFF744FF79E0384800782C
:1034D000FC2108403649087072E033480068401CFF
:1034E0003149086008000068C007C00F01D1FFF72C
:1034F00030FF2D4800688006800E61D12D4800788D
:1035000005285DDC1848007880210840802857D0C5
:10351000FFF7E2FB27480078401C4FE0B020004056
:10352000E2000040E1000040E3000040E400004011
:10353000E5000040E6000040E70000406C07004066
:103540006D0700406E0700406F07004070070040A5
:1035500071070040400100405C010040430700400B
:10356000140100406407004024070040141D00407F
:10357000FD310000E00700404401004090010040A0
:10358000F5000040008002E0541F0040D2000040DF
:10359000D300004092000040420700404407004032
:1035A00010010040EC000040F00000401C0700400B
:1035B00026070040F600004080BB0000FF4908706D
:1035C00010BC08BC184710B5FD480078002804D18D
:1035D0000E20FB490870FFF7F0FD10BC08BC18472F
:1035E000F8488069012149020843F64988610120B1
:1035F0004002C861F448007808218843F249087005
:10360000704710B50020F1490860F14800780421A6
:103610000843EF4908700020EE490870E948006946
:10362000012109048843E7490861FFF7D9FF002019
:10363000E9490870E9490870E9490870E9490870E2
:10364000E9490870E9490880E9490870E9490880B2
:10365000E9490860FFF7B7FF10BC08BC1847002015
:10366000DA4908607047DA480078FC210840D849F8
:1036700008707047D6480078FC210840D44908708B
:103680007047D3480078FC210840D1490870704742
:103690000020D0490870CE480078401CCC49087002
:1036A0000020D6490860704700B5D4480068401C27
:1036B000D249086008000068C007C00F09D1FFF7B1
:1036C00048FE0020C9490880C44908700120C1494A
:1036D0000870CA480068C82807D10020C749086098
:1036E000BB480078401CBA49087008BC184700B5B0
:1036F000C2480068401CC149086008000068C00753
:10370000C00F0FD10860FFF724FEB1480078401CBD
:10371000AF4908700020B5490880B0490870012001
:10372000AC49087008BC184700B5B4480068401C94
:10373000B249086008000068C007C00F02D10860E5
:10374000FFF707FEA44800780821084204D0802033
:10375000A1490870FFF774FB08BC184700209D4979
:1037600008709B480078401C994908700020A349C4
:103770000860704700B5A1480068401C9F49086078
:1037800008000068C007C00F09D1FFF7E2FD002064
:10379000964908809149087001208E490870974821
:1037A0000068C82807D1002094490860884800783C
:1037B000401C8749087008BC184700B58F4800684E
:1037C000401C8E49086008000068C007C00F0FD178
:1037D0000860FFF7BEFD7E480078401C7C490870F9
:1037E0000020824908807D490870012079490870CD
:1037F00008BC184700B581480068401C7F49086034
:1038000008000068C007C00F02D10860FFF7A1FDE3
:10381000714800780821084204D080206E49087061
:10382000FFF70EFB08BC184700206A49087068487B
:103830000078042108436649087008000078401C9D
:10384000087000206D49086060490860704700B545
:103850006A480068401C6949086008000068C007A1
:10386000C00F09D1FFF775FD0020604908805B4952
:10387000087001205749087060480068C8280CD1BA
:1038800000205E49086052480078042108435049EE
:10389000087008000078401C087008BC184700B584
:1038A00056480068401C5549086008000068022816
:1038B00015D100200860FFF74CFD45480078042131
:1038C00008434349087008000078401C0870002035
:1038D000464908804149087001203E49087008BCEB
:1038E000184700B53A480078042108433849087061
:1038F00042480068401C41490860080000680228EE
:1039000003D100200860FFF724FD33480078082128
:10391000084204D0802030490870FFF791FA08BCB3
:10392000184700202B49087029480078401C284976
:103930000870002031490860704700B52F480068C2
:10394000401C2E49086008000068C007C00F09D15C
:10395000FFF7FFFC0020254908802049087001205E
:103960001C49087025480068C82807D10020234951
:10397000086017480078401C1549087008BC1847B3
:1039800000B51E480068401C1C490860080000681B
:10399000022810D100200860FFF7DBFC0C480078FB
:1039A000401C0B4908700020104908800B49087022
:1039B00001200849087008BC18470000F6000040C4
:1039C00040010040008002E006010040F00000409D
:1039D00026070040F500004024070040141D004069
:1039E000541F0040D2000040D3000040920000402D
:1039F0004207004044070040100100401C070040FF
:103A000000B5FF480068401CFD49086008000068D8
:103A1000022803D100200860FFF79BFCF9480078DA
:103A20000821084204D08020F6490870FFF708FA00
:103A300008BC184710B5F2480068401CF0490860FF
:103A400008000068C007C00F11D10860FFF781FCB3
:103A50000020ED4908700820EA490870FFF73CF99A
:103A6000EA480078FC210840801CE849087010BC36
:103A700008BC184700B5E2480068401CE0490860EF
:103A800008000068C007C00F0CD10860FFF761FC98
:103A9000DE480078FC210840401CDC49087000200A
:103AA000D749086008BC184710B5D5480068D84900
:103AB000884212D1D7480068002807D0D54800684E
:103AC000401ED4490860FFF744FC28E0CF48007846
:103AD000FC210840CD49087021E0C9480068401C1D
:103AE000C749086008000068C007C00F01D1FFF790
:103AF00030FCC34800688006800E10D1C2480078B0
:103B000005280CDCBF48007880210840802806D0BA
:103B1000FFF7E2F8BC480078401CBB49087010BCB5
:103B200008BC184710B50020B5490860B7480078B0
:103B300010210843B54908700020B7490870B748FC
:103B40000069012109048843B44908610020AD4996
:103B50000870B3490870B3490870B3490870B34995
:103B60000870B3490880B3490870B3490880A9496F
:103B70000860FFF728FD10BC08BC184710B5A04826
:103B80000068401C9E49086008000068C007C00F1C
:103B900011D10860FFF7DDFB00209B490870082069
:103BA00098490870FFF798F898480078FC21084079
:103BB000801C9649087010BC08BC184700B5904896
:103BC0000068401C8E49086008000068C007C00FEC
:103BD0000CD10860FFF7BDFB8C480078FC21084041
:103BE000401C8A49087000208549086008BC1847B5
:103BF00010B5834800688649884212D1854800681C
:103C0000002807D083480068401E82490860FFF7FB
:103C1000A0FB28E07D480078FC2108407B49087023
:103C200021E077480068401C75490860080000687A
:103C3000C007C00F01D1FFF78CFB714800688006F8
:103C4000800E10D17048007805280CDC6D48007893
:103C500080210840802806D0FFF73EF86A480078A7
:103C6000401C6949087010BC08BC184710B50020FA
:103C7000634908606548007810210843634908706B
:103C800008000078F021084060490870002062496F
:103C90000870624800690121090488435F4908618E
:103CA0000020584908705E4908705E4908705E49F6
:103CB00008705E4908705E4908805E4908705E4978
:103CC000088054490860FFF77EFC10BC08BC184708
:103CD00010B54B480068401C49490860080000685E
:103CE000C007C00F11D10860FFF733FB0020464921
:103CF0000870082043490870FEF7EEFF434800783B
:103D0000FC210840801C4149087010BC08BC1847C1
:103D100000B53B480068401C39490860080000684D
:103D2000C007C00F0BD1FFF714FB38480078FC2107
:103D30000840401C3549087000203149086008BC23
:103D4000184710B52E4800683149884212D13148D1
:103D50000068002807D02F480068401E2D490860E1
:103D6000FFF7F7FA28E029480078FC2108402749A6
:103D7000087021E022480068401C214908600800C2
:103D80000068C007C00F01D1FFF7E3FA1C480068C4
:103D90008006800E10D11C48007805280CDC1948DC
:103DA000007880210840802806D0FEF795FF16484D
:103DB0000078401C1449087010BC08BC184710B5A6
:103DC00000200F49086011480078142108430F496A
:103DD000087000201049087010480069012109048A
:103DE00088430E4908610020064908700C49087094
:103DF0000C4908700C4908700C4908700C491DE00A
:103E00001C07004024070040F60000402607004041
:103E100080BB000010010040F5000040008002E07F
:103E2000141D0040541F0040D2000040D300004049
:103E30009200004042070040440700400880FD49CE
:103E40000870FD490880FD490860FFF7BCFB10BC05
:103E500008BC184710B5FA480068401CF8490860CB
:103E600008000068C007C00F11D10860FFF771FAA1
:103E70000820F44908700020F3490870FEF72CFF71
:103E8000F2480078FC210840801CF049087010BC02
:103E900008BC184700B5EA480068401CE8490860BB
:103EA00008000068C007C00F0BD1FFF752FAE748BF
:103EB0000078FC210840401CE44908700020E049DB
:103EC000086008BC184710B5DD480068E049884222
:103ED00012D1DA480068002807D0D8480068401E90
:103EE000D6490860FFF735FA28E0D8480078FC2169
:103EF0000840D649087021E0D1480068401CD049EC
:103F0000086008000068C007C00F01D1FFF721FA60
:103F1000CB4800688006800E10D1CA48007805287A
:103F20000CDCC948007880210840802806D0FEF7C4
:103F3000D3FEC4480078401CC249087010BC08BCBD
:103F4000184710B50020BE490860C048007810210D
:103F50000843BE4908700020BE490870BE48006989
:103F6000012109048843BC4908610020B649087052
:103F7000BA490870BA490870BA490870BA49087055
:103F8000BA490880AB490870AB490880AB49086062
:103F9000FFF719FB10BC08BC18470020A8490860AF
:103FA0007047AA480078FC210840A849087070476B
:103FB000A6480078FC210840A44908707047A3482F
:103FC0000078FC210840A149087070470020A149F1
:103FD00008709E480078401C9C4908700020A44945
:103FE0000860704700B5A2480068401CA0490860FE
:103FF00008000068C007C00F09D1FFF7AAF9002028
:104000009A4908809549087001209249087098489B
:104010000068C82807D10020954908608B480078BF
:10402000401C8A49087008BC184700B590480068D1
:10403000401C8F49086008000068C007C00F0FD1FE
:104040000860FFF786F981480078401C7F490870B6
:104050000020864908808149087001207D49087048
:1040600008BC184700B582480068401C80490860B9
:1040700008000068C007C00F02D10860FFF769F9A7
:10408000714800780821084204D080206E490870E9
:10409000FEF7D6FE08BC184710B575480068401CEE
:1040A0007349086008000068C007C00F11D108609C
:1040B000FFF74FF900206349087008206249087033
:1040C000FEF70AFE61480078FC210840801C5F4929
:1040D000087010BC08BC184700B565480068401C53
:1040E0006349086008000068C007C00F0CD1086071
:1040F000FFF72FF900205E49086054480078FC2142
:104100000840401C5149087008BC184710B5584871
:1041100000684F49884212D148480068002807D0FB
:1041200046480068401E45490860FFF712F928E03C
:1041300046480078FC2108404449087021E04C487A
:104140000068401C4A49086008000068C007C00FAA
:1041500001D1FFF7FEF8464800688006800E10D1B6
:104160003848007805280CDC374800788021084062
:10417000802806D0FEF7B0FD32480078401C314957
:10418000087010BC08BC184710B5002038490860FA
:104190002E480078042108432C49087000202D493E
:1041A00008702D4800690121090488432A490861E3
:1041B00000202549087029490870294908702949B3
:1041C000087029490870294908801A4908701A4955
:1041D00008801A490860FFF7F6F910BC08BC1847B8
:1041E0000020234908601649086070471748007886
:1041F000FC21084015490870704714480078FC21DC
:10420000084012490870704710480078FC210840A7
:104210000E4908707047174800780821084315496F
:1042200008700D4880690121490288430A49886164
:104230007047000042070040440700401001004062
:104240001C070040F60000402407004026070040FD
:1042500080BB0000F5000040008002E0141D00401B
:10426000541F0040D2000040D300004092000040A4
:10427000F00000400601004000B5FF480068401C07
:10428000FD4908600020FD490870FFF7C4FFFA48A7
:1042900000687D210901884207D1F9480078401C57
:1042A000F74908700020F449086008BC1847F54831
:1042B000806901210843F34988610120C861704782
:1042C00000B5FFF7F4FF08BC1847EF48006801216C
:1042D00009030843EC490860EC480861C043886161
:1042E0007047E84880690121C9030843E5498861AE
:1042F0000120C0034861704700B5DF480068401CDA
:10430000DD49086008000068C007C00F08D1FFF74A
:1043100020F80020DE490880DE490870D74908707F
:10432000D548006830280DD10020D3490860D44812
:104330000078401CD2490870FFF7D3FFFFF7C5FF94
:10434000FFF7BEFF08BC184700B5CB480068401C0B
:10435000C949086008000068C007C00F0FD1086095
:10436000FEF7F7FFC6480078401CC54908700020DA
:10437000C7490880C74908700120C049087008BCB7
:10438000184700B5BC480068401CBB4908600800DD
:104390000068C007C00F02D10860FEF7DAFFBE4810
:1043A00000780821084206D08020BB490870FEF73B
:1043B00047FDFFF730FF08BC184700B5AE4800685E
:1043C000401CAD4908600020AC490870FFF723FF8E
:1043D000A94800687D210901884207D1A8480078D2
:1043E000401CA74908700020A349086008BC184772
:1043F00000B5A1480068401C9F490860080000689B
:10440000C007C00F08D1FEF7A4FF0020A049088014
:10441000A0490870994908709748006830280DD164
:1044200000209549086096480078401C944908701F
:10443000FFF757FFFFF749FFFFF742FF08BC184798
:1044400000B58D480068401C8B4908600800006872
:10445000C007C00F0FD10860FEF77BFF88480078C7
:10446000401C8749087000208949088089490870E4
:1044700001208249087008BC184700B57E480068D2
:10448000401C7D4908607E480078F32108407C4943
:10449000087079480068C007C00F03D176490860EA
:1044A000FEF757FF7C4800780821084206D080209C
:1044B00079490870FEF7C4FCFFF7ADFE08BC184749
:1044C00000B56D480068401C6B49086000206B49CE
:1044D0000870FFF7A0FE684800687D210901884246
:1044E00007D167480078401C654908700020624980
:1044F000086008BC184700B55F480068401C5E496A
:10450000086008000068C007C00F08D1FEF721FF4F
:1045100000205F4908805F49087058490870564874
:10452000006830280DD100205349086054480078B5
:10453000401C53490870FFF7D4FEFFF7C6FEFFF793
:10454000BFFE08BC184700B54B480068401C4A49EC
:10455000086008000068C007C00F0FD10860FEF7B0
:10456000F8FE47480078401C45490870002048493B
:1045700008804849087001204049087008BC184765
:1045800000B53D480068401C3B4908603C48007845
:10459000042108433A49087037480068C007C00F33
:1045A00003D135490860FEF7D4FE3B480078082166
:1045B000084206D0802038490870FEF741FCFFF71A
:1045C0002AFE08BC184700B52B480068401C2A4941
:1045D0000860002029490870FFF71DFE2648006882
:1045E0007D210901884207D125480078401C2449D3
:1045F000087000202049086008BC184700B51E4814
:104600000068401C1C49086008000068C007C00F13
:1046100008D1FEF79EFE00201D4908801D49087044
:10462000164908701448006830280DD1002012493E
:10463000086013480078401C11490870FFF751FECC
:10464000FFF743FEFFF73CFE08BC184700B50A48D9
:104650000068401C0849086008000068C007C00FD7
:1046600022D10860FEF775FE05480078401C044919
:1046700008700020064911E0EC000040F500004001
:1046800026070040008002E040C0FF3FFFEFFFFF31
:1046900092000040141D0040240700400880FA49A1
:1046A00008700120F949087008BC184700B5F8489F
:1046B0000068401CF649086008000068C007C00F89
:1046C00002D10860FEF745FEF24800780821084252
:1046D00006D08020EF490870FEF7B2FBFFF79BFD84
:1046E00008BC184700B5EA480068401CE849086063
:1046F0000020E6490870FFF78EFDE54800687D213F
:104700000901884207D1E4480078401CE24908705A
:104710000020DF49086008BC184700B5DC48006885
:10472000401CDB49086008000068C007C00F08D1C2
:10473000FEF70FFE0020D9490880D3490870D349FD
:104740000870D348006830280DD10020D049086097
:10475000D1480078401CD0490870FFF7C2FDFFF730
:10476000B4FDFFF7ADFD08BC184700B5C8480068A8
:10477000401CC749086008000068C007C00F0FD17F
:104780000860FEF7E6FDC4480078401CC249087086
:104790000020C2490880BC4908700120BB4908704C
:1047A00008BC184700B5BA480068401CB849086002
:1047B000B9480078CF210840B7490870B44800686C
:1047C000C007C00F03D1B2490860FEF7C2FDB1486F
:1047D00000780821084206D08020AE490870FEF714
:1047E0002FFBFFF718FD08BC184700B5A848006864
:1047F000401CA74908600020A4490870FFF70BFD82
:10480000A34800687D210901884207D1A2480078A9
:10481000401CA149087000209D49086008BC184749
:1048200000B59B480068401C994908600800006872
:10483000C007C00F08D1FEF78CFD00209749088003
:1048400091490870914908709148006830280DD14D
:1048500000208F49086090480078401C8E490870FD
:10486000FFF73FFDFFF731FDFFF72AFD08BC1847B2
:1048700000B587480068401C85490860080000684A
:10488000C007C00F0FD10860FEF763FD82480078B3
:10489000401C814908700020804908807A490870CE
:1048A00001207A49087008BC184700B578480068AC
:1048B000401C7749086078480078C3210840764951
:1048C000087073480068C007C00F03D170490860C2
:1048D000FEF73FFD6F4800780821084206D080208F
:1048E0006C490870FEF7ACFAFFF795FC08BC184756
:1048F00000B567480068401C6549086000206349AE
:104900000870FFF788FC624800687D210901884231
:1049100007D161480078401C5F49087000205C495D
:10492000086008BC184700B559480068401C584941
:10493000086008000068C007C00F08D1FEF709FD35
:104940000020564908805049087050490870504866
:10495000006830280DD100204D4908604E4800788D
:10496000401C4D490870FFF7BCFCFFF7AEFCFFF799
:10497000A7FC08BC184700B545480068401C4449DE
:10498000086008000068C007C00F0FD10860FEF77C
:10499000E0FC41480078401C3F49087000203F4936
:1049A00008803949087001203849087008BC184748
:1049B00000B537480068401C354908603648007823
:1049C000042108433449087008000078CF210840CA
:1049D000314908702E480068C007C00F03D12C4928
:1049E0000860FEF7B6FC2B4800780821084206D084
:1049F000802028490870FEF723FAFFF70CFC08BC5A
:104A0000184700B522480068401C21490860002072
:104A10001E490870FFF7FFFB1D4800687D21090152
:104A2000884207D11C480078401C1B4908700020B0
:104A30001749086008BC184700B515480068401CB5
:104A40001349086008000068C007C00F08D1FEF7CE
:104A500080FC0020114908800B4908700B49087040
:104A60000B48006830280DD10020094908600A4829
:104A70000078401C08490870FFF733FCFFF725FC5D
:104A8000FFF71EFC08BC1847141D0040F50000404D
:104A9000EC00004024070040260700409200004040
:104AA00000B5FF480068401CFD4908600800006828
:104AB000C007C00F0FD10860FEF74BFCF948007823
:104AC000401CF84908700020F7490880F749087031
:104AD0000120F749087008BC184700B5F048006885
:104AE000401CEF490860EF480078CF210840ED49AD
:104AF0000870EB480068C007C00F03D1E8490860A0
:104B0000FEF727FCEB4800780821084206D08020F9
:104B1000E8490870FEF794F9FFF77DFB08BC1847D9
:104B200000B5DF480068401CDD4908600020E0490E
:104B30000870FFF770FBDA4800687D2109018842A0
:104B400007D1D8480078401CD64908700020D449C5
:104B5000086008BC184700B5D1480068401CD0491F
:104B6000086008000068C007C00F08D1FEF7F1FB1D
:104B70000020CD490880CD490870CD490870C8484B
:104B8000006830280DD10020C5490860C54800786C
:104B9000401CC4490870FFF7A4FBFFF796FBFFF722
:104BA0008FFB08BC184700B5BD480068401CBC49D5
:104BB000086008000068C007C00F0FD10860FEF74A
:104BC000C8FBB8480078401CB64908700020B649B8
:104BD0000880B64908700120B549087008BC18471C
:104BE00000B5AF480068401CAD490860AD4800788A
:104BF00010210843AB490870A9480068C007C00FDE
:104C000003D1A7490860FEF7A4FBAA480078082151
:104C1000084206D08020A7490870FEF711F9FFF777
:104C2000FAFA08BC184700B59D480068401C9C492A
:104C3000086000209E490870FFF7EDFA9848006868
:104C40007D210901884207D196480078401C95498A
:104C5000087000209249086008BC184700B59048C9
:104C60000068401C8E49086008000068C007C00F3B
:104C700008D1FEF76EFB00208B4908808B49087035
:104C80008B4908708648006830280DD1002084497F
:104C9000086084480078401C82490870FFF721FBB7
:104CA000FFF713FBFFF70CFB08BC184700B57C4867
:104CB0000068401C7A49086008000068C007C00FFF
:104CC0000FD10860FEF745FB76480078401C754917
:104CD00008700020744908807449087001207449E4
:104CE000087008BC184700B56D480068401C6C4946
:104CF00008606C480078102108436A490870080071
:104D00000078F32108406749087065480068C007CB
:104D1000C00F03D162490860FEF71BFB65480078AD
:104D20000821084206D0802062490870FEF788F802
:104D3000FFF771FA08BC184700B559480068401CD5
:104D40005749086000205A490870FFF764FA544830
:104D500000687D210901884207D152480078401C33
:104D60005049087000204E49086008BC184700B53B
:104D70004B480068401C4A49086008000068C007AA
:104D8000C00F08D1FEF7E5FA0020474908804749DF
:104D90000870474908704248006830280DD100204B
:104DA0003F4908603F480078401C3E490870FFF7C3
:104DB00098FAFFF78AFAFFF783FA08BC184700B59C
:104DC00037480068401C3649086008000068C00782
:104DD000C00F0FD10860FEF7BCFA32480078401CC3
:104DE000304908700020304908803049087001209F
:104DF0002F49087008BC184700B529480068401CB6
:104E0000274908602748007814210843254908707D
:104E100023480068C007C00F03D121490860FEF78E
:104E200098FA244800780821084206D080202149B9
:104E30000870FEF705F8FFF7EEF908BC184700B553
:104E400017480068401C164908600020184908707F
:104E5000FFF7E1F9124800687D210901884207D176
:104E600010480078401C0F49087000200C49086069
:104E700008BC184700B50A480068401C084908608B
:104E800008000068C007C00F08D1FEF762FA0020D2
:104E900005490880054908700549087000480BE07D
:104EA000EC0000402607004092000040141D004026
:104EB000F500004024070040006830280DD1002094
:104EC000FF490860FF480078401CFE490870FFF762
:104ED00008FAFFF7FAF9FFF7F3F908BC184700B52D
:104EE000F7480068401CF649086008000068C007E1
:104EF000C00F0FD10860FEF72CFAF2480078401C72
:104F0000F04908700020F0490880F049087001203D
:104F1000EF49087008BC184700B5E9480068401C14
:104F2000E7490860E748007810210843E549087020
:104F3000E3480068C007C00F03D1E1490860FEF7ED
:104F400008FAE44800780821084206D08020E149A8
:104F50000870FDF775FFFFF75EF908BC184700B54C
:104F6000D7480068401CD64908600020D84908701E
:104F7000FFF751F9D24800687D210901884207D125
:104F8000D0480078401CCF4908700020CC49086008
:104F900008BC184700B5CA480068401CC8490860EA
:104FA00008000068C007C00F08D1FEF7D2F9002042
:104FB000C5490880C5490870C5490870C0480068DF
:104FC00030280DD10020BE490860BE480078401C42
:104FD000BC490870FFF785F9FFF777F9FFF770F91B
:104FE00008BC184700B5B6480068401CB4490860C2
:104FF00008000068C007C00F0FD10860FEF7A9F9CC
:10500000B0480078401CAF4908700020AE490880C5
:10501000AE4908700120AE49087008BC184700B5B9
:10502000A7480068401CA649086008000068C0073F
:10503000C00F02D10860FEF78CF9A648007808215D
:10504000084206D08020A3490870FDF7F9FEFFF75B
:10505000E2F808BC184700B599480068401C984918
:10506000086000209A490870FFF7D5F89448006856
:105070007D210901884207D192480078401C91495E
:10508000087000208E49086008BC184700B58C489D
:105090000068401C8A49086008000068C007C00F0B
:1050A00008D1FEF756F90020874908808749087023
:1050B000874908708248006830280DD10020804957
:1050C000086080480078401C7E490870FFF709F9A5
:1050D000FFF7FBF8FFF7F4F808BC184700B578486D
:1050E0000068401C7649086008000068C007C00FCF
:1050F0000FD10860FEF72DF972480078401C714905
:1051000008700020704908807049087001207049BB
:10511000087008BC184700B569480068401C684919
:10512000086068480078F3210840664908706448C0
:105130000068C007C00F03D161490860FEF709F994
:10514000644800780821084206D080206149087030
:10515000FDF776FEFFF75FF808BC184700B5584822
:105160000068401C56490860002059490870FFF744
:1051700052F8534800687D210901884207D15148FF
:105180000078401C4F49087000204D49086008BC59
:10519000184700B54A480068401C494908600800A3
:1051A0000068C007C00F08D1FEF7D3F800204649B9
:1051B0000880464908704649087041480068302810
:1051C0000DD100203E4908603E480078401C3D4912
:1051D0000870FFF786F8FFF778F8FFF771F808BC5A
:1051E000184700B536480068401C3549086008007B
:1051F0000068C007C00F0FD10860FEF7AAF8314859
:105200000078401C2F49087000202F4908802F4942
:10521000087001202E49087008BC184700B52848BE
:105220000068401C2649086026480078042108438D
:105230002449087022480068C007C00F03D12049E4
:105240000860FEF786F8234800780821084206D057
:10525000802020490870FDF7F3FDFEF7DCFF08BC55
:10526000184700B516480068401C15490860002022
:1052700017490870FEF7CFFF114800687D2109012A
:10528000884207D10F480078401C0E490870002062
:105290000B49086008BC184700B509480068401C65
:1052A0000749086008000068C007C00F15D1FEF765
:1052B00050F80020044908800449087004490BE0B4
:1052C000EC0000402607004092000040141D004002
:1052D000F5000040240700400870FC4800683028B2
:1052E0000DD10020F9490860F9480078401CF849C0
:1052F0000870FEF7F6FFFEF7E8FFFEF7E1FF08BCD7
:10530000184700B5F1480068401CF04908600800E3
:105310000068C007C00F0FD10860FEF71AF8EC480C
:105320000078401CEA4908700020EA490880EA49F0
:1053300008700120E949087008BC184700B5E34827
:105340000068401CE149086008000068C007C00F01
:1053500002D10860FDF7FDFFE1480078082108420E
:1053600006D08020DE490870FDF76AFDFEF753FF86
:1053700008BC184710B5D5480068401CD3490860E0
:1053800008000068C007C00F1BD10860D54800782E
:105390000821084202D1FEF73EFF01E0FEF720F9A6
:1053A000FDF7D7FF0020D04908700820CC490870CD
:1053B000FDF792FCC6480078FC210840801CC449D7
:1053C000087010BC08BC184700B5C0480068401CF5
:1053D000BE49086008000068C007C00F13D108600C
:1053E000C04800780821084202D1FEF714FF01E00E
:1053F000FEF7F6F8FDF7ADFFB5480078FC21084050
:10540000401CB349087008BC184710B5AF48006885
:10541000401CAE49086008000068C007C00F01D1F9
:10542000FDF797FFA9480068B04988421FD1B048EE
:105430000068002814D0AE480068401EAC490860DF
:10544000080000688006800E36D1A6480078082142
:10545000084202D1FEF7DFFE2EE0FEF7C1F82BE096
:105460009B480078FC2108409949087024E097483F
:1054700000688006800E09D19A4800780821084209
:1054800002D1FEF7C8FE01E0FEF7AAF88F480068D7
:105490008006800E10D19448007805280CDC9048D6
:1054A000007880210840802806D0FDF715FC8E4842
:1054B0000078401C8C49087010BC08BC184710B517
:1054C00000208249086082480078402108438049D2
:1054D000087000208149087086480069012109048C
:1054E000884384490861FEF77BF800207C490870F6
:1054F00079490870804908708049087080490870AF
:10550000744908807F4908707F490880784908609D
:10551000FEF759F810BC08BC184710B56B48006876
:10552000401C6A49086008000068C007C00F1BD112
:1055300008606C4800780821084202D1FEF76BFE33
:1055400001E0FEF74DF8FDF704FF00206649087002
:10555000082063490870FDF7BFFB5D480078FC2117
:105560000840801C5A49087010BC08BC184700B598
:1055700056480068401C5549086008000068C0078C
:10558000C00F13D10860574800780821084202D1A3
:10559000FEF741FE01E0FEF723F8FDF7DAFE4C4886
:1055A0000078FC210840401C4949087008BC184795
:1055B00010B546480068401C44490860080000686F
:1055C000C007C00F01D1FDF7C4FE4048006847493D
:1055D00088421FD146480068002814D0444800681B
:1055E000401E43490860080000688006800E36D1DE
:1055F0003C4800780821084202D1FEF70CFE2EE05C
:10560000FDF7EEFF2BE032480078FC2108403049DE
:10561000087024E02D4800688006800E09D13148CA
:1056200000780821084202D1FEF7F5FD01E0FDF700
:10563000D7FF264800688006800E10D12A480078DF
:1056400005280CDC2648007880210840802806D0F8
:10565000FDF742FB24480078401C2349087010BC29
:1056600008BC184710B50020184908601848007891
:10567000402108431649087008000078F0210840CE
:10568000134908700020154908701A480069012163
:105690000904884317490861FDF7A2FF002010495B
:1056A00008700D49087014490870144908701449AD
:1056B00008700849088013490870134908800C498C
:1056C0000860FDF780FF10BC08BC1847EC000040E4
:1056D0002607004092000040141D0040F5000040E5
:1056E0002407004006010040F6000040701700004B
:1056F00010010040008002E0541F0040D200004032
:10570000D3000040420700404407004010B5F8486D
:105710000068401CF649086008000068C007C00F18
:105720001BD10860F34800780821084202D1FEF737
:1057300072FD01E0FDF754FFFDF70BFE0020EE497E
:1057400008700820ED490870FDF7C6FAEC480078AB
:10575000FC210840801CEA49087010BC08BC1847AE
:1057600000B5E3480068401CE14908600800006893
:10577000C007C00F13D10860DE4800780821084236
:1057800002D1FEF748FD01E0FDF72AFFFDF7E1FD3C
:10579000DB480078FC210840401CD949087008BC4F
:1057A000184710B5D2480068401CD149086008006D
:1057B0000068C007C00F01D1FDF7CBFDCC480068E1
:1057C000D04988421FD1D0480068002814D0CE4864
:1057D0000068401ECC490860080000688006800E02
:1057E00036D1C44800780821084202D1FEF713FDE3
:1057F0002EE0FDF7F5FE2BE0C1480078FC210840C3
:10580000BF49087024E0BA4800688006800E09D1BC
:10581000B84800780821084202D1FEF7FCFC01E0FC
:10582000FDF7DEFEB24800688006800E10D1B24857
:10583000007805280CDCB1480078802108408028D9
:1058400006D0FDF749FAAC480078401CAA49087018
:1058500010BC08BC184710B50020A5490860A8482E
:10586000007844210843A64908700020A749087021
:10587000A7480069012109048843A5490861FDF78B
:10588000AFFE00209D490870A2490870A249087027
:10589000A2490870A2490870A2490880A24908706C
:1058A000A249088098490860FDF78DFE10BC08BC2D
:1058B000184710B58E480068401C8D4908600800E4
:1058C0000068C007C00F1BD108608A480078082113
:1058D000084202D1FEF79FFC01E0FDF781FEFDF7D3
:1058E00038FD002084490870082084490870FDF7BD
:1058F000F3F983480078FC210840801C8049087037
:1059000010BC08BC184700B579480068401C7849AD
:10591000086008000068C007C00F13D10860754810
:1059200000780821084202D1FEF775FC01E0FDF77E
:1059300057FEFDF70EFD72480078FC210840401C20
:105940006F49087008BC184710B569480068401CCA
:105950006749086008000068C007C00F01D1FDF763
:10596000F8FC63480068674988421FD166480068B0
:10597000002814D064480068401E6349086008008D
:1059800000688006800E36D15A4800780821084207
:1059900002D1FEF740FC2EE0FDF722FE2BE0584836
:1059A0000078FC2108405649087024E050480068FF
:1059B0008006800E09D14F4800780821084202D1A4
:1059C000FEF729FC01E0FDF70BFE49480068800660
:1059D000800E10D14848007805280CDC4748007834
:1059E00080210840802806D0FDF776F942480078EB
:1059F000401C4149087010BC08BC184710B5002075
:105A00003B4908603E480078402108433C49087003
:105A100000203E4908703E4800690121090488437E
:105A20003B490861FDF7DCFD002034490870394925
:105A3000087039490870394908703949087039497E
:105A4000088039490870394908802F490860FDF7F6
:105A5000BAFD10BC08BC184710B525480068401CAA
:105A60002349086008000068C007C00F1BD1086008
:105A7000204800780821084202D1FEF7CCFB01E063
:105A8000FDF7AEFDFDF765FC00201B4908700820FE
:105A90001A490870FDF720F919480078FC210840E0
:105AA000801C1749087010BC08BC184700B5104886
:105AB0000068401C0E49086008000068C007C00F5D
:105AC00013D108600B4800780821084202D1FEF784
