:02F84E003E5228
:02F8500026513F
:02F8520041284B
:02F85600AA26E0
:02F85800EBC4FF
:02F85E00AB21DC
:0320000002A91F13
:06A91F0075813302A960FE
:10F87000505749494956322D4D43552D302E30337E
:102BE8004908FE55000000000000000041092700C8
:102BF80041092800604008BB0000000000000000F8
:102C080000000000000000000000000000000000BC
:102C180000000000000000000000000000000000AC
:102C2800000000000000000000000000000000009C
:102C3800000000000000000060400867000000007D
:102C4800000000000000000000000000000000007C
:102C5800000000000000000000000000000000006C
:102C6800000000000000000000000000000000005C
:102C78000000000000000000000000004503F240D2
:102C8800A0E6CCB2440914000000004103E0004172
:102C980008470042090E000042092000004103D7FE
:102CA8000041091F0041090B0041091E0041090AA2
:102CB8000041090C00410508004208540000410683
:102CC80038004108564141084E004108FC114108AE
:102CD800AD01410617244108AC094109190741090A
:102CE8000900410857004108500041092FFD4109DA
:102CF800320341092200410924004105000041082E
:102D0800B80042093000004103CD004108B300413A
:102D180008B4004108B5004203D900004203DC00B2
:102D2800004203E10000C10160C90000FFAAA4FF3E
:102D3800A39DFFA39DFFA39DFFA39DFF678CFF4D50
:102D4800CBFF53FDFF43D6FFDB5CFFA39DFF4FFC8A
:102D5800FF6B98FFA39DFFA39DFFA39DFFA39DFF6E
:102D6800351DFF9700FF6CEFFFA39DFFA39DFFA3F9
:102D78009DFFA39DFF7716FF70ECFF68E8FF6A4090
:102D8800FFAC0DFF64D3FFA39DFF7E2DFF7F57FF90
:102D980075E3FF7BD4FF7847FF7AA6FF6E44FF6F89
:102DA80098FF61EFFF8081FF7D01FF81A7FF82CD42
:102DB800FFA39DFF58FBFF55ACFF5A90FFA39DFF53
:102DC8006361FF7377FF7977FF4B86FF310AFF5FF7
:102DD80003FFA39DFFA39DFFA39DFFA39DFFA39DAD
:102DE800FFA39DFFA39DFFA39DFF5C0FFFAC7EFF8C
:102DF8005758FFA39DC100630000CAFFF4CBFFF939
:102E0800E3FFF9E9FFF9EFFFF67DFFACEFFFCD1225
:102E1800FFDD94FFDA63FF9985FFD6B2FFDDE2FF9D
:102E2800F97BFF2003FFF99CFFF9A4FFF695FFAD9E
:102E38005FFFCD6AFFDE30FFF6ADFFADCFFFCDC23D
:102E4800FFDBAEFFF38FFFAB99FFBAB7FFCC5EFF96
:102E5800F6C5FFAE3FFFCCB8FFDAB6FFD760FF9AE2
:102E68004DFFD709FFDE7EFFDF1AFF9B15FFD7B79F
:102E7800FFDECCFFE726FF9BDDFFE4BEFFDF68FF38
:102E8800E771FF9CA5FFE50BFFC81AFFF986FFF95C
:102E9800ACFFF9B4FFF9BCFFF6DDFFAEAFFFCE1A09
:102EA800FFDBFFFFE7BCFF9D6DFFD80EFFE200FFD1
:102EB800200EFFF9C4FFF9CCFFF9D4FFEE95FFAF60
:102EC8001FFFCE72FFD913FFEECEFFAF8FFFCECA22
:102ED800FFC875FFEF07FFAFFFFFCF22FFC8D0FF86
:102EE800EF40FFB06FFFCF7AFFD967FFEF79FFB0F0
:102EF800DFFFCFD2FFC92BFFEFB2FFB14FFFD02AC0
:102F0800FFC986FFEFEBFFB1BFFFD082FFBB15FF04
:102F1800F024FFB22FFFD0DAFFC9E1FFF05DFFB266
:102F28009FFFD132FFCA3CFFF096FFB30FFFD18A53
:102F3800FFBB73FFF0CFFFB37FFFD1E2FFCA97FF5C
:102F4800F108FFB3EFFFD23AFFCAF2FFF141FFB435
:102F58005FFFD292FFD9BBFFF17AFFB4CFFFD2EA6D
:102F6800FFCB4DFFF1B3FFB53FFFD342FFCBA8FF27
:102F7800F1ECFFB5AFFFD39AFFDA0FFFE558FF86F4
:102F88000BFFC1FFFFBC2FFFDFB6FF870CFFC25B43
:102F9800FFBC8CFFEAEFFF880DFFC2B7FFBCE9FF5B
:102FA800ED1CFF890EFFC313FFBD46FFE97EFF8AB4
:102FB8000FFFC36FFFBDA3FFE9C8FF8B10FFC3CB93
:102FC800FFBE00FFBBD1FF8C11FFC427FFBE5DFF12
:102FD800EA12FF8D12FFC483FFBEBAFFEC0BFF8E0F
:102FE80013FFC4DFFFBF17FFEAA6FF8F14FFC53B1F
:102FF800FFBF74FFEB36FF9015FFC597FFBFD1FFEA
:10300800EC51FF9116FFC5F3FFC02EFFED5DFF9257
:1030180017FFC64FFFC08BFFEA5CFF9318FFC6ABD4
:10302800FFC0E8FFEB7DFF9419FFC707FFC145FF0D
:10303800ED9EFF951AFFC763FFC1A2FFF991FFF745
:10304800F4FFF806FFF818FFF6F5FFB61FFFD3F2F6
:10305800FFDC50FFE807FF9E35FFD865FFE24EFF13
:103068002026FFF527FFF543FFF55FFFF70DFFB6B5
:103078008FFFD44AFFDCA1FFF725FFB6FFFFD4A2DC
:10308800FFD4FAFFF73DFFB76FFFD552FFD5AAFF70
:10309800F755FFB7DFFFD602FFDCF2FFE852FF9ECD
:1030A800FDFFE5A5FFE29CFFE338FF9FC5FFE5F2C2
:1030B800FFE2EAFFE89DFFA08DFFE63FFFE386FF02
:1030C800E8E8FFA155FFE68CFFE3D4FFF7CAFFF558
:1030D8007BFFF597FFF5B3FFF76DFFB84FFFD65AA3
:1030E800FFDD43FFE933FFA21DFFD8BCFFE422FF49
:1030F800F4EAFFF3B5FFF3DBFFF4014303CA000072
:0131080000C6
:103E520053D9BFE4900925F0A3F0900910123AD982
:103E620000000000C298C299C2ACC28E12F2BE1209
:103E7200F46C12F4AC43C70753C7EFD294D296D274
:103E820093D297D2A7E4900909F090060DF0A3F01F
:103E92009008AFF0C2B2900500F0900853F090087D
:103EA20060123AD900000000E4900501F090084346
:103EB200F0A3F0900612F09003FBF0900848F09007
:103EC2000509F09003E7F090091FF09003D7F090F6
:103ED200090AF090091EF0900854F0A3F09008B27D
:103EE200F090083FF0900622123AD900000000E458
:103EF20090084FF0900907F0E5A0543F90091DF09B
:103F0200E5C75480FFE5B054404FFFC4540F44F35B
:103F120090061CF090085BE4F0A3741FF0A3E4F099
:103F2200A3741FF0900864E4F0A3741FF09008A734
:103F3200E4F0A3741FF09008AAE4F0A3741FF090B9
:103F42000626E4F0A3741FF0900629E4F0A3741F80
:103F5200F0A3E4F0A3741FF0900634E4F0A3741FFE
:103F6200F0A3E4F0A3741FF0E49008B0F090061DF3
:103F7200F0900613123AD900000744900618123A3C
:103F8200D90000026C900630123AD900000000906D
:103F9200050BE4F0A374BAF0E49008AFF09003E8E4
:103FA200F0A3F0900840F09008B17480F0900628D9
:103FB200F09008497408F09003FDF0E49003D3F008
:103FC2009008B9F012F33D900508E0B45506900947
:103FD2000CE08001E4900611F0E49008A9F090064C
:103FE2001E123AD9000367E0C29853D2FD53D2FEA3
:103FF200D2AC43A812C29843E70253D2FD53D2FE79
:1040020043D202D29943E601D2AFE49003E3F090A7
:104012000507F0900937F090092E7455F0900929A0
:1040220074FBF012EE1FE49003ECF012F63443C17D
:104032008012EE5B53C17FE490090DF0900937E0E6
:10404200602290092EE0FF9008FEE0FEC3EF64803C
:10405200F8EE6480984007E490090DF0800690091C
:104062000D7401F07F02123B6F7F04123B6F7F01E0
:10407200123B6F90092A123AD900000000900506FF
:10408200741EF0E49003FCF012FA0312F8DA12F84C
:10409200BC12F8F812F89E12F83C9009087401F06C
:1040A20012FA0B12FA1353D9F043D90A75FDFF43E2
:1040B200D940E49008AEF0900850F075FEFFE4FBA2
:1040C200FA7DFF7F80123C81900840E060ED900510
:1040D20000E0FF60E630E7051298BC80DE90050044
:1040E200E030E0D712208612A76A900930E0700211
:1040F200A3E0601BE4900930F0A3F0124679900827
:10410200B8E060081297E0E49008B8F012F44A753B
:10411200FEFF900854E07004A3E06410709D1252F8
:064122001975FEFF8095F7
:10F46C00E4FFFE75B12075B9810FBF00010EEF648A
:0FF47C00284E70F543B9C0E5B930E5FB75A9031B
:01F48B00225E
:10F2BE0075F1FF75A45D75A5F375A68075F3BF7521
:10F2CE00A77C75AE1775F4FF75F5BF75D48075D52F
:0BF2DE000175E10775E24075E30122B5
:10F4AC00122076E4FF12A6D212F86012F88012F63F
:0FF4BC004D12F9DC12F9FB7F0512F96F02207275
:0FF88000438920438E08758D40E4F58BD28E228C
:10F8600075981075D21075AC4375B5FF75B440220C
:01207200224B
:0C20760075A20575A170C2FF75F801226B
:0CF96F008FBB75BA1F75BCB875E880220C
:04F9FB0075D10C2294
:0320230002A9A56A
:10A9A500C0E0C083C082C0D075D000C00730985BBE
:10A9B500C298900909E0605E900612E0FF04F07409
:10A9C500BB2FF582E43408F583E599F0900922E47C
:10A9D500F09008BBE0FF900612E06F70399008BF59
:10A9E500E0FF64026004EFB4031A9008BCE0FF6462
:10A9F500016004EFB4050D9008BDE07007900509EE
:10AA050004F08000900612E4F0800B30990890095C
:10AA1500277401F0C299D007D0D0D082D083D0E07E
:01AA250032FE
:0320830002A6337F
:10A63300C0E0C083C082C0D075D000C006C007E5AB
:10A64300D230E06B53D2FE9003FBE0FF04F074675B
:10A653002FF582E43408F583E5D3F0900924E4F080
:10A66300900867E0FF9003FBE0FE6F702DEFC3944B
:10A6730005402790086BE0FF64026004EFB4031801
:10A68300900868E06003B4010F900869E0B405081E
:10A693009003E77401F080128010900867E0B445DE
:10A6A3000EA3E0B46E09EEB412059003FBE4F0E5EB
:10A6B300D230E10EE5D230E50953D2FD900928747A
:0FA6C30001F0D007D006D0D0D082D083D0E032C3
:10F31400D3EF9442EE940040047E007F42900000BC
:10F3240075F003EF123B0AEE75F003A42583F58311
:09F33400A3E0FAA3E0F9023B3C5E
:10AAA400E49009A4F0900910123AD9000000009033
:10AAB40008BBE0FFE4FCFDFE900910E0F8A3E0F918
:10AAC400A3E0FAA3E0FBC3123A965039900910A30D
:10AAD400A3A3E024BBF582E43408F583E0FF9009E6
:10AAE400A4E02FF0900910E0FCA3E0FDA3E0FEA396
:10AAF400E02401FFE43EFEE43DFDE43CFC9009104B
:10AB0400123ACD80AA9009A4E0700C9003D3F0749B
:0CAB14000212CC0302F79DE4FF12A4F330
:01AB20002212
:1058FB00E49009A5F0900910123AD900000000902D
:10590B0008BBE0FFE4FCFDFE900910E0F8A3E0F912
:10591B00A3E0FAA3E0FBC3123A965039900910A307
:10592B00A3A3E024BBF582E43408F583E0FF9009E0
:10593B00A5E02FF0900910E0FCA3E0FDA3E0FEA38F
:10594B00E02401FFE43EFEE43DFDE43CFC90091045
:10595B00123ACD80AA9009A5E06003025A8A741905
:10596B00F09003D7E0FF04F0743D2FF582E434068A
:10597B00F5837416F09008BDE0FF9003D7E0FE04AA
:10598B00F0743D2EF582E43406F583EFF09009A513
:10599B00E02FF09008BCE0FF9003D7E0FE04F0741A
:1059AB003D2EF582E43406F583EFF09009A5E02F48
:1059BB00F09008BEE0FF9003D7E0FE04F0743D2E9C
:1059CB00F582E43406F583EFF09009A5E02FF09013
:1059DB0003D7E0FF04F0743D2FF582E43406F58322
:1059EB007403F0900910123AD900000000E47F1004
:1059FB00FEFDFC900910E0F8A3E0F9A3E0FAA3E0A8
:105A0B00FBC3123A96504D900910A3A3A3E0FF904D
:105A1B00F87093FE9003D7E0FD04F0743D2DF582F2
:105A2B00E43406F583EEF0EF90F87093FF9009A540
:105A3B00E02FF0900910E0FCA3E0FDA3E0FEA3E053
:105A4B002401FFE43EFEE43DFDE43CFC9009101212
:105A5B003ACD80999009A5E0FFC3E49FFF9003D74F
:105A6B00E0FE04F0743D2EF582E43406F583EFF08E
:105A7B00900921E02416F0900920E03400F0227FF9
:045A8B002D12A4F341
:015A8F0022F4
:10A4F3007E2A9003D7E0FD04F0743D2DF582E43409
:10A5030006F5837407F09003D7E0FD04F0743D2D46
:10A51300F582E43406F583E4F09003D7E0FD04F01C
:10A52300743D2DF582E43406F5837401F09003D76E
:10A53300E0FD04F0743D2DF582E43406F583741FC9
:10A54300F09003D7E0FD04F0743D2DF582E434066A
:10A55300F5837403F09003D7E0FD04F0743D2DF50B
:10A5630082E43406F583EFF02EFFC3E49FFF9003EC
:10A57300D7E0FE04F0743D2EF582E43406F583EF54
:0FA58300F0900921E02407F0900920E03400F067
:01A5920022A6
:10A39D007F0A9003D7E0FE04F0743D2EF582E4347D
:10A3AD0006F5837407F09008BDE0FE9003D7E0FD3D
:10A3BD0004F0743D2DF582E43406F583EEF0EE2FB6
:10A3CD00FF9008BCE0FE9003D7E0FD04F0743D2D36
:10A3DD00F582E43406F583EEF0EE2FFF9008BEE033
:10A3ED00FE9003D7E0FD04F0743D2DF582E43406B4
:10A3FD00F583EEF0EE2FFF9003D7E0FE04F0743DF1
:10A40D002EF582E43406F5837403F09003D7E0FE55
:10A41D0004F0743D2EF582E43406F583E4F0C39F19
:10A42D00FF9003D7E0FE04F0743D2EF582E4340670
:10A43D00F583EFF0900921E02407F0900920E03436
:02A44D0000F01D
:01A44F0022EA
:10F5E900E4FE900927E06007E4F08F997F01220E7D
:08F5F900EEC394FF40EC7F001B
:01F6010022E6
:10F60200E4FE900928E06007E4F08FD37F01220E28
:08F61200EEC394FE40EC7F0002
:01F61A0022CD
:10F61B00900622E0FCA3E0FDA3E0FEA3E0FF123A7C
:01F62B00A737
:08F62C00C2FF8FA330FFFD2295
:10B8BF00900500E0FEE4F0C296FF12F62C12B921BB
:10B8CF00FF12F62C12B92190084EEFF0E4FF12F69A
:10B8DF002C12B921900856EFF0E4FF12F62C12B992
:10B8EF00219008FCEFF0E4FF12F62C12B92190081A
:10B8FF00ADEFF0E4FF12F62C12B921900617EFF01E
:10B90F00E4FF12F62C12B9219008ACEFF0E4FF120D
:02B91F00F62C04
:08B9210030FFFDC2FFAFA322BD
:10EE1F0012B8BF900919EFF0D2969003FEF0900848
:10EE2F00ACE09003E4F09008FCE090060FF090083F
:10EE3F0056E09008FDF09008ADE09003EFF09006DB
:0BEE4F0017E090093CF0900500EEF089
:01EE5A002295
:03C7BF0012EE1F58
:10C7C20012B8BF900919EFF0D296900500EEF090E2
:10C7D20003FEE06F703F9008ACE0FF9003E4E06F6F
:10C7E20070339008FCE0FF90060FE06F702790080E
:10C7F20056E0FF9008FDE0B5071B9008ADE0FF9002
:10C8020003EFE0B5070F900617E0FF90093CE0B593
:07C8120007037F01227F00F4
:01C8190022FC
:02A89000AB0714
:10A89200EB6004C297800353C7FBC2FF75A303306A
:10A8A200FFFDC2FF90095BE0FCA3E0FDA3E0FEA375
:10A8B200E0FF7810123AA78FA330FFFDC2FF900984
:10A8C2005BE0FCA3E0FDA3E0FEA3E0FF7808123A00
:10A8D200A78FA330FFFDC2FF90095BA3A3A3E0F5FE
:10A8E200A330FFFDE4FFFED3900960E09F90095F73
:10A8F200E09E401CC2FFE4F5A330FFFD74002FF57B
:10A902008274043EF583E5A3F00FBF00010E80D7E9
:0CA91200EB6004D297800343C7047F0071
:01A91E002216
:05A2E500900950EFF0AC
:10A2EA006004C297800353C7FBC2FF75A30630FF01
:10A2FA00FD900950E0FF6004D297800343C704EF42
:10A30A006004C297800353C7FBC2FF75A30230FFE4
:10A31A00FDC2FF900951E0FCA3E0FDA3E0FEA3E02B
:10A32A00FF7810123AA78FA330FFFDC2FF900951A0
:10A33A00E0FCA3E0FDA3E0FEA3E0FF7808123AA741
:10A34A008FA330FFFDC2FF900951A3A3A3E0F5A399
:10A35A0030FFFDE4FFFED3900959E09F900958E0D1
:10A36A009E4021C2FF900955E0FBA3E475F001125B
:10A37A003963A9F0FA123885F5A330FFFD0FBF0043
:10A38A00010E80D2C2FF900950E06003D2972243A7
:02A39A00C704F6
:01A39C00229E
:10A45000900914E0FCA3E0FDA3E0FEA3E0FF900957
:0CA4600070123ACD7420900974F07F0156
:10A46C00AB07EB6004C297800353C7FBC2FF75A315
:10A47C000630FFFDEB6004D297800343C704EB600A
:10A48C0004C297800353C7FBC2FF900974E0F5A385
:10A49C0030FFFD900974E064C76042C2FF90097000
:10A4AC00E0FCA3E0FDA3E0FEA3E0FF7810123AA7C6
:10A4BC008FA330FFFDC2FF900970E0FCA3E0FDA369
:10A4CC00E0FEA3E0FF7808123AA78FA330FFFDC28D
:10A4DC00FF900970A3A3A3E0F5A330FFFDEB60038D
:07A4EC00D2972243C70422AE
:1053FD00E49009A6F0900910123AD900000000902F
:10540D0008BBE0FFE4FCFDFE900910E0F8A3E0F915
:10541D00A3E0FAA3E0FBC3123A965039900910A30A
:10542D00A3A3E024BBF582E43408F583E0FF9009E3
:10543D00A6E02FF0900910E0FCA3E0FDA3E0FEA391
:10544D00E02401FFE43EFEE43DFDE43CFC90091048
:10545D00123ACD80AA9009A6E060030255A6C29328
:10546D009008C0E090084EF09008C1E0900856F00A
:10547D009008C2E09008FCF09008C3E09008ADF0F1
:10548D009008C4E0900617F09008C5E09008ACF0C5
:10549D009008C6E0900919F0E49009A6F09009A6CD
:1054AD00E004F0E0B4FFF6D293C2967F8012F62CA2
:1054BD0012B92190084EE012B91D900856E012B9AC
:1054CD001D9008FCE012B91D9008ADE012B91D90B9
:1054DD000617E012B91D9008ACE012B91D9009191C
:1054ED00E012B91DD2969009A67409F09003D7E089
:1054FD00FF04F0743D2FF582E43406F5837406F055
:10550D009008BDE0FF9003D7E0FE04F0743D2EF54A
:10551D0082E43406F583EFF09009A6E02FF09008B1
:10552D00BCE0FF9003D7E0FE04F0743D2EF582E45D
:10553D003406F583EFF09009A6E02FF09008BEE059
:10554D00FF9003D7E0FE04F0743D2EF582E434069F
:10555D00F583EFF09009A6E02FF09003D7E0FF045C
:10556D00F0743D2FF582E43406F5837403F0900951
:10557D00A6E0FFC3E49FFF9003D7E0FE04F0743D67
:10558D002EF582E43406F583EFF0900921E0240630
:0E559D00F0900920E03400F0227F0712A4F302
:0155AB0022DD
:07F9DC0075C15D43C18022EB
:10F64D00E4F591538E3F759398F592859395859238
:08F65D009443E680439104226E
:03203B00027237F7
:10723700C0E0C0F0C083C082C0D075D000C000C01D
:0B72470001C002C003C004C005C00766
:10725200C206E5C054F0248070030272F924C060B3
:107262002024E0600302734790085FE0F5C253C236
:10727200FEA205E43342C2C2C59000C9E4F0027323
:107282004930C168300007D2C5C2000273493003D9
:1072920015C20390084BE0F5C2200203027349D2E3
:1072A20000D205027349300503027349900610E0CB
:1072B200FF9000C9E0FD3395E0FCC3ED9F7480F8B8
:1072C2006C98502290062DE0FBA3E0FAA3E0F9129D
:1072D2003885F5C290062EE475F00112394D900002
:1072E200C9E004F08061D2C4C201805B300404D2E0
:1072F200C58054D2068050900610E0FF9000C9E08D
:10730200FD3395E0FCC3ED9F7480F86C9850229099
:107312000858E0FBA3E0FAA3E0F9E5C212389E9018
:107322000859E475F00112394D9000C9E004F0D219
:10733200C19000C9E0FF900610E0B5070AC201C281
:10734200C1D2C48002D20630061053C17F43C1802D
:0C735200C2C5C2C4C2C1C201C206C2C092
:10735E00D007D005D004D003D002D001D000D0D0B9
:09736E00D082D083D0F0D0E032CF
:0320730002F9610E
:0EF9610053C17F43C18053917FC2C5C20132A2
:10ECDB00E4FE3001080EEEB4FFF8E4802FD2019071
:10ECEB00085FEDF0C205D203C202D20490084BEFCD
:10ECFB00F090050AEBF090062D7401F0A37405F06B
:10ED0B00A3740AF09006107401F0D2C59003E3F0DF
:01ED1B0022D5
:10BA5900E4FFFE30010D0FBF00010EBEFFF5BFFF71
:10BA6900F2803ED201900965A3E090085FF0C2051B
:10BA7900D203D202D20490084BEDF0900858EBF0B3
:10BA8900A3EAF0A3E9F0900967E0900610F0D2C5A7
:10BA9900E4FEFF3001110FBF00010EBEFFF5BFFF2D
:0DBAA900F2E49003E3F0229003E37401F057
:01BAB600226D
:0D607B00B2B0E4900857F09008B07408F03F
:106088009009A77414F09003D7E0FF04F0743D2F33
:10609800F582E43406F5837409F09003D7E0FF0431
:1060A800F0743D2FF582E43406F583E4F09003D7CD
:1060B800E0FF04F0743D2FF582E43406F5837401A3
:1060C800F09003D7E0FF04F0743D2FF582E4340626
:1060D800F5837408F09003D7E0FF04F0743D2FF5C2
:1060E80082E43406F5837402F09003D3E0FF54C0D1
:1060F800FEBE80159003D7E0FE04F0743D2EF582B5
:10610800E43406F583E4F08048EF5430FFBF201CE8
:106118009003D7E0FF04F0743D2FF582E43406F5D0
:10612800837401F09009A7E004F080259003D3E080
:10613800540CFFBF081B9003D7E0FF04F0743D2FF9
:10614800F582E43406F5837402F09009A7E024028E
:10615800F0900630E0FCA3E0FDA3E0FEA3E0FF9092
:106168000613E0F8A3E0F9A3E0FAA3E02FFFEA3E64
:10617800FEE93DFDE83CFCE47B3EFAF9F8123A04FE
:10618800AD07AC06ECFF9003D7E0FE04F0743D2E9B
:10619800F582E43406F583EFF09009A7E02FF0AF1D
:1061A800059003D7E0FE04F0743D2EF582E4340632
:1061B800F583EFF09009A7E02FF0E0FFC3E49FFF1D
:1061C8009003D7E0FE04F0743D2EF582E43406F522
:1061D80083EFF0900921E02409F0900920E03400D1
:0661E800F0E490084FF006
:0161EE00228E
:038506007480F08E
:10850900900853E0FF60030286017E1390061D0464
:10851900F09003D7E0FD04F0743D2DF582E43406B4
:10852900F5837407F09003D7E0FD04F0743D2DF551
:1085390082E43406F583E4F09003D7E0FD04F07497
:108549003D2DF582E43406F5837401F09003D7E0FC
:10855900FD04F0743D2DF582E43406F5837409F0C9
:108569009003D7E0FD04F0743D2DF582E43406F55F
:10857900837402F09003D3E0FD54C0FCBC40159015
:1085890003D7E0FC04F0743D2CF582E43406F5834E
:10859900E4F0803EED5430FDBD10179003D7E0FDA7
:1085A90004F0743D2DF582E43406F5837401F00E70
:1085B90080209003D3E0540CFDBD04169003D7E04E
:1085C900FD04F0743D2DF582E43406F5837402F060
:1085D9000E0EC3E49EFE9003D7E0FD04F0743D2D1A
:1085E900F582E43406F583EEF0900921E02407F0E2
:1085F900900920E03400F022EF600690084F7401E2
:01860900F080
:01860A00224D
:1043D600E490097FF0900910123AD900000000908D
:1043E60008BBE0FFE4FCFDFE900910E0F8A3E0F94D
:1043F600A3E0FAA3E0FBC3123A965039900910A342
:10440600A3A3E024BBF582E43408F583E0FF90091A
:104416007FE02FF0900910E0FCA3E0FDA3E0FEA3EF
:10442600E02401FFE43EFEE43DFDE43CFC9009107F
:10443600123ACD80AA90097FE06003024673900885
:10444600B0E04480F09008BFE0640360030244E1FA
:10445600A3E0FFE4FCFDFE7808123ABAE4FFE4FDAF
:10446600FC90097B123ACD90097BE0F8A3E0F9A312
:10447600E0FAA3E0FB9008C1E0FFE4FCFDFEEB2FB1
:10448600FFEE3AFEED39FDEC38FC90097B123ACD91
:1044960090097BE0FCA3E0FDA3E0FEA3E0FFE47B44
:1044A6003EFAF9F812397990097B123ACD90063026
:1044B600E0FCA3E0FDA3E0FEA3E0FF90097BE0F8AB
:1044C600A3E0F9A3E0FAA3E0FBEF2BFFEE3AFEED43
:1044D60039FDEC38FC900630123ACD9008BFE06406
:1044E60002600302467890097F7414F09003D7E0C7
:1044F600FF04F0743D2FF582E43406F5837408F06A
:104506009003D7E0FF04F0743D2FF582E43406F5FE
:1045160083E4F09003D7E0FF04F0743D2FF582E4C6
:104526003406F5837401F09003D7E0FF04F0743D80
:104536002FF582E43406F5837408F09003D7E0FF84
:1045460004F0743D2FF582E43406F5837403F0908D
:1045560008C0E0FFE4FCFDFE7808123ABAE4FFE486
:10456600FDFC90097B123ACD90097BE0F8A3E0F9B7
:10457600A3E0FAA3E0FB9008C1E0FFE4FCFDFEEB3C
:104586002FFFEE3AFEED39FDEC38FC90097B123A2E
:10459600CD90097BE0FCA3E0FDA3E0FEA3E0FFE4F1
:1045A6007B3EFAF9F812397990097B123ACD9006DA
:1045B60030E0FCA3E0FDA3E0FEA3E0FF90097BE072
:1045C600F8A3E0F9A3E0FAA3E0FBEF2BFFEE3AFE37
:1045D600ED39FDEC38FC900630123ACD900630E00D
:1045E600FCA3E0FDA3E0FEA3E0FF900613E0F8A322
:1045F600E0F9A3E0FAA3E02FFFEA3EFEE93DFDE87D
:104606003CFCE47B3EFAF9F8123A04AD07AC06EC42
:10461600FF9003D7E0FE04F0743D2EF582E43406E5
:10462600F583EFF090097FE02FF0AF059003D7E018
:10463600FE04F0743D2EF582E43406F583EFF09027
:10464600097FE02FF0E0FFC3E49FFF9003D7E0FE71
:1046560004F0743D2EF582E43406F583EFF09009FC
:1046660021E02408F0900920E03400F0227F0812AF
:02467600A4F3AB
:01467800221F
:10DB5C00E4FFFE9008BBE0FDEEC39D501074BB2E9D
:10DB6C00F582E43408F583E02FFF0E80E6EF702C8D
:10DB7C009008B0F0900630123AD9000000009008DE
:10DB8C00C0E07F056005123B6F8003123BF8E49008
:10DB9C00061DF09008B0F090084FF0227F0912A4F7
:01DBAC00F385
:01DBAD002255
:10F6650075F003EFA424CAF582E5F03400F583A311
:08F67500E0FAA3E0F9023B3CBE
:10F4CB00900639123AD900000000900502123AD981
:0FF4DB0000000000900938123AD900000000220A
:06F9E300E49003D3F022C2
:06F9E900E49003D3F022BC
:06F9EF00E49003D3F022B6
:10F67D00E4900909F0900502123AD90000000090BB
:08F68D0003D3E004F002FA17B8
:10ACEF00900502E0FCA3E0FDA3E0FEA3E02401FF3A
:10ACFF00E43EFEE43DFDE43CFC900502123ACD90AB
:10AD0F000502A3A3A3E05401FFE4FEFDFCFBFAF947
:10AD1F00F8C3123A96700EB2B0900612F09008BBBC
:10AD2F00F0900909F0E47F06FEFDFC900502E0F8C3
:10AD3F00A3E0F9A3E0FAA3E0FBC3123A96701090D8
:10AD4F000502123AD9000000009003D3E004F0226C
:10CD1200900502E0FCA3E0FDA3E0FEA3E02401FFF6
:10CD2200E43EFEE43DFDE43CFC900502123ACD9067
:10CD32000502A3A3A3E05401FFE4FEFDFCFBFAF904
:10CD4200F8C3123A967020900502123AD9000000F8
:10CD520000B2B09003D3E004F0E4900612F0900821
:08CD6200BBF090090904F02266
:10DD9400900502E0FCA3E0FDA3E0FEA3E02401FF64
:10DDA400E43EFEE43DFDE43CFC900502123ACD90D5
:10DDB4000502A3A3A3E05401FFE4FEFDFCFBFAF972
:10DDC400F8C3123A96700C900502123AD90000007A
:0EDDD40000B2B09008B0E030E30312850622E2
:10DDE200900502E0FCA3E0FDA3E0FEA3E02401FF16
:10DDF200E43EFEE43DFDE43CFC900502123ACD9087
:10DE02000502A3A3A3E05401FFE4FEFDFCFBFAF923
:10DE1200F8C3123A967016900502123AD900000021
:0EDE22000012607B9003D3E054FC4402F02217
:10D6B200900502E0FCA3E0FDA3E0FEA3E02401FF4D
:10D6C200E43EFEE43DFDE43CFC900502123ACD90BE
:10D6D2000502A3A3A3E05401FFE4FEFDFCFBFAF95B
:10D6E200F8C3123A96701F900502123AD900000050
:10D6F20000B2B0900502123AD9000000009003D3A4
:07D70200E054FC4401F02299
:10998500900613E0FCA3E0FDA3E0FEA3E0FF900535
:1099950002E0F8A3E0F9A3E0FAA3E0FBC3123A96CC
:1099A500703B900630E0FCA3E0FDA3E0FEA3E0FFE2
:1099B500EC4D4E4F601F900630A3A3A3E024FFFF9C
:1099C500EE34FFFEED34FFFDEC34FFFC9006301263
:1099D5003ACDB2B0229003D3E054FCF022900502B8
:1099E500E0FCA3E0FDA3E0FEA3E02401FFE43EFECE
:1099F500E43DFDE43CFC900502123ACD900502A33E
:109A0500A3A3E05401FFE4FEFDFCFBFAF9F8C31241
:109A15003A967002B2B0900502A3A3A3E0543FFFAB
:109A2500E4FEFDFCFBFAF9F8C3123A9670199008AA
:109A350057E0D3940550109008B0E020E709126074
:089A450088900857E004F022AC
:10DA6300900502123AD9000000009003D3E0440469
:10DA730012F50FE49008B0F09008BBF090063DF06B
:10DA83009003D7F090091FF0900612F09003F7F07F
:10DA9300900840F09003E8F0A3F0900630123AD9D2
:10DAA3000000000012F7B49008A9E06005E4F0124A
:03DAB300F48C22CE
:0BF97B00900502123AD90000000022A3
:082003009003D3E054FCF0222D
:08F99C009003D3E054FCF022BB
:08F9A4009003D3E054FCF022B3
:10F69500E4900909F09003D3E004F0900938123A98
:08F6A500D90000000002FA1771
:10AD5F00900938E0FCA3E0FDA3E0FEA3E02401FF8F
:10AD6F00E43EFEE43DFDE43CFC900938123ACD9000
:10AD7F000938A3A3A3E05401FFE4FEFDFCFBFAF99D
:10AD8F00F8C3123A96700EB2B0900612F09008BB4C
:10AD9F00F0900909F0E47F06FEFDFC900938E0F819
:10ADAF00A3E0F9A3E0FAA3E0FBC3123A9670109068
:10ADBF000938123AD9000000009003D3E004F022C2
:10CD6A00900938E0FCA3E0FDA3E0FEA3E02401FF64
:10CD7A00E43EFEE43DFDE43CFC900938123ACD90D5
:10CD8A000938A3A3A3E05401FFE4FEFDFCFBFAF972
:10CD9A00F8C3123A967020900938123AD900000066
:10CDAA0000B2B09003D3E004F0E4900612F09008C9
:08CDBA00BBF090090904F0220E
:10DE3000900938E0FCA3E0FDA3E0FEA3E02401FF8D
:10DE4000E43EFEE43DFDE43CFC900938123ACD90FE
:10DE50000938A3A3A3E05401FFE4FEFDFCFBFAF99B
:10DE6000F8C3123A96700C900938123AD9000000A3
:0EDE700000B2B09008B0E030E3031285062245
:10F6AD00E4900909F09003D3E004F0900938123A80
:08F6BD00D90000000002FA1759
:10ADCF00900938E0FCA3E0FDA3E0FEA3E02401FF1F
:10ADDF00E43EFEE43DFDE43CFC900938123ACD9090
:10ADEF000938A3A3A3E05401FFE4FEFDFCFBFAF92D
:10ADFF00F8C3123A96700EB2B0900612F09008BBDC
:10AE0F00F0900909F0E47F06FEFDFC900938E0F8A8
:10AE1F00A3E0F9A3E0FAA3E0FBC3123A96701090F7
:10AE2F000938123AD9000000009003D3E004F02251
:10CDC200900938E0FCA3E0FDA3E0FEA3E02401FF0C
:10CDD200E43EFEE43DFDE43CFC900938123ACD907D
:10CDE2000938A3A3A3E05401FFE4FEFDFCFBFAF91A
:10CDF200F8C3123A967020900938123AD90000000E
:10CE020000B2B09003D3E004F0E4900612F0900870
:08CE1200BBF090090904F022B5
:10DBAE00900938E0FCA3E0FDA3E0FEA3E02401FF12
:10DBBE00E43EFEE43DFDE43CFC900938123ACD9083
:10DBCE000938A3A3A3E05401FFE4FEFDFCFBFAF920
:10DBDE00F8C3123A96700C900938123AD900000028
:10DBEE0000B2B09008B0E030E3067480F012850900
:01DBFE002204
:10F38F00E4900909F09003D3E04404F0E004F09016
:10F39F000938123AD900000000900502123AD9003C
:06F3AF0000000002FA1745
:10AB9900900938E0FCA3E0FDA3E0FEA3E02401FF57
:10ABA900E43EFEE43DFDE43CFC900938123ACD90C8
:10ABB9000938A3A3A3E05401FFE4FEFDFCFBFAF965
:10ABC900F8C3123A96700EB2B0900612F09008BB14
:10ABD900F0900909F0E47F06FEFDFC900938E0F8E1
:10ABE900A3E0F9A3E0FAA3E0FBC3123A967014902C
:10ABF9000938123AD9000000009003D3E04404F068
:04AC0900E004F02251
:10BAB700900938E0FCA3E0FDA3E0FEA3E02401FF2A
:10BAC700E43EFEE43DFDE43CFC900938123ACDE447
:10BAD7007F02FEFDFC900938E0F8A3E0F9A3E0FA45
:10BAE700A3E0FBC3123A967024900938123AD900A2
:10BAF700000000B2B09003D3E04404F0E004F0E4A7
:0EBB0700900612F09008BBF090090904F0229D
:10CC5E009003D3E04404F0900938E0FCA3E0FDA378
:10CC6E00E0FEA3E02401FFE43EFEE43DFDE43CFCD7
:10CC7E00900938123ACDE47F02FEFDFC900938E0AF
:10CC8E00F8A3E0F9A3E0FAA3E0FBC3123A96700C06
:10CC9E00900938123AD900000000B2B09008B0E006
:0ACCAE0030E3067480F012850922BD
:10F6C500E4900909F09003D3E004F0900938123A68
:08F6D500D90000000002FA1741
:10AE3F00900938E0FCA3E0FDA3E0FEA3E02401FFAE
:10AE4F00E43EFEE43DFDE43CFC900938123ACD901F
:10AE5F000938A3A3A3E05401FFE4FEFDFCFBFAF9BC
:10AE6F00F8C3123A96700EB2B0900612F09008BB6B
:10AE7F00F0900909F0E47F06FEFDFC900938E0F838
:10AE8F00A3E0F9A3E0FAA3E0FBC3123A9670109087
:10AE9F000938123AD9000000009003D3E004F022E1
:10CCB800900938E0FCA3E0FDA3E0FEA3E02401FF17
:10CCC800E43EFEE43DFDE43CFC900938123ACDE434
:10CCD8007F02FEFDFC900938E0F8A3E0F9A3E0FA32
:10CCE800A3E0FBC3123A967020900938123AD90093
:10CCF800000000B2B09003D3E004F0E4900612F014
:0ACD08009008BBF090090904F02226
:10DAB600900938E0FCA3E0FDA3E0FEA3E02401FF0B
:10DAC600E43EFEE43DFDE43CFC900938123ACDE428
:10DAD6007F02FEFDFC900938E0F8A3E0F9A3E0FA26
:10DAE600A3E0FBC3123A96700C900938123AD9009B
:10DAF600000000B2B09008B0E030E3067480F01287
:03DB06008509226C
:10DE7E00900938E0FCA3E0FDA3E0FEA3E02401FF3F
:10DE8E00E43EFEE43DFDE43CFC900938123ACD90B0
:10DE9E000938A3A3A3E05401FFE4FEFDFCFBFAF94D
:10DEAE00F8C3123A967016900938123AD90000004B
:0EDEBE000012607B9003D3E054FC4402F0227B
:10D70900900938E0FCA3E0FDA3E0FEA3E02401FFBB
:10D71900E43EFEE43DFDE43CFC900938123ACD902C
:10D729000938A3A3A3E05401FFE4FEFDFCFBFAF9C9
:10D73900F8C3123A96701F900938123AD9000000BE
:10D7490000B2B09003D3E054FC4401F090093812C0
:07D759003AD9000000002294
:109A4D00900613E0FCA3E0FDA3E0FEA3E0FF900968
:109A5D0038E0F8A3E0F9A3E0FAA3E0FBC3123A96CD
:109A6D00703B900630E0FCA3E0FDA3E0FEA3E0FF19
:109A7D00EC4D4E4F601F900630A3A3A3E024FFFFD3
:109A8D00EE34FFFEED34FFFDEC34FFFC900630129A
:109A9D003ACDB2B0229003D3E054FCF022900938B5
:109AAD00E0FCA3E0FDA3E0FEA3E02401FFE43EFE05
:109ABD00E43DFDE43CFC900938123ACD900938A301
:109ACD00A3A3E05401FFE4FEFDFCFBFAF9F8C31279
:109ADD003A967002B2B0900938A3A3A3E0543FFFA9
:109AED00E4FEFDFCFBFAF9F8C3123A9670199008E2
:109AFD0057E0D3940550109008B0E020E7091260AC
:089B0D0088900857E004F022E3
:10D76000900938123AD9000000009003D3E0441029
:10D77000F0E4900909F0C2B09008B0F09008BBF056
:10D7800090063DF09003D7F090091FF0900612F03C
:10D790009003F7F0900840F09003E8F0A3F09006B3
:10D7A00030123AD90000000012F7B49008A9E060E6
:07D7B00005E4F012F48C22E5
:10DECC00900938E0FCA3E0FDA3E0FEA3E02401FFF1
:10DEDC00E43EFEE43DFDE43CFC900938123ACD9062
:10DEEC000938A3A3A3E05401FFE4FEFDFCFBFAF9FF
:10DEFC00F8C3123A967016900938123AD9000000FD
:0EDF0C000012607B9003D3E054FC4402F0222C
:10D7B700900938E0FCA3E0FDA3E0FEA3E02401FF0D
:10D7C700E43EFEE43DFDE43CFC900938123ACD907E
:10D7D7000938A3A3A3E05401FFE4FEFDFCFBFAF91B
:10D7E700F8C3123A96701F900938123AD900000010
:10D7F70000B2B09003D3E054FC4401F09009381212
:07D807003AD90000000022E5
:109B1500900613E0FCA3E0FDA3E0FEA3E0FF90099F
:109B250038E0F8A3E0F9A3E0FAA3E0FBC3123A9604
:109B3500703B900630E0FCA3E0FDA3E0FEA3E0FF50
:109B4500EC4D4E4F601F900630A3A3A3E024FFFF0A
:109B5500EE34FFFEED34FFFDEC34FFFC90063012D1
:109B65003ACDB2B0229003D3E054FCF022900938EC
:109B7500E0FCA3E0FDA3E0FEA3E02401FFE43EFE3C
:109B8500E43DFDE43CFC900938123ACD900938A338
:109B9500A3A3E05401FFE4FEFDFCFBFAF9F8C312B0
:109BA5003A967002B2B0900938A3A3A3E0543FFFE0
:109BB500E4FEFDFCFBFAF9F8C3123A967019900819
:109BC50057E0D3940550109008B0E020E7091260E3
:089BD50088900857E004F0221B
:10DF1A00900938123AD9000000009003D3E0441067
:10DF2A00F054F0F0E4900909F0C2B09008B0F09013
:10DF3A0008BBF090063DF09003D7F090091FF090CF
:10DF4A000612F09003F7F0900840F09003E8F0A36F
:0EDF5A00F0900630123AD90000000002F7B431
:10DF6800900938E0FCA3E0FDA3E0FEA3E02401FF54
:10DF7800E43EFEE43DFDE43CFC900938123ACD90C5
:10DF88000938A3A3A3E05401FFE4FEFDFCFBFAF962
:10DF9800F8C3123A967016900938123AD900000060
:0EDFA8000012607B9003D3E054FC4402F02290
:10E4BE00900938E0FCA3E0FDA3E0FEA3E02401FFF9
:10E4CE00E43EFEE43DFDE43CFC900938123ACD906A
:10E4DE000938A3A3A3E05401FFE4FEFDFCFBFAF907
:10E4EE00F8C3123A967015B2B09003D3E054FC44C0
:0DE4FE0001F0900938123AD9000000002208
:109BDD00900613E0FCA3E0FDA3E0FEA3E0FF9009D7
:109BED0038E0F8A3E0F9A3E0FAA3E0FBC3123A963C
:109BFD00703B900630E0FCA3E0FDA3E0FEA3E0FF88
:109C0D00EC4D4E4F601F900630A3A3A3E024FFFF41
:109C1D00EE34FFFEED34FFFDEC34FFFC9006301208
:109C2D003ACDB2B0229003D3E054FCF02290093823
:109C3D00E0FCA3E0FDA3E0FEA3E02401FFE43EFE73
:109C4D00E43DFDE43CFC900938123ACD900938A36F
:109C5D00A3A3E05401FFE4FEFDFCFBFAF9F8C312E7
:109C6D003A967002B2B0900938A3A3A3E0543FFF17
:109C7D00E4FEFDFCFBFAF9F8C3123A967019900850
:109C8D0057E0D3940550109008B0E020E70912601A
:089C9D0088900857E004F02252
:10E72600900938123AD9000000009003D3E044144F
:10E73600F0E4900909F0C2B09008B0F09008BBF080
:10E7460090063DF09003D7F090091FF0900612F066
:10E756009003F7F0900840F09003E8F0A3F09006DD
:0BE7660030123AD90000000002F7B4A6
:10C81A00900938E0FCA3E0FDA3E0FEA3E02401FFB9
:10C82A00E43EFEE43DFDE43CFC900938123ACD902A
:10C83A000938A3A3A3E05401FFE4FEFDFCFBFAF9C7
:10C84A00F8C3123A967023900938123AD9000000B8
:10C85A0000B2B09008577408F0E49008B0F0126083
:0BC86A00889003D3E054FC4402F0224D
:10E50B00900938E0FCA3E0FDA3E0FEA3E02401FFAB
:10E51B00E43EFEE43DFDE43CFC900938123ACD901C
:10E52B000938A3A3A3E05401FFE4FEFDFCFBFAF9B9
:10E53B00F8C3123A967015B2B09003D3E054FC4472
:0DE54B0001F0900938123AD90000000022BA
:109CA500900613E0FCA3E0FDA3E0FEA3E0FF90090E
:109CB50038E0F8A3E0F9A3E0FAA3E0FBC3123A9673
:109CC500703B900630E0FCA3E0FDA3E0FEA3E0FFBF
:109CD500EC4D4E4F601F900630A3A3A3E024FFFF79
:109CE500EE34FFFEED34FFFDEC34FFFC9006301240
:109CF5003ACDB2B0229003D3E054FCF0229009385B
:109D0500E0FCA3E0FDA3E0FEA3E02401FFE43EFEAA
:109D1500E43DFDE43CFC900938123ACD900938A3A6
:109D2500A3A3E05401FFE4FEFDFCFBFAF9F8C3121E
:109D35003A967002B2B0900938A3A3A3E0543FFF4E
:109D4500E4FEFDFCFBFAF9F8C3123A967019900887
:109D550057E0D3940550109008B0E020E709126051
:089D650088900857E004F02289
:10E77100900938123AD9000000009003D3E0441008
:10E78100F0E4900909F0C2B09008B0F09008BBF035
:10E7910090063DF09003D7F090091FF0900612F01B
:10E7A1009003F7F0900840F09003E8F0A3F0900692
:0BE7B10030123AD90000000002F7B45B
:0BF98600900938123AD900000000225E
:08F9AC009003D3E054FCF022AB
:08F9B4009003D3E054FCF022A3
:08F9BC009003D3E054FCF0229B
:10F6DD00E4900909F09003D3E004F0900502123A8A
:08F6ED00D90000000002FA1729
:10AEAF00900502E0FCA3E0FDA3E0FEA3E02401FF78
:10AEBF00E43EFEE43DFDE43CFC900502123ACD90E9
:10AECF000502A3A3A3E05401FFE4FEFDFCFBFAF986
:10AEDF00F8C3123A96700EB2B0900612F09008BBFB
:10AEEF00F0900909F0E47F06FEFDFC900502E0F802
:10AEFF00A3E0F9A3E0FAA3E0FBC3123A9670109017
:10AF0F000502123AD9000000009003D3E004F022AA
:10CE1A00900502E0FCA3E0FDA3E0FEA3E02401FFED
:10CE2A00E43EFEE43DFDE43CFC900502123ACD905E
:10CE3A000502A3A3A3E05401FFE4FEFDFCFBFAF9FB
:10CE4A00F8C3123A967020900502123AD9000000EF
:10CE5A0000B2B09003D3E004F0E4900612F0900818
:08CE6A00BBF090090904F0225D
:10DBFF00900502E0FCA3E0FDA3E0FEA3E02401FFFB
:10DC0F00E43EFEE43DFDE43CFC900502123ACD906B
:10DC1F000502A3A3A3E05401FFE4FEFDFCFBFAF908
:10DC2F00F8C3123A96700C900502123AD900000010
:10DC3F0000B2B09008B0E030E3067480F0128509AE
:01DC4F0022B2
:10E20000900502E0FCA3E0FDA3E0FEA3E02401FFF3
:10E21000E43EFEE43DFDE43CFC900502123ACD9064
:10E220000502A3A3A3E05401FFE4FEFDFCFBFAF901
:10E23000F8C3123A967016900502123AD9000000FF
:0EE240000012607B9003D3E054FC4402F022F5
:10D80E00900502E0FCA3E0FDA3E0FEA3E02401FFEF
:10D81E00E43EFEE43DFDE43CFC900502123ACD9060
:10D82E000502A3A3A3E05401FFE4FEFDFCFBFAF9FD
:10D83E00F8C3123A96701F900502123AD9000000F2
:10D84E0000B2B0900502123AD9000000009003D346
:07D85E00E054FC4401F0223C
:109D6D00900613E0FCA3E0FDA3E0FEA3E0FF900549
:109D7D0002E0F8A3E0F9A3E0FAA3E0FBC3123A96E0
:109D8D00703B900630E0FCA3E0FDA3E0FEA3E0FFF6
:109D9D00EC4D4E4F601F900630A3A3A3E024FFFFB0
:109DAD00EE34FFFEED34FFFDEC34FFFC9006301277
:109DBD003ACDB2B0229003D3E054FCF022900502CC
:109DCD00E0FCA3E0FDA3E0FEA3E02401FFE43EFEE2
:109DDD00E43DFDE43CFC900502123ACD900502A352
:109DED00A3A3E05401FFE4FEFDFCFBFAF9F8C31256
:109DFD003A967002B2B0900502A3A3A3E0543FFFC0
:109E0D00E4FEFDFCFBFAF9F8C3123A9670199008BE
:109E1D0057E0D3940550109008B0E020E709126088
:089E2D0088900857E004F022C0
:10E7BC00900502123AD9000000009003D3E0440403
:10E7CC00F0E4900909F0C2B09008B0F09008BBF0EA
:10E7DC0090063DF09003D7F090091FF0900612F0D0
:10E7EC009003F7F0900840F09003E8F0A3F0900647
:0BE7FC0030123AD90000000002F7B410
:10200E00900502123AD900000000900938123AD910
:05201E0000000000229B
:08F9C4009003D3E054FCF02293
:08F9CC009003D3E054FCF0228B
:08F9D4009003D3E054FCF02283
:10EE950012203E900618E0FCA3E0FDA3E0FEA3E0EF
:10EEA500FF900639E0F8A3E0F9A3E0FAA3E0FBC37D
:10EEB500123A9640139003D3E004F0900639123AC3
:09EEC500D90000000012FA172226
:10AF1F00900639E0FCA3E0FDA3E0FEA3E02401FFCF
:10AF2F00E43EFEE43DFDE43CFC900639123ACD9040
:10AF3F000639A3A3A3E05401FFE4FEFDFCFBFAF9DD
:10AF4F00F8C3123A96700EB2B0900612F09008BB8A
:10AF5F00F0900909F0E47F30FEFDFC900639E0F82F
:10AF6F00A3E0F9A3E0FAA3E0FBC3123A96701090A6
:10AF7F000639123AD9000000009003D3E004F02202
:10CE7200900639E0FCA3E0FDA3E0FEA3E02401FF5D
:10CE8200E43EFEE43DFDE43CFC900639123ACD90CE
:10CE92000639A3A3A3E05401FFE4FEFDFCFBFAF96B
:10CEA200F8C3123A967020900639123AD90000005F
:10CEB20000B2B09003D3E004F0E4900612F09008C0
:08CEC200BBF090090904F02205
:10D91300900639E0FCA3E0FDA3E0FEA3E02401FFB1
:10D92300E43EFEE43DFDE43CFC900639123ACD9022
:10D933000639A3A3A3E05401FFE4FEFDFCFBFAF9BF
:10D94300F8C3123A96700C900639123AD9000000C7
:10D9530000B2B09008B0E030E3097480F01285099A
:04D96300122062220A
:10EECE0012203E900618E0FCA3E0FDA3E0FEA3E0B6
:10EEDE00FF900639E0F8A3E0F9A3E0FAA3E0FBC344
:10EEEE00123A9640139003D3E004F0900639123A8A
:09EEFE00D90000000012FA1722ED
:10AF8F00900639E0FCA3E0FDA3E0FEA3E02401FF5F
:10AF9F00E43EFEE43DFDE43CFC900639123ACD90D0
:10AFAF000639A3A3A3E05401FFE4FEFDFCFBFAF96D
:10AFBF00F8C3123A96700EB2B0900612F09008BB1A
:10AFCF00F0900909F0E47F30FEFDFC900639E0F8BF
:10AFDF00A3E0F9A3E0FAA3E0FBC3123A9670109036
:10AFEF000639123AD9000000009003D3E004F02292
:10CECA00900639E0FCA3E0FDA3E0FEA3E02401FF05
:10CEDA00E43EFEE43DFDE43CFC900639123ACD9076
:10CEEA000639A3A3A3E05401FFE4FEFDFCFBFAF913
:10CEFA00F8C3123A967020900639123AD900000007
:10CF0A0000B2B09003D3E004F0E4900612F0900867
:08CF1A00BBF090090904F022AC
:10C87500900639E0FCA3E0FDA3E0FEA3E02401FF60
:10C88500E43EFEE43DFDE43CFC900639123ACD90D1
:10C8950003D3E054F3F0900639A3A3A3E05401FFBA
:10C8A500E4FEFDFCFBFAF9F8C3123A96700C90060B
:10C8B50039123AD900000000B2B09008B0E030E378
:0BC8C500097480F01285091220622225
:10EF070012203E900618E0FCA3E0FDA3E0FEA3E07C
:10EF1700FF900639E0F8A3E0F9A3E0FAA3E0FBC30A
:10EF2700123A9640139003D3E004F0900639123A50
:09EF3700D90000000012FA1722B3
:10AFFF00900639E0FCA3E0FDA3E0FEA3E02401FFEF
:10B00F00E43EFEE43DFDE43CFC900639123ACD905F
:10B01F000639A3A3A3E05401FFE4FEFDFCFBFAF9FC
:10B02F00F8C3123A96700EB2B0900612F09008BBA9
:10B03F00F0900909F0E47F30FEFDFC900639E0F84E
:10B04F00A3E0F9A3E0FAA3E0FBC3123A96701090C5
:10B05F000639123AD9000000009003D3E004F02221
:10CF2200900639E0FCA3E0FDA3E0FEA3E02401FFAC
:10CF3200E43EFEE43DFDE43CFC900639123ACD901D
:10CF42000639A3A3A3E05401FFE4FEFDFCFBFAF9BA
:10CF5200F8C3123A967020900639123AD9000000AE
:10CF620000B2B09003D3E004F0E4900612F090080F
:08CF7200BBF090090904F02254
:10C8D000900639E0FCA3E0FDA3E0FEA3E02401FF05
:10C8E000E43EFEE43DFDE43CFC900639123ACD9076
:10C8F00003D3E04404F0900639A3A3A3E05401FF5E
:10C90000E4FEFDFCFBFAF9F8C3123A96700C9006AF
:10C9100039123AD900000000B2B09008B0E030E31C
:0BC92000097480F012850912206222C9
:10EF400012203E900618E0FCA3E0FDA3E0FEA3E043
:10EF5000FF900639E0F8A3E0F9A3E0FAA3E0FBC3D1
:10EF6000123A9640139003D3E004F0900639123A17
:09EF7000D90000000012FA17227A
:10B06F00900639E0FCA3E0FDA3E0FEA3E02401FF7E
:10B07F00E43EFEE43DFDE43CFC900639123ACD90EF
:10B08F000639A3A3A3E05401FFE4FEFDFCFBFAF98C
:10B09F00F8C3123A96700EB2B0900612F09008BB39
:10B0AF00F0900909F0E47F30FEFDFC900639E0F8DE
:10B0BF00A3E0F9A3E0FAA3E0FBC3123A9670109055
:10B0CF000639123AD9000000009003D3E004F022B1
:10CF7A00900639E0FCA3E0FDA3E0FEA3E02401FF54
:10CF8A00E43EFEE43DFDE43CFC900639123ACD90C5
:10CF9A000639A3A3A3E05401FFE4FEFDFCFBFAF962
:10CFAA00F8C3123A967020900639123AD900000056
:10CFBA0000B2B09003D3E004F0E4900612F09008B7
:08CFCA00BBF090090904F022FC
:10D96700900639E0FCA3E0FDA3E0FEA3E02401FF5D
:10D97700E43EFEE43DFDE43CFC900639123ACD90CE
:10D987000639A3A3A3E05401FFE4FEFDFCFBFAF96B
:10D99700F8C3123A96700C900639123AD900000073
:10D9A70000B2B09008B0E030E3097480F012850946
:04D9B70012206222B6
:10EF790012203E900618E0FCA3E0FDA3E0FEA3E00A
:10EF8900FF900639E0F8A3E0F9A3E0FAA3E0FBC398
:10EF9900123A9640139003D3E004F0900639123ADE
:09EFA900D90000000012FA172241
:10B0DF00900639E0FCA3E0FDA3E0FEA3E02401FF0E
:10B0EF00E43EFEE43DFDE43CFC900639123ACD907F
:10B0FF000639A3A3A3E05401FFE4FEFDFCFBFAF91C
:10B10F00F8C3123A96700EB2B0900612F09008BBC8
:10B11F00F0900909F0E47F30FEFDFC900639E0F86D
:10B12F00A3E0F9A3E0FAA3E0FBC3123A96701090E4
:10B13F000639123AD9000000009003D3E004F02240
:10CFD200900639E0FCA3E0FDA3E0FEA3E02401FFFC
:10CFE200E43EFEE43DFDE43CFC900639123ACD906D
:10CFF2000639A3A3A3E05401FFE4FEFDFCFBFAF90A
:10D00200F8C3123A967020900639123AD9000000FD
:10D0120000B2B09003D3E004F0E4900612F090085E
:08D02200BBF090090904F022A3
:10C92B00900639E0FCA3E0FDA3E0FEA3E02401FFA9
:10C93B00E43EFEE43DFDE43CFC900639123ACD901A
:10C94B0003D3E054CFF0900639A3A3A3E05401FF27
:10C95B00E4FEFDFCFBFAF9F8C3123A96700C900654
:10C96B0039123AD900000000B2B09008B0E030E3C1
:0BC97B00097480F0128509122062226E
:10EFB20012203E900618E0FCA3E0FDA3E0FEA3E0D1
:10EFC200FF900639E0F8A3E0F9A3E0FAA3E0FBC35F
:10EFD200123A9640139003D3E004F0900639123AA5
:09EFE200D90000000012FA172208
:10B14F00900639E0FCA3E0FDA3E0FEA3E02401FF9D
:10B15F00E43EFEE43DFDE43CFC900639123ACD900E
:10B16F000639A3A3A3E05401FFE4FEFDFCFBFAF9AB
:10B17F00F8C3123A96700EB2B0900612F09008BB58
:10B18F00F0900909F0E47F30FEFDFC900639E0F8FD
:10B19F00A3E0F9A3E0FAA3E0FBC3123A9670109074
:10B1AF000639123AD9000000009003D3E004F022D0
:10D02A00900639E0FCA3E0FDA3E0FEA3E02401FFA3
:10D03A00E43EFEE43DFDE43CFC900639123ACD9014
:10D04A000639A3A3A3E05401FFE4FEFDFCFBFAF9B1
:10D05A00F8C3123A967020900639123AD9000000A5
:10D06A0000B2B09003D3E004F0E4900612F0900806
:08D07A00BBF090090904F0224B
:10C98600900639E0FCA3E0FDA3E0FEA3E02401FF4E
:10C99600E43EFEE43DFDE43CFC900639123ACD90BF
:10C9A60003D3E054C3F0900639A3A3A3E05401FFD8
:10C9B600E4FEFDFCFBFAF9F8C3123A96700C9006F9
:10C9C60039123AD900000000B2B09008B0E030E366
:0BC9D600097480F01285091220622213
:10EFEB0012203E900618E0FCA3E0FDA3E0FEA3E098
:10EFFB00FF900639E0F8A3E0F9A3E0FAA3E0FBC326
:10F00B00123A9640139003D3E004F0900639123A6B
:09F01B00D90000000012FA1722CE
:10B1BF00900639E0FCA3E0FDA3E0FEA3E02401FF2D
:10B1CF00E43EFEE43DFDE43CFC900639123ACD909E
:10B1DF000639A3A3A3E05401FFE4FEFDFCFBFAF93B
:10B1EF00F8C3123A96700EB2B0900612F09008BBE8
:10B1FF00F0900909F0E47F30FEFDFC900639E0F88D
:10B20F00A3E0F9A3E0FAA3E0FBC3123A9670109003
:10B21F000639123AD9000000009003D3E004F0225F
:10D08200900639E0FCA3E0FDA3E0FEA3E02401FF4B
:10D09200E43EFEE43DFDE43CFC900639123ACD90BC
:10D0A2000639A3A3A3E05401FFE4FEFDFCFBFAF959
:10D0B200F8C3123A967020900639123AD90000004D
:10D0C20000B2B09003D3E004F0E4900612F09008AE
:08D0D200BBF090090904F022F3
:10BB1500900639E0FCA3E0FDA3E0FEA3E02401FFCD
:10BB2500E43EFEE43DFDE43CFC900639123ACD903E
:10BB350003D3E04404F054CFF0900639A3A3A3E067
:10BB45005401FFE4FEFDFCFBFAF9F8C3123A9670C6
:10BB55000C900639123AD900000000B2B09008B036
:0EBB6500E030E3097480F0128509122062229C
:10F0240012203E900618E0FCA3E0FDA3E0FEA3E05E
:10F03400FF900639E0F8A3E0F9A3E0FAA3E0FBC3EC
:10F04400123A9640139003D3E004F0900639123A32
:09F05400D90000000012FA172295
:10B22F00900639E0FCA3E0FDA3E0FEA3E02401FFBC
:10B23F00E43EFEE43DFDE43CFC900639123ACD902D
:10B24F000639A3A3A3E05401FFE4FEFDFCFBFAF9CA
:10B25F00F8C3123A96700EB2B0900612F09008BB77
:10B26F00F0900909F0E47F30FEFDFC900639E0F81C
:10B27F00A3E0F9A3E0FAA3E0FBC3123A9670109093
:10B28F000639123AD9000000009003D3E004F022EF
:10D0DA00900639E0FCA3E0FDA3E0FEA3E02401FFF3
:10D0EA00E43EFEE43DFDE43CFC900639123ACD9064
:10D0FA000639A3A3A3E05401FFE4FEFDFCFBFAF901
:10D10A00F8C3123A967020900639123AD9000000F4
:10D11A0000B2B09003D3E004F0E4900612F0900855
:08D12A00BBF090090904F0229A
:10C9E100900639E0FCA3E0FDA3E0FEA3E02401FFF3
:10C9F100E43EFEE43DFDE43CFC900639123ACD9064
:10CA010003D3E054CFF0900639A3A3A3E05401FF70
:10CA1100E4FEFDFCFBFAF9F8C3123A96700C90069D
:10CA210039123AD900000000B2B09008B0E030E30A
:0BCA3100097480F012850912206222B7
:10F05D0012203E900618E0FCA3E0FDA3E0FEA3E025
:10F06D00FF900639E0F8A3E0F9A3E0FAA3E0FBC3B3
:10F07D00123A9640139003D3E004F0900639123AF9
:09F08D00D90000000012FA17225C
:10B29F00900639E0FCA3E0FDA3E0FEA3E02401FF4C
:10B2AF00E43EFEE43DFDE43CFC900639123ACD90BD
:10B2BF000639A3A3A3E05401FFE4FEFDFCFBFAF95A
:10B2CF00F8C3123A96700EB2B0900612F09008BB07
:10B2DF00F0900909F0E47F30FEFDFC900639E0F8AC
:10B2EF00A3E0F9A3E0FAA3E0FBC3123A9670109023
:10B2FF000639123AD9000000009003D3E004F0227F
:10D13200900639E0FCA3E0FDA3E0FEA3E02401FF9A
:10D14200E43EFEE43DFDE43CFC900639123ACD900B
:10D152000639A3A3A3E05401FFE4FEFDFCFBFAF9A8
:10D16200F8C3123A967020900639123AD90000009C
:10D1720000B2B09003D3E004F0E4900612F09008FD
:08D18200BBF090090904F02242
:10CA3C00900639E0FCA3E0FDA3E0FEA3E02401FF97
:10CA4C00E43EFEE43DFDE43CFC900639123ACD9008
:10CA5C0003D3E04410F0900639A3A3A3E05401FFE4
:10CA6C00E4FEFDFCFBFAF9F8C3123A96700C900642
:10CA7C0039123AD900000000B2B09008B0E030E3AF
:0BCA8C00097480F0128509122062225C
:10F0960012203E900618E0FCA3E0FDA3E0FEA3E0EC
:10F0A600FF900639E0F8A3E0F9A3E0FAA3E0FBC37A
:10F0B600123A9640139003D3E004F0900639123AC0
:09F0C600D90000000012FA172223
:10B30F00900639E0FCA3E0FDA3E0FEA3E02401FFDB
:10B31F00E43EFEE43DFDE43CFC900639123ACD904C
:10B32F000639A3A3A3E05401FFE4FEFDFCFBFAF9E9
:10B33F00F8C3123A96700EB2B0900612F09008BB96
:10B34F00F0900909F0E47F30FEFDFC900639E0F83B
:10B35F00A3E0F9A3E0FAA3E0FBC3123A96701090B2
:10B36F000639123AD9000000009003D3E004F0220E
:10D18A00900639E0FCA3E0FDA3E0FEA3E02401FF42
:10D19A00E43EFEE43DFDE43CFC900639123ACD90B3
:10D1AA000639A3A3A3E05401FFE4FEFDFCFBFAF950
:10D1BA00F8C3123A967020900639123AD900000044
:10D1CA0000B2B09003D3E004F0E4900612F09008A5
:08D1DA00BBF090090904F022EA
:10BB7300900639E0FCA3E0FDA3E0FEA3E02401FF6F
:10BB8300E43EFEE43DFDE43CFC900639123ACD90E0
:10BB930003D3E04410F054F3F0900639A3A3A3E0D9
:10BBA3005401FFE4FEFDFCFBFAF9F8C3123A967068
:10BBB3000C900639123AD900000000B2B09008B0D8
:0EBBC300E030E3097480F0128509122062223E
:10F0CF0012203E900618E0FCA3E0FDA3E0FEA3E0B3
:10F0DF00FF900639E0F8A3E0F9A3E0FAA3E0FBC341
:10F0EF00123A9640139003D3E004F0900639123A87
:09F0FF00D90000000012FA1722EA
:10B37F00900639E0FCA3E0FDA3E0FEA3E02401FF6B
:10B38F00E43EFEE43DFDE43CFC900639123ACD90DC
:10B39F000639A3A3A3E05401FFE4FEFDFCFBFAF979
:10B3AF00F8C3123A96700EB2B0900612F09008BB26
:10B3BF00F0900909F0E47F30FEFDFC900639E0F8CB
:10B3CF00A3E0F9A3E0FAA3E0FBC3123A9670109042
:10B3DF000639123AD9000000009003D3E004F0229E
:10D1E200900639E0FCA3E0FDA3E0FEA3E02401FFEA
:10D1F200E43EFEE43DFDE43CFC900639123ACD905B
:10D202000639A3A3A3E05401FFE4FEFDFCFBFAF9F7
:10D21200F8C3123A967020900639123AD9000000EB
:10D2220000B2B09003D3E004F0E4900612F090084C
:08D23200BBF090090904F02291
:10CA9700900639E0FCA3E0FDA3E0FEA3E02401FF3C
:10CAA700E43EFEE43DFDE43CFC900639123ACD90AD
:10CAB70003D3E04414F0900639A3A3A3E05401FF85
:10CAC700E4FEFDFCFBFAF9F8C3123A96700C9006E7
:10CAD70039123AD900000000B2B09008B0E030E354
:0BCAE700097480F01285091220622201
:10F1080012203E900618E0FCA3E0FDA3E0FEA3E079
:10F11800FF900639E0F8A3E0F9A3E0FAA3E0FBC307
:10F12800123A9640139003D3E004F0900639123A4D
:09F13800D90000000012FA1722B0
:10B3EF00900639E0FCA3E0FDA3E0FEA3E02401FFFB
:10B3FF00E43EFEE43DFDE43CFC900639123ACD906C
:10B40F000639A3A3A3E05401FFE4FEFDFCFBFAF908
:10B41F00F8C3123A96700EB2B0900612F09008BBB5
:10B42F00F0900909F0E47F30FEFDFC900639E0F85A
:10B43F00A3E0F9A3E0FAA3E0FBC3123A96701090D1
:10B44F000639123AD9000000009003D3E004F0222D
:10D23A00900639E0FCA3E0FDA3E0FEA3E02401FF91
:10D24A00E43EFEE43DFDE43CFC900639123ACD9002
:10D25A000639A3A3A3E05401FFE4FEFDFCFBFAF99F
:10D26A00F8C3123A967020900639123AD900000093
:10D27A0000B2B09003D3E004F0E4900612F09008F4
:08D28A00BBF090090904F02239
:10CAF200900639E0FCA3E0FDA3E0FEA3E02401FFE1
:10CB0200E43EFEE43DFDE43CFC900639123ACD9051
:10CB120003D3E04410F0900639A3A3A3E05401FF2D
:10CB2200E4FEFDFCFBFAF9F8C3123A96700C90068B
:10CB320039123AD900000000B2B09008B0E030E3F8
:0BCB4200097480F012850912206222A5
:10F1410012203E900618E0FCA3E0FDA3E0FEA3E040
:10F15100FF900639E0F8A3E0F9A3E0FAA3E0FBC3CE
:10F16100123A9640139003D3E004F0900639123A14
:09F17100D90000000012FA172277
:10B45F00900639E0FCA3E0FDA3E0FEA3E02401FF8A
:10B46F00E43EFEE43DFDE43CFC900639123ACD90FB
:10B47F000639A3A3A3E05401FFE4FEFDFCFBFAF998
:10B48F00F8C3123A96700EB2B0900612F09008BB45
:10B49F00F0900909F0E47F30FEFDFC900639E0F8EA
:10B4AF00A3E0F9A3E0FAA3E0FBC3123A9670109061
:10B4BF000639123AD9000000009003D3E004F022BD
:10D29200900639E0FCA3E0FDA3E0FEA3E02401FF39
:10D2A200E43EFEE43DFDE43CFC900639123ACD90AA
:10D2B2000639A3A3A3E05401FFE4FEFDFCFBFAF947
:10D2C200F8C3123A967020900639123AD90000003B
:10D2D20000B2B09003D3E004F0E4900612F090089C
:08D2E200BBF090090904F022E1
:10D9BB00900639E0FCA3E0FDA3E0FEA3E02401FF09
:10D9CB00E43EFEE43DFDE43CFC900639123ACD907A
:10D9DB000639A3A3A3E05401FFE4FEFDFCFBFAF917
:10D9EB00F8C3123A96700C900639123AD90000001F
:10D9FB0000B2B09008B0E030E3097480F0128509F2
:04DA0B001220622261
:10F17A0012203E900618E0FCA3E0FDA3E0FEA3E007
:10F18A00FF900639E0F8A3E0F9A3E0FAA3E0FBC395
:10F19A00123A9640139003D3E004F0900639123ADB
:09F1AA00D90000000012FA17223E
:10B4CF00900639E0FCA3E0FDA3E0FEA3E02401FF1A
:10B4DF00E43EFEE43DFDE43CFC900639123ACD908B
:10B4EF000639A3A3A3E05401FFE4FEFDFCFBFAF928
:10B4FF00F8C3123A96700EB2B0900612F09008BBD5
:10B50F00F0900909F0E47F30FEFDFC900639E0F879
:10B51F00A3E0F9A3E0FAA3E0FBC3123A96701090F0
:10B52F000639123AD9000000009003D3E004F0224C
:10D2EA00900639E0FCA3E0FDA3E0FEA3E02401FFE1
:10D2FA00E43EFEE43DFDE43CFC900639123ACD9052
:10D30A000639A3A3A3E05401FFE4FEFDFCFBFAF9EE
:10D31A00F8C3123A967020900639123AD9000000E2
:10D32A0000B2B09003D3E004F0E4900612F0900843
:08D33A00BBF090090904F02288
:10CB4D00900639E0FCA3E0FDA3E0FEA3E02401FF85
:10CB5D00E43EFEE43DFDE43CFC900639123ACD90F6
:10CB6D0003D3E054F3F0900639A3A3A3E05401FFDF
:10CB7D00E4FEFDFCFBFAF9F8C3123A96700C900630
:10CB8D0039123AD900000000B2B09008B0E030E39D
:0BCB9D00097480F0128509122062224A
:10F1B30012203E900618E0FCA3E0FDA3E0FEA3E0CE
:10F1C300FF900639E0F8A3E0F9A3E0FAA3E0FBC35C
:10F1D300123A9640139003D3E004F0900639123AA2
:09F1E300D90000000012FA172205
:10B53F00900639E0FCA3E0FDA3E0FEA3E02401FFA9
:10B54F00E43EFEE43DFDE43CFC900639123ACD901A
:10B55F000639A3A3A3E05401FFE4FEFDFCFBFAF9B7
:10B56F00F8C3123A96700EB2B0900612F09008BB64
:10B57F00F0900909F0E47F30FEFDFC900639E0F809
:10B58F00A3E0F9A3E0FAA3E0FBC3123A9670109080
:10B59F000639123AD9000000009003D3E004F022DC
:10D34200900639E0FCA3E0FDA3E0FEA3E02401FF88
:10D35200E43EFEE43DFDE43CFC900639123ACD90F9
:10D362000639A3A3A3E05401FFE4FEFDFCFBFAF996
:10D37200F8C3123A967020900639123AD90000008A
:10D3820000B2B09003D3E004F0E4900612F09008EB
:08D39200BBF090090904F02230
:10CBA800900639E0FCA3E0FDA3E0FEA3E02401FF2A
:10CBB800E43EFEE43DFDE43CFC900639123ACD909B
:10CBC80003D3E04404F0900639A3A3A3E05401FF83
:10CBD800E4FEFDFCFBFAF9F8C3123A96700C9006D5
:10CBE80039123AD900000000B2B09008B0E030E342
:0BCBF800097480F012850912206222EF
:10F1EC0012203E900618E0FCA3E0FDA3E0FEA3E095
:10F1FC00FF900639E0F8A3E0F9A3E0FAA3E0FBC323
:10F20C00123A9640139003D3E004F0900639123A68
:09F21C00D90000000012FA1722CB
:10B5AF00900639E0FCA3E0FDA3E0FEA3E02401FF39
:10B5BF00E43EFEE43DFDE43CFC900639123ACD90AA
:10B5CF000639A3A3A3E05401FFE4FEFDFCFBFAF947
:10B5DF00F8C3123A96700EB2B0900612F09008BBF4
:10B5EF00F0900909F0E47F30FEFDFC900639E0F899
:10B5FF00A3E0F9A3E0FAA3E0FBC3123A9670109010
:10B60F000639123AD9000000009003D3E004F0226B
:10D39A00900639E0FCA3E0FDA3E0FEA3E02401FF30
:10D3AA00E43EFEE43DFDE43CFC900639123ACD90A1
:10D3BA000639A3A3A3E05401FFE4FEFDFCFBFAF93E
:10D3CA00F8C3123A967020900639123AD900000032
:10D3DA0000B2B09003D3E004F0E4900612F0900893
:08D3EA00BBF090090904F022D8
:10DA0F00900639E0FCA3E0FDA3E0FEA3E02401FFB4
:10DA1F00E43EFEE43DFDE43CFC900639123ACD9025
:10DA2F000639A3A3A3E05401FFE4FEFDFCFBFAF9C2
:10DA3F00F8C3123A96700C900639123AD9000000CA
:10DA4F0000B2B09008B0E030E3097480F01285099D
:04DA5F00122062220D
:10BC2F00900639E0FCA3E0FDA3E0FEA3E02401FFB2
:10BC3F00E43EFEE43DFDE43CFC900639123ACD9023
:10BC4F000639A3A3A3E05401FFE4FEFDFCFBFAF9C0
:10BC5F00F8C3123A967025900639123AD9000000AF
:10BC6F000090092FE030E705122062800312F517CC
:0DBC7F0012607B9003D3E054FC4402F022DD
:10C1FF00900639E0FCA3E0FDA3E0FEA3E02401FFDD
:10C20F00E43EFEE43DFDE43CFC900639123ACD904D
:10C21F000639A3A3A3E05401FFE4FEFDFCFBFAF9EA
:10C22F00F8C3123A967024900639123AD9000000DA
:10C23F000090092FE030E705122062800312F517F6
:0CC24F00B2B09003D3E054FC4401F02294
:10860B00900613E0FCA3E0FDA3E0FEA3E0FF9006C1
:10861B0039E0F8A3E0F9A3E0FAA3E0FBC3123A9622
:10862B007065900630E0FCA3E0FDA3E0FEA3E0FF45
:10863B00EC4D4E4F6049900630A3A3A3E024FFFFFF
:10864B00EE34FFFEED34FFFDEC34FFFC90063012F0
:10865B003ACD900630A3A3A3E05401FFE4FEFDFC4A
:10866B00FBFAF9F8C3123A96600302870B90092FB5
:10867B00E030E705122062800312F517B2B02290AA
:10868B0003D3E054FCF022900639E0FCA3E0FDA3F9
:10869B00E0FEA3E02401FFE43EFEE43DFDE43CFCF0
:1086AB00900639123ACD900639A3A3A3E05401FFEB
:1086BB00E4FEFDFCFBFAF9F8C3123A96701190092F
:1086CB002FE030E705122062800312F517B2B0904D
:1086DB000639A3A3A3E0543FFFE4FEFDFCFBFAF92C
:1086EB00F8C3123A967019900857E0D394055010BE
:1086FB009008B0E020E709126088900857E004F07A
:01870B00224B
:10E55800900639123AD90000000012F509E4900833
:10E56800B0F09008BBF090063DF09003D7F090090A
:10E578001FF0900612F09003F7F0900840F0900317
:10E58800E8F0A3F0900630123AD90000000012F724
:0DE59800B49008A9E06005E4F012F48C22B4
:10BC8C00900639E0FCA3E0FDA3E0FEA3E02401FF55
:10BC9C00E43EFEE43DFDE43CFC900639123ACD90C6
:10BCAC000639A3A3A3E05401FFE4FEFDFCFBFAF963
:10BCBC00F8C3123A967025900639123AD900000052
:10BCCC000090092FE030E705122062800312F5176F
:0DBCDC0012607B9003D3E054FC4402F02280
:10C25B00900639E0FCA3E0FDA3E0FEA3E02401FF80
:10C26B00E43EFEE43DFDE43CFC900639123ACD90F1
:10C27B000639A3A3A3E05401FFE4FEFDFCFBFAF98E
:10C28B00F8C3123A967024900639123AD90000007E
:10C29B000090092FE030E705122062800312F5179A
:0CC2AB00B2B09003D3E054FC4401F02238
:10870C00900613E0FCA3E0FDA3E0FEA3E0FF9006BF
:10871C0039E0F8A3E0F9A3E0FAA3E0FBC3123A9620
:10872C007065900630E0FCA3E0FDA3E0FEA3E0FF43
:10873C00EC4D4E4F6049900630A3A3A3E024FFFFFD
:10874C00EE34FFFEED34FFFDEC34FFFC90063012EE
:10875C003ACD900630A3A3A3E05401FFE4FEFDFC48
:10876C00FBFAF9F8C3123A96600302880C90092FB1
:10877C00E030E705122062800312F517B2B02290A8
:10878C0003D3E054FCF022900639E0FCA3E0FDA3F7
:10879C00E0FEA3E02401FFE43EFEE43DFDE43CFCEE
:1087AC00900639123ACD900639A3A3A3E05401FFE9
:1087BC00E4FEFDFCFBFAF9F8C3123A96701190092D
:1087CC002FE030E705122062800312F517B2B0904B
:1087DC000639A3A3A3E0543FFFE4FEFDFCFBFAF92A
:1087EC00F8C3123A967019900857E0D394055010BC
:1087FC009008B0E020E709126088900857E004F078
:01880C002249
:10DFB600900639123AD9000000009003D3E044409D
:10DFC600F054F012F50FE49008B0F09008BBF09012
:10DFD600063DF09003D7F090091FF0900612F090DE
:10DFE60003F7F0900840F09003E8F0A3F0900630B5
:0ADFF600123AD90000000002F7B44F
:10BCE900900639E0FCA3E0FDA3E0FEA3E02401FFF8
:10BCF900E43EFEE43DFDE43CFC900639123ACD9069
:10BD09000639A3A3A3E05401FFE4FEFDFCFBFAF905
:10BD1900F8C3123A967025900639123AD9000000F4
:10BD29000090092FE030E705122062800312F51711
:0DBD390012607B9003D3E054FC4402F02222
:10C2B700900639E0FCA3E0FDA3E0FEA3E02401FF24
:10C2C700E43EFEE43DFDE43CFC900639123ACD9095
:10C2D7000639A3A3A3E05401FFE4FEFDFCFBFAF932
:10C2E700F8C3123A967024900639123AD900000022
:10C2F7000090092FE030E705122062800312F5173E
:0CC30700B2B09003D3E054FC4401F022DB
:10880D00900613E0FCA3E0FDA3E0FEA3E0FF9006BD
:10881D0039E0F8A3E0F9A3E0FAA3E0FBC3123A961E
:10882D007065900630E0FCA3E0FDA3E0FEA3E0FF41
:10883D00EC4D4E4F6049900630A3A3A3E024FFFFFB
:10884D00EE34FFFEED34FFFDEC34FFFC90063012EC
:10885D003ACD900630A3A3A3E05401FFE4FEFDFC46
:10886D00FBFAF9F8C3123A96600302890D90092FAD
:10887D00E030E705122062800312F517B2B02290A6
:10888D0003D3E054FCF022900639E0FCA3E0FDA3F5
:10889D00E0FEA3E02401FFE43EFEE43DFDE43CFCEC
:1088AD00900639123ACD900639A3A3A3E05401FFE7
:1088BD00E4FEFDFCFBFAF9F8C3123A96701190092B
:1088CD002FE030E705122062800312F517B2B09049
:1088DD000639A3A3A3E0543FFFE4FEFDFCFBFAF928
:1088ED00F8C3123A967019900857E0D394055010BA
:1088FD009008B0E020E709126088900857E004F076
:01890D002247
:10EAEF00900639123AD9000000009003D3E0444455
:10EAFF0012F50FE49008B0F09008BBF090063DF0CF
:10EB0F009003D7F090091FF0900612F09003F7F0E2
:10EB1F00900840F09003E8F0A3F0900630123AD935
:07EB2F000000000002F7B432
:10BD4600900639E0FCA3E0FDA3E0FEA3E02401FF9A
:10BD5600E43EFEE43DFDE43CFC900639123ACD900B
:10BD66000639A3A3A3E05401FFE4FEFDFCFBFAF9A8
:10BD7600F8C3123A967025900639123AD900000097
:10BD86000090092FE030E705122062800312F517B4
:0DBD960012607B9003D3E054FC4402F022C5
:10C31300900639E0FCA3E0FDA3E0FEA3E02401FFC7
:10C32300E43EFEE43DFDE43CFC900639123ACD9038
:10C333000639A3A3A3E05401FFE4FEFDFCFBFAF9D5
:10C34300F8C3123A967024900639123AD9000000C5
:10C353000090092FE030E705122062800312F517E1
:0CC36300B2B09003D3E054FC4401F0227F
:10890E00900613E0FCA3E0FDA3E0FEA3E0FF9006BB
:10891E0039E0F8A3E0F9A3E0FAA3E0FBC3123A961C
:10892E007065900630E0FCA3E0FDA3E0FEA3E0FF3F
:10893E00EC4D4E4F6049900630A3A3A3E024FFFFF9
:10894E00EE34FFFEED34FFFDEC34FFFC90063012EA
:10895E003ACD900630A3A3A3E05401FFE4FEFDFC44
:10896E00FBFAF9F8C3123A966003028A0E90092FA9
:10897E00E030E705122062800312F517B2B02290A4
:10898E0003D3E054FCF022900639E0FCA3E0FDA3F3
:10899E00E0FEA3E02401FFE43EFEE43DFDE43CFCEA
:1089AE00900639123ACD900639A3A3A3E05401FFE5
:1089BE00E4FEFDFCFBFAF9F8C3123A967011900929
:1089CE002FE030E705122062800312F517B2B09047
:1089DE000639A3A3A3E0543FFFE4FEFDFCFBFAF926
:1089EE00F8C3123A967019900857E0D394055010B8
:1089FE009008B0E020E709126088900857E004F074
:018A0E002245
:10ED1C00900639123AD90000000012F509E4900867
:10ED2C00B0F09008BBF090063DF09003D7F090093E
:10ED3C001FF0900612F09003F7F0900840F090034B
:10ED4C00E8F0A3F0900630123AD90000000002F768
:01ED5C00B402
:10BDA300900639E0FCA3E0FDA3E0FEA3E02401FF3D
:10BDB300E43EFEE43DFDE43CFC900639123ACD90AE
:10BDC3000639A3A3A3E05401FFE4FEFDFCFBFAF94B
:10BDD300F8C3123A967025900639123AD90000003A
:10BDE3000090092FE030E705122062800312F51757
:0DBDF30012607B9003D3E054FC4402F02268
:10C36F00900639E0FCA3E0FDA3E0FEA3E02401FF6B
:10C37F00E43EFEE43DFDE43CFC900639123ACD90DC
:10C38F000639A3A3A3E05401FFE4FEFDFCFBFAF979
:10C39F00F8C3123A967024900639123AD900000069
:10C3AF000090092FE030E705122062800312F51785
:0CC3BF00B2B09003D3E054FC4401F02223
:108A0F00900613E0FCA3E0FDA3E0FEA3E0FF9006B9
:108A1F0039E0F8A3E0F9A3E0FAA3E0FBC3123A961A
:108A2F007065900630E0FCA3E0FDA3E0FEA3E0FF3D
:108A3F00EC4D4E4F6049900630A3A3A3E024FFFFF7
:108A4F00EE34FFFEED34FFFDEC34FFFC90063012E8
:108A5F003ACD900630A3A3A3E05401FFE4FEFDFC42
:108A6F00FBFAF9F8C3123A966003028B0F90092FA5
:108A7F00E030E705122062800312F517B2B02290A2
:108A8F0003D3E054FCF022900639E0FCA3E0FDA3F1
:108A9F00E0FEA3E02401FFE43EFEE43DFDE43CFCE8
:108AAF00900639123ACD900639A3A3A3E05401FFE3
:108ABF00E4FEFDFCFBFAF9F8C3123A967011900927
:108ACF002FE030E705122062800312F517B2B09045
:108ADF000639A3A3A3E0543FFFE4FEFDFCFBFAF924
:108AEF00F8C3123A967019900857E0D394055010B6
:108AFF009008B0E020E709126088900857E004F072
:018B0F002243
:10E97E00900639123AD9000000009003D3E04440CB
:10E98E00F054C012F50FE49008B0F09008BBF09070
:10E99E00063DF09003D7F090091FF0900612F0900C
:10E9AE0003F7F0900840F09003E8F0A3F0900630E3
:0AE9BE00123AD90000000002F7B47D
:10BE0000900639E0FCA3E0FDA3E0FEA3E02401FFDF
:10BE1000E43EFEE43DFDE43CFC900639123ACD9050
:10BE20000639A3A3A3E05401FFE4FEFDFCFBFAF9ED
:10BE3000F8C3123A967025900639123AD9000000DC
:10BE40000090092FE030E705122062800312F517F9
:0DBE500012607B9003D3E054FC4402F0220A
:10C3CB00900639E0FCA3E0FDA3E0FEA3E02401FF0F
:10C3DB00E43EFEE43DFDE43CFC900639123ACD9080
:10C3EB000639A3A3A3E05401FFE4FEFDFCFBFAF91D
:10C3FB00F8C3123A967024900639123AD90000000D
:10C40B000090092FE030E705122062800312F51728
:0CC41B00B2B09003D3E054FC4401F022C6
:108B1000900613E0FCA3E0FDA3E0FEA3E0FF9006B7
:108B200039E0F8A3E0F9A3E0FAA3E0FBC3123A9618
:108B30007065900630E0FCA3E0FDA3E0FEA3E0FF3B
:108B4000EC4D4E4F6049900630A3A3A3E024FFFFF5
:108B5000EE34FFFEED34FFFDEC34FFFC90063012E6
:108B60003ACD900630A3A3A3E05401FFE4FEFDFC40
:108B7000FBFAF9F8C3123A966003028C1090092FA1
:108B8000E030E705122062800312F517B2B02290A0
:108B900003D3E054FCF022900639E0FCA3E0FDA3EF
:108BA000E0FEA3E02401FFE43EFEE43DFDE43CFCE6
:108BB000900639123ACD900639A3A3A3E05401FFE1
:108BC000E4FEFDFCFBFAF9F8C3123A967011900925
:108BD0002FE030E705122062800312F517B2B09043
:108BE0000639A3A3A3E0543FFFE4FEFDFCFBFAF922
:108BF000F8C3123A967019900857E0D394055010B4
:108C00009008B0E020E709126088900857E004F06F
:018C10002241
:10E9C800900639123AD9000000009003D3E0444081
:10E9D800F054C012F50FE49008B0F09008BBF09026
:10E9E800063DF09003D7F090091FF0900612F090C2
:10E9F80003F7F0900840F09003E8F0A3F090063099
:0AEA0800123AD90000000002F7B432
:10BE5D00900639E0FCA3E0FDA3E0FEA3E02401FF82
:10BE6D00E43EFEE43DFDE43CFC900639123ACD90F3
:10BE7D000639A3A3A3E05401FFE4FEFDFCFBFAF990
:10BE8D00F8C3123A967025900639123AD90000007F
:10BE9D000090092FE030E705122062800312F5179C
:0DBEAD0012607B9003D3E054FC4402F022AD
:10C42700900639E0FCA3E0FDA3E0FEA3E02401FFB2
:10C43700E43EFEE43DFDE43CFC900639123ACD9023
:10C447000639A3A3A3E05401FFE4FEFDFCFBFAF9C0
:10C45700F8C3123A967024900639123AD9000000B0
:10C467000090092FE030E705122062800312F517CC
:0CC47700B2B09003D3E054FC4401F0226A
:108C1100900613E0FCA3E0FDA3E0FEA3E0FF9006B5
:108C210039E0F8A3E0F9A3E0FAA3E0FBC3123A9616
:108C31007065900630E0FCA3E0FDA3E0FEA3E0FF39
:108C4100EC4D4E4F6049900630A3A3A3E024FFFFF3
:108C5100EE34FFFEED34FFFDEC34FFFC90063012E4
:108C61003ACD900630A3A3A3E05401FFE4FEFDFC3E
:108C7100FBFAF9F8C3123A966003028D1190092F9D
:108C8100E030E705122062800312F517B2B022909E
:108C910003D3E054FCF022900639E0FCA3E0FDA3ED
:108CA100E0FEA3E02401FFE43EFEE43DFDE43CFCE4
:108CB100900639123ACD900639A3A3A3E05401FFDF
:108CC100E4FEFDFCFBFAF9F8C3123A967011900923
:108CD1002FE030E705122062800312F517B2B09041
:108CE1000639A3A3A3E0543FFFE4FEFDFCFBFAF920
:108CF100F8C3123A967019900857E0D394055010B2
:108D01009008B0E020E709126088900857E004F06D
:018D1100223F
:10BBD100900639123AD9000000009003D3E04444A2
:10BBE100F054CCF0E4900909F0C2B090092FE03094
:10BBF100E705122062800312F517E49008B0F09077
:10BC010008BBF090063DF09003D7F090091FF0902B
:10BC11000612F09003F7F0900840F09003E8F0A3CB
:0EBC2100F0900630123AD90000000002F7B48D
:10BEBA00900639E0FCA3E0FDA3E0FEA3E02401FF25
:10BECA00E43EFEE43DFDE43CFC900639123ACD9096
:10BEDA000639A3A3A3E05401FFE4FEFDFCFBFAF933
:10BEEA00F8C3123A967025900639123AD900000022
:10BEFA000090092FE030E705122062800312F5173F
:0DBF0A0012607B9003D3E054FC4402F0224F
:10C48300900639E0FCA3E0FDA3E0FEA3E02401FF56
:10C49300E43EFEE43DFDE43CFC900639123ACD90C7
:10C4A3000639A3A3A3E05401FFE4FEFDFCFBFAF964
:10C4B300F8C3123A967024900639123AD900000054
:10C4C3000090092FE030E705122062800312F51770
:0CC4D300B2B09003D3E054FC4401F0220E
:108D1200900613E0FCA3E0FDA3E0FEA3E0FF9006B3
:108D220039E0F8A3E0F9A3E0FAA3E0FBC3123A9614
:108D32007065900630E0FCA3E0FDA3E0FEA3E0FF37
:108D4200EC4D4E4F6049900630A3A3A3E024FFFFF1
:108D5200EE34FFFEED34FFFDEC34FFFC90063012E2
:108D62003ACD900630A3A3A3E05401FFE4FEFDFC3C
:108D7200FBFAF9F8C3123A966003028E1290092F99
:108D8200E030E705122062800312F517B2B022909C
:108D920003D3E054FCF022900639E0FCA3E0FDA3EB
:108DA200E0FEA3E02401FFE43EFEE43DFDE43CFCE2
:108DB200900639123ACD900639A3A3A3E05401FFDD
:108DC200E4FEFDFCFBFAF9F8C3123A967011900921
:108DD2002FE030E705122062800312F517B2B0903F
:108DE2000639A3A3A3E0543FFFE4FEFDFCFBFAF91E
:108DF200F8C3123A967019900857E0D394055010B0
:108E02009008B0E020E709126088900857E004F06B
:018E1200223D
:10EA1200900639123AD9000000009003D3E0444036
:10EA2200F054CC12F50FE49008B0F09008BBF090CF
:10EA3200063DF09003D7F090091FF0900612F09077
:10EA420003F7F0900840F09003E8F0A3F09006304E
:0AEA5200123AD90000000002F7B4E8
:10BF1700900639E0FCA3E0FDA3E0FEA3E02401FFC7
:10BF2700E43EFEE43DFDE43CFC900639123ACD9038
:10BF37000639A3A3A3E05401FFE4FEFDFCFBFAF9D5
:10BF4700F8C3123A967025900639123AD9000000C4
:10BF57000090092FE030E705122062800312F517E1
:0DBF670012607B9003D3E054FC4402F022F2
:10C4DF00900639E0FCA3E0FDA3E0FEA3E02401FFFA
:10C4EF00E43EFEE43DFDE43CFC900639123ACD906B
:10C4FF000639A3A3A3E05401FFE4FEFDFCFBFAF908
:10C50F00F8C3123A967024900639123AD9000000F7
:10C51F000090092FE030E705122062800312F51713
:0CC52F00B2B09003D3E054FC4401F022B1
:108E1300900613E0FCA3E0FDA3E0FEA3E0FF9006B1
:108E230039E0F8A3E0F9A3E0FAA3E0FBC3123A9612
:108E33007065900630E0FCA3E0FDA3E0FEA3E0FF35
:108E4300EC4D4E4F6049900630A3A3A3E024FFFFEF
:108E5300EE34FFFEED34FFFDEC34FFFC90063012E0
:108E63003ACD900630A3A3A3E05401FFE4FEFDFC3A
:108E7300FBFAF9F8C3123A966003028F1390092F95
:108E8300E030E705122062800312F517B2B022909A
:108E930003D3E054FCF022900639E0FCA3E0FDA3E9
:108EA300E0FEA3E02401FFE43EFEE43DFDE43CFCE0
:108EB300900639123ACD900639A3A3A3E05401FFDB
:108EC300E4FEFDFCFBFAF9F8C3123A96701190091F
:108ED3002FE030E705122062800312F517B2B0903D
:108EE3000639A3A3A3E0543FFFE4FEFDFCFBFAF91C
:108EF300F8C3123A967019900857E0D394055010AE
:108F03009008B0E020E709126088900857E004F069
:018F1300223B
:10EC0B00900639123AD9000000009003D3745012C9
:10EC1B00F50FE49008B0F09008BBF090063DF09033
:10EC2B0003D7F090091FF0900612F09003F7F090C5
:10EC3B000840F09003E8F0A3F0900630123AD900A8
:06EC4B0000000002F7B416
:10BF7400900639E0FCA3E0FDA3E0FEA3E02401FF6A
:10BF8400E43EFEE43DFDE43CFC900639123ACD90DB
:10BF94000639A3A3A3E05401FFE4FEFDFCFBFAF978
:10BFA400F8C3123A967025900639123AD900000067
:10BFB4000090092FE030E705122062800312F51784
:0DBFC40012607B9003D3E054FC4402F02295
:10C53B00900639E0FCA3E0FDA3E0FEA3E02401FF9D
:10C54B00E43EFEE43DFDE43CFC900639123ACD900E
:10C55B000639A3A3A3E05401FFE4FEFDFCFBFAF9AB
:10C56B00F8C3123A967024900639123AD90000009B
:10C57B000090092FE030E705122062800312F517B7
:0CC58B00B2B09003D3E054FC4401F02255
:108F1400900613E0FCA3E0FDA3E0FEA3E0FF9006AF
:108F240039E0F8A3E0F9A3E0FAA3E0FBC3123A9610
:108F34007065900630E0FCA3E0FDA3E0FEA3E0FF33
:108F4400EC4D4E4F6049900630A3A3A3E024FFFFED
:108F5400EE34FFFEED34FFFDEC34FFFC90063012DE
:108F64003ACD900630A3A3A3E05401FFE4FEFDFC38
:108F7400FBFAF9F8C3123A96600302901490092F91
:108F8400E030E705122062800312F517B2B0229098
:108F940003D3E054FCF022900639E0FCA3E0FDA3E7
:108FA400E0FEA3E02401FFE43EFEE43DFDE43CFCDE
:108FB400900639123ACD900639A3A3A3E05401FFD9
:108FC400E4FEFDFCFBFAF9F8C3123A96701190091D
:108FD4002FE030E705122062800312F517B2B0903B
:108FE4000639A3A3A3E0543FFFE4FEFDFCFBFAF91A
:108FF400F8C3123A967019900857E0D394055010AC
:109004009008B0E020E709126088900857E004F067
:019014002239
:10EAA600900639123AD9000000009003D37450F052
:10EAB60054F012F50FE49008B0F09008BBF0900601
:10EAC6003DF09003D7F090091FF0900612F09003E6
:10EAD600F7F0900840F09003E8F0A3F090063012AB
:09EAE6003AD90000000002F7B467
:10BFD100900639E0FCA3E0FDA3E0FEA3E02401FF0D
:10BFE100E43EFEE43DFDE43CFC900639123ACD907E
:10BFF1000639A3A3A3E05401FFE4FEFDFCFBFAF91B
:10C00100F8C3123A967025900639123AD900000009
:10C011000090092FE030E705122062800312F51726
:0DC0210012607B9003D3E054FC4402F02237
:10C59700900639E0FCA3E0FDA3E0FEA3E02401FF41
:10C5A700E43EFEE43DFDE43CFC900639123ACD90B2
:10C5B7000639A3A3A3E05401FFE4FEFDFCFBFAF94F
:10C5C700F8C3123A967024900639123AD90000003F
:10C5D7000090092FE030E705122062800312F5175B
:0CC5E700B2B09003D3E054FC4401F022F9
:10901500900613E0FCA3E0FDA3E0FEA3E0FF9006AD
:1090250039E0F8A3E0F9A3E0FAA3E0FBC3123A960E
:109035007065900630E0FCA3E0FDA3E0FEA3E0FF31
:10904500EC4D4E4F6049900630A3A3A3E024FFFFEB
:10905500EE34FFFEED34FFFDEC34FFFC90063012DC
:109065003ACD900630A3A3A3E05401FFE4FEFDFC36
:10907500FBFAF9F8C3123A96600302911590092F8D
:10908500E030E705122062800312F517B2B0229096
:1090950003D3E054FCF022900639E0FCA3E0FDA3E5
:1090A500E0FEA3E02401FFE43EFEE43DFDE43CFCDC
:1090B500900639123ACD900639A3A3A3E05401FFD7
:1090C500E4FEFDFCFBFAF9F8C3123A96701190091B
:1090D5002FE030E705122062800312F517B2B09039
:1090E5000639A3A3A3E0543FFFE4FEFDFCFBFAF918
:1090F500F8C3123A967019900857E0D394055010AA
:109105009008B0E020E709126088900857E004F065
:019115002237
:10EB3600900639123AD9000000009003D3E04454FD
:10EB460012F50FE49008B0F09008BBF090063DF087
:10EB56009003D7F090091FF0900612F09003F7F09B
:10EB6600900840F09003E8F0A3F0900630123AD9EE
:07EB76000000000002F7B4EB
:10C02E00900639E0FCA3E0FDA3E0FEA3E02401FFAF
:10C03E00E43EFEE43DFDE43CFC900639123ACD9020
:10C04E000639A3A3A3E05401FFE4FEFDFCFBFAF9BD
:10C05E00F8C3123A967025900639123AD9000000AC
:10C06E000090092FE030E705122062800312F517C9
:0DC07E0012607B9003D3E054FC4402F022DA
:10C5F300900639E0FCA3E0FDA3E0FEA3E02401FFE5
:10C60300E43EFEE43DFDE43CFC900639123ACD9055
:10C613000639A3A3A3E05401FFE4FEFDFCFBFAF9F2
:10C62300F8C3123A967024900639123AD9000000E2
:10C633000090092FE030E705122062800312F517FE
:0CC64300B2B09003D3E054FC4401F0229C
:10911600900613E0FCA3E0FDA3E0FEA3E0FF9006AB
