:02E81000348C46
:02E8120020766E
:02E81400883A40
:02E81800742367
:02E81A00D03FED
:02E820009D7FDA
:02E822009C1A3E
:02E824009C91C5
:02E826009D084B
:02E828009996BF
:02E82A00BD9F90
:02E82C00BDFA33
:02E82E00BE55D5
:0320000002991032
:069910007581510299511E
:10EBD1006D4456523630324C2D494F41312E303032
:1026BB0049079C5500000000000000004107C500C1
:1026CB004107C600410758004503DE40A0E6CCB2E7
:1026DB004407B3000000004103D200410728004229
:1026EB0007AC00004103DA074103DC074103DD1CA3
:1026FB004103D7F94103D8F94103D9F24207C0008E
:10270B00004103CE004107BF004107A9004107BEAE
:10271B00004107A8004107AA004104EF004207331C
:10272B00000044074D0000000041051A0041073529
:10273B004141072F0041079A11410748014104FC11
:10274B0024410747094107B8074107A7004103CFB9
:10275B000041073600410730004107CDFF4107D04C
:10276B003F4107C2004104E800410754004207CE35
:10277B000000C10160C90000FF9B20FF958FFF95F2
:10278B008FFF958FFF5CBAFF5E1AFF42E1FF48FA9D
:10279B00FF3733FFD0DFFF958FFF4505FF3E81FFEE
:1027AB00958FFF958FFF958FFF510EFF2B59FF874D
:1027BB005AFF5B55FF958FFF958FFF958FFFE5A711
:1027CB00FF6D34FF622AFF5F7AFF60D2FF9E68FFC6
:1027DB0059EFFF89EBFF958FFF958FFF6F89FF7087
:1027EB00B0FF71D7FF72FDFF4DE6FF4F7AFF3C4301
:1027FB00FF6375FF6870FF69A2FF6AD4FF673CFF38
:10280B004C51FF541CFF4AA9FF958FFF5714FF66CD
:10281B0000FF6C05FF559FFF6E60FF958FFF958F37
:10282B00FF958FFF958FFF958FFF958FFF958FFFEF
:10283B0039D6FF958FFF958FFF9ED9FF5296FF9547
:10284B008FC100630000CAFFE84FFFED57FFED5D3E
:10285B00FFED63FFE98CFF9F4AFFBF64FFD12DFFA4
:10286B00CD60FF8AC0FFC904FFD17BFFECA9FF201D
:10287B0003FFED01FFED09FFE9A7FF9FBAFFBFBC07
:10288B00FFD1C9FFE9C2FFA02AFFC014FFCE59FF39
:10289B00E653FF9DF4FFACAEFFBEB0FFE9DDFFA03A
:1028AB009AFFBF0AFFCDB3FFC9B2FF8B88FFC95B8D
:1028BB00FFD217FFD2B3FF8C50FFCA09FFD265FFBF
:1028CB00D7DAFF8D18FFD5BFFFD301FFD825FF8DBA
:1028DB00E0FFD60CFFB9B6FFECB4FFED11FFED191D
:1028EB00FFED21FFE9F8FFA10AFFC06CFFCEAAFFA5
:1028FB00D870FF8EA8FFCA60FFD34FFF200EFFEDED
:10290B0029FFED31FFED39FFDF25FFA17AFFC0C4B1
:10291B00FFCC10FFDF61FFA1EAFFC11CFFBA11FF63
:10292B00DF9DFFA25AFFC174FFBA6CFFE200FFA24A
:10293B00CAFFC1CCFFCC64FFE23CFFA33AFFC22429
:10294B00FFBAC7FFE278FFA3AAFFC27CFFBB22FF3F
:10295B00E2B4FFA41AFFC2D4FFAD0CFFE2F0FFA458
:10296B008AFFC32CFFBB7DFFE32CFFA4FAFFC384BC
:10297B00FFBBD8FFE368FFA56AFFC3DCFFAD6AFFAF
:10298B00E3A4FFA5DAFFC434FFBC33FFE3E0FFA6EB
:10299B004AFFC48CFFBC8EFFE41CFFA6BAFFC4E445
:1029AB00FFCCB8FFE458FFA72AFFC53CFFBCE9FFEB
:1029BB00E494FFA79AFFC594FFBD44FFE4D0FFA8A2
:1029CB000AFFC5ECFFCD0CFFD659FF765CFFB3F6C3
:1029DB00FFAE26FFDA7DFF775DFFB452FFAE83FFBC
:1029EB00DC7FFF785EFFB4AEFFAEE0FFDE24FF7945
:1029FB005FFFB50AFFAF3DFFDAC7FF7A60FFB56631
:102A0B00FFAF9AFFDB11FF7B61FFB5C2FFAFF7FF93
:102A1B00ADC8FF7C62FFB61EFFB054FFDB5BFF7DD2
:102A2B0063FFB67AFFB0B1FFDD54FF7E64FFB6D60D
:102A3B00FFB10EFFDBEFFF7F65FFB732FFB16BFF1F
:102A4B00DCC6FF8066FFB78EFFB1C8FFDD9AFF8142
:102A5B0067FFB7EAFFB225FFDE65FF8268FFB84666
:102A6B00FFB282FFDBA5FF8369FFB8A2FFB2DFFFD6
:102A7B00DD0DFF846AFFB8FEFFB33CFFDEA6FF85CA
:102A8B006BFFB95AFFB399FFECBFFFEB57FFEB6935
:102A9B00FFEB7BFFEA13FFA87AFFC644FFCEFBFFD9
:102AAB00D8BBFF8F70FFCAB7FFD39DFF2026FFE86F
:102ABB00C8FFE8E4FFE900FFEA2EFFA8EAFFC69C87
:102ACB00FFCF4CFFEA49FFA95AFFC6F4FFC74CFFE3
:102ADB00EA64FFA9CAFFC7A4FFC7FCFFEA7FFFAAEE
:102AEB003AFFC854FFCF9DFFD906FF9038FFD6A6FB
:102AFB00FFD3EBFFD487FF9100FFD6F3FFD439FF51
:102B0B00D951FF91C8FFD740FFD4D5FFD99CFF9275
:102B1B0090FFD78DFFD523FFEB2DFFE91CFFE93885
:102B2B00FFE954FFEA9AFFAAAAFFC8ACFFCFEEFF5A
:102B3B00D9E7FF9358FFCB0EFFD571FFE86EFFE689
:0D2B4B00F4FFE71AFFE7404303CA00000053
:10348C0053D9BFE49007C3F0A3F09007AE123423D6
:10349C0000000000C298C299C2ACC28E12E5D412D0
:1034AC00E7D012E83075C7FFD294D296D293D29758
:1034BC00D2A7E49007A7F0C2B29004E8F0900725D9
:1034CC00F09004F7F0900729F09004F0F090071FAB
:1034DC0074FFF09003E774E4F0E49007BFF09003FE
:1034EC00CEF0900733F0A3F0900751F090074D12F7
:1034FC00342300000000E49007A6F0E5B05480FFF0
:10350C00E5A0543F4FFFE5C75408FE33333354F85E
:10351C004F9007BCF0E5B054029007A5F090073A25
:10352C00E4F0A3741FF0A3E4F0A3741FF090073F22
:10353C00E4F0A3741FF0900742E4F0A3741FF09022
:10354C000745E4F0A3741FF0900506E4F0A3741F84
:10355C00F090050AE4F0A3741FF0A3E4F0A3741F29
:10356C00F0900515E4F0A3741FF0900518E4F0A397
:10357C00741FF0E490074BF0900501F09004F812E2
:10358C003423000007449004FD1234230000026C25
:10359C00900511123423000000009004F2E4F0A313
:1035AC0074BAF0E490074AF09003D5F0A3F09007BA
:1035BC0022F090074C7480F0900508F090072A7464
:1035CC0008F09003E5F0E49003CDF0900755F0126D
:1035DC00E67C9004EFE0B455069007AAE08001E485
:1035EC009004F6F0E4900744F090050212342300A6
:1035FC000367E0C298D2AC43A812C298D29943E6B2
:10360C0001D2AFE49003D3F09004EEF09007D5F024
:10361C009007BDF09007CC7455F09007B7F0900769
:10362C00C774FBF09007B2F09005097405F012E531
:10363C000C9007BB74FFF043C180129AA153C17F59
:10364C00E49007ABF0900799F09007D5E0602290DA
:10365C0007CCE0FF90079CE0FEC3EF6480F8EE64BB
:10366C0080984007E49007ABF080069007AB74019C
:10367C00F09007BDE060309007B7E0FF90079EE048
:10368C00FEC3EF6480F8EE648098500D9007B2E0B2
:10369C006480F8EE6480985007E4900799F08007F6
:1036AC00900799E05401F07F02122EEC7F04122E49
:1036BC00EC7F01122EEC9007C8123423000000009E
:1036CC009004ED741EF0E49003CFF09003E4F090BE
:1036DC0007D0E054DF12E7F312ED7B12EC5912EB3A
:1036EC009F53D9F043D90A75FDFF43D940E49007A5
:1036FC0049F0900730F0900722E060269004E8E053
:10370C00602012E6A51240BA9007CEE07002A3E04A
:10371C006010E49007CEF0A3F0900754E060031221
:07372C00472075FEFF80CF6E
:10E7D000E4FFFE75B12075B9810FBF00010EEF6433
:0FE7E000284E70F543B9C0E5B930E5FB75A903C4
:01E7EF002207
:10E5D40075F1FF75A45D75A5F375A68075F3BF7518
:10E5E400A77C75AE8575F4FF75F5BF75D48075D5B8
:0BE5F4000175E10775E24075E30122AC
:10E8300012EC85E4FF129B9D12ED6F12EBE112EAE0
:0FE84000CF12ED4912ED737F0512EC9102ED7FBF
:0FEBE100438920438E08758D40E4F58BD28E2238
:04ED6F007598102261
:01ED7F002271
:0CEC850075A20575A170C2FF75F8012290
:0CEC91008FBB75BA1F75BCB875E88022F7
:04ED730075D10C2228
:03202300029A1C02
:109A1C00C0E0C083C082C0D075D000C00730985F52
:109A2C00C2989007A7E060629004F7E0FF04F0741E
:109A3C00582FF582E43407F583E599F09007C2E4DA
:109A4C00F0900758E0FF9004F7E06F703D90075CD2
:109A5C00E0FF64026004EFB4031E900759E0B40108
:109A6C0017A3E070139004F004F09004F7E4F09066
:109A7C0003E7E0547FF080129004F7E4F0800B30A1
:109A8C0099089007C57401F0C299D007D0D0D08244
:059A9C00D083D0E03290
:10E62A00D3EF9442EE940040047E007F42900000B3
:10E63A0075F003EF123454EE75F003A42583F583C5
:09E64A00A3E0FAA3E0F902348612
:109B2000E4900945F09007AE123423000000009045
:109B30000758E0FFE4FCFDFE9007AEE0F8A3E0F973
:109B4000A3E0FAA3E0FBC31233E050399007AEA3C1
:109B5000A3A3E02458F582E43407F583E0FF9009DD
:109B600045E02FF09007AEE0FCA3E0FDA3E0FEA3EC
:109B7000E02401FFE43EFEE43DFDE43CFC9007AE42
:109B800012341780AA900945E0700C9003CDF07450
:0C9B90000212DA3202E970E4FF12964281
:019B9C0022A6
:104C5100E4900946F09007AE123423000000009062
:104C61000758E0FFE4FCFDFE9007AEE0F8A3E0F991
:104C7100A3E0FAA3E0FBC31233E050399007AEA3DF
:104C8100A3A3E02458F582E43407F583E0FF9009FB
:104C910046E02FF09007AEE0FCA3E0FDA3E0FEA309
:104CA100E02401FFE43EFEE43DFDE43CFC9007AE60
:104CB10012341780AA900946E06003024DE074198E
:104CC100F09003CEE0FF04F0741F2FF582E4340569
:104CD100F5837416F090075AE0FF9003CEE0FE04CE
:104CE100F0741F2EF582E43405F583EFF090094648
:104CF100E02FF0900759E0FF9003CEE0FE04F0743E
:104D01001F2EF582E43405F583EFF0900946E02F7C
:104D1100F090075BE0FF9003CEE0FE04F0741F2EDD
:104D2100F582E43405F583EFF0900946E02FF09029
:104D310003CEE0FF04F0741F2FF582E43405F58300
:104D41007403F09007AE12342300000000E47F10DA
:104D5100FEFDFC9007AEE0F8A3E0F9A3E0FAA3E0C2
:104D6100FBC31233E0504D9007AEA3A3A3E0FF9025
:104D7100EBD193FE9003CEE0FD04F0741F2DF5827C
:104D8100E43405F583EEF0EF90EBD193FF90094603
:104D9100E02FF09007AEE0FCA3E0FDA3E0FEA3E06E
:104DA1002401FFE43EFEE43DFDE43CFC9007AE122D
:104DB10034178099900946E0FFC3E49FFF9003CE2A
:104DC100E0FE04F0741F2EF582E43405F583EFF064
:104DD1009007C1E02416F09007C0E03400F0227F74
:044DE1002D129642B7
:014DE50022AB
:109642007E2A9003CEE0FD04F0741F2DF582E434EF
:1096520005F5837407F09003CEE0FD04F0741F2D2E
:10966200F582E43405F583E4F09003CEE0FD04F0E6
:10967200741F2DF582E43405F5837401F09003CE56
:10968200E0FD04F0741F2DF582E43405F583741FA8
:10969200F09003CEE0FD04F0741F2DF582E4340552
:1096A200F5837403F09003CEE0FD04F0741F2DF5F2
:1096B20082E43405F583EFF02EFFC3E49FFF9003AD
:1096C200CEE0FE04F0741F2EF582E43405F583EF3C
:0F96D200F09007C1E02407F09007C0E03400F0EB
:0196E1002266
:10958F007F0A9003CEE0FE04F0741F2EF582E434C0
:10959F0005F5837407F090075AE0FE9003CEE0FDC7
:1095AF0004F0741F2DF582E43405F583EEF0EE2FF1
:1095BF00FF900759E0FE9003CEE0FD04F0741F2DDD
:1095CF00F582E43405F583EEF0EE2FFF90075BE0B4
:1095DF00FE9003CEE0FD04F0741F2DF582E43405F8
:1095EF00F583EEF0EE2FFF9003CEE0FE04F0741F34
:1095FF002EF582E43405F5837403F09003CEE0FE7C
:10960F0004F0741F2EF582E43405F583E4F0C39F54
:10961F00FF9003CEE0FE04F0741F2EF582E43405B4
:10962F00F583EFF09007C1E02407F09007C0E03416
:02963F0000F039
:019641002206
:10E5A70090075DE09004EDF090051F7453F0A3749D
:10E5B70041F0A37452F0A3743DF0A3740AF09007DE
:0DE5C700C0E4F0A37405F0E49007BFF0225B
:10E8AB00E4FE9007C5E06007E4F08F997F01220E2C
:0CE8BB00EEC394FF40ECEEB4FF027F00BF
:01E8C700222E
:04EC9D00C2967F9804
:08ECA100C2FF8FA330FFFD222A
:10ABEA00C296E4FF12ECA112AC46FF12ECA112AC21
:10ABFA004690072FEFF0E4FF12ECA112AC46900743
:10AC0A0035EFF0E4FF12ECA112AC4690079AEFF090
:10AC1A00E4FF12ECA112AC46900748EFF0E4FF12F1
:10AC2A00ECA112AC469004FCEFF0E4FF12ECA11286
:0CAC3A00AC46900747EFF0E4FF12ECA1DD
:08AC460030FFFDC2FFAFA322A5
:10E50C0012ABEA9007B8EFF0D2969003E6F09007C2
:10E51C0047E09003D4F090079AE09004F4F0900751
:10E52C0035E090079BF0900748E09003DBF09004F7
:07E53C00FCE09007DAF02279
:03CB650012E50CCA
:10CB680012ABEA9007B8EFF0D2969003E6E06F7048
:10CB78003F900747E0FF9003D4E06F703390079A27
:10CB8800E0FF9004F4E06F7027900735E0FF90070E
:10CB98009BE0B5071B900748E0FF9003DBE0B50773
:10CBA8000F9004FCE0FF9007DAE0B507037F01224D
:03CBB8007F0022D9
:10203E00E4FDFCC2967F1912ECA112AC46801CC3C3
:10204E00EC9401501D12AC460DEDAA0470010C1457
:10205E0024E1F58274073AF583EFF07F1912ECA1B3
:04206E0080DDD296A9
:01207200224B
:10DFD900E4FEC2967F9912ECA112AC46FDFCAF0695
:10DFE9000E12ECA112AC460DBD00010CE4B505EE14
:06DFF900ECB401EAD2962F
:01DFFF0022FF
:10977700900921EFF0A3EDF0900921E0C4540FFF09
:10978700C3940A4005EF24378009900921E0C454A7
:109797000F2430FF12E6CD900921E0540FFFC39448
:1097A7000A4005EF24378008900921E0540F243040
:1097B700FF12E6CD7F3A12E6CD900922E0C4540F9E
:1097C700FFC3940A4005EF24378009900922E0C4BB
:1097D700540F2430FF12E6CD900922E0540FFFC347
:1097E700940A4005EF24378008900922E0540F249B
:0A97F70030FF12E6CD7F2002E6CD20
:02980100AB07B3
:10980300EB6004C297800353C7FBC2FF75A3033009
:10981300FFFDC2FF900913E0FCA3E0FDA3E0FEA35C
:10982300E0FF78101233F18FA330FFFDC2FF9009E0
:1098330013E0FCA3E0FDA3E0FEA3E0FF78081233EE
:10984300F18FA330FFFDC2FF900913A3A3A3E0F59B
:10985300A330FFFDE4FFFEC2FFE4F5A330FFFD7478
:10986300E82FF58274033EF583E5A3F00FBF0001F3
:109873000EE4B507E2EEB401DEEB6004D297800399
:0598830043C7047FE86B
:0198880022BD
:059420009008FBEFF0D5
:109425006004C297800353C7FBC2FF75A30630FFD4
:10943500FD9008FBE0FF6004D297800343C704EF6B
:109445006004C297800353C7FBC2FF75A30230FFB8
:10945500FDC2FF9008FCE0FCA3E0FDA3E0FEA3E055
:10946500FF78101233F18FA330FFFDC2FF9008FC87
:10947500E0FCA3E0FDA3E0FEA3E0FF78081233F1D2
:109485008FA330FFFDC2FF9008FCA3A3A3E0F5A3C3
:1094950030FFFDE4FFFED3900904E09F900903E04F
:1094A5009E4021C2FF900900E0FBA3E475F0011284
:1094B50032ADA9F0FA1231CFF5A330FFFD0FBF0091
:1094C500010E80D2C2FF9008FBE06003D2972243D1
:0294D500C704CA
:0194D7002272
:10988900AB07EB6004C297800353C7FBC2FF75A304
:109899000630FFFDEB6004D297800343C704EB60F9
:1098A90004C297800353C7FBC2FF900911E0F5A3D7
:1098B90030FFFD900911E064C76042C2FF90090DB5
:1098C900E0FCA3E0FDA3E0FEA3E0FF78101233F172
:1098D9008FA330FFFDC2FF90090DE0FCA3E0FDA3BB
:1098E900E0FEA3E0FF78081233F18FA330FFFDC239
:1098F900FF90090DA3A3A3E0F5A330FFFDEB6003DF
:07990900D2972243C704229C
:0FEBB100E490091BF090091712342300000100B3
:01EBC0002232
:1096E20090075DE090072FF090075EE0900735F05D
:1096F20090075FE090079AF0900760E0900748F0CB
:10970200900761E09004FCF0900762E0900747F058
:10971200900763E09007B8F043C18090072FE0FB09
:109722007DD07C00E4FF12DC3E9007357F0112DC25
:109732003890079A7F0212DC38900748E0FB7DD010
:109742007C007F0312DC3E9004FCE0FB7DD07C00B9
:109752007F0412DC3E900747E0FB7DD07C007F0552
:1097620012DC3E9007B8E0FB7DD07C007F0612DC65
:059772003E53C17F22FF
:1048FA00E4900947F09007AE1234230000000090BC
:10490A000758E0FFE4FCFDFE9007AEE0F8A3E0F9EB
:10491A00A3E0FAA3E0FBC31233E050399007AEA339
:10492A00A3A3E02458F582E43407F583E0FF900955
:10493A0047E02FF09007AEE0FCA3E0FDA3E0FEA362
:10494A00E02401FFE43EFEE43DFDE43CFC9007AEBA
:10495A0012341780AA900947E06003024AA3C2935F
:10496A0090075DE090072FF090075EE0900735F022
:10497A0090075FE090079AF0900760E0900748F090
:10498A00900761E09004FCF0900762E0900747F01E
:10499A00900763E09007B8F0E4900947F090094760
:1049AA00E004F0E0B4FFF6D293C2967F8012ECA145
:1049BA0012AC4690072FE012AC42900735E012ACD9
:1049CA004290079AE012AC42900748E012AC42903B
:1049DA0004FCE012AC42900747E012AC429007B8E0
:1049EA00E012AC42D2969009477409F09003CEE0E7
:1049FA00FF04F0741F2FF582E43405F5837406F082
:104A0A0090075AE0FF9003CEE0FE04F0741F2EF5E3
:104A1A0082E43405F583EFF0900947E02FF0900720
:104A2A0059E0FF9003CEE0FE04F0741F2EF582E4F5
:104A3A003405F583EFF0900947E02FF090075BE02B
:104A4A00FF9003CEE0FE04F0741F2EF582E43405D5
:104A5A00F583EFF0900947E02FF09003CEE0FF04D2
:104A6A00F0741F2FF582E43405F5837403F090097E
:104A7A0047E0FFC3E49FFF9003CEE0FE04F0741FFB
:104A8A002EF582E43405F583EFF09007C1E02406A1
:0E4A9A00F09007C0E03400F0227F0712964231
:014AA80022EB
:07ED490075C15D43C180228A
:10EACF00E4F591538E3F759398F5928593958592C2
:08EADF009443E68043910422F8
:03203B000264C07C
:1064C000C0E0C0F0C083C082C0D075D000C000C0A2
:0B64D00001C002C003C004C005C007EB
:1064DB00C206E5C054F02480700302658224C060BC
:1064EB002024E060030265D090073EE0F5C253C262
:1064FB00FEA205E43342C2C2C59000C9E4F00265B6
:10650B00D230C168300007D2C5C2000265D2300359
:10651B0015C20390072CE0F5C22002030265D2D20C
:10652B0000D2050265D23005030265D29004F5E076
:10653B00FF9000C9E0FD3395E0FCC3ED9F7480F83C
:10654B006C98502290050EE0FBA3E0FAA3E0F91241
:10655B0031CFF5C290050FE475F001123297900020
:10656B00C9E004F08061D2C4C201805B300404D264
:10657B00C58054D20680509004F5E0FF9000C9E02E
:10658B00FD3395E0FCC3ED9F7480F86C985022901E
:10659B000737E0FBA3E0FAA3E0F9E5C21231E8907C
:1065AB000738E475F0011232979000C9E004F0D27D
:1065BB00C19000C9E0FF9004F5E0B5070AC201C223
:1065CB00C1D2C48002D20630061053C17F43C180B2
:0C65DB00C2C5C2C4C2C1C201C206C2C017
:1065E700D007D005D004D003D002D001D000D0D03E
:0965F700D082D083D0F0D0E03254
:0320730002EC7705
:0EEC770053C17F43C18053917FC2C5C2013299
:06DC3800E0FB7DD07C0042
:10DC3E00E4FE3001080EEEB4FFF8E4802FD201901E
:10DC4E00073EEDF0C205D203C202D20490072CEFBC
:10DC5E00F09004F1EBF090050E7401F0A37404F053
:10DC6E00A374F1F09004F57401F0D2C59003D3F0D3
:01DC7E002283
:05D090009008F0EFF034
:10D095009008F8EBF0A3EAF0A3E9F0E49008F7F0C4
:10D0A5009008F6E0FFA3E0C39F502E9008F0E0FF44
:10D0B50004F09008F4E0FCA3E0FD9008F8E0FBA381
:10D0C500E475F0011232ADA9F0FA1231CFFB12DC92
:09D0D5003E9008F7E004F080C76A
:01D0DE00222F
:10CBBB00E4FE30010D0EEEB4FFF8E49003D3F07FEA
:10CBCB00FF22D20190073EEDF0C205D203D202D272
:10CBDB000490072CEFF09007377401F0A37409F061
:10CBEB00A37448F09004F57401F0D2C5E4FE300153
:10CBFB00080EEEB4FFF87FFF229003D37401F09080
:04CC0B000948E0FFF5
:01CC0F002202
:08AB8400A3F0A37402F0E4FD4C
:10AB8C00E4FFFE30010D0FBF00010EBEFFF5BFFF4D
:10AB9C00F2803ED201900909A3E090073EF0C20575
:10ABAC00D203D202D20490072CEDF0900737EBF0D1
:10ABBC00A3EAF0A3E9F090090BE09004F5F0D2C5FC
:10ABCC00E4FEFF3001110FBF00010EBEFFF5BFFF09
:0DABDC00F2E49003D3F0229003D37401F053
:01ABE9002249
:0D588400B2B0E4900736F090074B7408F0C6
:105891009009497414F09003CEE0FF04F0741F2FB7
:1058A100F582E43405F5837409F09003CEE0FF043A
:1058B100F0741F2FF582E43405F583E4F09003CEF4
:1058C100E0FF04F0741F2FF582E43405F5837401C1
:1058D100F09003CEE0FF04F0741F2FF582E434054D
:1058E100F5837408F09003CEE0FF04F0741F2FF5E8
:1058F10082E43405F5837402F09003CDE0FF54C0D7
:10590100FEBE8013A3E0FE04F0741F2EF582E43482
:1059110005F583E4F08046EF5430FFBF201C90036F
:10592100CEE0FF04F0741F2FF582E43405F5837493
:1059310001F0900949E004F080239003CDE0540C7C
:10594100FFBF0819A3E0FF04F0741F2FF582E434B0
:1059510005F5837402F0900949E02402F0900511E5
:10596100E0FCA3E0FDA3E0FEA3E0FF9004F8E0F873
:10597100A3E0F9A3E0FAA3E02FFFEA3EFEE93DFD33
:10598100E83CFCE47B3EFAF9F812334EAD07AC0675
:10599100ECFF9003CEE0FE04F0741F2EF582E43498
:1059A10005F583EFF0900949E02FF0AF059003CEA4
:1059B100E0FE04F0741F2EF582E43405F583EFF068
:1059C100900949E02FF0E0FFC3E49FFF9003CEE090
:1059D100FE04F0741F2EF582E43405F583EFF09098
:0D59E10007C1E02409F09007C0E03400F099
:0159EE002296
:03866C007480F027
:10866F007F139005017401F09003CEE0FE04F074C7
:10867F001F2EF582E43405F5837407F09003CEE0E6
:10868F00FE04F0741F2EF582E43405F583E4F090B8
:10869F0003CEE0FE04F0741F2EF582E43405F5835B
:1086AF007401F09003CEE0FE04F0741F2EF582E407
:1086BF003405F5837409F09003CEE0FE04F0741FC7
:1086CF002EF582E43405F5837402F09003CDE0FEBD
:1086DF0054C0FDBD4013A3E0FD04F0741F2DF582BF
:1086EF00E43405F583E4F0803CEE5430FEBE101701
:1086FF009003CEE0FE04F0741F2EF582E43405F5EE
:10870F00837401F00F801E9003CDE0540CFEBE0465
:10871F0014A3E0FE04F0741F2EF582E43405F583F4
:10872F007402F00F0FC3E49FFF9003CEE0FE04F03E
:10873F00741F2EF582E43405F583EFF09007C1E046
:0A874F002407F09007C0E03400F0AA
:0187590022FD
:10373300E4900920F09007AE1234230000000090BB
:103743000758E0FFE4FCFDFE9007AEE0F8A3E0F9C4
:10375300A3E0FAA3E0FBC31233E050399007AEA312
:10376300A3A3E02458F582E43407F583E0FF90092E
:1037730020E02FF09007AEE0FCA3E0FDA3E0FEA362
:10378300E02401FFE43EFEE43DFDE43CFC9007AE93
:1037930012341780AA900920E060030239D0900701
:1037A3004BE04480F090075CE06403600302383E22
:1037B300A3E0FFE4FCFDFE7808123404E4FFE4FD1B
:1037C300FC90091C12341790091CE0F8A3E0F9A33C
:1037D300E0FAA3E0FB90075EE0FFE4FCFDFEEB2FC5
:1037E300FFEE3AFEED39FDEC38FC90091C1234175C
:1037F30090091CE0FCA3E0FDA3E0FEA3E0FFE47B53
:103803003EFAF9F81232C390091C123417900511CD
:10381300E0FCA3E0FDA3E0FEA3E0FF90091CE0F8B9
:10382300A3E0F9A3E0FAA3E0FBEF2BFFEE3AFEEDF2
:1038330039FDEC38FC90051112341790075CE064F5
:103843000260030239D59009207414F09003CEE08E
:10385300FF04F0741F2FF582E43405F5837408F038
:103863009003CEE0FF04F0741F2FF582E43405F5D6
:1038730083E4F09003CEE0FF04F0741F2FF582E49D
:103883003405F5837401F09003CEE0FF04F0741F58
:103893002FF582E43405F5837408F09003CEE0FF3E
:1038A30004F0741F2FF582E43405F5837403F0905C
:1038B300075DE0FFE4FCFDFE7808123404E4FFE456
:1038C300FDFC90091C12341790091CE0F8A3E0F9E1
:1038D300A3E0FAA3E0FB90075EE0FFE4FCFDFEEB50
:1038E3002FFFEE3AFEED39FDEC38FC90091C123443
:1038F3001790091CE0FCA3E0FDA3E0FEA3E0FFE4B6
:103903007B3EFAF9F81232C390091C123417900562
:1039130011E0FCA3E0FDA3E0FEA3E0FF90091CE09F
:10392300F8A3E0F9A3E0FAA3E0FBEF2BFFEE3AFEE6
:10393300ED39FDEC38FC900511123417900511E0B8
:10394300FCA3E0FDA3E0FEA3E0FF9004F8E0F8A3EE
:10395300E0F9A3E0FAA3E02FFFEA3EFEE93DFDE82C
:103963003CFCE47B3EFAF9F812334EAD07AC06ECAF
:10397300FF9003CEE0FE04F0741F2EF582E43405BD
:10398300F583EFF0900920E02FF0AF059003CEE030
:10399300FE04F0741F2EF582E43405F583EFF090F6
:1039A3000920E02FF0E0FFC3E49FFF9003CEE0FE89
:1039B30004F0741F2EF582E43405F583EFF09007CD
:1039C300C1E02408F09007C0E03400F0227F081221
:0239D30096421A
:0139D50022CF
:10D0DF00E4FFFE900758E0FDEEC39D501074582EEC
:10D0EF00F582E43407F583E02FFF0E80E6EF70281A
:10D0FF0090074BF0900511123423000000009007A9
:10D10F005DE07F056005122EEC8003122F75E49011
:0DD11F000501F090074BF0227F09129642A7
:01D12C0022E0
:10EAE70075F003EFA424CAF582E5F03400F583A39B
:08EAF700E0FAA3E0F902348605
:10E84F0090051B123423000000009004E9123423BA
:0FE85F00000000009007D61234230000000022B2
:06ED5700E49003CDF02260
:06ED5D00E49003CDF0225A
:06ED6300E49003CDF02254
:10E98C00E49007A7F09004E91234230000000090F3
:0BE99C0003CDE004F012EBC102E7AD78
:109F4A009004E9E0FCA3E0FDA3E0FEA3E02401FF06
:109F5A00E43EFEE43DFDE43CFC9004E91234179033
:109F6A0004E9A3A3A3E05401FFE4FEFDFCFBFAF914
:109F7A00F8C31233E0700EB2B09004F7F0900758AD
:109F8A00F09007A7F0E47F06FEFDFC9004E9E0F8F4
:109F9A00A3E0F9A3E0FAA3E0FBC31233E070109048
:109FAA0004E9123423000000009003CDE004F022FB
:10BF64009004E9E0FCA3E0FDA3E0FEA3E02401FFCC
:10BF7400E43EFEE43DFDE43CFC9004E912341790F9
:10BF840004E9A3A3A3E05401FFE4FEFDFCFBFAF9DA
:10BF9400F8C31233E070209004E912342300000047
:10BFA40000B2B09003CDE004F0E49004F7F0900701
:08BFB40058F09007A704F022E9
:10D12D009004E9E0FCA3E0FDA3E0FEA3E02401FFF1
:10D13D00E43EFEE43DFDE43CFC9004E9123417901E
:10D14D0004E9A3A3A3E05401FFE4FEFDFCFBFAF9FF
:10D15D00F8C31233E0700C9004E912342300000080
:0ED16D0000B2B090074BE030E30312866C2254
:10D17B009004E9E0FCA3E0FDA3E0FEA3E02401FFA3
:10D18B00E43EFEE43DFDE43CFC9004E912341790D0
:10D19B0004E9A3A3A3E05401FFE4FEFDFCFBFAF9B1
:10D1AB00F8C31233E070169004E912342300000028
:0ED1BB00001258849003CDE054FC4402F02290
:10C904009004E9E0FCA3E0FDA3E0FEA3E02401FF22
:10C91400E43EFEE43DFDE43CFC9004E9123417904F
:10C9240004E9A3A3A3E05401FFE4FEFDFCFBFAF930
:10C93400F8C31233E0701F9004E91234230000009E
:10C9440000B2B09004E9123423000000009003CD3B
:07C95400E054FC4401F02255
:108AC0009004F8E0FCA3E0FDA3E0FEA3E0FF900427
:108AD000E9E0F8A3E0F9A3E0FAA3E0FBC31233E076
:108AE000703B900511E0FCA3E0FDA3E0FEA3E0FFD6
:108AF000EC4D4E4F601F900511A3A3A3E024FFFF90
:108B0000EE34FFFEED34FFFDEC34FFFC9005111256
:108B10003417B2B0229003CDE054FCF0229004E967
:108B2000E0FCA3E0FDA3E0FEA3E02401FFE43EFEA1
:108B3000E43DFDE43CFC9004E91234179004E9A301
:108B4000A3A3E05401FFE4FEFDFCFBFAF9F8C31215
:108B500033E07002B2B09004E9A3A3A3E0543FFF56
:108B6000E4FEFDFCFBFAF9F8C31233E0701990073C
:108B700036E0D39405501090074BE020E7091258D7
:088B800091900736E004F02299
:10CD60009004E9123423000000009003CDE0440455
:10CD700012E893E490074BF0900758F090051FF0ED
:10CD80009003CEF09007BFF09004F7F09003E3F02B
:10CD9000900722F09003D5F0A3F0900511123423F0
:10CDA0000000000012DEE7900744E06005E4F012A6
:03CDB000E7662211
:0BECA9009004E9123423000000002258
:082003009003CDE054FCF02233
:08ED01009003CDE054FCF02268
:08ED09009003CDE054FCF02260
:10E9A700E49007A7F09003CDE004F09007D6123467
:0BE9B700230000000012EBC102E7ADDE
:109FBA009007D6E0FCA3E0FDA3E0FEA3E02401FFA6
:109FCA00E43EFEE43DFDE43CFC9007D612341790D3
:109FDA0007D6A3A3A3E05401FFE4FEFDFCFBFAF9B4
:109FEA00F8C31233E0700EB2B09004F7F09007583D
:109FFA00F09007A7F0E47F06FEFDFC9007D6E0F894
:10A00A00A3E0F9A3E0FAA3E0FBC31233E0701090D7
:10A01A0007D6123423000000009003CDE004F0229A
:10BFBC009007D6E0FCA3E0FDA3E0FEA3E02401FF84
:10BFCC00E43EFEE43DFDE43CFC9007D612341790B1
:10BFDC0007D6A3A3A3E05401FFE4FEFDFCFBFAF992
:10BFEC00F8C31233E070209007D6123423000000FF
:10BFFC0000B2B09003CDE004F0E49004F7F09007A9
:08C00C0058F09007A704F02290
:10D1C9009007D6E0FCA3E0FDA3E0FEA3E02401FF65
:10D1D900E43EFEE43DFDE43CFC9007D61234179092
:10D1E90007D6A3A3A3E05401FFE4FEFDFCFBFAF973
:10D1F900F8C31233E0700C9007D6123423000000F4
:0ED2090000B2B090074BE030E30312866C22B7
:10E9C200E49007A7F09003CDE004F09007D612344C
:0BE9D200230000000012EBC102E7ADC3
:10A02A009007D6E0FCA3E0FDA3E0FEA3E02401FF35
:10A03A00E43EFEE43DFDE43CFC9007D61234179062
:10A04A0007D6A3A3A3E05401FFE4FEFDFCFBFAF943
:10A05A00F8C31233E0700EB2B09004F7F0900758CC
:10A06A00F09007A7F0E47F06FEFDFC9007D6E0F823
:10A07A00A3E0F9A3E0FAA3E0FBC31233E070109067
:10A08A0007D6123423000000009003CDE004F0222A
:10C014009007D6E0FCA3E0FDA3E0FEA3E02401FF2B
:10C02400E43EFEE43DFDE43CFC9007D61234179058
:10C0340007D6A3A3A3E05401FFE4FEFDFCFBFAF939
:10C04400F8C31233E070209007D6123423000000A6
:10C0540000B2B09003CDE004F0E49004F7F0900750
:08C0640058F09007A704F02238
:10CE59009007D6E0FCA3E0FDA3E0FEA3E02401FFD8
:10CE6900E43EFEE43DFDE43CFC9007D61234179005
:10CE790007D6A3A3A3E05401FFE4FEFDFCFBFAF9E6
:10CE8900F8C31233E0700C9007D612342300000067
:10CE990000B2B090074BE030E3067480F012866F61
:01CEA9002266
:10E65300E49007A7F09003CDE04404F0E004F090C9
:10E6630007D6123423000000009004E9123423007B
:09E6730000000012EBC102E7AD4A
:109DF4009007D6E0FCA3E0FDA3E0FEA3E02401FF6E
:109E0400E43EFEE43DFDE43CFC9007D6123417909A
:109E140007D6A3A3A3E05401FFE4FEFDFCFBFAF97B
:109E2400F8C31233E0700EB2B09004F7F090075804
:109E3400F09007A7F0E47F06FEFDFC9007D6E0F85B
:109E4400A3E0F9A3E0FAA3E0FBC31233E07014909B
:109E540007D6123423000000009003CDE04404F040
:049E6400E004F02204
:10ACAE009007D6E0FCA3E0FDA3E0FEA3E02401FFA5
:10ACBE00E43EFEE43DFDE43CFC9007D6123417E47E
:10ACCE007F02FEFDFC9007D6E0F8A3E0F9A3E0FAC0
:10ACDE00A3E0FBC31233E070249007D61234230096
:10ACEE00000000B2B09003CDE04404F0E004F0E4C4
:0EACFE009004F7F0900758F09007A704F0229A
:10BEB0009003CDE04404F09007D6E0FCA3E0FDA39E
:10BEC000E0FEA3E02401FFE43EFEE43DFDE43CFC93
:10BED0009007D6123417E47F02FEFDFC9007D6E0EF
:10BEE000F8A3E0F9A3E0FAA3E0FBC31233E0700C7F
:10BEF0009007D612342300000000B2B090074BE048
:0ABF000030E3067480F012866F2211
:10E9DD00E49007A7F09003CDE004F09007D6123431
:0BE9ED00230000000012EBC102E7ADA8
:10A09A009007D6E0FCA3E0FDA3E0FEA3E02401FFC5
:10A0AA00E43EFEE43DFDE43CFC9007D612341790F2
:10A0BA0007D6A3A3A3E05401FFE4FEFDFCFBFAF9D3
:10A0CA00F8C31233E0700EB2B09004F7F09007585C
:10A0DA00F09007A7F0E47F06FEFDFC9007D6E0F8B3
:10A0EA00A3E0F9A3E0FAA3E0FBC31233E0701090F7
:10A0FA0007D6123423000000009003CDE004F022BA
:10BF0A009007D6E0FCA3E0FDA3E0FEA3E02401FF36
:10BF1A00E43EFEE43DFDE43CFC9007D6123417E40F
:10BF2A007F02FEFDFC9007D6E0F8A3E0F9A3E0FA51
:10BF3A00A3E0FBC31233E070209007D6123423002B
:10BF4A00000000B2B09003CDE004F0E49004F7F0F2
:0ABF5A00900758F09007A704F022AA
:10CDB3009007D6E0FCA3E0FDA3E0FEA3E02401FF7F
:10CDC300E43EFEE43DFDE43CFC9007D6123417E458
:10CDD3007F02FEFDFC9007D6E0F8A3E0F9A3E0FA9A
:10CDE300A3E0FBC31233E0700C9007D61234230088
:10CDF300000000B2B090074BE030E3067480F012FD
:03CE0300866F2215
:10D217009007D6E0FCA3E0FDA3E0FEA3E02401FF16
:10D22700E43EFEE43DFDE43CFC9007D61234179043
:10D2370007D6A3A3A3E05401FFE4FEFDFCFBFAF924
:10D24700F8C31233E070169007D61234230000009B
:0ED25700001258849003CDE054FC4402F022F3
:10C95B009007D6E0FCA3E0FDA3E0FEA3E02401FFDB
:10C96B00E43EFEE43DFDE43CFC9007D61234179008
:10C97B0007D6A3A3A3E05401FFE4FEFDFCFBFAF9E9
:10C98B00F8C31233E0701F9007D612342300000057
:10C99B0000B2B09003CDE054FC4401F09007D612E6
:07C9AB00342300000000220C
:108B88009004F8E0FCA3E0FDA3E0FEA3E0FF90075B
:108B9800D6E0F8A3E0F9A3E0FAA3E0FBC31233E0C0
:108BA800703B900511E0FCA3E0FDA3E0FEA3E0FF0D
:108BB800EC4D4E4F601F900511A3A3A3E024FFFFC7
:108BC800EE34FFFEED34FFFDEC34FFFC900511128E
:108BD8003417B2B0229003CDE054FCF0229007D6AF
:108BE800E0FCA3E0FDA3E0FEA3E02401FFE43EFED9
:108BF800E43DFDE43CFC9007D61234179007D6A359
:108C0800A3A3E05401FFE4FEFDFCFBFAF9F8C3124C
:108C180033E07002B2B09007D6A3A3A3E0543FFF9D
:108C2800E4FEFDFCFBFAF9F8C31233E07019900773
:108C380036E0D39405501090074BE020E70912580E
:088C480091900736E004F022D0
:10C9B2009007D6123423000000009003CDE044100B
:10C9C200F0E49007A7F0C2B090074BF0900758F040
:10C9D20090051FF09003CEF09007BFF09004F7F09F
:10C9E2009003E3F0900722F09003D5F0A3F09005B6
:10C9F200111234230000000012DEE7900744E060C9
:07CA020005E4F012E76622D3
:10D265009007D6E0FCA3E0FDA3E0FEA3E02401FFC8
:10D27500E43EFEE43DFDE43CFC9007D612341790F5
:10D2850007D6A3A3A3E05401FFE4FEFDFCFBFAF9D6
:10D29500F8C31233E070169007D61234230000004D
:0ED2A500001258849003CDE054FC4402F022A5
:10CA09009007D6E0FCA3E0FDA3E0FEA3E02401FF2C
:10CA1900E43EFEE43DFDE43CFC9007D61234179059
:10CA290007D6A3A3A3E05401FFE4FEFDFCFBFAF93A
:10CA3900F8C31233E0701F9007D6123423000000A8
:10CA490000B2B09003CDE054FC4401F09007D61237
:07CA5900342300000000225D
:108C50009004F8E0FCA3E0FDA3E0FEA3E0FF900792
:108C6000D6E0F8A3E0F9A3E0FAA3E0FBC31233E0F7
:108C7000703B900511E0FCA3E0FDA3E0FEA3E0FF44
:108C8000EC4D4E4F601F900511A3A3A3E024FFFFFE
:108C9000EE34FFFEED34FFFDEC34FFFC90051112C5
:108CA0003417B2B0229003CDE054FCF0229007D6E6
:108CB000E0FCA3E0FDA3E0FEA3E02401FFE43EFE10
:108CC000E43DFDE43CFC9007D61234179007D6A390
:108CD000A3A3E05401FFE4FEFDFCFBFAF9F8C31284
:108CE00033E07002B2B09007D6A3A3A3E0543FFFD5
:108CF000E4FEFDFCFBFAF9F8C31233E070199007AB
:108D000036E0D39405501090074BE020E709125845
:088D100091900736E004F02207
:10D2B3009007D6123423000000009003CDE0441001
:10D2C300F054F0F0E49007A7F0C2B090074BF09051
:10D2D3000758F090051FF09003CEF09007BFF09031
:10D2E30004F7F09003E3F0900722F09003D5F0A346
:0ED2F300F09005111234230000000002DEE767
:10D301009007D6E0FCA3E0FDA3E0FEA3E02401FF2B
:10D31100E43EFEE43DFDE43CFC9007D61234179058
:10D3210007D6A3A3A3E05401FFE4FEFDFCFBFAF939
:10D33100F8C31233E070169007D6123423000000B0
:0ED34100001258849003CDE054FC4402F02208
:10D5BF009007D6E0FCA3E0FDA3E0FEA3E02401FF6B
:10D5CF00E43EFEE43DFDE43CFC9007D61234179098
:10D5DF0007D6A3A3A3E05401FFE4FEFDFCFBFAF979
:10D5EF00F8C31233E07015B2B09003CDE054FC4491
:0DD5FF0001F09007D6123423000000002236
:108D18009004F8E0FCA3E0FDA3E0FEA3E0FF9007C9
:108D2800D6E0F8A3E0F9A3E0FAA3E0FBC31233E02E
:108D3800703B900511E0FCA3E0FDA3E0FEA3E0FF7B
:108D4800EC4D4E4F601F900511A3A3A3E024FFFF35
:108D5800EE34FFFEED34FFFDEC34FFFC90051112FC
:108D68003417B2B0229003CDE054FCF0229007D61D
:108D7800E0FCA3E0FDA3E0FEA3E02401FFE43EFE47
:108D8800E43DFDE43CFC9007D61234179007D6A3C7
:108D9800A3A3E05401FFE4FEFDFCFBFAF9F8C312BB
:108DA80033E07002B2B09007D6A3A3A3E0543FFF0C
:108DB800E4FEFDFCFBFAF9F8C31233E070199007E2
:108DC80036E0D39405501090074BE020E70912587D
:088DD80091900736E004F0223F
:10D7DA009007D6123423000000009003CDE04414D1
:10D7EA00F0E49007A7F0C2B090074BF0900758F00A
:10D7FA0090051FF09003CEF09007BFF09004F7F069
:10D80A009003E3F0900722F09003D5F0A3F090057F
:0BD81A00111234230000000002DEE7C2
:10B9B6009007D6E0FCA3E0FDA3E0FEA3E02401FF90
:10B9C600E43EFEE43DFDE43CFC9007D612341790BD
:10B9D60007D6A3A3A3E05401FFE4FEFDFCFBFAF99E
:10B9E600F8C31233E070239007D612342300000008
:10B9F60000B2B09007367408F0E490074BF0125886
:0BBA0600919003CDE054FC4402F022BC
:10D60C009007D6E0FCA3E0FDA3E0FEA3E02401FF1D
:10D61C00E43EFEE43DFDE43CFC9007D6123417904A
:10D62C0007D6A3A3A3E05401FFE4FEFDFCFBFAF92B
:10D63C00F8C31233E07015B2B09003CDE054FC4443
:0DD64C0001F09007D61234230000000022E8
:108DE0009004F8E0FCA3E0FDA3E0FEA3E0FF900701
:108DF000D6E0F8A3E0F9A3E0FAA3E0FBC31233E066
:108E0000703B900511E0FCA3E0FDA3E0FEA3E0FFB2
:108E1000EC4D4E4F601F900511A3A3A3E024FFFF6C
:108E2000EE34FFFEED34FFFDEC34FFFC9005111233
:108E30003417B2B0229003CDE054FCF0229007D654
:108E4000E0FCA3E0FDA3E0FEA3E02401FFE43EFE7E
:108E5000E43DFDE43CFC9007D61234179007D6A3FE
:108E6000A3A3E05401FFE4FEFDFCFBFAF9F8C312F2
:108E700033E07002B2B09007D6A3A3A3E0543FFF43
:108E8000E4FEFDFCFBFAF9F8C31233E07019900719
:108E900036E0D39405501090074BE020E7091258B4
:088EA00091900736E004F02276
:10D825009007D6123423000000009003CDE0441089
:10D83500F0E49007A7F0C2B090074BF0900758F0BE
:10D8450090051FF09003CEF09007BFF09004F7F01D
:10D855009003E3F0900722F09003D5F0A3F0900534
:0BD86500111234230000000002DEE777
:0BECB4009007D612342300000000225D
:08ED11009003CDE054FCF02258
:08ED19009003CDE054FCF02250
:08ED21009003CDE054FCF02248
:10E9F800E49007A7F09003CDE004F09004E9123406
:0BEA0800230000000012EBC102E7AD8C
:10A10A009004E9E0FCA3E0FDA3E0FEA3E02401FF44
:10A11A00E43EFEE43DFDE43CFC9004E91234179071
:10A12A0004E9A3A3A3E05401FFE4FEFDFCFBFAF952
:10A13A00F8C31233E0700EB2B09004F7F0900758EB
:10A14A00F09007A7F0E47F06FEFDFC9004E9E0F832
:10A15A00A3E0F9A3E0FAA3E0FBC31233E070109086
:10A16A0004E9123423000000009003CDE004F02239
:10C06C009004E9E0FCA3E0FDA3E0FEA3E02401FFC3
:10C07C00E43EFEE43DFDE43CFC9004E912341790F0
:10C08C0004E9A3A3A3E05401FFE4FEFDFCFBFAF9D1
:10C09C00F8C31233E070209004E91234230000003E
:10C0AC0000B2B09003CDE004F0E49004F7F09007F8
:08C0BC0058F09007A704F022E0
:10CEAA009004E9E0FCA3E0FDA3E0FEA3E02401FF77
:10CEBA00E43EFEE43DFDE43CFC9004E912341790A4
:10CECA0004E9A3A3A3E05401FFE4FEFDFCFBFAF985
:10CEDA00F8C31233E0700C9004E912342300000006
:10CEEA0000B2B090074BE030E3067480F012866F10
:01CEFA002215
:10D34F009004E9E0FCA3E0FDA3E0FEA3E02401FFCD
:10D35F00E43EFEE43DFDE43CFC9004E912341790FA
:10D36F0004E9A3A3A3E05401FFE4FEFDFCFBFAF9DB
:10D37F00F8C31233E070169004E912342300000052
:0ED38F00001258849003CDE054FC4402F022BA
:10CA60009004E9E0FCA3E0FDA3E0FEA3E02401FFC5
:10CA7000E43EFEE43DFDE43CFC9004E912341790F2
:10CA800004E9A3A3A3E05401FFE4FEFDFCFBFAF9D3
:10CA9000F8C31233E0701F9004E912342300000041
:10CAA00000B2B09004E9123423000000009003CDDE
:07CAB000E054FC4401F022F8
:108EA8009004F8E0FCA3E0FDA3E0FEA3E0FF90043B
:108EB800E9E0F8A3E0F9A3E0FAA3E0FBC31233E08A
:108EC800703B900511E0FCA3E0FDA3E0FEA3E0FFEA
:108ED800EC4D4E4F601F900511A3A3A3E024FFFFA4
:108EE800EE34FFFEED34FFFDEC34FFFC900511126B
:108EF8003417B2B0229003CDE054FCF0229004E97C
:108F0800E0FCA3E0FDA3E0FEA3E02401FFE43EFEB5
:108F1800E43DFDE43CFC9004E91234179004E9A315
:108F2800A3A3E05401FFE4FEFDFCFBFAF9F8C31229
:108F380033E07002B2B09004E9A3A3A3E0543FFF6A
:108F4800E4FEFDFCFBFAF9F8C31233E07019900750
:108F580036E0D39405501090074BE020E7091258EB
:088F680091900736E004F022AD
:10D870009004E9123423000000009003CDE044043A
:10D88000F0E49007A7F0C2B090074BF0900758F073
:10D8900090051FF09003CEF09007BFF09004F7F0D2
:10D8A0009003E3F0900722F09003D5F0A3F09005E9
:0BD8B000111234230000000002DEE72C
:10200E009004E9123423000000009007D612342306
:05201E0000000000229B
:08ED29009003CDE054FCF02240
:08ED31009003CDE054FCF02238
:08ED39009003CDE054FCF02230
:10DF250012E5439004FDE0FCA3E0FDA3E0FEA3E0C1
:10DF3500FF90051BE0F8A3E0F9A3E0FAA3E0FBC31B
:10DF45001233E040169003CDE004F090051B123427
:0CDF5500230000000012EBC112E7AD2217
:10A17A0090051BE0FCA3E0FDA3E0FEA3E02401FFA1
:10A18A00E43EFEE43DFDE43CFC90051B12341790CE
:10A19A00051BA3A3A3E05401FFE4FEFDFCFBFAF9AF
:10A1AA00F8C31233E0700EB2B09004F7F09007587B
:10A1BA00F09007A7F0E47F30FEFDFC90051BE0F865
:10A1CA00A3E0F9A3E0FAA3E0FBC31233E070109016
:10A1DA00051B123423000000009003CDE004F02296
:10C0C40090051BE0FCA3E0FDA3E0FEA3E02401FF38
:10C0D400E43EFEE43DFDE43CFC90051B1234179065
:10C0E400051BA3A3A3E05401FFE4FEFDFCFBFAF946
:10C0F400F8C31233E0702090051B123423000000B3
:10C1040000B2B09003CDE004F0E49004F7F090079F
:08C1140058F09007A704F02287
:10CC100090051BE0FCA3E0FDA3E0FEA3E02401FFE0
:10CC2000E43EFEE43DFDE43CFC90051B123417900D
:10CC3000051BA3A3A3E05401FFE4FEFDFCFBFAF9EE
:10CC4000F8C31233E0700C90051B1234230000006F
:10CC500000B2B090074BE030E3097480F012866FA9
:04CC600012E5672250
:10DF610012E5439004FDE0FCA3E0FDA3E0FEA3E085
:10DF7100FF90051BE0F8A3E0F9A3E0FAA3E0FBC3DF
:10DF81001233E040169003CDE004F090051B1234EB
:0CDF9100230000000012EBC112E7AD22DB
:10A1EA0090051BE0FCA3E0FDA3E0FEA3E02401FF31
:10A1FA00E43EFEE43DFDE43CFC90051B123417905E
:10A20A00051BA3A3A3E05401FFE4FEFDFCFBFAF93E
:10A21A00F8C31233E0700EB2B09004F7F09007580A
:10A22A00F09007A7F0E47F30FEFDFC90051BE0F8F4
:10A23A00A3E0F9A3E0FAA3E0FBC31233E0701090A5
:10A24A00051B123423000000009003CDE004F02225
:10C11C0090051BE0FCA3E0FDA3E0FEA3E02401FFDF
:10C12C00E43EFEE43DFDE43CFC90051B123417900C
:10C13C00051BA3A3A3E05401FFE4FEFDFCFBFAF9ED
:10C14C00F8C31233E0702090051B1234230000005A
:10C15C0000B2B09003CDE004F0E49004F7F0900747
:08C16C0058F09007A704F0222F
:10BA110090051BE0FCA3E0FDA3E0FEA3E02401FFF1
:10BA2100E43EFEE43DFDE43CFC90051B123417901E
:10BA310003CDE054F3F090051BA3A3A3E05401FF51
:10BA4100E4FEFDFCFBFAF9F8C31233E0700C90053B
:10BA51001B12342300000000B2B090074BE030E32A
:0BBA6100097480F012866F12E5672266
:10DF9D0012E5439004FDE0FCA3E0FDA3E0FEA3E049
:10DFAD00FF90051BE0F8A3E0F9A3E0FAA3E0FBC3A3
:10DFBD001233E040169003CDE004F090051B1234AF
:0CDFCD00230000000012EBC112E7AD229F
:10A25A0090051BE0FCA3E0FDA3E0FEA3E02401FFC0
:10A26A00E43EFEE43DFDE43CFC90051B12341790ED
:10A27A00051BA3A3A3E05401FFE4FEFDFCFBFAF9CE
:10A28A00F8C31233E0700EB2B09004F7F09007589A
:10A29A00F09007A7F0E47F30FEFDFC90051BE0F884
:10A2AA00A3E0F9A3E0FAA3E0FBC31233E070109035
:10A2BA00051B123423000000009003CDE004F022B5
:10C1740090051BE0FCA3E0FDA3E0FEA3E02401FF87
:10C18400E43EFEE43DFDE43CFC90051B12341790B4
:10C19400051BA3A3A3E05401FFE4FEFDFCFBFAF995
:10C1A400F8C31233E0702090051B12342300000002
:10C1B40000B2B09003CDE004F0E49004F7F09007EF
:08C1C40058F09007A704F022D7
:10BA6C0090051BE0FCA3E0FDA3E0FEA3E02401FF96
:10BA7C00E43EFEE43DFDE43CFC90051B12341790C3
:10BA8C0003CDE04404F090051BA3A3A3E05401FFF5
:10BA9C00E4FEFDFCFBFAF9F8C31233E0700C9005E0
:10BAAC001B12342300000000B2B090074BE030E3CF
:0BBABC00097480F012866F12E567220B
:10E2000012E5439004FDE0FCA3E0FDA3E0FEA3E0E3
:10E21000FF90051BE0F8A3E0F9A3E0FAA3E0FBC33D
:10E220001233E040169003CDE004F090051B123449
:0CE23000230000000012EBC112E7AD2239
:10A2CA0090051BE0FCA3E0FDA3E0FEA3E02401FF50
:10A2DA00E43EFEE43DFDE43CFC90051B123417907D
:10A2EA00051BA3A3A3E05401FFE4FEFDFCFBFAF95E
:10A2FA00F8C31233E0700EB2B09004F7F09007582A
:10A30A00F09007A7F0E47F30FEFDFC90051BE0F813
:10A31A00A3E0F9A3E0FAA3E0FBC31233E0701090C4
:10A32A00051B123423000000009003CDE004F02244
:10C1CC0090051BE0FCA3E0FDA3E0FEA3E02401FF2F
:10C1DC00E43EFEE43DFDE43CFC90051B123417905C
:10C1EC00051BA3A3A3E05401FFE4FEFDFCFBFAF93D
:10C1FC00F8C31233E0702090051B123423000000AA
:10C20C0000B2B09003CDE004F0E49004F7F0900796
:08C21C0058F09007A704F0227E
:10CC640090051BE0FCA3E0FDA3E0FEA3E02401FF8C
:10CC7400E43EFEE43DFDE43CFC90051B12341790B9
:10CC8400051BA3A3A3E05401FFE4FEFDFCFBFAF99A
:10CC9400F8C31233E0700C90051B1234230000001B
:10CCA40000B2B090074BE030E3097480F012866F55
:04CCB40012E56722FC
:10E23C0012E5439004FDE0FCA3E0FDA3E0FEA3E0A7
:10E24C00FF90051BE0F8A3E0F9A3E0FAA3E0FBC301
:10E25C001233E040169003CDE004F090051B12340D
:0CE26C00230000000012EBC112E7AD22FD
:10A33A0090051BE0FCA3E0FDA3E0FEA3E02401FFDF
:10A34A00E43EFEE43DFDE43CFC90051B123417900C
:10A35A00051BA3A3A3E05401FFE4FEFDFCFBFAF9ED
:10A36A00F8C31233E0700EB2B09004F7F0900758B9
:10A37A00F09007A7F0E47F30FEFDFC90051BE0F8A3
:10A38A00A3E0F9A3E0FAA3E0FBC31233E070109054
:10A39A00051B123423000000009003CDE004F022D4
:10C2240090051BE0FCA3E0FDA3E0FEA3E02401FFD6
:10C23400E43EFEE43DFDE43CFC90051B1234179003
:10C24400051BA3A3A3E05401FFE4FEFDFCFBFAF9E4
:10C25400F8C31233E0702090051B12342300000051
:10C2640000B2B09003CDE004F0E49004F7F090073E
:08C2740058F09007A704F02226
:10BAC70090051BE0FCA3E0FDA3E0FEA3E02401FF3B
:10BAD700E43EFEE43DFDE43CFC90051B1234179068
:10BAE70003CDE054CFF090051BA3A3A3E05401FFBF
:10BAF700E4FEFDFCFBFAF9F8C31233E0700C900585
:10BB07001B12342300000000B2B090074BE030E373
:0BBB1700097480F012866F12E56722AF
:10E2780012E5439004FDE0FCA3E0FDA3E0FEA3E06B
:10E28800FF90051BE0F8A3E0F9A3E0FAA3E0FBC3C5
:10E298001233E040169003CDE004F090051B1234D1
:0CE2A800230000000012EBC112E7AD22C1
:10A3AA0090051BE0FCA3E0FDA3E0FEA3E02401FF6F
:10A3BA00E43EFEE43DFDE43CFC90051B123417909C
:10A3CA00051BA3A3A3E05401FFE4FEFDFCFBFAF97D
:10A3DA00F8C31233E0700EB2B09004F7F090075849
:10A3EA00F09007A7F0E47F30FEFDFC90051BE0F833
:10A3FA00A3E0F9A3E0FAA3E0FBC31233E0701090E4
:10A40A00051B123423000000009003CDE004F02263
:10C27C0090051BE0FCA3E0FDA3E0FEA3E02401FF7E
:10C28C00E43EFEE43DFDE43CFC90051B12341790AB
:10C29C00051BA3A3A3E05401FFE4FEFDFCFBFAF98C
:10C2AC00F8C31233E0702090051B123423000000F9
:10C2BC0000B2B09003CDE004F0E49004F7F09007E6
:08C2CC0058F09007A704F022CE
:10BB220090051BE0FCA3E0FDA3E0FEA3E02401FFDF
:10BB3200E43EFEE43DFDE43CFC90051B123417900C
:10BB420003CDE054C3F090051BA3A3A3E05401FF6F
:10BB5200E4FEFDFCFBFAF9F8C31233E0700C900529
:10BB62001B12342300000000B2B090074BE030E318
:0BBB7200097480F012866F12E5672254
:10E2B40012E5439004FDE0FCA3E0FDA3E0FEA3E02F
:10E2C400FF90051BE0F8A3E0F9A3E0FAA3E0FBC389
:10E2D4001233E040169003CDE004F090051B123495
:0CE2E400230000000012EBC112E7AD2285
:10A41A0090051BE0FCA3E0FDA3E0FEA3E02401FFFE
:10A42A00E43EFEE43DFDE43CFC90051B123417902B
:10A43A00051BA3A3A3E05401FFE4FEFDFCFBFAF90C
:10A44A00F8C31233E0700EB2B09004F7F0900758D8
:10A45A00F09007A7F0E47F30FEFDFC90051BE0F8C2
:10A46A00A3E0F9A3E0FAA3E0FBC31233E070109073
:10A47A00051B123423000000009003CDE004F022F3
:10C2D40090051BE0FCA3E0FDA3E0FEA3E02401FF26
:10C2E400E43EFEE43DFDE43CFC90051B1234179053
:10C2F400051BA3A3A3E05401FFE4FEFDFCFBFAF934
:10C30400F8C31233E0702090051B123423000000A0
:10C3140000B2B09003CDE004F0E49004F7F090078D
:08C3240058F09007A704F02275
:10AD0C0090051BE0FCA3E0FDA3E0FEA3E02401FF03
:10AD1C00E43EFEE43DFDE43CFC90051B1234179030
:10AD2C0003CDE04404F054CFF090051BA3A3A3E0A3
:10AD3C005401FFE4FEFDFCFBFAF9F8C31233E0709A
:10AD4C000C90051B12342300000000B2B090074B8E
:0EAD5C00E030E3097480F012866F12E5672282
:10E2F00012E5439004FDE0FCA3E0FDA3E0FEA3E0F3
:10E30000FF90051BE0F8A3E0F9A3E0FAA3E0FBC34C
:10E310001233E040169003CDE004F090051B123458
:0CE32000230000000012EBC112E7AD2248
:10A48A0090051BE0FCA3E0FDA3E0FEA3E02401FF8E
:10A49A00E43EFEE43DFDE43CFC90051B12341790BB
:10A4AA00051BA3A3A3E05401FFE4FEFDFCFBFAF99C
:10A4BA00F8C31233E0700EB2B09004F7F090075868
:10A4CA00F09007A7F0E47F30FEFDFC90051BE0F852
:10A4DA00A3E0F9A3E0FAA3E0FBC31233E070109003
:10A4EA00051B123423000000009003CDE004F02283
:10C32C0090051BE0FCA3E0FDA3E0FEA3E02401FFCD
:10C33C00E43EFEE43DFDE43CFC90051B12341790FA
:10C34C00051BA3A3A3E05401FFE4FEFDFCFBFAF9DB
:10C35C00F8C31233E0702090051B12342300000048
:10C36C0000B2B09003CDE004F0E49004F7F0900735
:08C37C0058F09007A704F0221D
:10BB7D0090051BE0FCA3E0FDA3E0FEA3E02401FF84
:10BB8D00E43EFEE43DFDE43CFC90051B12341790B1
:10BB9D0003CDE054CFF090051BA3A3A3E05401FF08
:10BBAD00E4FEFDFCFBFAF9F8C31233E0700C9005CE
:10BBBD001B12342300000000B2B090074BE030E3BD
:0BBBCD00097480F012866F12E56722F9
:10E32C0012E5439004FDE0FCA3E0FDA3E0FEA3E0B6
:10E33C00FF90051BE0F8A3E0F9A3E0FAA3E0FBC310
:10E34C001233E040169003CDE004F090051B12341C
:0CE35C00230000000012EBC112E7AD220C
:10A4FA0090051BE0FCA3E0FDA3E0FEA3E02401FF1E
:10A50A00E43EFEE43DFDE43CFC90051B123417904A
:10A51A00051BA3A3A3E05401FFE4FEFDFCFBFAF92B
:10A52A00F8C31233E0700EB2B09004F7F0900758F7
:10A53A00F09007A7F0E47F30FEFDFC90051BE0F8E1
:10A54A00A3E0F9A3E0FAA3E0FBC31233E070109092
:10A55A00051B123423000000009003CDE004F02212
:10C3840090051BE0FCA3E0FDA3E0FEA3E02401FF75
:10C39400E43EFEE43DFDE43CFC90051B12341790A2
:10C3A400051BA3A3A3E05401FFE4FEFDFCFBFAF983
:10C3B400F8C31233E0702090051B123423000000F0
:10C3C40000B2B09003CDE004F0E49004F7F09007DD
:08C3D40058F09007A704F022C5
:10BBD80090051BE0FCA3E0FDA3E0FEA3E02401FF29
:10BBE800E43EFEE43DFDE43CFC90051B1234179056
:10BBF80003CDE04410F090051BA3A3A3E05401FF7C
:10BC0800E4FEFDFCFBFAF9F8C31233E0700C900572
:10BC18001B12342300000000B2B090074BE030E361
:0BBC2800097480F012866F12E567229D
:10E3680012E5439004FDE0FCA3E0FDA3E0FEA3E07A
:10E37800FF90051BE0F8A3E0F9A3E0FAA3E0FBC3D4
:10E388001233E040169003CDE004F090051B1234E0
:0CE39800230000000012EBC112E7AD22D0
:10A56A0090051BE0FCA3E0FDA3E0FEA3E02401FFAD
:10A57A00E43EFEE43DFDE43CFC90051B12341790DA
:10A58A00051BA3A3A3E05401FFE4FEFDFCFBFAF9BB
:10A59A00F8C31233E0700EB2B09004F7F090075887
:10A5AA00F09007A7F0E47F30FEFDFC90051BE0F871
:10A5BA00A3E0F9A3E0FAA3E0FBC31233E070109022
:10A5CA00051B123423000000009003CDE004F022A2
:10C3DC0090051BE0FCA3E0FDA3E0FEA3E02401FF1D
:10C3EC00E43EFEE43DFDE43CFC90051B123417904A
:10C3FC00051BA3A3A3E05401FFE4FEFDFCFBFAF92B
:10C40C00F8C31233E0702090051B12342300000097
:10C41C0000B2B09003CDE004F0E49004F7F0900784
:08C42C0058F09007A704F0226C
:10AD6A0090051BE0FCA3E0FDA3E0FEA3E02401FFA5
:10AD7A00E43EFEE43DFDE43CFC90051B12341790D2
:10AD8A0003CDE04410F054F3F090051BA3A3A3E015
:10AD9A005401FFE4FEFDFCFBFAF9F8C31233E0703C
:10ADAA000C90051B12342300000000B2B090074B30
:0EADBA00E030E3097480F012866F12E5672224
:10E3A40012E5439004FDE0FCA3E0FDA3E0FEA3E03E
:10E3B400FF90051BE0F8A3E0F9A3E0FAA3E0FBC398
:10E3C4001233E040169003CDE004F090051B1234A4
:0CE3D400230000000012EBC112E7AD2294
:10A5DA0090051BE0FCA3E0FDA3E0FEA3E02401FF3D
:10A5EA00E43EFEE43DFDE43CFC90051B123417906A
:10A5FA00051BA3A3A3E05401FFE4FEFDFCFBFAF94B
:10A60A00F8C31233E0700EB2B09004F7F090075816
:10A61A00F09007A7F0E47F30FEFDFC90051BE0F800
:10A62A00A3E0F9A3E0FAA3E0FBC31233E0701090B1
:10A63A00051B123423000000009003CDE004F02231
:10C4340090051BE0FCA3E0FDA3E0FEA3E02401FFC4
:10C44400E43EFEE43DFDE43CFC90051B12341790F1
:10C45400051BA3A3A3E05401FFE4FEFDFCFBFAF9D2
:10C46400F8C31233E0702090051B1234230000003F
:10C4740000B2B09003CDE004F0E49004F7F090072C
:08C4840058F09007A704F02214
:10BC330090051BE0FCA3E0FDA3E0FEA3E02401FFCD
:10BC4300E43EFEE43DFDE43CFC90051B12341790FA
:10BC530003CDE04414F090051BA3A3A3E05401FF1C
:10BC6300E4FEFDFCFBFAF9F8C31233E0700C900517
:10BC73001B12342300000000B2B090074BE030E306
:0BBC8300097480F012866F12E5672242
:10E3E00012E5439004FDE0FCA3E0FDA3E0FEA3E002
:10E3F000FF90051BE0F8A3E0F9A3E0FAA3E0FBC35C
:10E400001233E040169003CDE004F090051B123467
:0CE41000230000000012EBC112E7AD2257
:10A64A0090051BE0FCA3E0FDA3E0FEA3E02401FFCC
:10A65A00E43EFEE43DFDE43CFC90051B12341790F9
:10A66A00051BA3A3A3E05401FFE4FEFDFCFBFAF9DA
:10A67A00F8C31233E0700EB2B09004F7F0900758A6
:10A68A00F09007A7F0E47F30FEFDFC90051BE0F890
:10A69A00A3E0F9A3E0FAA3E0FBC31233E070109041
:10A6AA00051B123423000000009003CDE004F022C1
:10C48C0090051BE0FCA3E0FDA3E0FEA3E02401FF6C
:10C49C00E43EFEE43DFDE43CFC90051B1234179099
:10C4AC00051BA3A3A3E05401FFE4FEFDFCFBFAF97A
:10C4BC00F8C31233E0702090051B123423000000E7
:10C4CC0000B2B09003CDE004F0E49004F7F09007D4
:08C4DC0058F09007A704F022BC
:10BC8E0090051BE0FCA3E0FDA3E0FEA3E02401FF72
:10BC9E00E43EFEE43DFDE43CFC90051B123417909F
:10BCAE0003CDE04410F090051BA3A3A3E05401FFC5
:10BCBE00E4FEFDFCFBFAF9F8C31233E0700C9005BC
:10BCCE001B12342300000000B2B090074BE030E3AB
:0BBCDE00097480F012866F12E56722E7
:10E41C0012E5439004FDE0FCA3E0FDA3E0FEA3E0C5
:10E42C00FF90051BE0F8A3E0F9A3E0FAA3E0FBC31F
:10E43C001233E040169003CDE004F090051B12342B
:0CE44C00230000000012EBC112E7AD221B
:10A6BA0090051BE0FCA3E0FDA3E0FEA3E02401FF5C
:10A6CA00E43EFEE43DFDE43CFC90051B1234179089
:10A6DA00051BA3A3A3E05401FFE4FEFDFCFBFAF96A
:10A6EA00F8C31233E0700EB2B09004F7F090075836
:10A6FA00F09007A7F0E47F30FEFDFC90051BE0F820
:10A70A00A3E0F9A3E0FAA3E0FBC31233E0701090D0
:10A71A00051B123423000000009003CDE004F02250
:10C4E40090051BE0FCA3E0FDA3E0FEA3E02401FF14
:10C4F400E43EFEE43DFDE43CFC90051B1234179041
:10C50400051BA3A3A3E05401FFE4FEFDFCFBFAF921
:10C51400F8C31233E0702090051B1234230000008E
:10C5240000B2B09003CDE004F0E49004F7F090077B
:08C5340058F09007A704F02263
:10CCB80090051BE0FCA3E0FDA3E0FEA3E02401FF38
:10CCC800E43EFEE43DFDE43CFC90051B1234179065
:10CCD800051BA3A3A3E05401FFE4FEFDFCFBFAF946
:10CCE800F8C31233E0700C90051B123423000000C7
:10CCF80000B2B090074BE030E3097480F012866F01
:04CD080012E56722A7
:10E4580012E5439004FDE0FCA3E0FDA3E0FEA3E089
:10E46800FF90051BE0F8A3E0F9A3E0FAA3E0FBC3E3
:10E478001233E040169003CDE004F090051B1234EF
:0CE48800230000000012EBC112E7AD22DF
:10A72A0090051BE0FCA3E0FDA3E0FEA3E02401FFEB
:10A73A00E43EFEE43DFDE43CFC90051B1234179018
:10A74A00051BA3A3A3E05401FFE4FEFDFCFBFAF9F9
:10A75A00F8C31233E0700EB2B09004F7F0900758C5
:10A76A00F09007A7F0E47F30FEFDFC90051BE0F8AF
:10A77A00A3E0F9A3E0FAA3E0FBC31233E070109060
:10A78A00051B123423000000009003CDE004F022E0
:10C53C0090051BE0FCA3E0FDA3E0FEA3E02401FFBB
:10C54C00E43EFEE43DFDE43CFC90051B12341790E8
:10C55C00051BA3A3A3E05401FFE4FEFDFCFBFAF9C9
:10C56C00F8C31233E0702090051B12342300000036
:10C57C0000B2B09003CDE004F0E49004F7F0900723
:08C58C0058F09007A704F0220B
:10BCE90090051BE0FCA3E0FDA3E0FEA3E02401FF17
:10BCF900E43EFEE43DFDE43CFC90051B1234179044
:10BD090003CDE054F3F090051BA3A3A3E05401FF76
:10BD1900E4FEFDFCFBFAF9F8C31233E0700C900560
:10BD29001B12342300000000B2B090074BE030E34F
:0BBD3900097480F012866F12E567228B
:10E4940012E5439004FDE0FCA3E0FDA3E0FEA3E04D
:10E4A400FF90051BE0F8A3E0F9A3E0FAA3E0FBC3A7
:10E4B4001233E040169003CDE004F090051B1234B3
:0CE4C400230000000012EBC112E7AD22A3
:10A79A0090051BE0FCA3E0FDA3E0FEA3E02401FF7B
:10A7AA00E43EFEE43DFDE43CFC90051B12341790A8
:10A7BA00051BA3A3A3E05401FFE4FEFDFCFBFAF989
:10A7CA00F8C31233E0700EB2B09004F7F090075855
:10A7DA00F09007A7F0E47F30FEFDFC90051BE0F83F
:10A7EA00A3E0F9A3E0FAA3E0FBC31233E0701090F0
:10A7FA00051B123423000000009003CDE004F02270
:10C5940090051BE0FCA3E0FDA3E0FEA3E02401FF63
:10C5A400E43EFEE43DFDE43CFC90051B1234179090
:10C5B400051BA3A3A3E05401FFE4FEFDFCFBFAF971
:10C5C400F8C31233E0702090051B123423000000DE
:10C5D40000B2B09003CDE004F0E49004F7F09007CB
:08C5E40058F09007A704F022B3
:10BD440090051BE0FCA3E0FDA3E0FEA3E02401FFBB
:10BD5400E43EFEE43DFDE43CFC90051B12341790E8
:10BD640003CDE04404F090051BA3A3A3E05401FF1A
:10BD7400E4FEFDFCFBFAF9F8C31233E0700C900505
:10BD84001B12342300000000B2B090074BE030E3F4
:0BBD9400097480F012866F12E5672230
:10E4D00012E5439004FDE0FCA3E0FDA3E0FEA3E011
:10E4E000FF90051BE0F8A3E0F9A3E0FAA3E0FBC36B
:10E4F0001233E040169003CDE004F090051B123477
:0CE50000230000000012EBC112E7AD2266
:10A80A0090051BE0FCA3E0FDA3E0FEA3E02401FF0A
:10A81A00E43EFEE43DFDE43CFC90051B1234179037
:10A82A00051BA3A3A3E05401FFE4FEFDFCFBFAF918
:10A83A00F8C31233E0700EB2B09004F7F0900758E4
:10A84A00F09007A7F0E47F30FEFDFC90051BE0F8CE
:10A85A00A3E0F9A3E0FAA3E0FBC31233E07010907F
:10A86A00051B123423000000009003CDE004F022FF
:10C5EC0090051BE0FCA3E0FDA3E0FEA3E02401FF0B
:10C5FC00E43EFEE43DFDE43CFC90051B1234179038
:10C60C00051BA3A3A3E05401FFE4FEFDFCFBFAF918
:10C61C00F8C31233E0702090051B12342300000085
:10C62C0000B2B09003CDE004F0E49004F7F0900772
:08C63C0058F09007A704F0225A
:10CD0C0090051BE0FCA3E0FDA3E0FEA3E02401FFE3
:10CD1C00E43EFEE43DFDE43CFC90051B1234179010
:10CD2C00051BA3A3A3E05401FFE4FEFDFCFBFAF9F1
:10CD3C00F8C31233E0700C90051B12342300000072
:10CD4C0000B2B090074BE030E3097480F012866FAC
:04CD5C0012E5672253
:10AE260090051BE0FCA3E0FDA3E0FEA3E02401FFE8
:10AE3600E43EFEE43DFDE43CFC90051B1234179015
:10AE4600051BA3A3A3E05401FFE4FEFDFCFBFAF9F6
:10AE5600F8C31233E0702590051B1234230000005E
:10AE6600009007CDE030E70512E567800312E89B06
:0DAE76001258849003CDE054FC4402F022F9
:10B3F60090051BE0FCA3E0FDA3E0FEA3E02401FF13
:10B40600E43EFEE43DFDE43CFC90051B123417903F
:10B41600051BA3A3A3E05401FFE4FEFDFCFBFAF920
:10B42600F8C31233E0702490051B12342300000089
:10B43600009007CDE030E70512E567800312E89B30
:0CB44600B2B09003CDE054FC4401F022B1
:10765C009004F8E0FCA3E0FDA3E0FEA3E0FF90059E
:10766C001BE0F8A3E0F9A3E0FAA3E0FBC31233E0BC
:10767C007065900511E0FCA3E0FDA3E0FEA3E0FF24
:10768C00EC4D4E4F6049900511A3A3A3E024FFFFDE
:10769C00EE34FFFEED34FFFDEC34FFFC90051112CF
:1076AC003417900511A3A3A3E05401FFE4FEFDFCE5
:1076BC00FBFAF9F8C31233E0600302775C9007CD54
:1076CC00E030E70512E567800312E89BB2B0229028
:1076DC0003CDE054FCF02290051BE0FCA3E0FDA3DD
:1076EC00E0FEA3E02401FFE43EFEE43DFDE43CFCAF
:1076FC0090051B12341790051BA3A3A3E05401FFA4
:10770C00E4FEFDFCFBFAF9F8C31233E070119007AC
:10771C00CDE030E70512E567800312E89BB2B0902C
:10772C00051BA3A3A3E0543FFFE4FEFDFCFBFAF909
:10773C00F8C31233E07019900736E0D3940550105B
:10774C0090074BE020E709125891900736E004F0BF
:01775C00220A
:10D6590090051B1234230000000012E88DE49007A6
:10D669004BF0900758F090051FF09003CEF090070B
:10D67900BFF09004F7F09003E3F0900722F09003D5
:10D68900D5F0A3F09005111234230000000012DE3A
:0DD69900E7900744E06005E4F012E7662228
:10AE830090051BE0FCA3E0FDA3E0FEA3E02401FF8B
:10AE9300E43EFEE43DFDE43CFC90051B12341790B8
:10AEA300051BA3A3A3E05401FFE4FEFDFCFBFAF999
:10AEB300F8C31233E0702590051B12342300000001
:10AEC300009007CDE030E70512E567800312E89BA9
:0DAED3001258849003CDE054FC4402F0229C
:10B4520090051BE0FCA3E0FDA3E0FEA3E02401FFB6
:10B46200E43EFEE43DFDE43CFC90051B12341790E3
:10B47200051BA3A3A3E05401FFE4FEFDFCFBFAF9C4
:10B48200F8C31233E0702490051B1234230000002D
:10B49200009007CDE030E70512E567800312E89BD4
:0CB4A200B2B09003CDE054FC4401F02255
:10775D009004F8E0FCA3E0FDA3E0FEA3E0FF90059C
:10776D001BE0F8A3E0F9A3E0FAA3E0FBC31233E0BA
:10777D007065900511E0FCA3E0FDA3E0FEA3E0FF22
:10778D00EC4D4E4F6049900511A3A3A3E024FFFFDC
:10779D00EE34FFFEED34FFFDEC34FFFC90051112CD
:1077AD003417900511A3A3A3E05401FFE4FEFDFCE3
:1077BD00FBFAF9F8C31233E0600302785D9007CD50
:1077CD00E030E70512E567800312E89BB2B0229026
:1077DD0003CDE054FCF02290051BE0FCA3E0FDA3DB
:1077ED00E0FEA3E02401FFE43EFEE43DFDE43CFCAD
:1077FD0090051B12341790051BA3A3A3E05401FFA2
:10780D00E4FEFDFCFBFAF9F8C31233E070119007AA
:10781D00CDE030E70512E567800312E89BB2B0902A
:10782D00051BA3A3A3E0543FFFE4FEFDFCFBFAF907
:10783D00F8C31233E07019900736E0D39405501059
:10784D0090074BE020E709125891900736E004F0BD
:01785D002208
:10DA7D0090051B123423000000009003CDE04440BC
:10DA8D00F054F012E893E490074BF0900758F090A3
:10DA9D00051FF09003CEF09007BFF09004F7F090C3
:10DAAD0003E3F0900722F09003D5F0A3F090051159
:0ADABD001234230000000002DEE72F
:10AEE00090051BE0FCA3E0FDA3E0FEA3E02401FF2E
:10AEF000E43EFEE43DFDE43CFC90051B123417905B
:10AF0000051BA3A3A3E05401FFE4FEFDFCFBFAF93B
:10AF1000F8C31233E0702590051B123423000000A3
:10AF2000009007CDE030E70512E567800312E89B4B
:0DAF30001258849003CDE054FC4402F0223E
:10B4AE0090051BE0FCA3E0FDA3E0FEA3E02401FF5A
:10B4BE00E43EFEE43DFDE43CFC90051B1234179087
:10B4CE00051BA3A3A3E05401FFE4FEFDFCFBFAF968
:10B4DE00F8C31233E0702490051B123423000000D1
:10B4EE00009007CDE030E70512E567800312E89B78
:0CB4FE00B2B09003CDE054FC4401F022F9
:10785E009004F8E0FCA3E0FDA3E0FEA3E0FF90059A
:10786E001BE0F8A3E0F9A3E0FAA3E0FBC31233E0B8
:10787E007065900511E0FCA3E0FDA3E0FEA3E0FF20
:10788E00EC4D4E4F6049900511A3A3A3E024FFFFDA
:10789E00EE34FFFEED34FFFDEC34FFFC90051112CB
:1078AE003417900511A3A3A3E05401FFE4FEFDFCE1
:1078BE00FBFAF9F8C31233E0600302795E9007CD4C
:1078CE00E030E70512E567800312E89BB2B0229024
:1078DE0003CDE054FCF02290051BE0FCA3E0FDA3D9
:1078EE00E0FEA3E02401FFE43EFEE43DFDE43CFCAB
:1078FE0090051B12341790051BA3A3A3E05401FFA0
:10790E00E4FEFDFCFBFAF9F8C31233E070119007A8
:10791E00CDE030E70512E567800312E89BB2B09028
:10792E00051BA3A3A3E0543FFFE4FEFDFCFBFAF905
:10793E00F8C31233E07019900736E0D39405501057
:10794E0090074BE020E709125891900736E004F0BB
:01795E002206
:10DC7F0090051B123423000000009003CDE04444B4
:10DC8F0012E893E490074BF0900758F090051FF0BF
:10DC9F009003CEF09007BFF09004F7F09003E3F0FD
:10DCAF00900722F09003D5F0A3F0900511123423C2
:07DCBF000000000002DEE797
:10AF3D0090051BE0FCA3E0FDA3E0FEA3E02401FFD0
:10AF4D00E43EFEE43DFDE43CFC90051B12341790FD
:10AF5D00051BA3A3A3E05401FFE4FEFDFCFBFAF9DE
:10AF6D00F8C31233E0702590051B12342300000046
:10AF7D00009007CDE030E70512E567800312E89BEE
:0DAF8D001258849003CDE054FC4402F022E1
:10B50A0090051BE0FCA3E0FDA3E0FEA3E02401FFFD
:10B51A00E43EFEE43DFDE43CFC90051B123417902A
:10B52A00051BA3A3A3E05401FFE4FEFDFCFBFAF90B
:10B53A00F8C31233E0702490051B12342300000074
:10B54A00009007CDE030E70512E567800312E89B1B
:0CB55A00B2B09003CDE054FC4401F0229C
:10795F009004F8E0FCA3E0FDA3E0FEA3E0FF900598
:10796F001BE0F8A3E0F9A3E0FAA3E0FBC31233E0B6
:10797F007065900511E0FCA3E0FDA3E0FEA3E0FF1E
:10798F00EC4D4E4F6049900511A3A3A3E024FFFFD8
:10799F00EE34FFFEED34FFFDEC34FFFC90051112C9
:1079AF003417900511A3A3A3E05401FFE4FEFDFCDF
:1079BF00FBFAF9F8C31233E06003027A5F9007CD48
:1079CF00E030E70512E567800312E89BB2B0229022
:1079DF0003CDE054FCF02290051BE0FCA3E0FDA3D7
:1079EF00E0FEA3E02401FFE43EFEE43DFDE43CFCA9
:1079FF0090051B12341790051BA3A3A3E05401FF9E
:107A0F00E4FEFDFCFBFAF9F8C31233E070119007A6
:107A1F00CDE030E70512E567800312E89BB2B09026
:107A2F00051BA3A3A3E0543FFFE4FEFDFCFBFAF903
:107A3F00F8C31233E07019900736E0D39405501055
:107A4F0090074BE020E709125891900736E004F0B9
:017A5F002204
:10DE240090051B1234230000000012E88DE49007D3
:10DE34004BF0900758F090051FF09003CEF0900738
:10DE4400BFF09004F7F09003E3F0900722F0900302
:10DE5400D5F0A3F09005111234230000000002DE77
:01DE6400E7D6
:10AF9A0090051BE0FCA3E0FDA3E0FEA3E02401FF73
:10AFAA00E43EFEE43DFDE43CFC90051B12341790A0
:10AFBA00051BA3A3A3E05401FFE4FEFDFCFBFAF981
:10AFCA00F8C31233E0702590051B123423000000E9
:10AFDA00009007CDE030E70512E567800312E89B91
:0DAFEA001258849003CDE054FC4402F02284
:10B5660090051BE0FCA3E0FDA3E0FEA3E02401FFA1
:10B57600E43EFEE43DFDE43CFC90051B12341790CE
:10B58600051BA3A3A3E05401FFE4FEFDFCFBFAF9AF
:10B59600F8C31233E0702490051B12342300000018
:10B5A600009007CDE030E70512E567800312E89BBF
:0CB5B600B2B09003CDE054FC4401F02240
:107A60009004F8E0FCA3E0FDA3E0FEA3E0FF900596
:107A70001BE0F8A3E0F9A3E0FAA3E0FBC31233E0B4
:107A80007065900511E0FCA3E0FDA3E0FEA3E0FF1C
:107A9000EC4D4E4F6049900511A3A3A3E024FFFFD6
:107AA000EE34FFFEED34FFFDEC34FFFC90051112C7
:107AB0003417900511A3A3A3E05401FFE4FEFDFCDD
:107AC000FBFAF9F8C31233E06003027B609007CD44
:107AD000E030E70512E567800312E89BB2B0229020
:107AE00003CDE054FCF02290051BE0FCA3E0FDA3D5
:107AF000E0FEA3E02401FFE43EFEE43DFDE43CFCA7
:107B000090051B12341790051BA3A3A3E05401FF9B
:107B1000E4FEFDFCFBFAF9F8C31233E070119007A4
:107B2000CDE030E70512E567800312E89BB2B09024
:107B3000051BA3A3A3E0543FFFE4FEFDFCFBFAF901
:107B4000F8C31233E07019900736E0D39405501053
:107B500090074BE020E709125891900736E004F0B7
:017B60002202
:10DAC70090051B123423000000009003CDE0444072
:10DAD700F054C012E893E490074BF0900758F09089
:10DAE700051FF09003CEF09007BFF09004F7F09079
:10DAF70003E3F0900722F09003D5F0A3F09005110F
:0ADB07001234230000000002DEE7E4
:10AFF70090051BE0FCA3E0FDA3E0FEA3E02401FF16
:10B00700E43EFEE43DFDE43CFC90051B1234179042
:10B01700051BA3A3A3E05401FFE4FEFDFCFBFAF923
:10B02700F8C31233E0702590051B1234230000008B
:10B03700009007CDE030E70512E567800312E89B33
:0DB047001258849003CDE054FC4402F02226
:10B5C20090051BE0FCA3E0FDA3E0FEA3E02401FF45
:10B5D200E43EFEE43DFDE43CFC90051B1234179072
:10B5E200051BA3A3A3E05401FFE4FEFDFCFBFAF953
:10B5F200F8C31233E0702490051B123423000000BC
:10B60200009007CDE030E70512E567800312E89B62
:0CB61200B2B09003CDE054FC4401F022E3
:107B61009004F8E0FCA3E0FDA3E0FEA3E0FF900594
:107B71001BE0F8A3E0F9A3E0FAA3E0FBC31233E0B2
:107B81007065900511E0FCA3E0FDA3E0FEA3E0FF1A
:107B9100EC4D4E4F6049900511A3A3A3E024FFFFD4
:107BA100EE34FFFEED34FFFDEC34FFFC90051112C5
:107BB1003417900511A3A3A3E05401FFE4FEFDFCDB
:107BC100FBFAF9F8C31233E06003027C619007CD40
:107BD100E030E70512E567800312E89BB2B022901E
:107BE10003CDE054FCF02290051BE0FCA3E0FDA3D3
:107BF100E0FEA3E02401FFE43EFEE43DFDE43CFCA5
:107C010090051B12341790051BA3A3A3E05401FF99
:107C1100E4FEFDFCFBFAF9F8C31233E070119007A2
:107C2100CDE030E70512E567800312E89BB2B09022
:107C3100051BA3A3A3E0543FFFE4FEFDFCFBFAF9FF
:107C4100F8C31233E07019900736E0D39405501051
:107C510090074BE020E709125891900736E004F0B5
:017C61002200
:10DB110090051B123423000000009003CDE0444027
:10DB2100F054C012E893E490074BF0900758F0903E
:10DB3100051FF09003CEF09007BFF09004F7F0902E
:10DB410003E3F0900722F09003D5F0A3F0900511C4
:0ADB51001234230000000002DEE79A
:10B0540090051BE0FCA3E0FDA3E0FEA3E02401FFB8
:10B06400E43EFEE43DFDE43CFC90051B12341790E5
:10B07400051BA3A3A3E05401FFE4FEFDFCFBFAF9C6
:10B08400F8C31233E0702590051B1234230000002E
:10B09400009007CDE030E70512E567800312E89BD6
:0DB0A4001258849003CDE054FC4402F022C9
:10B61E0090051BE0FCA3E0FDA3E0FEA3E02401FFE8
:10B62E00E43EFEE43DFDE43CFC90051B1234179015
:10B63E00051BA3A3A3E05401FFE4FEFDFCFBFAF9F6
:10B64E00F8C31233E0702490051B1234230000005F
:10B65E00009007CDE030E70512E567800312E89B06
:0CB66E00B2B09003CDE054FC4401F02287
:107C62009004F8E0FCA3E0FDA3E0FEA3E0FF900592
:107C72001BE0F8A3E0F9A3E0FAA3E0FBC31233E0B0
:107C82007065900511E0FCA3E0FDA3E0FEA3E0FF18
:107C9200EC4D4E4F6049900511A3A3A3E024FFFFD2
:107CA200EE34FFFEED34FFFDEC34FFFC90051112C3
:107CB2003417900511A3A3A3E05401FFE4FEFDFCD9
:107CC200FBFAF9F8C31233E06003027D629007CD3C
:107CD200E030E70512E567800312E89BB2B022901C
:107CE20003CDE054FCF02290051BE0FCA3E0FDA3D1
:107CF200E0FEA3E02401FFE43EFEE43DFDE43CFCA3
:107D020090051B12341790051BA3A3A3E05401FF97
:107D1200E4FEFDFCFBFAF9F8C31233E070119007A0
:107D2200CDE030E70512E567800312E89BB2B09020
:107D3200051BA3A3A3E0543FFFE4FEFDFCFBFAF9FD
:107D4200F8C31233E07019900736E0D3940550104F
:107D520090074BE020E709125891900736E004F0B3
:017D620022FE
:10ADC80090051B123423000000009003CDE044449A
:10ADD800F054CCF0E49007A7F0C2B09007CDE03073
:10ADE800E70512E567800312E89BE490074BF090B3
:10ADF8000758F090051FF09003CEF09007BFF09031
:10AE080004F7F09003E3F0900722F09003D5F0A345
:0EAE1800F09005111234230000000002DEE766
:10B0B10090051BE0FCA3E0FDA3E0FEA3E02401FF5B
:10B0C100E43EFEE43DFDE43CFC90051B1234179088
:10B0D100051BA3A3A3E05401FFE4FEFDFCFBFAF969
:10B0E100F8C31233E0702590051B123423000000D1
:10B0F100009007CDE030E70512E567800312E89B79
:0DB101001258849003CDE054FC4402F0226B
:10B67A0090051BE0FCA3E0FDA3E0FEA3E02401FF8C
:10B68A00E43EFEE43DFDE43CFC90051B12341790B9
:10B69A00051BA3A3A3E05401FFE4FEFDFCFBFAF99A
:10B6AA00F8C31233E0702490051B12342300000003
:10B6BA00009007CDE030E70512E567800312E89BAA
:0CB6CA00B2B09003CDE054FC4401F0222B
:107D63009004F8E0FCA3E0FDA3E0FEA3E0FF900590
:107D73001BE0F8A3E0F9A3E0FAA3E0FBC31233E0AE
:107D83007065900511E0FCA3E0FDA3E0FEA3E0FF16
:107D9300EC4D4E4F6049900511A3A3A3E024FFFFD0
:107DA300EE34FFFEED34FFFDEC34FFFC90051112C1
:107DB3003417900511A3A3A3E05401FFE4FEFDFCD7
:107DC300FBFAF9F8C31233E06003027E639007CD38
:107DD300E030E70512E567800312E89BB2B022901A
:107DE30003CDE054FCF02290051BE0FCA3E0FDA3CF
:107DF300E0FEA3E02401FFE43EFEE43DFDE43CFCA1
:107E030090051B12341790051BA3A3A3E05401FF95
:107E1300E4FEFDFCFBFAF9F8C31233E0701190079E
:107E2300CDE030E70512E567800312E89BB2B0901E
:107E3300051BA3A3A3E0543FFFE4FEFDFCFBFAF9FB
:107E4300F8C31233E07019900736E0D3940550104D
:107E530090074BE020E709125891900736E004F0B1
:017E630022FC
:10DB5B0090051B123423000000009003CDE04440DD
:10DB6B00F054CC12E893E490074BF0900758F090E8
:10DB7B00051FF09003CEF09007BFF09004F7F090E4
:10DB8B0003E3F0900722F09003D5F0A3F09005117A
:0ADB9B001234230000000002DEE750
:10B10E0090051BE0FCA3E0FDA3E0FEA3E02401FFFD
:10B11E00E43EFEE43DFDE43CFC90051B123417902A
:10B12E00051BA3A3A3E05401FFE4FEFDFCFBFAF90B
:10B13E00F8C31233E0702590051B12342300000073
:10B14E00009007CDE030E70512E567800312E89B1B
:0DB15E001258849003CDE054FC4402F0220E
:10B6D60090051BE0FCA3E0FDA3E0FEA3E02401FF30
:10B6E600E43EFEE43DFDE43CFC90051B123417905D
:10B6F600051BA3A3A3E05401FFE4FEFDFCFBFAF93E
:10B70600F8C31233E0702490051B123423000000A6
:10B71600009007CDE030E70512E567800312E89B4D
:0CB72600B2B09003CDE054FC4401F022CE
:107E64009004F8E0FCA3E0FDA3E0FEA3E0FF90058E
:107E74001BE0F8A3E0F9A3E0FAA3E0FBC31233E0AC
:107E84007065900511E0FCA3E0FDA3E0FEA3E0FF14
:107E9400EC4D4E4F6049900511A3A3A3E024FFFFCE
:107EA400EE34FFFEED34FFFDEC34FFFC90051112BF
:107EB4003417900511A3A3A3E05401FFE4FEFDFCD5
:107EC400FBFAF9F8C31233E06003027F649007CD34
:107ED400E030E70512E567800312E89BB2B0229018
:107EE40003CDE054FCF02290051BE0FCA3E0FDA3CD
:107EF400E0FEA3E02401FFE43EFEE43DFDE43CFC9F
:107F040090051B12341790051BA3A3A3E05401FF93
:107F1400E4FEFDFCFBFAF9F8C31233E0701190079C
:107F2400CDE030E70512E567800312E89BB2B0901C
:107F3400051BA3A3A3E0543FFFE4FEFDFCFBFAF9F9
:107F4400F8C31233E07019900736E0D3940550104B
:107F540090074BE020E709125891900736E004F0AF
:017F640022FA
:10DD540090051B123423000000009003CD74501270
:10DD6400E893E490074BF0900758F090051FF0906B
:10DD740003CEF09007BFF09004F7F09003E3F09027
:10DD84000722F09003D5F0A3F0900511123423007C
:06DD940000000002DEE7C2
:10B16B0090051BE0FCA3E0FDA3E0FEA3E02401FFA0
:10B17B00E43EFEE43DFDE43CFC90051B12341790CD
:10B18B00051BA3A3A3E05401FFE4FEFDFCFBFAF9AE
:10B19B00F8C31233E0702590051B12342300000016
:10B1AB00009007CDE030E70512E567800312E89BBE
:0DB1BB001258849003CDE054FC4402F022B1
:10B7320090051BE0FCA3E0FDA3E0FEA3E02401FFD3
:10B74200E43EFEE43DFDE43CFC90051B1234179000
:10B75200051BA3A3A3E05401FFE4FEFDFCFBFAF9E1
:10B76200F8C31233E0702490051B1234230000004A
:10B77200009007CDE030E70512E567800312E89BF1
:0CB78200B2B09003CDE054FC4401F02272
:107F65009004F8E0FCA3E0FDA3E0FEA3E0FF90058C
:107F75001BE0F8A3E0F9A3E0FAA3E0FBC31233E0AA
:107F85007065900511E0FCA3E0FDA3E0FEA3E0FF12
:107F9500EC4D4E4F6049900511A3A3A3E024FFFFCC
:107FA500EE34FFFEED34FFFDEC34FFFC90051112BD
:107FB5003417900511A3A3A3E05401FFE4FEFDFCD3
:107FC500FBFAF9F8C31233E060030280659007CD30
:107FD500E030E70512E567800312E89BB2B0229016
:107FE50003CDE054FCF02290051BE0FCA3E0FDA3CB
:107FF500E0FEA3E02401FFE43EFEE43DFDE43CFC9D
:1080050090051B12341790051BA3A3A3E05401FF91
:10801500E4FEFDFCFBFAF9F8C31233E0701190079A
:10802500CDE030E70512E567800312E89BB2B0901A
:10803500051BA3A3A3E0543FFFE4FEFDFCFBFAF9F7
:10804500F8C31233E07019900736E0D39405501049
:1080550090074BE020E709125891900736E004F0AD
:0180650022F8
:10DBEF0090051B123423000000009003CD7450F0F9
:10DBFF0054F012E893E490074BF0900758F090051B
:10DC0F001FF09003CEF09007BFF09004F7F0900351
:10DC1F00E3F0900722F09003D5F0A3F090051112D6
:09DC2F0034230000000002DEE7CE
:10B1C80090051BE0FCA3E0FDA3E0FEA3E02401FF43
:10B1D800E43EFEE43DFDE43CFC90051B1234179070
:10B1E800051BA3A3A3E05401FFE4FEFDFCFBFAF951
:10B1F800F8C31233E0702590051B123423000000B9
:10B20800009007CDE030E70512E567800312E89B60
:0DB218001258849003CDE054FC4402F02253
:10B78E0090051BE0FCA3E0FDA3E0FEA3E02401FF77
:10B79E00E43EFEE43DFDE43CFC90051B12341790A4
:10B7AE00051BA3A3A3E05401FFE4FEFDFCFBFAF985
:10B7BE00F8C31233E0702490051B123423000000EE
:10B7CE00009007CDE030E70512E567800312E89B95
:0CB7DE00B2B09003CDE054FC4401F02216
:108066009004F8E0FCA3E0FDA3E0FEA3E0FF90058A
:108076001BE0F8A3E0F9A3E0FAA3E0FBC31233E0A8
:108086007065900511E0FCA3E0FDA3E0FEA3E0FF10
:10809600EC4D4E4F6049900511A3A3A3E024FFFFCA
:1080A600EE34FFFEED34FFFDEC34FFFC90051112BB
:1080B6003417900511A3A3A3E05401FFE4FEFDFCD1
:1080C600FBFAF9F8C31233E060030281669007CD2C
:1080D600E030E70512E567800312E89BB2B0229014
:1080E60003CDE054FCF02290051BE0FCA3E0FDA3C9
:1080F600E0FEA3E02401FFE43EFEE43DFDE43CFC9B
:1081060090051B12341790051BA3A3A3E05401FF8F
:10811600E4FEFDFCFBFAF9F8C31233E07011900798
:10812600CDE030E70512E567800312E89BB2B09018
:10813600051BA3A3A3E0543FFFE4FEFDFCFBFAF9F5
:10814600F8C31233E07019900736E0D39405501047
:1081560090074BE020E709125891900736E004F0AB
:0181660022F6
:10DCC60090051B123423000000009003CDE044545D
