:02E4D3002086A1
:02E4D50026F42B
:02E4D700CD2C4A
:02E4DB006005DA
:02E4DF00E364F4
:02E4E10052E007
:02E4E30099009E
:02E4E50097920C
:02E4E700980C8F
:02E4E900988613
:02E4EB00968F0A
:02E4ED00BBFB77
:02E4EF00BA373A
:02E4F100BA92DD
:032000000296093C
:0696090075815102964A32
:10E82F006D4456524D432D30302D52442D342E36DB
:102D3F004908D65500000000000000004108FA00C5
:102D4F004108FB004108920041083B004503D54074
:102D5F00A0E6CCB24408EB000000004103CF0041D5
:102D6F00081F004208E4000041081B034108213BF3
:102D7F004108230141082628410829004208F6008E
:102D8F00004103CB004108F5004108E2004108F47F
:102D9F00004108E1004108E3004104E70042082C2C
:102DAF000000440888000000004106100041082E72
:102DBF0041410825004108D311410881014105F423
:102DCF0024410880094108F0074108E000410885C7
:102DDF00004103CC0041082F00410904FF410905C0
:102DEF003F410901FE410903FFC10160C30000FF1C
:102DFF009715FF91DFFF91DFFF91DFFF5D45FF5ECD
:102E0F00A5FF44E8FF4A8EFF3B42FFCDCCFF9978E8
:102E1F00FF5798FF4052FF91DFFF91DFFF91DFFFD8
:102E2F005610FF31D4FF8474FF5A78FF91DFFF9162
:102E3F00DFFFC9FAFFE293FF6A56FF6414FF616474
:102E4F00FF62BCFF9C2FFF5BDFFF862EFF91DFFF32
:102E5F0091DFFF6CB0FF6DD7FF6EFEFF7024FF4C4C
:102E6F003DFF4F96FF42AAFF714AFF6B84FF6561DA
:102E7F00FF67E2FF6922FF547BFF4DEAFF513DFFE1
:102E8F0091DFFF91DFFF91DFFF91DFFF91DFFF9177
:102E9F00DFFF91DFFF91DFFF91DFFF91DFFF91DF19
:102EAF00FF91DFFF91DFFF3DE5FF46E3FF48BDFFE9
:102EBF0091DFC100630000C4FFE512FFEA19FFEACA
:102ECF001FFFEA25FFE632FF9D10FFBC54FFCE1A0D
:102EDF00FFCA4DFF8703FFC5F4FFCE68FFE99EFFD2
:102EEF00E9CAFFE9D2FFE9DAFFE64DFF9D80FFBC9B
:102EFF00ACFFCEB6FFE668FF9DF0FFBD04FFCB46EB
:102F0F00FFE2EBFF9AD6FFA946FFBAEDFFE683FF7C
:102F1F009E60FFBB47FFCAA0FFC6A2FF87CBFFC6BD
:102F2F004BFFCF04FFCFA0FF8893FFC6F9FFCF520F
:102F3F00FFD514FF895BFFD2ACFFCFEEFFD55FFF4C
:102F4F008A23FFD2F9FFB64EFFE9A9FFE9E2FFE9B5
:102F5F00EAFFE9F2FFE69EFF9ED0FFBD5CFFCB9735
:102F6F00FFD5AAFF8AEBFFC750FFD03CFF200EFF13
:102F7F00E9FAFFEA02FFEA0AFFDBDCFF9F40FFBD31
:102F8F00B4FFC8AAFFDC18FF9FB0FFBE0CFFB6A9A5
:102F9F00FFDC54FFA020FFBE64FFB704FFDC90FFEF
:102FAF00A090FFBEBCFFC8FEFFDCCCFFA100FFBF9F
:102FBF0014FFB75FFFDD08FFA170FFBF6CFFB7BA4B
:102FCF00FFDD44FFA1E0FFBFC4FFA9A4FFDD80FF29
:102FDF00A250FFC01CFFB815FFDDBCFFA2C0FFC091
:102FEF0074FFB870FFDDF8FFA330FFC0CCFFAA025B
:102FFF00FFDE34FFA3A0FFC124FFB8CBFFDE70FFBD
:10300F00A410FFC17CFFB926FFDEACFFA480FFC177
:10301F00D4FFC952FFDEE8FFA4F0FFC22CFFB98135
:10302F00FFDF24FFA560FFC284FFB9DCFFDF60FF75
:10303F00A5D0FFC2DCFFC9A6FFD346FF7376FFB052
:10304F008EFFAABEFFD76CFF7477FFB0EAFFAB1BF2
:10305F00FFD9B8FF7578FFB146FFAB78FFDB19FFDB
:10306F007679FFB1A2FFABD5FFD7B6FF777AFFB165
:10307F00FEFFAC32FFD800FF787BFFB25AFFAC8F58
:10308F00FFAA60FF797CFFB2B6FFACECFFD84AFF16
:10309F007A7DFFB312FFAD49FFDA8DFF7B7EFFB361
:1030AF006EFFADA6FFD928FF7C7FFFB3CAFFAE032B
:1030BF00FFD9FFFF7D80FFB426FFAE60FFDAD3FF9D
:1030CF007E81FFB482FFAEBDFFDB5AFF7F82FFB46C
:1030DF00DEFFAF1AFFD894FF8083FFB53AFFAF77BB
:1030EF00FFDA46FF8184FFB596FFAFD4FFDB9BFF6E
:1030FF008285FFB5F2FFB031FFE9B4FFE7B8FFE714
:10310F00CAFFE7DCFFE6B9FFA640FFC334FFCBE8F9
:10311F00FFD5F5FF8BB3FFC7A7FFD08AFF2026FF90
:10312F00E56EFFE58AFFE5A6FFE6D4FFA6B0FFC375
:10313F008CFFCC39FFE6EFFFA720FFC3E4FFC43CB1
:10314F00FFE70AFFA790FFC494FFC4ECFFE725FF3A
:10315F00A800FFC544FFCC8AFFD640FF8C7BFFD36E
:10316F0093FFD0D8FFD174FF8D43FFD3E0FFD1265B
:10317F00FFD68BFF8E0BFFD42DFFD1C2FFD6D6FF0C
:10318F008ED3FFD47AFFD210FFE7A3FFE5C2FFE58E
:10319F00DEFFE5FAFFE740FFA870FFC59CFFCCDB21
:1031AF00FFD721FF8F9BFFC7FEFFD25EFFE531FFE9
:1031BF00E3D9FFE3FFFFE4254303C400000043030B
:0431CF00C700200015
:1020860053D9BFE49008F8F0A3F09008E6123AD9C5
:1020960000000000C298C299C2ACC28E12E2C01201
:1020A600E4B312E4F375C7FFD294D295D296D293D5
:1020B600D297D2A7E49008E0F090081CF09005EFC4
:1020C600F09003DBF0900820F09004E8F09003D243
:1020D600F090081574FFF09003E074E4F0E49008C3
:1020E600F5F090082CF0A3F090088CF09008881278
:1020F6003AD900000000E49008DFF0E5B05480FF14
:10210600E5A0543F4FFFE5C75408FE33333354F878
:102116004F9008F3F0900833E4F0A3741FF0A3E4A3
:10212600F0A3741FF0900838E4F0A3741FF0900831
:102136007BE4F0A3741FF090087EE4F0A3741FF014
:102146009005FEE4F0A3741FF0900601E4F0A3747A
:102156001FF0A3E4F0A3741FF090060CE4F0A37440
:102166001FF0A3E4F0A3741FF0E4900884F0900538
:10217600F9F09005F0123AD9000007449005F512DF
:102186003AD90000026C900608123AD90000000005
:102196009004EAE4F0A374BAF0E4900883F09003A4
:1021A600D3F0A3F0900818F09008877480F090069A
:1021B60000F09008227408F09003DDF0E49003CA62
:1021C600F090088FF012E3149004E7E0B4550690FF
:1021D60008E3E08001E49005EEF0E490087DF090DD
:1021E60005FA123AD9000367E0900A1C74C7F07F1B
:1021F600007E007D007C00129CA09008E6123AD971
:1022060000000000E4FF7E10FDFC9008E6E0F8A365
:10221600E0F9A3E0FAA3E0FBC3123A9640030222D8
:10222600E6129463E49008F8F0A3F09008F8E0FE54
:10223600A3E0FFC39410EE6480948040030222C49E
:10224600EFC4F8540FC868FFEEC454F048FE74E1BA
:102256002FF58274033EF583E0F470517F10FEFD86
:10226600FC9008E6E0F8A3E0F9A3E0FAA3E0FB128D
:102276003979A804A905AA06AB079008F8E0FEA3D9
:10228600E0FFEE3395E0FDFCEB2FFFEA3EFEE93D75
:10229600FDE83CFC900888123ACD9008F87401F0ED
:1022A600A3E4F09008E6123AD9000200009008F97B
:1022B600E004F070069008F8E004F002223190087D
:1022C600E6E0FCA3E0FDA3E0FEA3E02401FFE43E7C
:1022D600FEE43DFDE43CFC9008E6123ACD02220AFB
:1022E600E47F207E4EFDFC9008E6E0F8A3E0F9A32B
:1022F600E0FAA3E0FBC3123A9650030223EA9008E1
:10230600E6123AD900000000E4FF7E10FDFC9008BA
:10231600E6E0F8A3E0F9A3E0FAA3E0FBC3123A96DD
:1023260040030223EA129463E49008F8F0A3F090C5
:1023360008F8E0FEA3E0FFC39410EE6480948040AA
:10234600030223C8EFC4F8540FC868FFEEC454F064
:1023560048FE74E12FF58274033EF583E0F4705174
:102366007F10FEFDFC9008E6E0F8A3E0F9A3E0FA92
:10237600A3E0FB123979A804A905AA06AB079008C1
:10238600F8E0FEA3E0FFEE3395E0FDFCEB2FFFEA5D
:102396003EFEE93DFDE83CFC900888123ACD9008E7
:1023A600F87401F0A3E4F09008E6123AD9000200AE
:1023B600009008F9E004F070069008F8E004F002D6
:1023C60023359008E6E0FCA3E0FDA3E0FEA3E024AD
:1023D60001FFE43EFEE43DFDE43CFC9008E6123AD3
:1023E600CD02230EC29853D2FD53D2FED2AC43A8DF
:1023F60012C29843E70253D2FD53D2FE43D202D211
:102406009943E601D2AFE49003D0F09004E6F0E5FC
:10241600C730E3030224B1E5B030E7030224B14339
:10242600C18012D4C753C17F9003D0E06076900973
:1024360002E0FF3395E0FE9008D6E0FDC39FEE6410
:1024460080F874809850159008FCE0FF3395E0FE04
:10245600D3ED9FEE6480F87480985007E490088569
:10246600F080069008857401F09008EFE0FF339540
:10247600E0FE9008D8E0FD7C00C39FEE6480F8740F
:10248600809850209008EAE0FF3395E0FED3ED9F58
:10249600EE6480F874809850028009900885E054B4
:1024A60001F08013E4900885F0800C9008D674FF44
:1024B600F0A3F0A3F0A3F09009027455F09008EF92
:1024C600F09008FC74F5F09008EAF012203E7F06C2
:1024D6001235A27F041235A27F011235A29008FDA3
:1024E600123AD9000000009004E5741EF0E490034F
:1024F600CCF09003DCF0900905E054DF12E26A129A
:10250600E90212E92012E8A812E8C653D9F075FDCF
:10251600FF43D940E4900882F075FEFF12D8DE1220
:10252600BBC19004E8E0640160030225C2F0900894
:1025360093E064027075900892E09008E2F09008CB
:10254600E6123AD9000000009008E2E0FFE4FCFD44
:10255600FE9008E6E0F8A3E0F9A3E0FAA3E0FBC3E7
:10256600123A9650509008E6A3A3A3E02492F5826F
:10257600E43408F583E0FF9008F4E0FE04F074EC20
:102586002EF582E43404F583EFF09008E6E0FCA330
:10259600E0FDA3E0FEA3E02401FFE43EFEE43DFDF2
:1025A600E43CFC9008E6123ACD809D900895E0FF49
:1025B6007E0012DFD79003E0E04480F09003D2E083
:1025C60064016003022666F0900843E0C394FB5062
:1025D6007C90083BE0FF9008F6E4F0A3EFF090084B
:1025E600E6123AD9000000009008F6E0FEA3E0FFEC
:1025F600E4FCFD9008E6E0F8A3E0F9A3E0FAA3E026
:10260600FBC3123A9650529008E6A3A3A3E0243BDC
:10261600F582E43408F583E0FF9003CBE0FE04F096
:1026260074152EF582E43406F583EFF09008E6E0A3
:10263600FCA3E0FDA3E0FEA3E02401FFE43EFEE4EC
:102646003DFDE43CFC9008E6123ACD809B900843A1
:10265600E0543FFF7E0012DFD79003E0E04480F0B5
:10266600900827E07004A3E06464700C7F071236BC
:102676002BE4900827F0A3F0900883E0B4800E9036
:102686000818E0600812A8E0E4900883F090088239
:10269600E0700302251F53D9BF9008E6123AD9000D
:1026A6000000007FFF7EFF7D1F7C009008E6E0F8BB
:1026B600A3E0F9A3E0FAA3E0FBC3123A96502190F7
:1026C60008E6E0FCA3E0FDA3E0FEA3E02401FFE4AE
:1026D6003EFEE43DFDE43CFC9008E6123ACD80C3A4
:0E26E600E4900882F012E81F12E39102251F13
:10E4B300E4FFFE75B12075B9810FBF00010EEF6453
:0FE4C300284E70F543B9C0E5B930E5FB75A903E4
:01E4D2002227
:10E2C00075F1FF75A45D75A5F375A68075F3BF752F
:10E2D000A74C75AE8575F4CD75F5BF75D48075D531
:0BE2E0000175E10775E24075E30122C3
:10E4F30012E986E4FF12906312E7FF12E83F12E786
:0FE503005B12EA1212EA2B7F0512E23402207239
:0FE83F00438920438E08758D40E4F58BD28E22DD
:10E7FF0075981075D21075AC4375B5FF75B440227E
:01207200224B
:0CE9860075A17075F80175A205C2FF2292
:10E234008FBB75BA1F75BCB875E88075C40275C309
:10E244006F75C60175C59190081B7402F090082182
:10E25400746FF09008237401F09008267491F022F2
:04EA2B0075D10C2273
:032023000299EE31
:1099EE00C0E0C083C082C0D075D000C00730984E92
:1099FE00C2989008E0E060469005EFE0FF04F07436
:109A0E00922FF582E43408F583E599F0900892E000
:109A1E00FF9005EFE0B50726900896E0FF64026020
:109A2E0004EFB403149004E87401F09005EFE4F031
:109A3E009003E0E0547FF080059005EFE4F030995C
:109A4E00089008FA7401F0C299D007D0D0D082D015
:049A5E0083D0E0329F
:03208300029A625C
:109A6200C0E0C083C082C0D075D000C007E5D2304C
:109A7200E04453D2FE9003DBE0FF04F0743B2FF589
:109A820082E43408F583E5D3F090083BE0FF9003CD
:109A9200DBE0B5072190083FE0FF64026004EFB409
:109AA200030F9003E0E0547FF09003D27401F08042
:109AB200009003DBE4F0E5D230E10EE5D230E509B7
:109AC20053D2FD9008FB7401F0D007D0D0D082D0E1
:049AD20083D0E0322B
:10DFD700D3EF9440EE940040047E007F4090000011
:10DFE70075F003EF123B0AEE75F003A42583F58362
:09DFF700A3E0FAA3E0F9023B3CAF
:10971500E4900A10F09008E6123AD9000000009093
:109725000892E0FFE4FCFDFE9008E6E0F8A3E0F90E
:10973500A3E0FAA3E0FBC3123A9650399008E6A3DA
:10974500A3A3E02492F582E43408F583E0FF900AB0
:1097550010E02FF09008E6E0FCA3E0FDA3E0FEA3F7
:10976500E02401FFE43EFEE43DFDE43CFC9008E618
:10977500123ACD80AA900A10E0700C9003CAF090BE
:0C978500088204F002E492E4FF12912A32
:0197910022B5
:10547B00E4900A10F09008E6123AD9000000009070
:10548B000892E0FFE4FCFDFE9008E6E0F8A3E0F9EB
:10549B00A3E0FAA3E0FBC3123A9650399008E6A3B7
:1054AB00A3A3E02492F582E43408F583E0FF900A8D
:1054BB0010E02FF09008E6E0FCA3E0FDA3E0FEA3D4
:1054CB00E02401FFE43EFEE43DFDE43CFC9008E6F5
:1054DB00123ACD80AA900A10E0600302560A7419A2
:1054EB00F09003CBE0FF04F074152FF582E4340643
:1054FB00F5837416F0900894E0FF9003CBE0FE0464
:10550B00F074152EF582E43406F583EFF0900A1053
:10551B00E02FF0900893E0FF9003CBE0FE04F074D3
:10552B00152EF582E43406F583EFF0900A10E02F88
:10553B00F0900895E0FF9003CBE0FE04F074152E7D
:10554B00F582E43406F583EFF0900A10E02FF0902B
:10555B0003CBE0FF04F074152FF582E43406F583DA
:10556B007403F09008E6123AD900000000E47F10B3
:10557B00FEFDFC9008E6E0F8A3E0F9A3E0FAA3E057
:10558B00FBC3123A96504D9008E6A3A3A3E0FF90FD
:10559B00E82F93FE9003CBE0FD04F074152DF582FC
:1055AB00E43406F583EEF0EF90E82F93FF900A10AA
:1055BB00E02FF09008E6E0FCA3E0FDA3E0FEA3E003
:1055CB002401FFE43EFEE43DFDE43CFC9008E612C2
:1055DB003ACD8099900A10E0FFC3E49FFF9003CB74
:1055EB00E0FE04F074152EF582E43406F583EFF03B
:1055FB009008F7E02416F09008F6E03400F0227FD4
:04560B002D12912AA1
:01560F002278
:10912A007E0A9003CBE0FD04F074152DF582E43439
:10913A0006F5837407F0900894E0FD9003CBE0FCF9
:10914A0004F074152CF582E43406F583EDF0ED2E67
:10915A00FE900893E0FD9003CBE0FC04F074152C1C
:10916A00F582E43406F583EDF0ED2EFE9003CBE0B4
:10917A00FD04F074152DF582E43406F583741FF0AE
:10918A00900895E02EFE9003CBE0FD04F074152DB7
:10919A00F582E43406F5837403F09003CBE0FD0412
:1091AA00F074152DF582E43406F583EFF02EFFC333
:1091BA00E49FFF9003CBE0FE04F074152EF582E4E1
:1091CA003406F583EFF09008F7E02407F09008F6EC
:0491DA00E03400F08D
:0191DE00226E
:1091DF007F0A9003CBE0FE04F074152EF582E43481
:1091EF0006F5837407F0900894E0FE9003CBE0FD42
:1091FF0004F074152DF582E43406F583EEF0EE2FAE
:10920F00FF900893E0FE9003CBE0FD04F074152D62
:10921F00F582E43406F583EEF0EE2FFF900895E02B
:10922F00FE9003CBE0FD04F074152DF582E43406B7
:10923F00F583EEF0EE2FFF9003CBE0FE04F07415F4
:10924F002EF582E43406F5837403F09003CBE0FE31
:10925F0004F074152EF582E43406F583E4F0C39F11
:10926F00FF9003CBE0FE04F074152EF582E4340674
:10927F00F583EFF09008F7E02407F09008F6E0345C
:02928F0000F0ED
:0192910022BA
:10C9FA00900897E0FEA3E0FBEBFF9003DEEEF0A3C6
:10CA0A00EFF09003D1F0900899E09005ECF09008CF
:10CA1A009AE09008D5F090089BE09008D4F0900630
:10CA2A00157443F0A3744CF0A3744FF0A3744BF045
:10CA3A00A3740AF09008F6E4F0A37405F0E49008F1
:03CA4A00F5F022E2
:10E29300900897E09004E5F09006157453F0A3748A
:10E2A30041F0A37452F0A3743DF0A3740AF09008F4
:0DE2B300F6E4F0A37405F0E49008F5F02205
:0EE95C009008FAE060FAE49008FAF08F992231
:0EE96A009008FBE060FAE49008FBF08FD322E7
:08200300C2FF8FA330FFFD2294
:07207600EFF0E4FF1220036C
:06207D0030FFFDAFA322BD
:10203E00C2961220781220799008251220769008E8
:10204E002E1220769008D3122076900881122076D8
:10205E009005F41220769008801220769008F0EF0A
:04206E00F0D29622F4
:109BBD00E4900A0EF0A3F0C2967F19122003122032
:109BCD007D8021C3900A0EE09401501F12207DE488
:109BDD0075F001123963FC740E25F0F58274093CA1
:109BED00F583EFF07F1912200380D8D296E4900A06
:109BFD000EF0A3F0900A0EE0FEA3E0FFC3EE940179
:109C0D00501F740E2FF582E43409F583E0FD129593
:109C1D007F900A0FE004F070DB900A0EE004F080F4
:019C2D00D363
:019C2E002213
:10E33D00E4FEC2967F9912200312207DFDFCAF06EC
:10E34D000E12200312207D0DBD00010CE4B505EE6B
:06E35D00ECB401EAD296C7
:01E363002297
:10957F00900A63EFF0A3EDF0900A63E0C4540FFF7D
:10958F00C3940A4005EF24378009900A63E0C4545E
:10959F000F2430FF12E3B2900A63E0540FFFC3941D
:1095AF000A4005EF24378008900A63E0540F2430F7
:1095BF00FF12E3B27F3A12E3B2900A64E0C4540F91
:1095CF00FFC3940A4005EF24378009900A64E0C472
:1095DF00540F2430FF12E3B2900A64E0540FFFC31C
:1095EF00940A4005EF24378008900A64E0540F2452
:0A95FF0030FF12E3B27F2002E3B256
:10946300E4FF7E01FDFC9008E6E0F8A3A3A3E0126D
:02947300397945
:06947500900A18123ACD26
:10947B0053C7FBC2FF75A30330FFFDC2FF900A1851
:10948B00E0FCA3E0FDA3E0FEA3E0FF7810123AA7F7
:10949B008FA330FFFDC2FF900A18E0FCA3E0FDA3F1
:1094AB00E0FEA3E0FF7808123AA78FA330FFFDC2BE
:1094BB00FF900A18A3A3A3E0F5A330FFFDE4FFFE82
:1094CB00C2FFE4F5A330FFFD74E12FF58274033E78
:1094DB00F583E5A3F00FBF00010EE4B507E2EEB490
:0794EB0001DE43C7047FE12D
:0194F2002257
:10929200900A57123ACD900A5BEBF0A3EAF0A3E9E9
:0192A200F0DB
:1092A30053C7FBC2FF75A30630FFFD43C70453C773
:1092B300FBC2FF75A30230FFFDC2FF900A57E0FC1B
:1092C300A3E0FDA3E0FEA3E0FF7810123AA78FA36B
:1092D30030FFFDC2FF900A57E0FCA3E0FDA3E0FED0
:1092E300A3E0FF7808123AA78FA330FFFDC2FF90D7
:1092F3000A57A3A3A3E0F5A330FFFDE4FFFED39039
:10930300082DE09F90082CE09E4021C2FF900A5B4D
:10931300E0FBA3E475F001123963A9F0FA12388572
:10932300F5A330FFFD0FBF00010E80D2C2FF43C77C
:019333000435
:019334002216
:109CA000900A18123ACD53C7FBC2FF75A30630FFC6
:109CB000FD43C70453C7FBC2FF900A1CE0F5A33065
:109CC000FFFD900A1CE064C76042C2FF900A18E0E2
:109CD000FCA3E0FDA3E0FEA3E0FF7810123AA78FFB
:109CE000A330FFFDC2FF900A18E0FCA3E0FDA3E053
:109CF000FEA3E0FF7808123AA78FA330FFFDC2FF52
:109D0000900A18A3A3A3E0F5A330FFFD43C70422E4
:0FE80F00E4900A62F0900A5E123AD9000001000C
:01E81E0022D7
:1093CE00900897E0900825F0900898E090082EF00D
:1093DE00900899E09008D3F090089AE0900881F0F8
:1093EE0090089BE09005F4F090089CE0900880F0C7
:1093FE0090089DE09008F0F043C180900825E0FBB6
:10940E007DD07C00E4FF12D97790082E7F0112D90F
:10941E00719008D37F0212D971900881E0FB7DD044
:10942E007C007F0312D9779005F4E0FB7DD07C00A1
:10943E007F0412D977900880E0FB7DD07C007F05F9
:10944E0012D9779008F0E0FB7DD07C007F0612D910
:05945E007753C17F22DD
:104A8E00E4900A10F09008E6123AD9000000009067
:104A9E000892E0FFE4FCFDFE9008E6E0F8A3E0F9E2
:104AAE00A3E0FAA3E0FBC3123A9650399008E6A3AE
:104ABE00A3A3E02492F582E43408F583E0FF900A84
:104ACE0010E02FF09008E6E0FCA3E0FDA3E0FEA3CB
:104ADE00E02401FFE43EFEE43DFDE43CFC9008E6EC
:104AEE00123ACD80AA900A10E06003024C37C293AE
:104AFE00900897E0900825F0900898E090082EF026
:104B0E00900899E09008D3F090089AE0900881F010
:104B1E0090089BE09005F4F090089CE0900880F0DF
:104B2E0090089DE09008F0F0E4900A10F0900A10C2
:104B3E00E004F0E0B4FFF6D293C2967F8012200319
:104B4E0012207D900825E012207990082EE0122088
:104B5E00799008D3E0122079900881E012207990A4
:104B6E0005F4E0122079900880E01220799008F088
:104B7E00E0122079D296900A107409F09003CBE0DF
:104B8E00FF04F074152FF582E43406F5837406F0F5
:104B9E00900894E0FF9003CBE0FE04F074152EF520
:104BAE0082E43406F583EFF0900A10E02FF09008BF
:104BBE0093E0FF9003CBE0FE04F074152EF582E433
:104BCE003406F583EFF0900A10E02FF0900895E090
:104BDE00FF9003CBE0FE04F074152EF582E434064C
:104BEE00F583EFF0900A10E02FF09003CBE0FF0476
:104BFE00F074152FF582E43406F5837403F0900AF1
:104C0E0010E0FFC3E49FFF9003CBE0FE04F07415A9
:104C1E002EF582E43406F583EFF09008F7E02406D3
:0E4C2E00F09008F6E03400F0227F0712912A81
:014C3C002255
:07EA120075C15D43C18022C4
:10E75B00E4F591538E3F759398F592859395859239
:08E76B009443E680439104226F
:03203B000266A298
:1066A200C0E0C0F0C083C082C0D075D000C000C0BE
:0B66B20001C002C003C004C005C00707
:1066BD00C207E5C054F02480700302676424C060F3
:1066CD002024E060030267B2900837E0F5C253C2A0
:1066DD00FEA205E43342C2C2C59000C3E4F00267D6
:1066ED00B430C168300007D2C5C2000267B43003B0
:1066FD0015C203900824E0F5C22002030267B4D24C
:10670D0000D2050267B43005030267B49005EDE0D1
:10671D00FF9000C3E0FD3395E0FCC3ED9F7480F85E
:10672D006C985022900605E0FBA3E0FAA3E0F91265
:10673D003885F5C2900606E475F00112394D9000CA
:10674D00C3E004F08061D2C4C201805B300404D286
:10675D00C58054D20780509005EDE0FF9000C3E056
:10676D00FD3395E0FCC3ED9F7480F86C985022903A
:10677D000830E0FBA3E0FAA3E0F9E5C212389E90E1
:10678D000831E475F00112394D9000C3E004F0D2E8
:10679D00C19000C3E0FF9005EDE0B5070AC201C24C
:1067AD00C1D2C48002D20730071053C17F43C180CC
:0C67BD00C2C5C2C4C2C1C201C207C2C032
:1067C900D007D005D004D003D002D001D000D0D05A
:0967D900D082D083D0F0D0E03270
:0320730002E97807
:0EE9780053C17F43C18053917FC2C5C201329B
:06D97100E0FB7DD07C000C
:10D97700E4FE3001080EEEB4FFF8E4802FD20190E8
:10D987000837EDF0C205D203C202D204900824EF93
:10D99700F09004E9EBF09006057401F0A37404F02D
:10D9A700A374E9F09005ED7401F0D2C59003D0F0AF
:01D9B700224D
:05CD7D00900A4CEFF0EC
:10CD8200900A54EBF0A3EAF0A3E9F0E4900A53F01E
:10CD9200900A52E0FFA3E0C39F502E900A4CE0FF9E
:10CDA20004F0900A50E0FCA3E0FD900A54E0FBA3DB
:10CDB200E475F001123963A9F0FA123885FB12D931
:09CDC20077900A53E004F080C7E9
:01CDCB002245
:10C85500E4FE30010D0EEEB4FFF8E49003D0F07F56
:10C86500FF22D201900837EDF0C205D203D202D2E1
:10C8750004900824EFF09008307401F0A3740AF0D6
:10C88500A37465F09005ED7401F0D2C5E4FE3001A6
:10C89500080EEEB4FFF87FFF229003D07401F090EC
:04C8A5000A65E0FF41
:01C8A900226C
:109B4A007B017A0879D8900A43E4F07492A3F0A3CF
:059B5A007402F0E4FDBF
:109B5F00E4FFFE30010D0FBF00010EBEFFF5BFFF8A
:109B6F00F2803ED201900A43A3E0900837F0C2057D
:109B7F00D203D202D204900824EDF0900830EBF01B
:109B8F00A3EAF0A3E9F0900A45E09005EDF0D2C505
:109B9F00E4FEFF3001110FBF00010EBEFFF5BFFF46
:0D9BAF00F2E49003D0F0229003D07401F096
:019BBC002286
:0D590D00B2B0E490082FF09008847408F008
:10591A00900A107414F09003CBE0FF04F074152F72
:10592A00F582E43406F5837409F09003CBE0FF04B2
:10593A00F074152FF582E43406F583E4F09003CB76
:10594A00E0FF04F074152FF582E43406F583740140
:10595A00F09003CBE0FF04F074152FF582E43406CF
:10596A00F5837408F09003CBE0FF04F074152FF56B
:10597A0082E43406F5837402F09003CAE0FF54C04F
:10598A00FEBE8013A3E0FE04F074152EF582E43403
:10599A0006F583E4F08046EF5430FFBF201C9003E5
:1059AA00CBE0FF04F074152FF582E43406F5837416
:1059BA0001F0900A10E004F080239003CAE0540C2E
:1059CA00FFBF0819A3E0FF04F074152FF582E43431
:1059DA0006F5837402F0900A10E02402F09006089B
:1059EA00E0FCA3E0FDA3E0FEA3E0FF9005F0E0F8F1
:1059FA00A3E0F9A3E0FAA3E02FFFEA3EFEE93DFDAA
:105A0A00E83CFCE47B3EFAF9F8123A04AD07AC062E
:105A1A00ECFF9003CBE0FE04F074152EF582E4341B
:105A2A0006F583EFF0900A10E02FF0AF059003CB54
:105A3A00E0FE04F074152EF582E43406F583EFF0E7
:105A4A00900A10E02FF0E0FFC3E49FFF9003CBE041
:105A5A00FE04F074152EF582E43406F583EFF09017
:0D5A6A0008F7E02409F09008F6E03400F0A1
:015A7700220C
:038386007480F010
:108389007F139005F97401F09003CBE0FE04F074BB
:10839900152EF582E43406F5837407F09003CBE0DB
:1083A900FE04F074152EF582E43406F583E4F090AA
:1083B90003CBE0FE04F074152EF582E43406F58350
:1083C9007401F09003CBE0FE04F074152EF582E4FD
:1083D9003406F5837409F09003CBE0FE04F07415BC
:1083E9002EF582E43406F5837402F09003CAE0FEA8
:1083F90054C0FDBD4013A3E0FD04F074152DF582B2
:10840900E43406F583E4F0803CEE5430FEBE1017E8
:108419009003CBE0FE04F074152EF582E43406F5E2
:10842900837401F00F801E9003CAE0540CFEBE0451
:1084390014A3E0FE04F074152EF582E43406F583E6
:108449007402F00F0FC3E49FFF9003CBE0FE04F02A
:1084590074152EF582E43406F583EFF09008F7E001
:0A8469002407F09008F6E03400F05C
:0184730022E6
:10DF9C007F0C12E95C7F0112E95C1F12E95C7F07C0
:10DFAC0012E95C7F0212E95C7F0812E95C7F0112C6
:10DFBC00E95C7F1112E95C7F0612E95C7F1512E9BE
:0BDFCC005C7F2012E95C7F3002E95C02
:103B4200E4900A14F09008E6123AD90000000090BE
:103B52000892E0FFE4FCFDFE9008E6E0F8A3E0F93D
:103B6200A3E0FAA3E0FBC3123A9650399008E6A309
:103B7200A3A3E02492F582E43408F583E0FF900ADF
:103B820014E02FF09008E6E0FCA3E0FDA3E0FEA322
:103B9200E02401FFE43EFEE43DFDE43CFC9008E647
:103BA200123ACD80AA900A14E06003023DDF900829
:103BB20084E04480F0900896E064036003023C4D88
:103BC200A3E0FFE4FCFDFE7808123ABAE4FFE4FD4C
:103BD200FC900A10123ACD900A10E0F8A3E0F9A383
:103BE200E0FAA3E0FB900898E0FFE4FCFDFEEB2F77
:103BF200FFEE3AFEED39FDEC38FC900A10123ACD98
:103C0200900A10E0FCA3E0FDA3E0FEA3E0FFE47B4A
:103C12003EFAF9F8123979900A10123ACD90060854
:103C2200E0FCA3E0FDA3E0FEA3E0FF900A10E0F8B1
:103C3200A3E0F9A3E0FAA3E0FBEF2BFFEE3AFEEDDF
:103C420039FDEC38FC900608123ACD900896E064F3
:103C5200026003023DE4900A147414F09003CBE076
:103C6200FF04F074152FF582E43406F5837408F02E
:103C72009003CBE0FF04F074152FF582E43406F5CF
:103C820083E4F09003CBE0FF04F074152FF582E497
:103C92003406F5837401F09003CBE0FF04F0741551
:103CA2002FF582E43406F5837408F09003CBE0FF2D
:103CB20004F074152FF582E43406F5837403F09052
:103CC2000897E0FFE4FCFDFE7808123ABAE4FFE44C
:103CD200FDFC900A10123ACD900A10E0F8A3E0F928
:103CE200A3E0FAA3E0FB900898E0FFE4FCFDFEEB02
:103CF2002FFFEE3AFEED39FDEC38FC900A10123A35
:103D0200CD900A10E0FCA3E0FDA3E0FEA3E0FFE4F7
:103D12007B3EFAF9F8123979900A10123ACD9006E0
:103D220008E0FCA3E0FDA3E0FEA3E0FF900A10E0A0
:103D3200F8A3E0F9A3E0FAA3E0FBEF2BFFEE3AFED3
:103D4200ED39FDEC38FC900608123ACD900608E0F9
:103D5200FCA3E0FDA3E0FEA3E0FF9005F0E0F8A3E2
:103D6200E0F9A3E0FAA3E02FFFEA3EFEE93DFDE819
:103D72003CFCE47B3EFAF9F8123A04AD07AC06ECDF
:103D8200FF9003CBE0FE04F074152EF582E43406B6
:103D9200F583EFF0900A14E02FF0AF059003CBE02B
:103DA200FE04F074152EF582E43406F583EFF090EC
:103DB2000A14E02FF0E0FFC3E49FFF9003CBE0FE84
:103DC20004F074152EF582E43406F583EFF09008C2
:103DD200F7E02408F09008F6E03400F0227F0812A1
:023DE200912A24
:013DE40022BC
:10CDCC00E4FFFE900892E0FDEEC39D501074922E8D
:10CDDC00F582E43408F583E02FFF0E80E6EF70282F
:10CDEC00900884F0900608123AD9000000009008D0
:10CDFC0097E07F0260051235A2800312362BE49077
:0DCE0C0005F9F0900884F0227F0912912AA8
:01CE190022F6
:10E7730075F003EFA424C4F582E5F03400F583A318
:08E78300E0FAA3E0F9023B3CBF
:10E51200900611123AD9000000009004E1123AD993
:0FE522000000000090090A123AD9000000002200
:06EA1900E49003CAF022A4
:06EA1F00E49003CAF0229E
:06EA2500E49003CAF02298
:10E63200E49008E0F09004E1123AD9000000009062
:0BE6420003CAE004F012E81F02E94DDB
:109D10009004E1E0FCA3E0FDA3E0FEA3E02401FF4A
:109D2000E43EFEE43DFDE43CFC9004E1123ACD90BB
:109D300004E1A3A3A3E05401FFE4FEFDFCFBFAF958
:109D4000F8C3123A96700EB2B09005EFF0900892F8
:109D5000F09008E0F0E47F06FEFDFC9004E1E0F8FE
:109D6000A3E0F9A3E0FAA3E0FBC3123A96701090C7
:109D700004E1123AD9000000009003CAE004F02286
:10BC54009004E1E0FCA3E0FDA3E0FEA3E02401FFE7
:10BC6400E43EFEE43DFDE43CFC9004E1123ACD9058
:10BC740004E1A3A3A3E05401FFE4FEFDFCFBFAF9F5
:10BC8400F8C3123A9670209004E1123AD9000000E9
:10BC940000B2B09003CAE004F0E49005EFF090081D
:08BCA40092F09008E004F02288
:10CE1A009004E1E0FCA3E0FDA3E0FEA3E02401FF0F
:10CE2A00E43EFEE43DFDE43CFC9004E1123ACD9080
:10CE3A0004E1A3A3A3E05401FFE4FEFDFCFBFAF91D
:10CE4A00F8C3123A96700C9004E1123AD900000025
:0ECE5A0000B2B0900884E030E3031283862219
:10CE68009004E1E0FCA3E0FDA3E0FEA3E02401FFC1
:10CE7800E43EFEE43DFDE43CFC9004E1123ACD9032
:10CE880004E1A3A3A3E05401FFE4FEFDFCFBFAF9CF
:10CE9800F8C3123A9670169004E1123AD9000000CD
:0ECEA8000012590D9003CAE054FC4402F0221F
:10C5F4009004E1E0FCA3E0FDA3E0FEA3E02401FF3E
:10C60400E43EFEE43DFDE43CFC9004E1123ACD90AE
:10C6140004E1A3A3A3E05401FFE4FEFDFCFBFAF94B
:10C62400F8C3123A96701F9004E1123AD900000040
:10C6340000B2B09004E1123AD9000000009003CA9D
:07C64400E054FC4401F02268
:108703009005F0E0FCA3E0FDA3E0FEA3E0FF9004EE
:10871300E1E0F8A3E0F9A3E0FAA3E0FBC3123A9681
:10872300703B900608E0FCA3E0FDA3E0FEA3E0FF9E
:10873300EC4D4E4F601F900608A3A3A3E024FFFF58
:10874300EE34FFFEED34FFFDEC34FFFC900608121F
:108753003ACDB2B0229003CAE054FCF0229004E177
:10876300E0FCA3E0FDA3E0FEA3E02401FFE43EFE62
:10877300E43DFDE43CFC9004E1123ACD9004E1A316
:10878300A3A3E05401FFE4FEFDFCFBFAF9F8C312D6
:108793003A967002B2B09004E1A3A3A3E0543FFF62
:1087A300E4FEFDFCFBFAF9F8C3123A96701990083F
:1087B3002FE0D394055010900884E020E709125964
:0887C3001A90082FE004F022D7
:10CA4D009004E1123AD9000000009003CAE04404BA
:10CA5D0012E556E4900884F0900892F0900615F0D7
:10CA6D009003CBF09008F5F09005EFF09003DAF01D
:10CA7D00900818F09003D3F0A3F0900608123AD95D
:10CA8D000000000012933590087DE06005E4F0127F
:03CA9D00E3912200
:0BE99E009004E1123AD90000000022B2
:08E9CA009003CAE054FCF022A6
:08E9D2009003CAE054FCF0229E
:08E9DA009003CAE054FCF02296
:10E64D00E49008E0F09003CAE004F090090A123A51
:0BE65D00D90000000012E81F02E94D88
:109D800090090AE0FCA3E0FDA3E0FEA3E02401FFAC
:109D9000E43EFEE43DFDE43CFC90090A123ACD901D
:109DA000090AA3A3A3E05401FFE4FEFDFCFBFAF9BA
:109DB000F8C3123A96700EB2B09005EFF090089288
:109DC000F09008E0F0E47F06FEFDFC90090AE0F860
:109DD000A3E0F9A3E0FAA3E0FBC3123A9670109057
:109DE000090A123AD9000000009003CAE004F022E8
:10BCAC0090090AE0FCA3E0FDA3E0FEA3E02401FF61
:10BCBC00E43EFEE43DFDE43CFC90090A123ACD90D2
:10BCCC00090AA3A3A3E05401FFE4FEFDFCFBFAF96F
:10BCDC00F8C3123A96702090090A123AD900000063
:10BCEC0000B2B09003CAE004F0E49005EFF09008C5
:08BCFC0092F09008E004F02230
:10CEB60090090AE0FCA3E0FDA3E0FEA3E02401FF45
:10CEC600E43EFEE43DFDE43CFC90090A123ACD90B6
:10CED600090AA3A3A3E05401FFE4FEFDFCFBFAF953
:10CEE600F8C3123A96700C90090A123AD90000005B
:0ECEF60000B2B0900884E030E303128386227D
:10E66800E49008E0F09003CAE004F090090A123A36
:0BE67800D90000000012E81F02E94D6D
:109DF00090090AE0FCA3E0FDA3E0FEA3E02401FF3C
:109E0000E43EFEE43DFDE43CFC90090A123ACD90AC
:109E1000090AA3A3A3E05401FFE4FEFDFCFBFAF949
:109E2000F8C3123A96700EB2B09005EFF090089217
:109E3000F09008E0F0E47F06FEFDFC90090AE0F8EF
:109E4000A3E0F9A3E0FAA3E0FBC3123A96701090E6
:109E5000090A123AD9000000009003CAE004F02277
:10BD040090090AE0FCA3E0FDA3E0FEA3E02401FF08
:10BD1400E43EFEE43DFDE43CFC90090A123ACD9079
:10BD2400090AA3A3A3E05401FFE4FEFDFCFBFAF916
:10BD3400F8C3123A96702090090A123AD90000000A
:10BD440000B2B09003CAE004F0E49005EFF090086C
:08BD540092F09008E004F022D7
:10CB460090090AE0FCA3E0FDA3E0FEA3E02401FFB8
:10CB5600E43EFEE43DFDE43CFC90090A123ACD9029
:10CB6600090AA3A3A3E05401FFE4FEFDFCFBFAF9C6
:10CB7600F8C3123A96700C90090A123AD9000000CE
:10CB860000B2B0900884E030E3067480F012838926
:01CB9600227C
:10E2EB00E49008E0F09003CAE04404F0E004F090FE
:10E2FB00090A123AD9000000009004E1123AD90041
:09E30B0000000012E81F02E94DB8
:109AD60090090AE0FCA3E0FDA3E0FEA3E02401FF59
:109AE600E43EFEE43DFDE43CFC90090A123ACD90CA
:109AF600090AA3A3A3E05401FFE4FEFDFCFBFAF967
:109B0600F8C3123A96700EB2B09005EFF090089234
:109B1600F09008E0F0E47F06FEFDFC90090AE0F80C
:109B2600A3E0F9A3E0FAA3E0FBC3123A96701490FF
:109B3600090A123AD9000000009003CAE04404F072
:049B4600E004F02225
:10A9460090090AE0FCA3E0FDA3E0FEA3E02401FFDA
:10A95600E43EFEE43DFDE43CFC90090A123ACDE4F7
:10A966007F02FEFDFC90090AE0F8A3E0F9A3E0FAF5
:10A97600A3E0FBC3123A96702490090A123AD90052
:10A98600000000B2B09003CAE04404F0E004F0E432
:0EA996009005EFF0900892F09008E004F02297
:10BAED009003CAE04404F090090AE0FCA3E0FDA332
:10BAFD00E0FEA3E02401FFE43EFEE43DFDE43CFC5A
:10BB0D0090090A123ACDE47F02FEFDFC90090AE08D
:10BB1D00F8A3E0F9A3E0FAA3E0FBC3123A96700C88
:10BB2D0090090A123AD900000000B2B0900884E0E2
:0ABB3D0030E3067480F012838922C1
:10E68300E49008E0F09003CAE004F090090A123A1B
:0BE69300D90000000012E81F02E94D52
:109E600090090AE0FCA3E0FDA3E0FEA3E02401FFCB
:109E7000E43EFEE43DFDE43CFC90090A123ACD903C
:109E8000090AA3A3A3E05401FFE4FEFDFCFBFAF9D9
:109E9000F8C3123A96700EB2B09005EFF0900892A7
:109EA000F09008E0F0E47F06FEFDFC90090AE0F87F
:109EB000A3E0F9A3E0FAA3E0FBC3123A9670109076
:109EC000090A123AD9000000009003CAE004F02207
:10BB470090090AE0FCA3E0FDA3E0FEA3E02401FFC7
:10BB5700E43EFEE43DFDE43CFC90090A123ACDE4E4
:10BB67007F02FEFDFC90090AE0F8A3E0F9A3E0FAE2
:10BB7700A3E0FBC3123A96702090090A123AD90043
:10BB8700000000B2B09003CAE004F0E49005EFF0C3
:0ABB9700900892F09008E004F022FC
:10CAA00090090AE0FCA3E0FDA3E0FEA3E02401FF5F
:10CAB000E43EFEE43DFDE43CFC90090A123ACDE47C
:10CAC0007F02FEFDFC90090AE0F8A3E0F9A3E0FA7A
:10CAD000A3E0FBC3123A96700C90090A123AD900EF
:10CAE000000000B2B0900884E030E3067480F012D9
:03CAF00083892215
:10CF040090090AE0FCA3E0FDA3E0FEA3E02401FFF6
:10CF1400E43EFEE43DFDE43CFC90090A123ACD9067
:10CF2400090AA3A3A3E05401FFE4FEFDFCFBFAF904
:10CF3400F8C3123A96701690090A123AD900000002
:0ECF44000012590D9003CAE054FC4402F02282
:10C64B0090090AE0FCA3E0FDA3E0FEA3E02401FFB8
:10C65B00E43EFEE43DFDE43CFC90090A123ACD9029
:10C66B00090AA3A3A3E05401FFE4FEFDFCFBFAF9C6
:10C67B00F8C3123A96701F90090A123AD9000000BB
:10C68B0000B2B09003CAE054FC4401F090090A12C6
:07C69B003AD9000000002263
:1087CB009005F0E0FCA3E0FDA3E0FEA3E0FF900921
:1087DB000AE0F8A3E0F9A3E0FAA3E0FBC3123A9690
:1087EB00703B900608E0FCA3E0FDA3E0FEA3E0FFD6
:1087FB00EC4D4E4F601F900608A3A3A3E024FFFF90
:10880B00EE34FFFEED34FFFDEC34FFFC9006081256
:10881B003ACDB2B0229003CAE054FCF02290090A80
:10882B00E0FCA3E0FDA3E0FEA3E02401FFE43EFE99
:10883B00E43DFDE43CFC90090A123ACD90090AA3F1
:10884B00A3A3E05401FFE4FEFDFCFBFAF9F8C3120D
:10885B003A967002B2B090090AA3A3A3E0543FFF6B
:10886B00E4FEFDFCFBFAF9F8C3123A967019900876
:10887B002FE0D394055010900884E020E70912599B
:08888B001A90082FE004F0220E
:10C6A20090090A123AD9000000009003CAE044102F
:10C6B200F0E49008E0F0C2B0900884F0900892F0A4
:10C6C200900615F09003CBF09008F5F09005EFF08E
:10C6D2009003DAF0900818F09003D3F0A3F09006DC
:10C6E20008123AD90000000012933590087DE060EC
:07C6F20005E4F012E39122C0
:10CF520090090AE0FCA3E0FDA3E0FEA3E02401FFA8
:10CF6200E43EFEE43DFDE43CFC90090A123ACD9019
:10CF7200090AA3A3A3E05401FFE4FEFDFCFBFAF9B6
:10CF8200F8C3123A96701690090A123AD9000000B4
:0ECF92000012590D9003CAE054FC4402F02234
:10C6F90090090AE0FCA3E0FDA3E0FEA3E02401FF0A
:10C70900E43EFEE43DFDE43CFC90090A123ACD907A
:10C71900090AA3A3A3E05401FFE4FEFDFCFBFAF917
:10C72900F8C3123A96701F90090A123AD90000000C
:10C7390000B2B09003CAE054FC4401F090090A1217
:07C749003AD90000000022B4
:108893009005F0E0FCA3E0FDA3E0FEA3E0FF900958
:1088A3000AE0F8A3E0F9A3E0FAA3E0FBC3123A96C7
:1088B300703B900608E0FCA3E0FDA3E0FEA3E0FF0D
:1088C300EC4D4E4F601F900608A3A3A3E024FFFFC7
:1088D300EE34FFFEED34FFFDEC34FFFC900608128E
:1088E3003ACDB2B0229003CAE054FCF02290090AB8
:1088F300E0FCA3E0FDA3E0FEA3E02401FFE43EFED1
:10890300E43DFDE43CFC90090A123ACD90090AA328
:10891300A3A3E05401FFE4FEFDFCFBFAF9F8C31244
:108923003A967002B2B090090AA3A3A3E0543FFFA2
:10893300E4FEFDFCFBFAF9F8C3123A9670199008AD
:108943002FE0D394055010900884E020E7091259D2
:088953001A90082FE004F02245
:10CFA00090090A123AD9000000009003CAE0441028
:10CFB000F054F0F0E49008E0F0C2B0900884F090F3
:10CFC0000892F0900615F09003CBF09008F5F090E1
:10CFD00005EFF09003DAF0900818F09003D3F0A377
:0ECFE000F0900608123AD900000000029335C6
:10CFEE0090090AE0FCA3E0FDA3E0FEA3E02401FF0C
:10CFFE00E43EFEE43DFDE43CFC90090A123ACD907D
:10D00E00090AA3A3A3E05401FFE4FEFDFCFBFAF919
:10D01E00F8C3123A96701690090A123AD900000017
:0ED02E000012590D9003CAE054FC4402F02297
:10D2AC0090090AE0FCA3E0FDA3E0FEA3E02401FF4B
:10D2BC00E43EFEE43DFDE43CFC90090A123ACD90BC
:10D2CC00090AA3A3A3E05401FFE4FEFDFCFBFAF959
:10D2DC00F8C3123A967015B2B09003CAE054FC44ED
:0DD2EC0001F090090A123AD900000000225A
:10895B009005F0E0FCA3E0FDA3E0FEA3E0FF90098F
:10896B000AE0F8A3E0F9A3E0FAA3E0FBC3123A96FE
:10897B00703B900608E0FCA3E0FDA3E0FEA3E0FF44
:10898B00EC4D4E4F601F900608A3A3A3E024FFFFFE
:10899B00EE34FFFEED34FFFDEC34FFFC90060812C5
:1089AB003ACDB2B0229003CAE054FCF02290090AEF
:1089BB00E0FCA3E0FDA3E0FEA3E02401FFE43EFE08
:1089CB00E43DFDE43CFC90090A123ACD90090AA360
:1089DB00A3A3E05401FFE4FEFDFCFBFAF9F8C3127C
:1089EB003A967002B2B090090AA3A3A3E0543FFFDA
:1089FB00E4FEFDFCFBFAF9F8C3123A9670199008E5
:108A0B002FE0D394055010900884E020E709125909
:088A1B001A90082FE004F0227C
:10D5140090090A123AD9000000009003CAE04414AA
:10D52400F0E49008E0F0C2B0900884F0900892F023
:10D53400900615F09003CBF09008F5F09005EFF00D
:10D544009003DAF0900818F09003D3F0A3F090065B
:0BD5540008123AD900000000029335D5
:10B64E0090090AE0FCA3E0FDA3E0FEA3E02401FFC5
:10B65E00E43EFEE43DFDE43CFC90090A123ACD9036
:10B66E00090AA3A3A3E05401FFE4FEFDFCFBFAF9D3
:10B67E00F8C3123A96702390090A123AD9000000C4
:10B68E0000B2B090082F7408F0E4900884F01259BC
:0BB69E001A9003CAE054FC4402F022A2
:10D2F90090090AE0FCA3E0FDA3E0FEA3E02401FFFE
:10D30900E43EFEE43DFDE43CFC90090A123ACD906E
:10D31900090AA3A3A3E05401FFE4FEFDFCFBFAF90B
:10D32900F8C3123A967015B2B09003CAE054FC449F
:0DD3390001F090090A123AD900000000220C
:108A23009005F0E0FCA3E0FDA3E0FEA3E0FF9009C6
:108A33000AE0F8A3E0F9A3E0FAA3E0FBC3123A9635
:108A4300703B900608E0FCA3E0FDA3E0FEA3E0FF7B
:108A5300EC4D4E4F601F900608A3A3A3E024FFFF35
:108A6300EE34FFFEED34FFFDEC34FFFC90060812FC
:108A73003ACDB2B0229003CAE054FCF02290090A26
:108A8300E0FCA3E0FDA3E0FEA3E02401FFE43EFE3F
:108A9300E43DFDE43CFC90090A123ACD90090AA397
:108AA300A3A3E05401FFE4FEFDFCFBFAF9F8C312B3
:108AB3003A967002B2B090090AA3A3A3E0543FFF11
:108AC300E4FEFDFCFBFAF9F8C3123A96701990081C
:108AD3002FE0D394055010900884E020E709125941
:088AE3001A90082FE004F022B4
:10D55F0090090A123AD9000000009003CAE0441063
:10D56F00F0E49008E0F0C2B0900884F0900892F0D8
:10D57F00900615F09003CBF09008F5F09005EFF0C2
:10D58F009003DAF0900818F09003D3F0A3F0900610
:0BD59F0008123AD9000000000293358A
:0BE9A90090090A123AD9000000002279
:08E9E2009003CAE054FCF0228E
:08E9EA009003CAE054FCF02286
:08E9F2009003CAE054FCF0227E
:10E69E00E49008E0F09003CAE004F09004E1123A2E
:0BE6AE00D90000000012E81F02E94D37
:109ED0009004E1E0FCA3E0FDA3E0FEA3E02401FF89
:109EE000E43EFEE43DFDE43CFC9004E1123ACD90FA
:109EF00004E1A3A3A3E05401FFE4FEFDFCFBFAF997
:109F0000F8C3123A96700EB2B09005EFF090089236
:109F1000F09008E0F0E47F06FEFDFC9004E1E0F83C
:109F2000A3E0F9A3E0FAA3E0FBC3123A9670109005
:109F300004E1123AD9000000009003CAE004F022C4
:10BD5C009004E1E0FCA3E0FDA3E0FEA3E02401FFDE
:10BD6C00E43EFEE43DFDE43CFC9004E1123ACD904F
:10BD7C0004E1A3A3A3E05401FFE4FEFDFCFBFAF9EC
:10BD8C00F8C3123A9670209004E1123AD9000000E0
:10BD9C0000B2B09003CAE004F0E49005EFF0900814
:08BDAC0092F09008E004F0227F
:10CB97009004E1E0FCA3E0FDA3E0FEA3E02401FF95
:10CBA700E43EFEE43DFDE43CFC9004E1123ACD9006
:10CBB70004E1A3A3A3E05401FFE4FEFDFCFBFAF9A3
:10CBC700F8C3123A96700C9004E1123AD9000000AB
:10CBD70000B2B0900884E030E3067480F0128389D5
:01CBE700222B
:10D03C009004E1E0FCA3E0FDA3E0FEA3E02401FFEB
:10D04C00E43EFEE43DFDE43CFC9004E1123ACD905C
:10D05C0004E1A3A3A3E05401FFE4FEFDFCFBFAF9F9
:10D06C00F8C3123A9670169004E1123AD9000000F7
:0ED07C000012590D9003CAE054FC4402F02249
:10C750009004E1E0FCA3E0FDA3E0FEA3E02401FFE0
:10C76000E43EFEE43DFDE43CFC9004E1123ACD9051
:10C7700004E1A3A3A3E05401FFE4FEFDFCFBFAF9EE
:10C78000F8C3123A96701F9004E1123AD9000000E3
:10C7900000B2B09004E1123AD9000000009003CA40
:07C7A000E054FC4401F0220B
:108AEB009005F0E0FCA3E0FDA3E0FEA3E0FF900403
:108AFB00E1E0F8A3E0F9A3E0FAA3E0FBC3123A9696
:108B0B00703B900608E0FCA3E0FDA3E0FEA3E0FFB2
:108B1B00EC4D4E4F601F900608A3A3A3E024FFFF6C
:108B2B00EE34FFFEED34FFFDEC34FFFC9006081233
:108B3B003ACDB2B0229003CAE054FCF0229004E18B
:108B4B00E0FCA3E0FDA3E0FEA3E02401FFE43EFE76
:108B5B00E43DFDE43CFC9004E1123ACD9004E1A32A
:108B6B00A3A3E05401FFE4FEFDFCFBFAF9F8C312EA
:108B7B003A967002B2B09004E1A3A3A3E0543FFF76
:108B8B00E4FEFDFCFBFAF9F8C3123A967019900853
:108B9B002FE0D394055010900884E020E709125978
:088BAB001A90082FE004F022EB
:10D5AA009004E1123AD9000000009003CAE0440452
:10D5BA00F0E49008E0F0C2B0900884F0900892F08D
:10D5CA00900615F09003CBF09008F5F09005EFF077
:10D5DA009003DAF0900818F09003D3F0A3F09006C5
:0BD5EA0008123AD9000000000293353F
:10200E009004E1123AD90000000090090A123AD960
:05201E0000000000229B
:08E9FA009003CAE054FCF02276
:08EA02009003CAE054FCF0226D
:08EA0A009003CAE054FCF02265
:10DBDC0012E2009005F5E0FCA3E0FDA3E0FEA3E05B
:10DBEC00FF900611E0F8A3E0F9A3E0FAA3E0FBC371
:10DBFC00123A9670169003CAE004F0900611123A8D
:0CDC0C00D90000000012E81F12E94D22B0
:109F4000900611E0FCA3E0FDA3E0FEA3E02401FFE6
:109F5000E43EFEE43DFDE43CFC900611123ACD9057
:109F60000611A3A3A3E05401FFE4FEFDFCFBFAF9F4
:109F7000F8C3123A96700EB2B09005EFF0900892C6
:109F8000F09008E0F0E47F30FEFDFC900611E0F870
:109F9000A3E0F9A3E0FAA3E0FBC3123A9670109095
:109FA0000611123AD9000000009003CAE004F02222
:10BDB400900611E0FCA3E0FDA3E0FEA3E02401FF54
:10BDC400E43EFEE43DFDE43CFC900611123ACD90C5
:10BDD4000611A3A3A3E05401FFE4FEFDFCFBFAF962
:10BDE400F8C3123A967020900611123AD900000056
:10BDF40000B2B09003CAE004F0E49005EFF09008BC
:08BE040092F09008E004F02226
:10C8AA00900611E0FCA3E0FDA3E0FEA3E02401FF53
:10C8BA00E43EFEE43DFDE43CFC900611123ACD90C4
:10C8CA000611A3A3A3E05401FFE4FEFDFCFBFAF961
:10C8DA00F8C3123A96700C900611123AD900000069
:10C8EA0000B2B0900884E030E3097480F0128389C2
:04C8FA0012E2242200
:10DC180012E2009005F5E0FCA3E0FDA3E0FEA3E01E
:10DC2800FF900611E0F8A3E0F9A3E0FAA3E0FBC334
:10DC3800123A9670169003CAE004F0900611123A50
:0CDC4800D90000000012E81F12E94D2274
:109FB000900611E0FCA3E0FDA3E0FEA3E02401FF76
:109FC000E43EFEE43DFDE43CFC900611123ACD90E7
:109FD0000611A3A3A3E05401FFE4FEFDFCFBFAF984
:109FE000F8C3123A96700EB2B09005EFF090089256
:109FF000F09008E0F0E47F30FEFDFC900611E0F800
:10A00000A3E0F9A3E0FAA3E0FBC3123A9670109024
:10A010000611123AD9000000009003CAE004F022B1
:10BE0C00900611E0FCA3E0FDA3E0FEA3E02401FFFB
:10BE1C00E43EFEE43DFDE43CFC900611123ACD906C
:10BE2C000611A3A3A3E05401FFE4FEFDFCFBFAF909
:10BE3C00F8C3123A967020900611123AD9000000FD
:10BE4C0000B2B09003CAE004F0E49005EFF0900863
:08BE5C0092F09008E004F022CE
:10B6A900900611E0FCA3E0FDA3E0FEA3E02401FF66
:10B6B900E43EFEE43DFDE43CFC900611123ACD90D7
:10B6C90003CAE054F3F0900611A3A3A3E05401FFC9
:10B6D900E4FEFDFCFBFAF9F8C3123A96700C9006E9
:10B6E90011123AD900000000B2B0900884E030E3AA
:0BB6F900097480F012838912E2242201
:10DC540012E2009005F5E0FCA3E0FDA3E0FEA3E0E2
:10DC6400FF900611E0F8A3E0F9A3E0FAA3E0FBC3F8
:10DC7400123A9670169003CAE004F0900611123A14
:0CDC8400D90000000012E81F12E94D2238
:10A02000900611E0FCA3E0FDA3E0FEA3E02401FF05
:10A03000E43EFEE43DFDE43CFC900611123ACD9076
:10A040000611A3A3A3E05401FFE4FEFDFCFBFAF913
:10A05000F8C3123A96700EB2B09005EFF0900892E5
:10A06000F09008E0F0E47F30FEFDFC900611E0F88F
:10A07000A3E0F9A3E0FAA3E0FBC3123A96701090B4
:10A080000611123AD9000000009003CAE004F02241
:10BE6400900611E0FCA3E0FDA3E0FEA3E02401FFA3
:10BE7400E43EFEE43DFDE43CFC900611123ACD9014
:10BE84000611A3A3A3E05401FFE4FEFDFCFBFAF9B1
:10BE9400F8C3123A967020900611123AD9000000A5
:10BEA40000B2B09003CAE004F0E49005EFF090080B
:08BEB40092F09008E004F02276
:10B70400900611E0FCA3E0FDA3E0FEA3E02401FF0A
:10B71400E43EFEE43DFDE43CFC900611123ACD907B
:10B7240003CAE04404F0900611A3A3A3E05401FF6C
:10B73400E4FEFDFCFBFAF9F8C3123A96700C90068D
:10B7440011123AD900000000B2B0900884E030E34E
:0BB75400097480F012838912E22422A5
:10DC900012E2009005F5E0FCA3E0FDA3E0FEA3E0A6
:10DCA000FF900611E0F8A3E0F9A3E0FAA3E0FBC3BC
:10DCB000123A9670169003CAE004F0900611123AD8
:0CDCC000D90000000012E81F12E94D22FC
:10A09000900611E0FCA3E0FDA3E0FEA3E02401FF95
:10A0A000E43EFEE43DFDE43CFC900611123ACD9006
:10A0B0000611A3A3A3E05401FFE4FEFDFCFBFAF9A3
:10A0C000F8C3123A96700EB2B09005EFF090089275
:10A0D000F09008E0F0E47F30FEFDFC900611E0F81F
:10A0E000A3E0F9A3E0FAA3E0FBC3123A9670109044
:10A0F0000611123AD9000000009003CAE004F022D1
:10BEBC00900611E0FCA3E0FDA3E0FEA3E02401FF4B
:10BECC00E43EFEE43DFDE43CFC900611123ACD90BC
:10BEDC000611A3A3A3E05401FFE4FEFDFCFBFAF959
:10BEEC00F8C3123A967020900611123AD90000004D
:10BEFC0000B2B09003CAE004F0E49005EFF09008B3
:08BF0C0092F09008E004F0221D
:10C8FE00900611E0FCA3E0FDA3E0FEA3E02401FFFF
:10C90E00E43EFEE43DFDE43CFC900611123ACD906F
:10C91E000611A3A3A3E05401FFE4FEFDFCFBFAF90C
:10C92E00F8C3123A96700C900611123AD900000014
:10C93E0000B2B0900884E030E3097480F01283896D
:04C94E0012E22422AB
:10DCCC0012E2009005F5E0FCA3E0FDA3E0FEA3E06A
:10DCDC00FF900611E0F8A3E0F9A3E0FAA3E0FBC380
:10DCEC00123A9670169003CAE004F0900611123A9C
:0CDCFC00D90000000012E81F12E94D22C0
:10A10000900611E0FCA3E0FDA3E0FEA3E02401FF24
:10A11000E43EFEE43DFDE43CFC900611123ACD9095
:10A120000611A3A3A3E05401FFE4FEFDFCFBFAF932
:10A13000F8C3123A96700EB2B09005EFF090089204
:10A14000F09008E0F0E47F30FEFDFC900611E0F8AE
:10A15000A3E0F9A3E0FAA3E0FBC3123A96701090D3
:10A160000611123AD9000000009003CAE004F02260
:10BF1400900611E0FCA3E0FDA3E0FEA3E02401FFF2
:10BF2400E43EFEE43DFDE43CFC900611123ACD9063
:10BF34000611A3A3A3E05401FFE4FEFDFCFBFAF900
:10BF4400F8C3123A967020900611123AD9000000F4
:10BF540000B2B09003CAE004F0E49005EFF090085A
:08BF640092F09008E004F022C5
:10B75F00900611E0FCA3E0FDA3E0FEA3E02401FFAF
:10B76F00E43EFEE43DFDE43CFC900611123ACD9020
:10B77F0003CAE054CFF0900611A3A3A3E05401FF36
:10B78F00E4FEFDFCFBFAF9F8C3123A96700C900632
:10B79F0011123AD900000000B2B0900884E030E3F3
:0BB7AF00097480F012838912E224224A
:10DD080012E2009005F5E0FCA3E0FDA3E0FEA3E02D
:10DD1800FF900611E0F8A3E0F9A3E0FAA3E0FBC343
:10DD2800123A9670169003CAE004F0900611123A5F
:0CDD3800D90000000012E81F12E94D2283
:10A17000900611E0FCA3E0FDA3E0FEA3E02401FFB4
:10A18000E43EFEE43DFDE43CFC900611123ACD9025
:10A190000611A3A3A3E05401FFE4FEFDFCFBFAF9C2
:10A1A000F8C3123A96700EB2B09005EFF090089294
:10A1B000F09008E0F0E47F30FEFDFC900611E0F83E
:10A1C000A3E0F9A3E0FAA3E0FBC3123A9670109063
:10A1D0000611123AD9000000009003CAE004F022F0
:10BF6C00900611E0FCA3E0FDA3E0FEA3E02401FF9A
:10BF7C00E43EFEE43DFDE43CFC900611123ACD900B
:10BF8C000611A3A3A3E05401FFE4FEFDFCFBFAF9A8
:10BF9C00F8C3123A967020900611123AD90000009C
:10BFAC0000B2B09003CAE004F0E49005EFF0900802
:08BFBC0092F09008E004F0226D
:10B7BA00900611E0FCA3E0FDA3E0FEA3E02401FF54
:10B7CA00E43EFEE43DFDE43CFC900611123ACD90C5
:10B7DA0003CAE054C3F0900611A3A3A3E05401FFE7
:10B7EA00E4FEFDFCFBFAF9F8C3123A96700C9006D7
:10B7FA0011123AD900000000B2B0900884E030E398
:0BB80A00097480F012838912E22422EE
:10DD440012E2009005F5E0FCA3E0FDA3E0FEA3E0F1
:10DD5400FF900611E0F8A3E0F9A3E0FAA3E0FBC307
:10DD6400123A9670169003CAE004F0900611123A23
:0CDD7400D90000000012E81F12E94D2247
:10A1E000900611E0FCA3E0FDA3E0FEA3E02401FF44
:10A1F000E43EFEE43DFDE43CFC900611123ACD90B5
:10A200000611A3A3A3E05401FFE4FEFDFCFBFAF951
:10A21000F8C3123A96700EB2B09005EFF090089223
:10A22000F09008E0F0E47F30FEFDFC900611E0F8CD
:10A23000A3E0F9A3E0FAA3E0FBC3123A96701090F2
:10A240000611123AD9000000009003CAE004F0227F
:10BFC400900611E0FCA3E0FDA3E0FEA3E02401FF42
:10BFD400E43EFEE43DFDE43CFC900611123ACD90B3
:10BFE4000611A3A3A3E05401FFE4FEFDFCFBFAF950
:10BFF400F8C3123A967020900611123AD900000044
:10C0040000B2B09003CAE004F0E49005EFF09008A9
:08C0140092F09008E004F02214
:10A9A400900611E0FCA3E0FDA3E0FEA3E02401FF78
:10A9B400E43EFEE43DFDE43CFC900611123ACD90E9
:10A9C40003CAE04404F054CFF0900611A3A3A3E01B
:10A9D4005401FFE4FEFDFCFBFAF9F8C3123A967049
:10A9E4000C900611123AD900000000B2B09008840D
:0EA9F400E030E3097480F012838912E224221D
:10DD800012E2009005F5E0FCA3E0FDA3E0FEA3E0B5
:10DD9000FF900611E0F8A3E0F9A3E0FAA3E0FBC3CB
:10DDA000123A9670169003CAE004F0900611123AE7
:0CDDB000D90000000012E81F12E94D220B
:10A25000900611E0FCA3E0FDA3E0FEA3E02401FFD3
:10A26000E43EFEE43DFDE43CFC900611123ACD9044
:10A270000611A3A3A3E05401FFE4FEFDFCFBFAF9E1
:10A28000F8C3123A96700EB2B09005EFF0900892B3
:10A29000F09008E0F0E47F30FEFDFC900611E0F85D
:10A2A000A3E0F9A3E0FAA3E0FBC3123A9670109082
:10A2B0000611123AD9000000009003CAE004F0220F
:10C01C00900611E0FCA3E0FDA3E0FEA3E02401FFE9
:10C02C00E43EFEE43DFDE43CFC900611123ACD905A
:10C03C000611A3A3A3E05401FFE4FEFDFCFBFAF9F7
:10C04C00F8C3123A967020900611123AD9000000EB
:10C05C0000B2B09003CAE004F0E49005EFF0900851
:08C06C0092F09008E004F022BC
:10B81500900611E0FCA3E0FDA3E0FEA3E02401FFF8
:10B82500E43EFEE43DFDE43CFC900611123ACD9069
:10B8350003CAE054CFF0900611A3A3A3E05401FF7F
:10B84500E4FEFDFCFBFAF9F8C3123A96700C90067B
:10B8550011123AD900000000B2B0900884E030E33C
:0BB86500097480F012838912E2242293
:10DDBC0012E2009005F5E0FCA3E0FDA3E0FEA3E079
:10DDCC00FF900611E0F8A3E0F9A3E0FAA3E0FBC38F
:10DDDC00123A9670169003CAE004F0900611123AAB
:0CDDEC00D90000000012E81F12E94D22CF
:10A2C000900611E0FCA3E0FDA3E0FEA3E02401FF63
:10A2D000E43EFEE43DFDE43CFC900611123ACD90D4
:10A2E0000611A3A3A3E05401FFE4FEFDFCFBFAF971
:10A2F000F8C3123A96700EB2B09005EFF090089243
:10A30000F09008E0F0E47F30FEFDFC900611E0F8EC
:10A31000A3E0F9A3E0FAA3E0FBC3123A9670109011
:10A320000611123AD9000000009003CAE004F0229E
:10C07400900611E0FCA3E0FDA3E0FEA3E02401FF91
:10C08400E43EFEE43DFDE43CFC900611123ACD9002
:10C094000611A3A3A3E05401FFE4FEFDFCFBFAF99F
:10C0A400F8C3123A967020900611123AD900000093
:10C0B40000B2B09003CAE004F0E49005EFF09008F9
:08C0C40092F09008E004F02264
:10B87000900611E0FCA3E0FDA3E0FEA3E02401FF9D
:10B88000E43EFEE43DFDE43CFC900611123ACD900E
:10B8900003CAE04410F0900611A3A3A3E05401FFF3
:10B8A000E4FEFDFCFBFAF9F8C3123A96700C900620
:10B8B00011123AD900000000B2B0900884E030E3E1
:0BB8C000097480F012838912E2242238
:10DDF80012E2009005F5E0FCA3E0FDA3E0FEA3E03D
:10DE0800FF900611E0F8A3E0F9A3E0FAA3E0FBC352
:10DE1800123A9670169003CAE004F0900611123A6E
:0CDE2800D90000000012E81F12E94D2292
:10A33000900611E0FCA3E0FDA3E0FEA3E02401FFF2
:10A34000E43EFEE43DFDE43CFC900611123ACD9063
:10A350000611A3A3A3E05401FFE4FEFDFCFBFAF900
:10A36000F8C3123A96700EB2B09005EFF0900892D2
:10A37000F09008E0F0E47F30FEFDFC900611E0F87C
:10A38000A3E0F9A3E0FAA3E0FBC3123A96701090A1
:10A390000611123AD9000000009003CAE004F0222E
:10C0CC00900611E0FCA3E0FDA3E0FEA3E02401FF39
:10C0DC00E43EFEE43DFDE43CFC900611123ACD90AA
:10C0EC000611A3A3A3E05401FFE4FEFDFCFBFAF947
:10C0FC00F8C3123A967020900611123AD90000003B
:10C10C0000B2B09003CAE004F0E49005EFF09008A0
:08C11C0092F09008E004F0220B
:10AA0200900611E0FCA3E0FDA3E0FEA3E02401FF19
:10AA1200E43EFEE43DFDE43CFC900611123ACD908A
:10AA220003CAE04410F054F3F0900611A3A3A3E08C
:10AA32005401FFE4FEFDFCFBFAF9F8C3123A9670EA
:10AA42000C900611123AD900000000B2B0900884AE
:0EAA5200E030E3097480F012838912E22422BE
:10DE340012E2009005F5E0FCA3E0FDA3E0FEA3E000
:10DE4400FF900611E0F8A3E0F9A3E0FAA3E0FBC316
:10DE5400123A9670169003CAE004F0900611123A32
:0CDE6400D90000000012E81F12E94D2256
:10A3A000900611E0FCA3E0FDA3E0FEA3E02401FF82
:10A3B000E43EFEE43DFDE43CFC900611123ACD90F3
:10A3C0000611A3A3A3E05401FFE4FEFDFCFBFAF990
:10A3D000F8C3123A96700EB2B09005EFF090089262
:10A3E000F09008E0F0E47F30FEFDFC900611E0F80C
:10A3F000A3E0F9A3E0FAA3E0FBC3123A9670109031
:10A400000611123AD9000000009003CAE004F022BD
:10C12400900611E0FCA3E0FDA3E0FEA3E02401FFE0
:10C13400E43EFEE43DFDE43CFC900611123ACD9051
:10C144000611A3A3A3E05401FFE4FEFDFCFBFAF9EE
:10C15400F8C3123A967020900611123AD9000000E2
:10C1640000B2B09003CAE004F0E49005EFF0900848
:08C1740092F09008E004F022B3
:10B8CB00900611E0FCA3E0FDA3E0FEA3E02401FF42
:10B8DB00E43EFEE43DFDE43CFC900611123ACD90B3
:10B8EB0003CAE04414F0900611A3A3A3E05401FF94
:10B8FB00E4FEFDFCFBFAF9F8C3123A96700C9006C5
:10B90B0011123AD900000000B2B0900884E030E385
:0BB91B00097480F012838912E22422DC
:10DE700012E2009005F5E0FCA3E0FDA3E0FEA3E0C4
:10DE8000FF900611E0F8A3E0F9A3E0FAA3E0FBC3DA
:10DE9000123A9670169003CAE004F0900611123AF6
:0CDEA000D90000000012E81F12E94D221A
:10A41000900611E0FCA3E0FDA3E0FEA3E02401FF11
:10A42000E43EFEE43DFDE43CFC900611123ACD9082
:10A430000611A3A3A3E05401FFE4FEFDFCFBFAF91F
:10A44000F8C3123A96700EB2B09005EFF0900892F1
:10A45000F09008E0F0E47F30FEFDFC900611E0F89B
:10A46000A3E0F9A3E0FAA3E0FBC3123A96701090C0
:10A470000611123AD9000000009003CAE004F0224D
:10C17C00900611E0FCA3E0FDA3E0FEA3E02401FF88
:10C18C00E43EFEE43DFDE43CFC900611123ACD90F9
:10C19C000611A3A3A3E05401FFE4FEFDFCFBFAF996
:10C1AC00F8C3123A967020900611123AD90000008A
:10C1BC0000B2B09003CAE004F0E49005EFF09008F0
:08C1CC0092F09008E004F0225B
:10B92600900611E0FCA3E0FDA3E0FEA3E02401FFE6
:10B93600E43EFEE43DFDE43CFC900611123ACD9057
:10B9460003CAE04410F0900611A3A3A3E05401FF3C
:10B95600E4FEFDFCFBFAF9F8C3123A96700C900669
:10B9660011123AD900000000B2B0900884E030E32A
:0BB97600097480F012838912E2242281
:10DEAC0012E2009005F5E0FCA3E0FDA3E0FEA3E088
:10DEBC00FF900611E0F8A3E0F9A3E0FAA3E0FBC39E
:10DECC00123A9670169003CAE004F0900611123ABA
:0CDEDC00D90000000012E81F12E94D22DE
:10A48000900611E0FCA3E0FDA3E0FEA3E02401FFA1
:10A49000E43EFEE43DFDE43CFC900611123ACD9012
:10A4A0000611A3A3A3E05401FFE4FEFDFCFBFAF9AF
:10A4B000F8C3123A96700EB2B09005EFF090089281
:10A4C000F09008E0F0E47F30FEFDFC900611E0F82B
:10A4D000A3E0F9A3E0FAA3E0FBC3123A9670109050
:10A4E0000611123AD9000000009003CAE004F022DD
:10C1D400900611E0FCA3E0FDA3E0FEA3E02401FF30
:10C1E400E43EFEE43DFDE43CFC900611123ACD90A1
:10C1F4000611A3A3A3E05401FFE4FEFDFCFBFAF93E
:10C20400F8C3123A967020900611123AD900000031
:10C2140000B2B09003CAE004F0E49005EFF0900897
:08C2240092F09008E004F02202
:10C95200900611E0FCA3E0FDA3E0FEA3E02401FFAA
:10C96200E43EFEE43DFDE43CFC900611123ACD901B
:10C972000611A3A3A3E05401FFE4FEFDFCFBFAF9B8
:10C98200F8C3123A96700C900611123AD9000000C0
:10C9920000B2B0900884E030E3097480F012838919
:04C9A20012E2242257
:10DEE80012E2009005F5E0FCA3E0FDA3E0FEA3E04C
:10DEF800FF900611E0F8A3E0F9A3E0FAA3E0FBC362
:10DF0800123A9670169003CAE004F0900611123A7D
:0CDF1800D90000000012E81F12E94D22A1
:10A4F000900611E0FCA3E0FDA3E0FEA3E02401FF31
:10A50000E43EFEE43DFDE43CFC900611123ACD90A1
:10A510000611A3A3A3E05401FFE4FEFDFCFBFAF93E
:10A52000F8C3123A96700EB2B09005EFF090089210
:10A53000F09008E0F0E47F30FEFDFC900611E0F8BA
:10A54000A3E0F9A3E0FAA3E0FBC3123A96701090DF
:10A550000611123AD9000000009003CAE004F0226C
:10C22C00900611E0FCA3E0FDA3E0FEA3E02401FFD7
:10C23C00E43EFEE43DFDE43CFC900611123ACD9048
:10C24C000611A3A3A3E05401FFE4FEFDFCFBFAF9E5
:10C25C00F8C3123A967020900611123AD9000000D9
:10C26C0000B2B09003CAE004F0E49005EFF090083F
:08C27C0092F09008E004F022AA
:10B98100900611E0FCA3E0FDA3E0FEA3E02401FF8B
:10B99100E43EFEE43DFDE43CFC900611123ACD90FC
:10B9A10003CAE054F3F0900611A3A3A3E05401FFEE
:10B9B100E4FEFDFCFBFAF9F8C3123A96700C90060E
:10B9C10011123AD900000000B2B0900884E030E3CF
:0BB9D100097480F012838912E2242226
:10DF240012E2009005F5E0FCA3E0FDA3E0FEA3E00F
:10DF3400FF900611E0F8A3E0F9A3E0FAA3E0FBC325
:10DF4400123A9670169003CAE004F0900611123A41
:0CDF5400D90000000012E81F12E94D2265
:10A56000900611E0FCA3E0FDA3E0FEA3E02401FFC0
:10A57000E43EFEE43DFDE43CFC900611123ACD9031
:10A580000611A3A3A3E05401FFE4FEFDFCFBFAF9CE
:10A59000F8C3123A96700EB2B09005EFF0900892A0
:10A5A000F09008E0F0E47F30FEFDFC900611E0F84A
:10A5B000A3E0F9A3E0FAA3E0FBC3123A967010906F
:10A5C0000611123AD9000000009003CAE004F022FC
:10C28400900611E0FCA3E0FDA3E0FEA3E02401FF7F
:10C29400E43EFEE43DFDE43CFC900611123ACD90F0
:10C2A4000611A3A3A3E05401FFE4FEFDFCFBFAF98D
:10C2B400F8C3123A967020900611123AD900000081
:10C2C40000B2B09003CAE004F0E49005EFF09008E7
:08C2D40092F09008E004F02252
:10B9DC00900611E0FCA3E0FDA3E0FEA3E02401FF30
:10B9EC00E43EFEE43DFDE43CFC900611123ACD90A1
:10B9FC0003CAE04404F0900611A3A3A3E05401FF92
:10BA0C00E4FEFDFCFBFAF9F8C3123A96700C9006B2
:10BA1C0011123AD900000000B2B0900884E030E373
:0BBA2C00097480F012838912E22422CA
:10DF600012E2009005F5E0FCA3E0FDA3E0FEA3E0D3
:10DF7000FF900611E0F8A3E0F9A3E0FAA3E0FBC3E9
:10DF8000123A9670169003CAE004F0900611123A05
:0CDF9000D90000000012E81F12E94D2229
:10A5D000900611E0FCA3E0FDA3E0FEA3E02401FF50
:10A5E000E43EFEE43DFDE43CFC900611123ACD90C1
:10A5F0000611A3A3A3E05401FFE4FEFDFCFBFAF95E
:10A60000F8C3123A96700EB2B09005EFF09008922F
:10A61000F09008E0F0E47F30FEFDFC900611E0F8D9
:10A62000A3E0F9A3E0FAA3E0FBC3123A96701090FE
:10A630000611123AD9000000009003CAE004F0228B
:10C2DC00900611E0FCA3E0FDA3E0FEA3E02401FF27
:10C2EC00E43EFEE43DFDE43CFC900611123ACD9098
:10C2FC000611A3A3A3E05401FFE4FEFDFCFBFAF935
:10C30C00F8C3123A967020900611123AD900000028
:10C31C0000B2B09003CAE004F0E49005EFF090088E
:08C32C0092F09008E004F022F9
:10C9A600900611E0FCA3E0FDA3E0FEA3E02401FF56
:10C9B600E43EFEE43DFDE43CFC900611123ACD90C7
:10C9C6000611A3A3A3E05401FFE4FEFDFCFBFAF964
:10C9D600F8C3123A96700C900611123AD90000006C
:10C9E60000B2B0900884E030E3097480F0128389C5
:04C9F60012E2242203
:10AABE00900611E0FCA3E0FDA3E0FEA3E02401FF5D
:10AACE00E43EFEE43DFDE43CFC900611123ACD90CE
:10AADE000611A3A3A3E05401FFE4FEFDFCFBFAF96B
:10AAEE00F8C3123A967025900611123AD90000005A
:10AAFE0000900904E030E70512E224800312E55EBF
:0DAB0E0012590D9003CAE054FC4402F022DD
:10B08E00900611E0FCA3E0FDA3E0FEA3E02401FF87
:10B09E00E43EFEE43DFDE43CFC900611123ACD90F8
:10B0AE000611A3A3A3E05401FFE4FEFDFCFBFAF995
:10B0BE00F8C3123A967024900611123AD900000085
:10B0CE0000900904E030E70512E224800312E55EE9
:0CB0DE00B2B09003CAE054FC4401F02220
:107376009005F0E0FCA3E0FDA3E0FEA3E0FF90068D
:1073860011E0F8A3E0F9A3E0FAA3E0FBC3123A96F2
:107396007065900608E0FCA3E0FDA3E0FEA3E0FF15
:1073A600EC4D4E4F6049900608A3A3A3E024FFFFCF
:1073B600EE34FFFEED34FFFDEC34FFFC90060812C0
:1073C6003ACD900608A3A3A3E05401FFE4FEFDFC1A
:1073D600FBFAF9F8C3123A96600302747690090430
:1073E600E030E70512E224800312E55EB2B0229097
:1073F60003CAE054FCF022900611E0FCA3E0FDA3D2
:10740600E0FEA3E02401FFE43EFEE43DFDE43CFC97
:10741600900611123ACD900611A3A3A3E05401FFE2
:10742600E4FEFDFCFBFAF9F8C3123A9670119009D6
:1074360004E030E70512E224800312E55EB2B09064
:107446000611A3A3A3E0543FFFE4FEFDFCFBFAF9FB
:10745600F8C3123A96701990082FE0D3940550108D
:10746600900884E020E70912591A90082FE004F0EA
:0174760022F3
:10D34600900611123AD90000000012E550E4900848
:10D3560084F0900892F0900615F09003CBF09008B8
:10D36600F5F09005EFF09003DAF0900818F09003CE
:10D37600D3F0A3F0900608123AD9000000001293E9
:0DD386003590087DE06005E4F012E391228F
:10AB1B00900611E0FCA3E0FDA3E0FEA3E02401FFFF
:10AB2B00E43EFEE43DFDE43CFC900611123ACD9070
:10AB3B000611A3A3A3E05401FFE4FEFDFCFBFAF90D
:10AB4B00F8C3123A967025900611123AD9000000FC
:10AB5B0000900904E030E70512E224800312E55E61
:0DAB6B0012590D9003CAE054FC4402F02280
:10B0EA00900611E0FCA3E0FDA3E0FEA3E02401FF2B
:10B0FA00E43EFEE43DFDE43CFC900611123ACD909C
:10B10A000611A3A3A3E05401FFE4FEFDFCFBFAF938
:10B11A00F8C3123A967024900611123AD900000028
:10B12A0000900904E030E70512E224800312E55E8C
:0CB13A00B2B09003CAE054FC4401F022C3
:107477009005F0E0FCA3E0FDA3E0FEA3E0FF90068B
:1074870011E0F8A3E0F9A3E0FAA3E0FBC3123A96F0
:107497007065900608E0FCA3E0FDA3E0FEA3E0FF13
:1074A700EC4D4E4F6049900608A3A3A3E024FFFFCD
:1074B700EE34FFFEED34FFFDEC34FFFC90060812BE
:1074C7003ACD900608A3A3A3E05401FFE4FEFDFC18
:1074D700FBFAF9F8C3123A9660030275779009042C
:1074E700E030E70512E224800312E55EB2B0229095
:1074F70003CAE054FCF022900611E0FCA3E0FDA3D0
:10750700E0FEA3E02401FFE43EFEE43DFDE43CFC95
:10751700900611123ACD900611A3A3A3E05401FFE0
:10752700E4FEFDFCFBFAF9F8C3123A9670119009D4
:1075370004E030E70512E224800312E55EB2B09062
:107547000611A3A3A3E0543FFFE4FEFDFCFBFAF9F9
:10755700F8C3123A96701990082FE0D3940550108B
:10756700900884E020E70912591A90082FE004F0E8
:0175770022F1
:10D76C00900611123AD9000000009003CAE0444020
:10D77C00F054F012E556E4900884F0900892F09082
:10D78C000615F09003CBF09008F5F09005EFF090B3
:10D79C0003DAF0900818F09003D3F0A3F090060889
:0AD7AC00123AD90000000002933584
:10AB7800900611E0FCA3E0FDA3E0FEA3E02401FFA2
:10AB8800E43EFEE43DFDE43CFC900611123ACD9013
:10AB98000611A3A3A3E05401FFE4FEFDFCFBFAF9B0
:10ABA800F8C3123A967025900611123AD90000009F
:10ABB80000900904E030E70512E224800312E55E04
:0DABC80012590D9003CAE054FC4402F02223
:10B14600900611E0FCA3E0FDA3E0FEA3E02401FFCE
:10B15600E43EFEE43DFDE43CFC900611123ACD903F
:10B166000611A3A3A3E05401FFE4FEFDFCFBFAF9DC
:10B17600F8C3123A967024900611123AD9000000CC
:10B1860000900904E030E70512E224800312E55E30
:0CB19600B2B09003CAE054FC4401F02267
:107578009005F0E0FCA3E0FDA3E0FEA3E0FF900689
:1075880011E0F8A3E0F9A3E0FAA3E0FBC3123A96EE
:107598007065900608E0FCA3E0FDA3E0FEA3E0FF11
:1075A800EC4D4E4F6049900608A3A3A3E024FFFFCB
:1075B800EE34FFFEED34FFFDEC34FFFC90060812BC
:1075C8003ACD900608A3A3A3E05401FFE4FEFDFC16
:1075D800FBFAF9F8C3123A96600302767890090428
:1075E800E030E70512E224800312E55EB2B0229093
:1075F80003CAE054FCF022900611E0FCA3E0FDA3CE
:10760800E0FEA3E02401FFE43EFEE43DFDE43CFC93
:10761800900611123ACD900611A3A3A3E05401FFDE
:10762800E4FEFDFCFBFAF9F8C3123A9670119009D2
:1076380004E030E70512E224800312E55EB2B09060
:107648000611A3A3A3E0543FFFE4FEFDFCFBFAF9F7
:10765800F8C3123A96701990082FE0D39405501089
:10766800900884E020E70912591A90082FE004F0E6
:0176780022EF
:10D9B800900611123AD9000000009003CAE04444CE
:10D9C80012E556E4900884F0900892F0900615F05D
:10D9D8009003CBF09008F5F09005EFF09003DAF0A3
:10D9E800900818F09003D3F0A3F0900608123AD9E3
:07D9F800000000000293355E
:10ABD500900611E0FCA3E0FDA3E0FEA3E02401FF45
:10ABE500E43EFEE43DFDE43CFC900611123ACD90B6
:10ABF5000611A3A3A3E05401FFE4FEFDFCFBFAF953
:10AC0500F8C3123A967025900611123AD900000041
:10AC150000900904E030E70512E224800312E55EA6
:0DAC250012590D9003CAE054FC4402F022C5
:10B1A200900611E0FCA3E0FDA3E0FEA3E02401FF72
:10B1B200E43EFEE43DFDE43CFC900611123ACD90E3
:10B1C2000611A3A3A3E05401FFE4FEFDFCFBFAF980
:10B1D200F8C3123A967024900611123AD900000070
:10B1E20000900904E030E70512E224800312E55ED4
:0CB1F200B2B09003CAE054FC4401F0220B
:107679009005F0E0FCA3E0FDA3E0FEA3E0FF900687
:1076890011E0F8A3E0F9A3E0FAA3E0FBC3123A96EC
:107699007065900608E0FCA3E0FDA3E0FEA3E0FF0F
:1076A900EC4D4E4F6049900608A3A3A3E024FFFFC9
:1076B900EE34FFFEED34FFFDEC34FFFC90060812BA
:1076C9003ACD900608A3A3A3E05401FFE4FEFDFC14
:1076D900FBFAF9F8C3123A96600302777990090424
:1076E900E030E70512E224800312E55EB2B0229091
:1076F90003CAE054FCF022900611E0FCA3E0FDA3CC
:10770900E0FEA3E02401FFE43EFEE43DFDE43CFC91
:10771900900611123ACD900611A3A3A3E05401FFDC
:10772900E4FEFDFCFBFAF9F8C3123A9670119009D0
:1077390004E030E70512E224800312E55EB2B0905E
:107749000611A3A3A3E0543FFFE4FEFDFCFBFAF9F5
:10775900F8C3123A96701990082FE0D39405501087
:10776900900884E020E70912591A90082FE004F0E4
:0177790022ED
:10DB1900900611123AD90000000012E550E490086D
:10DB290084F0900892F0900615F09003CBF09008DD
:10DB3900F5F09005EFF09003DAF0900818F09003F3
:10DB4900D3F0A3F0900608123AD90000000002931E
:01DB59003596
:10AC3200900611E0FCA3E0FDA3E0FEA3E02401FFE7
:10AC4200E43EFEE43DFDE43CFC900611123ACD9058
:10AC52000611A3A3A3E05401FFE4FEFDFCFBFAF9F5
:10AC6200F8C3123A967025900611123AD9000000E4
:10AC720000900904E030E70512E224800312E55E49
:0DAC820012590D9003CAE054FC4402F02268
:10B1FE00900611E0FCA3E0FDA3E0FEA3E02401FF16
:10B20E00E43EFEE43DFDE43CFC900611123ACD9086
:10B21E000611A3A3A3E05401FFE4FEFDFCFBFAF923
:10B22E00F8C3123A967024900611123AD900000013
:10B23E0000900904E030E70512E224800312E55E77
:0CB24E00B2B09003CAE054FC4401F022AE
:10777A009005F0E0FCA3E0FDA3E0FEA3E0FF900685
:10778A0011E0F8A3E0F9A3E0FAA3E0FBC3123A96EA
:10779A007065900608E0FCA3E0FDA3E0FEA3E0FF0D
:1077AA00EC4D4E4F6049900608A3A3A3E024FFFFC7
:1077BA00EE34FFFEED34FFFDEC34FFFC90060812B8
:1077CA003ACD900608A3A3A3E05401FFE4FEFDFC12
:1077DA00FBFAF9F8C3123A96600302787A90090420
:1077EA00E030E70512E224800312E55EB2B022908F
:1077FA0003CAE054FCF022900611E0FCA3E0FDA3CA
:10780A00E0FEA3E02401FFE43EFEE43DFDE43CFC8F
:10781A00900611123ACD900611A3A3A3E05401FFDA
:10782A00E4FEFDFCFBFAF9F8C3123A9670119009CE
:10783A0004E030E70512E224800312E55EB2B0905C
:10784A000611A3A3A3E0543FFFE4FEFDFCFBFAF9F3
:10785A00F8C3123A96701990082FE0D39405501085
:10786A00900884E020E70912591A90082FE004F0E2
:01787A0022EB
:10D7B600900611123AD9000000009003CAE04440D6
:10D7C600F054C012E556E4900884F0900892F09068
:10D7D6000615F09003CBF09008F5F09005EFF09069
:10D7E60003DAF0900818F09003D3F0A3F09006083F
:0AD7F600123AD9000000000293353A
:10AC8F00900611E0FCA3E0FDA3E0FEA3E02401FF8A
:10AC9F00E43EFEE43DFDE43CFC900611123ACD90FB
:10ACAF000611A3A3A3E05401FFE4FEFDFCFBFAF998
:10ACBF00F8C3123A967025900611123AD900000087
:10ACCF0000900904E030E70512E224800312E55EEC
:0DACDF0012590D9003CAE054FC4402F0220B
:10B25A00900611E0FCA3E0FDA3E0FEA3E02401FFB9
:10B26A00E43EFEE43DFDE43CFC900611123ACD902A
:10B27A000611A3A3A3E05401FFE4FEFDFCFBFAF9C7
:10B28A00F8C3123A967024900611123AD9000000B7
:10B29A0000900904E030E70512E224800312E55E1B
:0CB2AA00B2B09003CAE054FC4401F02252
:10787B009005F0E0FCA3E0FDA3E0FEA3E0FF900683
:10788B0011E0F8A3E0F9A3E0FAA3E0FBC3123A96E8
:10789B007065900608E0FCA3E0FDA3E0FEA3E0FF0B
:1078AB00EC4D4E4F6049900608A3A3A3E024FFFFC5
:1078BB00EE34FFFEED34FFFDEC34FFFC90060812B6
:1078CB003ACD900608A3A3A3E05401FFE4FEFDFC10
:1078DB00FBFAF9F8C3123A96600302797B9009041C
:1078EB00E030E70512E224800312E55EB2B022908D
:1078FB0003CAE054FCF022900611E0FCA3E0FDA3C8
:10790B00E0FEA3E02401FFE43EFEE43DFDE43CFC8D
:10791B00900611123ACD900611A3A3A3E05401FFD8
:10792B00E4FEFDFCFBFAF9F8C3123A9670119009CC
:10793B0004E030E70512E224800312E55EB2B0905A
:10794B000611A3A3A3E0543FFFE4FEFDFCFBFAF9F1
:10795B00F8C3123A96701990082FE0D39405501083
:10796B00900884E020E70912591A90082FE004F0E0
:01797B0022E9
:10D80000900611123AD9000000009003CAE044408B
:10D81000F054C012E556E4900884F0900892F0901D
:10D820000615F09003CBF09008F5F09005EFF0901E
:10D8300003DAF0900818F09003D3F0A3F0900608F4
:0AD84000123AD900000000029335EF
:10ACEC00900611E0FCA3E0FDA3E0FEA3E02401FF2D
:10ACFC00E43EFEE43DFDE43CFC900611123ACD909E
:10AD0C000611A3A3A3E05401FFE4FEFDFCFBFAF93A
:10AD1C00F8C3123A967025900611123AD900000029
:10AD2C0000900904E030E70512E224800312E55E8E
:0DAD3C0012590D9003CAE054FC4402F022AD
:10B2B600900611E0FCA3E0FDA3E0FEA3E02401FF5D
:10B2C600E43EFEE43DFDE43CFC900611123ACD90CE
:10B2D6000611A3A3A3E05401FFE4FEFDFCFBFAF96B
:10B2E600F8C3123A967024900611123AD90000005B
:10B2F60000900904E030E70512E224800312E55EBF
:0CB30600B2B09003CAE054FC4401F022F5
:10797C009005F0E0FCA3E0FDA3E0FEA3E0FF900681
:10798C0011E0F8A3E0F9A3E0FAA3E0FBC3123A96E6
:10799C007065900608E0FCA3E0FDA3E0FEA3E0FF09
:1079AC00EC4D4E4F6049900608A3A3A3E024FFFFC3
:1079BC00EE34FFFEED34FFFDEC34FFFC90060812B4
:1079CC003ACD900608A3A3A3E05401FFE4FEFDFC0E
:1079DC00FBFAF9F8C3123A966003027A7C90090418
:1079EC00E030E70512E224800312E55EB2B022908B
:1079FC0003CAE054FCF022900611E0FCA3E0FDA3C6
:107A0C00E0FEA3E02401FFE43EFEE43DFDE43CFC8B
:107A1C00900611123ACD900611A3A3A3E05401FFD6
:107A2C00E4FEFDFCFBFAF9F8C3123A9670119009CA
:107A3C0004E030E70512E224800312E55EB2B09058
:107A4C000611A3A3A3E0543FFFE4FEFDFCFBFAF9EF
:107A5C00F8C3123A96701990082FE0D39405501081
:107A6C00900884E020E70912591A90082FE004F0DE
:017A7C0022E7
:10AA6000900611123AD9000000009003CAE0444455
:10AA7000F054CCF0E49008E0F0C2B0900904E0306B
:10AA8000E70512E224800312E55EE4900884F0906A
:10AA90000892F0900615F09003CBF09008F5F09036
:10AAA00005EFF09003DAF0900818F09003D3F0A3CC
:0EAAB000F0900608123AD9000000000293351B
:10AD4900900611E0FCA3E0FDA3E0FEA3E02401FFCF
:10AD5900E43EFEE43DFDE43CFC900611123ACD9040
:10AD69000611A3A3A3E05401FFE4FEFDFCFBFAF9DD
:10AD7900F8C3123A967025900611123AD9000000CC
:10AD890000900904E030E70512E224800312E55E31
:0DAD990012590D9003CAE054FC4402F02250
:10B31200900611E0FCA3E0FDA3E0FEA3E02401FF00
:10B32200E43EFEE43DFDE43CFC900611123ACD9071
:10B332000611A3A3A3E05401FFE4FEFDFCFBFAF90E
:10B34200F8C3123A967024900611123AD9000000FE
:10B3520000900904E030E70512E224800312E55E62
:0CB36200B2B09003CAE054FC4401F02299
:107A7D009005F0E0FCA3E0FDA3E0FEA3E0FF90067F
:107A8D0011E0F8A3E0F9A3E0FAA3E0FBC3123A96E4
:107A9D007065900608E0FCA3E0FDA3E0FEA3E0FF07
:107AAD00EC4D4E4F6049900608A3A3A3E024FFFFC1
:107ABD00EE34FFFEED34FFFDEC34FFFC90060812B2
:107ACD003ACD900608A3A3A3E05401FFE4FEFDFC0C
:107ADD00FBFAF9F8C3123A966003027B7D90090414
:107AED00E030E70512E224800312E55EB2B0229089
:107AFD0003CAE054FCF022900611E0FCA3E0FDA3C4
:107B0D00E0FEA3E02401FFE43EFEE43DFDE43CFC89
:107B1D00900611123ACD900611A3A3A3E05401FFD4
:107B2D00E4FEFDFCFBFAF9F8C3123A9670119009C8
:107B3D0004E030E70512E224800312E55EB2B09056
:107B4D000611A3A3A3E0543FFFE4FEFDFCFBFAF9ED
:107B5D00F8C3123A96701990082FE0D3940550107F
:107B6D00900884E020E70912591A90082FE004F0DC
:017B7D0022E5
:10D84A00900611123AD9000000009003CAE0444041
:10D85A00F054CC12E556E4900884F0900892F090C7
:10D86A000615F09003CBF09008F5F09005EFF090D4
:10D87A0003DAF0900818F09003D3F0A3F0900608AA
:0AD88A00123AD900000000029335A5
:10ADA600900611E0FCA3E0FDA3E0FEA3E02401FF72
:10ADB600E43EFEE43DFDE43CFC900611123ACD90E3
:10ADC6000611A3A3A3E05401FFE4FEFDFCFBFAF980
:10ADD600F8C3123A967025900611123AD90000006F
:10ADE60000900904E030E70512E224800312E55ED4
:0DADF60012590D9003CAE054FC4402F022F3
:10B36E00900611E0FCA3E0FDA3E0FEA3E02401FFA4
:10B37E00E43EFEE43DFDE43CFC900611123ACD9015
:10B38E000611A3A3A3E05401FFE4FEFDFCFBFAF9B2
:10B39E00F8C3123A967024900611123AD9000000A2
:10B3AE0000900904E030E70512E224800312E55E06
:0CB3BE00B2B09003CAE054FC4401F0223D
:107B7E009005F0E0FCA3E0FDA3E0FEA3E0FF90067D
:107B8E0011E0F8A3E0F9A3E0FAA3E0FBC3123A96E2
:107B9E007065900608E0FCA3E0FDA3E0FEA3E0FF05
:107BAE00EC4D4E4F6049900608A3A3A3E024FFFFBF
:107BBE00EE34FFFEED34FFFDEC34FFFC90060812B0
:107BCE003ACD900608A3A3A3E05401FFE4FEFDFC0A
:107BDE00FBFAF9F8C3123A966003027C7E90090410
:107BEE00E030E70512E224800312E55EB2B0229087
:107BFE0003CAE054FCF022900611E0FCA3E0FDA3C2
:107C0E00E0FEA3E02401FFE43EFEE43DFDE43CFC87
:107C1E00900611123ACD900611A3A3A3E05401FFD2
:107C2E00E4FEFDFCFBFAF9F8C3123A9670119009C6
