:02E498002086DC
:02E49A0026F466
:02E49C00CCE0D2
:02E4A0005FB962
:02E4A400E3296A
:02E4A60052948E
:02E4A80098B426
:02E4AA00974693
:02E4AC0097C017
:02E4AE00983A9A
:02E4B000964391
:02E4B200BBAFFE
:02E4B400B9EBC2
:02E4B600BA4664
:032000000295BD89
:0695BD007581510295FECC
:10E7E3006D4456524D432D30302D52442D342E3529
:102CF3004908D65500000000000000004108FA0012
:102D03004108FB004108920041083B004503D540C0
:102D1300A0E6CCB24408EB000000004103CF004121
:102D2300081F004208E4000041081B034108213B3F
:102D33004108230141082628410829004208F600DA
:102D4300004103CB004108F5004108E2004108F4CB
:102D5300004108E1004108E3004104E70042082C78
:102D63000000440888000000004106100041082EBE
:102D730041410825004108D311410881014105F46F
:102D830024410880094108F0074108E00041088513
:102D9300004103CC0041082F00410904FF4109050C
:102DA3003F410901FE410903FFC10160C30000FF68
:102DB30096C9FF9193FF9193FF9193FF5CF9FF5E97
:102DC30059FF449CFF4A42FF3AF6FFCD80FF992CFE
:102DD300FF574CFF4006FF9193FF9193FF9193FFA1
:102DE30055C4FF3188FF8428FF5A2CFF9193FF912C
:102DF30093FFC9AEFFE22FFF6A0AFF63C8FF6118A2
:102E0300FF6270FF9BE3FF5B93FF85E2FF9193FFFC
:102E13009193FF6C64FF6D8BFF6EB2FF6FD8FF4B16
:102E2300F1FF4F4AFF425EFF70FEFF6B38FF6515EF
:102E3300FF6796FF68D6FF542FFF4D9EFF50F1FFAB
:102E43009193FF9193FF9193FF9193FF9193FF913F
:102E530093FF9193FF9193FF9193FF9193FF91932D
:102E6300FF9193FF9193FF3D99FF4697FF4871FFB1
:102E73009193C100630000C4FFE4D7FFE9CDFFE9EC
:102E8300D3FFE9D9FFE5F7FF9CC4FFBC08FFCDCE14
:102E9300FFCA01FF86B7FFC5A8FFCE1CFFE952FF9B
:102EA300E97EFFE986FFE98EFFE612FF9D34FFBC52
:102EB30060FFCE6AFFE62DFF9DA4FFBCB8FFCAFAF0
:102EC300FFE2B0FF9A8AFFA8FAFFBAA1FFE648FF24
:102ED3009E14FFBAFBFFCA54FFC656FF877FFFC588
:102EE300FFFFCEB8FFCF54FF8847FFC6ADFFCF0625
:102EF300FFD4C8FF890FFFD260FFCFA2FFD513FF16
:102F030089D7FFD2ADFFB602FFE95DFFE996FFE97E
:102F13009EFFE9A6FFE663FF9E84FFBD10FFCB4B38
:102F2300FFD55EFF8A9FFFC704FFCFF0FF200EFF90
:102F3300E9AEFFE9B6FFE9BEFFDB90FF9EF4FFBDFC
:102F430068FFC85EFFDBCCFF9F64FFBDC0FFB65DBB
:102F5300FFDC08FF9FD4FFBE18FFB6B8FFDC44FFB9
:102F6300A044FFBE70FFC8B2FFDC80FFA0B4FFBE69
:102F7300C8FFB713FFDCBCFFA124FFBF20FFB76E60
:102F8300FFDCF8FFA194FFBF78FFA958FFDD34FFF2
:102F9300A204FFBFD0FFB7C9FFDD70FFA274FFC05B
:102FA30028FFB824FFDDACFFA2E4FFC080FFA9B671
:102FB300FFDDE8FFA354FFC0D8FFB87FFFDE24FF87
:102FC300A3C4FFC130FFB8DAFFDE60FFA434FFC142
:102FD30088FFC906FFDE9CFFA4A4FFC1E0FFB9354B
:102FE300FFDED8FFA514FFC238FFB990FFDF14FF3F
:102FF300A584FFC290FFC95AFFD2FAFF732AFFB01C
:1030030042FFAA72FFD720FF742BFFB09EFFAACF07
:10301300FFD96CFF752CFFB0FAFFAB2CFFDACDFFA5
:10302300762DFFB156FFAB89FFD76AFF772EFFB12D
:10303300B2FFABE6FFD7B4FF782FFFB20EFFAC436E
:10304300FFAA14FF7930FFB26AFFACA0FFD7FEFFDF
:103053007A31FFB2C6FFACFDFFDA41FF7B32FFB32B
:1030630022FFAD5AFFD8DCFF7C33FFB37EFFADB741
:10307300FFD9B3FF7D34FFB3DAFFAE14FFDA87FF66
:103083007E35FFB436FFAE71FFDB0EFF7F36FFB434
:1030930092FFAECEFFD848FF8037FFB4EEFFAF2BD1
:1030A300FFD9FAFF8138FFB54AFFAF88FFDB4FFF37
:1030B3008239FFB5A6FFAFE5FFE968FFE77DFFE7CC
:1030C3008FFFE7A1FFE67EFFA5F4FFC2E8FFCB9CDD
:1030D300FFD5A9FF8B67FFC75BFFD03EFF2026FF0D
:1030E300E533FFE54FFFE56BFFE699FFA664FFC3FA
:1030F30040FFCBEDFFE6B4FFA6D4FFC398FFC3F0B8
:10310300FFE6CFFFA744FFC448FFC4A0FFE6EAFFE2
:10311300A7B4FFC4F8FFCC3EFFD5F4FF8C2FFFD339
:1031230047FFD08CFFD128FF8CF7FFD394FFD0DA71
:10313300FFD63FFF8DBFFFD3E1FFD176FFD68AFFD6
:103143008E87FFD42EFFD1C4FFE768FFE587FFE535
:10315300A3FFE5BFFFE705FFA824FFC550FFCC8F02
:10316300FFD6D5FF8F4FFFC7B2FFD212FFE4F6FFA2
:10317300E39EFFE3C4FFE3EA4303C4000000430309
:04318300C700200061
:1020860053D9BFE49008F8F0A3F09008E6123A8D11
:1020960000000000C298C299C2ACC28E12E25C1265
:1020A600E47812E4B875C7FFD294D295D296D2934B
:1020B600D297D2A7E49008E0F090081CF09005EFC4
:1020C600F09003DBF0900820F09004E8F09003D243
:1020D600F090081574FFF09003E074E4F0E49008C3
:1020E600F5F090082CF0A3F090088CF09008881278
:1020F6003A8D00000000E49008DFF0E5B05480FF60
:10210600E5A0543F4FFFE5C75408FE33333354F878
:102116004F9008F3F0900833E4F0A3741FF0A3E4A3
:10212600F0A3741FF0900838E4F0A3741FF0900831
:102136007BE4F0A3741FF090087EE4F0A3741FF014
:102146009005FEE4F0A3741FF0900601E4F0A3747A
:102156001FF0A3E4F0A3741FF090060CE4F0A37440
:102166001FF0A3E4F0A3741FF0E4900884F0900538
:10217600F9F09005F0123A8D000007449005F5122B
:102186003A8D0000026C900608123A8D000000009D
:102196009004EAE4F0A374BAF0E4900883F09003A4
:1021A600D3F0A3F0900818F09008877480F090069A
:1021B60000F09008227408F09003DDF0E49003CA62
:1021C600F090088FF012E2D99004E7E0B45506903B
:1021D60008E3E08001E49005EEF0E490087DF090DD
:1021E60005FA123A8D000367E0900A1C74C7F07F67
:1021F600007E007D007C00129C549008E6123A8D09
:1022060000000000E4FF7E10FDFC9008E6E0F8A365
:10221600E0F9A3E0FAA3E0FBC3123A4A4003022224
:10222600E6129417E49008F8F0A3F09008F8E0FEA0
:10223600A3E0FFC39410EE6480948040030222C49E
:10224600EFC4F8540FC868FFEEC454F048FE74E1BA
:102256002FF58274033EF583E0F470517F10FEFD86
:10226600FC9008E6E0F8A3E0F9A3E0FAA3E0FB128D
:10227600392DA804A905AA06AB079008F8E0FEA325
:10228600E0FFEE3395E0FDFCEB2FFFEA3EFEE93D75
:10229600FDE83CFC900888123A819008F87401F039
:1022A600A3E4F09008E6123A8D000200009008F9C7
:1022B600E004F070069008F8E004F002223190087D
:1022C600E6E0FCA3E0FDA3E0FEA3E02401FFE43E7C
:1022D600FEE43DFDE43CFC9008E6123A8102220A47
:1022E600E47F207E4EFDFC9008E6E0F8A3E0F9A32B
:1022F600E0FAA3E0FBC3123A4A50030223EA90082D
:10230600E6123A8D00000000E4FF7E10FDFC900806
:10231600E6E0F8A3E0F9A3E0FAA3E0FBC3123A4A29
:1023260040030223EA129417E49008F8F0A3F09011
:1023360008F8E0FEA3E0FFC39410EE6480948040AA
:10234600030223C8EFC4F8540FC868FFEEC454F064
:1023560048FE74E12FF58274033EF583E0F4705174
:102366007F10FEFDFC9008E6E0F8A3E0F9A3E0FA92
:10237600A3E0FB12392DA804A905AA06AB0790080D
:10238600F8E0FEA3E0FFEE3395E0FDFCEB2FFFEA5D
:102396003EFEE93DFDE83CFC900888123A81900833
:1023A600F87401F0A3E4F09008E6123A8D000200FA
:1023B600009008F9E004F070069008F8E004F002D6
:1023C60023359008E6E0FCA3E0FDA3E0FEA3E024AD
:1023D60001FFE43EFEE43DFDE43CFC9008E6123AD3
:1023E6008102230EC29853D2FD53D2FED2AC43A82B
:1023F60012C29843E70253D2FD53D2FE43D202D211
:102406009943E601D2AFE49003D0F09004E6F0E5FC
:10241600C730E3030224B1E5B030E7030224B14339
:10242600C18012D47B53C17F9003D0E060769009BF
:1024360002E0FF3395E0FE9008D6E0FDC39FEE6410
:1024460080F874809850159008FCE0FF3395E0FE04
:10245600D3ED9FEE6480F87480985007E490088569
:10246600F080069008857401F09008EFE0FF339540
:10247600E0FE9008D8E0FD7C00C39FEE6480F8740F
:10248600809850209008EAE0FF3395E0FED3ED9F58
:10249600EE6480F874809850028009900885E054B4
:1024A60001F08013E4900885F0800C9008D674FF44
:1024B600F0A3F0A3F0A3F09009027455F09008EF92
:1024C600F09008FC74F5F09008EAF012203E7F06C2
:1024D6001235567F041235567F011235569008FD87
:1024E600123A8D000000009004E5741EF0E490039B
:1024F600CCF09003DCF0900905E054DF12E20612FE
:10250600E8B612E8D412E85C12E87A53D9F075FD01
:10251600FF43D940E4900882F075FEFF12D892126C
:10252600BB759004E8E0640160030225C2F09008E0
:1025360093E064027075900892E09008E2F09008CB
:10254600E6123A8D000000009008E2E0FFE4FCFD90
:10255600FE9008E6E0F8A3E0F9A3E0FAA3E0FBC3E7
:10256600123A4A50509008E6A3A3A3E02492F582BB
:10257600E43408F583E0FF9008F4E0FE04F074EC20
:102586002EF582E43404F583EFF09008E6E0FCA330
:10259600E0FDA3E0FEA3E02401FFE43EFEE43DFDF2
:1025A600E43CFC9008E6123A81809D900895E0FF95
:1025B6007E0012E2879003E0E04480F09003D2E0D0
:1025C60064016003022666F0900843E0C394FB5062
:1025D6007C90083BE0FF9008F6E4F0A3EFF090084B
:1025E600E6123A8D000000009008F6E0FEA3E0FF38
:1025F600E4FCFD9008E6E0F8A3E0F9A3E0FAA3E026
:10260600FBC3123A4A50529008E6A3A3A3E0243B28
:10261600F582E43408F583E0FF9003CBE0FE04F096
:1026260074152EF582E43406F583EFF09008E6E0A3
:10263600FCA3E0FDA3E0FEA3E02401FFE43EFEE4EC
:102646003DFDE43CFC9008E6123A81809B900843ED
:10265600E0543FFF7E0012E2879003E0E04480F002
:10266600900827E07004A3E06464700C7F071235BD
:10267600DFE4900827F0A3F0900883E0B4800E9082
:102686000818E0600812A894E4900883F090088285
:10269600E0700302251F53D9BF9008E6123A8D0059
:1026A6000000007FFF7EFF7D1F7C009008E6E0F8BB
:1026B600A3E0F9A3E0FAA3E0FBC3123A4A50219043
:1026C60008E6E0FCA3E0FDA3E0FEA3E02401FFE4AE
:1026D6003EFEE43DFDE43CFC9008E6123A8180C3F0
:0E26E600E4900882F012E7D312E35602251F9B
:10E47800E4FFFE75B12075B9810FBF00010EEF648E
:0FE48800284E70F543B9C0E5B930E5FB75A9031F
:01E497002262
:10E25C0075F1FF75A45D75A5F375A68075F3BF7593
:10E26C00A74C75AE8575F4CD75F5BF75D48075D595
:0BE27C000175E10775E24075E3012227
:10E4B80012E93AE4FF12901712E7B312E7F312E7F2
:0FE4C8002012E9C612E9DF7F0512DFBF022072C2
:0FE7F300438920438E08758D40E4F58BD28E222A
:10E7B30075981075D21075AC4375B5FF75B44022CA
:01207200224B
:0CE93A0075A17075F80175A205C2FF22DE
:10DFBF008FBB75BA1F75BCB875E88075C40275C381
:10DFCF006F75C60175C59190081B7402F0900821FA
:10DFDF00746FF09008237401F09008267491F0226A
:04E9DF0075D10C22C0
:032023000299A27D
:1099A200C0E0C083C082C0D075D000C00730984EDE
:1099B200C2989008E0E060469005EFE0FF04F07482
:1099C200922FF582E43408F583E599F0900892E04D
:1099D200FF9005EFE0B50726900896E0FF6402606D
:1099E20004EFB403149004E87401F09005EFE4F07E
:1099F2009003E0E0547FF080059005EFE4F03099A9
:109A0200089008FA7401F0C299D007D0D0D082D061
:049A120083D0E032EB
:03208300029A16A8
:109A1600C0E0C083C082C0D075D000C007E5D23098
:109A2600E04453D2FE9003DBE0FF04F0743B2FF5D5
:109A360082E43408F583E5D3F090083BE0FF900319
:109A4600DBE0B5072190083FE0FF64026004EFB455
:109A5600030F9003E0E0547FF09003D27401F0808E
:109A6600009003DBE4F0E5D230E10EE5D230E50903
:109A760053D2FD9008FB7401F0D007D0D0D082D02D
:049A860083D0E03277
:10E28700D3EF9440EE940040047E007F409000005E
:10E2970075F003EF123ABEEE75F003A42583F583FC
:09E2A700A3E0FAA3E0F9023AF049
:1096C900E4900A10F09008E6123A8D00000000902C
:1096D9000892E0FFE4FCFDFE9008E6E0F8A3E0F95B
:1096E900A3E0FAA3E0FBC3123A4A50399008E6A373
:1096F900A3A3E02492F582E43408F583E0FF900AFD
:1097090010E02FF09008E6E0FCA3E0FDA3E0FEA343
:10971900E02401FFE43EFEE43DFDE43CFC9008E664
:10972900123A8180AA900A10E0700C9003CAF09056
:0C973900088204F002E457E4FF1290DE06
:019745002201
:10542F00E4900A10F09008E6123A8D000000009008
:10543F000892E0FFE4FCFDFE9008E6E0F8A3E0F937
:10544F00A3E0FAA3E0FBC3123A4A50399008E6A34F
:10545F00A3A3E02492F582E43408F583E0FF900AD9
:10546F0010E02FF09008E6E0FCA3E0FDA3E0FEA320
:10547F00E02401FFE43EFEE43DFDE43CFC9008E641
:10548F00123A8180AA900A10E060030255BE741987
:10549F00F09003CBE0FF04F074152FF582E434068F
:1054AF00F5837416F0900894E0FF9003CBE0FE04B0
:1054BF00F074152EF582E43406F583EFF0900A10A0
:1054CF00E02FF0900893E0FF9003CBE0FE04F07420
:1054DF00152EF582E43406F583EFF0900A10E02FD5
:1054EF00F0900895E0FF9003CBE0FE04F074152ECA
:1054FF00F582E43406F583EFF0900A10E02FF09078
:10550F0003CBE0FF04F074152FF582E43406F58326
:10551F007403F09008E6123A8D00000000E47F104B
:10552F00FEFDFC9008E6E0F8A3E0F9A3E0FAA3E0A3
:10553F00FBC3123A4A504D9008E6A3A3A3E0FF9095
:10554F00E7E393FE9003CBE0FD04F074152DF58295
:10555F00E43406F583EEF0EF90E7E393FF900A1043
:10556F00E02FF09008E6E0FCA3E0FDA3E0FEA3E04F
:10557F002401FFE43EFEE43DFDE43CFC9008E6120E
:10558F003A818099900A10E0FFC3E49FFF9003CB0C
:10559F00E0FE04F074152EF582E43406F583EFF087
:1055AF009008F7E02416F09008F6E03400F0227F20
:0455BF002D1290DE3B
:0155C30022C5
:1090DE007E0A9003CBE0FD04F074152DF582E43486
:1090EE0006F5837407F0900894E0FD9003CBE0FC46
:1090FE0004F074152CF582E43406F583EDF0ED2EB4
:10910E00FE900893E0FD9003CBE0FC04F074152C68
:10911E00F582E43406F583EDF0ED2EFE9003CBE000
:10912E00FD04F074152DF582E43406F583741FF0FA
:10913E00900895E02EFE9003CBE0FD04F074152D03
:10914E00F582E43406F5837403F09003CBE0FD045E
:10915E00F074152DF582E43406F583EFF02EFFC37F
:10916E00E49FFF9003CBE0FE04F074152EF582E42D
:10917E003406F583EFF09008F7E02407F09008F638
:04918E00E03400F0D9
:0191920022BA
:109193007F0A9003CBE0FE04F074152EF582E434CD
:1091A30006F5837407F0900894E0FE9003CBE0FD8E
:1091B30004F074152DF582E43406F583EEF0EE2FFA
:1091C300FF900893E0FE9003CBE0FD04F074152DAF
:1091D300F582E43406F583EEF0EE2FFF900895E078
:1091E300FE9003CBE0FD04F074152DF582E4340604
:1091F300F583EEF0EE2FFF9003CBE0FE04F0741541
:109203002EF582E43406F5837403F09003CBE0FE7D
:1092130004F074152EF582E43406F583E4F0C39F5D
:10922300FF9003CBE0FE04F074152EF582E43406C0
:10923300F583EFF09008F7E02407F09008F6E034A8
:0292430000F039
:019245002206
:10C9AE00900897E0FEA3E0FBEBFF9003DEEEF0A312
:10C9BE00EFF09003D1F0900899E09005ECF090081C
:10C9CE009AE09008D5F090089BE09008D4F090067D
:10C9DE00157443F0A3744CF0A3744FF0A3744BF092
:10C9EE00A3740AF09008F6E4F0A37405F0E490083E
:03C9FE00F5F0222F
:10E22F00900897E09004E5F09006157453F0A374EE
:10E23F0041F0A37452F0A3743DF0A3740AF0900858
:0DE24F00F6E4F0A37405F0E49008F5F02269
:0EE910009008FAE060FAE49008FAF08F99227D
:0EE91E009008FBE060FAE49008FBF08FD32233
:08200300C2FF8FA330FFFD2294
:07207600EFF0E4FF1220036C
:06207D0030FFFDAFA322BD
:10203E00C2961220781220799008251220769008E8
:10204E002E1220769008D3122076900881122076D8
:10205E009005F41220769008801220769008F0EF0A
:04206E00F0D29622F4
:109B7100E4900A0EF0A3F0C2967F1912200312207E
:109B81007D8021C3900A0EE09401501F12207DE4D4
:109B910075F001123917FC740E25F0F58274093C39
:109BA100F583EFF07F1912200380D8D296E4900A52
:109BB1000EF0A3F0900A0EE0FEA3E0FFC3EE9401C5
:109BC100501F740E2FF582E43409F583E0FD1295E0
:109BD10033900A0FE004F070DB900A0EE004F0808D
:019BE100D3B0
:019BE2002260
:10E30200E4FEC2967F9912200312207DFDFCAF0627
:10E312000E12200312207D0DBD00010CE4B505EEA6
:06E32200ECB401EAD29602
:01E3280022D2
:10953300900A60EFF0A3EDF0900A60E0C4540FFFCF
:10954300C3940A4005EF24378009900A60E0C454AD
:109553000F2430FF12E377900A60E0540FFFC394A7
:109563000A4005EF24378008900A60E0540F243046
:10957300FF12E3777F3A12E377900A61E0C4540F56
:10958300FFC3940A4005EF24378009900A61E0C4C1
:10959300540F2430FF12E377900A61E0540FFFC3A6
:1095A300940A4005EF24378008900A61E0540F24A1
:0A95B30030FF12E3777F2002E37718
:10941700E4FF7E01FDFC9008E6E0F8A3A3A3E012B9
:02942700392DDD
:06942900900A18123A81BE
:10942F0053C7FBC2FF75A30330FFFDC2FF900A189D
:10943F00E0FCA3E0FDA3E0FEA3E0FF7810123A5B8F
:10944F008FA330FFFDC2FF900A18E0FCA3E0FDA33D
:10945F00E0FEA3E0FF7808123A5B8FA330FFFDC256
:10946F00FF900A18A3A3A3E0F5A330FFFDE4FFFECE
:10947F00C2FFE4F5A330FFFD74E12FF58274033EC4
:10948F00F583E5A3F00FBF00010EE4B507E2EEB4DC
:07949F0001DE43C7047FE179
:0194A60022A3
:10924600900A54123A81900A58EBF0A3EAF0A3E987
:01925600F027
:1092570053C7FBC2FF75A30630FFFD43C70453C7BF
:10926700FBC2FF75A30230FFFDC2FF900A54E0FC6A
:10927700A3E0FDA3E0FEA3E0FF7810123A5B8FA303
:1092870030FFFDC2FF900A54E0FCA3E0FDA3E0FE1F
:10929700A3E0FF7808123A5B8FA330FFFDC2FF906F
:1092A7000A54A3A3A3E0F5A330FFFDE4FFFED39088
:1092B700082DE09F90082CE09E4021C2FF900A589D
:1092C700E0FBA3E475F001123917A9F0FA12383957
:1092D700F5A330FFFD0FBF00010E80D2C2FF43C7C9
:0192E7000482
:0192E8002263
:109C5400900A18123A8153C7FBC2FF75A30630FF5E
:109C6400FD43C70453C7FBC2FF900A1CE0F5A330B1
:109C7400FFFD900A1CE064C76042C2FF900A18E02E
:109C8400FCA3E0FDA3E0FEA3E0FF7810123A5B8F93
:109C9400A330FFFDC2FF900A18E0FCA3E0FDA3E09F
:109CA400FEA3E0FF7808123A5B8FA330FFFDC2FFEA
:109CB400900A18A3A3A3E0F5A330FFFD43C7042231
:0FE7C300E4900A5FF0900A5B123A8D00000100AB
:01E7D2002224
:10938200900897E0900825F0900898E090082EF059
:10939200900899E09008D3F090089AE0900881F044
:1093A20090089BE09005F4F090089CE0900880F013
:1093B20090089DE09008F0F043C180900825E0FB02
:1093C2007DD07C00E4FF12D92B90082E7F0112D9A8
:1093D200259008D37F0212D925900881E0FB7DD029
:1093E2007C007F0312D92B9005F4E0FB7DD07C003A
:1093F2007F0412D92B900880E0FB7DD07C007F0592
:1094020012D92B9008F0E0FB7DD07C007F0612D9A8
:059412002B53C17F2275
:104A4200E4900A10F09008E6123A8D0000000090FF
:104A52000892E0FFE4FCFDFE9008E6E0F8A3E0F92E
:104A6200A3E0FAA3E0FBC3123A4A50399008E6A346
:104A7200A3A3E02492F582E43408F583E0FF900AD0
:104A820010E02FF09008E6E0FCA3E0FDA3E0FEA317
:104A9200E02401FFE43EFEE43DFDE43CFC9008E638
:104AA200123A8180AA900A10E06003024BEBC29393
:104AB200900897E0900825F0900898E090082EF072
:104AC200900899E09008D3F090089AE0900881F05D
:104AD20090089BE09005F4F090089CE0900880F02C
:104AE20090089DE09008F0F0E4900A10F0900A100F
:104AF200E004F0E0B4FFF6D293C2967F8012200366
:104B020012207D900825E012207990082EE01220D4
:104B1200799008D3E0122079900881E012207990F0
:104B220005F4E0122079900880E01220799008F0D4
:104B3200E0122079D296900A107409F09003CBE02B
:104B4200FF04F074152FF582E43406F5837406F041
:104B5200900894E0FF9003CBE0FE04F074152EF56C
:104B620082E43406F583EFF0900A10E02FF090080B
:104B720093E0FF9003CBE0FE04F074152EF582E47F
:104B82003406F583EFF0900A10E02FF0900895E0DC
:104B9200FF9003CBE0FE04F074152EF582E4340698
:104BA200F583EFF0900A10E02FF09003CBE0FF04C2
:104BB200F074152FF582E43406F5837403F0900A3D
:104BC20010E0FFC3E49FFF9003CBE0FE04F07415F6
:104BD2002EF582E43406F583EFF09008F7E0240620
:0E4BE200F09008F6E03400F0227F071290DE1B
:014BF00022A2
:07E9C60075C15D43C1802211
:10E72000E4F591538E3F759398F592859395859274
:08E730009443E68043910422AA
:03203B00026656E4
:10665600C0E0C0F0C083C082C0D075D000C000C00A
:0B66660001C002C003C004C005C00753
:10667100C207E5C054F02480700302671824C0608B
:106681002024E06003026766900837E0F5C253C238
:10669100FEA205E43342C2C2C59000C3E4F0026722
:1066A1006830C168300007D2C5C200026768300394
:1066B10015C203900824E0F5C2200203026768D2E4
:1066C10000D2050267683005030267689005EDE0B6
:1066D100FF9000C3E0FD3395E0FCC3ED9F7480F8AB
:1066E1006C985022900605E0FBA3E0FAA3E0F912B2
:1066F1003839F5C2900606E475F0011239019000AF
:10670100C3E004F08061D2C4C201805B300404D2D2
:10671100C58054D20780509005EDE0FF9000C3E0A2
:10672100FD3395E0FCC3ED9F7480F86C9850229086
:106731000830E0FBA3E0FAA3E0F9E5C21238529079
:106741000831E475F0011239019000C3E004F0D280
:10675100C19000C3E0FF9005EDE0B5070AC201C298
:10676100C1D2C48002D20730071053C17F43C18018
:0C677100C2C5C2C4C2C1C201C207C2C07E
:10677D00D007D005D004D003D002D001D000D0D0A6
:09678D00D082D083D0F0D0E032BC
:0320730002E92C53
:0EE92C0053C17F43C18053917FC2C5C20132E7
:06D92500E0FB7DD07C0058
:10D92B00E4FE3001080EEEB4FFF8E4802FD2019034
:10D93B000837EDF0C205D203C202D204900824EFDF
:10D94B00F09004E9EBF09006057401F0A37404F079
:10D95B00A374E9F09005ED7401F0D2C59003D0F0FB
:01D96B002299
:05CD3100900A49EFF03B
:10CD3600900A51EBF0A3EAF0A3E9F0E4900A50F070
:10CD4600900A4FE0FFA3E0C39F502E900A49E0FFF0
:10CD560004F0900A4DE0FCA3E0FD900A51E0FBA32D
:10CD6600E475F001123917A9F0FA123839FB12D915
:09CD76002B900A50E004F080C784
:01CD7F002291
:10C80900E4FE30010D0EEEB4FFF8E49003D0F07FA2
:10C81900FF22D201900837EDF0C205D203D202D22D
:10C8290004900824EFF09008307401F0A3740AF022
:10C83900A37462F09005ED7401F0D2C5E4FE3001F5
:10C84900080EEEB4FFF87FFF229003D07401F09038
:04C859000A62E0FF90
:01C85D0022B8
:109AFE007B017A0879D8900A40E4F07492A3F0A31F
:059B0E007402F0E4FD0B
:109B1300E4FFFE30010D0FBF00010EBEFFF5BFFFD6
:109B2300F2803ED201900A40A3E0900837F0C205CC
:109B3300D203D202D204900824EDF0900830EBF067
:109B4300A3EAF0A3E9F0900A42E09005EDF0D2C554
:109B5300E4FEFF3001110FBF00010EBEFFF5BFFF92
:0D9B6300F2E49003D0F0229003D07401F0E2
:019B700022D2
:0D58C100B2B0E490082FF09008847408F055
:1058CE00900A107414F09003CBE0FF04F074152FBF
:1058DE00F582E43406F5837409F09003CBE0FF04FF
:1058EE00F074152FF582E43406F583E4F09003CBC3
:1058FE00E0FF04F074152FF582E43406F58374018D
:10590E00F09003CBE0FF04F074152FF582E434061B
:10591E00F5837408F09003CBE0FF04F074152FF5B7
:10592E0082E43406F5837402F09003CAE0FF54C09B
:10593E00FEBE8013A3E0FE04F074152EF582E4344F
:10594E0006F583E4F08046EF5430FFBF201C900331
:10595E00CBE0FF04F074152FF582E43406F5837462
:10596E0001F0900A10E004F080239003CAE0540C7A
:10597E00FFBF0819A3E0FF04F074152FF582E4347D
:10598E0006F5837402F0900A10E02402F0900608E7
:10599E00E0FCA3E0FDA3E0FEA3E0FF9005F0E0F83D
:1059AE00A3E0F9A3E0FAA3E02FFFEA3EFEE93DFDF6
:1059BE00E83CFCE47B3EFAF9F81239B8AD07AC06C8
:1059CE00ECFF9003CBE0FE04F074152EF582E43468
:1059DE0006F583EFF0900A10E02FF0AF059003CBA1
:1059EE00E0FE04F074152EF582E43406F583EFF034
:1059FE00900A10E02FF0E0FFC3E49FFF9003CBE08E
:105A0E00FE04F074152EF582E43406F583EFF09063
:0D5A1E0008F7E02409F09008F6E03400F0ED
:015A2B002258
:03833A007480F05C
:10833D007F139005F97401F09003CBE0FE04F07407
:10834D00152EF582E43406F5837407F09003CBE027
:10835D00FE04F074152EF582E43406F583E4F090F6
:10836D0003CBE0FE04F074152EF582E43406F5839C
:10837D007401F09003CBE0FE04F074152EF582E449
:10838D003406F5837409F09003CBE0FE04F0741508
:10839D002EF582E43406F5837402F09003CAE0FEF4
:1083AD0054C0FDBD4013A3E0FD04F074152DF582FE
:1083BD00E43406F583E4F0803CEE5430FEBE101735
:1083CD009003CBE0FE04F074152EF582E43406F52F
:1083DD00837401F00F801E9003CAE0540CFEBE049E
:1083ED0014A3E0FE04F074152EF582E43406F58333
:1083FD007402F00F0FC3E49FFF9003CBE0FE04F077
:10840D0074152EF582E43406F583EFF09008F7E04D
:0A841D002407F09008F6E03400F0A8
:018427002232
:10DF50007F0C12E9107F0112E9101F12E9107F07F0
:10DF600012E9107F0212E9107F0812E9107F0112F6
:10DF7000E9107F1112E9107F0612E9107F1512E9EE
:0BDF8000107F2012E9107F3002E91032
:103AF600E4900A14F09008E6123A8D000000009057
:103B06000892E0FFE4FCFDFE9008E6E0F8A3E0F989
:103B1600A3E0FAA3E0FBC3123A4A50399008E6A3A1
:103B2600A3A3E02492F582E43408F583E0FF900A2B
:103B360014E02FF09008E6E0FCA3E0FDA3E0FEA36E
:103B4600E02401FFE43EFEE43DFDE43CFC9008E693
:103B5600123A8180AA900A14E06003023D9390080D
:103B660084E04480F0900896E064036003023C0120
:103B7600A3E0FFE4FCFDFE7808123A6EE4FFE4FDE4
:103B8600FC900A10123A81900A10E0F8A3E0F9A31B
:103B9600E0FAA3E0FB900898E0FFE4FCFDFEEB2FC3
:103BA600FFEE3AFEED39FDEC38FC900A10123A8130
:103BB600900A10E0FCA3E0FDA3E0FEA3E0FFE47B97
:103BC6003EFAF9F812392D900A10123A8190060839
:103BD600E0FCA3E0FDA3E0FEA3E0FF900A10E0F8FE
:103BE600A3E0F9A3E0FAA3E0FBEF2BFFEE3AFEED2C
:103BF60039FDEC38FC900608123A81900896E0648C
:103C0600026003023D98900A147414F09003CBE00E
:103C1600FF04F074152FF582E43406F5837408F07A
:103C26009003CBE0FF04F074152FF582E43406F51B
:103C360083E4F09003CBE0FF04F074152FF582E4E3
:103C46003406F5837401F09003CBE0FF04F074159D
:103C56002FF582E43406F5837408F09003CBE0FF79
:103C660004F074152FF582E43406F5837403F0909E
:103C76000897E0FFE4FCFDFE7808123A6EE4FFE4E4
:103C8600FDFC900A10123A81900A10E0F8A3E0F9C0
:103C9600A3E0FAA3E0FB900898E0FFE4FCFDFEEB4E
:103CA6002FFFEE3AFEED39FDEC38FC900A10123A81
:103CB60081900A10E0FCA3E0FDA3E0FEA3E0FFE490
:103CC6007B3EFAF9F812392D900A10123A819006C5
:103CD60008E0FCA3E0FDA3E0FEA3E0FF900A10E0ED
:103CE600F8A3E0F9A3E0FAA3E0FBEF2BFFEE3AFE20
:103CF600ED39FDEC38FC900608123A81900608E092
:103D0600FCA3E0FDA3E0FEA3E0FF9005F0E0F8A32E
:103D1600E0F9A3E0FAA3E02FFFEA3EFEE93DFDE865
:103D26003CFCE47B3EFAF9F81239B8AD07AC06EC78
:103D3600FF9003CBE0FE04F074152EF582E4340602
:103D4600F583EFF0900A14E02FF0AF059003CBE077
:103D5600FE04F074152EF582E43406F583EFF09038
:103D66000A14E02FF0E0FFC3E49FFF9003CBE0FED0
:103D760004F074152EF582E43406F583EFF090080E
:103D8600F7E02408F09008F6E03400F0227F0812ED
:023D960090DEBD
:013D98002208
:10CD8000E4FFFE900892E0FDEEC39D501074922ED9
:10CD9000F582E43408F583E02FFF0E80E6EF70287B
:10CDA000900884F0900608123A8D00000000900868
:10CDB00097E07F02600512355680031235DFE4905C
:0DCDC00005F9F0900884F0227F091290DE42
:01CDCD002243
:10E7380075F003EFA424C4F582E5F03400F583A353
:08E74800E0FAA3E0F9023AF047
:10E4D700900611123A8D000000009004E1123A8D67
:0FE4E7000000000090090A123A8D000000002288
:06E9CD00E49003CAF022F1
:06E9D300E49003CAF022EB
:06E9D900E49003CAF022E5
:10E5F700E49008E0F09004E1123A8D0000000090EA
:0BE6070003CAE004F012E7D302E901AF
:109CC4009004E1E0FCA3E0FDA3E0FEA3E02401FF97
:109CD400E43EFEE43DFDE43CFC9004E1123A819054
:109CE40004E1A3A3A3E05401FFE4FEFDFCFBFAF9A5
:109CF400F8C3123A4A700EB2B09005EFF090089291
:109D0400F09008E0F0E47F06FEFDFC9004E1E0F84A
:109D1400A3E0F9A3E0FAA3E0FBC3123A4A7010905F
:109D240004E1123A8D000000009003CAE004F0221E
:10BC08009004E1E0FCA3E0FDA3E0FEA3E02401FF33
:10BC1800E43EFEE43DFDE43CFC9004E1123A8190F0
:10BC280004E1A3A3A3E05401FFE4FEFDFCFBFAF941
:10BC3800F8C3123A4A70209004E1123A8D000000CD
:10BC480000B2B09003CAE004F0E49005EFF0900869
:08BC580092F09008E004F022D4
:10CDCE009004E1E0FCA3E0FDA3E0FEA3E02401FF5C
:10CDDE00E43EFEE43DFDE43CFC9004E1123A819019
:10CDEE0004E1A3A3A3E05401FFE4FEFDFCFBFAF96A
:10CDFE00F8C3123A4A700C9004E1123A8D0000000A
:0ECE0E0000B2B0900884E030E30312833A22B1
:10CE1C009004E1E0FCA3E0FDA3E0FEA3E02401FF0D
:10CE2C00E43EFEE43DFDE43CFC9004E1123A8190CA
:10CE3C0004E1A3A3A3E05401FFE4FEFDFCFBFAF91B
:10CE4C00F8C3123A4A70169004E1123A8D000000B1
:0ECE5C00001258C19003CAE054FC4402F022B8
:10C5A8009004E1E0FCA3E0FDA3E0FEA3E02401FF8A
:10C5B800E43EFEE43DFDE43CFC9004E1123A819047
:10C5C80004E1A3A3A3E05401FFE4FEFDFCFBFAF998
:10C5D800F8C3123A4A701F9004E1123A8D00000025
:10C5E80000B2B09004E1123A8D000000009003CA36
:07C5F800E054FC4401F022B5
:1086B7009005F0E0FCA3E0FDA3E0FEA3E0FF90043B
:1086C700E1E0F8A3E0F9A3E0FAA3E0FBC3123A4A1A
:1086D700703B900608E0FCA3E0FDA3E0FEA3E0FFEB
:1086E700EC4D4E4F601F900608A3A3A3E024FFFFA5
:1086F700EE34FFFEED34FFFDEC34FFFC900608126C
:108707003A81B2B0229003CAE054FCF0229004E10F
:10871700E0FCA3E0FDA3E0FEA3E02401FFE43EFEAE
:10872700E43DFDE43CFC9004E1123A819004E1A3AE
:10873700A3A3E05401FFE4FEFDFCFBFAF9F8C31222
:108747003A4A7002B2B09004E1A3A3A3E0543FFFFA
:10875700E4FEFDFCFBFAF9F8C3123A4A70199008D7
:108767002FE0D394055010900884E020E7091258B1
:08877700CE90082FE004F0226F
:10CA01009004E1123A8D000000009003CAE0440452
:10CA110012E51BE4900884F0900892F0900615F05E
:10CA21009003CBF09008F5F09005EFF09003DAF069
:10CA3100900818F09003D3F0A3F0900608123A8DF5
:10CA4100000000001292E990087DE06005E4F01218
:03CA5100E3562287
:0BE952009004E1123A8D00000000224A
:08E97E009003CAE054FCF022F2
:08E986009003CAE054FCF022EA
:08E98E009003CAE054FCF022E2
:10E61200E49008E0F09003CAE004F090090A123A8C
:0BE622008D0000000012E7D302E901A8
:109D340090090AE0FCA3E0FDA3E0FEA3E02401FFF8
:109D4400E43EFEE43DFDE43CFC90090A123A8190B5
:109D5400090AA3A3A3E05401FFE4FEFDFCFBFAF906
:109D6400F8C3123A4A700EB2B09005EFF090089220
:109D7400F09008E0F0E47F06FEFDFC90090AE0F8AC
:109D8400A3E0F9A3E0FAA3E0FBC3123A4A701090EF
:109D9400090A123A8D000000009003CAE004F02280
:10BC600090090AE0FCA3E0FDA3E0FEA3E02401FFAD
:10BC7000E43EFEE43DFDE43CFC90090A123A81906A
:10BC8000090AA3A3A3E05401FFE4FEFDFCFBFAF9BB
:10BC9000F8C3123A4A702090090A123A8D00000047
:10BCA00000B2B09003CAE004F0E49005EFF0900811
:08BCB00092F09008E004F0227C
:10CE6A0090090AE0FCA3E0FDA3E0FEA3E02401FF91
:10CE7A00E43EFEE43DFDE43CFC90090A123A81904E
:10CE8A00090AA3A3A3E05401FFE4FEFDFCFBFAF99F
:10CE9A00F8C3123A4A700C90090A123A8D0000003F
:0ECEAA0000B2B0900884E030E30312833A2215
:10E62D00E49008E0F09003CAE004F090090A123A71
:0BE63D008D0000000012E7D302E9018D
:109DA40090090AE0FCA3E0FDA3E0FEA3E02401FF88
:109DB400E43EFEE43DFDE43CFC90090A123A819045
:109DC400090AA3A3A3E05401FFE4FEFDFCFBFAF996
:109DD400F8C3123A4A700EB2B09005EFF0900892B0
:109DE400F09008E0F0E47F06FEFDFC90090AE0F83C
:109DF400A3E0F9A3E0FAA3E0FBC3123A4A7010907F
:109E0400090A123A8D000000009003CAE004F0220F
:10BCB80090090AE0FCA3E0FDA3E0FEA3E02401FF55
:10BCC800E43EFEE43DFDE43CFC90090A123A819012
:10BCD800090AA3A3A3E05401FFE4FEFDFCFBFAF963
:10BCE800F8C3123A4A702090090A123A8D000000EF
:10BCF80000B2B09003CAE004F0E49005EFF09008B9
:08BD080092F09008E004F02223
:10CAFA0090090AE0FCA3E0FDA3E0FEA3E02401FF05
:10CB0A00E43EFEE43DFDE43CFC90090A123A8190C1
:10CB1A00090AA3A3A3E05401FFE4FEFDFCFBFAF912
:10CB2A00F8C3123A4A700C90090A123A8D000000B2
:10CB3A0000B2B0900884E030E3067480F012833DBE
:01CB4A0022C8
:10E2B000E49008E0F09003CAE04404F0E004F09039
:10E2C000090A123A8D000000009004E1123A8D0014
:09E2D00000000012E7D302E9018D
:109A8A0090090AE0FCA3E0FDA3E0FEA3E02401FFA5
:109A9A00E43EFEE43DFDE43CFC90090A123A819062
:109AAA00090AA3A3A3E05401FFE4FEFDFCFBFAF9B3
:109ABA00F8C3123A4A700EB2B09005EFF0900892CD
:109ACA00F09008E0F0E47F06FEFDFC90090AE0F859
:109ADA00A3E0F9A3E0FAA3E0FBC3123A4A70149098
:109AEA00090A123A8D000000009003CAE04404F00B
:049AFA00E004F02272
:10A8FA0090090AE0FCA3E0FDA3E0FEA3E02401FF27
:10A90A00E43EFEE43DFDE43CFC90090A123A81E48F
:10A91A007F02FEFDFC90090AE0F8A3E0F9A3E0FA41
:10A92A00A3E0FBC3123A4A702490090A123A8D0036
:10A93A00000000B2B09003CAE04404F0E004F0E47E
:0EA94A009005EFF0900892F09008E004F022E3
:10BAA1009003CAE04404F090090AE0FCA3E0FDA37E
:10BAB100E0FEA3E02401FFE43EFEE43DFDE43CFCA6
:10BAC10090090A123A81E47F02FEFDFC90090AE026
:10BAD100F8A3E0F9A3E0FAA3E0FBC3123A4A700C21
:10BAE10090090A123A8D00000000B2B0900884E07B
:0ABAF10030E3067480F012833D225A
:10E64800E49008E0F09003CAE004F090090A123A56
:0BE658008D0000000012E7D302E90172
:109E140090090AE0FCA3E0FDA3E0FEA3E02401FF17
:109E2400E43EFEE43DFDE43CFC90090A123A8190D4
:109E3400090AA3A3A3E05401FFE4FEFDFCFBFAF925
:109E4400F8C3123A4A700EB2B09005EFF09008923F
:109E5400F09008E0F0E47F06FEFDFC90090AE0F8CB
:109E6400A3E0F9A3E0FAA3E0FBC3123A4A7010900E
:109E7400090A123A8D000000009003CAE004F0229F
:10BAFB0090090AE0FCA3E0FDA3E0FEA3E02401FF14
:10BB0B00E43EFEE43DFDE43CFC90090A123A81E47C
:10BB1B007F02FEFDFC90090AE0F8A3E0F9A3E0FA2E
:10BB2B00A3E0FBC3123A4A702090090A123A8D0027
:10BB3B00000000B2B09003CAE004F0E49005EFF00F
:0ABB4B00900892F09008E004F02248
:10CA540090090AE0FCA3E0FDA3E0FEA3E02401FFAB
:10CA6400E43EFEE43DFDE43CFC90090A123A81E414
:10CA74007F02FEFDFC90090AE0F8A3E0F9A3E0FAC6
:10CA8400A3E0FBC3123A4A700C90090A123A8D00D3
:10CA9400000000B2B0900884E030E3067480F01225
:03CAA400833D22AD
:10CEB80090090AE0FCA3E0FDA3E0FEA3E02401FF43
:10CEC800E43EFEE43DFDE43CFC90090A123A819000
:10CED800090AA3A3A3E05401FFE4FEFDFCFBFAF951
:10CEE800F8C3123A4A701690090A123A8D000000E7
:0ECEF800001258C19003CAE054FC4402F0221C
:10C5FF0090090AE0FCA3E0FDA3E0FEA3E02401FF05
:10C60F00E43EFEE43DFDE43CFC90090A123A8190C1
:10C61F00090AA3A3A3E05401FFE4FEFDFCFBFAF912
:10C62F00F8C3123A4A701F90090A123A8D0000009F
:10C63F0000B2B09003CAE054FC4401F090090A1212
:07C64F003A8D0000000022FB
:10877F009005F0E0FCA3E0FDA3E0FEA3E0FF90096D
:10878F000AE0F8A3E0F9A3E0FAA3E0FBC3123A4A28
:10879F00703B900608E0FCA3E0FDA3E0FEA3E0FF22
:1087AF00EC4D4E4F601F900608A3A3A3E024FFFFDC
:1087BF00EE34FFFEED34FFFDEC34FFFC90060812A3
:1087CF003A81B2B0229003CAE054FCF02290090A19
:1087DF00E0FCA3E0FDA3E0FEA3E02401FFE43EFEE6
:1087EF00E43DFDE43CFC90090A123A8190090AA38A
:1087FF00A3A3E05401FFE4FEFDFCFBFAF9F8C3125A
:10880F003A4A7002B2B090090AA3A3A3E0543FFF03
:10881F00E4FEFDFCFBFAF9F8C3123A4A701990080E
:10882F002FE0D394055010900884E020E7091258E8
:08883F00CE90082FE004F022A6
:10C6560090090A123A8D000000009003CAE04410C7
:10C66600F0E49008E0F0C2B0900884F0900892F0F0
:10C67600900615F09003CBF09008F5F09005EFF0DA
:10C686009003DAF0900818F09003D3F0A3F0900628
:10C6960008123A8D000000001292E990087DE060D1
:07C6A60005E4F012E3562247
:10CF060090090AE0FCA3E0FDA3E0FEA3E02401FFF4
:10CF1600E43EFEE43DFDE43CFC90090A123A8190B1
:10CF2600090AA3A3A3E05401FFE4FEFDFCFBFAF902
:10CF3600F8C3123A4A701690090A123A8D00000098
:0ECF4600001258C19003CAE054FC4402F022CD
:10C6AD0090090AE0FCA3E0FDA3E0FEA3E02401FF56
:10C6BD00E43EFEE43DFDE43CFC90090A123A819013
:10C6CD00090AA3A3A3E05401FFE4FEFDFCFBFAF964
:10C6DD00F8C3123A4A701F90090A123A8D000000F1
:10C6ED0000B2B09003CAE054FC4401F090090A1264
:07C6FD003A8D00000000224D
:108847009005F0E0FCA3E0FDA3E0FEA3E0FF9009A4
:108857000AE0F8A3E0F9A3E0FAA3E0FBC3123A4A5F
:10886700703B900608E0FCA3E0FDA3E0FEA3E0FF59
:10887700EC4D4E4F601F900608A3A3A3E024FFFF13
:10888700EE34FFFEED34FFFDEC34FFFC90060812DA
:108897003A81B2B0229003CAE054FCF02290090A50
:1088A700E0FCA3E0FDA3E0FEA3E02401FFE43EFE1D
:1088B700E43DFDE43CFC90090A123A8190090AA3C1
:1088C700A3A3E05401FFE4FEFDFCFBFAF9F8C31291
:1088D7003A4A7002B2B090090AA3A3A3E0543FFF3B
:1088E700E4FEFDFCFBFAF9F8C3123A4A7019900846
:1088F7002FE0D394055010900884E020E709125820
:08890700CE90082FE004F022DD
:10CF540090090A123A8D000000009003CAE04410C0
:10CF6400F054F0F0E49008E0F0C2B0900884F0903F
:10CF74000892F0900615F09003CBF09008F5F0902D
:10CF840005EFF09003DAF0900818F09003D3F0A3C3
:0ECF9400F0900608123A8D000000000292E9AB
:10CFA20090090AE0FCA3E0FDA3E0FEA3E02401FF58
:10CFB200E43EFEE43DFDE43CFC90090A123A819015
:10CFC200090AA3A3A3E05401FFE4FEFDFCFBFAF966
:10CFD200F8C3123A4A701690090A123A8D000000FC
:0ECFE200001258C19003CAE054FC4402F02231
:10D2600090090AE0FCA3E0FDA3E0FEA3E02401FF97
:10D27000E43EFEE43DFDE43CFC90090A123A819054
:10D28000090AA3A3A3E05401FFE4FEFDFCFBFAF9A5
:10D29000F8C3123A4A7015B2B09003CAE054FC4485
:0DD2A00001F090090A123A8D0000000022F2
:10890F009005F0E0FCA3E0FDA3E0FEA3E0FF9009DB
:10891F000AE0F8A3E0F9A3E0FAA3E0FBC3123A4A96
:10892F00703B900608E0FCA3E0FDA3E0FEA3E0FF90
:10893F00EC4D4E4F601F900608A3A3A3E024FFFF4A
:10894F00EE34FFFEED34FFFDEC34FFFC9006081211
:10895F003A81B2B0229003CAE054FCF02290090A87
:10896F00E0FCA3E0FDA3E0FEA3E02401FFE43EFE54
:10897F00E43DFDE43CFC90090A123A8190090AA3F8
:10898F00A3A3E05401FFE4FEFDFCFBFAF9F8C312C8
:10899F003A4A7002B2B090090AA3A3A3E0543FFF72
:1089AF00E4FEFDFCFBFAF9F8C3123A4A701990087D
:1089BF002FE0D394055010900884E020E709125857
:0889CF00CE90082FE004F02215
:10D4C80090090A123A8D000000009003CAE0441443
:10D4D800F0E49008E0F0C2B0900884F0900892F070
:10D4E800900615F09003CBF09008F5F09005EFF05A
:10D4F8009003DAF0900818F09003D3F0A3F09006A8
:0BD5080008123A8D000000000292E9BA
:10B6020090090AE0FCA3E0FDA3E0FEA3E02401FF11
:10B61200E43EFEE43DFDE43CFC90090A123A8190CE
:10B62200090AA3A3A3E05401FFE4FEFDFCFBFAF91F
:10B63200F8C3123A4A702390090A123A8D000000A8
:10B6420000B2B090082F7408F0E4900884F0125809
:0BB65200CE9003CAE054FC4402F0223A
:10D2AD0090090AE0FCA3E0FDA3E0FEA3E02401FF4A
:10D2BD00E43EFEE43DFDE43CFC90090A123A819007
:10D2CD00090AA3A3A3E05401FFE4FEFDFCFBFAF958
:10D2DD00F8C3123A4A7015B2B09003CAE054FC4438
:0DD2ED0001F090090A123A8D0000000022A5
:1089D7009005F0E0FCA3E0FDA3E0FEA3E0FF900913
:1089E7000AE0F8A3E0F9A3E0FAA3E0FBC3123A4ACE
:1089F700703B900608E0FCA3E0FDA3E0FEA3E0FFC8
:108A0700EC4D4E4F601F900608A3A3A3E024FFFF81
:108A1700EE34FFFEED34FFFDEC34FFFC9006081248
:108A27003A81B2B0229003CAE054FCF02290090ABE
:108A3700E0FCA3E0FDA3E0FEA3E02401FFE43EFE8B
:108A4700E43DFDE43CFC90090A123A8190090AA32F
:108A5700A3A3E05401FFE4FEFDFCFBFAF9F8C312FF
:108A67003A4A7002B2B090090AA3A3A3E0543FFFA9
:108A7700E4FEFDFCFBFAF9F8C3123A4A70199008B4
:108A87002FE0D394055010900884E020E70912588E
:088A9700CE90082FE004F0224C
:10D5130090090A123A8D000000009003CAE04410FB
:10D52300F0E49008E0F0C2B0900884F0900892F024
:10D53300900615F09003CBF09008F5F09005EFF00E
:10D543009003DAF0900818F09003D3F0A3F090065C
:0BD5530008123A8D000000000292E96F
:0BE95D0090090A123A8D000000002211
:08E996009003CAE054FCF022DA
:08E99E009003CAE054FCF022D2
:08E9A6009003CAE054FCF022CA
:10E66300E49008E0F09003CAE004F09004E1123A69
:0BE673008D0000000012E7D302E90157
:109E84009004E1E0FCA3E0FDA3E0FEA3E02401FFD5
:109E9400E43EFEE43DFDE43CFC9004E1123A819092
:109EA40004E1A3A3A3E05401FFE4FEFDFCFBFAF9E3
:109EB400F8C3123A4A700EB2B09005EFF0900892CF
:109EC400F09008E0F0E47F06FEFDFC9004E1E0F889
:109ED400A3E0F9A3E0FAA3E0FBC3123A4A7010909E
:109EE40004E1123A8D000000009003CAE004F0225D
:10BD10009004E1E0FCA3E0FDA3E0FEA3E02401FF2A
:10BD2000E43EFEE43DFDE43CFC9004E1123A8190E7
:10BD300004E1A3A3A3E05401FFE4FEFDFCFBFAF938
:10BD4000F8C3123A4A70209004E1123A8D000000C4
:10BD500000B2B09003CAE004F0E49005EFF0900860
:08BD600092F09008E004F022CB
:10CB4B009004E1E0FCA3E0FDA3E0FEA3E02401FFE1
:10CB5B00E43EFEE43DFDE43CFC9004E1123A81909E
:10CB6B0004E1A3A3A3E05401FFE4FEFDFCFBFAF9EF
:10CB7B00F8C3123A4A700C9004E1123A8D0000008F
:10CB8B0000B2B0900884E030E3067480F012833D6D
:01CB9B002277
:10CFF0009004E1E0FCA3E0FDA3E0FEA3E02401FF38
:10D00000E43EFEE43DFDE43CFC9004E1123A8190F4
:10D0100004E1A3A3A3E05401FFE4FEFDFCFBFAF945
:10D02000F8C3123A4A70169004E1123A8D000000DB
:0ED03000001258C19003CAE054FC4402F022E2
:10C704009004E1E0FCA3E0FDA3E0FEA3E02401FF2C
:10C71400E43EFEE43DFDE43CFC9004E1123A8190E9
:10C7240004E1A3A3A3E05401FFE4FEFDFCFBFAF93A
:10C73400F8C3123A4A701F9004E1123A8D000000C7
:10C7440000B2B09004E1123A8D000000009003CAD8
:07C75400E054FC4401F02257
:108A9F009005F0E0FCA3E0FDA3E0FEA3E0FF90044F
:108AAF00E1E0F8A3E0F9A3E0FAA3E0FBC3123A4A2E
:108ABF00703B900608E0FCA3E0FDA3E0FEA3E0FFFF
:108ACF00EC4D4E4F601F900608A3A3A3E024FFFFB9
:108ADF00EE34FFFEED34FFFDEC34FFFC9006081280
:108AEF003A81B2B0229003CAE054FCF0229004E124
:108AFF00E0FCA3E0FDA3E0FEA3E02401FFE43EFEC3
:108B0F00E43DFDE43CFC9004E1123A819004E1A3C2
:108B1F00A3A3E05401FFE4FEFDFCFBFAF9F8C31236
:108B2F003A4A7002B2B09004E1A3A3A3E0543FFF0E
:108B3F00E4FEFDFCFBFAF9F8C3123A4A70199008EB
:108B4F002FE0D394055010900884E020E7091258C5
:088B5F00CE90082FE004F02283
:10D55E009004E1123A8D000000009003CAE04404EA
:10D56E00F0E49008E0F0C2B0900884F0900892F0D9
:10D57E00900615F09003CBF09008F5F09005EFF0C3
:10D58E009003DAF0900818F09003D3F0A3F0900611
:0BD59E0008123A8D000000000292E924
:10200E009004E1123A8D0000000090090A123A8DF8
:05201E0000000000229B
:08E9AE009003CAE054FCF022C2
:08E9B6009003CAE054FCF022BA
:08E9BE009003CAE054FCF022B2
:10DB900012DF8B9005F5E0FCA3E0FDA3E0FEA3E01F
:10DBA000FF900611E0F8A3E0F9A3E0FAA3E0FBC3BD
:10DBB000123A4A70169003CAE004F0900611123A25
:0CDBC0008D0000000012E7D312E90122E2
:109EF400900611E0FCA3E0FDA3E0FEA3E02401FF33
:109F0400E43EFEE43DFDE43CFC900611123A8190EF
:109F14000611A3A3A3E05401FFE4FEFDFCFBFAF940
:109F2400F8C3123A4A700EB2B09005EFF09008925E
:109F3400F09008E0F0E47F30FEFDFC900611E0F8BC
:109F4400A3E0F9A3E0FAA3E0FBC3123A4A7010902D
:109F54000611123A8D000000009003CAE004F022BA
:10BD6800900611E0FCA3E0FDA3E0FEA3E02401FFA0
:10BD7800E43EFEE43DFDE43CFC900611123A81905D
:10BD88000611A3A3A3E05401FFE4FEFDFCFBFAF9AE
:10BD9800F8C3123A4A7020900611123A8D0000003A
:10BDA80000B2B09003CAE004F0E49005EFF0900808
:08BDB80092F09008E004F02273
:10C85E00900611E0FCA3E0FDA3E0FEA3E02401FF9F
:10C86E00E43EFEE43DFDE43CFC900611123A81905C
:10C87E000611A3A3A3E05401FFE4FEFDFCFBFAF9AD
:10C88E00F8C3123A4A700C900611123A8D0000004D
:10C89E0000B2B0900884E030E3097480F012833D5A
:04C8AE0012DFAF22C4
:10DBCC0012DF8B9005F5E0FCA3E0FDA3E0FEA3E0E3
:10DBDC00FF900611E0F8A3E0F9A3E0FAA3E0FBC381
:10DBEC00123A4A70169003CAE004F0900611123AE9
:0CDBFC008D0000000012E7D312E90122A6
:109F6400900611E0FCA3E0FDA3E0FEA3E02401FFC2
:109F7400E43EFEE43DFDE43CFC900611123A81907F
:109F84000611A3A3A3E05401FFE4FEFDFCFBFAF9D0
:109F9400F8C3123A4A700EB2B09005EFF0900892EE
:109FA400F09008E0F0E47F30FEFDFC900611E0F84C
:109FB400A3E0F9A3E0FAA3E0FBC3123A4A701090BD
:109FC4000611123A8D000000009003CAE004F0224A
:10BDC000900611E0FCA3E0FDA3E0FEA3E02401FF48
:10BDD000E43EFEE43DFDE43CFC900611123A819005
:10BDE0000611A3A3A3E05401FFE4FEFDFCFBFAF956
:10BDF000F8C3123A4A7020900611123A8D000000E2
:10BE000000B2B09003CAE004F0E49005EFF09008AF
:08BE100092F09008E004F0221A
:10B65D00900611E0FCA3E0FDA3E0FEA3E02401FFB2
:10B66D00E43EFEE43DFDE43CFC900611123A81906F
:10B67D0003CAE054F3F0900611A3A3A3E05401FF15
:10B68D00E4FEFDFCFBFAF9F8C3123A4A700C900681
:10B69D0011123A8D00000000B2B0900884E030E342
:0BB6AD00097480F012833D12DFAF2211
:10DC080012DF8B9005F5E0FCA3E0FDA3E0FEA3E0A6
:10DC1800FF900611E0F8A3E0F9A3E0FAA3E0FBC344
:10DC2800123A4A70169003CAE004F0900611123AAC
:0CDC38008D0000000012E7D312E9012269
:109FD400900611E0FCA3E0FDA3E0FEA3E02401FF52
:109FE400E43EFEE43DFDE43CFC900611123A81900F
:109FF4000611A3A3A3E05401FFE4FEFDFCFBFAF960
:10A00400F8C3123A4A700EB2B09005EFF09008927D
:10A01400F09008E0F0E47F30FEFDFC900611E0F8DB
:10A02400A3E0F9A3E0FAA3E0FBC3123A4A7010904C
:10A034000611123A8D000000009003CAE004F022D9
:10BE1800900611E0FCA3E0FDA3E0FEA3E02401FFEF
:10BE2800E43EFEE43DFDE43CFC900611123A8190AC
:10BE38000611A3A3A3E05401FFE4FEFDFCFBFAF9FD
:10BE4800F8C3123A4A7020900611123A8D00000089
:10BE580000B2B09003CAE004F0E49005EFF0900857
:08BE680092F09008E004F022C2
:10B6B800900611E0FCA3E0FDA3E0FEA3E02401FF57
:10B6C800E43EFEE43DFDE43CFC900611123A819014
:10B6D80003CAE04404F0900611A3A3A3E05401FFB9
:10B6E800E4FEFDFCFBFAF9F8C3123A4A700C900626
:10B6F80011123A8D00000000B2B0900884E030E3E7
:0BB70800097480F012833D12DFAF22B5
:10DC440012DF8B9005F5E0FCA3E0FDA3E0FEA3E06A
:10DC5400FF900611E0F8A3E0F9A3E0FAA3E0FBC308
:10DC6400123A4A70169003CAE004F0900611123A70
:0CDC74008D0000000012E7D312E901222D
:10A04400900611E0FCA3E0FDA3E0FEA3E02401FFE1
:10A05400E43EFEE43DFDE43CFC900611123A81909E
:10A064000611A3A3A3E05401FFE4FEFDFCFBFAF9EF
:10A07400F8C3123A4A700EB2B09005EFF09008920D
:10A08400F09008E0F0E47F30FEFDFC900611E0F86B
:10A09400A3E0F9A3E0FAA3E0FBC3123A4A701090DC
:10A0A4000611123A8D000000009003CAE004F02269
:10BE7000900611E0FCA3E0FDA3E0FEA3E02401FF97
:10BE8000E43EFEE43DFDE43CFC900611123A819054
:10BE90000611A3A3A3E05401FFE4FEFDFCFBFAF9A5
:10BEA000F8C3123A4A7020900611123A8D00000031
:10BEB00000B2B09003CAE004F0E49005EFF09008FF
:08BEC00092F09008E004F0226A
:10C8B200900611E0FCA3E0FDA3E0FEA3E02401FF4B
:10C8C200E43EFEE43DFDE43CFC900611123A819008
:10C8D2000611A3A3A3E05401FFE4FEFDFCFBFAF959
:10C8E200F8C3123A4A700C900611123A8D000000F9
:10C8F20000B2B0900884E030E3097480F012833D06
:04C9020012DFAF226F
:10DC800012DF8B9005F5E0FCA3E0FDA3E0FEA3E02E
:10DC9000FF900611E0F8A3E0F9A3E0FAA3E0FBC3CC
:10DCA000123A4A70169003CAE004F0900611123A34
:0CDCB0008D0000000012E7D312E90122F1
:10A0B400900611E0FCA3E0FDA3E0FEA3E02401FF71
:10A0C400E43EFEE43DFDE43CFC900611123A81902E
:10A0D4000611A3A3A3E05401FFE4FEFDFCFBFAF97F
:10A0E400F8C3123A4A700EB2B09005EFF09008929D
:10A0F400F09008E0F0E47F30FEFDFC900611E0F8FB
:10A10400A3E0F9A3E0FAA3E0FBC3123A4A7010906B
:10A114000611123A8D000000009003CAE004F022F8
:10BEC800900611E0FCA3E0FDA3E0FEA3E02401FF3F
:10BED800E43EFEE43DFDE43CFC900611123A8190FC
:10BEE8000611A3A3A3E05401FFE4FEFDFCFBFAF94D
:10BEF800F8C3123A4A7020900611123A8D000000D9
:10BF080000B2B09003CAE004F0E49005EFF09008A6
:08BF180092F09008E004F02211
:10B71300900611E0FCA3E0FDA3E0FEA3E02401FFFB
:10B72300E43EFEE43DFDE43CFC900611123A8190B8
:10B7330003CAE054CFF0900611A3A3A3E05401FF82
:10B74300E4FEFDFCFBFAF9F8C3123A4A700C9006CA
:10B7530011123A8D00000000B2B0900884E030E38B
:0BB76300097480F012833D12DFAF225A
:10DCBC0012DF8B9005F5E0FCA3E0FDA3E0FEA3E0F2
:10DCCC00FF900611E0F8A3E0F9A3E0FAA3E0FBC390
:10DCDC00123A4A70169003CAE004F0900611123AF8
:0CDCEC008D0000000012E7D312E90122B5
:10A12400900611E0FCA3E0FDA3E0FEA3E02401FF00
:10A13400E43EFEE43DFDE43CFC900611123A8190BD
:10A144000611A3A3A3E05401FFE4FEFDFCFBFAF90E
:10A15400F8C3123A4A700EB2B09005EFF09008922C
:10A16400F09008E0F0E47F30FEFDFC900611E0F88A
:10A17400A3E0F9A3E0FAA3E0FBC3123A4A701090FB
:10A184000611123A8D000000009003CAE004F02288
:10BF2000900611E0FCA3E0FDA3E0FEA3E02401FFE6
:10BF3000E43EFEE43DFDE43CFC900611123A8190A3
:10BF40000611A3A3A3E05401FFE4FEFDFCFBFAF9F4
:10BF5000F8C3123A4A7020900611123A8D00000080
:10BF600000B2B09003CAE004F0E49005EFF090084E
:08BF700092F09008E004F022B9
:10B76E00900611E0FCA3E0FDA3E0FEA3E02401FFA0
:10B77E00E43EFEE43DFDE43CFC900611123A81905D
:10B78E0003CAE054C3F0900611A3A3A3E05401FF33
:10B79E00E4FEFDFCFBFAF9F8C3123A4A700C90066F
:10B7AE0011123A8D00000000B2B0900884E030E330
:0BB7BE00097480F012833D12DFAF22FF
:10DCF80012DF8B9005F5E0FCA3E0FDA3E0FEA3E0B6
:10DD0800FF900611E0F8A3E0F9A3E0FAA3E0FBC353
:10DD1800123A4A70169003CAE004F0900611123ABB
:0CDD28008D0000000012E7D312E9012278
:10A19400900611E0FCA3E0FDA3E0FEA3E02401FF90
:10A1A400E43EFEE43DFDE43CFC900611123A81904D
:10A1B4000611A3A3A3E05401FFE4FEFDFCFBFAF99E
:10A1C400F8C3123A4A700EB2B09005EFF0900892BC
:10A1D400F09008E0F0E47F30FEFDFC900611E0F81A
:10A1E400A3E0F9A3E0FAA3E0FBC3123A4A7010908B
:10A1F4000611123A8D000000009003CAE004F02218
:10BF7800900611E0FCA3E0FDA3E0FEA3E02401FF8E
:10BF8800E43EFEE43DFDE43CFC900611123A81904B
:10BF98000611A3A3A3E05401FFE4FEFDFCFBFAF99C
:10BFA800F8C3123A4A7020900611123A8D00000028
:10BFB80000B2B09003CAE004F0E49005EFF09008F6
:08BFC80092F09008E004F02261
:10A95800900611E0FCA3E0FDA3E0FEA3E02401FFC4
:10A96800E43EFEE43DFDE43CFC900611123A819081
:10A9780003CAE04404F054CFF0900611A3A3A3E067
:10A988005401FFE4FEFDFCFBFAF9F8C3123A4A70E1
:10A998000C900611123A8D00000000B2B0900884A5
:0EA9A800E030E3097480F012833D12DFAF222D
:10DD340012DF8B9005F5E0FCA3E0FDA3E0FEA3E079
:10DD4400FF900611E0F8A3E0F9A3E0FAA3E0FBC317
:10DD5400123A4A70169003CAE004F0900611123A7F
:0CDD64008D0000000012E7D312E901223C
:10A20400900611E0FCA3E0FDA3E0FEA3E02401FF1F
:10A21400E43EFEE43DFDE43CFC900611123A8190DC
:10A224000611A3A3A3E05401FFE4FEFDFCFBFAF92D
:10A23400F8C3123A4A700EB2B09005EFF09008924B
:10A24400F09008E0F0E47F30FEFDFC900611E0F8A9
:10A25400A3E0F9A3E0FAA3E0FBC3123A4A7010901A
:10A264000611123A8D000000009003CAE004F022A7
:10BFD000900611E0FCA3E0FDA3E0FEA3E02401FF36
:10BFE000E43EFEE43DFDE43CFC900611123A8190F3
:10BFF0000611A3A3A3E05401FFE4FEFDFCFBFAF944
:10C00000F8C3123A4A7020900611123A8D000000CF
:10C0100000B2B09003CAE004F0E49005EFF090089D
:08C0200092F09008E004F02208
:10B7C900900611E0FCA3E0FDA3E0FEA3E02401FF45
:10B7D900E43EFEE43DFDE43CFC900611123A819002
:10B7E90003CAE054CFF0900611A3A3A3E05401FFCC
:10B7F900E4FEFDFCFBFAF9F8C3123A4A700C900614
:10B8090011123A8D00000000B2B0900884E030E3D4
:0BB81900097480F012833D12DFAF22A3
:10DD700012DF8B9005F5E0FCA3E0FDA3E0FEA3E03D
:10DD8000FF900611E0F8A3E0F9A3E0FAA3E0FBC3DB
:10DD9000123A4A70169003CAE004F0900611123A43
:0CDDA0008D0000000012E7D312E9012200
:10A27400900611E0FCA3E0FDA3E0FEA3E02401FFAF
:10A28400E43EFEE43DFDE43CFC900611123A81906C
:10A294000611A3A3A3E05401FFE4FEFDFCFBFAF9BD
:10A2A400F8C3123A4A700EB2B09005EFF0900892DB
:10A2B400F09008E0F0E47F30FEFDFC900611E0F839
:10A2C400A3E0F9A3E0FAA3E0FBC3123A4A701090AA
:10A2D4000611123A8D000000009003CAE004F02237
:10C02800900611E0FCA3E0FDA3E0FEA3E02401FFDD
:10C03800E43EFEE43DFDE43CFC900611123A81909A
:10C048000611A3A3A3E05401FFE4FEFDFCFBFAF9EB
:10C05800F8C3123A4A7020900611123A8D00000077
:10C0680000B2B09003CAE004F0E49005EFF0900845
:08C0780092F09008E004F022B0
:10B82400900611E0FCA3E0FDA3E0FEA3E02401FFE9
:10B83400E43EFEE43DFDE43CFC900611123A8190A6
:10B8440003CAE04410F0900611A3A3A3E05401FF3F
:10B85400E4FEFDFCFBFAF9F8C3123A4A700C9006B8
:10B8640011123A8D00000000B2B0900884E030E379
:0BB87400097480F012833D12DFAF2248
:10DDAC0012DF8B9005F5E0FCA3E0FDA3E0FEA3E001
:10DDBC00FF900611E0F8A3E0F9A3E0FAA3E0FBC39F
:10DDCC00123A4A70169003CAE004F0900611123A07
:0CDDDC008D0000000012E7D312E90122C4
:10A2E400900611E0FCA3E0FDA3E0FEA3E02401FF3F
:10A2F400E43EFEE43DFDE43CFC900611123A8190FC
:10A304000611A3A3A3E05401FFE4FEFDFCFBFAF94C
:10A31400F8C3123A4A700EB2B09005EFF09008926A
:10A32400F09008E0F0E47F30FEFDFC900611E0F8C8
:10A33400A3E0F9A3E0FAA3E0FBC3123A4A70109039
:10A344000611123A8D000000009003CAE004F022C6
:10C08000900611E0FCA3E0FDA3E0FEA3E02401FF85
:10C09000E43EFEE43DFDE43CFC900611123A819042
:10C0A0000611A3A3A3E05401FFE4FEFDFCFBFAF993
:10C0B000F8C3123A4A7020900611123A8D0000001F
:10C0C00000B2B09003CAE004F0E49005EFF09008ED
:08C0D00092F09008E004F02258
:10A9B600900611E0FCA3E0FDA3E0FEA3E02401FF66
:10A9C600E43EFEE43DFDE43CFC900611123A819023
:10A9D60003CAE04410F054F3F0900611A3A3A3E0D9
:10A9E6005401FFE4FEFDFCFBFAF9F8C3123A4A7083
:10A9F6000C900611123A8D00000000B2B090088447
:0EAA0600E030E3097480F012833D12DFAF22CE
:10DDE80012DF8B9005F5E0FCA3E0FDA3E0FEA3E0C5
:10DDF800FF900611E0F8A3E0F9A3E0FAA3E0FBC363
:10DE0800123A4A70169003CAE004F0900611123ACA
:0CDE18008D0000000012E7D312E9012287
:10A35400900611E0FCA3E0FDA3E0FEA3E02401FFCE
:10A36400E43EFEE43DFDE43CFC900611123A81908B
:10A374000611A3A3A3E05401FFE4FEFDFCFBFAF9DC
:10A38400F8C3123A4A700EB2B09005EFF0900892FA
:10A39400F09008E0F0E47F30FEFDFC900611E0F858
:10A3A400A3E0F9A3E0FAA3E0FBC3123A4A701090C9
:10A3B4000611123A8D000000009003CAE004F02256
:10C0D800900611E0FCA3E0FDA3E0FEA3E02401FF2D
:10C0E800E43EFEE43DFDE43CFC900611123A8190EA
:10C0F8000611A3A3A3E05401FFE4FEFDFCFBFAF93B
:10C10800F8C3123A4A7020900611123A8D000000C6
:10C1180000B2B09003CAE004F0E49005EFF0900894
:08C1280092F09008E004F022FF
:10B87F00900611E0FCA3E0FDA3E0FEA3E02401FF8E
:10B88F00E43EFEE43DFDE43CFC900611123A81904B
:10B89F0003CAE04414F0900611A3A3A3E05401FFE0
:10B8AF00E4FEFDFCFBFAF9F8C3123A4A700C90065D
:10B8BF0011123A8D00000000B2B0900884E030E31E
:0BB8CF00097480F012833D12DFAF22ED
:10DE240012DF8B9005F5E0FCA3E0FDA3E0FEA3E088
:10DE3400FF900611E0F8A3E0F9A3E0FAA3E0FBC326
:10DE4400123A4A70169003CAE004F0900611123A8E
:0CDE54008D0000000012E7D312E901224B
:10A3C400900611E0FCA3E0FDA3E0FEA3E02401FF5E
:10A3D400E43EFEE43DFDE43CFC900611123A81901B
:10A3E4000611A3A3A3E05401FFE4FEFDFCFBFAF96C
:10A3F400F8C3123A4A700EB2B09005EFF09008928A
:10A40400F09008E0F0E47F30FEFDFC900611E0F8E7
:10A41400A3E0F9A3E0FAA3E0FBC3123A4A70109058
:10A424000611123A8D000000009003CAE004F022E5
:10C13000900611E0FCA3E0FDA3E0FEA3E02401FFD4
:10C14000E43EFEE43DFDE43CFC900611123A819091
:10C150000611A3A3A3E05401FFE4FEFDFCFBFAF9E2
:10C16000F8C3123A4A7020900611123A8D0000006E
:10C1700000B2B09003CAE004F0E49005EFF090083C
:08C1800092F09008E004F022A7
:10B8DA00900611E0FCA3E0FDA3E0FEA3E02401FF33
:10B8EA00E43EFEE43DFDE43CFC900611123A8190F0
:10B8FA0003CAE04410F0900611A3A3A3E05401FF89
:10B90A00E4FEFDFCFBFAF9F8C3123A4A700C900601
:10B91A0011123A8D00000000B2B0900884E030E3C2
:0BB92A00097480F012833D12DFAF2291
:10DE600012DF8B9005F5E0FCA3E0FDA3E0FEA3E04C
:10DE7000FF900611E0F8A3E0F9A3E0FAA3E0FBC3EA
:10DE8000123A4A70169003CAE004F0900611123A52
:0CDE90008D0000000012E7D312E901220F
:10A43400900611E0FCA3E0FDA3E0FEA3E02401FFED
:10A44400E43EFEE43DFDE43CFC900611123A8190AA
:10A454000611A3A3A3E05401FFE4FEFDFCFBFAF9FB
:10A46400F8C3123A4A700EB2B09005EFF090089219
:10A47400F09008E0F0E47F30FEFDFC900611E0F877
:10A48400A3E0F9A3E0FAA3E0FBC3123A4A701090E8
:10A494000611123A8D000000009003CAE004F02275
:10C18800900611E0FCA3E0FDA3E0FEA3E02401FF7C
:10C19800E43EFEE43DFDE43CFC900611123A819039
:10C1A8000611A3A3A3E05401FFE4FEFDFCFBFAF98A
:10C1B800F8C3123A4A7020900611123A8D00000016
:10C1C80000B2B09003CAE004F0E49005EFF09008E4
:08C1D80092F09008E004F0224F
:10C90600900611E0FCA3E0FDA3E0FEA3E02401FFF6
:10C91600E43EFEE43DFDE43CFC900611123A8190B3
:10C926000611A3A3A3E05401FFE4FEFDFCFBFAF904
:10C93600F8C3123A4A700C900611123A8D000000A4
:10C9460000B2B0900884E030E3097480F012833DB1
:04C9560012DFAF221B
:10DE9C0012DF8B9005F5E0FCA3E0FDA3E0FEA3E010
:10DEAC00FF900611E0F8A3E0F9A3E0FAA3E0FBC3AE
:10DEBC00123A4A70169003CAE004F0900611123A16
:0CDECC008D0000000012E7D312E90122D3
:10A4A400900611E0FCA3E0FDA3E0FEA3E02401FF7D
:10A4B400E43EFEE43DFDE43CFC900611123A81903A
:10A4C4000611A3A3A3E05401FFE4FEFDFCFBFAF98B
:10A4D400F8C3123A4A700EB2B09005EFF0900892A9
:10A4E400F09008E0F0E47F30FEFDFC900611E0F807
:10A4F400A3E0F9A3E0FAA3E0FBC3123A4A70109078
:10A504000611123A8D000000009003CAE004F02204
:10C1E000900611E0FCA3E0FDA3E0FEA3E02401FF24
:10C1F000E43EFEE43DFDE43CFC900611123A8190E1
:10C200000611A3A3A3E05401FFE4FEFDFCFBFAF931
:10C21000F8C3123A4A7020900611123A8D000000BD
:10C2200000B2B09003CAE004F0E49005EFF090088B
:08C2300092F09008E004F022F6
:10B93500900611E0FCA3E0FDA3E0FEA3E02401FFD7
:10B94500E43EFEE43DFDE43CFC900611123A819094
:10B9550003CAE054F3F0900611A3A3A3E05401FF3A
:10B96500E4FEFDFCFBFAF9F8C3123A4A700C9006A6
:10B9750011123A8D00000000B2B0900884E030E367
:0BB98500097480F012833D12DFAF2236
:10DED80012DF8B9005F5E0FCA3E0FDA3E0FEA3E0D4
:10DEE800FF900611E0F8A3E0F9A3E0FAA3E0FBC372
:10DEF800123A4A70169003CAE004F0900611123ADA
:0CDF08008D0000000012E7D312E9012296
:10A51400900611E0FCA3E0FDA3E0FEA3E02401FF0C
:10A52400E43EFEE43DFDE43CFC900611123A8190C9
:10A534000611A3A3A3E05401FFE4FEFDFCFBFAF91A
:10A54400F8C3123A4A700EB2B09005EFF090089238
:10A55400F09008E0F0E47F30FEFDFC900611E0F896
:10A56400A3E0F9A3E0FAA3E0FBC3123A4A70109007
:10A574000611123A8D000000009003CAE004F02294
:10C23800900611E0FCA3E0FDA3E0FEA3E02401FFCB
:10C24800E43EFEE43DFDE43CFC900611123A819088
:10C258000611A3A3A3E05401FFE4FEFDFCFBFAF9D9
:10C26800F8C3123A4A7020900611123A8D00000065
:10C2780000B2B09003CAE004F0E49005EFF0900833
:08C2880092F09008E004F0229E
:10B99000900611E0FCA3E0FDA3E0FEA3E02401FF7C
:10B9A000E43EFEE43DFDE43CFC900611123A819039
:10B9B00003CAE04404F0900611A3A3A3E05401FFDE
:10B9C000E4FEFDFCFBFAF9F8C3123A4A700C90064B
:10B9D00011123A8D00000000B2B0900884E030E30C
:0BB9E000097480F012833D12DFAF22DB
:10DF140012DF8B9005F5E0FCA3E0FDA3E0FEA3E097
:10DF2400FF900611E0F8A3E0F9A3E0FAA3E0FBC335
:10DF3400123A4A70169003CAE004F0900611123A9D
:0CDF44008D0000000012E7D312E901225A
:10A58400900611E0FCA3E0FDA3E0FEA3E02401FF9C
:10A59400E43EFEE43DFDE43CFC900611123A819059
:10A5A4000611A3A3A3E05401FFE4FEFDFCFBFAF9AA
:10A5B400F8C3123A4A700EB2B09005EFF0900892C8
:10A5C400F09008E0F0E47F30FEFDFC900611E0F826
:10A5D400A3E0F9A3E0FAA3E0FBC3123A4A70109097
:10A5E4000611123A8D000000009003CAE004F02224
:10C29000900611E0FCA3E0FDA3E0FEA3E02401FF73
:10C2A000E43EFEE43DFDE43CFC900611123A819030
:10C2B0000611A3A3A3E05401FFE4FEFDFCFBFAF981
:10C2C000F8C3123A4A7020900611123A8D0000000D
:10C2D00000B2B09003CAE004F0E49005EFF09008DB
:08C2E00092F09008E004F02246
:10C95A00900611E0FCA3E0FDA3E0FEA3E02401FFA2
:10C96A00E43EFEE43DFDE43CFC900611123A81905F
:10C97A000611A3A3A3E05401FFE4FEFDFCFBFAF9B0
:10C98A00F8C3123A4A700C900611123A8D00000050
:10C99A0000B2B0900884E030E3097480F012833D5D
:04C9AA0012DFAF22C7
:10AA7200900611E0FCA3E0FDA3E0FEA3E02401FFA9
:10AA8200E43EFEE43DFDE43CFC900611123A819066
:10AA92000611A3A3A3E05401FFE4FEFDFCFBFAF9B7
:10AAA200F8C3123A4A7025900611123A8D0000003E
:10AAB20000900904E030E70512DFAF800312E523BE
:0DAAC2001258C19003CAE054FC4402F02277
:10B04200900611E0FCA3E0FDA3E0FEA3E02401FFD3
:10B05200E43EFEE43DFDE43CFC900611123A819090
:10B062000611A3A3A3E05401FFE4FEFDFCFBFAF9E1
:10B07200F8C3123A4A7024900611123A8D00000069
:10B0820000900904E030E70512DFAF800312E523E8
:0CB09200B2B09003CAE054FC4401F0226C
:10732A009005F0E0FCA3E0FDA3E0FEA3E0FF9006D9
:10733A0011E0F8A3E0F9A3E0FAA3E0FBC3123A4A8A
:10734A007065900608E0FCA3E0FDA3E0FEA3E0FF61
:10735A00EC4D4E4F6049900608A3A3A3E024FFFF1B
:10736A00EE34FFFEED34FFFDEC34FFFC900608120C
:10737A003A81900608A3A3A3E05401FFE4FEFDFCB2
:10738A00FBFAF9F8C3123A4A600302742A90090414
:10739A00E030E70512DFAF800312E523B2B0229096
:1073AA0003CAE054FCF022900611E0FCA3E0FDA31E
:1073BA00E0FEA3E02401FFE43EFEE43DFDE43CFCE4
:1073CA00900611123A81900611A3A3A3E05401FF7B
:1073DA00E4FEFDFCFBFAF9F8C3123A4A701190096F
:1073EA0004E030E70512DFAF800312E523B2B09064
:1073FA000611A3A3A3E0543FFFE4FEFDFCFBFAF948
:10740A00F8C3123A4A701990082FE0D39405501025
:10741A00900884E020E7091258CE90082FE004F083
:01742A00223F
:10D2FA00900611123A8D0000000012E515E490081C
:10D30A0084F0900892F0900615F09003CBF0900804
:10D31A00F5F09005EFF09003DAF0900818F090031A
:10D32A00D3F0A3F0900608123A8D00000000129282
:0DD33A00E990087DE06005E4F012E3562262
:10AACF00900611E0FCA3E0FDA3E0FEA3E02401FF4C
:10AADF00E43EFEE43DFDE43CFC900611123A819009
:10AAEF000611A3A3A3E05401FFE4FEFDFCFBFAF95A
:10AAFF00F8C3123A4A7025900611123A8D000000E1
:10AB0F0000900904E030E70512DFAF800312E52360
:0DAB1F001258C19003CAE054FC4402F02219
:10B09E00900611E0FCA3E0FDA3E0FEA3E02401FF77
:10B0AE00E43EFEE43DFDE43CFC900611123A819034
:10B0BE000611A3A3A3E05401FFE4FEFDFCFBFAF985
:10B0CE00F8C3123A4A7024900611123A8D0000000D
:10B0DE0000900904E030E70512DFAF800312E5238C
:0CB0EE00B2B09003CAE054FC4401F02210
:10742B009005F0E0FCA3E0FDA3E0FEA3E0FF9006D7
:10743B0011E0F8A3E0F9A3E0FAA3E0FBC3123A4A88
:10744B007065900608E0FCA3E0FDA3E0FEA3E0FF5F
:10745B00EC4D4E4F6049900608A3A3A3E024FFFF19
:10746B00EE34FFFEED34FFFDEC34FFFC900608120A
:10747B003A81900608A3A3A3E05401FFE4FEFDFCB0
:10748B00FBFAF9F8C3123A4A600302752B90090410
:10749B00E030E70512DFAF800312E523B2B0229094
:1074AB0003CAE054FCF022900611E0FCA3E0FDA31C
:1074BB00E0FEA3E02401FFE43EFEE43DFDE43CFCE2
:1074CB00900611123A81900611A3A3A3E05401FF79
:1074DB00E4FEFDFCFBFAF9F8C3123A4A701190096D
:1074EB0004E030E70512DFAF800312E523B2B09062
:1074FB000611A3A3A3E0543FFFE4FEFDFCFBFAF946
:10750B00F8C3123A4A701990082FE0D39405501023
:10751B00900884E020E7091258CE90082FE004F081
:01752B00223D
:10D72000900611123A8D000000009003CAE04440B8
:10D73000F054F012E51BE4900884F0900892F09009
:10D740000615F09003CBF09008F5F09005EFF090FF
:10D7500003DAF0900818F09003D3F0A3F0900608D5
:0AD76000123A8D000000000292E969
:10AB2C00900611E0FCA3E0FDA3E0FEA3E02401FFEE
:10AB3C00E43EFEE43DFDE43CFC900611123A8190AB
:10AB4C000611A3A3A3E05401FFE4FEFDFCFBFAF9FC
:10AB5C00F8C3123A4A7025900611123A8D00000083
:10AB6C0000900904E030E70512DFAF800312E52303
:0DAB7C001258C19003CAE054FC4402F022BC
:10B0FA00900611E0FCA3E0FDA3E0FEA3E02401FF1B
:10B10A00E43EFEE43DFDE43CFC900611123A8190D7
:10B11A000611A3A3A3E05401FFE4FEFDFCFBFAF928
:10B12A00F8C3123A4A7024900611123A8D000000B0
:10B13A0000900904E030E70512DFAF800312E5232F
:0CB14A00B2B09003CAE054FC4401F022B3
:10752C009005F0E0FCA3E0FDA3E0FEA3E0FF9006D5
:10753C0011E0F8A3E0F9A3E0FAA3E0FBC3123A4A86
:10754C007065900608E0FCA3E0FDA3E0FEA3E0FF5D
:10755C00EC4D4E4F6049900608A3A3A3E024FFFF17
:10756C00EE34FFFEED34FFFDEC34FFFC9006081208
:10757C003A81900608A3A3A3E05401FFE4FEFDFCAE
:10758C00FBFAF9F8C3123A4A600302762C9009040C
:10759C00E030E70512DFAF800312E523B2B0229092
:1075AC0003CAE054FCF022900611E0FCA3E0FDA31A
:1075BC00E0FEA3E02401FFE43EFEE43DFDE43CFCE0
:1075CC00900611123A81900611A3A3A3E05401FF77
:1075DC00E4FEFDFCFBFAF9F8C3123A4A701190096B
:1075EC0004E030E70512DFAF800312E523B2B09060
:1075FC000611A3A3A3E0543FFFE4FEFDFCFBFAF944
:10760C00F8C3123A4A701990082FE0D39405501021
:10761C00900884E020E7091258CE90082FE004F07F
:01762C00223B
:10D96C00900611123A8D000000009003CAE0444466
:10D97C0012E51BE4900884F0900892F0900615F0E4
:10D98C009003CBF09008F5F09005EFF09003DAF0EF
:10D99C00900818F09003D3F0A3F0900608123A8D7B
:07D9AC00000000000292E9F7
:10AB8900900611E0FCA3E0FDA3E0FEA3E02401FF91
:10AB9900E43EFEE43DFDE43CFC900611123A81904E
:10ABA9000611A3A3A3E05401FFE4FEFDFCFBFAF99F
:10ABB900F8C3123A4A7025900611123A8D00000026
:10ABC90000900904E030E70512DFAF800312E523A6
:0DABD9001258C19003CAE054FC4402F0225F
:10B15600900611E0FCA3E0FDA3E0FEA3E02401FFBE
:10B16600E43EFEE43DFDE43CFC900611123A81907B
:10B176000611A3A3A3E05401FFE4FEFDFCFBFAF9CC
:10B18600F8C3123A4A7024900611123A8D00000054
:10B1960000900904E030E70512DFAF800312E523D3
:0CB1A600B2B09003CAE054FC4401F02257
:10762D009005F0E0FCA3E0FDA3E0FEA3E0FF9006D3
:10763D0011E0F8A3E0F9A3E0FAA3E0FBC3123A4A84
:10764D007065900608E0FCA3E0FDA3E0FEA3E0FF5B
:10765D00EC4D4E4F6049900608A3A3A3E024FFFF15
:10766D00EE34FFFEED34FFFDEC34FFFC9006081206
:10767D003A81900608A3A3A3E05401FFE4FEFDFCAC
:10768D00FBFAF9F8C3123A4A600302772D90090408
:10769D00E030E70512DFAF800312E523B2B0229090
:1076AD0003CAE054FCF022900611E0FCA3E0FDA318
:1076BD00E0FEA3E02401FFE43EFEE43DFDE43CFCDE
:1076CD00900611123A81900611A3A3A3E05401FF75
:1076DD00E4FEFDFCFBFAF9F8C3123A4A7011900969
:1076ED0004E030E70512DFAF800312E523B2B0905E
:1076FD000611A3A3A3E0543FFFE4FEFDFCFBFAF942
:10770D00F8C3123A4A701990082FE0D3940550101F
:10771D00900884E020E7091258CE90082FE004F07D
:01772D002239
:10DACD00900611123A8D0000000012E515E4900841
:10DADD0084F0900892F0900615F09003CBF090082A
:10DAED00F5F09005EFF09003DAF0900818F0900340
:10DAFD00D3F0A3F0900608123A8D000000000292B8
:01DB0D00E92E
:10ABE600900611E0FCA3E0FDA3E0FEA3E02401FF34
:10ABF600E43EFEE43DFDE43CFC900611123A8190F1
:10AC06000611A3A3A3E05401FFE4FEFDFCFBFAF941
:10AC1600F8C3123A4A7025900611123A8D000000C8
:10AC260000900904E030E70512DFAF800312E52348
:0DAC36001258C19003CAE054FC4402F02201
:10B1B200900611E0FCA3E0FDA3E0FEA3E02401FF62
:10B1C200E43EFEE43DFDE43CFC900611123A81901F
:10B1D2000611A3A3A3E05401FFE4FEFDFCFBFAF970
:10B1E200F8C3123A4A7024900611123A8D000000F8
:10B1F20000900904E030E70512DFAF800312E52377
:0CB20200B2B09003CAE054FC4401F022FA
:10772E009005F0E0FCA3E0FDA3E0FEA3E0FF9006D1
:10773E0011E0F8A3E0F9A3E0FAA3E0FBC3123A4A82
:10774E007065900608E0FCA3E0FDA3E0FEA3E0FF59
:10775E00EC4D4E4F6049900608A3A3A3E024FFFF13
:10776E00EE34FFFEED34FFFDEC34FFFC9006081204
:10777E003A81900608A3A3A3E05401FFE4FEFDFCAA
:10778E00FBFAF9F8C3123A4A600302782E90090404
:10779E00E030E70512DFAF800312E523B2B022908E
:1077AE0003CAE054FCF022900611E0FCA3E0FDA316
:1077BE00E0FEA3E02401FFE43EFEE43DFDE43CFCDC
:1077CE00900611123A81900611A3A3A3E05401FF73
:1077DE00E4FEFDFCFBFAF9F8C3123A4A7011900967
:1077EE0004E030E70512DFAF800312E523B2B0905C
:1077FE000611A3A3A3E0543FFFE4FEFDFCFBFAF940
:10780E00F8C3123A4A701990082FE0D3940550101D
:10781E00900884E020E7091258CE90082FE004F07B
:01782E002237
:10D76A00900611123A8D000000009003CAE044406E
:10D77A00F054C012E51BE4900884F0900892F090EF
:10D78A000615F09003CBF09008F5F09005EFF090B5
:10D79A0003DAF0900818F09003D3F0A3F09006088B
:0AD7AA00123A8D000000000292E91F
:10AC4300900611E0FCA3E0FDA3E0FEA3E02401FFD6
:10AC5300E43EFEE43DFDE43CFC900611123A819093
:10AC63000611A3A3A3E05401FFE4FEFDFCFBFAF9E4
:10AC7300F8C3123A4A7025900611123A8D0000006B
:10AC830000900904E030E70512DFAF800312E523EB
:0DAC93001258C19003CAE054FC4402F022A4
:10B20E00900611E0FCA3E0FDA3E0FEA3E02401FF05
:10B21E00E43EFEE43DFDE43CFC900611123A8190C2
:10B22E000611A3A3A3E05401FFE4FEFDFCFBFAF913
:10B23E00F8C3123A4A7024900611123A8D0000009B
:10B24E0000900904E030E70512DFAF800312E5231A
:0CB25E00B2B09003CAE054FC4401F0229E
:10782F009005F0E0FCA3E0FDA3E0FEA3E0FF9006CF
:10783F0011E0F8A3E0F9A3E0FAA3E0FBC3123A4A80
:10784F007065900608E0FCA3E0FDA3E0FEA3E0FF57
:10785F00EC4D4E4F6049900608A3A3A3E024FFFF11
:10786F00EE34FFFEED34FFFDEC34FFFC9006081202
:10787F003A81900608A3A3A3E05401FFE4FEFDFCA8
:10788F00FBFAF9F8C3123A4A600302792F90090400
:10789F00E030E70512DFAF800312E523B2B022908C
:1078AF0003CAE054FCF022900611E0FCA3E0FDA314
:1078BF00E0FEA3E02401FFE43EFEE43DFDE43CFCDA
:1078CF00900611123A81900611A3A3A3E05401FF71
:1078DF00E4FEFDFCFBFAF9F8C3123A4A7011900965
:1078EF0004E030E70512DFAF800312E523B2B0905A
:1078FF000611A3A3A3E0543FFFE4FEFDFCFBFAF93E
:10790F00F8C3123A4A701990082FE0D3940550101B
:10791F00900884E020E7091258CE90082FE004F079
:01792F002235
:10D7B400900611123A8D000000009003CAE0444024
:10D7C400F054C012E51BE4900884F0900892F090A5
:10D7D4000615F09003CBF09008F5F09005EFF0906B
:10D7E40003DAF0900818F09003D3F0A3F090060841
:0AD7F400123A8D000000000292E9D5
:10ACA000900611E0FCA3E0FDA3E0FEA3E02401FF79
:10ACB000E43EFEE43DFDE43CFC900611123A819036
:10ACC0000611A3A3A3E05401FFE4FEFDFCFBFAF987
:10ACD000F8C3123A4A7025900611123A8D0000000E
:10ACE00000900904E030E70512DFAF800312E5238E
:0DACF0001258C19003CAE054FC4402F02247
:10B26A00900611E0FCA3E0FDA3E0FEA3E02401FFA9
:10B27A00E43EFEE43DFDE43CFC900611123A819066
:10B28A000611A3A3A3E05401FFE4FEFDFCFBFAF9B7
:10B29A00F8C3123A4A7024900611123A8D0000003F
:10B2AA0000900904E030E70512DFAF800312E523BE
:0CB2BA00B2B09003CAE054FC4401F02242
:107930009005F0E0FCA3E0FDA3E0FEA3E0FF9006CD
:1079400011E0F8A3E0F9A3E0FAA3E0FBC3123A4A7E
:107950007065900608E0FCA3E0FDA3E0FEA3E0FF55
:10796000EC4D4E4F6049900608A3A3A3E024FFFF0F
:10797000EE34FFFEED34FFFDEC34FFFC9006081200
:107980003A81900608A3A3A3E05401FFE4FEFDFCA6
:10799000FBFAF9F8C3123A4A6003027A30900904FC
:1079A000E030E70512DFAF800312E523B2B022908A
:1079B00003CAE054FCF022900611E0FCA3E0FDA312
:1079C000E0FEA3E02401FFE43EFEE43DFDE43CFCD8
:1079D000900611123A81900611A3A3A3E05401FF6F
:1079E000E4FEFDFCFBFAF9F8C3123A4A7011900963
:1079F00004E030E70512DFAF800312E523B2B09058
:107A00000611A3A3A3E0543FFFE4FEFDFCFBFAF93B
:107A1000F8C3123A4A701990082FE0D39405501019
:107A2000900884E020E7091258CE90082FE004F077
:017A30002233
:10AA1400900611123A8D000000009003CAE04444ED
:10AA2400F054CCF0E49008E0F0C2B0900904E030B7
:10AA3400E70512DFAF800312E523E4900884F09069
:10AA44000892F0900615F09003CBF09008F5F09082
:10AA540005EFF09003DAF0900818F09003D3F0A318
:0EAA6400F0900608123A8D000000000292E900
:10ACFD00900611E0FCA3E0FDA3E0FEA3E02401FF1C
:10AD0D00E43EFEE43DFDE43CFC900611123A8190D8
:10AD1D000611A3A3A3E05401FFE4FEFDFCFBFAF929
:10AD2D00F8C3123A4A7025900611123A8D000000B0
:10AD3D0000900904E030E70512DFAF800312E52330
:0DAD4D001258C19003CAE054FC4402F022E9
:10B2C600900611E0FCA3E0FDA3E0FEA3E02401FF4D
:10B2D600E43EFEE43DFDE43CFC900611123A81900A
:10B2E6000611A3A3A3E05401FFE4FEFDFCFBFAF95B
:10B2F600F8C3123A4A7024900611123A8D000000E3
:10B3060000900904E030E70512DFAF800312E52361
:0CB31600B2B09003CAE054FC4401F022E5
:107A31009005F0E0FCA3E0FDA3E0FEA3E0FF9006CB
:107A410011E0F8A3E0F9A3E0FAA3E0FBC3123A4A7C
:107A51007065900608E0FCA3E0FDA3E0FEA3E0FF53
:107A6100EC4D4E4F6049900608A3A3A3E024FFFF0D
:107A7100EE34FFFEED34FFFDEC34FFFC90060812FE
:107A81003A81900608A3A3A3E05401FFE4FEFDFCA4
:107A9100FBFAF9F8C3123A4A6003027B31900904F8
:107AA100E030E70512DFAF800312E523B2B0229088
:107AB10003CAE054FCF022900611E0FCA3E0FDA310
:107AC100E0FEA3E02401FFE43EFEE43DFDE43CFCD6
:107AD100900611123A81900611A3A3A3E05401FF6D
:107AE100E4FEFDFCFBFAF9F8C3123A4A7011900961
:107AF10004E030E70512DFAF800312E523B2B09056
:107B01000611A3A3A3E0543FFFE4FEFDFCFBFAF939
:107B1100F8C3123A4A701990082FE0D39405501017
:107B2100900884E020E7091258CE90082FE004F075
:017B31002231
:10D7FE00900611123A8D000000009003CAE04440DA
:10D80E00F054CC12E51BE4900884F0900892F0904E
:10D81E000615F09003CBF09008F5F09005EFF09020
:10D82E0003DAF0900818F09003D3F0A3F0900608F6
:0AD83E00123A8D000000000292E98A
:10AD5A00900611E0FCA3E0FDA3E0FEA3E02401FFBE
:10AD6A00E43EFEE43DFDE43CFC900611123A81907B
:10AD7A000611A3A3A3E05401FFE4FEFDFCFBFAF9CC
:10AD8A00F8C3123A4A7025900611123A8D00000053
:10AD9A0000900904E030E70512DFAF800312E523D3
:0DADAA001258C19003CAE054FC4402F0228C
:10B32200900611E0FCA3E0FDA3E0FEA3E02401FFF0
:10B33200E43EFEE43DFDE43CFC900611123A8190AD
:10B342000611A3A3A3E05401FFE4FEFDFCFBFAF9FE
:10B35200F8C3123A4A7024900611123A8D00000086
:10B3620000900904E030E70512DFAF800312E52305
:0CB37200B2B09003CAE054FC4401F02289
:107B32009005F0E0FCA3E0FDA3E0FEA3E0FF9006C9
:107B420011E0F8A3E0F9A3E0FAA3E0FBC3123A4A7A
:107B52007065900608E0FCA3E0FDA3E0FEA3E0FF51
:107B6200EC4D4E4F6049900608A3A3A3E024FFFF0B
:107B7200EE34FFFEED34FFFDEC34FFFC90060812FC
:107B82003A81900608A3A3A3E05401FFE4FEFDFCA2
:107B9200FBFAF9F8C3123A4A6003027C32900904F4
:107BA200E030E70512DFAF800312E523B2B0229086
:107BB20003CAE054FCF022900611E0FCA3E0FDA30E
:107BC200E0FEA3E02401FFE43EFEE43DFDE43CFCD4
:107BD200900611123A81900611A3A3A3E05401FF6B
:107BE200E4FEFDFCFBFAF9F8C3123A4A701190095F
