:02E52D0034ECCC
:02E52F00208644
:02E53100434164
:02E53500631E63
:02E53700CE40D4
:02E53900E429D3
:02E53B00502866
:02E53D009AB38F
:02E53F0098D86A
:02E54100994FF0
:02E5430099C677
:02E545009654EA
:02E54700BD0F06
:02E54900BAF125
:02E54B00BB4CC7
:032000000295CE78
:0695CE0075815102960FA9
:10E899006D4456524D432D30302D52442D352E3670
:10270E004908D45500000000000000004108FB00FD
:10271E004108FC0041088F00410839004503D240B2
:10272E00A0E6CCB24408EA000000004103CC004110
:10273E00081D004208E300004108190341081F3B31
:10274E004108210141082428410827004208F600CB
:10275E00004103C8004108F5004108E0004108F4BB
:10276E00004108DF004108E1004104E40042082A6C
:10277E0000004408850000000041060E0041082CB0
:10278E0041410823004108D11141087F014105F163
:10279E002441087E094108EF074108DE004103C9C4
:1027AE000041082D00410905FF4109063F4109027C
:1027BE00FE410904FF4108F800C10160C30000FF9B
:1027CE0097DEFF922DFF922DFF922DFF5DAEFF5FE4
:1027DE000EFF411DFF4B2AFF3796FFCEE0FF9A3DBD
:1027EE00FF4564FF3EE4FF922DFF922DFF922DFFD9
:1027FE005680FF2B9DFF84D1FF5C49FF922DFF92E7
:10280E002DFFCB0EFFE2D9FF6BD8FF646AFF606E1F
:10281E00FF61C6FF9C82FF5AE3FF868BFF922DFF5E
:10282E00922DFF6D04FF6E2BFF6F52FF7078FF53DA
:10283E0058FF54ECFF3CA6FF719EFF6AAAFF65B5D8
:10284E00FF6836FF6976FF51C3FF4CD9FF4E85FFF7
:10285E00922DFF5808FF922DFF922DFF922DFF9281
:10286E002DFF922DFF922DFF922DFF922DFF922D77
:10287E00FF922DFF922DFF3A39FF477FFF4959FFF7
:10288E00922DC100630000C4FFE56CFFEA8AFFEAE7
:10289E0090FFEA96FFE6ABFF9D63FFBD68FFCF2E6C
:1028AE00FFCB61FF8760FFC708FFCF7CFFEA0FFFFA
:1028BE00EA3BFFEA43FFEA4BFFE6C6FF9DD3FFBDAF
:1028CE00C0FFCFCAFFE6E1FF9E43FFBE18FFCC5A02
:1028DE00FFE3B0FF9B9CFFAA00FFBBA7FFE6FCFF38
:1028EE009EB3FFBC01FFCBB4FFC7B6FF8828FFC75E
:1028FE005FFFD018FFD0B4FF88F0FFC80DFFD06681
:10290E00FFD5DBFF89B8FFD3C0FFD102FFD626FF6C
:10291E008A80FFD40DFFB708FFEA1AFFEA53FFEAD9
:10292E005BFFEA63FFE717FF9F23FFBE70FFCCAB91
:10293E00FFD671FF8B48FFC864FFD150FF200EFFFA
:10294E00EA6BFFEA73FFEA7BFFDC97FF9F93FFBE04
:10295E00C8FFC9BEFFDCD3FFA003FFBF20FFB763D4
:10296E00FFDD0FFFA073FFBF78FFB7BEFFDD4BFF8C
:10297E00A0E3FFBFD0FFCA12FFDD87FFA153FFC048
:10298E0028FFB819FFDDC3FFA1C3FFC080FFB874D5
:10299E00FFDDFFFFA233FFC0D8FFAA5EFFDE3BFFC5
:1029AE00A2A3FFC130FFB8CFFFDE77FFA313FFC195
:1029BE0088FFB92AFFDEB3FFA383FFC1E0FFAABCE5
:1029CE00FFDEEFFFA3F3FFC238FFB985FFDF2BFF5A
:1029DE00A463FFC290FFB9E0FFDF67FFA4D3FFC27D
:1029EE00E8FFCA66FFDFA3FFA543FFC340FFBA3B64
:1029FE00FFE200FFA5B3FFC398FFBA96FFE23CFFCC
:102A0E00A623FFC3F0FFCABAFFD45AFF73D3FFB198
:102A1E0048FFAB78FFD833FF74D4FFB1A4FFABD51A
:102A2E00FFDA35FF75D5FFB200FFAC32FFDB96FF44
:102A3E0076D6FFB25CFFAC8FFFD87DFF77D7FFB2A3
:102A4E00B8FFACECFFD8C7FF78D8FFB314FFAD4981
:102A5E00FFAB1AFF79D9FFB370FFADA6FFD911FFF7
:102A6E007ADAFFB3CCFFAE03FFDB0AFF7BDBFFB4EA
:102A7E0028FFAE60FFD9A5FF7CDCFFB484FFAEBD9E
:102A8E00FFDA7CFF7DDDFFB4E0FFAF1AFFDB50FF06
:102A9E007EDEFFB53CFFAF77FFDBD7FF7FDFFFB5F5
:102AAE0098FFAFD4FFD95BFF80E0FFB5F4FFB031E4
:102ABE00FFDAC3FF81E1FFB650FFB08EFFDC18FFD7
:102ACE0082E2FFB6ACFFB0EBFFEA25FFE833FFE88A
:102ADE0045FFE857FFE732FFA693FFC448FFCCFC43
:102AEE00FFD6BCFF8C10FFC8BBFFD19EFF2026FF78
:102AFE00E603FFE61FFFE63BFFE74DFFA703FFC41C
:102B0E00A0FFCD4DFFE768FFA773FFC4F8FFC550C8
:102B1E00FFE783FFA7E3FFC5A8FFC600FFE79EFF01
:102B2E00A853FFC658FFCD9EFFD707FF8CD8FFD402
:102B3E00A7FFD1ECFFD288FF8DA0FFD4F4FFD23ACD
:102B4E00FFD752FF8E68FFD541FFD2D6FFD79DFF2C
:102B5E008F30FFD58EFFD324FFE81EFFE657FFE62A
:102B6E0073FFE68FFFE7B9FFA8C3FFC6B0FFCDEF37
:102B7E00FFD7E8FF8FF8FFC912FFD372FFE58BFF77
:0E2B8E00E477FFE49DFFE4C34303C4000000AE
:1034EC0053D9BFE49008F9F0A3F09008E5123483A7
:1034FC0000000000C298C299C2ACC28E12E3321214
:10350C00E50D12E54D12E93F75C7FFD294D295D265
:10351C0096D293D297D2A7E49008DEF090081AF0D6
:10352C009005ECF09003D8F090081EF09004E5F0B4
:10353C009003CFF090081374FFF09003DD74E4F067
:10354C00E49008F5F09003C8F090082AF0A3F090EE
:10355C000889F090088512348300000000E490087C
:10356C00DDF0E5B05480FFE5A0543F4FFFE5C754B4
:10357C0008FE33333354F84F9008F2F0900831E4DE
:10358C00F0A3741FF0A3E4F0A3741FF0900836E4CA
:10359C00F0A3741FF0900879E4F0A3741FF0900866
:1035AC007CE4F0A3741FF09005FBE4F0A3741FF00F
:1035BC009005FFE4F0A3741FF0A3E4F0A3741FF0D4
:1035CC0090060AE4F0A3741FF0A3E4F0A3741FF0B8
:1035DC00E4900882F09005F6F09005ED123483002B
:1035EC000007449005F21234830000026C9006062A
:1035FC00123483000000009004E7E4F0A374BAF0E6
:10360C00E4900881F09003D0F0A3F0900816F090AD
:10361C0008847480F09005FDF09008207408F090F8
:10362C0003DAF0E49003C7F090088CF012E3D99021
:10363C0004E4E0B455069008E1E08001E49005EB69
:10364C00F0E490087BF09005F7123483000367E0F8
:10365C00C29853D2FD53D2FED2AC43A812C29843A7
:10366C00E70253D2FD53D2FE43D202D29943E60174
:10367C00D2AFE49003CDF09004E3F090090BF090FE
:10368C0008F3F09009037455F09008EEF09008FDE3
:10369C0074F5F09008E9F09005FE7405F012DC5911
:1036AC0043C18012975F53C17F90090BE0603D903E
:1036BC000903E0FF3395E0FE9008D4E0FD7C00C3E5
:1036CC009FEE6480F874809850159008FDE0FF33ED
:1036DC0095E0FED3ED9FEE6480F87480985007E47B
:1036EC009008E2F080069008E27401F09008F3E094
:1036FC00603E9008EEE0FF3395E0FE9008D6E0FDCA
:10370C007C00C39FEE6480F874809850159008E993
:10371C00E0FF3395E0FED3ED9FEE6480F874809863
:10372C005007E49008D0F080079008D0E05401F0E6
:10373C007F02122F4C7F06122F4C7F04122F4C7FCE
:10374C0001122F4C9008FE123483000000009004EC
:10375C00E2741EF0900906E054BFFFF0E49003C938
:10376C00F09003D9F0EF54DF12E30612E93012E9BE
:10377C006C12E98A53D9F043D90A75FDFF43D9403D
:0A378C00E4900880F075FEFF80FB5A
:10E50D00E4FFFE75B12075B9810FBF00010EEF64F8
:0FE51D00284E70F543B9C0E5B930E5FB75A90389
:01E52C0022CC
:10E3320075F1FF75A45D75A5F375A68075F3BF75BC
:10E34200A74C75AE8575F4CD75F5BF75D48075D5BE
:0BE352000175E10775E24075E3012250
:10E54D00122076E4FF12917712E86912E8A912E71A
:0FE55D00EE12EA8312EAA27F0512E2A9022072EF
:0FE8A900438920438E08758D40E4F58BD28E2273
:10E8690075981075D21075AC4375B5FF75B4402213
:01207200224B
:0C20760075A17075F80175A205C2FF226B
:10E2A9008FBB75BA1F75BCB875E88075C40275C394
:10E2B9006F75C60175C5919008197402F090081F11
:10E2C900746FF09008217401F09008247491F02281
:04EAA20075D10C22FC
:032023000296DA48
:1096DA00C0E0C083C082C0D075D000C00730985F98
:1096EA00C2989008DEE060629005ECE0FF04F07436
:1096FA008F2FF582E43408F583E599F09008F8E4B1
:10970A00F090088FE0FF9005ECE06F703D900893B1
:10971A00E0FF64026004EFB4031E900890E0B40115
:10972A0017A3E070139004E504F09005ECE4F090C0
:10973A0003DDE0547FF080129005ECE4F0800B30FA
:10974A0099089008FB7401F0C299D007D0D0D08252
:05975A00D083D0E032D5
:03208300029B2895
:109B2800C0E0C083C082C0D075D000C007E5D23085
:109B3800E04453D2FE9003D8E0FF04F074392FF5C7
:109B480082E43408F583E5D3F0900839E0FF900308
:109B5800D8E0B5072190083DE0FF64026004EFB447
:109B6800030F9003DDE0547FF09003CF7401F08081
:109B7800009003D8E4F0E5D230E10EE5D230E509F3
:109B880053D2FD9008FC7401F0D007D0D0D082D019
:049B980083D0E03264
:10E38700D3EF9440EE940040047E007F409000005D
:10E3970075F003EF1234B4EE75F003A42583F5830B
:09E3A700A3E0FAA3E0F90234E658
:1097DE00E4900A73F09008E51234830000000090C4
:1097EE00088FE0FFE4FCFDFE9008E5E0F8A3E0F949
:1097FE00A3E0FAA3E0FBC312344050399008E5A36E
:10980E00A3A3E0248FF582E43408F583E0FF900AE9
:10981E0073E02FF09008E5E0FCA3E0FDA3E0FEA3CB
:10982E00E02401FFE43EFEE43DFDE43CFC9008E54F
:10983E0012347780AA900A73E0700D9003C7F090EF
:0D984E0008807402F002DFDFE4FF12938354
:01985B0022EA
:1051C300E4900A74F09008E5123483000000009024
:1051D300088FE0FFE4FCFDFE9008E5E0F8A3E0F9AA
:1051E300A3E0FAA3E0FBC312344050399008E5A3CF
:1051F300A3A3E0248FF582E43408F583E0FF900A4B
:1052030074E02FF09008E5E0FCA3E0FDA3E0FEA32B
:10521300E02401FFE43EFEE43DFDE43CFC9008E5B0
:1052230012347780AA900A74E0600302535274190F
:10523300F09003C8E0FF04F074132FF582E4340602
:10524300F5837416F0900891E0FF9003C8E0FE0424
:10525300F074132EF582E43406F583EFF0900A74AC
:10526300E02FF0900890E0FF9003C8E0FE04F07494
:10527300132EF582E43406F583EFF0900A74E02FE1
:10528300F0900892E0FF9003C8E0FE04F074132E40
:10529300F582E43406F583EFF0900A74E02FF09082
:1052A30003C8E0FF04F074132FF582E43406F5839A
:1052B3007403F09008E512348300000000E47F10CB
:1052C300FEFDFC9008E5E0F8A3E0F9A3E0FAA3E013
:1052D300FBC3123440504D9008E5A3A3A3E0FF9015
:1052E300E89993FE9003C8E0FD04F074132DF58252
:1052F300E43406F583EEF0EF90E89993FF900A7497
:10530300E02FF09008E5E0FCA3E0FDA3E0FEA3E0BE
:105313002401FFE43EFEE43DFDE43CFC9008E5127D
:1053230034778099900A74E0FFC3E49FFF9003C829
:10533300E0FE04F074132EF582E43406F583EFF0F7
:105343009008F7E02416F09008F6E03400F0227F8E
:045353002D12938301
:015357002233
:109383007E2A9003C8E0FD04F074132DF582E434C3
:1093930006F5837407F09003C8E0FD04F074132D01
:1093A300F582E43406F583E4F09003C8E0FD04F0AD
:1093B30074132DF582E43406F5837401F09003C829
:1093C300E0FD04F074132DF582E43406F583741F75
:1093D300F09003C8E0FD04F074132DF582E4340625
:1093E300F5837403F09003C8E0FD04F074132DF5C6
:1093F30082E43406F583EFF02EFFC3E49FFF90036E
:10940300C8E0FE04F074132EF582E43406F583EF0E
:0F941300F09008F7E02407F09008F6E03400F03E
:019422002227
:10922D007F0A9003C8E0FE04F074132EF582E43437
:10923D0006F5837407F0900891E0FE9003C8E0FDF9
:10924D0004F074132DF582E43406F583EEF0EE2F61
:10925D00FF900890E0FE9003C8E0FD04F074132D1C
:10926D00F582E43406F583EEF0EE2FFF900892E0E0
:10927D00FE9003C8E0FD04F074132DF582E434066E
:10928D00F583EEF0EE2FFF9003C8E0FE04F07413AB
:10929D002EF582E43406F5837403F09003C8E0FEE6
:1092AD0004F074132EF582E43406F583E4F0C39FC5
:1092BD00FF9003C8E0FE04F074132EF582E434062B
:1092CD00F583EFF09008F7E02407F09008F6E0340E
:0292DD0000F09F
:0192DF00226C
:10CB0E00900894E0FEA3E0FBEBFF9003DBEEF0A3B6
:10CB1E00EFF09003CEF0900896E09005E9F09008C3
:10CB2E0097E09008D3F0900898E09008D2F0900625
:10CB3E00137443F0A3744CF0A3744FF0A3744BF032
:10CB4E00A3740AF09008F6E4F0A37405F0E49008DC
:03CB5E00F5F022CD
:10E2D900900894E09004E2F09006137453F0A3744C
:10E2E90041F0A37452F0A3743DF0A3740AF09008AE
:0DE2F900F6E4F0A37405F0E49008F5F022BF
:10E5E600E4FE9008FBE06007E4F08F997F01220EBD
:0CE5F600EEC394FF40ECEEB4FF027F0087
:01E6020022F5
:0EE9F3009008FCE060FAE49008FCF08FD3225C
:08200300C2FF8FA330FFFD2294
:07E8B800EFF0E4FF12200362
:08E8BF0030FFFDC2FFAFA322F0
:10DC5900C29612E8BA12E8BB90082312E8B89008F5
:10DC69002C12E8B89008D112E8B890087F12E8B8E9
:10DC79009005F112E8B890087E12E8B89008EFEF25
:0EDC8900F0D296C3940940037F01227F00224F
:109C1000E4900A10F0A3F0C2967F1912200312E814
:109C2000BF8021C3900A10E09401501F12E8BFE4E6
:109C300075F00112330DFC741025F0F58274093CA7
:109C4000F583EFF07F1912200380D8D296E4900AB2
:109C500010F0A3F0900A10E0FEA3E0FFC3EE940121
:109C6000501F74102FF582E43409F583E0FD12953E
:109C700044900A11E004F070DB900A10E004F080D8
:019C8000D310
:019C810022C0
:10E40200E4FEC2967F9912200312E8BFFDFCAF061C
:10E412000E12200312E8BF0DBD00010CE4B505EE9B
:06E42200ECB401EAD29601
:01E4280022D1
:10954400900A51EFF0A3EDF0900A51E0C4540FFFDC
:10955400C3940A4005EF24378009900A51E0C454AB
:109564000F2430FF12E450900A51E0540FFFC394CB
:109574000A4005EF24378008900A51E0540F243044
:10958400FF12E4507F3A12E450900A52E0C4540FA0
:10959400FFC3940A4005EF24378009900A52E0C4BF
:1095A400540F2430FF12E450900A52E0540FFFC3CA
:1095B400940A4005EF24378008900A52E0540F249F
:0A95C40030FF12E4507F2002E45053
:06985C00900A4A12347765
:1098620053C7FBC2FF75A30330FFFDC2FF900A4A34
:10987200E0FCA3E0FDA3E0FEA3E0FF781012345168
:109882008FA330FFFDC2FF900A4AE0FCA3E0FDA3D4
:10989200E0FEA3E0FF78081234518FA330FFFDC22F
:1098A200FF900A4AA3A3A3E0F5A330FFFDE4FFFE65
:1098B200C2FFE4F5A330FFFD74DE2FF582E434032A
:1098C200F583E5A3F00FBF00010EBE01E3BF01E087
:0598D20043C7047FDE26
:0198D700226E
:1092E000900A2D123477900A31EBF0A3EAF0A3E94B
:0192F000F08D
:1092F10053C7FBC2FF75A30630FFFD43C70453C725
:10930100FBC2FF75A30230FFFDC2FF900A2DE0FCF6
:10931100A3E0FDA3E0FEA3E0FF78101234518FA378
:1093210030FFFDC2FF900A2DE0FCA3E0FDA3E0FEAB
:10933100A3E0FF78081234518FA330FFFDC2FF90E4
:109341000A2DA3A3A3E0F5A330FFFDE4FFFED39014
:10935100082BE09F90082AE09E4021C2FF900A312D
:10936100E0FBA3E475F00112330DA9F0FA12322FDC
:10937100F5A330FFFD0FBF00010E80D2C2FF43C72E
:0193810004E7
:0193820022C8
:109CF300900A3B12347753C7FBC2FF75A30630FFAC
:109D0300FD43C70453C7FBC2FF900A3FE0F5A330EE
:109D1300FFFD900A3FE064C76042C2FF900A3BE048
:109D2300FCA3E0FDA3E0FEA3E0FF78101234518F03
:109D3300A330FFFDC2FF900A3BE0FCA3E0FDA3E0DC
:109D4300FEA3E0FF78081234518FA330FFFDC2FF5A
:109D5300900A3BA3A3A3E0F5A330FFFD43C704226E
:0FE87900E4900A44F0900A40123483000001003A
:01E88800226D
:10942300900894E0900823F0900895E090082CF0C1
:10943300900896E09008D1F0900897E090087FF0AC
:10944300900898E09005F1F0900899E090087EF07C
:1094530090089AE09008EFF043C180900823E0FB66
:109463007DD07C00E4FF12D9F490082C7F0112D93F
:10947300EE9008D17F0212D9EE90087FE0FB7DD0F9
:109483007C007F0312D9F49005F1E0FB7DD07C00D2
:109493007F0412D9F490087EE0FB7DD07C007F0529
:1094A30012D9F49008EFE0FB7DD07C007F0612D93F
:0594B300F453C17F220B
:104B2A00E4900A75F09008E51234830000000090C2
:104B3A00088FE0FFE4FCFDFE9008E5E0F8A3E0F949
:104B4A00A3E0FAA3E0FBC312344050399008E5A36E
:104B5A00A3A3E0248FF582E43408F583E0FF900AEA
:104B6A0075E02FF09008E5E0FCA3E0FDA3E0FEA3CA
:104B7A00E02401FFE43EFEE43DFDE43CFC9008E550
:104B8A0012347780AA900A75E06003024CD3C2936C
:104B9A00900894E0900823F0900895E090082CF093
:104BAA00900896E09008D1F0900897E090087FF07E
:104BBA00900898E09005F1F0900899E090087EF04E
:104BCA0090089AE09008EFF0E4900A75F0900A7560
:104BDA00E004F0E0B4FFF6D293C2967F801220037D
:104BEA0012E8BF900823E012E8BB90082CE012E814
:104BFA00BB9008D1E012E8BB90087FE012E8BB90B6
:104C0A0005F1E012E8BB90087EE012E8BB9008EFDD
:104C1A00E012E8BBD296900A757409F09003C8E0D6
:104C2A00FF04F074132FF582E43406F5837406F05A
:104C3A00900891E0FF9003C8E0FE04F074132EF58B
:104C4A0082E43406F583EFF0900A75E02FF09008BD
:104C5A0090E0FF9003C8E0FE04F074132EF582E49E
:104C6A003406F583EFF0900A75E02FF0900892E091
:104C7A00FF9003C8E0FE04F074132EF582E43406B4
:104C8A00F583EFF0900A75E02FF09003C8E0FF0477
:104C9A00F074132FF582E43406F5837403F0900A56
:104CAA0075E0FFC3E49FFF9003C8E0FE04F07413AD
:104CBA002EF582E43406F583EFF09008F7E0240637
:0E4CCA00F09008F6E03400F0227F071293838A
:014CD80022B9
:07EA830075C15D43C1802253
:10E7EE00E4F591538E3F759398F5928593958592A6
:08E7FE009443E68043910422DC
:03203B000266F644
:1066F600C0E0C0F0C083C082C0D075D000C000C06A
:0B67060001C002C003C004C005C007B2
:10671100C206E5C054F0248070030267B824C0604B
:106721002024E06003026806900835E0F5C253C2F8
:10673100FEA205E43342C2C2C59000C3E4F0026880
:106741000830C168300007D2C5C2000268083003B2
:1067510015C203900822E0F5C2200203026808D2A4
:1067610000D2050268083005030268089005EAE0D6
:10677100FF9000C3E0FD3395E0FCC3ED9F7480F80A
:106781006C985022900603E0FBA3E0FAA3E0F91213
:10679100322FF5C2900604E475F0011232F7900031
:1067A100C3E004F08061D2C4C201805B300404D232
:1067B100C58054D20680509005EAE0FF9000C3E006
:1067C100FD3395E0FCC3ED9F7480F86C98502290E6
:1067D100082EE0FBA3E0FAA3E0F9E5C212324890EB
:1067E100082FE475F0011232F79000C3E004F0D2F3
:1067F100C19000C3E0FF9005EAE0B5070AC201C2FB
:10680100C1D2C48002D20630061053C17F43C18079
:0C681100C2C5C2C4C2C1C201C206C2C0DE
:10681D00D007D005D004D003D002D001D000D0D005
:09682D00D082D083D0F0D0E0321B
:0320730002EA017D
:0EEA010053C17F43C18053917FC2C5C2013211
:06D9EE00E0FB7DD07C008F
:10D9F400E4FE3001080EEEB4FFF8E4802FD201906B
:10DA04000835EDF0C205D203C202D204900822EF19
:10DA1400F09004E6EBF09006037401F0A37404F0B4
:10DA2400A374E6F09005EA7401F0D2C59003CDF03A
:01DA340022CF
:05CE9100900A22EFF001
:10CE9600900A2AEBF0A3EAF0A3E9F0E4900A29F05D
:10CEA600900A28E0FFA3E0C39F502E900A22E0FFDD
:10CEB60004F0900A26E0FCA3E0FD900A2AE0FBA31A
:10CEC600E475F00112330DA9F0FA12322FFB12D9D4
:09CED600F4900A29E004F080C781
:01CEDF002230
:10C96900E4FE30010D0EEEB4FFF8E49003CDF07F44
:10C97900FF22D201900835EDF0C205D203D202D2CE
:10C9890004900822EFF090082E7401F0A3740AF0C5
:10C99900A37476F09005EA7401F0D2C5E4FE300183
:10C9A900080EEEB4FFF87FFF229003CD7401F090DA
:04C9B9000A76E0FF1B
:01C9BD002257
:08A99A00A3F0A37402F0E4FD38
:10A9A200E4FFFE30010D0FBF00010EBEFFF5BFFF39
:10A9B200F2803ED201900A38A3E0900835F0C20539
:10A9C200D203D202D204900822EDF090082EEBF0CE
:10A9D200A3EAF0A3E9F0900A3AE09005EAF0D2C5C2
:10A9E200E4FEFF3001110FBF00010EBEFFF5BFFFF5
:0DA9F200F2E49003CDF0229003CD7401F04B
:01A9FF002235
:0D597800B2B0E490082DF09008827408F0A1
:10598500900A777414F09003C8E0FF04F074132FA5
:10599500F582E43406F5837409F09003C8E0FF044A
:1059A500F074132FF582E43406F583E4F09003C810
:1059B500E0FF04F074132FF582E43406F5837401D7
:1059C500F09003C8E0FF04F074132FF582E4340669
:1059D500F5837408F09003C8E0FF04F074132FF505
:1059E50082E43406F5837402F09003C7E0FF54C0E7
:1059F500FEBE8013A3E0FE04F074132EF582E4349A
:105A050006F583E4F08046EF5430FFBF201C900379
:105A1500C8E0FF04F074132FF582E43406F58374AF
:105A250001F0900A77E004F080239003C7E0540C5E
:105A3500FFBF0819A3E0FF04F074132FF582E434C7
:105A450006F5837402F0900A77E02402F0900606CA
:105A5500E0FCA3E0FDA3E0FEA3E0FF9005EDE0F888
:105A6500A3E0F9A3E0FAA3E02FFFEA3EFEE93DFD3E
:105A7500E83CFCE47B3EFAF9F81233AEAD07AC0620
:105A8500ECFF9003C8E0FE04F074132EF582E434B5
:105A950006F583EFF0900A77E02FF0AF059003C885
:105AA500E0FE04F074132EF582E43406F583EFF07E
:105AB500900A77E02FF0E0FFC3E49FFF9003C8E072
:105AC500FE04F074132EF582E43406F583EFF090AE
:0D5AD50008F7E02409F09008F6E03400F036
:015AE20022A1
:0383E3007480F0B3
:1083E6007F139005F67401F09003C8E0FE04F07464
:1083F600132EF582E43406F5837407F09003C8E083
:10840600FE04F074132EF582E43406F583E4F0904E
:1084160003C8E0FE04F074132EF582E43406F583F7
:108426007401F09003C8E0FE04F074132EF582E4A4
:108436003406F5837409F09003C8E0FE04F0741363
:108446002EF582E43406F5837402F09003C7E0FE4D
:1084560054C0FDBD4013A3E0FD04F074132DF58256
:10846600E43406F583E4F0803CEE5430FEBE10178B
:108476009003C8E0FE04F074132EF582E43406F58A
:10848600837401F00F801E9003C7E0540CFEBE04F7
:1084960014A3E0FE04F074132EF582E43406F5838B
:1084A6007402F00F0FC3E49FFF9003C8E0FE04F0D0
:1084B60074132EF582E43406F583EFF09008F7E0A6
:0A84C6002407F09008F6E03400F0FF
:0184D0002289
:10379600E4900A49F09008E5123483000000009096
:1037A600088FE0FFE4FCFDFE9008E5E0F8A3E0F9F1
:1037B600A3E0FAA3E0FBC312344050399008E5A316
:1037C600A3A3E0248FF582E43408F583E0FF900A92
:1037D60049E02FF09008E5E0FCA3E0FDA3E0FEA39E
:1037E600E02401FFE43EFEE43DFDE43CFC9008E5F8
:1037F60012347780AA900A49E06003023A339008AF
:1038060082E04480F0900893E0640360030238A1EC
:10381600A3E0FFE4FCFDFE7808123464E4FFE4FD57
:10382600FC900A45123477900A45E0F8A3E0F9A324
:10383600E0FAA3E0FB900895E0FFE4FCFDFEEB2F29
:10384600FFEE3AFEED39FDEC38FC900A451234776E
:10385600900A45E0FCA3E0FDA3E0FEA3E0FFE47BC5
:103866003EFAF9F8123323900A4512347790060689
:10387600E0FCA3E0FDA3E0FEA3E0FF900A45E0F82C
:10388600A3E0F9A3E0FAA3E0FBEF2BFFEE3AFEED8F
:1038960039FDEC38FC900606123477900893E06404
:1038A600026003023A38900A497414F09003C8E0A3
:1038B600FF04F074132FF582E43406F5837408F0E0
:1038C6009003C8E0FF04F074132FF582E43406F584
:1038D60083E4F09003C8E0FF04F074132FF582E44C
:1038E6003406F5837401F09003C8E0FF04F0741306
:1038F6002FF582E43406F5837408F09003C8E0FFE0
:1039060004F074132FF582E43406F5837403F09003
:103916000894E0FFE4FCFDFE7808123464E4FFE45A
:10392600FDFC900A45123477900A45E0F8A3E0F9C9
:10393600A3E0FAA3E0FB900895E0FFE4FCFDFEEBB4
:103946002FFFEE3AFEED39FDEC38FC900A451234B5
:1039560077900A45E0FCA3E0FDA3E0FEA3E0FFE4C8
:103966007B3EFAF9F8123323900A45123477900613
:1039760006E0FCA3E0FDA3E0FEA3E0FF900A45E01D
:10398600F8A3E0F9A3E0FAA3E0FBEF2BFFEE3AFE83
:10399600ED39FDEC38FC900606123477900606E009
:1039A600FCA3E0FDA3E0FEA3E0FF9005EDE0F8A395
:1039B600E0F9A3E0FAA3E02FFFEA3EFEE93DFDE8C9
:1039C6003CFCE47B3EFAF9F81233AEAD07AC06ECEC
:1039D600FF9003C8E0FE04F074132EF582E434066B
:1039E600F583EFF0900A49E02FF0AF059003C8E0A9
:1039F600FE04F074132EF582E43406F583EFF0909E
:103A06000A49E02FF0E0FFC3E49FFF9003C8E0FE01
:103A160004F074132EF582E43406F583EFF0900873
:103A2600F7E02408F09008F6E03400F0227F081250
:023A3600938378
:013A3800226B
:10CEE000E4FFFE90088FE0FDEEC39D5010748F2E7E
:10CEF000F582E43408F583E02FFF0E80E6EF70281A
:10CF0000900882F09006061234830000000090081A
:10CF100094E07F056005122F4C8003122FD5E4901A
:0DCF200005F6F0900882F0227F091293833D
:01CF2D0022E1
:10E8060075F003EFA424C4F582E5F03400F583A384
:08E81600E0FAA3E0F90234E688
:10E56C0090060F123483000000009004DE123483F6
:0FE57C000000000090090C123483000000002200
:06EA8A00E49003C7F02236
:06EA9000E49003C7F02230
:06EA9600E49003C7F0222A
:10E6AB00E49008DEF09004DE12348300000000904A
:0BE6BB0003C7E004F012E88902E9E464
:109D63009004DEE0FCA3E0FDA3E0FEA3E02401FFFA
:109D7300E43EFEE43DFDE43CFC9004DE12347790C7
:109D830004DEA3A3A3E05401FFE4FEFDFCFBFAF908
:109D9300F8C3123440700EB2B09005ECF090088F07
:109DA300F09008DEF0E47F06FEFDFC9004DEE0F8B0
:109DB300A3E0F9A3E0FAA3E0FBC3123440701090D0
:109DC30004DE123483000000009003C7E004F02295
:10BD68009004DEE0FCA3E0FDA3E0FEA3E02401FFD5
:10BD7800E43EFEE43DFDE43CFC9004DE12347790A2
:10BD880004DEA3A3A3E05401FFE4FEFDFCFBFAF9E3
:10BD9800F8C312344070209004DE1234830000008F
:10BDA80000B2B09003C7E004F0E49005ECF090080E
:08BDB8008FF09008DE04F02278
:10CF2E009004DEE0FCA3E0FDA3E0FEA3E02401FFFD
:10CF3E00E43EFEE43DFDE43CFC9004DE12347790CA
:10CF4E0004DEA3A3A3E05401FFE4FEFDFCFBFAF90B
:10CF5E00F8C3123440700C9004DE123483000000CB
:0ECF6E0000B2B0900882E030E3031283E322A9
:10CF7C009004DEE0FCA3E0FDA3E0FEA3E02401FFAF
:10CF8C00E43EFEE43DFDE43CFC9004DE123477907C
:10CF9C0004DEA3A3A3E05401FFE4FEFDFCFBFAF9BD
:10CFAC00F8C312344070169004DE12348300000073
:0ECFBC00001259789003C7E054FC4402F022A2
:10C708009004DEE0FCA3E0FDA3E0FEA3E02401FF2B
:10C71800E43EFEE43DFDE43CFC9004DE12347790F8
:10C7280004DEA3A3A3E05401FFE4FEFDFCFBFAF939
:10C73800F8C3123440701F9004DE123483000000E6
:10C7480000B2B09004DE123483000000009003C7EA
:07C75800E054FC4401F02253
:108760009005EDE0FCA3E0FDA3E0FEA3E0FF900494
:10877000DEE0F8A3E0F9A3E0FAA3E0FBC312344083
:10878000703B900606E0FCA3E0FDA3E0FEA3E0FF43
:10879000EC4D4E4F601F900606A3A3A3E024FFFFFD
:1087A000EE34FFFEED34FFFDEC34FFFC90060612C4
:1087B0003477B2B0229003C7E054FCF0229004DE7C
:1087C000E0FCA3E0FDA3E0FEA3E02401FFE43EFE05
:1087D000E43DFDE43CFC9004DE1234779004DEA31B
:1087E000A3A3E05401FFE4FEFDFCFBFAF9F8C31279
:1087F00034407002B2B09004DEA3A3A3E0543FFF64
:10880000E4FEFDFCFBFAF9F8C3123440701990083D
:108810002DE0D394055010900882E020E70912590A
:088820008590082DE004F02210
:10CB61009004DE123483000000009003C7E0440407
:10CB710012E5B0E4900882F090088FF0900613F06F
:10CB81009003C8F09008F5F09005ECF09003D7F011
:10CB9100900816F09003D0F0A3F0900606123483AB
:10CBA1000000000012BCB590087BE06005E4F012C3
:03CBB100E4E92292
:0BEA0F009004DE12348300000000229F
:08EA3B009003C7E054FCF02237
:08EA43009003C7E054FCF0222F
:08EA4B009003C7E054FCF02227
:10E6C600E49008DEF09003C7E004F090090C1234E1
:0BE6D600830000000012E88902E9E464
:109DD30090090CE0FCA3E0FDA3E0FEA3E02401FF57
:109DE300E43EFEE43DFDE43CFC90090C1234779024
:109DF300090CA3A3A3E05401FFE4FEFDFCFBFAF965
:109E0300F8C3123440700EB2B09005ECF090088F96
:109E1300F09008DEF0E47F06FEFDFC90090CE0F80C
:109E2300A3E0F9A3E0FAA3E0FBC31234407010905F
:109E3300090C123483000000009003C7E004F022F1
:10BDC00090090CE0FCA3E0FDA3E0FEA3E02401FF4A
:10BDD000E43EFEE43DFDE43CFC90090C1234779017
:10BDE000090CA3A3A3E05401FFE4FEFDFCFBFAF958
:10BDF000F8C3123440702090090C12348300000004
:10BE000000B2B09003C7E004F0E49005ECF09008B5
:08BE10008FF09008DE04F0221F
:10CFCA0090090CE0FCA3E0FDA3E0FEA3E02401FF2E
:10CFDA00E43EFEE43DFDE43CFC90090C12347790FB
:10CFEA00090CA3A3A3E05401FFE4FEFDFCFBFAF93C
:10CFFA00F8C3123440700C90090C123483000000FC
:0ED00A0000B2B0900882E030E3031283E3220C
:10E6E100E49008DEF09003C7E004F090090C1234C6
:0BE6F100830000000012E88902E9E449
:109E430090090CE0FCA3E0FDA3E0FEA3E02401FFE6
:109E5300E43EFEE43DFDE43CFC90090C12347790B3
:109E6300090CA3A3A3E05401FFE4FEFDFCFBFAF9F4
:109E7300F8C3123440700EB2B09005ECF090088F26
:109E8300F09008DEF0E47F06FEFDFC90090CE0F89C
:109E9300A3E0F9A3E0FAA3E0FBC3123440701090EF
:109EA300090C123483000000009003C7E004F02281
:10BE180090090CE0FCA3E0FDA3E0FEA3E02401FFF1
:10BE2800E43EFEE43DFDE43CFC90090C12347790BE
:10BE3800090CA3A3A3E05401FFE4FEFDFCFBFAF9FF
:10BE4800F8C3123440702090090C123483000000AB
:10BE580000B2B09003C7E004F0E49005ECF090085D
:08BE68008FF09008DE04F022C7
:10CC5A0090090CE0FCA3E0FDA3E0FEA3E02401FFA1
:10CC6A00E43EFEE43DFDE43CFC90090C123477906E
:10CC7A00090CA3A3A3E05401FFE4FEFDFCFBFAF9AF
:10CC8A00F8C3123440700C90090C1234830000006F
:10CC9A0000B2B0900882E030E3067480F01283E6B6
:01CCAA002267
:10E3B000E49008DEF09003C7E04404F0E004F0903D
:10E3C000090C123483000000009004DE1234830034
:09E3D00000000012E88902E9E4F2
:109B9C0090090CE0FCA3E0FDA3E0FEA3E02401FF90
:109BAC00E43EFEE43DFDE43CFC90090C123477905D
:109BBC00090CA3A3A3E05401FFE4FEFDFCFBFAF99E
:109BCC00F8C3123440700EB2B09005ECF090088FD0
:109BDC00F09008DEF0E47F06FEFDFC90090CE0F846
:109BEC00A3E0F9A3E0FAA3E0FBC312344070149095
:109BFC00090C123483000000009003C7E04404F009
:049C0C00E004F0225E
:10AA000090090CE0FCA3E0FDA3E0FEA3E02401FF1D
:10AA1000E43EFEE43DFDE43CFC90090C123477E496
:10AA20007F02FEFDFC90090CE0F8A3E0F9A3E0FA38
:10AA3000A3E0FBC3123440702490090C123483004D
:10AA4000000000B2B09003C7E04404F0E004F0E47A
:0EAA50009005ECF090088FF09008DE04F022E4
:10BBA7009003C7E04404F090090CE0FCA3E0FDA378
:10BBB700E0FEA3E02401FFE43EFEE43DFDE43CFC9F
:10BBC70090090C123477E47F02FEFDFC90090CE02B
:10BBD700F8A3E0F9A3E0FAA3E0FBC3123440700C2A
:10BBE70090090C12348300000000B2B0900882E084
:0ABBF70030E3067480F01283E622AA
:10E6FC00E49008DEF09003C7E004F090090C1234AB
:0BE70C00830000000012E88902E9E42D
:109EB30090090CE0FCA3E0FDA3E0FEA3E02401FF76
:109EC300E43EFEE43DFDE43CFC90090C1234779043
:109ED300090CA3A3A3E05401FFE4FEFDFCFBFAF984
:109EE300F8C3123440700EB2B09005ECF090088FB6
:109EF300F09008DEF0E47F06FEFDFC90090CE0F82C
:109F0300A3E0F9A3E0FAA3E0FBC31234407010907E
:109F1300090C123483000000009003C7E004F02210
:10BC010090090CE0FCA3E0FDA3E0FEA3E02401FF0A
:10BC1100E43EFEE43DFDE43CFC90090C123477E483
:10BC21007F02FEFDFC90090CE0F8A3E0F9A3E0FA25
:10BC3100A3E0FBC3123440702090090C123483003E
:10BC4100000000B2B09003C7E004F0E49005ECF00E
:0ABC510090088FF09008DE04F02246
:10CBB40090090CE0FCA3E0FDA3E0FEA3E02401FF48
:10CBC400E43EFEE43DFDE43CFC90090C123477E4C1
:10CBD4007F02FEFDFC90090CE0F8A3E0F9A3E0FA63
:10CBE400A3E0FBC3123440700C90090C1234830090
:10CBF400000000B2B0900882E030E3067480F012C6
:03CC040083E622A2
:10D0180090090CE0FCA3E0FDA3E0FEA3E02401FFDF
:10D02800E43EFEE43DFDE43CFC90090C12347790AC
:10D03800090CA3A3A3E05401FFE4FEFDFCFBFAF9ED
:10D04800F8C3123440701690090C123483000000A3
:0ED05800001259789003C7E054FC4402F02205
:10C75F0090090CE0FCA3E0FDA3E0FEA3E02401FFA1
:10C76F00E43EFEE43DFDE43CFC90090C123477906E
:10C77F00090CA3A3A3E05401FFE4FEFDFCFBFAF9AF
:10C78F00F8C3123440701F90090C1234830000005C
:10C79F0000B2B09003C7E054FC4401F090090C12B2
:07C7AF0034830000000022AA
:108828009005EDE0FCA3E0FDA3E0FEA3E0FF9009C6
:108838000CE0F8A3E0F9A3E0FAA3E0FBC31234408C
:10884800703B900606E0FCA3E0FDA3E0FEA3E0FF7A
:10885800EC4D4E4F601F900606A3A3A3E024FFFF34
:10886800EE34FFFEED34FFFDEC34FFFC90060612FB
:108878003477B2B0229003C7E054FCF02290090C80
:10888800E0FCA3E0FDA3E0FEA3E02401FFE43EFE3C
:10889800E43DFDE43CFC90090C12347790090CA3EC
:1088A800A3A3E05401FFE4FEFDFCFBFAF9F8C312B0
:1088B80034407002B2B090090CA3A3A3E0543FFF68
:1088C800E4FEFDFCFBFAF9F8C31234407019900875
:1088D8002DE0D394055010900882E020E709125942
:0888E8008590082DE004F02248
:10C7B60090090C123483000000009003C7E0441077
:10C7C600F0E49008DEF0C2B0900882F090088FF096
:10C7D600900613F09003C8F09008F5F09005ECF081
:10C7E6009003D7F0900816F09003D0F0A3F09006CF
:10C7F600061234830000000012BCB590087BE0608E
:07C8060005E4F012E4E92251
:10D0660090090CE0FCA3E0FDA3E0FEA3E02401FF91
:10D07600E43EFEE43DFDE43CFC90090C123477905E
:10D08600090CA3A3A3E05401FFE4FEFDFCFBFAF99F
:10D09600F8C3123440701690090C12348300000055
:0ED0A600001259789003C7E054FC4402F022B7
:10C80D0090090CE0FCA3E0FDA3E0FEA3E02401FFF2
:10C81D00E43EFEE43DFDE43CFC90090C12347790BF
:10C82D00090CA3A3A3E05401FFE4FEFDFCFBFAF900
:10C83D00F8C3123440701F90090C123483000000AD
:10C84D0000B2B09003C7E054FC4401F090090C1203
:07C85D0034830000000022FB
:1088F0009005EDE0FCA3E0FDA3E0FEA3E0FF9009FE
:108900000CE0F8A3E0F9A3E0FAA3E0FBC3123440C3
:10891000703B900606E0FCA3E0FDA3E0FEA3E0FFB1
:10892000EC4D4E4F601F900606A3A3A3E024FFFF6B
:10893000EE34FFFEED34FFFDEC34FFFC9006061232
:108940003477B2B0229003C7E054FCF02290090CB7
:10895000E0FCA3E0FDA3E0FEA3E02401FFE43EFE73
:10896000E43DFDE43CFC90090C12347790090CA323
:10897000A3A3E05401FFE4FEFDFCFBFAF9F8C312E7
:1089800034407002B2B090090CA3A3A3E0543FFF9F
:10899000E4FEFDFCFBFAF9F8C312344070199008AC
:1089A0002DE0D394055010900882E020E709125979
:0889B0008590082DE004F0227F
:10D0B40090090C123483000000009003C7E0441070
:10D0C400F054F0F0E49008DEF0C2B0900882F090E2
:10D0D400088FF0900613F09003C8F09008F5F090D4
:10D0E40005ECF09003D7F0900816F09003D0F0A36D
:0ED0F400F09006061234830000000002BCB566
:10D1020090090CE0FCA3E0FDA3E0FEA3E02401FFF4
:10D11200E43EFEE43DFDE43CFC90090C12347790C1
:10D12200090CA3A3A3E05401FFE4FEFDFCFBFAF902
:10D13200F8C3123440701690090C123483000000B8
:0ED14200001259789003C7E054FC4402F0221A
:10D3C00090090CE0FCA3E0FDA3E0FEA3E02401FF34
:10D3D000E43EFEE43DFDE43CFC90090C1234779001
:10D3E000090CA3A3A3E05401FFE4FEFDFCFBFAF942
:10D3F000F8C31234407015B2B09003C7E054FC4437
:0DD4000001F090090C12348300000000229E
:1089B8009005EDE0FCA3E0FDA3E0FEA3E0FF900935
:1089C8000CE0F8A3E0F9A3E0FAA3E0FBC3123440FB
:1089D800703B900606E0FCA3E0FDA3E0FEA3E0FFE9
:1089E800EC4D4E4F601F900606A3A3A3E024FFFFA3
:1089F800EE34FFFEED34FFFDEC34FFFC900606126A
:108A08003477B2B0229003C7E054FCF02290090CEE
:108A1800E0FCA3E0FDA3E0FEA3E02401FFE43EFEAA
:108A2800E43DFDE43CFC90090C12347790090CA35A
:108A3800A3A3E05401FFE4FEFDFCFBFAF9F8C3121E
:108A480034407002B2B090090CA3A3A3E0543FFFD6
:108A5800E4FEFDFCFBFAF9F8C312344070199008E3
:108A68002DE0D394055010900882E020E7091259B0
:088A78008590082DE004F022B6
:10D5DB0090090C123483000000009003C7E0441440
:10D5EB00F0E49008DEF0C2B0900882F090088FF063
:10D5FB00900613F09003C8F09008F5F09005ECF04E
:10D60B009003D7F0900816F09003D0F0A3F090069B
:0BD61B00061234830000000002BCB5C2
:10B7080090090CE0FCA3E0FDA3E0FEA3E02401FF08
:10B71800E43EFEE43DFDE43CFC90090C12347790D5
:10B72800090CA3A3A3E05401FFE4FEFDFCFBFAF916
:10B73800F8C3123440702390090C123483000000BF
:10B7480000B2B090082D7408F0E4900882F0125905
:0BB75800859003C7E054FC4402F0227F
:10D40D0090090CE0FCA3E0FDA3E0FEA3E02401FFE6
:10D41D00E43EFEE43DFDE43CFC90090C12347790B3
:10D42D00090CA3A3A3E05401FFE4FEFDFCFBFAF9F4
:10D43D00F8C31234407015B2B09003C7E054FC44E9
:0DD44D0001F090090C123483000000002251
:108A80009005EDE0FCA3E0FDA3E0FEA3E0FF90096C
:108A90000CE0F8A3E0F9A3E0FAA3E0FBC312344032
:108AA000703B900606E0FCA3E0FDA3E0FEA3E0FF20
:108AB000EC4D4E4F601F900606A3A3A3E024FFFFDA
:108AC000EE34FFFEED34FFFDEC34FFFC90060612A1
:108AD0003477B2B0229003C7E054FCF02290090C26
:108AE000E0FCA3E0FDA3E0FEA3E02401FFE43EFEE2
:108AF000E43DFDE43CFC90090C12347790090CA392
:108B0000A3A3E05401FFE4FEFDFCFBFAF9F8C31255
:108B100034407002B2B090090CA3A3A3E0543FFF0D
:108B2000E4FEFDFCFBFAF9F8C3123440701990081A
:108B30002DE0D394055010900882E020E7091259E7
:088B40008590082DE004F022ED
:10D6260090090C123483000000009003C7E04410F8
:10D63600F0E49008DEF0C2B0900882F090088FF017
:10D64600900613F09003C8F09008F5F09005ECF002
:10D656009003D7F0900816F09003D0F0A3F0900650
:0BD66600061234830000000002BCB577
:0BEA1A0090090C123483000000002261
:08EA53009003C7E054FCF0221F
:08EA5B009003C7E054FCF02217
:08EA63009003C7E054FCF0220F
:10E71700E49008DEF09003C7E004F09004DE1234C2
:0BE72700830000000012E88902E9E412
:109F23009004DEE0FCA3E0FDA3E0FEA3E02401FF38
:109F3300E43EFEE43DFDE43CFC9004DE1234779005
:109F430004DEA3A3A3E05401FFE4FEFDFCFBFAF946
:109F5300F8C3123440700EB2B09005ECF090088F45
:109F6300F09008DEF0E47F06FEFDFC9004DEE0F8EE
:109F7300A3E0F9A3E0FAA3E0FBC31234407010900E
:109F830004DE123483000000009003C7E004F022D3
:10BE70009004DEE0FCA3E0FDA3E0FEA3E02401FFCC
:10BE8000E43EFEE43DFDE43CFC9004DE1234779099
:10BE900004DEA3A3A3E05401FFE4FEFDFCFBFAF9DA
:10BEA000F8C312344070209004DE12348300000086
:10BEB00000B2B09003C7E004F0E49005ECF0900805
:08BEC0008FF09008DE04F0226F
:10CCAB009004DEE0FCA3E0FDA3E0FEA3E02401FF83
:10CCBB00E43EFEE43DFDE43CFC9004DE1234779050
:10CCCB0004DEA3A3A3E05401FFE4FEFDFCFBFAF991
:10CCDB00F8C3123440700C9004DE12348300000051
:10CCEB0000B2B0900882E030E3067480F01283E665
:01CCFB002216
:10D150009004DEE0FCA3E0FDA3E0FEA3E02401FFD9
:10D16000E43EFEE43DFDE43CFC9004DE12347790A6
:10D1700004DEA3A3A3E05401FFE4FEFDFCFBFAF9E7
:10D18000F8C312344070169004DE1234830000009D
:0ED19000001259789003C7E054FC4402F022CC
:10C864009004DEE0FCA3E0FDA3E0FEA3E02401FFCE
:10C87400E43EFEE43DFDE43CFC9004DE123477909B
:10C8840004DEA3A3A3E05401FFE4FEFDFCFBFAF9DC
:10C89400F8C3123440701F9004DE12348300000089
:10C8A40000B2B09004DE123483000000009003C78D
:07C8B400E054FC4401F022F6
:108B48009005EDE0FCA3E0FDA3E0FEA3E0FF9004A8
:108B5800DEE0F8A3E0F9A3E0FAA3E0FBC312344097
:108B6800703B900606E0FCA3E0FDA3E0FEA3E0FF57
:108B7800EC4D4E4F601F900606A3A3A3E024FFFF11
:108B8800EE34FFFEED34FFFDEC34FFFC90060612D8
:108B98003477B2B0229003C7E054FCF0229004DE90
:108BA800E0FCA3E0FDA3E0FEA3E02401FFE43EFE19
:108BB800E43DFDE43CFC9004DE1234779004DEA32F
:108BC800A3A3E05401FFE4FEFDFCFBFAF9F8C3128D
:108BD80034407002B2B09004DEA3A3A3E0543FFF78
:108BE800E4FEFDFCFBFAF9F8C31234407019900852
:108BF8002DE0D394055010900882E020E70912591F
:088C08008590082DE004F02224
:10D671009004DE123483000000009003C7E04404EC
:10D68100F0E49008DEF0C2B0900882F090088FF0CC
:10D69100900613F09003C8F09008F5F09005ECF0B7
:10D6A1009003D7F0900816F09003D0F0A3F0900605
:0BD6B100061234830000000002BCB52C
:10200E009004DE1234830000000090090C12348319
:05201E0000000000229B
:08EA6B009003C7E054FCF02207
:08EA73009003C7E054FCF022FF
:08EA7B009003C7E054FCF022F7
:10DC970012203E9005F2E0FCA3E0FDA3E0FEA3E026
:10DCA700FF90060FE0F8A3E0F9A3E0FAA3E0FBC3B7
:10DCB70012344040169003C7E004F090060F123468
:0CDCC700830000000012E88912E9E4224A
:109F930090060FE0FCA3E0FDA3E0FEA3E02401FF95
:109FA300E43EFEE43DFDE43CFC90060F1234779062
:109FB300060FA3A3A3E05401FFE4FEFDFCFBFAF9A3
:109FC300F8C3123440700EB2B09005ECF090088FD5
:109FD300F09008DEF0E47F30FEFDFC90060FE0F821
:109FE300A3E0F9A3E0FAA3E0FBC31234407010909E
:109FF300060F123483000000009003C7E004F02230
:10BEC80090060FE0FCA3E0FDA3E0FEA3E02401FF41
:10BED800E43EFEE43DFDE43CFC90060F123477900E
:10BEE800060FA3A3A3E05401FFE4FEFDFCFBFAF94F
:10BEF800F8C3123440702090060F123483000000FB
:10BF080000B2B09003C7E004F0E49005ECF09008AC
:08BF18008FF09008DE04F02216
:10C9BE0090060FE0FCA3E0FDA3E0FEA3E02401FF40
:10C9CE00E43EFEE43DFDE43CFC90060F123477900D
:10C9DE00060FA3A3A3E05401FFE4FEFDFCFBFAF94E
:10C9EE00F8C3123440700C90060F1234830000000E
:10C9FE0000B2B0900882E030E3097480F01283E652
:04CA0E00122062226E
:10DCD30012203E9005F2E0FCA3E0FDA3E0FEA3E0EA
:10DCE300FF90060FE0F8A3E0F9A3E0FAA3E0FBC37B
:10DCF30012344040169003C7E004F090060F12342C
:0CDD0300830000000012E88912E9E4220D
:10A0030090060FE0FCA3E0FDA3E0FEA3E02401FF24
:10A01300E43EFEE43DFDE43CFC90060F12347790F1
:10A02300060FA3A3A3E05401FFE4FEFDFCFBFAF932
:10A03300F8C3123440700EB2B09005ECF090088F64
:10A04300F09008DEF0E47F30FEFDFC90060FE0F8B0
:10A05300A3E0F9A3E0FAA3E0FBC31234407010902D
:10A06300060F123483000000009003C7E004F022BF
:10BF200090060FE0FCA3E0FDA3E0FEA3E02401FFE8
:10BF3000E43EFEE43DFDE43CFC90060F12347790B5
:10BF4000060FA3A3A3E05401FFE4FEFDFCFBFAF9F6
:10BF5000F8C3123440702090060F123483000000A2
:10BF600000B2B09003C7E004F0E49005ECF0900854
:08BF70008FF09008DE04F022BE
:10B7630090060FE0FCA3E0FDA3E0FEA3E02401FFAD
:10B77300E43EFEE43DFDE43CFC90060F123477907A
:10B7830003C7E054F3F090060FA3A3A3E05401FF13
:10B79300E4FEFDFCFBFAF9F8C3123440700C90068A
:10B7A3000F12348300000000B2B0900882E030E34F
:0BB7B300097480F01283E6122062226D
:10DD0F0012203E9005F2E0FCA3E0FDA3E0FEA3E0AD
:10DD1F00FF90060FE0F8A3E0F9A3E0FAA3E0FBC33E
:10DD2F0012344040169003C7E004F090060F1234EF
:0CDD3F00830000000012E88912E9E422D1
:10A0730090060FE0FCA3E0FDA3E0FEA3E02401FFB4
:10A08300E43EFEE43DFDE43CFC90060F1234779081
:10A09300060FA3A3A3E05401FFE4FEFDFCFBFAF9C2
:10A0A300F8C3123440700EB2B09005ECF090088FF4
:10A0B300F09008DEF0E47F30FEFDFC90060FE0F840
:10A0C300A3E0F9A3E0FAA3E0FBC3123440701090BD
:10A0D300060F123483000000009003C7E004F0224F
:10BF780090060FE0FCA3E0FDA3E0FEA3E02401FF90
:10BF8800E43EFEE43DFDE43CFC90060F123477905D
:10BF9800060FA3A3A3E05401FFE4FEFDFCFBFAF99E
:10BFA800F8C3123440702090060F1234830000004A
:10BFB80000B2B09003C7E004F0E49005ECF09008FC
:08BFC8008FF09008DE04F02266
:10B7BE0090060FE0FCA3E0FDA3E0FEA3E02401FF52
:10B7CE00E43EFEE43DFDE43CFC90060F123477901F
:10B7DE0003C7E04404F090060FA3A3A3E05401FFB7
:10B7EE00E4FEFDFCFBFAF9F8C3123440700C90062F
:10B7FE000F12348300000000B2B0900882E030E3F4
:0BB80E00097480F01283E61220622211
:10DD4B0012203E9005F2E0FCA3E0FDA3E0FEA3E071
:10DD5B00FF90060FE0F8A3E0F9A3E0FAA3E0FBC302
:10DD6B0012344040169003C7E004F090060F1234B3
:0CDD7B00830000000012E88912E9E42295
:10A0E30090060FE0FCA3E0FDA3E0FEA3E02401FF44
:10A0F300E43EFEE43DFDE43CFC90060F1234779011
:10A10300060FA3A3A3E05401FFE4FEFDFCFBFAF951
:10A11300F8C3123440700EB2B09005ECF090088F83
:10A12300F09008DEF0E47F30FEFDFC90060FE0F8CF
:10A13300A3E0F9A3E0FAA3E0FBC31234407010904C
:10A14300060F123483000000009003C7E004F022DE
:10BFD00090060FE0FCA3E0FDA3E0FEA3E02401FF38
:10BFE000E43EFEE43DFDE43CFC90060F1234779005
:10BFF000060FA3A3A3E05401FFE4FEFDFCFBFAF946
:10C00000F8C3123440702090060F123483000000F1
:10C0100000B2B09003C7E004F0E49005ECF09008A3
:08C020008FF09008DE04F0220D
:10CA120090060FE0FCA3E0FDA3E0FEA3E02401FFEB
:10CA2200E43EFEE43DFDE43CFC90060F12347790B8
:10CA3200060FA3A3A3E05401FFE4FEFDFCFBFAF9F9
:10CA4200F8C3123440700C90060F123483000000B9
:10CA520000B2B0900882E030E3097480F01283E6FD
:04CA6200122062221A
:10DD870012203E9005F2E0FCA3E0FDA3E0FEA3E035
:10DD9700FF90060FE0F8A3E0F9A3E0FAA3E0FBC3C6
:10DDA70012344040169003C7E004F090060F123477
:0CDDB700830000000012E88912E9E42259
:10A1530090060FE0FCA3E0FDA3E0FEA3E02401FFD3
:10A16300E43EFEE43DFDE43CFC90060F12347790A0
:10A17300060FA3A3A3E05401FFE4FEFDFCFBFAF9E1
:10A18300F8C3123440700EB2B09005ECF090088F13
:10A19300F09008DEF0E47F30FEFDFC90060FE0F85F
:10A1A300A3E0F9A3E0FAA3E0FBC3123440701090DC
:10A1B300060F123483000000009003C7E004F0226E
:10C0280090060FE0FCA3E0FDA3E0FEA3E02401FFDF
:10C03800E43EFEE43DFDE43CFC90060F12347790AC
:10C04800060FA3A3A3E05401FFE4FEFDFCFBFAF9ED
:10C05800F8C3123440702090060F12348300000099
:10C0680000B2B09003C7E004F0E49005ECF090084B
:08C078008FF09008DE04F022B5
:10B8190090060FE0FCA3E0FDA3E0FEA3E02401FFF6
:10B82900E43EFEE43DFDE43CFC90060F12347790C3
:10B8390003C7E054CFF090060FA3A3A3E05401FF80
:10B84900E4FEFDFCFBFAF9F8C3123440700C9006D3
:10B859000F12348300000000B2B0900882E030E398
:0BB86900097480F01283E612206222B6
:10DDC30012203E9005F2E0FCA3E0FDA3E0FEA3E0F9
:10DDD300FF90060FE0F8A3E0F9A3E0FAA3E0FBC38A
:10DDE30012344040169003C7E004F090060F12343B
:0CDDF300830000000012E88912E9E4221D
:10A1C30090060FE0FCA3E0FDA3E0FEA3E02401FF63
:10A1D300E43EFEE43DFDE43CFC90060F1234779030
:10A1E300060FA3A3A3E05401FFE4FEFDFCFBFAF971
:10A1F300F8C3123440700EB2B09005ECF090088FA3
:10A20300F09008DEF0E47F30FEFDFC90060FE0F8EE
:10A21300A3E0F9A3E0FAA3E0FBC31234407010906B
:10A22300060F123483000000009003C7E004F022FD
:10C0800090060FE0FCA3E0FDA3E0FEA3E02401FF87
:10C09000E43EFEE43DFDE43CFC90060F1234779054
:10C0A000060FA3A3A3E05401FFE4FEFDFCFBFAF995
:10C0B000F8C3123440702090060F12348300000041
:10C0C00000B2B09003C7E004F0E49005ECF09008F3
:08C0D0008FF09008DE04F0225D
:10B8740090060FE0FCA3E0FDA3E0FEA3E02401FF9B
:10B88400E43EFEE43DFDE43CFC90060F1234779068
:10B8940003C7E054C3F090060FA3A3A3E05401FF31
:10B8A400E4FEFDFCFBFAF9F8C3123440700C900678
:10B8B4000F12348300000000B2B0900882E030E33D
:0BB8C400097480F01283E6122062225B
:10DDFF0012203E9005F2E0FCA3E0FDA3E0FEA3E0BD
:10DE0F00FF90060FE0F8A3E0F9A3E0FAA3E0FBC34D
:10DE1F0012344040169003C7E004F090060F1234FE
:0CDE2F00830000000012E88912E9E422E0
:10A2330090060FE0FCA3E0FDA3E0FEA3E02401FFF2
:10A24300E43EFEE43DFDE43CFC90060F12347790BF
:10A25300060FA3A3A3E05401FFE4FEFDFCFBFAF900
:10A26300F8C3123440700EB2B09005ECF090088F32
:10A27300F09008DEF0E47F30FEFDFC90060FE0F87E
:10A28300A3E0F9A3E0FAA3E0FBC3123440701090FB
:10A29300060F123483000000009003C7E004F0228D
:10C0D80090060FE0FCA3E0FDA3E0FEA3E02401FF2F
:10C0E800E43EFEE43DFDE43CFC90060F12347790FC
:10C0F800060FA3A3A3E05401FFE4FEFDFCFBFAF93D
:10C10800F8C3123440702090060F123483000000E8
:10C1180000B2B09003C7E004F0E49005ECF090089A
:08C128008FF09008DE04F02204
:10AA5E0090060FE0FCA3E0FDA3E0FEA3E02401FFBF
:10AA6E00E43EFEE43DFDE43CFC90060F123477908C
:10AA7E0003C7E04404F054CFF090060FA3A3A3E065
:10AA8E005401FFE4FEFDFCFBFAF9F8C312344070EA
:10AA9E000C90060F12348300000000B2B0900882B2
:0EAAAE00E030E3097480F01283E61220622289
:10DE3B0012203E9005F2E0FCA3E0FDA3E0FEA3E080
:10DE4B00FF90060FE0F8A3E0F9A3E0FAA3E0FBC311
:10DE5B0012344040169003C7E004F090060F1234C2
:0CDE6B00830000000012E88912E9E422A4
:10A2A30090060FE0FCA3E0FDA3E0FEA3E02401FF82
:10A2B300E43EFEE43DFDE43CFC90060F123477904F
:10A2C300060FA3A3A3E05401FFE4FEFDFCFBFAF990
:10A2D300F8C3123440700EB2B09005ECF090088FC2
:10A2E300F09008DEF0E47F30FEFDFC90060FE0F80E
:10A2F300A3E0F9A3E0FAA3E0FBC31234407010908B
:10A30300060F123483000000009003C7E004F0221C
:10C1300090060FE0FCA3E0FDA3E0FEA3E02401FFD6
:10C14000E43EFEE43DFDE43CFC90060F12347790A3
:10C15000060FA3A3A3E05401FFE4FEFDFCFBFAF9E4
:10C16000F8C3123440702090060F12348300000090
:10C1700000B2B09003C7E004F0E49005ECF0900842
:08C180008FF09008DE04F022AC
:10B8CF0090060FE0FCA3E0FDA3E0FEA3E02401FF40
:10B8DF00E43EFEE43DFDE43CFC90060F123477900D
:10B8EF0003C7E054CFF090060FA3A3A3E05401FFCA
:10B8FF00E4FEFDFCFBFAF9F8C3123440700C90061D
:10B90F000F12348300000000B2B0900882E030E3E1
:0BB91F00097480F01283E612206222FF
:10DE770012203E9005F2E0FCA3E0FDA3E0FEA3E044
:10DE8700FF90060FE0F8A3E0F9A3E0FAA3E0FBC3D5
:10DE970012344040169003C7E004F090060F123486
:0CDEA700830000000012E88912E9E42268
:10A3130090060FE0FCA3E0FDA3E0FEA3E02401FF11
:10A32300E43EFEE43DFDE43CFC90060F12347790DE
:10A33300060FA3A3A3E05401FFE4FEFDFCFBFAF91F
:10A34300F8C3123440700EB2B09005ECF090088F51
:10A35300F09008DEF0E47F30FEFDFC90060FE0F89D
:10A36300A3E0F9A3E0FAA3E0FBC31234407010901A
:10A37300060F123483000000009003C7E004F022AC
:10C1880090060FE0FCA3E0FDA3E0FEA3E02401FF7E
:10C19800E43EFEE43DFDE43CFC90060F123477904B
:10C1A800060FA3A3A3E05401FFE4FEFDFCFBFAF98C
:10C1B800F8C3123440702090060F12348300000038
:10C1C80000B2B09003C7E004F0E49005ECF09008EA
:08C1D8008FF09008DE04F02254
:10B92A0090060FE0FCA3E0FDA3E0FEA3E02401FFE4
:10B93A00E43EFEE43DFDE43CFC90060F12347790B1
:10B94A0003C7E04410F090060FA3A3A3E05401FF3D
:10B95A00E4FEFDFCFBFAF9F8C3123440700C9006C1
:10B96A000F12348300000000B2B0900882E030E386
:0BB97A00097480F01283E612206222A4
:10DEB30012203E9005F2E0FCA3E0FDA3E0FEA3E008
:10DEC300FF90060FE0F8A3E0F9A3E0FAA3E0FBC399
:10DED30012344040169003C7E004F090060F12344A
:0CDEE300830000000012E88912E9E4222C
:10A3830090060FE0FCA3E0FDA3E0FEA3E02401FFA1
:10A39300E43EFEE43DFDE43CFC90060F123477906E
:10A3A300060FA3A3A3E05401FFE4FEFDFCFBFAF9AF
:10A3B300F8C3123440700EB2B09005ECF090088FE1
:10A3C300F09008DEF0E47F30FEFDFC90060FE0F82D
:10A3D300A3E0F9A3E0FAA3E0FBC3123440701090AA
:10A3E300060F123483000000009003C7E004F0223C
:10C1E00090060FE0FCA3E0FDA3E0FEA3E02401FF26
:10C1F000E43EFEE43DFDE43CFC90060F12347790F3
:10C20000060FA3A3A3E05401FFE4FEFDFCFBFAF933
:10C21000F8C3123440702090060F123483000000DF
:10C2200000B2B09003C7E004F0E49005ECF0900891
:08C230008FF09008DE04F022FB
:10AABC0090060FE0FCA3E0FDA3E0FEA3E02401FF61
:10AACC00E43EFEE43DFDE43CFC90060F123477902E
:10AADC0003C7E04410F054F3F090060FA3A3A3E0D7
:10AAEC005401FFE4FEFDFCFBFAF9F8C3123440708C
:10AAFC000C90060F12348300000000B2B090088254
:0EAB0C00E030E3097480F01283E6122062222A
:10DEEF0012203E9005F2E0FCA3E0FDA3E0FEA3E0CC
:10DEFF00FF90060FE0F8A3E0F9A3E0FAA3E0FBC35D
:10DF0F0012344040169003C7E004F090060F12340D
:0CDF1F00830000000012E88912E9E422EF
:10A3F30090060FE0FCA3E0FDA3E0FEA3E02401FF31
:10A40300E43EFEE43DFDE43CFC90060F12347790FD
:10A41300060FA3A3A3E05401FFE4FEFDFCFBFAF93E
:10A42300F8C3123440700EB2B09005ECF090088F70
:10A43300F09008DEF0E47F30FEFDFC90060FE0F8BC
:10A44300A3E0F9A3E0FAA3E0FBC312344070109039
:10A45300060F123483000000009003C7E004F022CB
:10C2380090060FE0FCA3E0FDA3E0FEA3E02401FFCD
:10C24800E43EFEE43DFDE43CFC90060F123477909A
:10C25800060FA3A3A3E05401FFE4FEFDFCFBFAF9DB
:10C26800F8C3123440702090060F12348300000087
:10C2780000B2B09003C7E004F0E49005ECF0900839
:08C288008FF09008DE04F022A3
:10B9850090060FE0FCA3E0FDA3E0FEA3E02401FF89
:10B99500E43EFEE43DFDE43CFC90060F1234779056
:10B9A50003C7E04414F090060FA3A3A3E05401FFDE
:10B9B500E4FEFDFCFBFAF9F8C3123440700C900666
:10B9C5000F12348300000000B2B0900882E030E32B
:0BB9D500097480F01283E61220622249
:10DF2B0012203E9005F2E0FCA3E0FDA3E0FEA3E08F
:10DF3B00FF90060FE0F8A3E0F9A3E0FAA3E0FBC320
:10DF4B0012344040169003C7E004F090060F1234D1
:0CDF5B00830000000012E88912E9E422B3
:10A4630090060FE0FCA3E0FDA3E0FEA3E02401FFC0
:10A47300E43EFEE43DFDE43CFC90060F123477908D
:10A48300060FA3A3A3E05401FFE4FEFDFCFBFAF9CE
:10A49300F8C3123440700EB2B09005ECF090088F00
:10A4A300F09008DEF0E47F30FEFDFC90060FE0F84C
:10A4B300A3E0F9A3E0FAA3E0FBC3123440701090C9
:10A4C300060F123483000000009003C7E004F0225B
:10C2900090060FE0FCA3E0FDA3E0FEA3E02401FF75
:10C2A000E43EFEE43DFDE43CFC90060F1234779042
:10C2B000060FA3A3A3E05401FFE4FEFDFCFBFAF983
:10C2C000F8C3123440702090060F1234830000002F
:10C2D00000B2B09003C7E004F0E49005ECF09008E1
:08C2E0008FF09008DE04F0224B
:10B9E00090060FE0FCA3E0FDA3E0FEA3E02401FF2E
:10B9F000E43EFEE43DFDE43CFC90060F12347790FB
:10BA000003C7E04410F090060FA3A3A3E05401FF86
:10BA1000E4FEFDFCFBFAF9F8C3123440700C90060A
:10BA20000F12348300000000B2B0900882E030E3CF
:0BBA3000097480F01283E612206222ED
:10DF670012203E9005F2E0FCA3E0FDA3E0FEA3E053
:10DF7700FF90060FE0F8A3E0F9A3E0FAA3E0FBC3E4
:10DF870012344040169003C7E004F090060F123495
:0CDF9700830000000012E88912E9E42277
:10A4D30090060FE0FCA3E0FDA3E0FEA3E02401FF50
:10A4E300E43EFEE43DFDE43CFC90060F123477901D
:10A4F300060FA3A3A3E05401FFE4FEFDFCFBFAF95E
:10A50300F8C3123440700EB2B09005ECF090088F8F
:10A51300F09008DEF0E47F30FEFDFC90060FE0F8DB
:10A52300A3E0F9A3E0FAA3E0FBC312344070109058
:10A53300060F123483000000009003C7E004F022EA
:10C2E80090060FE0FCA3E0FDA3E0FEA3E02401FF1D
:10C2F800E43EFEE43DFDE43CFC90060F12347790EA
:10C30800060FA3A3A3E05401FFE4FEFDFCFBFAF92A
:10C31800F8C3123440702090060F123483000000D6
:10C3280000B2B09003C7E004F0E49005ECF0900888
:08C338008FF09008DE04F022F2
:10CA660090060FE0FCA3E0FDA3E0FEA3E02401FF97
:10CA7600E43EFEE43DFDE43CFC90060F1234779064
:10CA8600060FA3A3A3E05401FFE4FEFDFCFBFAF9A5
:10CA9600F8C3123440700C90060F12348300000065
:10CAA60000B2B0900882E030E3097480F01283E6A9
:04CAB60012206222C6
:10DFA30012203E9005F2E0FCA3E0FDA3E0FEA3E017
:10DFB300FF90060FE0F8A3E0F9A3E0FAA3E0FBC3A8
:10DFC30012344040169003C7E004F090060F123459
:0CDFD300830000000012E88912E9E4223B
:10A5430090060FE0FCA3E0FDA3E0FEA3E02401FFDF
:10A55300E43EFEE43DFDE43CFC90060F12347790AC
:10A56300060FA3A3A3E05401FFE4FEFDFCFBFAF9ED
:10A57300F8C3123440700EB2B09005ECF090088F1F
:10A58300F09008DEF0E47F30FEFDFC90060FE0F86B
:10A59300A3E0F9A3E0FAA3E0FBC3123440701090E8
:10A5A300060F123483000000009003C7E004F0227A
:10C3400090060FE0FCA3E0FDA3E0FEA3E02401FFC4
:10C35000E43EFEE43DFDE43CFC90060F1234779091
:10C36000060FA3A3A3E05401FFE4FEFDFCFBFAF9D2
:10C37000F8C3123440702090060F1234830000007E
:10C3800000B2B09003C7E004F0E49005ECF0900830
:08C390008FF09008DE04F0229A
:10BA3B0090060FE0FCA3E0FDA3E0FEA3E02401FFD2
:10BA4B00E43EFEE43DFDE43CFC90060F123477909F
:10BA5B0003C7E054F3F090060FA3A3A3E05401FF38
:10BA6B00E4FEFDFCFBFAF9F8C3123440700C9006AF
:10BA7B000F12348300000000B2B0900882E030E374
:0BBA8B00097480F01283E61220622292
:10E2000012203E9005F2E0FCA3E0FDA3E0FEA3E0B7
:10E21000FF90060FE0F8A3E0F9A3E0FAA3E0FBC348
:10E2200012344040169003C7E004F090060F1234F9
:0CE23000830000000012E88912E9E422DB
:10A5B30090060FE0FCA3E0FDA3E0FEA3E02401FF6F
:10A5C300E43EFEE43DFDE43CFC90060F123477903C
:10A5D300060FA3A3A3E05401FFE4FEFDFCFBFAF97D
:10A5E300F8C3123440700EB2B09005ECF090088FAF
:10A5F300F09008DEF0E47F30FEFDFC90060FE0F8FB
:10A60300A3E0F9A3E0FAA3E0FBC312344070109077
:10A61300060F123483000000009003C7E004F02209
:10C3980090060FE0FCA3E0FDA3E0FEA3E02401FF6C
:10C3A800E43EFEE43DFDE43CFC90060F1234779039
:10C3B800060FA3A3A3E05401FFE4FEFDFCFBFAF97A
:10C3C800F8C3123440702090060F12348300000026
:10C3D80000B2B09003C7E004F0E49005ECF09008D8
:08C3E8008FF09008DE04F02242
:10BA960090060FE0FCA3E0FDA3E0FEA3E02401FF77
:10BAA600E43EFEE43DFDE43CFC90060F1234779044
:10BAB60003C7E04404F090060FA3A3A3E05401FFDC
:10BAC600E4FEFDFCFBFAF9F8C3123440700C900654
:10BAD6000F12348300000000B2B0900882E030E319
:0BBAE600097480F01283E61220622237
:10E23C0012203E9005F2E0FCA3E0FDA3E0FEA3E07B
:10E24C00FF90060FE0F8A3E0F9A3E0FAA3E0FBC30C
:10E25C0012344040169003C7E004F090060F1234BD
:0CE26C00830000000012E88912E9E4229F
:10A6230090060FE0FCA3E0FDA3E0FEA3E02401FFFE
:10A63300E43EFEE43DFDE43CFC90060F12347790CB
:10A64300060FA3A3A3E05401FFE4FEFDFCFBFAF90C
:10A65300F8C3123440700EB2B09005ECF090088F3E
:10A66300F09008DEF0E47F30FEFDFC90060FE0F88A
:10A67300A3E0F9A3E0FAA3E0FBC312344070109007
:10A68300060F123483000000009003C7E004F02299
:10C3F00090060FE0FCA3E0FDA3E0FEA3E02401FF14
:10C40000E43EFEE43DFDE43CFC90060F12347790E0
:10C41000060FA3A3A3E05401FFE4FEFDFCFBFAF921
:10C42000F8C3123440702090060F123483000000CD
:10C4300000B2B09003C7E004F0E49005ECF090087F
:08C440008FF09008DE04F022E9
:10CABA0090060FE0FCA3E0FDA3E0FEA3E02401FF43
:10CACA00E43EFEE43DFDE43CFC90060F1234779010
:10CADA00060FA3A3A3E05401FFE4FEFDFCFBFAF951
:10CAEA00F8C3123440700C90060F12348300000011
:10CAFA0000B2B0900882E030E3097480F01283E655
:04CB0A001220622271
:10AB780090060FE0FCA3E0FDA3E0FEA3E02401FFA4
:10AB8800E43EFEE43DFDE43CFC90060F1234779071
:10AB9800060FA3A3A3E05401FFE4FEFDFCFBFAF9B2
:10ABA800F8C3123440702590060F12348300000059
:10ABB80000900905E030E705122062800312E5B82D
:0DABC8001259789003C7E054FC4402F022BB
:10B1480090060FE0FCA3E0FDA3E0FEA3E02401FFCE
:10B15800E43EFEE43DFDE43CFC90060F123477909B
:10B16800060FA3A3A3E05401FFE4FEFDFCFBFAF9DC
:10B17800F8C3123440702490060F12348300000084
:10B1880000900905E030E705122062800312E5B857
:0CB19800B2B09003C7E054FC4401F02268
:1073D3009005EDE0FCA3E0FDA3E0FEA3E0FF900633
:1073E3000FE0F8A3E0F9A3E0FAA3E0FBC3123440F3
:1073F3007065900606E0FCA3E0FDA3E0FEA3E0FFBA
:10740300EC4D4E4F6049900606A3A3A3E024FFFF73
:10741300EE34FFFEED34FFFDEC34FFFC9006061264
:107423003477900606A3A3A3E05401FFE4FEFDFC1A
:10743300FBFAF9F8C312344060030274D3900905D0
:10744300E030E705122062800312E5B8B2B0229063
:1074530003C7E054FCF02290060FE0FCA3E0FDA379
:10746300E0FEA3E02401FFE43EFEE43DFDE43CFC3A
:1074730090060F12347790060FA3A3A3E05401FFE5
:10748300E4FEFDFCFBFAF9F8C312344070119009D5
:1074930005E030E705122062800312E5B8B2B09030
:1074A300060FA3A3A3E0543FFFE4FEFDFCFBFAF9A0
:1074B300F8C3123440701990082DE0D3940550108E
:1074C300900882E020E70912598590082DE004F026
:0174D3002296
:10D45A0090060F1234830000000012E5AAE4900837
:10D46A0082F090088FF0900613F09003C8F09008AD
:10D47A00F5F09005ECF09003D7F0900816F09003C1
:10D48A00D0F0A3F09006061234830000000012BC0C
:0DD49A00B590087BE06005E4F012E4E922A3
:10ABD50090060FE0FCA3E0FDA3E0FEA3E02401FF47
:10ABE500E43EFEE43DFDE43CFC90060F1234779014
:10ABF500060FA3A3A3E05401FFE4FEFDFCFBFAF955
:10AC0500F8C3123440702590060F123483000000FB
:10AC150000900905E030E705122062800312E5B8CF
:0DAC25001259789003C7E054FC4402F0225D
:10B1A40090060FE0FCA3E0FDA3E0FEA3E02401FF72
:10B1B400E43EFEE43DFDE43CFC90060F123477903F
:10B1C400060FA3A3A3E05401FFE4FEFDFCFBFAF980
:10B1D400F8C3123440702490060F12348300000028
:10B1E40000900905E030E705122062800312E5B8FB
:0CB1F400B2B09003C7E054FC4401F0220C
:1074D4009005EDE0FCA3E0FDA3E0FEA3E0FF900631
:1074E4000FE0F8A3E0F9A3E0FAA3E0FBC3123440F1
:1074F4007065900606E0FCA3E0FDA3E0FEA3E0FFB8
:10750400EC4D4E4F6049900606A3A3A3E024FFFF71
:10751400EE34FFFEED34FFFDEC34FFFC9006061262
:107524003477900606A3A3A3E05401FFE4FEFDFC18
:10753400FBFAF9F8C312344060030275D4900905CC
:10754400E030E705122062800312E5B8B2B0229061
:1075540003C7E054FCF02290060FE0FCA3E0FDA377
:10756400E0FEA3E02401FFE43EFEE43DFDE43CFC38
:1075740090060F12347790060FA3A3A3E05401FFE3
:10758400E4FEFDFCFBFAF9F8C312344070119009D3
:1075940005E030E705122062800312E5B8B2B0902E
:1075A400060FA3A3A3E0543FFFE4FEFDFCFBFAF99E
:1075B400F8C3123440701990082DE0D3940550108C
:1075C400900882E020E70912598590082DE004F024
:0175D4002294
:10D8330090060F123483000000009003C7E04440B9
:10D84300F054F012E5B0E4900882F090088FF09065
:10D853000613F09003C8F09008F5F09005ECF090F3
:10D8630003D7F0900816F09003D0F0A3F0900606CB
:0AD873001234830000000002BCB56F
:10AC320090060FE0FCA3E0FDA3E0FEA3E02401FFE9
:10AC4200E43EFEE43DFDE43CFC90060F12347790B6
:10AC5200060FA3A3A3E05401FFE4FEFDFCFBFAF9F7
:10AC6200F8C3123440702590060F1234830000009E
:10AC720000900905E030E705122062800312E5B872
:0DAC82001259789003C7E054FC4402F02200
:10B2000090060FE0FCA3E0FDA3E0FEA3E02401FF15
:10B21000E43EFEE43DFDE43CFC90060F12347790E2
:10B22000060FA3A3A3E05401FFE4FEFDFCFBFAF923
:10B23000F8C3123440702490060F123483000000CB
:10B2400000900905E030E705122062800312E5B89E
:0CB25000B2B09003C7E054FC4401F022AF
:1075D5009005EDE0FCA3E0FDA3E0FEA3E0FF90062F
:1075E5000FE0F8A3E0F9A3E0FAA3E0FBC3123440EF
:1075F5007065900606E0FCA3E0FDA3E0FEA3E0FFB6
:10760500EC4D4E4F6049900606A3A3A3E024FFFF6F
:10761500EE34FFFEED34FFFDEC34FFFC9006061260
:107625003477900606A3A3A3E05401FFE4FEFDFC16
:10763500FBFAF9F8C312344060030276D5900905C8
:10764500E030E705122062800312E5B8B2B022905F
:1076550003C7E054FCF02290060FE0FCA3E0FDA375
:10766500E0FEA3E02401FFE43EFEE43DFDE43CFC36
:1076750090060F12347790060FA3A3A3E05401FFE1
:10768500E4FEFDFCFBFAF9F8C312344070119009D1
:1076950005E030E705122062800312E5B8B2B0902C
:1076A500060FA3A3A3E0543FFFE4FEFDFCFBFAF99C
:1076B500F8C3123440701990082DE0D3940550108A
:1076C500900882E020E70912598590082DE004F022
:0176D5002292
:10DA350090060F123483000000009003C7E04444B1
:10DA450012E5B0E4900882F090088FF0900613F08C
:10DA55009003C8F09008F5F09005ECF09003D7F02E
:10DA6500900816F09003D0F0A3F0900606123483C8
:07DA75000000000002BCB537
:10AC8F0090060FE0FCA3E0FDA3E0FEA3E02401FF8C
:10AC9F00E43EFEE43DFDE43CFC90060F1234779059
:10ACAF00060FA3A3A3E05401FFE4FEFDFCFBFAF99A
:10ACBF00F8C3123440702590060F12348300000041
:10ACCF0000900905E030E705122062800312E5B815
:0DACDF001259789003C7E054FC4402F022A3
:10B25C0090060FE0FCA3E0FDA3E0FEA3E02401FFB9
:10B26C00E43EFEE43DFDE43CFC90060F1234779086
:10B27C00060FA3A3A3E05401FFE4FEFDFCFBFAF9C7
:10B28C00F8C3123440702490060F1234830000006F
:10B29C0000900905E030E705122062800312E5B842
:0CB2AC00B2B09003C7E054FC4401F02253
:1076D6009005EDE0FCA3E0FDA3E0FEA3E0FF90062D
:1076E6000FE0F8A3E0F9A3E0FAA3E0FBC3123440ED
:1076F6007065900606E0FCA3E0FDA3E0FEA3E0FFB4
:10770600EC4D4E4F6049900606A3A3A3E024FFFF6D
:10771600EE34FFFEED34FFFDEC34FFFC900606125E
:107726003477900606A3A3A3E05401FFE4FEFDFC14
:10773600FBFAF9F8C312344060030277D6900905C4
:10774600E030E705122062800312E5B8B2B022905D
:1077560003C7E054FCF02290060FE0FCA3E0FDA373
:10776600E0FEA3E02401FFE43EFEE43DFDE43CFC34
:1077760090060F12347790060FA3A3A3E05401FFDF
:10778600E4FEFDFCFBFAF9F8C312344070119009CF
:1077960005E030E705122062800312E5B8B2B0902A
:1077A600060FA3A3A3E0543FFFE4FEFDFCFBFAF99A
:1077B600F8C3123440701990082DE0D39405501088
:1077C600900882E020E70912598590082DE004F020
:0177D6002290
:10DB960090060F1234830000000012E5AAE49008F4
:10DBA60082F090088FF0900613F09003C8F090086A
:10DBB600F5F09005ECF09003D7F0900816F090037E
:10DBC600D0F0A3F09006061234830000000002BCD9
:01DBD600B599
:10ACEC0090060FE0FCA3E0FDA3E0FEA3E02401FF2F
:10ACFC00E43EFEE43DFDE43CFC90060F12347790FC
:10AD0C00060FA3A3A3E05401FFE4FEFDFCFBFAF93C
:10AD1C00F8C3123440702590060F123483000000E3
:10AD2C0000900905E030E705122062800312E5B8B7
:0DAD3C001259789003C7E054FC4402F02245
:10B2B80090060FE0FCA3E0FDA3E0FEA3E02401FF5D
:10B2C800E43EFEE43DFDE43CFC90060F123477902A
:10B2D800060FA3A3A3E05401FFE4FEFDFCFBFAF96B
:10B2E800F8C3123440702490060F12348300000013
:10B2F80000900905E030E705122062800312E5B8E6
:0CB30800B2B09003C7E054FC4401F022F6
:1077D7009005EDE0FCA3E0FDA3E0FEA3E0FF90062B
:1077E7000FE0F8A3E0F9A3E0FAA3E0FBC3123440EB
:1077F7007065900606E0FCA3E0FDA3E0FEA3E0FFB2
:10780700EC4D4E4F6049900606A3A3A3E024FFFF6B
:10781700EE34FFFEED34FFFDEC34FFFC900606125C
:107827003477900606A3A3A3E05401FFE4FEFDFC12
:10783700FBFAF9F8C312344060030278D7900905C0
:10784700E030E705122062800312E5B8B2B022905B
:1078570003C7E054FCF02290060FE0FCA3E0FDA371
:10786700E0FEA3E02401FFE43EFEE43DFDE43CFC32
:1078770090060F12347790060FA3A3A3E05401FFDD
:10788700E4FEFDFCFBFAF9F8C312344070119009CD
:1078970005E030E705122062800312E5B8B2B09028
:1078A700060FA3A3A3E0543FFFE4FEFDFCFBFAF998
:1078B700F8C3123440701990082DE0D39405501086
:1078C700900882E020E70912598590082DE004F01E
:0178D700228E
:10D87D0090060F123483000000009003C7E044406F
:10D88D00F054C012E5B0E4900882F090088FF0904B
:10D89D000613F09003C8F09008F5F09005ECF090A9
:10D8AD0003D7F0900816F09003D0F0A3F090060681
:0AD8BD001234830000000002BCB525
:10AD490090060FE0FCA3E0FDA3E0FEA3E02401FFD1
:10AD5900E43EFEE43DFDE43CFC90060F123477909E
:10AD6900060FA3A3A3E05401FFE4FEFDFCFBFAF9DF
:10AD7900F8C3123440702590060F12348300000086
:10AD890000900905E030E705122062800312E5B85A
:0DAD99001259789003C7E054FC4402F022E8
:10B3140090060FE0FCA3E0FDA3E0FEA3E02401FF00
:10B32400E43EFEE43DFDE43CFC90060F12347790CD
:10B33400060FA3A3A3E05401FFE4FEFDFCFBFAF90E
:10B34400F8C3123440702490060F123483000000B6
:10B3540000900905E030E705122062800312E5B889
:0CB36400B2B09003C7E054FC4401F0229A
:1078D8009005EDE0FCA3E0FDA3E0FEA3E0FF900629
:1078E8000FE0F8A3E0F9A3E0FAA3E0FBC3123440E9
:1078F8007065900606E0FCA3E0FDA3E0FEA3E0FFB0
:10790800EC4D4E4F6049900606A3A3A3E024FFFF69
:10791800EE34FFFEED34FFFDEC34FFFC900606125A
:107928003477900606A3A3A3E05401FFE4FEFDFC10
:10793800FBFAF9F8C312344060030279D8900905BC
:10794800E030E705122062800312E5B8B2B0229059
:1079580003C7E054FCF02290060FE0FCA3E0FDA36F
:10796800E0FEA3E02401FFE43EFEE43DFDE43CFC30
:1079780090060F12347790060FA3A3A3E05401FFDB
:10798800E4FEFDFCFBFAF9F8C312344070119009CB
:1079980005E030E705122062800312E5B8B2B09026
:1079A800060FA3A3A3E0543FFFE4FEFDFCFBFAF996
:1079B800F8C3123440701990082DE0D39405501084
:1079C800900882E020E70912598590082DE004F01C
:0179D800228C
:10D8C70090060F123483000000009003C7E0444025
:10D8D700F054C012E5B0E4900882F090088FF09001
:10D8E7000613F09003C8F09008F5F09005ECF0905F
:10D8F70003D7F0900816F09003D0F0A3F090060637
:0AD907001234830000000002BCB5DA
:10ADA60090060FE0FCA3E0FDA3E0FEA3E02401FF74
:10ADB600E43EFEE43DFDE43CFC90060F1234779041
:10ADC600060FA3A3A3E05401FFE4FEFDFCFBFAF982
:10ADD600F8C3123440702590060F12348300000029
:10ADE60000900905E030E705122062800312E5B8FD
:0DADF6001259789003C7E054FC4402F0228B
:10B3700090060FE0FCA3E0FDA3E0FEA3E02401FFA4
:10B38000E43EFEE43DFDE43CFC90060F1234779071
:10B39000060FA3A3A3E05401FFE4FEFDFCFBFAF9B2
:10B3A000F8C3123440702490060F1234830000005A
:10B3B00000900905E030E705122062800312E5B82D
:0CB3C000B2B09003C7E054FC4401F0223E
:1079D9009005EDE0FCA3E0FDA3E0FEA3E0FF900627
:1079E9000FE0F8A3E0F9A3E0FAA3E0FBC3123440E7
:1079F9007065900606E0FCA3E0FDA3E0FEA3E0FFAE
:107A0900EC4D4E4F6049900606A3A3A3E024FFFF67
:107A1900EE34FFFEED34FFFDEC34FFFC9006061258
:107A29003477900606A3A3A3E05401FFE4FEFDFC0E
:107A3900FBFAF9F8C31234406003027AD9900905B8
:107A4900E030E705122062800312E5B8B2B0229057
:107A590003C7E054FCF02290060FE0FCA3E0FDA36D
:107A6900E0FEA3E02401FFE43EFEE43DFDE43CFC2E
:107A790090060F12347790060FA3A3A3E05401FFD9
:107A8900E4FEFDFCFBFAF9F8C312344070119009C9
:107A990005E030E705122062800312E5B8B2B09024
:107AA900060FA3A3A3E0543FFFE4FEFDFCFBFAF994
:107AB900F8C3123440701990082DE0D39405501082
:107AC900900882E020E70912598590082DE004F01A
:017AD900228A
:10AB1A0090060F123483000000009003C7E04444FB
:10AB2A00F054CCF0E49008DEF0C2B0900905E030B1
:10AB3A00E705122062800312E5B8E4900882F090DB
:10AB4A00088FF0900613F09003C8F09008F5F09083
:10AB5A0005ECF09003D7F0900816F09003D0F0A31C
:0EAB6A00F09006061234830000000002BCB515
:10AE030090060FE0FCA3E0FDA3E0FEA3E02401FF16
:10AE1300E43EFEE43DFDE43CFC90060F12347790E3
:10AE2300060FA3A3A3E05401FFE4FEFDFCFBFAF924
:10AE3300F8C3123440702590060F123483000000CB
:10AE430000900905E030E705122062800312E5B89F
:0DAE53001259789003C7E054FC4402F0222D
:10B3CC0090060FE0FCA3E0FDA3E0FEA3E02401FF48
:10B3DC00E43EFEE43DFDE43CFC90060F1234779015
:10B3EC00060FA3A3A3E05401FFE4FEFDFCFBFAF956
:10B3FC00F8C3123440702490060F123483000000FE
:10B40C0000900905E030E705122062800312E5B8D0
:0CB41C00B2B09003C7E054FC4401F022E1
:107ADA009005EDE0FCA3E0FDA3E0FEA3E0FF900625
:107AEA000FE0F8A3E0F9A3E0FAA3E0FBC3123440E5
:107AFA007065900606E0FCA3E0FDA3E0FEA3E0FFAC
:107B0A00EC4D4E4F6049900606A3A3A3E024FFFF65
:107B1A00EE34FFFEED34FFFDEC34FFFC9006061256
:107B2A003477900606A3A3A3E05401FFE4FEFDFC0C
:107B3A00FBFAF9F8C31234406003027BDA900905B4
:107B4A00E030E705122062800312E5B8B2B0229055
:107B5A0003C7E054FCF02290060FE0FCA3E0FDA36B
:107B6A00E0FEA3E02401FFE43EFEE43DFDE43CFC2C
:107B7A0090060F12347790060FA3A3A3E05401FFD7
:107B8A00E4FEFDFCFBFAF9F8C312344070119009C7
:107B9A0005E030E705122062800312E5B8B2B09022
:107BAA00060FA3A3A3E0543FFFE4FEFDFCFBFAF992
:107BBA00F8C3123440701990082DE0D39405501080
:107BCA00900882E020E70912598590082DE004F018
:017BDA002288
:10D9110090060F123483000000009003C7E04440DA
:10D92100F054CC12E5B0E4900882F090088FF090AA
:10D931000613F09003C8F09008F5F09005ECF09014
:10D9410003D7F0900816F09003D0F0A3F0900606EC
:0AD951001234830000000002BCB590
:10AE600090060FE0FCA3E0FDA3E0FEA3E02401FFB9
:10AE7000E43EFEE43DFDE43CFC90060F1234779086
:10AE8000060FA3A3A3E05401FFE4FEFDFCFBFAF9C7
:10AE9000F8C3123440702590060F1234830000006E
:10AEA00000900905E030E705122062800312E5B842
:0DAEB0001259789003C7E054FC4402F022D0
:10B4280090060FE0FCA3E0FDA3E0FEA3E02401FFEB
:10B43800E43EFEE43DFDE43CFC90060F12347790B8
:10B44800060FA3A3A3E05401FFE4FEFDFCFBFAF9F9
:10B45800F8C3123440702490060F123483000000A1
:10B4680000900905E030E705122062800312E5B874
:0CB47800B2B09003C7E054FC4401F02285
:107BDB009005EDE0FCA3E0FDA3E0FEA3E0FF900623
:107BEB000FE0F8A3E0F9A3E0FAA3E0FBC3123440E3
:107BFB007065900606E0FCA3E0FDA3E0FEA3E0FFAA
:107C0B00EC4D4E4F6049900606A3A3A3E024FFFF63
:107C1B00EE34FFFEED34FFFDEC34FFFC9006061254
:107C2B003477900606A3A3A3E05401FFE4FEFDFC0A
:107C3B00FBFAF9F8C31234406003027CDB900905B0
:107C4B00E030E705122062800312E5B8B2B0229053
:107C5B0003C7E054FCF02290060FE0FCA3E0FDA369
:107C6B00E0FEA3E02401FFE43EFEE43DFDE43CFC2A
:107C7B0090060F12347790060FA3A3A3E05401FFD5
:107C8B00E4FEFDFCFBFAF9F8C312344070119009C5
:107C9B0005E030E705122062800312E5B8B2B09020
:107CAB00060FA3A3A3E0543FFFE4FEFDFCFBFAF990
:107CBB00F8C3123440701990082DE0D3940550107E
:107CCB00900882E020E70912598590082DE004F016
:017CDB002286
:10DB0A0090060F123483000000009003C77450126D
:10DB1A00E5B0E4900882F090088FF0900613F09038
:10DB2A0003C8F09008F5F09005ECF09003D7F09058
:10DB3A000816F09003D0F0A3F09006061234830082
:06DB4A0000000002BCB562
:10AEBD0090060FE0FCA3E0FDA3E0FEA3E02401FF5C
:10AECD00E43EFEE43DFDE43CFC90060F1234779029
:10AEDD00060FA3A3A3E05401FFE4FEFDFCFBFAF96A
:10AEED00F8C3123440702590060F12348300000011
:10AEFD0000900905E030E705122062800312E5B8E5
:0DAF0D001259789003C7E054FC4402F02272
:10B4840090060FE0FCA3E0FDA3E0FEA3E02401FF8F
:10B49400E43EFEE43DFDE43CFC90060F123477905C
:10B4A400060FA3A3A3E05401FFE4FEFDFCFBFAF99D
:10B4B400F8C3123440702490060F12348300000045
:10B4C40000900905E030E705122062800312E5B818
:0CB4D400B2B09003C7E054FC4401F02229
:107CDC009005EDE0FCA3E0FDA3E0FEA3E0FF900621
:107CEC000FE0F8A3E0F9A3E0FAA3E0FBC3123440E1
:107CFC007065900606E0FCA3E0FDA3E0FEA3E0FFA8
:107D0C00EC4D4E4F6049900606A3A3A3E024FFFF61
:107D1C00EE34FFFEED34FFFDEC34FFFC9006061252
:107D2C003477900606A3A3A3E05401FFE4FEFDFC08
:107D3C00FBFAF9F8C31234406003027DDC900905AC
:107D4C00E030E705122062800312E5B8B2B0229051
:107D5C0003C7E054FCF02290060FE0FCA3E0FDA367
:107D6C00E0FEA3E02401FFE43EFEE43DFDE43CFC28
:107D7C0090060F12347790060FA3A3A3E05401FFD3
:107D8C00E4FEFDFCFBFAF9F8C312344070119009C3
:107D9C0005E030E705122062800312E5B8B2B0901E
:107DAC00060FA3A3A3E0543FFFE4FEFDFCFBFAF98E
:107DBC00F8C3123440701990082DE0D3940550107C
:107DCC00900882E020E70912598590082DE004F014
:017DDC002284
:10D9A50090060F123483000000009003C77450F0F6
:10D9B50054F012E5B0E4900882F090088FF09006DC
:10D9C50013F09003C8F09008F5F09005ECF0900383
:10D9D500D7F0900816F09003D0F0A3F09006061249
:09D9E50034830000000002BCB50F
:10AF1A0090060FE0FCA3E0FDA3E0FEA3E02401FFFE
:10AF2A00E43EFEE43DFDE43CFC90060F12347790CB
:10AF3A00060FA3A3A3E05401FFE4FEFDFCFBFAF90C
:10AF4A00F8C3123440702590060F123483000000B3
:10AF5A0000900905E030E705122062800312E5B887
:0DAF6A001259789003C7E054FC4402F02215
:10B4E00090060FE0FCA3E0FDA3E0FEA3E02401FF33
:10B4F000E43EFEE43DFDE43CFC90060F1234779000
:10B50000060FA3A3A3E05401FFE4FEFDFCFBFAF940
:10B51000F8C3123440702490060F123483000000E8
:10B5200000900905E030E705122062800312E5B8BB
:0CB53000B2B09003C7E054FC4401F022CC
:107DDD009005EDE0FCA3E0FDA3E0FEA3E0FF90061F
:107DED000FE0F8A3E0F9A3E0FAA3E0FBC3123440DF
:107DFD007065900606E0FCA3E0FDA3E0FEA3E0FFA6
:107E0D00EC4D4E4F6049900606A3A3A3E024FFFF5F
:107E1D00EE34FFFEED34FFFDEC34FFFC9006061250
:107E2D003477900606A3A3A3E05401FFE4FEFDFC06
:107E3D00FBFAF9F8C31234406003027EDD900905A8
:107E4D00E030E705122062800312E5B8B2B022904F
:107E5D0003C7E054FCF02290060FE0FCA3E0FDA365
:107E6D00E0FEA3E02401FFE43EFEE43DFDE43CFC26
:107E7D0090060F12347790060FA3A3A3E05401FFD1
:107E8D00E4FEFDFCFBFAF9F8C312344070119009C1
