:02E5A7003792A9
:02E5A9002086CA
:02E5AB00431D0E
:02E5AF00630601
:02E5B100CE9A00
:02E5B300E46220
:02E5B500500410
:02E5B7009AA622
:02E5B90098CBFD
:02E5BB00994283
:02E5BD0099B90A
:02E5BF0095C104
:02E5C100BD6635
:02E5C300BB4853
:02E5C500BBA3F6
:10E8F6006D4456524D432D30302D52442D352E3811
:102717004908D45500000000000000004108FB00F4
:102727004108FC004108900041083A004503D340A6
:10273700A0E6CCB24408EA000000004103CC004107
:10274700081E004208E3000041081A034108203B25
:102757004108220141082528410828004208F600BF
:10276700004103C8004108F5004108E0004108F4B2
:10277700004108DF004108E1004104E40042082B62
:1027870000004408860000000041060F0041082DA4
:1027970041410824004108D211410880014105F157
:1027A7002441087F094108EF074108DE004103C9BA
:1027B7000041082E00410905FF4109063F41090272
:1027C700FE410904FF4108F800C10160C30000FF92
:1027D70097D1FF9220FF9220FF9220FF5D96FF5E28
:1027E700F6FF40F9FF4B06FF34EFFFCF3AFF9A3071
:1027F700FF4540FF3EC0FF9220FF9220FF9220FF3F
:10280700565CFF2BA6FF84BAFF5C31FF9220FF9234
:1028170020FF9220FFE312FF6BC0FF6452FF605658
:10282700FF61AEFF9C75FF5ACBFF8674FF9220FFB6
:102837009220FF6CECFF6E13FF6F3AFF7060FF533F
:1028470034FF54C8FF3C82FF7186FF6A92FF659D83
:10285700FF681EFF695EFF519FFF4CB5FF4E61FF8A
:102867009220FF57E4FF9220FF9220FF9220FF92D1
:1028770020FF9220FF9220FF9220FF9220FF9220BC
:10288700FF9220FF9220FF3A15FF475BFF4935FF74
:102897009220C100630000C4FFE5E6FFEAD8FFEA23
:1028A700DEFFEAE4FFE707FF9D56FFBDBFFFCF88C6
:1028B700FFCBBBFF8749FFC75FFFCFD6FFEA5DFFAF
:1028C700EA89FFEA91FFEA99FFE722FF9DC6FFBE6B
:1028D70017FFD024FFE73DFF9E36FFBE6FFFCCB446
:1028E700FFE3E9FF9B8FFFAA57FFBBFEFFE758FFF8
:1028F7009EA6FFBC58FFCC0EFFC80DFF8811FFC76F
:10290700B6FFD072FFD10EFF88D9FFC864FFD0C0D1
:10291700FFD635FF89A1FFD41AFFD15CFFD680FF10
:102927008A69FFD467FFB75FFFEA68FFEAA1FFEA9A
:10293700A9FFEAB1FFE773FF9F16FFBEC7FFCD05EB
:10294700FFD6CBFF8B31FFC8BBFFD1AAFF200EFFFD
:10295700EAB9FFEAC1FFEAC9FFDCB3FF9F86FFBF01
:102967001FFFCA6BFFDCEFFF9FF6FFBF77FFB7BA0A
:10297700FFDD2BFFA066FFBFCFFFB815FFDD67FFA9
:10298700A0D6FFC027FFCABFFFDDA3FFA146FFC038
:102997007FFFB870FFDDDFFFA1B6FFC0D7FFB8CB61
:1029A700FFDE1BFFA226FFC12FFFAAB5FFDE57FFE1
:1029B700A296FFC187FFB926FFDE93FFA306FFC1DB
:1029C700DFFFB981FFDECFFFA376FFC237FFAB136F
:1029D700FFDF0BFFA3E6FFC28FFFB9DCFFDF47FF77
:1029E700A456FFC2E7FFBA37FFDF83FFA4C6FFC3C2
:1029F7003FFFCB13FFDFBFFFA536FFC397FFBA9299
:102A0700FFE200FFA5A6FFC3EFFFBAEDFFE23CFF21
:102A1700A616FFC447FFCB67FFD4B4FF73BCFFB153
:102A27009FFFABCFFFD88DFF74BDFFB1FBFFAC2C71
:102A3700FFDA8FFF75BEFFB257FFAC89FFDBF0FFF0
:102A470076BFFFB2B3FFACE6FFD8D7FF77C0FFB3BF
:102A57000FFFAD43FFD921FF78C1FFB36BFFADA0D7
:102A6700FFAB71FF79C2FFB3C7FFADFDFFD96BFFA6
:102A77007AC3FFB423FFAE5AFFDB64FF7BC4FFB406
:102A87007FFFAEB7FFD9FFFF7CC5FFB4DBFFAF14F5
:102A9700FFDAD6FF7DC6FFB537FFAF71FFDBAAFFB1
:102AA7007EC7FFB593FFAFCEFFDC31FF7FC8FFB511
:102AB700EFFFB02BFFD9B5FF80C9FFB64BFFB0883A
:102AC700FFDB1DFF81CAFFB6A7FFB0E5FFDC72FF82
:102AD70082CBFFB703FFB142FFEA73FFE890FFE83D
:102AE700A2FFE8B4FFE78EFFA686FFC49FFFCD567F
:102AF700FFD716FF8BF9FFC912FFD1F8FF2026FF7A
:102B0700E65FFFE67BFFE697FFE7A9FFA6F6FFC4B0
:102B1700F7FFCDA7FFE7C4FFA766FFC54FFFC5A710
:102B2700FFE7DFFFA7D6FFC5FFFFC657FFE7FAFF9F
:102B3700A846FFC6AFFFCDF8FFD761FF8CC1FFD511
:102B470001FFD246FFD2E2FF8D89FFD54EFFD29417
:102B5700FFD7ACFF8E51FFD59BFFD330FFD7F7FFD1
:102B67008F19FFD5E8FFD37EFFE87BFFE6B3FFE6CB
:102B7700CFFFE6EBFFE815FFA8B6FFC707FFCE4973
:102B8700FFD842FF8FE1FFC969FFD3CCFFE605FFFE
:0E2B9700E4B0FFE4D6FFE4FC4303C4000000FA
:1037920053D9BFE49008F9F0A3F09008E5123486FB
:1037A20000000000C298C299C2ACC28E12E36B1232
:1037B200E56712E5C712E98D75C7FFD294D295D29B
:1037C20096D293D297D2A7E49008DEF090081BF02D
:1037D2009005ECF09003D9F090081FF09004E5F00A
:1037E2009003CFF090081474FFF09003DD74E4F0BE
:1037F200E49008F5F09003C8F090082BF0A3F09045
:10380200088AF090088612348600000000E49008CE
:10381200DDF0E5B05480FFE5A0543F4FFFE5C7540B
:1038220008FE33333354F84F9008F2F0900832E434
:10383200F0A3741FF0A3E4F0A3741FF0900837E420
:10384200F0A3741FF090087AE4F0A3741FF09008BC
:103852007DE4F0A3741FF09005FBE4F0A3741FF065
:103862009005FFE4F0A3741FF0A3E4F0A3741FF02B
:1038720090060AE4F0A3741FF090060DE4F0A3741E
:103882001FF0E4900883F09005F6F09005ED1234F5
:1038920086000007449005F21234860000026C9004
:1038A2000606123486000000009004E7E4F0A374D8
:1038B200BAF0E4900882F09003D0F0A3F0900817D9
:1038C200F09008857480F09005FDF090082174084E
:1038D200F09003DBF0E49003C7F090088DF012E45F
:1038E200129004E4E0B455069008E1E08001E4900F
:1038F20005EBF0E490087CF09005F71234860003A3
:1039020067E0C29853D2FD53D2FED2AC43A812C292
:103912009843E70253D2FD53D2FE43D202D29943D7
:10392200E601D2AFE49003CDF09004E3F090090BEE
:10393200F09008F3F09009037455F09008EEF090BF
:1039420008FD74FBF09008E9F09005FE7405F01292
:10395200E27843C18012975253C17F90090BE06015
:1039620022900903E0FF9008D4E0FEC3EF6480F8E0
:10397200EE6480984007E49008E2F080069008E246
:103982007401F09008F3E060309008EEE0FF9008D8
:10399200D6E0FEC3EF6480F8EE648098500D900884
:1039A200E9E06480F8EE6480985007E49008D1F072
:1039B20080079008D1E05401F07F02122F4F7F065A
:1039C200122F4F7F04122F4F7F01122F4F9008FEAC
:1039D200123486000000009004E2741EF090090682
:1039E200E054BFFFF0E49003C9F09003DAF0EF5423
:1039F200DF12E33F12E97E12E9BA12E9D853D9F095
:103A020043D90A75FDFF43D940E4900881F075FE61
:033A1200FF80FB37
:10E56700E4FFFE75B12075B9810FBF00010EEF649E
:0FE57700284E70F543B9C0E5B930E5FB75A9032F
:01E586002272
:10E36B0075F1FF75A45D75A5F375A68075F3BF7583
:10E37B00A74C75AE8575F4CD75F5BF75D48075D585
:0BE38B000175E10775E24075E3012217
:10E5C700122076E4FF1290A912E8C612E90612E8B3
:0FE5D7004B12EAD112DFFB7F0512E2E202207243
:0FE90600438920438E08758D40E4F58BD28E2215
:10E8C60075981075D21075AC4375B5FF75B44022B6
:01207200224B
:0C20760075A17075F80175A205C2FF226B
:10E2E2008FBB75BA1F75BCB875E88075C40275C35B
:10E2F2006F75C60175C59190081A7402F0900820D6
:10E30200746FF09008227401F09008257491F02245
:04DFFB0075D10C22AE
:032023000296CD55
:1096CD00C0E0C083C082C0D075D000C00730985FA5
:1096DD00C2989008DEE060629005ECE0FF04F07443
:1096ED00902FF582E43408F583E599F09008F8E4BD
:1096FD00F0900890E0FF9005ECE06F703D900894BD
:10970D00E0FF64026004EFB4031E900891E0B40121
:10971D0017A3E070139004E504F09005ECE4F090CD
:10972D0003DDE0547FF080129005ECE4F0800B3007
:10973D0099089008FB7401F0C299D007D0D0D0825F
:05974D00D083D0E032E2
:03208300029B1BA2
:109B1B00C0E0C083C082C0D075D000C007E5D23092
:109B2B00E04453D2FE9003D9E0FF04F0743A2FF5D2
:109B3B0082E43408F583E5D3F090083AE0FF900314
:109B4B00D9E0B5072190083EE0FF64026004EFB452
:109B5B00030F9003DDE0547FF09003CF7401F0808E
:109B6B00009003D9E4F0E5D230E10EE5D230E509FF
:109B7B0053D2FD9008FC7401F0D007D0D0D082D026
:049B8B0083D0E03271
:10E3C000D3EF9440EE940040047E007F4090000024
:10E3D00075F003EF1234B7EE75F003A42583F583CF
:09E3E000A3E0FAA3E0F90234E91C
:1097D100E4900A72F09008E51234860000000090CF
:1097E1000890E0FFE4FCFDFE9008E5E0F8A3E0F955
:1097F100A3E0FAA3E0FBC312344350399008E5A378
:10980100A3A3E02490F582E43408F583E0FF900AF5
:1098110072E02FF09008E5E0FCA3E0FDA3E0FEA3D9
:10982100E02401FFE43EFEE43DFDE43CFC9008E55C
:1098310012347A80AA900A72E0700D9003C7F090FA
:0D98410008817402F002E546E4FF12937600
:01984E0022F7
:10519F00E4900A73F09008E5123486000000009046
:1051AF000890E0FFE4FCFDFE9008E5E0F8A3E0F9CD
:1051BF00A3E0FAA3E0FBC312344350399008E5A3F0
:1051CF00A3A3E02490F582E43408F583E0FF900A6E
:1051DF0073E02FF09008E5E0FCA3E0FDA3E0FEA351
:1051EF00E02401FFE43EFEE43DFDE43CFC9008E5D5
:1051FF0012347A80AA900A73E0600302532E741956
:10520F00F09003C8E0FF04F074142FF582E4340625
:10521F00F5837416F0900892E0FF9003C8E0FE0447
:10522F00F074142EF582E43406F583EFF0900A73D0
:10523F00E02FF0900891E0FF9003C8E0FE04F074B7
:10524F00142EF582E43406F583EFF0900A73E02F05
:10525F00F0900893E0FF9003C8E0FE04F074142E62
:10526F00F582E43406F583EFF0900A73E02FF090A7
:10527F0003C8E0FF04F074142FF582E43406F583BD
:10528F007403F09008E512348600000000E47F10EC
:10529F00FEFDFC9008E5E0F8A3E0F9A3E0FAA3E037
:1052AF00FBC3123443504D9008E5A3A3A3E0FF9036
:1052BF00E8F693FE9003C8E0FD04F074142DF58218
:1052CF00E43406F583EEF0EF90E8F693FF900A735F
:1052DF00E02FF09008E5E0FCA3E0FDA3E0FEA3E0E3
:1052EF002401FFE43EFEE43DFDE43CFC9008E512A2
:1052FF00347A8099900A73E0FFC3E49FFF9003C84C
:10530F00E0FE04F074142EF582E43406F583EFF01A
:10531F009008F7E02416F09008F6E03400F0227FB2
:04532F002D12937632
:015333002257
:109376007E2A9003C8E0FD04F074142DF582E434CF
:1093860006F5837407F09003C8E0FD04F074142D0D
:10939600F582E43406F583E4F09003C8E0FD04F0BA
:1093A60074142DF582E43406F5837401F09003C835
:1093B600E0FD04F074142DF582E43406F583741F81
:1093C600F09003C8E0FD04F074142DF582E4340631
:1093D600F5837403F09003C8E0FD04F074142DF5D2
:1093E60082E43406F583EFF02EFFC3E49FFF90037B
:1093F600C8E0FE04F074142EF582E43406F583EF1B
:0F940600F09008F7E02407F09008F6E03400F04B
:019415002234
:109220007F0A9003C8E0FE04F074142EF582E43443
:1092300006F5837407F0900892E0FE9003C8E0FD05
:1092400004F074142DF582E43406F583EEF0EE2F6D
:10925000FF900891E0FE9003C8E0FD04F074142D27
:10926000F582E43406F583EEF0EE2FFF900893E0EC
:10927000FE9003C8E0FD04F074142DF582E434067A
:10928000F583EEF0EE2FFF9003C8E0FE04F07414B7
:109290002EF582E43406F5837403F09003C8E0FEF3
:1092A00004F074142EF582E43406F583E4F0C39FD1
:1092B000FF9003C8E0FE04F074142EF582E4340637
:1092C000F583EFF09008F7E02407F09008F6E0341B
:0292D00000F0AC
:0192D2002279
:10E31200900895E09004E2F09006147453F0A37410
:10E3220041F0A37452F0A3743DF0A3740AF0900874
:0DE33200F6E4F0A37405F0E49008F5F02285
:10E64200E4FE9008FBE06007E4F08F997F01220E60
:0CE65200EEC394FF40ECEEB4FF027F002A
:01E65E002299
:0EEA41009008FCE060FAE49008FCF08FD3220D
:08200300C2FF8FA330FFFD2294
:10A9F300C296E4FF12200312AA4FFF12200312AAE9
:10AA03004F900824EFF0E4FF12200312AA4F90089E
:10AA13002DEFF0E4FF12200312AA4F9008D2EFF0BB
:10AA2300E4FF12200312AA4F900880EFF0E4FF1214
:10AA3300200312AA4F9005F1EFF0E4FF1220031256
:0CAA4300AA4F90087FEFF0E4FF12200300
:08AA4F0030FFFDC2FFAFA3229E
:10E2780012A9F39008EFEFF0D2969003DCF0900823
:10E288007FE09003CEF09008D2E09005E9F0900886
:10E298002DE09008D3F0900880E09003D2F090052C
:07E2A800F1E0900910F022E3
:03C9C00012E27808
:10C9C30012A9F39008EFEFF0D2969003DCE06F70BA
:10C9D3003F90087FE0FF9003CEE06F70339008D262
:10C9E300E0FF9005E9E06F702790082DE0FF9008C5
:10C9F300D3E0B5071B900880E0FF9003D2E0B507B2
:10CA03000F9005F1E0FF900910E0B507037F0122C5
:03CA13007F00227F
:109C0300E4900A11F0A3F0C2967F1912200312AA5E
:109C13004F8021C3900A11E09401501F12AA4FE410
:109C230075F001123310FC741125F0F58274093CB0
:109C3300F583EFF07F1912200380D8D296E4900ABF
:109C430011F0A3F0900A11E0FEA3E0FFC3EE94012C
:109C5300501F74112FF582E43409F583E0FD12954A
:109C630037900A12E004F070DB900A11E004F080F0
:019C7300D31D
:019C740022CD
:10E43B00E4FEC2967F9912200312AA4FFDFCAF0691
:10E44B000E12200312AA4F0DBD00010CE4B505EE10
:06E45B00ECB401EAD296C8
:01E461002298
:10953700900A50EFF0A3EDF0900A50E0C4540FFFEB
:10954700C3940A4005EF24378009900A50E0C454B9
:109557000F2430FF12E489900A50E0540FFFC394A0
:109567000A4005EF24378008900A50E0540F243052
:10957700FF12E4897F3A12E489900A51E0C4540F3C
:10958700FFC3940A4005EF24378009900A51E0C4CD
:10959700540F2430FF12E489900A51E0540FFFC39F
:1095A700940A4005EF24378008900A51E0540F24AD
:0A95B70030FF12E4897F2002E489EE
:06984F00900A4912347A70
:1098550053C7FBC2FF75A30330FFFDC2FF900A4942
:10986500E0FCA3E0FDA3E0FEA3E0FF781012345472
:109875008FA330FFFDC2FF900A49E0FCA3E0FDA3E2
:10988500E0FEA3E0FF78081234548FA330FFFDC239
:10989500FF900A49A3A3A3E0F5A330FFFDE4FFFE73
:1098A500C2FFE4F5A330FFFD74DE2FF582E4340337
:1098B500F583E5A3F00FBF00010EBE01E3BF01E094
:0598C50043C7047FDE33
:0198CA00227B
:1092D300900A2C12347A900A30EBF0A3EAF0A3E957
:0192E300F09A
:1092E40053C7FBC2FF75A30630FFFD43C70453C732
:1092F400FBC2FF75A30230FFFDC2FF900A2CE0FC05
:10930400A3E0FDA3E0FEA3E0FF78101234548FA382
:1093140030FFFDC2FF900A2CE0FCA3E0FDA3E0FEB9
:10932400A3E0FF78081234548FA330FFFDC2FF90EE
:109334000A2CA3A3A3E0F5A330FFFDE4FFFED39022
:10934400082CE09F90082BE09E4021C2FF900A3039
:10935400E0FBA3E475F001123310A9F0FA123232E3
:10936400F5A330FFFD0FBF00010E80D2C2FF43C73B
:0193740004F4
:0193750022D5
:109CE600900A3A12347A53C7FBC2FF75A30630FFB7
:109CF600FD43C70453C7FBC2FF900A3EE0F5A330FD
:109D0600FFFD900A3EE064C76042C2FF900A3AE057
:109D1600FCA3E0FDA3E0FEA3E0FF78101234548F0D
:109D2600A330FFFDC2FF900A3AE0FCA3E0FDA3E0EA
:109D3600FEA3E0FF78081234548FA330FFFDC2FF64
:109D4600900A3AA3A3A3E0F5A330FFFD43C704227C
:0FE8D600E4900A43F0900A3F12348600000100DC
:01E8E5002210
:10941600900895E0900824F0900896E090082DF0CA
:10942600900897E09008D2F0900898E0900880F0B5
:10943600900899E09005F1F090089AE090087FF086
:1094460090089BE09008EFF043C180900824E0FB71
:109456007DD07C00E4FF12DA4E90082D7F0112DAEF
:10946600489008D27F0212DA48900880E0FB7DD04F
:109476007C007F0312DA4E9005F1E0FB7DD07C0084
:109486007F0412DA4E90087FE0FB7DD07C007F05DA
:1094960012DA4E9008EFE0FB7DD07C007F0612DAF0
:0594A6004E53C17F22BE
:104B0600E4900A74F09008E51234860000000090E4
:104B16000890E0FFE4FCFDFE9008E5E0F8A3E0F96C
:104B2600A3E0FAA3E0FBC312344350399008E5A38F
:104B3600A3A3E02490F582E43408F583E0FF900A0D
:104B460074E02FF09008E5E0FCA3E0FDA3E0FEA3EF
:104B5600E02401FFE43EFEE43DFDE43CFC9008E574
:104B660012347A80AA900A74E06003024CAFC293B2
:104B7600900895E0900824F0900896E090082DF0B3
:104B8600900897E09008D2F0900898E0900880F09E
:104B9600900899E09005F1F090089AE090087FF06F
:104BA60090089BE09008EFF0E4900A74F0900A7485
:104BB600E004F0E0B4FFF6D293C2967F80122003A1
:104BC60012AA4F900824E012AA4B90082DE012AAD0
:104BD6004B9008D2E012AA4B900880E012AA4B90A4
:104BE60005F1E012AA4B90087FE012AA4B9008EF5D
:104BF600E012AA4BD296900A747409F09003C8E0AA
:104C0600FF04F074142FF582E43406F5837406F07D
:104C1600900892E0FF9003C8E0FE04F074142EF5AD
:104C260082E43406F583EFF0900A74E02FF09008E2
:104C360091E0FF9003C8E0FE04F074142EF582E4C0
:104C46003406F583EFF0900A74E02FF0900893E0B5
:104C5600FF9003C8E0FE04F074142EF582E43406D7
:104C6600F583EFF0900A74E02FF09003C8E0FF049C
:104C7600F074142FF582E43406F5837403F0900A79
:104C860074E0FFC3E49FFF9003C8E0FE04F07414D1
:104C96002EF582E43406F583EFF09008F7E024065B
:0E4CA600F09008F6E03400F0227F07129376BB
:014CB40022DD
:07EAD10075C15D43C1802205
:10E84B00E4F591538E3F759398F592859395859248
:08E85B009443E680439104227E
:03203B000266DE5C
:1066DE00C0E0C0F0C083C082C0D075D000C000C082
:0B66EE0001C002C003C004C005C007CB
:1066F900C206E5C054F0248070030267A024C0607C
:106709002024E060030267EE900836E0F5C253C228
:10671900FEA205E43342C2C2C59000C3E4F0026799
:10672900F030C168300007D2C5C2000267F03003FB
:1067390015C203900823E0F5C22002030267F0D2D4
:1067490000D2050267F03005030267F09005EAE020
:10675900FF9000C3E0FD3395E0FCC3ED9F7480F822
:106769006C985022900603E0FBA3E0FAA3E0F9122B
:106779003232F5C2900604E475F0011232FA900043
:10678900C3E004F08061D2C4C201805B300404D24A
:10679900C58054D20680509005EAE0FF9000C3E01E
:1067A900FD3395E0FCC3ED9F7480F86C98502290FE
:1067B900082FE0FBA3E0FAA3E0F9E5C212324B90FF
:1067C9000830E475F0011232FA9000C3E004F0D207
:1067D900C19000C3E0FF9005EAE0B5070AC201C213
:1067E900C1D2C48002D20630061053C17F43C18092
:0C67F900C2C5C2C4C2C1C201C206C2C0F7
:10680500D007D005D004D003D002D001D000D0D01D
:09681500D082D083D0F0D0E03233
:0320730002EA4F2F
:0EEA4F0053C17F43C18053917FC2C5C20132C3
:06DA4800E0FB7DD07C0034
:10DA4E00E4FE3001080EEEB4FFF8E4802FD2019010
:10DA5E000836EDF0C205D203C202D204900823EFBD
:10DA6E00F09004E6EBF09006037401F0A37404F05A
:10DA7E00A374E6F09005EA7401F0D2C59003CDF0E0
:01DA8E002275
:05CEEB00900A21EFF0A8
:10CEF000900A29EBF0A3EAF0A3E9F0E4900A28F005
:10CF0000900A27E0FFA3E0C39F502E900A21E0FF84
:10CF100004F0900A25E0FCA3E0FD900A29E0FBA3C1
:10CF2000E475F001123310A9F0FA123232FB12DA72
:09CF30004E900A28E004F080C7CD
:01CF390022D5
:10CA1600E4FE30010D0EEEB4FFF8E49003CDF07F96
:10CA2600FF22D201900836EDF0C205D203D202D21F
:10CA360004900823EFF090082F7401F0A3740AF015
:10CA4600A37475F09005EA7401F0D2C5E4FE3001D6
:10CA5600080EEEB4FFF87FFF229003CD7401F0902C
:04CA66000A75E0FF6E
:01CA6A0022A9
:08A98D00A3F0A37402F0E4FD45
:10A99500E4FFFE30010D0FBF00010EBEFFF5BFFF46
:10A9A500F2803ED201900A37A3E0900836F0C20546
:10A9B500D203D202D204900823EDF090082FEBF0D9
:10A9C500A3EAF0A3E9F0900A39E09005EAF0D2C5D0
:10A9D500E4FEFF3001110FBF00010EBEFFF5BFFF02
:0DA9E500F2E49003CDF0229003CD7401F058
:01A9F2002242
:0D596000B2B0E490082EF09008837408F0B7
:10596D00900A767414F09003C8E0FF04F074142FBD
:10597D00F582E43406F5837409F09003C8E0FF0462
:10598D00F074142FF582E43406F583E4F09003C827
:10599D00E0FF04F074142FF582E43406F5837401EE
:1059AD00F09003C8E0FF04F074142FF582E4340680
:1059BD00F5837408F09003C8E0FF04F074142FF51C
:1059CD0082E43406F5837402F09003C7E0FF54C0FF
:1059DD00FEBE8013A3E0FE04F074142EF582E434B1
:1059ED0006F583E4F08046EF5430FFBF201C900392
:1059FD00C8E0FF04F074142FF582E43406F58374C7
:105A0D0001F0900A76E004F080239003C7E0540C77
:105A1D00FFBF0819A3E0FF04F074142FF582E434DE
:105A2D0006F5837402F0900A76E02402F0900606E3
:105A3D00E0FCA3E0FDA3E0FEA3E0FF9005EDE0F8A0
:105A4D00A3E0F9A3E0FAA3E02FFFEA3EFEE93DFD56
:105A5D00E83CFCE47B3EFAF9F81233B1AD07AC0635
:105A6D00ECFF9003C8E0FE04F074142EF582E434CC
:105A7D0006F583EFF0900A76E02FF0AF059003C89E
:105A8D00E0FE04F074142EF582E43406F583EFF095
:105A9D00900A76E02FF0E0FFC3E49FFF9003C8E08B
:105AAD00FE04F074142EF582E43406F583EFF090C5
:0D5ABD0008F7E02409F09008F6E03400F04E
:015ACA0022B9
:0383CC007480F0CA
:1083CF007F139005F67401F09003C8E0FE04F0747B
:1083DF00142EF582E43406F5837407F09003C8E099
:1083EF00FE04F074142EF582E43406F583E4F09065
:1083FF0003C8E0FE04F074142EF582E43406F5830E
:10840F007401F09003C8E0FE04F074142EF582E4BA
:10841F003406F5837409F09003C8E0FE04F0741479
:10842F002EF582E43406F5837402F09003C7E0FE64
:10843F0054C0FDBD4013A3E0FD04F074142DF5826C
:10844F00E43406F583E4F0803CEE5430FEBE1017A2
:10845F009003C8E0FE04F074142EF582E43406F5A0
:10846F00837401F00F801E9003C7E0540CFEBE040E
:10847F0014A3E0FE04F074142EF582E43406F583A1
:10848F007402F00F0FC3E49FFF9003C8E0FE04F0E7
:10849F0074142EF582E43406F583EFF09008F7E0BC
:0A84AF002407F09008F6E03400F016
:0184B90022A0
:1034EF00E4900A48F09008E512348600000000903E
:1034FF000890E0FFE4FCFDFE9008E5E0F8A3E0F99A
:10350F00A3E0FAA3E0FBC312344350399008E5A3BC
:10351F00A3A3E02490F582E43408F583E0FF900A3A
:10352F0048E02FF09008E5E0FCA3E0FDA3E0FEA348
:10353F00E02401FFE43EFEE43DFDE43CFC9008E5A1
:10354F0012347A80AA900A48E0600302378C900800
:10355F0083E04480F0900894E0640360030235FA3E
:10356F00A3E0FFE4FCFDFE7808123467E4FFE4FDFE
:10357F00FC900A4412347A900A44E0F8A3E0F9A3CD
:10358F00E0FAA3E0FB900896E0FFE4FCFDFEEB2FD2
:10359F00FFEE3AFEED39FDEC38FC900A4412347A16
:1035AF00900A44E0FCA3E0FDA3E0FEA3E0FFE47B70
:1035BF003EFAF9F8123326900A4412347A9006062E
:1035CF00E0FCA3E0FDA3E0FEA3E0FF900A44E0F8D7
:1035DF00A3E0F9A3E0FAA3E0FBEF2BFFEE3AFEED39
:1035EF0039FDEC38FC90060612347A900894E064AA
:1035FF00026003023791900A487414F09003C8E0F8
:10360F00FF04F074142FF582E43406F5837408F088
:10361F009003C8E0FF04F074142FF582E43406F52C
:10362F0083E4F09003C8E0FF04F074142FF582E4F4
:10363F003406F5837401F09003C8E0FF04F07414AE
:10364F002FF582E43406F5837408F09003C8E0FF89
:10365F0004F074142FF582E43406F5837403F090AC
:10366F000895E0FFE4FCFDFE7808123467E4FFE400
:10367F00FDFC900A4412347A900A44E0F8A3E0F972
:10368F00A3E0FAA3E0FB900896E0FFE4FCFDFEEB5D
:10369F002FFFEE3AFEED39FDEC38FC900A44123460
:1036AF007A900A44E0FCA3E0FDA3E0FEA3E0FFE470
:1036BF007B3EFAF9F8123326900A4412347A9006B8
:1036CF0006E0FCA3E0FDA3E0FEA3E0FF900A44E0C8
:1036DF00F8A3E0F9A3E0FAA3E0FBEF2BFFEE3AFE2D
:1036EF00ED39FDEC38FC90060612347A900606E0B0
:1036FF00FCA3E0FDA3E0FEA3E0FF9005EDE0F8A33F
:10370F00E0F9A3E0FAA3E02FFFEA3EFEE93DFDE872
:10371F003CFCE47B3EFAF9F81233B1AD07AC06EC92
:10372F00FF9003C8E0FE04F074142EF582E4340613
:10373F00F583EFF0900A48E02FF0AF059003C8E053
:10374F00FE04F074142EF582E43406F583EFF09046
:10375F000A48E02FF0E0FFC3E49FFF9003C8E0FEAC
:10376F0004F074142EF582E43406F583EFF090081C
:10377F00F7E02408F09008F6E03400F0227F0812FA
:02378F0093762F
:013791002215
:10CF3A00E4FFFE900890E0FDEEC39D501074902E21
:10CF4A00F582E43408F583E02FFF0E80E6EF7028BF
:10CF5A00900883F0900606123486000000009008BC
:10CF6A0095E07F056005122F4F8003122FD8E490B9
:0DCF7A0005F6F0900883F0227F09129376EF
:01CF87002287
:10E8630075F003EFA424C4F582E5F03400F583A327
:08E87300E0FAA3E0F90234E928
:10E5E600900610123486000000009004DE12348675
:0FE5F6000000000090090C123486000000002283
:06EAD800E49003C7F022E8
:06EADE00E49003C7F022E2
:06EAE400E49003C7F022DC
:10E70700E49008DEF09004DE1234860000000090EA
:0BE7170003C7E004F012E8E602EA325B
:109D56009004DEE0FCA3E0FDA3E0FEA3E02401FF07
:109D6600E43EFEE43DFDE43CFC9004DE12347A90D1
:109D760004DEA3A3A3E05401FFE4FEFDFCFBFAF915
:109D8600F8C3123443700EB2B09005ECF090089010
:109D9600F09008DEF0E47F06FEFDFC9004DEE0F8BD
:109DA600A3E0F9A3E0FAA3E0FBC3123443701090DA
:109DB60004DE123486000000009003C7E004F0229F
:10BDBF009004DEE0FCA3E0FDA3E0FEA3E02401FF7E
:10BDCF00E43EFEE43DFDE43CFC9004DE12347A9048
:10BDDF0004DEA3A3A3E05401FFE4FEFDFCFBFAF98C
:10BDEF00F8C312344370209004DE12348600000032
:10BDFF0000B2B09003C7E004F0E49005ECF09008B7
:08BE0F0090F09008DE04F0221F
:10CF88009004DEE0FCA3E0FDA3E0FEA3E02401FFA3
:10CF9800E43EFEE43DFDE43CFC9004DE12347A906D
:10CFA80004DEA3A3A3E05401FFE4FEFDFCFBFAF9B1
:10CFB800F8C3123443700C9004DE1234860000006B
:0ECFC80000B2B0900883E030E3031283CC2265
:10CFD6009004DEE0FCA3E0FDA3E0FEA3E02401FF55
:10CFE600E43EFEE43DFDE43CFC9004DE12347A901F
:10CFF60004DEA3A3A3E05401FFE4FEFDFCFBFAF963
:10D00600F8C312344370169004DE12348600000012
:0ED01600001259609003C7E054FC4402F0225F
:10C75F009004DEE0FCA3E0FDA3E0FEA3E02401FFD4
:10C76F00E43EFEE43DFDE43CFC9004DE12347A909E
:10C77F0004DEA3A3A3E05401FFE4FEFDFCFBFAF9E2
:10C78F00F8C3123443701F9004DE12348600000089
:10C79F0000B2B09004DE123486000000009003C790
:07C7AF00E054FC4401F022FC
:108749009005EDE0FCA3E0FDA3E0FEA3E0FF9004AB
:10875900DEE0F8A3E0F9A3E0FAA3E0FBC312344397
:10876900703B900606E0FCA3E0FDA3E0FEA3E0FF5A
:10877900EC4D4E4F601F900606A3A3A3E024FFFF14
:10878900EE34FFFEED34FFFDEC34FFFC90060612DB
:10879900347AB2B0229003C7E054FCF0229004DE90
:1087A900E0FCA3E0FDA3E0FEA3E02401FFE43EFE1C
:1087B900E43DFDE43CFC9004DE12347A9004DEA32F
:1087C900A3A3E05401FFE4FEFDFCFBFAF9F8C31290
:1087D90034437002B2B09004DEA3A3A3E0543FFF78
:1087E900E4FEFDFCFBFAF9F8C31234437019900852
:1087F9002EE0D394055010900883E020E709125920
:088809006D90082EE004F0223E
:10CBBB009004DE123486000000009003C7E04404AA
:10CBCB0012E62AE4900883F0900890F0900614F097
:10CBDB009003C8F09008F5F09005ECF09003D8F0B6
:10CBEB00900817F09003D0F0A3F09006061234864D
:10CBFB000000000012BD0C90087CE06005E4F01210
:03CC0B00E52222FD
:0BEA5D009004DE12348600000000224E
:08EA89009003C7E054FCF022E9
:08EA91009003C7E054FCF022E1
:08EA99009003C7E054FCF022D9
:10E72200E49008DEF09003C7E004F090090C123484
:0BE73200860000000012E8E602EA3258
:109DC60090090CE0FCA3E0FDA3E0FEA3E02401FF64
:109DD600E43EFEE43DFDE43CFC90090C12347A902E
:109DE600090CA3A3A3E05401FFE4FEFDFCFBFAF972
:109DF600F8C3123443700EB2B09005ECF0900890A0
:109E0600F09008DEF0E47F06FEFDFC90090CE0F819
:109E1600A3E0F9A3E0FAA3E0FBC312344370109069
:109E2600090C123486000000009003C7E004F022FB
:10BE170090090CE0FCA3E0FDA3E0FEA3E02401FFF2
:10BE2700E43EFEE43DFDE43CFC90090C12347A90BC
:10BE3700090CA3A3A3E05401FFE4FEFDFCFBFAF900
:10BE4700F8C3123443702090090C123486000000A6
:10BE570000B2B09003C7E004F0E49005ECF090085E
:08BE670090F09008DE04F022C7
:10D0240090090CE0FCA3E0FDA3E0FEA3E02401FFD3
:10D03400E43EFEE43DFDE43CFC90090C12347A909D
:10D04400090CA3A3A3E05401FFE4FEFDFCFBFAF9E1
:10D05400F8C3123443700C90090C1234860000009B
:0ED0640000B2B0900883E030E3031283CC22C8
:10E73D00E49008DEF09003C7E004F090090C123469
:0BE74D00860000000012E8E602EA323D
:109E360090090CE0FCA3E0FDA3E0FEA3E02401FFF3
:109E4600E43EFEE43DFDE43CFC90090C12347A90BD
:109E5600090CA3A3A3E05401FFE4FEFDFCFBFAF901
:109E6600F8C3123443700EB2B09005ECF09008902F
:109E7600F09008DEF0E47F06FEFDFC90090CE0F8A9
:109E8600A3E0F9A3E0FAA3E0FBC3123443701090F9
:109E9600090C123486000000009003C7E004F0228B
:10BE6F0090090CE0FCA3E0FDA3E0FEA3E02401FF9A
:10BE7F00E43EFEE43DFDE43CFC90090C12347A9064
:10BE8F00090CA3A3A3E05401FFE4FEFDFCFBFAF9A8
:10BE9F00F8C3123443702090090C1234860000004E
:10BEAF0000B2B09003C7E004F0E49005ECF0900806
:08BEBF0090F09008DE04F0226F
:10CCB40090090CE0FCA3E0FDA3E0FEA3E02401FF47
:10CCC400E43EFEE43DFDE43CFC90090C12347A9011
:10CCD400090CA3A3A3E05401FFE4FEFDFCFBFAF955
:10CCE400F8C3123443700C90090C1234860000000F
:10CCF40000B2B0900883E030E3067480F01283CF72
:01CD0400220C
:10E3E900E49008DEF09003C7E04404F0E004F09004
:10E3F900090C123486000000009004DE12348600F5
:09E4090000000012E8E602EA320C
:109B8F0090090CE0FCA3E0FDA3E0FEA3E02401FF9D
:109B9F00E43EFEE43DFDE43CFC90090C12347A9067
:109BAF00090CA3A3A3E05401FFE4FEFDFCFBFAF9AB
:109BBF00F8C3123443700EB2B09005ECF0900890D9
:109BCF00F09008DEF0E47F06FEFDFC90090CE0F853
:109BDF00A3E0F9A3E0FAA3E0FBC31234437014909F
:109BEF00090C123486000000009003C7E04404F013
:049BFF00E004F0226C
:10AA570090090CE0FCA3E0FDA3E0FEA3E02401FFC6
:10AA6700E43EFEE43DFDE43CFC90090C12347AE43C
:10AA77007F02FEFDFC90090CE0F8A3E0F9A3E0FAE1
:10AA8700A3E0FBC3123443702490090C12348600F0
:10AA9700000000B2B09003C7E04404F0E004F0E423
:0EAAA7009005ECF0900890F09008DE04F0228C
:10BBFE009003C7E04404F090090CE0FCA3E0FDA321
:10BC0E00E0FEA3E02401FFE43EFEE43DFDE43CFC47
:10BC1E0090090C12347AE47F02FEFDFC90090CE0D0
:10BC2E00F8A3E0F9A3E0FAA3E0FBC3123443700CCF
:10BC3E0090090C12348600000000B2B0900883E028
:0ABC4E0030E3067480F01283CF2269
:10E75800E49008DEF09003C7E004F090090C12344E
:0BE76800860000000012E8E602EA3222
:109EA60090090CE0FCA3E0FDA3E0FEA3E02401FF83
:109EB600E43EFEE43DFDE43CFC90090C12347A904D
:109EC600090CA3A3A3E05401FFE4FEFDFCFBFAF991
:109ED600F8C3123443700EB2B09005ECF0900890BF
:109EE600F09008DEF0E47F06FEFDFC90090CE0F839
:109EF600A3E0F9A3E0FAA3E0FBC312344370109089
:109F0600090C123486000000009003C7E004F0221A
:10BC580090090CE0FCA3E0FDA3E0FEA3E02401FFB3
:10BC6800E43EFEE43DFDE43CFC90090C12347AE429
:10BC78007F02FEFDFC90090CE0F8A3E0F9A3E0FACE
:10BC8800A3E0FBC3123443702090090C12348600E1
:10BC9800000000B2B09003C7E004F0E49005ECF0B7
:0ABCA800900890F09008DE04F022EE
:10CC0E0090090CE0FCA3E0FDA3E0FEA3E02401FFED
:10CC1E00E43EFEE43DFDE43CFC90090C12347AE463
:10CC2E007F02FEFDFC90090CE0F8A3E0F9A3E0FA08
:10CC3E00A3E0FBC3123443700C90090C123486002F
:10CC4E00000000B2B0900883E030E3067480F0126A
:03CC5E0083CF225F
:10D0720090090CE0FCA3E0FDA3E0FEA3E02401FF85
:10D08200E43EFEE43DFDE43CFC90090C12347A904F
:10D09200090CA3A3A3E05401FFE4FEFDFCFBFAF993
:10D0A200F8C3123443701690090C12348600000043
:0ED0B200001259609003C7E054FC4402F022C3
:10C7B60090090CE0FCA3E0FDA3E0FEA3E02401FF4A
:10C7C600E43EFEE43DFDE43CFC90090C12347A9014
:10C7D600090CA3A3A3E05401FFE4FEFDFCFBFAF958
:10C7E600F8C3123443701F90090C123486000000FF
:10C7F60000B2B09003C7E054FC4401F090090C125B
:07C80600348600000000224F
:108811009005EDE0FCA3E0FDA3E0FEA3E0FF9009DD
:108821000CE0F8A3E0F9A3E0FAA3E0FBC3123443A0
:10883100703B900606E0FCA3E0FDA3E0FEA3E0FF91
:10884100EC4D4E4F601F900606A3A3A3E024FFFF4B
:10885100EE34FFFEED34FFFDEC34FFFC9006061212
:10886100347AB2B0229003C7E054FCF02290090C94
:10887100E0FCA3E0FDA3E0FEA3E02401FFE43EFE53
:10888100E43DFDE43CFC90090C12347A90090CA300
:10889100A3A3E05401FFE4FEFDFCFBFAF9F8C312C7
:1088A10034437002B2B090090CA3A3A3E0543FFF7C
:1088B100E4FEFDFCFBFAF9F8C31234437019900889
:1088C1002EE0D394055010900883E020E709125957
:0888D1006D90082EE004F02276
:10C80D0090090C123486000000009003C7E044101C
:10C81D00F0E49008DEF0C2B0900883F0900890F03C
:10C82D00900614F09003C8F09008F5F09005ECF028
:10C83D009003D8F0900817F09003D0F0A3F0900675
:10C84D00061234860000000012BD0C90087CE060DA
:07C85D0005E4F012E52222C0
:10D0C00090090CE0FCA3E0FDA3E0FEA3E02401FF37
:10D0D000E43EFEE43DFDE43CFC90090C12347A9001
:10D0E000090CA3A3A3E05401FFE4FEFDFCFBFAF945
:10D0F000F8C3123443701690090C123486000000F5
:0ED10000001259609003C7E054FC4402F02274
:10C8640090090CE0FCA3E0FDA3E0FEA3E02401FF9B
:10C87400E43EFEE43DFDE43CFC90090C12347A9065
:10C88400090CA3A3A3E05401FFE4FEFDFCFBFAF9A9
:10C89400F8C3123443701F90090C12348600000050
:10C8A40000B2B09003C7E054FC4401F090090C12AC
:07C8B40034860000000022A1
:1088D9009005EDE0FCA3E0FDA3E0FEA3E0FF900915
:1088E9000CE0F8A3E0F9A3E0FAA3E0FBC3123443D8
:1088F900703B900606E0FCA3E0FDA3E0FEA3E0FFC9
:10890900EC4D4E4F601F900606A3A3A3E024FFFF82
:10891900EE34FFFEED34FFFDEC34FFFC9006061249
:10892900347AB2B0229003C7E054FCF02290090CCB
:10893900E0FCA3E0FDA3E0FEA3E02401FFE43EFE8A
:10894900E43DFDE43CFC90090C12347A90090CA337
:10895900A3A3E05401FFE4FEFDFCFBFAF9F8C312FE
:1089690034437002B2B090090CA3A3A3E0543FFFB3
:10897900E4FEFDFCFBFAF9F8C312344370199008C0
:108989002EE0D394055010900883E020E70912598E
:088999006D90082EE004F022AD
:10D10E0090090C123486000000009003C7E0441012
:10D11E00F054F0F0E49008DEF0C2B0900883F09086
:10D12E000890F0900614F09003C8F09008F5F09077
:10D13E0005ECF09003D8F0900817F09003D0F0A310
:0ED14E00F09006061234860000000002BD0CB0
:10D15C0090090CE0FCA3E0FDA3E0FEA3E02401FF9A
:10D16C00E43EFEE43DFDE43CFC90090C12347A9064
:10D17C00090CA3A3A3E05401FFE4FEFDFCFBFAF9A8
:10D18C00F8C3123443701690090C12348600000058
:0ED19C00001259609003C7E054FC4402F022D8
:10D41A0090090CE0FCA3E0FDA3E0FEA3E02401FFD9
:10D42A00E43EFEE43DFDE43CFC90090C12347A90A3
:10D43A00090CA3A3A3E05401FFE4FEFDFCFBFAF9E7
:10D44A00F8C31234437015B2B09003C7E054FC44D9
:0DD45A0001F090090C123486000000002241
:1089A1009005EDE0FCA3E0FDA3E0FEA3E0FF90094C
:1089B1000CE0F8A3E0F9A3E0FAA3E0FBC31234430F
:1089C100703B900606E0FCA3E0FDA3E0FEA3E0FF00
:1089D100EC4D4E4F601F900606A3A3A3E024FFFFBA
:1089E100EE34FFFEED34FFFDEC34FFFC9006061281
:1089F100347AB2B0229003C7E054FCF02290090C03
:108A0100E0FCA3E0FDA3E0FEA3E02401FFE43EFEC1
:108A1100E43DFDE43CFC90090C12347A90090CA36E
:108A2100A3A3E05401FFE4FEFDFCFBFAF9F8C31235
:108A310034437002B2B090090CA3A3A3E0543FFFEA
:108A4100E4FEFDFCFBFAF9F8C312344370199008F7
:108A51002EE0D394055010900883E020E7091259C5
:088A61006D90082EE004F022E4
:10D6350090090C123486000000009003C7E04414E2
:10D64500F0E49008DEF0C2B0900883F0900890F006
:10D65500900614F09003C8F09008F5F09005ECF0F2
:10D665009003D8F0900817F09003D0F0A3F090063F
:0BD67500061234860000000002BD0C0D
:10B75F0090090CE0FCA3E0FDA3E0FEA3E02401FFB1
:10B76F00E43EFEE43DFDE43CFC90090C12347A907B
:10B77F00090CA3A3A3E05401FFE4FEFDFCFBFAF9BF
:10B78F00F8C3123443702390090C12348600000062
:10B79F0000B2B090082E7408F0E4900883F01259AC
:0BB7AF006D9003C7E054FC4402F02240
:10D4670090090CE0FCA3E0FDA3E0FEA3E02401FF8C
:10D47700E43EFEE43DFDE43CFC90090C12347A9056
:10D48700090CA3A3A3E05401FFE4FEFDFCFBFAF99A
:10D49700F8C31234437015B2B09003C7E054FC448C
:0DD4A70001F090090C1234860000000022F4
:108A69009005EDE0FCA3E0FDA3E0FEA3E0FF900983
:108A79000CE0F8A3E0F9A3E0FAA3E0FBC312344346
:108A8900703B900606E0FCA3E0FDA3E0FEA3E0FF37
:108A9900EC4D4E4F601F900606A3A3A3E024FFFFF1
:108AA900EE34FFFEED34FFFDEC34FFFC90060612B8
:108AB900347AB2B0229003C7E054FCF02290090C3A
:108AC900E0FCA3E0FDA3E0FEA3E02401FFE43EFEF9
:108AD900E43DFDE43CFC90090C12347A90090CA3A6
:108AE900A3A3E05401FFE4FEFDFCFBFAF9F8C3126D
:108AF90034437002B2B090090CA3A3A3E0543FFF22
:108B0900E4FEFDFCFBFAF9F8C3123443701990082E
:108B19002EE0D394055010900883E020E7091259FC
:088B29006D90082EE004F0221B
:10D6800090090C123486000000009003C7E044109B
:10D69000F0E49008DEF0C2B0900883F0900890F0BB
:10D6A000900614F09003C8F09008F5F09005ECF0A7
:10D6B0009003D8F0900817F09003D0F0A3F09006F4
:0BD6C000061234860000000002BD0CC2
:0BEA680090090C123486000000002210
:08EAA1009003C7E054FCF022D1
:08EAA9009003C7E054FCF022C9
:08EAB1009003C7E054FCF022C1
:10E77300E49008DEF09003C7E004F09004DE123466
:0BE78300860000000012E8E602EA3207
:109F16009004DEE0FCA3E0FDA3E0FEA3E02401FF45
:109F2600E43EFEE43DFDE43CFC9004DE12347A900F
:109F360004DEA3A3A3E05401FFE4FEFDFCFBFAF953
:109F4600F8C3123443700EB2B09005ECF09008904E
:109F5600F09008DEF0E47F06FEFDFC9004DEE0F8FB
:109F6600A3E0F9A3E0FAA3E0FBC312344370109018
:109F760004DE123486000000009003C7E004F022DD
:10BEC7009004DEE0FCA3E0FDA3E0FEA3E02401FF75
:10BED700E43EFEE43DFDE43CFC9004DE12347A903F
:10BEE70004DEA3A3A3E05401FFE4FEFDFCFBFAF983
:10BEF700F8C312344370209004DE12348600000029
:10BF070000B2B09003C7E004F0E49005ECF09008AD
:08BF170090F09008DE04F02216
:10CD05009004DEE0FCA3E0FDA3E0FEA3E02401FF28
:10CD1500E43EFEE43DFDE43CFC9004DE12347A90F2
:10CD250004DEA3A3A3E05401FFE4FEFDFCFBFAF936
:10CD3500F8C3123443700C9004DE123486000000F0
:10CD450000B2B0900883E030E3067480F01283CF20
:01CD550022BB
:10D1AA009004DEE0FCA3E0FDA3E0FEA3E02401FF7F
:10D1BA00E43EFEE43DFDE43CFC9004DE12347A9049
:10D1CA0004DEA3A3A3E05401FFE4FEFDFCFBFAF98D
:10D1DA00F8C312344370169004DE1234860000003D
:0ED1EA00001259609003C7E054FC4402F0228A
:10C8BB009004DEE0FCA3E0FDA3E0FEA3E02401FF77
:10C8CB00E43EFEE43DFDE43CFC9004DE12347A9041
:10C8DB0004DEA3A3A3E05401FFE4FEFDFCFBFAF985
:10C8EB00F8C3123443701F9004DE1234860000002C
:10C8FB0000B2B09004DE123486000000009003C733
:07C90B00E054FC4401F0229E
:108B31009005EDE0FCA3E0FDA3E0FEA3E0FF9004BF
:108B4100DEE0F8A3E0F9A3E0FAA3E0FBC3123443AB
:108B5100703B900606E0FCA3E0FDA3E0FEA3E0FF6E
:108B6100EC4D4E4F601F900606A3A3A3E024FFFF28
:108B7100EE34FFFEED34FFFDEC34FFFC90060612EF
:108B8100347AB2B0229003C7E054FCF0229004DEA4
:108B9100E0FCA3E0FDA3E0FEA3E02401FFE43EFE30
:108BA100E43DFDE43CFC9004DE12347A9004DEA343
:108BB100A3A3E05401FFE4FEFDFCFBFAF9F8C312A4
:108BC10034437002B2B09004DEA3A3A3E0543FFF8C
:108BD100E4FEFDFCFBFAF9F8C31234437019900866
:108BE1002EE0D394055010900883E020E709125934
:088BF1006D90082EE004F02253
:10D6CB009004DE123486000000009003C7E044048F
:10D6DB00F0E49008DEF0C2B0900883F0900890F070
:10D6EB00900614F09003C8F09008F5F09005ECF05C
:10D6FB009003D8F0900817F09003D0F0A3F09006A9
:0BD70B00061234860000000002BD0C76
:10200E009004DE1234860000000090090C12348613
:05201E0000000000229B
:08EAB9009003C7E054FCF022B9
:08EAC1009003C7E054FCF022B1
:08EAC9009003C7E054FCF022A9
:10DCB30012203E9005F2E0FCA3E0FDA3E0FEA3E00A
:10DCC300FF900610E0F8A3E0F9A3E0FAA3E0FBC39A
:10DCD30012344340169003C7E004F0900610123448
:0CDCE300860000000012E8E612EA32227F
:109F8600900610E0FCA3E0FDA3E0FEA3E02401FFA1
:109F9600E43EFEE43DFDE43CFC90061012347A906B
:109FA6000610A3A3A3E05401FFE4FEFDFCFBFAF9AF
:109FB600F8C3123443700EB2B09005ECF0900890DE
:109FC600F09008DEF0E47F30FEFDFC900610E0F82D
:109FD600A3E0F9A3E0FAA3E0FBC3123443701090A8
:109FE6000610123486000000009003C7E004F02239
:10BF1F00900610E0FCA3E0FDA3E0FEA3E02401FFE8
:10BF2F00E43EFEE43DFDE43CFC90061012347A90B2
:10BF3F000610A3A3A3E05401FFE4FEFDFCFBFAF9F6
:10BF4F00F8C312344370209006101234860000009C
:10BF5F0000B2B09003C7E004F0E49005ECF0900855
:08BF6F0090F09008DE04F022BE
:10CA6B00900610E0FCA3E0FDA3E0FEA3E02401FF91
:10CA7B00E43EFEE43DFDE43CFC90061012347A905B
:10CA8B000610A3A3A3E05401FFE4FEFDFCFBFAF99F
:10CA9B00F8C3123443700C90061012348600000059
:10CAAB0000B2B0900883E030E3097480F01283CFBA
:04CABB0012206222C1
:10DCEF0012203E9005F2E0FCA3E0FDA3E0FEA3E0CE
:10DCFF00FF900610E0F8A3E0F9A3E0FAA3E0FBC35E
:10DD0F0012344340169003C7E004F090061012340B
:0CDD1F00860000000012E8E612EA322242
:109FF600900610E0FCA3E0FDA3E0FEA3E02401FF31
:10A00600E43EFEE43DFDE43CFC90061012347A90FA
:10A016000610A3A3A3E05401FFE4FEFDFCFBFAF93E
:10A02600F8C3123443700EB2B09005ECF09008906D
:10A03600F09008DEF0E47F30FEFDFC900610E0F8BC
:10A04600A3E0F9A3E0FAA3E0FBC312344370109037
:10A056000610123486000000009003C7E004F022C8
:10BF7700900610E0FCA3E0FDA3E0FEA3E02401FF90
:10BF8700E43EFEE43DFDE43CFC90061012347A905A
:10BF97000610A3A3A3E05401FFE4FEFDFCFBFAF99E
:10BFA700F8C3123443702090061012348600000044
:10BFB70000B2B09003C7E004F0E49005ECF09008FD
:08BFC70090F09008DE04F02266
:10B7BA00900610E0FCA3E0FDA3E0FEA3E02401FF55
:10B7CA00E43EFEE43DFDE43CFC90061012347A901F
:10B7DA0003C7E054F3F0900610A3A3A3E05401FFBB
:10B7EA00E4FEFDFCFBFAF9F8C3123443700C900630
:10B7FA001012348600000000B2B0900883E030E3F3
:0BB80A00097480F01283CF122062222C
:10DD2B0012203E9005F2E0FCA3E0FDA3E0FEA3E091
:10DD3B00FF900610E0F8A3E0F9A3E0FAA3E0FBC321
:10DD4B0012344340169003C7E004F09006101234CF
:0CDD5B00860000000012E8E612EA322206
:10A06600900610E0FCA3E0FDA3E0FEA3E02401FFC0
:10A07600E43EFEE43DFDE43CFC90061012347A908A
:10A086000610A3A3A3E05401FFE4FEFDFCFBFAF9CE
:10A09600F8C3123443700EB2B09005ECF0900890FD
:10A0A600F09008DEF0E47F30FEFDFC900610E0F84C
:10A0B600A3E0F9A3E0FAA3E0FBC3123443701090C7
:10A0C6000610123486000000009003C7E004F02258
:10BFCF00900610E0FCA3E0FDA3E0FEA3E02401FF38
:10BFDF00E43EFEE43DFDE43CFC90061012347A9002
:10BFEF000610A3A3A3E05401FFE4FEFDFCFBFAF946
:10BFFF00F8C31234437020900610123486000000EC
:10C00F0000B2B09003C7E004F0E49005ECF09008A4
:08C01F0090F09008DE04F0220D
:10B81500900610E0FCA3E0FDA3E0FEA3E02401FFF9
:10B82500E43EFEE43DFDE43CFC90061012347A90C3
:10B8350003C7E04404F0900610A3A3A3E05401FF5E
:10B84500E4FEFDFCFBFAF9F8C3123443700C9006D4
:10B855001012348600000000B2B0900883E030E397
:0BB86500097480F01283CF12206222D1
:10DD670012203E9005F2E0FCA3E0FDA3E0FEA3E055
:10DD7700FF900610E0F8A3E0F9A3E0FAA3E0FBC3E5
:10DD870012344340169003C7E004F0900610123493
:0CDD9700860000000012E8E612EA3222CA
:10A0D600900610E0FCA3E0FDA3E0FEA3E02401FF50
:10A0E600E43EFEE43DFDE43CFC90061012347A901A
:10A0F6000610A3A3A3E05401FFE4FEFDFCFBFAF95E
:10A10600F8C3123443700EB2B09005ECF09008908C
:10A11600F09008DEF0E47F30FEFDFC900610E0F8DB
:10A12600A3E0F9A3E0FAA3E0FBC312344370109056
:10A136000610123486000000009003C7E004F022E7
:10C02700900610E0FCA3E0FDA3E0FEA3E02401FFDF
:10C03700E43EFEE43DFDE43CFC90061012347A90A9
:10C047000610A3A3A3E05401FFE4FEFDFCFBFAF9ED
:10C05700F8C3123443702090061012348600000093
:10C0670000B2B09003C7E004F0E49005ECF090084C
:08C0770090F09008DE04F022B5
:10CABF00900610E0FCA3E0FDA3E0FEA3E02401FF3D
:10CACF00E43EFEE43DFDE43CFC90061012347A9007
:10CADF000610A3A3A3E05401FFE4FEFDFCFBFAF94B
:10CAEF00F8C3123443700C90061012348600000005
:10CAFF0000B2B0900883E030E3097480F01283CF66
:04CB0F00122062226C
:10DDA30012203E9005F2E0FCA3E0FDA3E0FEA3E019
:10DDB300FF900610E0F8A3E0F9A3E0FAA3E0FBC3A9
:10DDC30012344340169003C7E004F0900610123457
:0CDDD300860000000012E8E612EA32228E
:10A14600900610E0FCA3E0FDA3E0FEA3E02401FFDF
:10A15600E43EFEE43DFDE43CFC90061012347A90A9
:10A166000610A3A3A3E05401FFE4FEFDFCFBFAF9ED
:10A17600F8C3123443700EB2B09005ECF09008901C
:10A18600F09008DEF0E47F30FEFDFC900610E0F86B
:10A19600A3E0F9A3E0FAA3E0FBC3123443701090E6
:10A1A6000610123486000000009003C7E004F02277
:10C07F00900610E0FCA3E0FDA3E0FEA3E02401FF87
:10C08F00E43EFEE43DFDE43CFC90061012347A9051
:10C09F000610A3A3A3E05401FFE4FEFDFCFBFAF995
:10C0AF00F8C312344370209006101234860000003B
:10C0BF0000B2B09003C7E004F0E49005ECF09008F4
:08C0CF0090F09008DE04F0225D
:10B87000900610E0FCA3E0FDA3E0FEA3E02401FF9E
:10B88000E43EFEE43DFDE43CFC90061012347A9068
:10B8900003C7E054CFF0900610A3A3A3E05401FF28
:10B8A000E4FEFDFCFBFAF9F8C3123443700C900679
:10B8B0001012348600000000B2B0900883E030E33C
:0BB8C000097480F01283CF1220622276
:10DDDF0012203E9005F2E0FCA3E0FDA3E0FEA3E0DD
:10DDEF00FF900610E0F8A3E0F9A3E0FAA3E0FBC36D
:10DDFF0012344340169003C7E004F090061012341B
:0CDE0F00860000000012E8E612EA322251
:10A1B600900610E0FCA3E0FDA3E0FEA3E02401FF6F
:10A1C600E43EFEE43DFDE43CFC90061012347A9039
:10A1D6000610A3A3A3E05401FFE4FEFDFCFBFAF97D
:10A1E600F8C3123443700EB2B09005ECF0900890AC
:10A1F600F09008DEF0E47F30FEFDFC900610E0F8FB
:10A20600A3E0F9A3E0FAA3E0FBC312344370109075
:10A216000610123486000000009003C7E004F02206
:10C0D700900610E0FCA3E0FDA3E0FEA3E02401FF2F
:10C0E700E43EFEE43DFDE43CFC90061012347A90F9
:10C0F7000610A3A3A3E05401FFE4FEFDFCFBFAF93D
:10C10700F8C31234437020900610123486000000E2
:10C1170000B2B09003C7E004F0E49005ECF090089B
:08C1270090F09008DE04F02204
:10B8CB00900610E0FCA3E0FDA3E0FEA3E02401FF43
:10B8DB00E43EFEE43DFDE43CFC90061012347A900D
:10B8EB0003C7E054C3F0900610A3A3A3E05401FFD9
:10B8FB00E4FEFDFCFBFAF9F8C3123443700C90061E
:10B90B001012348600000000B2B0900883E030E3E0
:0BB91B00097480F01283CF122062221A
:10DE1B0012203E9005F2E0FCA3E0FDA3E0FEA3E0A0
:10DE2B00FF900610E0F8A3E0F9A3E0FAA3E0FBC330
:10DE3B0012344340169003C7E004F09006101234DE
:0CDE4B00860000000012E8E612EA322215
:10A22600900610E0FCA3E0FDA3E0FEA3E02401FFFE
:10A23600E43EFEE43DFDE43CFC90061012347A90C8
:10A246000610A3A3A3E05401FFE4FEFDFCFBFAF90C
:10A25600F8C3123443700EB2B09005ECF09008903B
:10A26600F09008DEF0E47F30FEFDFC900610E0F88A
:10A27600A3E0F9A3E0FAA3E0FBC312344370109005
:10A286000610123486000000009003C7E004F02296
:10C12F00900610E0FCA3E0FDA3E0FEA3E02401FFD6
:10C13F00E43EFEE43DFDE43CFC90061012347A90A0
:10C14F000610A3A3A3E05401FFE4FEFDFCFBFAF9E4
:10C15F00F8C312344370209006101234860000008A
:10C16F0000B2B09003C7E004F0E49005ECF0900843
:08C17F0090F09008DE04F022AC
:10AAB500900610E0FCA3E0FDA3E0FEA3E02401FF67
:10AAC500E43EFEE43DFDE43CFC90061012347A9031
:10AAD50003C7E04404F054CFF0900610A3A3A3E00D
:10AAE5005401FFE4FEFDFCFBFAF9F8C31234437090
:10AAF5000C90061012348600000000B2B090088356
:0EAB0500E030E3097480F01283CF1220622248
:10DE570012203E9005F2E0FCA3E0FDA3E0FEA3E064
:10DE6700FF900610E0F8A3E0F9A3E0FAA3E0FBC3F4
:10DE770012344340169003C7E004F09006101234A2
:0CDE8700860000000012E8E612EA3222D9
:10A29600900610E0FCA3E0FDA3E0FEA3E02401FF8E
:10A2A600E43EFEE43DFDE43CFC90061012347A9058
:10A2B6000610A3A3A3E05401FFE4FEFDFCFBFAF99C
:10A2C600F8C3123443700EB2B09005ECF0900890CB
:10A2D600F09008DEF0E47F30FEFDFC900610E0F81A
:10A2E600A3E0F9A3E0FAA3E0FBC312344370109095
:10A2F6000610123486000000009003C7E004F02226
:10C18700900610E0FCA3E0FDA3E0FEA3E02401FF7E
:10C19700E43EFEE43DFDE43CFC90061012347A9048
:10C1A7000610A3A3A3E05401FFE4FEFDFCFBFAF98C
:10C1B700F8C3123443702090061012348600000032
:10C1C70000B2B09003C7E004F0E49005ECF09008EB
:08C1D70090F09008DE04F02254
:10B92600900610E0FCA3E0FDA3E0FEA3E02401FFE7
:10B93600E43EFEE43DFDE43CFC90061012347A90B1
:10B9460003C7E054CFF0900610A3A3A3E05401FF71
:10B95600E4FEFDFCFBFAF9F8C3123443700C9006C2
:10B966001012348600000000B2B0900883E030E385
:0BB97600097480F01283CF12206222BF
:10DE930012203E9005F2E0FCA3E0FDA3E0FEA3E028
:10DEA300FF900610E0F8A3E0F9A3E0FAA3E0FBC3B8
:10DEB30012344340169003C7E004F0900610123466
:0CDEC300860000000012E8E612EA32229D
:10A30600900610E0FCA3E0FDA3E0FEA3E02401FF1D
:10A31600E43EFEE43DFDE43CFC90061012347A90E7
:10A326000610A3A3A3E05401FFE4FEFDFCFBFAF92B
:10A33600F8C3123443700EB2B09005ECF09008905A
:10A34600F09008DEF0E47F30FEFDFC900610E0F8A9
:10A35600A3E0F9A3E0FAA3E0FBC312344370109024
:10A366000610123486000000009003C7E004F022B5
:10C1DF00900610E0FCA3E0FDA3E0FEA3E02401FF26
:10C1EF00E43EFEE43DFDE43CFC90061012347A90F0
:10C1FF000610A3A3A3E05401FFE4FEFDFCFBFAF934
:10C20F00F8C31234437020900610123486000000D9
:10C21F0000B2B09003C7E004F0E49005ECF0900892
:08C22F0090F09008DE04F022FB
:10B98100900610E0FCA3E0FDA3E0FEA3E02401FF8C
:10B99100E43EFEE43DFDE43CFC90061012347A9056
:10B9A10003C7E04410F0900610A3A3A3E05401FFE5
:10B9B100E4FEFDFCFBFAF9F8C3123443700C900667
:10B9C1001012348600000000B2B0900883E030E32A
:0BB9D100097480F01283CF1220622264
:10DECF0012203E9005F2E0FCA3E0FDA3E0FEA3E0EC
:10DEDF00FF900610E0F8A3E0F9A3E0FAA3E0FBC37C
:10DEEF0012344340169003C7E004F090061012342A
:0CDEFF00860000000012E8E612EA322261
:10A37600900610E0FCA3E0FDA3E0FEA3E02401FFAD
:10A38600E43EFEE43DFDE43CFC90061012347A9077
:10A396000610A3A3A3E05401FFE4FEFDFCFBFAF9BB
:10A3A600F8C3123443700EB2B09005ECF0900890EA
:10A3B600F09008DEF0E47F30FEFDFC900610E0F839
:10A3C600A3E0F9A3E0FAA3E0FBC3123443701090B4
:10A3D6000610123486000000009003C7E004F02245
:10C23700900610E0FCA3E0FDA3E0FEA3E02401FFCD
:10C24700E43EFEE43DFDE43CFC90061012347A9097
:10C257000610A3A3A3E05401FFE4FEFDFCFBFAF9DB
:10C26700F8C3123443702090061012348600000081
:10C2770000B2B09003C7E004F0E49005ECF090083A
:08C2870090F09008DE04F022A3
:10AB1300900610E0FCA3E0FDA3E0FEA3E02401FF08
:10AB2300E43EFEE43DFDE43CFC90061012347A90D2
:10AB330003C7E04410F054F3F0900610A3A3A3E07E
:10AB43005401FFE4FEFDFCFBFAF9F8C31234437031
:10AB53000C90061012348600000000B2B0900883F7
:0EAB6300E030E3097480F01283CF12206222EA
:10DF0B0012203E9005F2E0FCA3E0FDA3E0FEA3E0AF
:10DF1B00FF900610E0F8A3E0F9A3E0FAA3E0FBC33F
:10DF2B0012344340169003C7E004F09006101234ED
:0CDF3B00860000000012E8E612EA322224
:10A3E600900610E0FCA3E0FDA3E0FEA3E02401FF3D
:10A3F600E43EFEE43DFDE43CFC90061012347A9007
:10A406000610A3A3A3E05401FFE4FEFDFCFBFAF94A
:10A41600F8C3123443700EB2B09005ECF090089079
:10A42600F09008DEF0E47F30FEFDFC900610E0F8C8
:10A43600A3E0F9A3E0FAA3E0FBC312344370109043
:10A446000610123486000000009003C7E004F022D4
:10C28F00900610E0FCA3E0FDA3E0FEA3E02401FF75
:10C29F00E43EFEE43DFDE43CFC90061012347A903F
:10C2AF000610A3A3A3E05401FFE4FEFDFCFBFAF983
:10C2BF00F8C3123443702090061012348600000029
:10C2CF0000B2B09003C7E004F0E49005ECF09008E2
:08C2DF0090F09008DE04F0224B
:10B9DC00900610E0FCA3E0FDA3E0FEA3E02401FF31
:10B9EC00E43EFEE43DFDE43CFC90061012347A90FB
:10B9FC0003C7E04414F0900610A3A3A3E05401FF86
:10BA0C00E4FEFDFCFBFAF9F8C3123443700C90060B
:10BA1C001012348600000000B2B0900883E030E3CE
:0BBA2C00097480F01283CF1220622208
:10DF470012203E9005F2E0FCA3E0FDA3E0FEA3E073
:10DF5700FF900610E0F8A3E0F9A3E0FAA3E0FBC303
:10DF670012344340169003C7E004F09006101234B1
:0CDF7700860000000012E8E612EA3222E8
:10A45600900610E0FCA3E0FDA3E0FEA3E02401FFCC
:10A46600E43EFEE43DFDE43CFC90061012347A9096
:10A476000610A3A3A3E05401FFE4FEFDFCFBFAF9DA
:10A48600F8C3123443700EB2B09005ECF090089009
:10A49600F09008DEF0E47F30FEFDFC900610E0F858
:10A4A600A3E0F9A3E0FAA3E0FBC3123443701090D3
:10A4B6000610123486000000009003C7E004F02264
:10C2E700900610E0FCA3E0FDA3E0FEA3E02401FF1D
:10C2F700E43EFEE43DFDE43CFC90061012347A90E7
:10C307000610A3A3A3E05401FFE4FEFDFCFBFAF92A
:10C31700F8C31234437020900610123486000000D0
:10C3270000B2B09003C7E004F0E49005ECF0900889
:08C3370090F09008DE04F022F2
:10BA3700900610E0FCA3E0FDA3E0FEA3E02401FFD5
:10BA4700E43EFEE43DFDE43CFC90061012347A909F
:10BA570003C7E04410F0900610A3A3A3E05401FF2E
:10BA6700E4FEFDFCFBFAF9F8C3123443700C9006B0
:10BA77001012348600000000B2B0900883E030E373
:0BBA8700097480F01283CF12206222AD
:10DF830012203E9005F2E0FCA3E0FDA3E0FEA3E037
:10DF9300FF900610E0F8A3E0F9A3E0FAA3E0FBC3C7
:10DFA30012344340169003C7E004F0900610123475
:0CDFB300860000000012E8E612EA3222AC
:10A4C600900610E0FCA3E0FDA3E0FEA3E02401FF5C
:10A4D600E43EFEE43DFDE43CFC90061012347A9026
:10A4E6000610A3A3A3E05401FFE4FEFDFCFBFAF96A
:10A4F600F8C3123443700EB2B09005ECF090089099
:10A50600F09008DEF0E47F30FEFDFC900610E0F8E7
:10A51600A3E0F9A3E0FAA3E0FBC312344370109062
:10A526000610123486000000009003C7E004F022F3
:10C33F00900610E0FCA3E0FDA3E0FEA3E02401FFC4
:10C34F00E43EFEE43DFDE43CFC90061012347A908E
:10C35F000610A3A3A3E05401FFE4FEFDFCFBFAF9D2
:10C36F00F8C3123443702090061012348600000078
:10C37F0000B2B09003C7E004F0E49005ECF0900831
:08C38F0090F09008DE04F0229A
:10CB1300900610E0FCA3E0FDA3E0FEA3E02401FFE8
:10CB2300E43EFEE43DFDE43CFC90061012347A90B2
:10CB33000610A3A3A3E05401FFE4FEFDFCFBFAF9F6
:10CB4300F8C3123443700C900610123486000000B0
:10CB530000B2B0900883E030E3097480F01283CF11
:04CB63001220622218
:10DFBF0012203E9005F2E0FCA3E0FDA3E0FEA3E0FB
:10DFCF00FF900610E0F8A3E0F9A3E0FAA3E0FBC38B
:10DFDF0012344340169003C7E004F0900610123439
:0CDFEF00860000000012E8E612EA322270
:10A53600900610E0FCA3E0FDA3E0FEA3E02401FFEB
:10A54600E43EFEE43DFDE43CFC90061012347A90B5
:10A556000610A3A3A3E05401FFE4FEFDFCFBFAF9F9
:10A56600F8C3123443700EB2B09005ECF090089028
:10A57600F09008DEF0E47F30FEFDFC900610E0F877
:10A58600A3E0F9A3E0FAA3E0FBC3123443701090F2
:10A596000610123486000000009003C7E004F02283
:10C39700900610E0FCA3E0FDA3E0FEA3E02401FF6C
:10C3A700E43EFEE43DFDE43CFC90061012347A9036
:10C3B7000610A3A3A3E05401FFE4FEFDFCFBFAF97A
:10C3C700F8C3123443702090061012348600000020
:10C3D70000B2B09003C7E004F0E49005ECF09008D9
:08C3E70090F09008DE04F02242
:10BA9200900610E0FCA3E0FDA3E0FEA3E02401FF7A
:10BAA200E43EFEE43DFDE43CFC90061012347A9044
:10BAB20003C7E054F3F0900610A3A3A3E05401FFE0
:10BAC200E4FEFDFCFBFAF9F8C3123443700C900655
:10BAD2001012348600000000B2B0900883E030E318
:0BBAE200097480F01283CF1220622252
:10E2000012203E9005F2E0FCA3E0FDA3E0FEA3E0B7
:10E21000FF900610E0F8A3E0F9A3E0FAA3E0FBC347
:10E2200012344340169003C7E004F09006101234F5
:0CE23000860000000012E8E612EA32222C
:10A5A600900610E0FCA3E0FDA3E0FEA3E02401FF7B
:10A5B600E43EFEE43DFDE43CFC90061012347A9045
:10A5C6000610A3A3A3E05401FFE4FEFDFCFBFAF989
:10A5D600F8C3123443700EB2B09005ECF0900890B8
:10A5E600F09008DEF0E47F30FEFDFC900610E0F807
:10A5F600A3E0F9A3E0FAA3E0FBC312344370109082
:10A606000610123486000000009003C7E004F02212
:10C3EF00900610E0FCA3E0FDA3E0FEA3E02401FF14
:10C3FF00E43EFEE43DFDE43CFC90061012347A90DE
:10C40F000610A3A3A3E05401FFE4FEFDFCFBFAF921
:10C41F00F8C31234437020900610123486000000C7
:10C42F0000B2B09003C7E004F0E49005ECF0900880
:08C43F0090F09008DE04F022E9
:10BAED00900610E0FCA3E0FDA3E0FEA3E02401FF1F
:10BAFD00E43EFEE43DFDE43CFC90061012347A90E9
:10BB0D0003C7E04404F0900610A3A3A3E05401FF83
:10BB1D00E4FEFDFCFBFAF9F8C3123443700C9006F9
:10BB2D001012348600000000B2B0900883E030E3BC
:0BBB3D00097480F01283CF12206222F6
:10E23C0012203E9005F2E0FCA3E0FDA3E0FEA3E07B
:10E24C00FF900610E0F8A3E0F9A3E0FAA3E0FBC30B
:10E25C0012344340169003C7E004F09006101234B9
:0CE26C00860000000012E8E612EA3222F0
:10A61600900610E0FCA3E0FDA3E0FEA3E02401FF0A
:10A62600E43EFEE43DFDE43CFC90061012347A90D4
:10A636000610A3A3A3E05401FFE4FEFDFCFBFAF918
:10A64600F8C3123443700EB2B09005ECF090089047
:10A65600F09008DEF0E47F30FEFDFC900610E0F896
:10A66600A3E0F9A3E0FAA3E0FBC312344370109011
:10A676000610123486000000009003C7E004F022A2
:10C44700900610E0FCA3E0FDA3E0FEA3E02401FFBB
:10C45700E43EFEE43DFDE43CFC90061012347A9085
:10C467000610A3A3A3E05401FFE4FEFDFCFBFAF9C9
:10C47700F8C312344370209006101234860000006F
:10C4870000B2B09003C7E004F0E49005ECF0900828
:08C4970090F09008DE04F02291
:10CB6700900610E0FCA3E0FDA3E0FEA3E02401FF94
:10CB7700E43EFEE43DFDE43CFC90061012347A905E
:10CB87000610A3A3A3E05401FFE4FEFDFCFBFAF9A2
:10CB9700F8C3123443700C9006101234860000005C
:10CBA70000B2B0900883E030E3097480F01283CFBD
:04CBB70012206222C4
:10ABCF00900610E0FCA3E0FDA3E0FEA3E02401FF4C
:10ABDF00E43EFEE43DFDE43CFC90061012347A9016
:10ABEF000610A3A3A3E05401FFE4FEFDFCFBFAF95A
:10ABFF00F8C31234437025900610123486000000FB
:10AC0F0000900905E030E705122062800312E6325A
:0DAC1F001259609003C7E054FC4402F0227B
:10B19F00900610E0FCA3E0FDA3E0FEA3E02401FF76
:10B1AF00E43EFEE43DFDE43CFC90061012347A9040
:10B1BF000610A3A3A3E05401FFE4FEFDFCFBFAF984
:10B1CF00F8C3123443702490061012348600000026
:10B1DF0000900905E030E705122062800312E63285
:0CB1EF00B2B09003C7E054FC4401F02211
:1073BC009005EDE0FCA3E0FDA3E0FEA3E0FF90064A
:1073CC0010E0F8A3E0F9A3E0FAA3E0FBC312344306
:1073DC007065900606E0FCA3E0FDA3E0FEA3E0FFD1
:1073EC00EC4D4E4F6049900606A3A3A3E024FFFF8B
:1073FC00EE34FFFEED34FFFDEC34FFFC900606127C
:10740C00347A900606A3A3A3E05401FFE4FEFDFC2E
:10741C00FBFAF9F8C312344360030274BC900905FB
:10742C00E030E705122062800312E632B2B02290FF
:10743C0003C7E054FCF022900610E0FCA3E0FDA38F
:10744C00E0FEA3E02401FFE43EFEE43DFDE43CFC51
:10745C0090061012347A900610A3A3A3E05401FFF7
:10746C00E4FEFDFCFBFAF9F8C312344370119009E9
:10747C0005E030E705122062800312E632B2B090CC
:10748C000610A3A3A3E0543FFFE4FEFDFCFBFAF9B6
:10749C00F8C3123443701990082EE0D394055010A1
:1074AC00900883E020E70912596D90082EE004F053
:0174BC0022AD
:10D4B4009006101234860000000012E624E490085E
:10D4C40083F0900890F0900614F09003C8F0900850
:10D4D400F5F09005ECF09003D8F0900817F0900365
:10D4E400D0F0A3F09006061234860000000012BDAE
:0DD4F4000C90087CE06005E4F012E52222B7
:10AC2C00900610E0FCA3E0FDA3E0FEA3E02401FFEE
:10AC3C00E43EFEE43DFDE43CFC90061012347A90B8
:10AC4C000610A3A3A3E05401FFE4FEFDFCFBFAF9FC
:10AC5C00F8C312344370259006101234860000009D
:10AC6C0000900905E030E705122062800312E632FD
:0DAC7C001259609003C7E054FC4402F0221E
:10B1FB00900610E0FCA3E0FDA3E0FEA3E02401FF1A
:10B20B00E43EFEE43DFDE43CFC90061012347A90E3
:10B21B000610A3A3A3E05401FFE4FEFDFCFBFAF927
:10B22B00F8C31234437024900610123486000000C9
:10B23B0000900905E030E705122062800312E63228
:0CB24B00B2B09003C7E054FC4401F022B4
:1074BD009005EDE0FCA3E0FDA3E0FEA3E0FF900648
:1074CD0010E0F8A3E0F9A3E0FAA3E0FBC312344304
:1074DD007065900606E0FCA3E0FDA3E0FEA3E0FFCF
:1074ED00EC4D4E4F6049900606A3A3A3E024FFFF89
:1074FD00EE34FFFEED34FFFDEC34FFFC900606127A
:10750D00347A900606A3A3A3E05401FFE4FEFDFC2C
:10751D00FBFAF9F8C312344360030275BD900905F7
:10752D00E030E705122062800312E632B2B02290FD
:10753D0003C7E054FCF022900610E0FCA3E0FDA38D
:10754D00E0FEA3E02401FFE43EFEE43DFDE43CFC4F
:10755D0090061012347A900610A3A3A3E05401FFF5
:10756D00E4FEFDFCFBFAF9F8C312344370119009E7
:10757D0005E030E705122062800312E632B2B090CA
:10758D000610A3A3A3E0543FFFE4FEFDFCFBFAF9B4
:10759D00F8C3123443701990082EE0D3940550109F
:1075AD00900883E020E70912596D90082EE004F051
:0175BD0022AB
:10D88D00900610123486000000009003C7E044405B
:10D89D00F054F012E62AE4900883F0900890F0908E
:10D8AD000614F09003C8F09008F5F09005ECF09098
:10D8BD0003D8F0900817F09003D0F0A3F09006066F
:0AD8CD001234860000000002BD0CBA
:10AC8900900610E0FCA3E0FDA3E0FEA3E02401FF91
:10AC9900E43EFEE43DFDE43CFC90061012347A905B
:10ACA9000610A3A3A3E05401FFE4FEFDFCFBFAF99F
:10ACB900F8C3123443702590061012348600000040
:10ACC90000900905E030E705122062800312E632A0
:0DACD9001259609003C7E054FC4402F022C1
:10B25700900610E0FCA3E0FDA3E0FEA3E02401FFBD
:10B26700E43EFEE43DFDE43CFC90061012347A9087
:10B277000610A3A3A3E05401FFE4FEFDFCFBFAF9CB
:10B28700F8C312344370249006101234860000006D
:10B2970000900905E030E705122062800312E632CC
:0CB2A700B2B09003C7E054FC4401F02258
:1075BE009005EDE0FCA3E0FDA3E0FEA3E0FF900646
:1075CE0010E0F8A3E0F9A3E0FAA3E0FBC312344302
:1075DE007065900606E0FCA3E0FDA3E0FEA3E0FFCD
:1075EE00EC4D4E4F6049900606A3A3A3E024FFFF87
:1075FE00EE34FFFEED34FFFDEC34FFFC9006061278
:10760E00347A900606A3A3A3E05401FFE4FEFDFC2A
:10761E00FBFAF9F8C312344360030276BE900905F3
:10762E00E030E705122062800312E632B2B02290FB
:10763E0003C7E054FCF022900610E0FCA3E0FDA38B
:10764E00E0FEA3E02401FFE43EFEE43DFDE43CFC4D
:10765E0090061012347A900610A3A3A3E05401FFF3
:10766E00E4FEFDFCFBFAF9F8C312344370119009E5
:10767E0005E030E705122062800312E632B2B090C8
:10768E000610A3A3A3E0543FFFE4FEFDFCFBFAF9B2
:10769E00F8C3123443701990082EE0D3940550109D
:1076AE00900883E020E70912596D90082EE004F04F
:0176BE0022A9
:10DA8F00900610123486000000009003C7E0444453
:10DA9F0012E62AE4900883F0900890F0900614F0B4
:10DAAF009003C8F09008F5F09005ECF09003D8F0D3
:10DABF00900817F09003D0F0A3F09006061234866A
:07DACF000000000002BD0C85
:10ACE600900610E0FCA3E0FDA3E0FEA3E02401FF34
:10ACF600E43EFEE43DFDE43CFC90061012347A90FE
:10AD06000610A3A3A3E05401FFE4FEFDFCFBFAF941
:10AD1600F8C31234437025900610123486000000E2
:10AD260000900905E030E705122062800312E63242
:0DAD36001259609003C7E054FC4402F02263
:10B2B300900610E0FCA3E0FDA3E0FEA3E02401FF61
:10B2C300E43EFEE43DFDE43CFC90061012347A902B
:10B2D3000610A3A3A3E05401FFE4FEFDFCFBFAF96F
:10B2E300F8C3123443702490061012348600000011
:10B2F30000900905E030E705122062800312E63270
:0CB30300B2B09003C7E054FC4401F022FB
:1076BF009005EDE0FCA3E0FDA3E0FEA3E0FF900644
:1076CF0010E0F8A3E0F9A3E0FAA3E0FBC312344300
:1076DF007065900606E0FCA3E0FDA3E0FEA3E0FFCB
:1076EF00EC4D4E4F6049900606A3A3A3E024FFFF85
:1076FF00EE34FFFEED34FFFDEC34FFFC9006061276
:10770F00347A900606A3A3A3E05401FFE4FEFDFC28
:10771F00FBFAF9F8C312344360030277BF900905EF
:10772F00E030E705122062800312E632B2B02290F9
:10773F0003C7E054FCF022900610E0FCA3E0FDA389
:10774F00E0FEA3E02401FFE43EFEE43DFDE43CFC4B
:10775F0090061012347A900610A3A3A3E05401FFF1
:10776F00E4FEFDFCFBFAF9F8C312344370119009E3
:10777F0005E030E705122062800312E632B2B090C6
:10778F000610A3A3A3E0543FFFE4FEFDFCFBFAF9B0
:10779F00F8C3123443701990082EE0D3940550109B
:1077AF00900883E020E70912596D90082EE004F04D
:0177BF0022A7
:10DBF0009006101234860000000012E624E490081B
:10DC000083F0900890F0900614F09003C8F090080C
:10DC1000F5F09005ECF09003D8F0900817F0900321
:10DC2000D0F0A3F09006061234860000000002BD7A
:01DC30000CE7
:10AD4300900610E0FCA3E0FDA3E0FEA3E02401FFD6
:10AD5300E43EFEE43DFDE43CFC90061012347A90A0
:10AD63000610A3A3A3E05401FFE4FEFDFCFBFAF9E4
:10AD7300F8C3123443702590061012348600000085
:10AD830000900905E030E705122062800312E632E5
:0DAD93001259609003C7E054FC4402F02206
:10B30F00900610E0FCA3E0FDA3E0FEA3E02401FF04
:10B31F00E43EFEE43DFDE43CFC90061012347A90CE
:10B32F000610A3A3A3E05401FFE4FEFDFCFBFAF912
:10B33F00F8C31234437024900610123486000000B4
:10B34F0000900905E030E705122062800312E63213
:0CB35F00B2B09003C7E054FC4401F0229F
:1077C0009005EDE0FCA3E0FDA3E0FEA3E0FF900642
:1077D00010E0F8A3E0F9A3E0FAA3E0FBC3123443FE
:1077E0007065900606E0FCA3E0FDA3E0FEA3E0FFC9
:1077F000EC4D4E4F6049900606A3A3A3E024FFFF83
:10780000EE34FFFEED34FFFDEC34FFFC9006061273
:10781000347A900606A3A3A3E05401FFE4FEFDFC26
:10782000FBFAF9F8C312344360030278C0900905EB
:10783000E030E705122062800312E632B2B02290F7
:1078400003C7E054FCF022900610E0FCA3E0FDA387
:10785000E0FEA3E02401FFE43EFEE43DFDE43CFC49
:1078600090061012347A900610A3A3A3E05401FFEF
:10787000E4FEFDFCFBFAF9F8C312344370119009E1
:1078800005E030E705122062800312E632B2B090C4
:107890000610A3A3A3E0543FFFE4FEFDFCFBFAF9AE
:1078A000F8C3123443701990082EE0D39405501099
:1078B000900883E020E70912596D90082EE004F04B
:0178C00022A5
:10D8D700900610123486000000009003C7E0444011
:10D8E700F054C012E62AE4900883F0900890F09074
:10D8F7000614F09003C8F09008F5F09005ECF0904E
:10D9070003D8F0900817F09003D0F0A3F090060624
:0AD917001234860000000002BD0C6F
:10ADA000900610E0FCA3E0FDA3E0FEA3E02401FF79
:10ADB000E43EFEE43DFDE43CFC90061012347A9043
:10ADC0000610A3A3A3E05401FFE4FEFDFCFBFAF987
:10ADD000F8C3123443702590061012348600000028
:10ADE00000900905E030E705122062800312E63288
:0DADF0001259609003C7E054FC4402F022A9
:10B36B00900610E0FCA3E0FDA3E0FEA3E02401FFA8
:10B37B00E43EFEE43DFDE43CFC90061012347A9072
:10B38B000610A3A3A3E05401FFE4FEFDFCFBFAF9B6
:10B39B00F8C3123443702490061012348600000058
:10B3AB0000900905E030E705122062800312E632B7
:0CB3BB00B2B09003C7E054FC4401F02243
:1078C1009005EDE0FCA3E0FDA3E0FEA3E0FF900640
:1078D10010E0F8A3E0F9A3E0FAA3E0FBC3123443FC
:1078E1007065900606E0FCA3E0FDA3E0FEA3E0FFC7
:1078F100EC4D4E4F6049900606A3A3A3E024FFFF81
:10790100EE34FFFEED34FFFDEC34FFFC9006061271
:10791100347A900606A3A3A3E05401FFE4FEFDFC24
:10792100FBFAF9F8C312344360030279C1900905E7
:10793100E030E705122062800312E632B2B02290F5
:1079410003C7E054FCF022900610E0FCA3E0FDA385
:10795100E0FEA3E02401FFE43EFEE43DFDE43CFC47
:1079610090061012347A900610A3A3A3E05401FFED
:10797100E4FEFDFCFBFAF9F8C312344370119009DF
:1079810005E030E705122062800312E632B2B090C2
:107991000610A3A3A3E0543FFFE4FEFDFCFBFAF9AC
:1079A100F8C3123443701990082EE0D39405501097
:1079B100900883E020E70912596D90082EE004F049
:0179C10022A3
:10D92100900610123486000000009003C7E04440C6
:10D93100F054C012E62AE4900883F0900890F09029
:10D941000614F09003C8F09008F5F09005ECF09003
:10D9510003D8F0900817F09003D0F0A3F0900606DA
:0AD961001234860000000002BD0C25
:10ADFD00900610E0FCA3E0FDA3E0FEA3E02401FF1C
:10AE0D00E43EFEE43DFDE43CFC90061012347A90E5
:10AE1D000610A3A3A3E05401FFE4FEFDFCFBFAF929
:10AE2D00F8C31234437025900610123486000000CA
:10AE3D0000900905E030E705122062800312E6322A
:0DAE4D001259609003C7E054FC4402F0224B
:10B3C700900610E0FCA3E0FDA3E0FEA3E02401FF4C
:10B3D700E43EFEE43DFDE43CFC90061012347A9016
:10B3E7000610A3A3A3E05401FFE4FEFDFCFBFAF95A
:10B3F700F8C31234437024900610123486000000FC
:10B4070000900905E030E705122062800312E6325A
:0CB41700B2B09003C7E054FC4401F022E6
:1079C2009005EDE0FCA3E0FDA3E0FEA3E0FF90063E
:1079D20010E0F8A3E0F9A3E0FAA3E0FBC3123443FA
:1079E2007065900606E0FCA3E0FDA3E0FEA3E0FFC5
:1079F200EC4D4E4F6049900606A3A3A3E024FFFF7F
:107A0200EE34FFFEED34FFFDEC34FFFC900606126F
:107A1200347A900606A3A3A3E05401FFE4FEFDFC22
:107A2200FBFAF9F8C31234436003027AC2900905E3
:107A3200E030E705122062800312E632B2B02290F3
:107A420003C7E054FCF022900610E0FCA3E0FDA383
:107A5200E0FEA3E02401FFE43EFEE43DFDE43CFC45
:107A620090061012347A900610A3A3A3E05401FFEB
:107A7200E4FEFDFCFBFAF9F8C312344370119009DD
:107A820005E030E705122062800312E632B2B090C0
:107A92000610A3A3A3E0543FFFE4FEFDFCFBFAF9AA
:107AA200F8C3123443701990082EE0D39405501095
:107AB200900883E020E70912596D90082EE004F047
:017AC20022A1
:10AB7100900610123486000000009003C7E04444A0
:10AB8100F054CCF0E49008DEF0C2B0900905E0305A
:10AB9100E705122062800312E632E4900883F09008
:10ABA1000890F0900614F09003C8F09008F5F0902A
:10ABB10005ECF09003D8F0900817F09003D0F0A3C3
:0EABC100F09006061234860000000002BD0C63
:10AE5A00900610E0FCA3E0FDA3E0FEA3E02401FFBE
:10AE6A00E43EFEE43DFDE43CFC90061012347A9088
:10AE7A000610A3A3A3E05401FFE4FEFDFCFBFAF9CC
:10AE8A00F8C312344370259006101234860000006D
:10AE9A0000900905E030E705122062800312E632CD
:0DAEAA001259609003C7E054FC4402F022EE
:10B42300900610E0FCA3E0FDA3E0FEA3E02401FFEF
:10B43300E43EFEE43DFDE43CFC90061012347A90B9
:10B443000610A3A3A3E05401FFE4FEFDFCFBFAF9FD
:10B45300F8C312344370249006101234860000009F
:10B4630000900905E030E705122062800312E632FE
:0CB47300B2B09003C7E054FC4401F0228A
:107AC3009005EDE0FCA3E0FDA3E0FEA3E0FF90063C
:107AD30010E0F8A3E0F9A3E0FAA3E0FBC3123443F8
:107AE3007065900606E0FCA3E0FDA3E0FEA3E0FFC3
:107AF300EC4D4E4F6049900606A3A3A3E024FFFF7D
:107B0300EE34FFFEED34FFFDEC34FFFC900606126D
:107B1300347A900606A3A3A3E05401FFE4FEFDFC20
:107B2300FBFAF9F8C31234436003027BC3900905DF
:107B3300E030E705122062800312E632B2B02290F1
:107B430003C7E054FCF022900610E0FCA3E0FDA381
:107B5300E0FEA3E02401FFE43EFEE43DFDE43CFC43
:107B630090061012347A900610A3A3A3E05401FFE9
:107B7300E4FEFDFCFBFAF9F8C312344370119009DB
:107B830005E030E705122062800312E632B2B090BE
:107B93000610A3A3A3E0543FFFE4FEFDFCFBFAF9A8
:107BA300F8C3123443701990082EE0D39405501093
:107BB300900883E020E70912596D90082EE004F045
:017BC300229F
:10D96B00900610123486000000009003C7E044407C
:10D97B00F054CC12E62AE4900883F0900890F090D3
:10D98B000614F09003C8F09008F5F09005ECF090B9
:10D99B0003D8F0900817F09003D0F0A3F090060690
:0AD9AB001234860000000002BD0CDB
:10AEB700900610E0FCA3E0FDA3E0FEA3E02401FF61
:10AEC700E43EFEE43DFDE43CFC90061012347A902B
:10AED7000610A3A3A3E05401FFE4FEFDFCFBFAF96F
:10AEE700F8C3123443702590061012348600000010
:10AEF70000900905E030E705122062800312E63270
:0DAF07001259609003C7E054FC4402F02290
:10B47F00900610E0FCA3E0FDA3E0FEA3E02401FF93
:10B48F00E43EFEE43DFDE43CFC90061012347A905D
:10B49F000610A3A3A3E05401FFE4FEFDFCFBFAF9A1
:10B4AF00F8C3123443702490061012348600000043
:10B4BF0000900905E030E705122062800312E632A2
:0CB4CF00B2B09003C7E054FC4401F0222E
:107BC4009005EDE0FCA3E0FDA3E0FEA3E0FF90063A
:107BD40010E0F8A3E0F9A3E0FAA3E0FBC3123443F6
:107BE4007065900606E0FCA3E0FDA3E0FEA3E0FFC1
:107BF400EC4D4E4F6049900606A3A3A3E024FFFF7B
:107C0400EE34FFFEED34FFFDEC34FFFC900606126B
:107C1400347A900606A3A3A3E05401FFE4FEFDFC1E
:107C2400FBFAF9F8C31234436003027CC4900905DB
:107C3400E030E705122062800312E632B2B02290EF
:107C440003C7E054FCF022900610E0FCA3E0FDA37F
:107C5400E0FEA3E02401FFE43EFEE43DFDE43CFC41
:107C640090061012347A900610A3A3A3E05401FFE7
:107C7400E4FEFDFCFBFAF9F8C312344370119009D9
:107C840005E030E705122062800312E632B2B090BC
:107C94000610A3A3A3E0543FFFE4FEFDFCFBFAF9A6
:107CA400F8C3123443701990082EE0D39405501091
:107CB400900883E020E70912596D90082EE004F043
:017CC400229D
:10DB6400900610123486000000009003C77450120F
:10DB7400E62AE4900883F0900890F0900614F09060
:10DB840003C8F09008F5F09005ECF09003D8F090FD
:10DB94000817F09003D0F0A3F09006061234860024
:06DBA40000000002BD0CB0
:10AF1400900610E0FCA3E0FDA3E0FEA3E02401FF03
:10AF2400E43EFEE43DFDE43CFC90061012347A90CD
:10AF34000610A3A3A3E05401FFE4FEFDFCFBFAF911
:10AF4400F8C31234437025900610123486000000B2
:10AF540000900905E030E705122062800312E63212
:0DAF64001259609003C7E054FC4402F02233
:10B4DB00900610E0FCA3E0FDA3E0FEA3E02401FF37
:10B4EB00E43EFEE43DFDE43CFC90061012347A9001
:10B4FB000610A3A3A3E05401FFE4FEFDFCFBFAF945
:10B50B00F8C31234437024900610123486000000E6
:10B51B0000900905E030E705122062800312E63245
:0CB52B00B2B09003C7E054FC4401F022D1
:107CC5009005EDE0FCA3E0FDA3E0FEA3E0FF900638
:107CD50010E0F8A3E0F9A3E0FAA3E0FBC3123443F4
:107CE5007065900606E0FCA3E0FDA3E0FEA3E0FFBF
:107CF500EC4D4E4F6049900606A3A3A3E024FFFF79
:107D0500EE34FFFEED34FFFDEC34FFFC9006061269
:107D1500347A900606A3A3A3E05401FFE4FEFDFC1C
:107D2500FBFAF9F8C31234436003027DC5900905D7
:107D3500E030E705122062800312E632B2B02290ED
:107D450003C7E054FCF022900610E0FCA3E0FDA37D
:107D5500E0FEA3E02401FFE43EFEE43DFDE43CFC3F
:107D650090061012347A900610A3A3A3E05401FFE5
:107D7500E4FEFDFCFBFAF9F8C312344370119009D7
:107D850005E030E705122062800312E632B2B090BA
:107D95000610A3A3A3E0543FFFE4FEFDFCFBFAF9A4
:107DA500F8C3123443701990082EE0D3940550108F
:107DB500900883E020E70912596D90082EE004F041
:017DC500229B
:10D9FF00900610123486000000009003C77450F098
:10DA0F0054F012E62AE4900883F0900890F0900604
:10DA1F0014F09003C8F09008F5F09005ECF0900327
:10DA2F00D8F0900817F09003D0F0A3F090060612EC
:09DA3F0034860000000002BD0C59
:10AF7100900610E0FCA3E0FDA3E0FEA3E02401FFA6
:10AF8100E43EFEE43DFDE43CFC90061012347A9070
:10AF91000610A3A3A3E05401FFE4FEFDFCFBFAF9B4
:10AFA100F8C3123443702590061012348600000055
:10AFB10000900905E030E705122062800312E632B5
:0DAFC1001259609003C7E054FC4402F022D6
:10B53700900610E0FCA3E0FDA3E0FEA3E02401FFDA
:10B54700E43EFEE43DFDE43CFC90061012347A90A4
:10B557000610A3A3A3E05401FFE4FEFDFCFBFAF9E8
:10B56700F8C312344370249006101234860000008A
:10B5770000900905E030E705122062800312E632E9
:0CB58700B2B09003C7E054FC4401F02275
:107DC6009005EDE0FCA3E0FDA3E0FEA3E0FF900636
:107DD60010E0F8A3E0F9A3E0FAA3E0FBC3123443F2
:107DE6007065900606E0FCA3E0FDA3E0FEA3E0FFBD
:107DF600EC4D4E4F6049900606A3A3A3E024FFFF77
:107E0600EE34FFFEED34FFFDEC34FFFC9006061267
:107E1600347A900606A3A3A3E05401FFE4FEFDFC1A
:107E2600FBFAF9F8C31234436003027EC6900905D3
:107E3600E030E705122062800312E632B2B02290EB
:107E460003C7E054FCF022900610E0FCA3E0FDA37B
:107E5600E0FEA3E02401FFE43EFEE43DFDE43CFC3D
