:02E4CF002086A5
:02E4D10026F132
:02E4D300CD2852
:02E4D7006001E2
:02E4DB00E360FC
:02E4DD0052DC0F
:02E4DF0098FCA7
:02E4E100978E14
:02E4E300980897
:02E4E50098821B
:02E4E700968B12
:02E4E900BBF77F
:02E4EB00BA3342
:02E4ED00BA8EE5
:0320000002960540
:069605007581510296463A
:10E82B006D4456524D432D30302D52442D342E37DE
:102D38004908D65500000000000000004108FA00CC
:102D48004108FB004108920041083B004503D5407B
:102D5800A0E6CCB24408EB000000004103CF0041DC
:102D6800081F004208E4000041081B034108213BFA
:102D78004108230141082628410829004208F60095
:102D8800004103CB004108F5004108E2004108F486
:102D9800004108E1004108E3004104E70042082C33
:102DA8000000440888000000004106100041082E79
:102DB80041410825004108D311410881014105F42A
:102DC80024410880094108F0074108E000410885CE
:102DD800004103CC0041082F00410904FF410905C7
:102DE8003F410901FE410903FFC10160C30000FF23
:102DF8009711FF91DBFF91DBFF91DBFF5D41FF5EE8
:102E0800A1FF44E4FF4A8AFF3B3EFFCDC8FF997407
:102E1800FF5794FF404EFF91DBFF91DBFF91DBFFF3
:102E2800560CFF31CDFF8470FF5A74FF91DBFF9180
:102E3800DBFFC9F6FFDFD3FF6A52FF6410FF616052
:102E4800FF62B8FF9C2BFF5BDBFF862AFF91DBFF4D
:102E580091DBFF6CACFF6DD3FF6EFAFF7020FF4C67
:102E680039FF4F92FF42A6FF7146FF6B80FF655DF9
:102E7800FF67DEFF691EFF5477FF4DE6FF5139FFFC
:102E880091DBFF91DBFF91DBFF91DBFF91DBFF9192
:102E9800DBFF91DBFF91DBFF91DBFF91DBFF91DB38
:102EA800FF91DBFF91DBFF3DE1FF46DFFF48B9FF04
:102EB80091DBC100630000C4FFE50EFFEA15FFEADD
:102EC8001BFFEA21FFE62EFF9D0CFFBC50FFCE162C
:102ED800FFCA49FF86FFFFC5F0FFCE64FFE99AFFEE
:102EE800E9C6FFE9CEFFE9D6FFE649FF9D7CFFBCB6
:102EF800A8FFCEB2FFE664FF9DECFFBD00FFCB420A
:102F0800FFE2E7FF9AD2FFA942FFBAE9FFE67FFF97
:102F18009E5CFFBB43FFCA9CFFC69EFF87C7FFC6D8
:102F280047FFCF00FFCF9CFF888FFFC6F5FFCF4E2E
:102F3800FFD510FF8957FFD2A8FFCFEAFFD55BFF67
:102F48008A1FFFD2F5FFB64AFFE9A5FFE9DEFFE9D0
:102F5800E6FFE9EEFFE69AFF9ECCFFBD58FFCB9354
:102F6800FFD5A6FF8AE7FFC74CFFD038FF200EFF2A
:102F7800E9F6FFE9FEFFEA06FFDBD8FF9F3CFFBD4D
:102F8800B0FFC8A6FFDC14FF9FACFFBE08FFB6A5C4
:102F9800FFDC50FFA01CFFBE60FFB700FFDC8CFF0A
:102FA800A08CFFBEB8FFC8FAFFDCC8FFA0FCFFBFBB
:102FB80010FFB75BFFDD04FFA16CFFBF68FFB7B66A
:102FC800FFDD40FFA1DCFFBFC0FFA9A0FFDD7CFF44
:102FD800A24CFFC018FFB811FFDDB8FFA2BCFFC0AC
:102FE80070FFB86CFFDDF4FFA32CFFC0C8FFA9FE7B
:102FF800FFDE30FFA39CFFC120FFB8C7FFDE6CFFD8
:10300800A40CFFC178FFB922FFDEA8FFA47CFFC192
:10301800D0FFC94EFFDEE4FFA4ECFFC228FFB97D54
:10302800FFDF20FFA55CFFC280FFB9D8FFDF5CFF90
:10303800A5CCFFC2D8FFC9A2FFD342FF7372FFB06D
:103048008AFFAABAFFD768FF7473FFB0E6FFAB1711
:10305800FFD9B4FF7574FFB142FFAB74FFDB15FFF6
:103068007675FFB19EFFABD1FFD7B2FF7776FFB180
:10307800FAFFAC2EFFD7FCFF7877FFB256FFAC8B78
:10308800FFAA5CFF7978FFB2B2FFACE8FFD846FF31
:103098007A79FFB30EFFAD45FFDA89FF7B7AFFB37C
:1030A8006AFFADA2FFD924FF7C7BFFB3C6FFADFF4B
:1030B800FFD9FBFF7D7CFFB422FFAE5CFFDACFFFB8
:1030C8007E7DFFB47EFFAEB9FFDB56FF7F7EFFB487
:1030D800DAFFAF16FFD890FF807FFFB536FFAF73DA
:1030E800FFDA42FF8180FFB592FFAFD0FFDB97FF89
:1030F8008281FFB5EEFFB02DFFE9B0FFE7B4FFE72F
:10310800C6FFE7D8FFE6B5FFA63CFFC330FFCBE418
:10311800FFD5F1FF8BAFFFC7A3FFD086FF2026FFA7
:10312800E56AFFE586FFE5A2FFE6D0FFA6ACFFC390
:1031380088FFCC35FFE6EBFFA71CFFC3E0FFC438D0
:10314800FFE706FFA78CFFC490FFC4E8FFE721FF55
:10315800A7FCFFC540FFCC86FFD63CFF8C77FFD38A
:103168008FFFD0D4FFD170FF8D3FFFD3DCFFD1227A
:10317800FFD687FF8E07FFD429FFD1BEFFD6D2FF27
:103188008ECFFFD476FFD20CFFE79FFFE5BEFFE5A9
:10319800DAFFE5F6FFE73CFFA86CFFC598FFCCD740
:1031A800FFD71DFF8F97FFC7FAFFD25AFFE52DFF04
:1031B800E3D5FFE3FBFFE4214303C400000043031E
:0431C800C70020001C
:1020860053D9BFE49008F8F0A3F09008E6123AD5C9
:1020960000000000C298C299C2ACC28E12E293122E
:1020A600E4AF12E4EF75C7FFD294D295D296D293DD
:1020B600D297D2A7E49008E0F090081CF09005EFC4
:1020C600F09003DBF0900820F09004E8F09003D243
:1020D600F090081574FFF09003E074E4F0E49008C3
:1020E600F5F090082CF0A3F090088CF09008881278
:1020F6003AD500000000E49008DFF0E5B05480FF18
:10210600E5A0543F4FFFE5C75408FE33333354F878
:102116004F9008F3F0900833E4F0A3741FF0A3E4A3
:10212600F0A3741FF0900838E4F0A3741FF0900831
:102136007BE4F0A3741FF090087EE4F0A3741FF014
:102146009005FEE4F0A3741FF0900601E4F0A3747A
:102156001FF0A3E4F0A3741FF090060CE4F0A37440
:102166001FF0A3E4F0A3741FF0E4900884F0900538
:10217600F9F09005F0123AD5000007449005F512E3
:102186003AD50000026C900608123AD5000000000D
:102196009004EAE4F0A374BAF0E4900883F09003A4
:1021A600D3F0A3F0900818F09008877480F090069A
:1021B60000F09008227408F09003DDF0E49003CA62
:1021C600F090088FF012E3109004E7E0B455069003
:1021D60008E3E08001E49005EEF0E490087DF090DD
:1021E60005FA123AD5000367E0900A1C74C7F07F1F
:1021F600007E007D007C00129C9C9008E6123AD579
:1022060000000000E4FF7E10FDFC9008E6E0F8A365
:10221600E0F9A3E0FAA3E0FBC3123A9240030222DC
:10222600E612945FE49008F8F0A3F09008F8E0FE58
:10223600A3E0FFC39410EE6480948040030222C49E
:10224600EFC4F8540FC868FFEEC454F048FE74E1BA
:102256002FF58274033EF583E0F470517F10FEFD86
:10226600FC9008E6E0F8A3E0F9A3E0FAA3E0FB128D
:102276003975A804A905AA06AB079008F8E0FEA3DD
:10228600E0FFEE3395E0FDFCEB2FFFEA3EFEE93D75
:10229600FDE83CFC900888123AC99008F87401F0F1
:1022A600A3E4F09008E6123AD5000200009008F97F
:1022B600E004F070069008F8E004F002223190087D
:1022C600E6E0FCA3E0FDA3E0FEA3E02401FFE43E7C
:1022D600FEE43DFDE43CFC9008E6123AC902220AFF
:1022E600E47F207E4EFDFC9008E6E0F8A3E0F9A32B
:1022F600E0FAA3E0FBC3123A9250030223EA9008E5
:10230600E6123AD500000000E4FF7E10FDFC9008BE
:10231600E6E0F8A3E0F9A3E0FAA3E0FBC3123A92E1
:1023260040030223EA12945FE49008F8F0A3F090C9
:1023360008F8E0FEA3E0FFC39410EE6480948040AA
:10234600030223C8EFC4F8540FC868FFEEC454F064
:1023560048FE74E12FF58274033EF583E0F4705174
:102366007F10FEFDFC9008E6E0F8A3E0F9A3E0FA92
:10237600A3E0FB123975A804A905AA06AB079008C5
:10238600F8E0FEA3E0FFEE3395E0FDFCEB2FFFEA5D
:102396003EFEE93DFDE83CFC900888123AC99008EB
:1023A600F87401F0A3E4F09008E6123AD5000200B2
:1023B600009008F9E004F070069008F8E004F002D6
:1023C60023359008E6E0FCA3E0FDA3E0FEA3E024AD
:1023D60001FFE43EFEE43DFDE43CFC9008E6123AD3
:1023E600C902230EC29853D2FD53D2FED2AC43A8E3
:1023F60012C29843E70253D2FD53D2FE43D202D211
:102406009943E601D2AFE49003D0F09004E6F0E5FC
:10241600C730E3030224B1E5B030E7030224B14339
:10242600C18012D4C353C17F9003D0E06076900977
:1024360002E0FF3395E0FE9008D6E0FDC39FEE6410
:1024460080F874809850159008FCE0FF3395E0FE04
:10245600D3ED9FEE6480F87480985007E490088569
:10246600F080069008857401F09008EFE0FF339540
:10247600E0FE9008D8E0FD7C00C39FEE6480F8740F
:10248600809850209008EAE0FF3395E0FED3ED9F58
:10249600EE6480F874809850028009900885E054B4
:1024A60001F08013E4900885F0800C9008D674FF44
:1024B600F0A3F0A3F0A3F09009027455F09008EF92
:1024C600F09008FC74F5F09008EAF012203E7F06C2
:1024D60012359E7F0412359E7F0112359E9008FDAF
:1024E600123AD5000000009004E5741EF0E4900353
:1024F600CCF09003DCF0900905E054DF12E26A129A
:10250600E8FE12E91C12E8C253D9F075FDFF43D963
:1025160040E4900882F075FEFF12D8DA12BBBD9037
:1025260004E8E0640160030225BFF0900893E064CC
:10253600027075900892E09008E2F09008E6123A70
:10254600D5000000009008E2E0FFE4FCFDFE9008E4
:10255600E6E0F8A3E0F9A3E0FAA3E0FBC3123A929F
:1025660050509008E6A3A3A3E02492F582E4340831
:10257600F583E0FF9008F4E0FE04F074EC2EF5829B
:10258600E43404F583EFF09008E6E0FCA3E0FDA355
:10259600E0FEA3E02401FFE43EFEE43DFDE43CFC56
:1025A6009008E6123AC9809D900895E0FF7E0012D9
:1025B600E2BE9003E0E04480F09003D2E064016064
:1025C60003022663F0900843E0C394FB507C900816
:1025D6003BE0FF9008F6E4F0A3EFF09008E6123A2D
:1025E600D5000000009008F6E0FEA3E0FFE4FCFD45
:1025F6009008E6E0F8A3E0F9A3E0FAA3E0FBC31233
:102606003A9250529008E6A3A3A3E0243BF582E455
:102616003408F583E0FF9003CBE0FE04F074152E3A
:10262600F582E43406F583EFF09008E6E0FCA3E0DB
:10263600FDA3E0FEA3E02401FFE43EFEE43DFDE44D
:102646003CFC9008E6123AC9809B900843E0543F50
:10265600FF7E0012E2BE9003E0E04480F09008277F
:10266600E07004A3E06464700C7F07123627E490E0
:102676000827F0A3F0900883E0B4800E900818E0D5
:10268600600812A8DCE4900883F0900882E07003EA
:1026960002251C53D9BF9008E6123AD50000000067
:1026A6007FFF7EFF7D1F7C009008E6E0F8A3E0F93F
:1026B600A3E0FAA3E0FBC3123A9250219008E6E0A9
:1026C600FCA3E0FDA3E0FEA3E02401FFE43EFEE45C
:1026D6003DFDE43CFC9008E6123AC980C3E490084C
:0B26E60082F012E81B12E38D02251C9D
:10E4AF00E4FFFE75B12075B9810FBF00010EEF6457
:0FE4BF00284E70F543B9C0E5B930E5FB75A903E8
:01E4CE00222B
:10E2930075F1FF75A45D75A5F375A68075F3BF755C
:10E2A300A74C75AE8575F4CD75F5BF75D48075D55E
:0BE2B3000175E10775E24075E30122F0
:10E4EF0012E982E4FF12905F12E7FB12E83B12E79A
:0FE4FF005712EA0E12EA277F0512E2340220724A
:0FE83B00438920438E08758D40E4F58BD28E22E1
:10E7FB0075981075D21075AC4375B5FF75B4402282
:01207200224B
:0CE9820075A17075F80175A205C2FF2296
:10E234008FBB75BA1F75BCB875E88075C40275C309
:10E244006F75C60175C59190081B7402F090082182
:10E25400746FF09008237401F09008267491F022F2
:04EA270075D10C2277
:032023000299EA35
:1099EA00C0E0C083C082C0D075D000C00730984E96
:1099FA00C2989008E0E060469005EFE0FF04F0743A
:109A0A00922FF582E43408F583E599F0900892E004
:109A1A00FF9005EFE0B50726900896E0FF64026024
:109A2A0004EFB403149004E87401F09005EFE4F035
:109A3A009003E0E0547FF080059005EFE4F0309960
:109A4A00089008FA7401F0C299D007D0D0D082D019
:049A5A0083D0E032A3
:03208300029A5E60
:109A5E00C0E0C083C082C0D075D000C007E5D23050
:109A6E00E04453D2FE9003DBE0FF04F0743B2FF58D
:109A7E0082E43408F583E5D3F090083BE0FF9003D1
:109A8E00DBE0B5072190083FE0FF64026004EFB40D
:109A9E00030F9003E0E0547FF09003D27401F08046
:109AAE00009003DBE4F0E5D230E10EE5D230E509BB
:109ABE0053D2FD9008FB7401F0D007D0D0D082D0E5
:049ACE0083D0E0322F
:10E2BE00D3EF9440EE940040047E007F4090000027
:10E2CE0075F003EF123B06EE75F003A42583F5837C
:09E2DE00A3E0FAA3E0F9023B38C9
:10971100E4900A10F09008E6123AD500000000909B
:109721000892E0FFE4FCFDFE9008E6E0F8A3E0F912
:10973100A3E0FAA3E0FBC3123A9250399008E6A3E2
:10974100A3A3E02492F582E43408F583E0FF900AB4
:1097510010E02FF09008E6E0FCA3E0FDA3E0FEA3FB
:10976100E02401FFE43EFEE43DFDE43CFC9008E61C
:10977100123AC980AA900A10E0700C9003CAF090C6
:0C978100088204F002E48EE4FF1291263E
:01978D0022B9
:10547700E4900A10F09008E6123AD5000000009078
:105487000892E0FFE4FCFDFE9008E6E0F8A3E0F9EF
:10549700A3E0FAA3E0FBC3123A9250399008E6A3BF
:1054A700A3A3E02492F582E43408F583E0FF900A91
:1054B70010E02FF09008E6E0FCA3E0FDA3E0FEA3D8
:1054C700E02401FFE43EFEE43DFDE43CFC9008E6F9
:1054D700123AC980AA900A10E060030256067419AE
:1054E700F09003CBE0FF04F074152FF582E4340647
:1054F700F5837416F0900894E0FF9003CBE0FE0468
:10550700F074152EF582E43406F583EFF0900A1057
:10551700E02FF0900893E0FF9003CBE0FE04F074D7
:10552700152EF582E43406F583EFF0900A10E02F8C
:10553700F0900895E0FF9003CBE0FE04F074152E81
:10554700F582E43406F583EFF0900A10E02FF0902F
:1055570003CBE0FF04F074152FF582E43406F583DE
:105567007403F09008E6123AD500000000E47F10BB
:10557700FEFDFC9008E6E0F8A3E0F9A3E0FAA3E05B
:10558700FBC3123A92504D9008E6A3A3A3E0FF9005
:10559700E82B93FE9003CBE0FD04F074152DF58204
:1055A700E43406F583EEF0EF90E82B93FF900A10B2
:1055B700E02FF09008E6E0FCA3E0FDA3E0FEA3E007
:1055C7002401FFE43EFEE43DFDE43CFC9008E612C6
:1055D7003AC98099900A10E0FFC3E49FFF9003CB7C
:1055E700E0FE04F074152EF582E43406F583EFF03F
:1055F7009008F7E02416F09008F6E03400F0227FD8
:045607002D129126A9
:01560B00227C
:109126007E0A9003CBE0FD04F074152DF582E4343D
:1091360006F5837407F0900894E0FD9003CBE0FCFD
:1091460004F074152CF582E43406F583EDF0ED2E6B
:10915600FE900893E0FD9003CBE0FC04F074152C20
:10916600F582E43406F583EDF0ED2EFE9003CBE0B8
:10917600FD04F074152DF582E43406F583741FF0B2
:10918600900895E02EFE9003CBE0FD04F074152DBB
:10919600F582E43406F5837403F09003CBE0FD0416
:1091A600F074152DF582E43406F583EFF02EFFC337
:1091B600E49FFF9003CBE0FE04F074152EF582E4E5
:1091C6003406F583EFF09008F7E02407F09008F6F0
:0491D600E03400F091
:0191DA002272
:1091DB007F0A9003CBE0FE04F074152EF582E43485
:1091EB0006F5837407F0900894E0FE9003CBE0FD46
:1091FB0004F074152DF582E43406F583EEF0EE2FB2
:10920B00FF900893E0FE9003CBE0FD04F074152D66
:10921B00F582E43406F583EEF0EE2FFF900895E02F
:10922B00FE9003CBE0FD04F074152DF582E43406BB
:10923B00F583EEF0EE2FFF9003CBE0FE04F07415F8
:10924B002EF582E43406F5837403F09003CBE0FE35
:10925B0004F074152EF582E43406F583E4F0C39F15
:10926B00FF9003CBE0FE04F074152EF582E4340678
:10927B00F583EFF09008F7E02407F09008F6E03460
:02928B0000F0F1
:01928D0022BE
:10C9F600900897E0FEA3E0FBEBFF9003DEEEF0A3CA
:10CA0600EFF09003D1F0900899E09005ECF09008D3
:10CA16009AE09008D5F090089BE09008D4F0900634
:10CA2600157443F0A3744CF0A3744FF0A3744BF049
:10CA3600A3740AF09008F6E4F0A37405F0E49008F5
:03CA4600F5F022E6
:10DFD300900897E09004E5F09006157453F0A3744D
:10DFE30041F0A37452F0A3743DF0A3740AF09008B7
:0DDFF300F6E4F0A37405F0E49008F5F022C8
:0EE958009008FAE060FAE49008FAF08F992235
:0EE966009008FBE060FAE49008FBF08FD322EB
:08200300C2FF8FA330FFFD2294
:07207600EFF0E4FF1220036C
:06207D0030FFFDAFA322BD
:10203E00C2961220781220799008251220769008E8
:10204E002E1220769008D3122076900881122076D8
:10205E009005F41220769008801220769008F0EF0A
:04206E00F0D29622F4
:109BB900E4900A0EF0A3F0C2967F19122003122036
:109BC9007D8021C3900A0EE09401501F12207DE48C
:109BD90075F00112395FFC740E25F0F58274093CA9
:109BE900F583EFF07F1912200380D8D296E4900A0A
:109BF9000EF0A3F0900A0EE0FEA3E0FFC3EE94017D
:109C0900501F740E2FF582E43409F583E0FD129597
:109C19007B900A0FE004F070DB900A0EE004F080FC
:019C2900D367
:019C2A002217
:10E33900E4FEC2967F9912200312207DFDFCAF06F0
:10E349000E12200312207D0DBD00010CE4B505EE6F
:06E35900ECB401EAD296CB
:01E35F00229B
:10957B00900A63EFF0A3EDF0900A63E0C4540FFF81
:10958B00C3940A4005EF24378009900A63E0C45462
:10959B000F2430FF12E3AE900A63E0540FFFC39425
:1095AB000A4005EF24378008900A63E0540F2430FB
:1095BB00FF12E3AE7F3A12E3AE900A64E0C4540F9D
:1095CB00FFC3940A4005EF24378009900A64E0C476
:1095DB00540F2430FF12E3AE900A64E0540FFFC324
:1095EB00940A4005EF24378008900A64E0540F2456
:0A95FB0030FF12E3AE7F2002E3AE62
:10945F00E4FF7E01FDFC9008E6E0F8A3A3A3E01271
:02946F0039754D
:06947100900A18123AC92E
:1094770053C7FBC2FF75A30330FFFDC2FF900A1855
:10948700E0FCA3E0FDA3E0FEA3E0FF7810123AA3FF
:109497008FA330FFFDC2FF900A18E0FCA3E0FDA3F5
:1094A700E0FEA3E0FF7808123AA38FA330FFFDC2C6
:1094B700FF900A18A3A3A3E0F5A330FFFDE4FFFE86
:1094C700C2FFE4F5A330FFFD74E12FF58274033E7C
:1094D700F583E5A3F00FBF00010EE4B507E2EEB494
:0794E70001DE43C7047FE131
:0194EE00225B
:10928E00900A57123AC9900A5BEBF0A3EAF0A3E9F1
:01929E00F0DF
:10929F0053C7FBC2FF75A30630FFFD43C70453C777
:1092AF00FBC2FF75A30230FFFDC2FF900A57E0FC1F
:1092BF00A3E0FDA3E0FEA3E0FF7810123AA38FA373
:1092CF0030FFFDC2FF900A57E0FCA3E0FDA3E0FED4
:1092DF00A3E0FF7808123AA38FA330FFFDC2FF90DF
:1092EF000A57A3A3A3E0F5A330FFFDE4FFFED3903D
:1092FF00082DE09F90082CE09E4021C2FF900A5B52
:10930F00E0FBA3E475F00112395FA9F0FA1238817E
:10931F00F5A330FFFD0FBF00010E80D2C2FF43C780
:01932F000439
:01933000221A
:109C9C00900A18123AC953C7FBC2FF75A30630FFCE
:109CAC00FD43C70453C7FBC2FF900A1CE0F5A33069
:109CBC00FFFD900A1CE064C76042C2FF900A18E0E6
:109CCC00FCA3E0FDA3E0FEA3E0FF7810123AA38F03
:109CDC00A330FFFDC2FF900A18E0FCA3E0FDA3E057
:109CEC00FEA3E0FF7808123AA38FA330FFFDC2FF5A
:109CFC00900A18A3A3A3E0F5A330FFFD43C70422E9
:0FE80B00E4900A62F0900A5E123AD50000010014
:01E81A0022DB
:1093CA00900897E0900825F0900898E090082EF011
:1093DA00900899E09008D3F090089AE0900881F0FC
:1093EA0090089BE09005F4F090089CE0900880F0CB
:1093FA0090089DE09008F0F043C180900825E0FBBA
:10940A007DD07C00E4FF12D97390082E7F0112D917
:10941A006D9008D37F0212D96D900881E0FB7DD050
:10942A007C007F0312D9739005F4E0FB7DD07C00A9
:10943A007F0412D973900880E0FB7DD07C007F0501
:10944A0012D9739008F0E0FB7DD07C007F0612D918
:05945A007353C17F22E5
:104A8A00E4900A10F09008E6123AD500000000906F
:104A9A000892E0FFE4FCFDFE9008E6E0F8A3E0F9E6
:104AAA00A3E0FAA3E0FBC3123A9250399008E6A3B6
:104ABA00A3A3E02492F582E43408F583E0FF900A88
:104ACA0010E02FF09008E6E0FCA3E0FDA3E0FEA3CF
:104ADA00E02401FFE43EFEE43DFDE43CFC9008E6F0
:104AEA00123AC980AA900A10E06003024C33C293BA
:104AFA00900897E0900825F0900898E090082EF02A
:104B0A00900899E09008D3F090089AE0900881F014
:104B1A0090089BE09005F4F090089CE0900880F0E3
:104B2A0090089DE09008F0F0E4900A10F0900A10C6
:104B3A00E004F0E0B4FFF6D293C2967F801220031D
:104B4A0012207D900825E012207990082EE012208C
:104B5A00799008D3E0122079900881E012207990A8
:104B6A0005F4E0122079900880E01220799008F08C
:104B7A00E0122079D296900A107409F09003CBE0E3
:104B8A00FF04F074152FF582E43406F5837406F0F9
:104B9A00900894E0FF9003CBE0FE04F074152EF524
:104BAA0082E43406F583EFF0900A10E02FF09008C3
:104BBA0093E0FF9003CBE0FE04F074152EF582E437
:104BCA003406F583EFF0900A10E02FF0900895E094
:104BDA00FF9003CBE0FE04F074152EF582E4340650
:104BEA00F583EFF0900A10E02FF09003CBE0FF047A
:104BFA00F074152FF582E43406F5837403F0900AF5
:104C0A0010E0FFC3E49FFF9003CBE0FE04F07415AD
:104C1A002EF582E43406F583EFF09008F7E02406D7
:0E4C2A00F09008F6E03400F0227F0712912689
:014C38002259
:07EA0E0075C15D43C18022C8
:10E75700E4F591538E3F759398F59285939585923D
:08E767009443E6804391042273
:03203B0002669E9C
:10669E00C0E0C0F0C083C082C0D075D000C000C0C2
:0B66AE0001C002C003C004C005C0070B
:1066B900C207E5C054F02480700302676024C060FB
:1066C9002024E060030267AE900837E0F5C253C2A8
:1066D900FEA205E43342C2C2C59000C3E4F00267DA
:1066E900B030C168300007D2C5C2000267B03003BC
:1066F90015C203900824E0F5C22002030267B0D254
:1067090000D2050267B03005030267B09005EDE0DD
:10671900FF9000C3E0FD3395E0FCC3ED9F7480F862
:106729006C985022900605E0FBA3E0FAA3E0F91269
:106739003881F5C2900606E475F0011239499000D6
:10674900C3E004F08061D2C4C201805B300404D28A
:10675900C58054D20780509005EDE0FF9000C3E05A
:10676900FD3395E0FCC3ED9F7480F86C985022903E
:106779000830E0FBA3E0FAA3E0F9E5C212389A90E9
:106789000831E475F0011239499000C3E004F0D2F0
:10679900C19000C3E0FF9005EDE0B5070AC201C250
:1067A900C1D2C48002D20730071053C17F43C180D0
:0C67B900C2C5C2C4C2C1C201C207C2C036
:1067C500D007D005D004D003D002D001D000D0D05E
:0967D500D082D083D0F0D0E03274
:0320730002E9740B
:0EE9740053C17F43C18053917FC2C5C201329F
:06D96D00E0FB7DD07C0010
:10D97300E4FE3001080EEEB4FFF8E4802FD20190EC
:10D983000837EDF0C205D203C202D204900824EF97
:10D99300F09004E9EBF09006057401F0A37404F031
:10D9A300A374E9F09005ED7401F0D2C59003D0F0B3
:01D9B3002251
:05CD7900900A4CEFF0F0
:10CD7E00900A54EBF0A3EAF0A3E9F0E4900A53F022
:10CD8E00900A52E0FFA3E0C39F502E900A4CE0FFA2
:10CD9E0004F0900A50E0FCA3E0FD900A54E0FBA3DF
:10CDAE00E475F00112395FA9F0FA123881FB12D93D
:09CDBE0073900A53E004F080C7F1
:01CDC7002249
:10C85100E4FE30010D0EEEB4FFF8E49003D0F07F5A
:10C86100FF22D201900837EDF0C205D203D202D2E5
:10C8710004900824EFF09008307401F0A3740AF0DA
:10C88100A37465F09005ED7401F0D2C5E4FE3001AA
:10C89100080EEEB4FFF87FFF229003D07401F090F0
:04C8A1000A65E0FF45
:01C8A5002270
:109B46007B017A0879D8900A43E4F07492A3F0A3D3
:059B56007402F0E4FDC3
:109B5B00E4FFFE30010D0FBF00010EBEFFF5BFFF8E
:109B6B00F2803ED201900A43A3E0900837F0C20581
:109B7B00D203D202D204900824EDF0900830EBF01F
:109B8B00A3EAF0A3E9F0900A45E09005EDF0D2C509
:109B9B00E4FEFF3001110FBF00010EBEFFF5BFFF4A
:0D9BAB00F2E49003D0F0229003D07401F09A
:019BB800228A
:0D590900B2B0E490082FF09008847408F00C
:10591600900A107414F09003CBE0FF04F074152F76
:10592600F582E43406F5837409F09003CBE0FF04B6
:10593600F074152FF582E43406F583E4F09003CB7A
:10594600E0FF04F074152FF582E43406F583740144
:10595600F09003CBE0FF04F074152FF582E43406D3
:10596600F5837408F09003CBE0FF04F074152FF56F
:1059760082E43406F5837402F09003CAE0FF54C053
:10598600FEBE8013A3E0FE04F074152EF582E43407
:1059960006F583E4F08046EF5430FFBF201C9003E9
:1059A600CBE0FF04F074152FF582E43406F583741A
:1059B60001F0900A10E004F080239003CAE0540C32
:1059C600FFBF0819A3E0FF04F074152FF582E43435
:1059D60006F5837402F0900A10E02402F09006089F
:1059E600E0FCA3E0FDA3E0FEA3E0FF9005F0E0F8F5
:1059F600A3E0F9A3E0FAA3E02FFFEA3EFEE93DFDAE
:105A0600E83CFCE47B3EFAF9F8123A00AD07AC0636
:105A1600ECFF9003CBE0FE04F074152EF582E4341F
:105A260006F583EFF0900A10E02FF0AF059003CB58
:105A3600E0FE04F074152EF582E43406F583EFF0EB
:105A4600900A10E02FF0E0FFC3E49FFF9003CBE045
:105A5600FE04F074152EF582E43406F583EFF0901B
:0D5A660008F7E02409F09008F6E03400F0A5
:015A73002210
:038382007480F014
:108385007F139005F97401F09003CBE0FE04F074BF
:10839500152EF582E43406F5837407F09003CBE0DF
:1083A500FE04F074152EF582E43406F583E4F090AE
:1083B50003CBE0FE04F074152EF582E43406F58354
:1083C5007401F09003CBE0FE04F074152EF582E401
:1083D5003406F5837409F09003CBE0FE04F07415C0
:1083E5002EF582E43406F5837402F09003CAE0FEAC
:1083F50054C0FDBD4013A3E0FD04F074152DF582B6
:10840500E43406F583E4F0803CEE5430FEBE1017EC
:108415009003CBE0FE04F074152EF582E43406F5E6
:10842500837401F00F801E9003CAE0540CFEBE0455
:1084350014A3E0FE04F074152EF582E43406F583EA
:108445007402F00F0FC3E49FFF9003CBE0FE04F02E
:1084550074152EF582E43406F583EFF09008F7E005
:0A8465002407F09008F6E03400F060
:01846F0022EA
:10DF98007F0C12E9587F0112E9581F12E9587F07D0
:10DFA80012E9587F0212E9587F0812E9587F0112D6
:10DFB800E9587F1112E9587F0612E9587F1512E9CE
:0BDFC800587F2012E9587F3002E95812
:103B3E00E4900A14F09008E6123AD50000000090C6
:103B4E000892E0FFE4FCFDFE9008E6E0F8A3E0F941
:103B5E00A3E0FAA3E0FBC3123A9250399008E6A311
:103B6E00A3A3E02492F582E43408F583E0FF900AE3
:103B7E0014E02FF09008E6E0FCA3E0FDA3E0FEA326
:103B8E00E02401FFE43EFEE43DFDE43CFC9008E64B
:103B9E00123AC980AA900A14E06003023DDB900835
:103BAE0084E04480F0900896E064036003023C4990
:103BBE00A3E0FFE4FCFDFE7808123AB6E4FFE4FD54
:103BCE00FC900A10123AC9900A10E0F8A3E0F9A38B
:103BDE00E0FAA3E0FB900898E0FFE4FCFDFEEB2F7B
:103BEE00FFEE3AFEED39FDEC38FC900A10123AC9A0
:103BFE00900A10E0FCA3E0FDA3E0FEA3E0FFE47B4F
:103C0E003EFAF9F8123975900A10123AC990060860
:103C1E00E0FCA3E0FDA3E0FEA3E0FF900A10E0F8B5
:103C2E00A3E0F9A3E0FAA3E0FBEF2BFFEE3AFEEDE3
:103C3E0039FDEC38FC900608123AC9900896E064FB
:103C4E00026003023DE0900A147414F09003CBE07E
:103C5E00FF04F074152FF582E43406F5837408F032
:103C6E009003CBE0FF04F074152FF582E43406F5D3
:103C7E0083E4F09003CBE0FF04F074152FF582E49B
:103C8E003406F5837401F09003CBE0FF04F0741555
:103C9E002FF582E43406F5837408F09003CBE0FF31
:103CAE0004F074152FF582E43406F5837403F09056
:103CBE000897E0FFE4FCFDFE7808123AB6E4FFE454
:103CCE00FDFC900A10123AC9900A10E0F8A3E0F930
:103CDE00A3E0FAA3E0FB900898E0FFE4FCFDFEEB06
:103CEE002FFFEE3AFEED39FDEC38FC900A10123A39
:103CFE00C9900A10E0FCA3E0FDA3E0FEA3E0FFE400
:103D0E007B3EFAF9F8123975900A10123AC99006EC
:103D1E0008E0FCA3E0FDA3E0FEA3E0FF900A10E0A4
:103D2E00F8A3E0F9A3E0FAA3E0FBEF2BFFEE3AFED7
:103D3E00ED39FDEC38FC900608123AC9900608E001
:103D4E00FCA3E0FDA3E0FEA3E0FF9005F0E0F8A3E6
:103D5E00E0F9A3E0FAA3E02FFFEA3EFEE93DFDE81D
:103D6E003CFCE47B3EFAF9F8123A00AD07AC06ECE7
:103D7E00FF9003CBE0FE04F074152EF582E43406BA
:103D8E00F583EFF0900A14E02FF0AF059003CBE02F
:103D9E00FE04F074152EF582E43406F583EFF090F0
:103DAE000A14E02FF0E0FFC3E49FFF9003CBE0FE88
:103DBE0004F074152EF582E43406F583EFF09008C6
:103DCE00F7E02408F09008F6E03400F0227F0812A5
:023DDE0091262C
:013DE00022C0
:10CDC800E4FFFE900892E0FDEEC39D501074922E91
:10CDD800F582E43408F583E02FFF0E80E6EF702833
:10CDE800900884F0900608123AD5000000009008D8
:10CDF80097E07F02600512359E8003123627E49083
:0DCE080005F9F0900884F0227F09129126B0
:01CE150022FA
:10E76F0075F003EFA424C4F582E5F03400F583A31C
:08E77F00E0FAA3E0F9023B38C7
:10E50E00900611123AD5000000009004E1123AD59F
:0FE51E000000000090090A123AD5000000002208
:06EA1500E49003CAF022A8
:06EA1B00E49003CAF022A2
:06EA2100E49003CAF0229C
:10E62E00E49008E0F09004E1123AD500000000906A
:0BE63E0003CAE004F012E81B02E949E7
:109D0C009004E1E0FCA3E0FDA3E0FEA3E02401FF4E
:109D1C00E43EFEE43DFDE43CFC9004E1123AC990C3
:109D2C0004E1A3A3A3E05401FFE4FEFDFCFBFAF95C
:109D3C00F8C3123A92700EB2B09005EFF090089200
:109D4C00F09008E0F0E47F06FEFDFC9004E1E0F802
:109D5C00A3E0F9A3E0FAA3E0FBC3123A92701090CF
:109D6C0004E1123AD5000000009003CAE004F0228E
:10BC50009004E1E0FCA3E0FDA3E0FEA3E02401FFEB
:10BC6000E43EFEE43DFDE43CFC9004E1123AC99060
:10BC700004E1A3A3A3E05401FFE4FEFDFCFBFAF9F9
:10BC8000F8C3123A9270209004E1123AD5000000F5
:10BC900000B2B09003CAE004F0E49005EFF0900821
:08BCA00092F09008E004F0228C
:10CE16009004E1E0FCA3E0FDA3E0FEA3E02401FF13
:10CE2600E43EFEE43DFDE43CFC9004E1123AC99088
:10CE360004E1A3A3A3E05401FFE4FEFDFCFBFAF921
:10CE4600F8C3123A92700C9004E1123AD500000031
:0ECE560000B2B0900884E030E3031283822221
:10CE64009004E1E0FCA3E0FDA3E0FEA3E02401FFC5
:10CE7400E43EFEE43DFDE43CFC9004E1123AC9903A
:10CE840004E1A3A3A3E05401FFE4FEFDFCFBFAF9D3
:10CE9400F8C3123A9270169004E1123AD5000000D9
:0ECEA400001259099003CAE054FC4402F02227
:10C5F0009004E1E0FCA3E0FDA3E0FEA3E02401FF42
:10C60000E43EFEE43DFDE43CFC9004E1123AC990B6
:10C6100004E1A3A3A3E05401FFE4FEFDFCFBFAF94F
:10C62000F8C3123A92701F9004E1123AD50000004C
:10C6300000B2B09004E1123AD5000000009003CAA5
:07C64000E054FC4401F0226C
:1086FF009005F0E0FCA3E0FDA3E0FEA3E0FF9004F3
:10870F00E1E0F8A3E0F9A3E0FAA3E0FBC3123A9289
:10871F00703B900608E0FCA3E0FDA3E0FEA3E0FFA2
:10872F00EC4D4E4F601F900608A3A3A3E024FFFF5C
:10873F00EE34FFFEED34FFFDEC34FFFC9006081223
:10874F003AC9B2B0229003CAE054FCF0229004E17F
:10875F00E0FCA3E0FDA3E0FEA3E02401FFE43EFE66
:10876F00E43DFDE43CFC9004E1123AC99004E1A31E
:10877F00A3A3E05401FFE4FEFDFCFBFAF9F8C312DA
:10878F003A927002B2B09004E1A3A3A3E0543FFF6A
:10879F00E4FEFDFCFBFAF9F8C3123A927019900847
:1087AF002FE0D394055010900884E020E709125968
:0887BF001690082FE004F022DF
:10CA49009004E1123AD5000000009003CAE04404C2
:10CA590012E552E4900884F0900892F0900615F0DF
:10CA69009003CBF09008F5F09005EFF09003DAF021
:10CA7900900818F09003D3F0A3F0900608123AD565
:10CA89000000000012933190087DE06005E4F01287
:03CA9900E38D2208
:0BE99A009004E1123AD50000000022BA
:08E9C6009003CAE054FCF022AA
:08E9CE009003CAE054FCF022A2
:08E9D6009003CAE054FCF0229A
:10E64900E49008E0F09003CAE004F090090A123A55
:0BE65900D50000000012E81B02E94998
:109D7C0090090AE0FCA3E0FDA3E0FEA3E02401FFB0
:109D8C00E43EFEE43DFDE43CFC90090A123AC99025
:109D9C00090AA3A3A3E05401FFE4FEFDFCFBFAF9BE
:109DAC00F8C3123A92700EB2B09005EFF090089290
:109DBC00F09008E0F0E47F06FEFDFC90090AE0F864
:109DCC00A3E0F9A3E0FAA3E0FBC3123A927010905F
:109DDC00090A123AD5000000009003CAE004F022F0
:10BCA80090090AE0FCA3E0FDA3E0FEA3E02401FF65
:10BCB800E43EFEE43DFDE43CFC90090A123AC990DA
:10BCC800090AA3A3A3E05401FFE4FEFDFCFBFAF973
:10BCD800F8C3123A92702090090A123AD50000006F
:10BCE80000B2B09003CAE004F0E49005EFF09008C9
:08BCF80092F09008E004F02234
:10CEB20090090AE0FCA3E0FDA3E0FEA3E02401FF49
:10CEC200E43EFEE43DFDE43CFC90090A123AC990BE
:10CED200090AA3A3A3E05401FFE4FEFDFCFBFAF957
:10CEE200F8C3123A92700C90090A123AD500000067
:0ECEF20000B2B0900884E030E3031283822285
:10E66400E49008E0F09003CAE004F090090A123A3A
:0BE67400D50000000012E81B02E9497D
:109DEC0090090AE0FCA3E0FDA3E0FEA3E02401FF40
:109DFC00E43EFEE43DFDE43CFC90090A123AC990B5
:109E0C00090AA3A3A3E05401FFE4FEFDFCFBFAF94D
:109E1C00F8C3123A92700EB2B09005EFF09008921F
:109E2C00F09008E0F0E47F06FEFDFC90090AE0F8F3
:109E3C00A3E0F9A3E0FAA3E0FBC3123A92701090EE
:109E4C00090A123AD5000000009003CAE004F0227F
:10BD000090090AE0FCA3E0FDA3E0FEA3E02401FF0C
:10BD1000E43EFEE43DFDE43CFC90090A123AC99081
:10BD2000090AA3A3A3E05401FFE4FEFDFCFBFAF91A
:10BD3000F8C3123A92702090090A123AD500000016
:10BD400000B2B09003CAE004F0E49005EFF0900870
:08BD500092F09008E004F022DB
:10CB420090090AE0FCA3E0FDA3E0FEA3E02401FFBC
:10CB5200E43EFEE43DFDE43CFC90090A123AC99031
:10CB6200090AA3A3A3E05401FFE4FEFDFCFBFAF9CA
:10CB7200F8C3123A92700C90090A123AD5000000DA
:10CB820000B2B0900884E030E3067480F01283852E
:01CB92002280
:10E2E700E49008E0F09003CAE04404F0E004F09002
:10E2F700090A123AD5000000009004E1123AD5004D
:09E3070000000012E81B02E949C4
:109AD20090090AE0FCA3E0FDA3E0FEA3E02401FF5D
:109AE200E43EFEE43DFDE43CFC90090A123AC990D2
:109AF200090AA3A3A3E05401FFE4FEFDFCFBFAF96B
:109B0200F8C3123A92700EB2B09005EFF09008923C
:109B1200F09008E0F0E47F06FEFDFC90090AE0F810
:109B2200A3E0F9A3E0FAA3E0FBC3123A9270149007
:109B3200090A123AD5000000009003CAE04404F07A
:049B4200E004F02229
:10A9420090090AE0FCA3E0FDA3E0FEA3E02401FFDE
:10A95200E43EFEE43DFDE43CFC90090A123AC9E4FF
:10A962007F02FEFDFC90090AE0F8A3E0F9A3E0FAF9
:10A97200A3E0FBC3123A92702490090A123AD5005E
:10A98200000000B2B09003CAE04404F0E004F0E436
:0EA992009005EFF0900892F09008E004F0229B
:10BAE9009003CAE04404F090090AE0FCA3E0FDA336
:10BAF900E0FEA3E02401FFE43EFEE43DFDE43CFC5E
:10BB090090090A123AC9E47F02FEFDFC90090AE095
:10BB1900F8A3E0F9A3E0FAA3E0FBC3123A92700C90
:10BB290090090A123AD500000000B2B0900884E0EA
:0ABB390030E3067480F012838522C9
:10E67F00E49008E0F09003CAE004F090090A123A1F
:0BE68F00D50000000012E81B02E94962
:109E5C0090090AE0FCA3E0FDA3E0FEA3E02401FFCF
:109E6C00E43EFEE43DFDE43CFC90090A123AC99044
:109E7C00090AA3A3A3E05401FFE4FEFDFCFBFAF9DD
:109E8C00F8C3123A92700EB2B09005EFF0900892AF
:109E9C00F09008E0F0E47F06FEFDFC90090AE0F883
:109EAC00A3E0F9A3E0FAA3E0FBC3123A927010907E
:109EBC00090A123AD5000000009003CAE004F0220F
:10BB430090090AE0FCA3E0FDA3E0FEA3E02401FFCB
:10BB5300E43EFEE43DFDE43CFC90090A123AC9E4EC
:10BB63007F02FEFDFC90090AE0F8A3E0F9A3E0FAE6
:10BB7300A3E0FBC3123A92702090090A123AD5004F
:10BB8300000000B2B09003CAE004F0E49005EFF0C7
:0ABB9300900892F09008E004F02200
:10CA9C0090090AE0FCA3E0FDA3E0FEA3E02401FF63
:10CAAC00E43EFEE43DFDE43CFC90090A123AC9E484
:10CABC007F02FEFDFC90090AE0F8A3E0F9A3E0FA7E
:10CACC00A3E0FBC3123A92700C90090A123AD500FB
:10CADC00000000B2B0900884E030E3067480F012DD
:03CAEC008385221D
:10CF000090090AE0FCA3E0FDA3E0FEA3E02401FFFA
:10CF1000E43EFEE43DFDE43CFC90090A123AC9906F
:10CF2000090AA3A3A3E05401FFE4FEFDFCFBFAF908
:10CF3000F8C3123A92701690090A123AD50000000E
:0ECF4000001259099003CAE054FC4402F0228A
:10C6470090090AE0FCA3E0FDA3E0FEA3E02401FFBC
:10C65700E43EFEE43DFDE43CFC90090A123AC99031
:10C66700090AA3A3A3E05401FFE4FEFDFCFBFAF9CA
:10C67700F8C3123A92701F90090A123AD5000000C7
:10C6870000B2B09003CAE054FC4401F090090A12CA
:07C697003AD500000000226B
:1087C7009005F0E0FCA3E0FDA3E0FEA3E0FF900925
:1087D7000AE0F8A3E0F9A3E0FAA3E0FBC3123A9298
:1087E700703B900608E0FCA3E0FDA3E0FEA3E0FFDA
:1087F700EC4D4E4F601F900608A3A3A3E024FFFF94
:10880700EE34FFFEED34FFFDEC34FFFC900608125A
:108817003AC9B2B0229003CAE054FCF02290090A88
:10882700E0FCA3E0FDA3E0FEA3E02401FFE43EFE9D
:10883700E43DFDE43CFC90090A123AC990090AA3F9
:10884700A3A3E05401FFE4FEFDFCFBFAF9F8C31211
:108857003A927002B2B090090AA3A3A3E0543FFF73
:10886700E4FEFDFCFBFAF9F8C3123A92701990087E
:108877002FE0D394055010900884E020E70912599F
:088887001690082FE004F02216
:10C69E0090090A123AD5000000009003CAE0441037
:10C6AE00F0E49008E0F0C2B0900884F0900892F0A8
:10C6BE00900615F09003CBF09008F5F09005EFF092
:10C6CE009003DAF0900818F09003D3F0A3F09006E0
:10C6DE0008123AD50000000012933190087DE060F8
:07C6EE0005E4F012E38D22C8
:10CF4E0090090AE0FCA3E0FDA3E0FEA3E02401FFAC
:10CF5E00E43EFEE43DFDE43CFC90090A123AC99021
:10CF6E00090AA3A3A3E05401FFE4FEFDFCFBFAF9BA
:10CF7E00F8C3123A92701690090A123AD5000000C0
:0ECF8E00001259099003CAE054FC4402F0223C
:10C6F50090090AE0FCA3E0FDA3E0FEA3E02401FF0E
:10C70500E43EFEE43DFDE43CFC90090A123AC99082
:10C71500090AA3A3A3E05401FFE4FEFDFCFBFAF91B
:10C72500F8C3123A92701F90090A123AD500000018
:10C7350000B2B09003CAE054FC4401F090090A121B
:07C745003AD50000000022BC
:10888F009005F0E0FCA3E0FDA3E0FEA3E0FF90095C
:10889F000AE0F8A3E0F9A3E0FAA3E0FBC3123A92CF
:1088AF00703B900608E0FCA3E0FDA3E0FEA3E0FF11
:1088BF00EC4D4E4F601F900608A3A3A3E024FFFFCB
:1088CF00EE34FFFEED34FFFDEC34FFFC9006081292
:1088DF003AC9B2B0229003CAE054FCF02290090AC0
:1088EF00E0FCA3E0FDA3E0FEA3E02401FFE43EFED5
:1088FF00E43DFDE43CFC90090A123AC990090AA331
:10890F00A3A3E05401FFE4FEFDFCFBFAF9F8C31248
:10891F003A927002B2B090090AA3A3A3E0543FFFAA
:10892F00E4FEFDFCFBFAF9F8C3123A9270199008B5
:10893F002FE0D394055010900884E020E7091259D6
:08894F001690082FE004F0224D
:10CF9C0090090A123AD5000000009003CAE0441030
:10CFAC00F054F0F0E49008E0F0C2B0900884F090F7
:10CFBC000892F0900615F09003CBF09008F5F090E5
:10CFCC0005EFF09003DAF0900818F09003D3F0A37B
:0ECFDC00F0900608123AD500000000029331D2
:10CFEA0090090AE0FCA3E0FDA3E0FEA3E02401FF10
:10CFFA00E43EFEE43DFDE43CFC90090A123AC99085
:10D00A00090AA3A3A3E05401FFE4FEFDFCFBFAF91D
:10D01A00F8C3123A92701690090A123AD500000023
:0ED02A00001259099003CAE054FC4402F0229F
:10D2A80090090AE0FCA3E0FDA3E0FEA3E02401FF4F
:10D2B800E43EFEE43DFDE43CFC90090A123AC990C4
:10D2C800090AA3A3A3E05401FFE4FEFDFCFBFAF95D
:10D2D800F8C3123A927015B2B09003CAE054FC44F5
:0DD2E80001F090090A123AD5000000002262
:108957009005F0E0FCA3E0FDA3E0FEA3E0FF900993
:108967000AE0F8A3E0F9A3E0FAA3E0FBC3123A9206
:10897700703B900608E0FCA3E0FDA3E0FEA3E0FF48
:10898700EC4D4E4F601F900608A3A3A3E024FFFF02
:10899700EE34FFFEED34FFFDEC34FFFC90060812C9
:1089A7003AC9B2B0229003CAE054FCF02290090AF7
:1089B700E0FCA3E0FDA3E0FEA3E02401FFE43EFE0C
:1089C700E43DFDE43CFC90090A123AC990090AA368
:1089D700A3A3E05401FFE4FEFDFCFBFAF9F8C31280
:1089E7003A927002B2B090090AA3A3A3E0543FFFE2
:1089F700E4FEFDFCFBFAF9F8C3123A9270199008ED
:108A07002FE0D394055010900884E020E70912590D
:088A17001690082FE004F02284
:10D5100090090A123AD5000000009003CAE04414B2
:10D52000F0E49008E0F0C2B0900884F0900892F027
:10D53000900615F09003CBF09008F5F09005EFF011
:10D540009003DAF0900818F09003D3F0A3F090065F
:0BD5500008123AD500000000029331E1
:10B64A0090090AE0FCA3E0FDA3E0FEA3E02401FFC9
:10B65A00E43EFEE43DFDE43CFC90090A123AC9903E
:10B66A00090AA3A3A3E05401FFE4FEFDFCFBFAF9D7
:10B67A00F8C3123A92702390090A123AD5000000D0
:10B68A0000B2B090082F7408F0E4900884F01259C0
:0BB69A00169003CAE054FC4402F022AA
:10D2F50090090AE0FCA3E0FDA3E0FEA3E02401FF02
:10D30500E43EFEE43DFDE43CFC90090A123AC99076
:10D31500090AA3A3A3E05401FFE4FEFDFCFBFAF90F
:10D32500F8C3123A927015B2B09003CAE054FC44A7
:0DD3350001F090090A123AD5000000002214
:108A1F009005F0E0FCA3E0FDA3E0FEA3E0FF9009CA
:108A2F000AE0F8A3E0F9A3E0FAA3E0FBC3123A923D
:108A3F00703B900608E0FCA3E0FDA3E0FEA3E0FF7F
:108A4F00EC4D4E4F601F900608A3A3A3E024FFFF39
:108A5F00EE34FFFEED34FFFDEC34FFFC9006081200
:108A6F003AC9B2B0229003CAE054FCF02290090A2E
:108A7F00E0FCA3E0FDA3E0FEA3E02401FFE43EFE43
:108A8F00E43DFDE43CFC90090A123AC990090AA39F
:108A9F00A3A3E05401FFE4FEFDFCFBFAF9F8C312B7
:108AAF003A927002B2B090090AA3A3A3E0543FFF19
:108ABF00E4FEFDFCFBFAF9F8C3123A927019900824
:108ACF002FE0D394055010900884E020E709125945
:088ADF001690082FE004F022BC
:10D55B0090090A123AD5000000009003CAE044106B
:10D56B00F0E49008E0F0C2B0900884F0900892F0DC
:10D57B00900615F09003CBF09008F5F09005EFF0C6
:10D58B009003DAF0900818F09003D3F0A3F0900614
:0BD59B0008123AD50000000002933196
:0BE9A50090090A123AD5000000002281
:08E9DE009003CAE054FCF02292
:08E9E6009003CAE054FCF0228A
:08E9EE009003CAE054FCF02282
:10E69A00E49008E0F09003CAE004F09004E1123A32
:0BE6AA00D50000000012E81B02E94947
:109ECC009004E1E0FCA3E0FDA3E0FEA3E02401FF8D
:109EDC00E43EFEE43DFDE43CFC9004E1123AC99002
:109EEC0004E1A3A3A3E05401FFE4FEFDFCFBFAF99B
:109EFC00F8C3123A92700EB2B09005EFF09008923F
:109F0C00F09008E0F0E47F06FEFDFC9004E1E0F840
:109F1C00A3E0F9A3E0FAA3E0FBC3123A927010900D
:109F2C0004E1123AD5000000009003CAE004F022CC
:10BD58009004E1E0FCA3E0FDA3E0FEA3E02401FFE2
:10BD6800E43EFEE43DFDE43CFC9004E1123AC99057
:10BD780004E1A3A3A3E05401FFE4FEFDFCFBFAF9F0
:10BD8800F8C3123A9270209004E1123AD5000000EC
:10BD980000B2B09003CAE004F0E49005EFF0900818
:08BDA80092F09008E004F02283
:10CB93009004E1E0FCA3E0FDA3E0FEA3E02401FF99
:10CBA300E43EFEE43DFDE43CFC9004E1123AC9900E
:10CBB30004E1A3A3A3E05401FFE4FEFDFCFBFAF9A7
:10CBC300F8C3123A92700C9004E1123AD5000000B7
:10CBD30000B2B0900884E030E3067480F0128385DD
:01CBE300222F
:10D038009004E1E0FCA3E0FDA3E0FEA3E02401FFEF
:10D04800E43EFEE43DFDE43CFC9004E1123AC99064
:10D0580004E1A3A3A3E05401FFE4FEFDFCFBFAF9FD
:10D06800F8C3123A9270169004E1123AD500000003
:0ED07800001259099003CAE054FC4402F02251
:10C74C009004E1E0FCA3E0FDA3E0FEA3E02401FFE4
:10C75C00E43EFEE43DFDE43CFC9004E1123AC99059
:10C76C0004E1A3A3A3E05401FFE4FEFDFCFBFAF9F2
:10C77C00F8C3123A92701F9004E1123AD5000000EF
:10C78C0000B2B09004E1123AD5000000009003CA48
:07C79C00E054FC4401F0220F
:108AE7009005F0E0FCA3E0FDA3E0FEA3E0FF900407
:108AF700E1E0F8A3E0F9A3E0FAA3E0FBC3123A929E
:108B0700703B900608E0FCA3E0FDA3E0FEA3E0FFB6
:108B1700EC4D4E4F601F900608A3A3A3E024FFFF70
:108B2700EE34FFFEED34FFFDEC34FFFC9006081237
:108B37003AC9B2B0229003CAE054FCF0229004E193
:108B4700E0FCA3E0FDA3E0FEA3E02401FFE43EFE7A
:108B5700E43DFDE43CFC9004E1123AC99004E1A332
:108B6700A3A3E05401FFE4FEFDFCFBFAF9F8C312EE
:108B77003A927002B2B09004E1A3A3A3E0543FFF7E
:108B8700E4FEFDFCFBFAF9F8C3123A92701990085B
:108B97002FE0D394055010900884E020E70912597C
:088BA7001690082FE004F022F3
:10D5A6009004E1123AD5000000009003CAE044045A
:10D5B600F0E49008E0F0C2B0900884F0900892F091
:10D5C600900615F09003CBF09008F5F09005EFF07B
:10D5D6009003DAF0900818F09003D3F0A3F09006C9
:0BD5E60008123AD5000000000293314B
:10200E009004E1123AD50000000090090A123AD568
:05201E0000000000229B
:08E9F6009003CAE054FCF0227A
:08E9FE009003CAE054FCF02272
:08EA06009003CAE054FCF02269
:10DBD80012E2009005F5E0FCA3E0FDA3E0FEA3E05F
:10DBE800FF900611E0F8A3E0F9A3E0FAA3E0FBC375
:10DBF800123A9270169003CAE004F0900611123A95
:0CDC0800D50000000012E81B12E94922C0
:109F3C00900611E0FCA3E0FDA3E0FEA3E02401FFEA
:109F4C00E43EFEE43DFDE43CFC900611123AC9905F
:109F5C000611A3A3A3E05401FFE4FEFDFCFBFAF9F8
:109F6C00F8C3123A92700EB2B09005EFF0900892CE
:109F7C00F09008E0F0E47F30FEFDFC900611E0F874
:109F8C00A3E0F9A3E0FAA3E0FBC3123A927010909D
:109F9C000611123AD5000000009003CAE004F0222A
:10BDB000900611E0FCA3E0FDA3E0FEA3E02401FF58
:10BDC000E43EFEE43DFDE43CFC900611123AC990CD
:10BDD0000611A3A3A3E05401FFE4FEFDFCFBFAF966
:10BDE000F8C3123A927020900611123AD500000062
:10BDF00000B2B09003CAE004F0E49005EFF09008C0
:08BE000092F09008E004F0222A
:10C8A600900611E0FCA3E0FDA3E0FEA3E02401FF57
:10C8B600E43EFEE43DFDE43CFC900611123AC990CC
:10C8C6000611A3A3A3E05401FFE4FEFDFCFBFAF965
:10C8D600F8C3123A92700C900611123AD500000075
:10C8E60000B2B0900884E030E3097480F0128385CA
:04C8F60012E2242204
:10DC140012E2009005F5E0FCA3E0FDA3E0FEA3E022
:10DC2400FF900611E0F8A3E0F9A3E0FAA3E0FBC338
:10DC3400123A9270169003CAE004F0900611123A58
:0CDC4400D50000000012E81B12E9492284
:109FAC00900611E0FCA3E0FDA3E0FEA3E02401FF7A
:109FBC00E43EFEE43DFDE43CFC900611123AC990EF
:109FCC000611A3A3A3E05401FFE4FEFDFCFBFAF988
:109FDC00F8C3123A92700EB2B09005EFF09008925E
:109FEC00F09008E0F0E47F30FEFDFC900611E0F804
:109FFC00A3E0F9A3E0FAA3E0FBC3123A927010902D
:10A00C000611123AD5000000009003CAE004F022B9
:10BE0800900611E0FCA3E0FDA3E0FEA3E02401FFFF
:10BE1800E43EFEE43DFDE43CFC900611123AC99074
:10BE28000611A3A3A3E05401FFE4FEFDFCFBFAF90D
:10BE3800F8C3123A927020900611123AD500000009
:10BE480000B2B09003CAE004F0E49005EFF0900867
:08BE580092F09008E004F022D2
:10B6A500900611E0FCA3E0FDA3E0FEA3E02401FF6A
:10B6B500E43EFEE43DFDE43CFC900611123AC990DF
:10B6C50003CAE054F3F0900611A3A3A3E05401FFCD
:10B6D500E4FEFDFCFBFAF9F8C3123A92700C9006F1
:10B6E50011123AD500000000B2B0900884E030E3B2
:0BB6F500097480F012838512E2242209
:10DC500012E2009005F5E0FCA3E0FDA3E0FEA3E0E6
:10DC6000FF900611E0F8A3E0F9A3E0FAA3E0FBC3FC
:10DC7000123A9270169003CAE004F0900611123A1C
:0CDC8000D50000000012E81B12E9492248
:10A01C00900611E0FCA3E0FDA3E0FEA3E02401FF09
:10A02C00E43EFEE43DFDE43CFC900611123AC9907E
:10A03C000611A3A3A3E05401FFE4FEFDFCFBFAF917
:10A04C00F8C3123A92700EB2B09005EFF0900892ED
:10A05C00F09008E0F0E47F30FEFDFC900611E0F893
:10A06C00A3E0F9A3E0FAA3E0FBC3123A92701090BC
:10A07C000611123AD5000000009003CAE004F02249
:10BE6000900611E0FCA3E0FDA3E0FEA3E02401FFA7
:10BE7000E43EFEE43DFDE43CFC900611123AC9901C
:10BE80000611A3A3A3E05401FFE4FEFDFCFBFAF9B5
:10BE9000F8C3123A927020900611123AD5000000B1
:10BEA00000B2B09003CAE004F0E49005EFF090080F
:08BEB00092F09008E004F0227A
:10B70000900611E0FCA3E0FDA3E0FEA3E02401FF0E
:10B71000E43EFEE43DFDE43CFC900611123AC99083
:10B7200003CAE04404F0900611A3A3A3E05401FF70
:10B73000E4FEFDFCFBFAF9F8C3123A92700C900695
:10B7400011123AD500000000B2B0900884E030E356
:0BB75000097480F012838512E22422AD
:10DC8C0012E2009005F5E0FCA3E0FDA3E0FEA3E0AA
:10DC9C00FF900611E0F8A3E0F9A3E0FAA3E0FBC3C0
:10DCAC00123A9270169003CAE004F0900611123AE0
:0CDCBC00D50000000012E81B12E949220C
:10A08C00900611E0FCA3E0FDA3E0FEA3E02401FF99
:10A09C00E43EFEE43DFDE43CFC900611123AC9900E
:10A0AC000611A3A3A3E05401FFE4FEFDFCFBFAF9A7
:10A0BC00F8C3123A92700EB2B09005EFF09008927D
:10A0CC00F09008E0F0E47F30FEFDFC900611E0F823
:10A0DC00A3E0F9A3E0FAA3E0FBC3123A927010904C
:10A0EC000611123AD5000000009003CAE004F022D9
:10BEB800900611E0FCA3E0FDA3E0FEA3E02401FF4F
:10BEC800E43EFEE43DFDE43CFC900611123AC990C4
:10BED8000611A3A3A3E05401FFE4FEFDFCFBFAF95D
:10BEE800F8C3123A927020900611123AD500000059
:10BEF80000B2B09003CAE004F0E49005EFF09008B7
:08BF080092F09008E004F02221
:10C8FA00900611E0FCA3E0FDA3E0FEA3E02401FF03
:10C90A00E43EFEE43DFDE43CFC900611123AC99077
:10C91A000611A3A3A3E05401FFE4FEFDFCFBFAF910
:10C92A00F8C3123A92700C900611123AD500000020
:10C93A0000B2B0900884E030E3097480F012838575
:04C94A0012E22422AF
:10DCC80012E2009005F5E0FCA3E0FDA3E0FEA3E06E
:10DCD800FF900611E0F8A3E0F9A3E0FAA3E0FBC384
:10DCE800123A9270169003CAE004F0900611123AA4
:0CDCF800D50000000012E81B12E94922D0
:10A0FC00900611E0FCA3E0FDA3E0FEA3E02401FF29
:10A10C00E43EFEE43DFDE43CFC900611123AC9909D
:10A11C000611A3A3A3E05401FFE4FEFDFCFBFAF936
:10A12C00F8C3123A92700EB2B09005EFF09008920C
:10A13C00F09008E0F0E47F30FEFDFC900611E0F8B2
:10A14C00A3E0F9A3E0FAA3E0FBC3123A92701090DB
:10A15C000611123AD5000000009003CAE004F02268
:10BF1000900611E0FCA3E0FDA3E0FEA3E02401FFF6
:10BF2000E43EFEE43DFDE43CFC900611123AC9906B
:10BF30000611A3A3A3E05401FFE4FEFDFCFBFAF904
:10BF4000F8C3123A927020900611123AD500000000
:10BF500000B2B09003CAE004F0E49005EFF090085E
:08BF600092F09008E004F022C9
:10B75B00900611E0FCA3E0FDA3E0FEA3E02401FFB3
:10B76B00E43EFEE43DFDE43CFC900611123AC99028
:10B77B0003CAE054CFF0900611A3A3A3E05401FF3A
:10B78B00E4FEFDFCFBFAF9F8C3123A92700C90063A
:10B79B0011123AD500000000B2B0900884E030E3FB
:0BB7AB00097480F012838512E2242252
:10DD040012E2009005F5E0FCA3E0FDA3E0FEA3E031
:10DD1400FF900611E0F8A3E0F9A3E0FAA3E0FBC347
:10DD2400123A9270169003CAE004F0900611123A67
:0CDD3400D50000000012E81B12E9492293
:10A16C00900611E0FCA3E0FDA3E0FEA3E02401FFB8
:10A17C00E43EFEE43DFDE43CFC900611123AC9902D
:10A18C000611A3A3A3E05401FFE4FEFDFCFBFAF9C6
:10A19C00F8C3123A92700EB2B09005EFF09008929C
:10A1AC00F09008E0F0E47F30FEFDFC900611E0F842
:10A1BC00A3E0F9A3E0FAA3E0FBC3123A927010906B
:10A1CC000611123AD5000000009003CAE004F022F8
:10BF6800900611E0FCA3E0FDA3E0FEA3E02401FF9E
:10BF7800E43EFEE43DFDE43CFC900611123AC99013
:10BF88000611A3A3A3E05401FFE4FEFDFCFBFAF9AC
:10BF9800F8C3123A927020900611123AD5000000A8
:10BFA80000B2B09003CAE004F0E49005EFF0900806
:08BFB80092F09008E004F02271
:10B7B600900611E0FCA3E0FDA3E0FEA3E02401FF58
:10B7C600E43EFEE43DFDE43CFC900611123AC990CD
:10B7D60003CAE054C3F0900611A3A3A3E05401FFEB
:10B7E600E4FEFDFCFBFAF9F8C3123A92700C9006DF
:10B7F60011123AD500000000B2B0900884E030E3A0
:0BB80600097480F012838512E22422F6
:10DD400012E2009005F5E0FCA3E0FDA3E0FEA3E0F5
:10DD5000FF900611E0F8A3E0F9A3E0FAA3E0FBC30B
:10DD6000123A9270169003CAE004F0900611123A2B
:0CDD7000D50000000012E81B12E9492257
:10A1DC00900611E0FCA3E0FDA3E0FEA3E02401FF48
:10A1EC00E43EFEE43DFDE43CFC900611123AC990BD
:10A1FC000611A3A3A3E05401FFE4FEFDFCFBFAF956
:10A20C00F8C3123A92700EB2B09005EFF09008922B
:10A21C00F09008E0F0E47F30FEFDFC900611E0F8D1
:10A22C00A3E0F9A3E0FAA3E0FBC3123A92701090FA
:10A23C000611123AD5000000009003CAE004F02287
:10BFC000900611E0FCA3E0FDA3E0FEA3E02401FF46
:10BFD000E43EFEE43DFDE43CFC900611123AC990BB
:10BFE0000611A3A3A3E05401FFE4FEFDFCFBFAF954
:10BFF000F8C3123A927020900611123AD500000050
:10C0000000B2B09003CAE004F0E49005EFF09008AD
:08C0100092F09008E004F02218
:10A9A000900611E0FCA3E0FDA3E0FEA3E02401FF7C
:10A9B000E43EFEE43DFDE43CFC900611123AC990F1
:10A9C00003CAE04404F054CFF0900611A3A3A3E01F
:10A9D0005401FFE4FEFDFCFBFAF9F8C3123A927051
:10A9E0000C900611123AD500000000B2B090088415
:0EA9F000E030E3097480F012838512E2242225
:10DD7C0012E2009005F5E0FCA3E0FDA3E0FEA3E0B9
:10DD8C00FF900611E0F8A3E0F9A3E0FAA3E0FBC3CF
:10DD9C00123A9270169003CAE004F0900611123AEF
:0CDDAC00D50000000012E81B12E949221B
:10A24C00900611E0FCA3E0FDA3E0FEA3E02401FFD7
:10A25C00E43EFEE43DFDE43CFC900611123AC9904C
:10A26C000611A3A3A3E05401FFE4FEFDFCFBFAF9E5
:10A27C00F8C3123A92700EB2B09005EFF0900892BB
:10A28C00F09008E0F0E47F30FEFDFC900611E0F861
:10A29C00A3E0F9A3E0FAA3E0FBC3123A927010908A
:10A2AC000611123AD5000000009003CAE004F02217
:10C01800900611E0FCA3E0FDA3E0FEA3E02401FFED
:10C02800E43EFEE43DFDE43CFC900611123AC99062
:10C038000611A3A3A3E05401FFE4FEFDFCFBFAF9FB
:10C04800F8C3123A927020900611123AD5000000F7
:10C0580000B2B09003CAE004F0E49005EFF0900855
:08C0680092F09008E004F022C0
:10B81100900611E0FCA3E0FDA3E0FEA3E02401FFFC
:10B82100E43EFEE43DFDE43CFC900611123AC99071
:10B8310003CAE054CFF0900611A3A3A3E05401FF83
:10B84100E4FEFDFCFBFAF9F8C3123A92700C900683
:10B8510011123AD500000000B2B0900884E030E344
:0BB86100097480F012838512E224229B
:10DDB80012E2009005F5E0FCA3E0FDA3E0FEA3E07D
:10DDC800FF900611E0F8A3E0F9A3E0FAA3E0FBC393
:10DDD800123A9270169003CAE004F0900611123AB3
:0CDDE800D50000000012E81B12E94922DF
:10A2BC00900611E0FCA3E0FDA3E0FEA3E02401FF67
:10A2CC00E43EFEE43DFDE43CFC900611123AC990DC
:10A2DC000611A3A3A3E05401FFE4FEFDFCFBFAF975
:10A2EC00F8C3123A92700EB2B09005EFF09008924B
:10A2FC00F09008E0F0E47F30FEFDFC900611E0F8F1
:10A30C00A3E0F9A3E0FAA3E0FBC3123A9270109019
:10A31C000611123AD5000000009003CAE004F022A6
:10C07000900611E0FCA3E0FDA3E0FEA3E02401FF95
:10C08000E43EFEE43DFDE43CFC900611123AC9900A
:10C090000611A3A3A3E05401FFE4FEFDFCFBFAF9A3
:10C0A000F8C3123A927020900611123AD50000009F
:10C0B00000B2B09003CAE004F0E49005EFF09008FD
:08C0C00092F09008E004F02268
:10B86C00900611E0FCA3E0FDA3E0FEA3E02401FFA1
:10B87C00E43EFEE43DFDE43CFC900611123AC99016
:10B88C0003CAE04410F0900611A3A3A3E05401FFF7
:10B89C00E4FEFDFCFBFAF9F8C3123A92700C900628
:10B8AC0011123AD500000000B2B0900884E030E3E9
:0BB8BC00097480F012838512E2242240
:10DDF40012E2009005F5E0FCA3E0FDA3E0FEA3E041
:10DE0400FF900611E0F8A3E0F9A3E0FAA3E0FBC356
:10DE1400123A9270169003CAE004F0900611123A76
:0CDE2400D50000000012E81B12E94922A2
:10A32C00900611E0FCA3E0FDA3E0FEA3E02401FFF6
:10A33C00E43EFEE43DFDE43CFC900611123AC9906B
:10A34C000611A3A3A3E05401FFE4FEFDFCFBFAF904
:10A35C00F8C3123A92700EB2B09005EFF0900892DA
:10A36C00F09008E0F0E47F30FEFDFC900611E0F880
:10A37C00A3E0F9A3E0FAA3E0FBC3123A92701090A9
:10A38C000611123AD5000000009003CAE004F02236
:10C0C800900611E0FCA3E0FDA3E0FEA3E02401FF3D
:10C0D800E43EFEE43DFDE43CFC900611123AC990B2
:10C0E8000611A3A3A3E05401FFE4FEFDFCFBFAF94B
:10C0F800F8C3123A927020900611123AD500000047
:10C1080000B2B09003CAE004F0E49005EFF09008A4
:08C1180092F09008E004F0220F
:10A9FE00900611E0FCA3E0FDA3E0FEA3E02401FF1E
:10AA0E00E43EFEE43DFDE43CFC900611123AC99092
:10AA1E0003CAE04410F054F3F0900611A3A3A3E090
:10AA2E005401FFE4FEFDFCFBFAF9F8C3123A9270F2
:10AA3E000C900611123AD500000000B2B0900884B6
:0EAA4E00E030E3097480F012838512E22422C6
:10DE300012E2009005F5E0FCA3E0FDA3E0FEA3E004
:10DE4000FF900611E0F8A3E0F9A3E0FAA3E0FBC31A
:10DE5000123A9270169003CAE004F0900611123A3A
:0CDE6000D50000000012E81B12E9492266
:10A39C00900611E0FCA3E0FDA3E0FEA3E02401FF86
:10A3AC00E43EFEE43DFDE43CFC900611123AC990FB
:10A3BC000611A3A3A3E05401FFE4FEFDFCFBFAF994
:10A3CC00F8C3123A92700EB2B09005EFF09008926A
:10A3DC00F09008E0F0E47F30FEFDFC900611E0F810
:10A3EC00A3E0F9A3E0FAA3E0FBC3123A9270109039
:10A3FC000611123AD5000000009003CAE004F022C6
:10C12000900611E0FCA3E0FDA3E0FEA3E02401FFE4
:10C13000E43EFEE43DFDE43CFC900611123AC99059
:10C140000611A3A3A3E05401FFE4FEFDFCFBFAF9F2
:10C15000F8C3123A927020900611123AD5000000EE
:10C1600000B2B09003CAE004F0E49005EFF090084C
:08C1700092F09008E004F022B7
:10B8C700900611E0FCA3E0FDA3E0FEA3E02401FF46
:10B8D700E43EFEE43DFDE43CFC900611123AC990BB
:10B8E70003CAE04414F0900611A3A3A3E05401FF98
:10B8F700E4FEFDFCFBFAF9F8C3123A92700C9006CD
:10B9070011123AD500000000B2B0900884E030E38D
:0BB91700097480F012838512E22422E4
:10DE6C0012E2009005F5E0FCA3E0FDA3E0FEA3E0C8
:10DE7C00FF900611E0F8A3E0F9A3E0FAA3E0FBC3DE
:10DE8C00123A9270169003CAE004F0900611123AFE
:0CDE9C00D50000000012E81B12E949222A
:10A40C00900611E0FCA3E0FDA3E0FEA3E02401FF15
:10A41C00E43EFEE43DFDE43CFC900611123AC9908A
:10A42C000611A3A3A3E05401FFE4FEFDFCFBFAF923
:10A43C00F8C3123A92700EB2B09005EFF0900892F9
:10A44C00F09008E0F0E47F30FEFDFC900611E0F89F
:10A45C00A3E0F9A3E0FAA3E0FBC3123A92701090C8
:10A46C000611123AD5000000009003CAE004F02255
:10C17800900611E0FCA3E0FDA3E0FEA3E02401FF8C
:10C18800E43EFEE43DFDE43CFC900611123AC99001
:10C198000611A3A3A3E05401FFE4FEFDFCFBFAF99A
:10C1A800F8C3123A927020900611123AD500000096
:10C1B80000B2B09003CAE004F0E49005EFF09008F4
:08C1C80092F09008E004F0225F
:10B92200900611E0FCA3E0FDA3E0FEA3E02401FFEA
:10B93200E43EFEE43DFDE43CFC900611123AC9905F
:10B9420003CAE04410F0900611A3A3A3E05401FF40
:10B95200E4FEFDFCFBFAF9F8C3123A92700C900671
:10B9620011123AD500000000B2B0900884E030E332
:0BB97200097480F012838512E2242289
:10DEA80012E2009005F5E0FCA3E0FDA3E0FEA3E08C
:10DEB800FF900611E0F8A3E0F9A3E0FAA3E0FBC3A2
:10DEC800123A9270169003CAE004F0900611123AC2
:0CDED800D50000000012E81B12E94922EE
:10A47C00900611E0FCA3E0FDA3E0FEA3E02401FFA5
:10A48C00E43EFEE43DFDE43CFC900611123AC9901A
:10A49C000611A3A3A3E05401FFE4FEFDFCFBFAF9B3
:10A4AC00F8C3123A92700EB2B09005EFF090089289
:10A4BC00F09008E0F0E47F30FEFDFC900611E0F82F
:10A4CC00A3E0F9A3E0FAA3E0FBC3123A9270109058
:10A4DC000611123AD5000000009003CAE004F022E5
:10C1D000900611E0FCA3E0FDA3E0FEA3E02401FF34
:10C1E000E43EFEE43DFDE43CFC900611123AC990A9
:10C1F0000611A3A3A3E05401FFE4FEFDFCFBFAF942
:10C20000F8C3123A927020900611123AD50000003D
:10C2100000B2B09003CAE004F0E49005EFF090089B
:08C2200092F09008E004F02206
:10C94E00900611E0FCA3E0FDA3E0FEA3E02401FFAE
:10C95E00E43EFEE43DFDE43CFC900611123AC99023
:10C96E000611A3A3A3E05401FFE4FEFDFCFBFAF9BC
:10C97E00F8C3123A92700C900611123AD5000000CC
:10C98E0000B2B0900884E030E3097480F012838521
:04C99E0012E224225B
:10DEE40012E2009005F5E0FCA3E0FDA3E0FEA3E050
:10DEF400FF900611E0F8A3E0F9A3E0FAA3E0FBC366
:10DF0400123A9270169003CAE004F0900611123A85
:0CDF1400D50000000012E81B12E94922B1
:10A4EC00900611E0FCA3E0FDA3E0FEA3E02401FF35
:10A4FC00E43EFEE43DFDE43CFC900611123AC990AA
:10A50C000611A3A3A3E05401FFE4FEFDFCFBFAF942
:10A51C00F8C3123A92700EB2B09005EFF090089218
:10A52C00F09008E0F0E47F30FEFDFC900611E0F8BE
:10A53C00A3E0F9A3E0FAA3E0FBC3123A92701090E7
:10A54C000611123AD5000000009003CAE004F02274
:10C22800900611E0FCA3E0FDA3E0FEA3E02401FFDB
:10C23800E43EFEE43DFDE43CFC900611123AC99050
:10C248000611A3A3A3E05401FFE4FEFDFCFBFAF9E9
:10C25800F8C3123A927020900611123AD5000000E5
:10C2680000B2B09003CAE004F0E49005EFF0900843
:08C2780092F09008E004F022AE
:10B97D00900611E0FCA3E0FDA3E0FEA3E02401FF8F
:10B98D00E43EFEE43DFDE43CFC900611123AC99004
:10B99D0003CAE054F3F0900611A3A3A3E05401FFF2
:10B9AD00E4FEFDFCFBFAF9F8C3123A92700C900616
:10B9BD0011123AD500000000B2B0900884E030E3D7
:0BB9CD00097480F012838512E224222E
:10DF200012E2009005F5E0FCA3E0FDA3E0FEA3E013
:10DF3000FF900611E0F8A3E0F9A3E0FAA3E0FBC329
:10DF4000123A9270169003CAE004F0900611123A49
:0CDF5000D50000000012E81B12E9492275
:10A55C00900611E0FCA3E0FDA3E0FEA3E02401FFC4
:10A56C00E43EFEE43DFDE43CFC900611123AC99039
:10A57C000611A3A3A3E05401FFE4FEFDFCFBFAF9D2
:10A58C00F8C3123A92700EB2B09005EFF0900892A8
:10A59C00F09008E0F0E47F30FEFDFC900611E0F84E
:10A5AC00A3E0F9A3E0FAA3E0FBC3123A9270109077
:10A5BC000611123AD5000000009003CAE004F02204
:10C28000900611E0FCA3E0FDA3E0FEA3E02401FF83
:10C29000E43EFEE43DFDE43CFC900611123AC990F8
:10C2A0000611A3A3A3E05401FFE4FEFDFCFBFAF991
:10C2B000F8C3123A927020900611123AD50000008D
:10C2C00000B2B09003CAE004F0E49005EFF09008EB
:08C2D00092F09008E004F02256
:10B9D800900611E0FCA3E0FDA3E0FEA3E02401FF34
:10B9E800E43EFEE43DFDE43CFC900611123AC990A9
:10B9F80003CAE04404F0900611A3A3A3E05401FF96
:10BA0800E4FEFDFCFBFAF9F8C3123A92700C9006BA
:10BA180011123AD500000000B2B0900884E030E37B
:0BBA2800097480F012838512E22422D2
:10DF5C0012E2009005F5E0FCA3E0FDA3E0FEA3E0D7
:10DF6C00FF900611E0F8A3E0F9A3E0FAA3E0FBC3ED
:10DF7C00123A9270169003CAE004F0900611123A0D
:0CDF8C00D50000000012E81B12E9492239
:10A5CC00900611E0FCA3E0FDA3E0FEA3E02401FF54
:10A5DC00E43EFEE43DFDE43CFC900611123AC990C9
:10A5EC000611A3A3A3E05401FFE4FEFDFCFBFAF962
:10A5FC00F8C3123A92700EB2B09005EFF090089238
:10A60C00F09008E0F0E47F30FEFDFC900611E0F8DD
:10A61C00A3E0F9A3E0FAA3E0FBC3123A9270109006
:10A62C000611123AD5000000009003CAE004F02293
:10C2D800900611E0FCA3E0FDA3E0FEA3E02401FF2B
:10C2E800E43EFEE43DFDE43CFC900611123AC990A0
:10C2F8000611A3A3A3E05401FFE4FEFDFCFBFAF939
:10C30800F8C3123A927020900611123AD500000034
:10C3180000B2B09003CAE004F0E49005EFF0900892
:08C3280092F09008E004F022FD
:10C9A200900611E0FCA3E0FDA3E0FEA3E02401FF5A
:10C9B200E43EFEE43DFDE43CFC900611123AC990CF
:10C9C2000611A3A3A3E05401FFE4FEFDFCFBFAF968
:10C9D200F8C3123A92700C900611123AD500000078
:10C9E20000B2B0900884E030E3097480F0128385CD
:04C9F20012E2242207
:10AABA00900611E0FCA3E0FDA3E0FEA3E02401FF61
:10AACA00E43EFEE43DFDE43CFC900611123AC990D6
:10AADA000611A3A3A3E05401FFE4FEFDFCFBFAF96F
:10AAEA00F8C3123A927025900611123AD500000066
:10AAFA0000900904E030E70512E224800312E55AC7
:0DAB0A001259099003CAE054FC4402F022E5
:10B08A00900611E0FCA3E0FDA3E0FEA3E02401FF8B
:10B09A00E43EFEE43DFDE43CFC900611123AC99000
:10B0AA000611A3A3A3E05401FFE4FEFDFCFBFAF999
:10B0BA00F8C3123A927024900611123AD500000091
:10B0CA0000900904E030E70512E224800312E55AF1
:0CB0DA00B2B09003CAE054FC4401F02224
:107372009005F0E0FCA3E0FDA3E0FEA3E0FF900691
:1073820011E0F8A3E0F9A3E0FAA3E0FBC3123A92FA
:107392007065900608E0FCA3E0FDA3E0FEA3E0FF19
:1073A200EC4D4E4F6049900608A3A3A3E024FFFFD3
:1073B200EE34FFFEED34FFFDEC34FFFC90060812C4
:1073C2003AC9900608A3A3A3E05401FFE4FEFDFC22
:1073D200FBFAF9F8C3123A9260030274729009043C
:1073E200E030E70512E224800312E55AB2B022909F
:1073F20003CAE054FCF022900611E0FCA3E0FDA3D6
:10740200E0FEA3E02401FFE43EFEE43DFDE43CFC9B
:10741200900611123AC9900611A3A3A3E05401FFEA
:10742200E4FEFDFCFBFAF9F8C3123A9270119009DE
:1074320004E030E70512E224800312E55AB2B0906C
:107442000611A3A3A3E0543FFFE4FEFDFCFBFAF9FF
:10745200F8C3123A92701990082FE0D39405501095
:10746200900884E020E70912591690082FE004F0F2
:0174720022F7
:10D34200900611123AD50000000012E54CE4900854
:10D3520084F0900892F0900615F09003CBF09008BC
:10D36200F5F09005EFF09003DAF0900818F09003D2
:10D37200D3F0A3F0900608123AD5000000001293F1
:0DD382003190087DE06005E4F012E38D229B
:10AB1700900611E0FCA3E0FDA3E0FEA3E02401FF03
:10AB2700E43EFEE43DFDE43CFC900611123AC99078
:10AB37000611A3A3A3E05401FFE4FEFDFCFBFAF911
:10AB4700F8C3123A927025900611123AD500000008
:10AB570000900904E030E70512E224800312E55A69
:0DAB67001259099003CAE054FC4402F02288
:10B0E600900611E0FCA3E0FDA3E0FEA3E02401FF2F
:10B0F600E43EFEE43DFDE43CFC900611123AC990A4
:10B106000611A3A3A3E05401FFE4FEFDFCFBFAF93C
:10B11600F8C3123A927024900611123AD500000034
:10B1260000900904E030E70512E224800312E55A94
:0CB13600B2B09003CAE054FC4401F022C7
:107473009005F0E0FCA3E0FDA3E0FEA3E0FF90068F
:1074830011E0F8A3E0F9A3E0FAA3E0FBC3123A92F8
:107493007065900608E0FCA3E0FDA3E0FEA3E0FF17
:1074A300EC4D4E4F6049900608A3A3A3E024FFFFD1
:1074B300EE34FFFEED34FFFDEC34FFFC90060812C2
:1074C3003AC9900608A3A3A3E05401FFE4FEFDFC20
:1074D300FBFAF9F8C3123A92600302757390090438
:1074E300E030E70512E224800312E55AB2B022909D
:1074F30003CAE054FCF022900611E0FCA3E0FDA3D4
:10750300E0FEA3E02401FFE43EFEE43DFDE43CFC99
:10751300900611123AC9900611A3A3A3E05401FFE8
:10752300E4FEFDFCFBFAF9F8C3123A9270119009DC
:1075330004E030E70512E224800312E55AB2B0906A
:107543000611A3A3A3E0543FFFE4FEFDFCFBFAF9FD
:10755300F8C3123A92701990082FE0D39405501093
:10756300900884E020E70912591690082FE004F0F0
:0175730022F5
:10D76800900611123AD5000000009003CAE0444028
:10D77800F054F012E552E4900884F0900892F0908A
:10D788000615F09003CBF09008F5F09005EFF090B7
:10D7980003DAF0900818F09003D3F0A3F09006088D
:0AD7A800123AD50000000002933190
:10AB7400900611E0FCA3E0FDA3E0FEA3E02401FFA6
:10AB8400E43EFEE43DFDE43CFC900611123AC9901B
:10AB94000611A3A3A3E05401FFE4FEFDFCFBFAF9B4
:10ABA400F8C3123A927025900611123AD5000000AB
:10ABB40000900904E030E70512E224800312E55A0C
:0DABC4001259099003CAE054FC4402F0222B
:10B14200900611E0FCA3E0FDA3E0FEA3E02401FFD2
:10B15200E43EFEE43DFDE43CFC900611123AC99047
:10B162000611A3A3A3E05401FFE4FEFDFCFBFAF9E0
:10B17200F8C3123A927024900611123AD5000000D8
:10B1820000900904E030E70512E224800312E55A38
:0CB19200B2B09003CAE054FC4401F0226B
:107574009005F0E0FCA3E0FDA3E0FEA3E0FF90068D
:1075840011E0F8A3E0F9A3E0FAA3E0FBC3123A92F6
:107594007065900608E0FCA3E0FDA3E0FEA3E0FF15
:1075A400EC4D4E4F6049900608A3A3A3E024FFFFCF
:1075B400EE34FFFEED34FFFDEC34FFFC90060812C0
:1075C4003AC9900608A3A3A3E05401FFE4FEFDFC1E
:1075D400FBFAF9F8C3123A92600302767490090434
:1075E400E030E70512E224800312E55AB2B022909B
:1075F40003CAE054FCF022900611E0FCA3E0FDA3D2
:10760400E0FEA3E02401FFE43EFEE43DFDE43CFC97
:10761400900611123AC9900611A3A3A3E05401FFE6
:10762400E4FEFDFCFBFAF9F8C3123A9270119009DA
:1076340004E030E70512E224800312E55AB2B09068
:107644000611A3A3A3E0543FFFE4FEFDFCFBFAF9FB
:10765400F8C3123A92701990082FE0D39405501091
:10766400900884E020E70912591690082FE004F0EE
:0176740022F3
:10D9B400900611123AD5000000009003CAE04444D6
:10D9C40012E552E4900884F0900892F0900615F065
:10D9D4009003CBF09008F5F09005EFF09003DAF0A7
:10D9E400900818F09003D3F0A3F0900608123AD5EB
:07D9F4000000000002933166
:10ABD100900611E0FCA3E0FDA3E0FEA3E02401FF49
:10ABE100E43EFEE43DFDE43CFC900611123AC990BE
:10ABF1000611A3A3A3E05401FFE4FEFDFCFBFAF957
:10AC0100F8C3123A927025900611123AD50000004D
:10AC110000900904E030E70512E224800312E55AAE
:0DAC21001259099003CAE054FC4402F022CD
:10B19E00900611E0FCA3E0FDA3E0FEA3E02401FF76
:10B1AE00E43EFEE43DFDE43CFC900611123AC990EB
:10B1BE000611A3A3A3E05401FFE4FEFDFCFBFAF984
:10B1CE00F8C3123A927024900611123AD50000007C
:10B1DE0000900904E030E70512E224800312E55ADC
:0CB1EE00B2B09003CAE054FC4401F0220F
:107675009005F0E0FCA3E0FDA3E0FEA3E0FF90068B
:1076850011E0F8A3E0F9A3E0FAA3E0FBC3123A92F4
:107695007065900608E0FCA3E0FDA3E0FEA3E0FF13
:1076A500EC4D4E4F6049900608A3A3A3E024FFFFCD
:1076B500EE34FFFEED34FFFDEC34FFFC90060812BE
:1076C5003AC9900608A3A3A3E05401FFE4FEFDFC1C
:1076D500FBFAF9F8C3123A92600302777590090430
:1076E500E030E70512E224800312E55AB2B0229099
:1076F50003CAE054FCF022900611E0FCA3E0FDA3D0
:10770500E0FEA3E02401FFE43EFEE43DFDE43CFC95
:10771500900611123AC9900611A3A3A3E05401FFE4
:10772500E4FEFDFCFBFAF9F8C3123A9270119009D8
:1077350004E030E70512E224800312E55AB2B09066
:107745000611A3A3A3E0543FFFE4FEFDFCFBFAF9F9
:10775500F8C3123A92701990082FE0D3940550108F
:10776500900884E020E70912591690082FE004F0EC
:0177750022F1
:10DB1500900611123AD50000000012E54CE4900879
:10DB250084F0900892F0900615F09003CBF09008E1
:10DB3500F5F09005EFF09003DAF0900818F09003F7
:10DB4500D3F0A3F0900608123AD500000000029326
:01DB5500319E
:10AC2E00900611E0FCA3E0FDA3E0FEA3E02401FFEB
:10AC3E00E43EFEE43DFDE43CFC900611123AC99060
:10AC4E000611A3A3A3E05401FFE4FEFDFCFBFAF9F9
:10AC5E00F8C3123A927025900611123AD5000000F0
:10AC6E0000900904E030E70512E224800312E55A51
:0DAC7E001259099003CAE054FC4402F02270
:10B1FA00900611E0FCA3E0FDA3E0FEA3E02401FF1A
:10B20A00E43EFEE43DFDE43CFC900611123AC9908E
:10B21A000611A3A3A3E05401FFE4FEFDFCFBFAF927
:10B22A00F8C3123A927024900611123AD50000001F
:10B23A0000900904E030E70512E224800312E55A7F
:0CB24A00B2B09003CAE054FC4401F022B2
:107776009005F0E0FCA3E0FDA3E0FEA3E0FF900689
:1077860011E0F8A3E0F9A3E0FAA3E0FBC3123A92F2
:107796007065900608E0FCA3E0FDA3E0FEA3E0FF11
:1077A600EC4D4E4F6049900608A3A3A3E024FFFFCB
:1077B600EE34FFFEED34FFFDEC34FFFC90060812BC
:1077C6003AC9900608A3A3A3E05401FFE4FEFDFC1A
:1077D600FBFAF9F8C3123A9260030278769009042C
:1077E600E030E70512E224800312E55AB2B0229097
:1077F60003CAE054FCF022900611E0FCA3E0FDA3CE
:10780600E0FEA3E02401FFE43EFEE43DFDE43CFC93
:10781600900611123AC9900611A3A3A3E05401FFE2
:10782600E4FEFDFCFBFAF9F8C3123A9270119009D6
:1078360004E030E70512E224800312E55AB2B09064
:107846000611A3A3A3E0543FFFE4FEFDFCFBFAF9F7
:10785600F8C3123A92701990082FE0D3940550108D
:10786600900884E020E70912591690082FE004F0EA
:0178760022EF
:10D7B200900611123AD5000000009003CAE04440DE
:10D7C200F054C012E552E4900884F0900892F09070
:10D7D2000615F09003CBF09008F5F09005EFF0906D
:10D7E20003DAF0900818F09003D3F0A3F090060843
:0AD7F200123AD50000000002933146
:10AC8B00900611E0FCA3E0FDA3E0FEA3E02401FF8E
:10AC9B00E43EFEE43DFDE43CFC900611123AC99003
:10ACAB000611A3A3A3E05401FFE4FEFDFCFBFAF99C
:10ACBB00F8C3123A927025900611123AD500000093
:10ACCB0000900904E030E70512E224800312E55AF4
:0DACDB001259099003CAE054FC4402F02213
:10B25600900611E0FCA3E0FDA3E0FEA3E02401FFBD
:10B26600E43EFEE43DFDE43CFC900611123AC99032
:10B276000611A3A3A3E05401FFE4FEFDFCFBFAF9CB
:10B28600F8C3123A927024900611123AD5000000C3
:10B2960000900904E030E70512E224800312E55A23
:0CB2A600B2B09003CAE054FC4401F02256
:107877009005F0E0FCA3E0FDA3E0FEA3E0FF900687
:1078870011E0F8A3E0F9A3E0FAA3E0FBC3123A92F0
:107897007065900608E0FCA3E0FDA3E0FEA3E0FF0F
:1078A700EC4D4E4F6049900608A3A3A3E024FFFFC9
:1078B700EE34FFFEED34FFFDEC34FFFC90060812BA
:1078C7003AC9900608A3A3A3E05401FFE4FEFDFC18
:1078D700FBFAF9F8C3123A92600302797790090428
:1078E700E030E70512E224800312E55AB2B0229095
:1078F70003CAE054FCF022900611E0FCA3E0FDA3CC
:10790700E0FEA3E02401FFE43EFEE43DFDE43CFC91
:10791700900611123AC9900611A3A3A3E05401FFE0
:10792700E4FEFDFCFBFAF9F8C3123A9270119009D4
:1079370004E030E70512E224800312E55AB2B09062
:107947000611A3A3A3E0543FFFE4FEFDFCFBFAF9F5
:10795700F8C3123A92701990082FE0D3940550108B
:10796700900884E020E70912591690082FE004F0E8
:0179770022ED
:10D7FC00900611123AD5000000009003CAE0444094
:10D80C00F054C012E552E4900884F0900892F09025
:10D81C000615F09003CBF09008F5F09005EFF09022
:10D82C0003DAF0900818F09003D3F0A3F0900608F8
:0AD83C00123AD500000000029331FB
:10ACE800900611E0FCA3E0FDA3E0FEA3E02401FF31
:10ACF800E43EFEE43DFDE43CFC900611123AC990A6
:10AD08000611A3A3A3E05401FFE4FEFDFCFBFAF93E
:10AD1800F8C3123A927025900611123AD500000035
:10AD280000900904E030E70512E224800312E55A96
:0DAD38001259099003CAE054FC4402F022B5
:10B2B200900611E0FCA3E0FDA3E0FEA3E02401FF61
:10B2C200E43EFEE43DFDE43CFC900611123AC990D6
:10B2D2000611A3A3A3E05401FFE4FEFDFCFBFAF96F
:10B2E200F8C3123A927024900611123AD500000067
:10B2F20000900904E030E70512E224800312E55AC7
:0CB30200B2B09003CAE054FC4401F022F9
:107978009005F0E0FCA3E0FDA3E0FEA3E0FF900685
:1079880011E0F8A3E0F9A3E0FAA3E0FBC3123A92EE
:107998007065900608E0FCA3E0FDA3E0FEA3E0FF0D
:1079A800EC4D4E4F6049900608A3A3A3E024FFFFC7
:1079B800EE34FFFEED34FFFDEC34FFFC90060812B8
:1079C8003AC9900608A3A3A3E05401FFE4FEFDFC16
:1079D800FBFAF9F8C3123A926003027A7890090424
:1079E800E030E70512E224800312E55AB2B0229093
:1079F80003CAE054FCF022900611E0FCA3E0FDA3CA
:107A0800E0FEA3E02401FFE43EFEE43DFDE43CFC8F
:107A1800900611123AC9900611A3A3A3E05401FFDE
:107A2800E4FEFDFCFBFAF9F8C3123A9270119009D2
:107A380004E030E70512E224800312E55AB2B09060
:107A48000611A3A3A3E0543FFFE4FEFDFCFBFAF9F3
:107A5800F8C3123A92701990082FE0D39405501089
:107A6800900884E020E70912591690082FE004F0E6
:017A780022EB
:10AA5C00900611123AD5000000009003CAE044445D
:10AA6C00F054CCF0E49008E0F0C2B0900904E0306F
:10AA7C00E70512E224800312E55AE4900884F09072
:10AA8C000892F0900615F09003CBF09008F5F0903A
:10AA9C0005EFF09003DAF0900818F09003D3F0A3D0
:0EAAAC00F0900608123AD50000000002933127
:10AD4500900611E0FCA3E0FDA3E0FEA3E02401FFD3
:10AD5500E43EFEE43DFDE43CFC900611123AC99048
:10AD65000611A3A3A3E05401FFE4FEFDFCFBFAF9E1
:10AD7500F8C3123A927025900611123AD5000000D8
:10AD850000900904E030E70512E224800312E55A39
:0DAD95001259099003CAE054FC4402F02258
:10B30E00900611E0FCA3E0FDA3E0FEA3E02401FF04
:10B31E00E43EFEE43DFDE43CFC900611123AC99079
:10B32E000611A3A3A3E05401FFE4FEFDFCFBFAF912
:10B33E00F8C3123A927024900611123AD50000000A
:10B34E0000900904E030E70512E224800312E55A6A
:0CB35E00B2B09003CAE054FC4401F0229D
:107A79009005F0E0FCA3E0FDA3E0FEA3E0FF900683
:107A890011E0F8A3E0F9A3E0FAA3E0FBC3123A92EC
:107A99007065900608E0FCA3E0FDA3E0FEA3E0FF0B
:107AA900EC4D4E4F6049900608A3A3A3E024FFFFC5
:107AB900EE34FFFEED34FFFDEC34FFFC90060812B6
:107AC9003AC9900608A3A3A3E05401FFE4FEFDFC14
:107AD900FBFAF9F8C3123A926003027B7990090420
:107AE900E030E70512E224800312E55AB2B0229091
:107AF90003CAE054FCF022900611E0FCA3E0FDA3C8
:107B0900E0FEA3E02401FFE43EFEE43DFDE43CFC8D
:107B1900900611123AC9900611A3A3A3E05401FFDC
:107B2900E4FEFDFCFBFAF9F8C3123A9270119009D0
:107B390004E030E70512E224800312E55AB2B0905E
:107B49000611A3A3A3E0543FFFE4FEFDFCFBFAF9F1
:107B5900F8C3123A92701990082FE0D39405501087
:107B6900900884E020E70912591690082FE004F0E4
:017B790022E9
:10D84600900611123AD5000000009003CAE0444049
:10D85600F054CC12E552E4900884F0900892F090CF
:10D866000615F09003CBF09008F5F09005EFF090D8
:10D8760003DAF0900818F09003D3F0A3F0900608AE
:0AD88600123AD500000000029331B1
:10ADA200900611E0FCA3E0FDA3E0FEA3E02401FF76
:10ADB200E43EFEE43DFDE43CFC900611123AC990EB
:10ADC2000611A3A3A3E05401FFE4FEFDFCFBFAF984
:10ADD200F8C3123A927025900611123AD50000007B
:10ADE20000900904E030E70512E224800312E55ADC
:0DADF2001259099003CAE054FC4402F022FB
:10B36A00900611E0FCA3E0FDA3E0FEA3E02401FFA8
:10B37A00E43EFEE43DFDE43CFC900611123AC9901D
:10B38A000611A3A3A3E05401FFE4FEFDFCFBFAF9B6
:10B39A00F8C3123A927024900611123AD5000000AE
:10B3AA0000900904E030E70512E224800312E55A0E
:0CB3BA00B2B09003CAE054FC4401F02241
:107B7A009005F0E0FCA3E0FDA3E0FEA3E0FF900681
:107B8A0011E0F8A3E0F9A3E0FAA3E0FBC3123A92EA
:107B9A007065900608E0FCA3E0FDA3E0FEA3E0FF09
:107BAA00EC4D4E4F6049900608A3A3A3E024FFFFC3
:107BBA00EE34FFFEED34FFFDEC34FFFC90060812B4
:107BCA003AC9900608A3A3A3E05401FFE4FEFDFC12
:107BDA00FBFAF9F8C3123A926003027C7A9009041C
:107BEA00E030E70512E224800312E55AB2B022908F
:107BFA0003CAE054FCF022900611E0FCA3E0FDA3C6
:107C0A00E0FEA3E02401FFE43EFEE43DFDE43CFC8B
:107C1A00900611123AC9900611A3A3A3E05401FFDA
:107C2A00E4FEFDFCFBFAF9F8C3123A9270119009CE
